:10808000008000203D820000554402001944020097
:108090001944020019440200194402001944020064
:1080A0001944020019440200194402005544020018
:1080B00055440200194402005544020009440200DC
:1080C0005544020055440200554402005544020044
:1080D0005544020055440200554402005544020034
:1080E0005544020055440200554402005544020024
:1080F0005544020055440200554402005544020014
:108100005544020055440200554402005544020003
:1081100055440200554402005544020055440200F3
:108120003D2D020055440200554402005544020012
:1081300055440200554402005544020055440200D3
:1081400055440200554402005544020055440200C3
:1081500055440200554402005544020055440200B3
:1081600055440200554402005544020055440200A3
:1081700055440200B162020055440200A9670200A2
:1081800055440200C56B02005544020055440200EC
:108190005544020055440200554402005544020073
:1081A0005544020055440200554402005544020063
:1081B0005544020055440200554402005544020053
:1081C000554402008D02020055440200554402004D
:1081D0005544020055440200554402005544020033
:1081E00055440200954C02005544020055440200DB
:1081F0005544020055440200554402005544020013
:108200005544020055440200554402005544020002
:1082100055440200554402005544020055440200F2
:1082200055440200554402005544020055440200E2
:1082300055440200554402005544020010B5674BF6
:108240004CF220521A804DF628121A8000BF00BF4F
:108250001CF004F94FF01062614B1A60614A083358
:108260001A60614A04331A60A3F530432C3B1B6843
:1082700013F4807F06D100225C4B1A604FF4A852A1
:10828000043B1A605A4B1B7813F0080F04D0584B6C
:108290001A7842F008021A702A22564B1A70564B6E
:1082A000564A9A420DD2131D554CE41A24F0030489
:1082B00004340023104653495A581A500433A34239
:1082C000FAD1514B514A9A4280F08480131F504991
:1082D000C91A21F003011A1D1144002243F8042F8A
:1082E0008B42FBD176E05A581A500433B3F5DE7F47
:1082F000F9D1484B8021484A03F8011B9342FBD136
:10830000464B474A1A600A22464B1A702422A3F6AB
:10831000FF731A70A022013B1A7006331A7812F00C
:10832000020FFBD0404B1A7812F0100FFBD13E4BDE
:108330001A7802F00C02082AFAD103223B4B1A7079
:10834000402201331A7001331A7812F0200FFBD04B
:10835000354B1A7812F0400FFBD0354A354B1A6076
:10836000022204331A602022334B1A7006331A7823
:1083700002F00C020C2AFAD1304A314B1A60314A11
:10838000314B1A600722043B1A6062B61CF044FBB2
:10839000164B1B6813F0010F05D02C481CF0A2FAF5
:1083A0002B4A2C4B1A602C4B1B7813F0400F0AD031
:1083B000284B1A68264B9A4205D124481CF092FAA1
:1083C0000022244B1A6022F06BF813F0DFFF1DF03F
:1083D00095FAFEE700231248204984E70E20054065
:1083E00030800440823F04000100002B14D0034081
:1083F00002D0074000E00740509FFF1F6095FF1F1D
:10840000539FFF1FC8430300005A0020509FFF1FC7
:10841000FB59002000E400E05FE400E008ED00E02C
:108420000090FF1F005006400640064004400640F2
:10843000000003014480044000400640C0100500D5
:1084400004800440FF76010014E000E0FF6E4A550E
:10845000A5C3945A1CE0034000F007408080000050
:10846000FFFFFFFFFFFFFFFFFFFFFFFFFFFFFFFF1C
:10847000FFFFFFFFFFFFFFFFFFFFFFFFFFFFFFFF0C
:10848000FFFFFFFFFFFFFFFFFFFFFFFFFEFFFFFFFD
:1084900010B5054C237833B9044B13B10448AFF33E
:1084A00000800123237010BD509FFF1F00000000BB
:1084B000C043030008B5064B1BB106480649AFF39D
:1084C00000800648036813B1054B03B1984708BD07
:1084D00000000000C0430300549FFF1F509FFF1F78
:1084E000000000000020704700207047704700BF68
:1084F000704700BF012070470120704740697047F6
:10850000704700BF704700BF30B4C8222C4B1A70B0
:108510002C490B8803EB432203EB820243F21963DD
:108520001A4492B2284C226002EB422402EB8402ED
:108530001A4492B2254C226002EB422402EB8402E0
:108540001A4492B2224C226041F27074214D2C6088
:10855000214D2C6002EB422402EB84021A4492B2B9
:1085600002EB2224E4B2048102EB422402EB8402F7
:108570001A4492B202EB2224E4B2448102EB422478
:1085800002EB84021A4492B202EB2224E4B2848108
:1085900002EB422402EB84021A4492B202EB222440
:1085A000E4B2C48102EB422402EB840213449BB286
:1085B0000B8003EB2323DBB2038230BC704700BF88
:1085C000C49FFF1F1496FF1F04E6FF1F64B0FF1F28
:1085D00068B0FF1F3431002044DDFF1F0369C36111
:1085E0004369036200238360704700BF0E4803881D
:1085F00003EB432203EB820243F219610A4492B275
:108600000A4B1A6002EB422302EB83030B449BB23A
:10861000074A136003EB432203EB8203194489B238
:108620000180044B196070471496FF1F04E6FF1F7A
:1086300064B0FF1F68B0FF1F10B483B0C16E002983
:1086400007DD02460023012442F8144F01338B4218
:10865000FADB184B1B680193019AC2602A238360DE
:108660001F21017600234376036102623724C4612F
:1086700080F82C1080F82D30436242630324046399
:10868000FF2480F8404080F84130836382644724AF
:10869000446480F8541080F85530C364C265592290
:1086A000826580F8681080F86930036603B05DF871
:1086B000044B7047FC55002042F68C33C05870477D
:1086C00008B542F69033C05810B103681B6998474B
:1086D00008BD00BF08B542F69033C05810B103681A
:1086E000DB68984708BD00BFD0F8B802704700BFEC
:1086F0000069704710B582B000248DF804408DF8F1
:1087000005408DF80640034801A915F0BDFC204640
:1087100002B010BDC89FFF1F30B583B005460024CE
:108720008DF804408DF805408DF80640044801A9F5
:1087300015F0AAFCC5F8184985F8244903B030BDE6
:10874000C89FFF1F30B583B0054600248DF8044054
:108750008DF805408DF80640044801A915F094FCF9
:1087600041F21043EC5003B030BD00BFC89FFF1F63
:1087700010B504467C301DF0CBF9204610BD00BF7B
:1087800010B50446002004211DF0B8F9A0730120A3
:1087900003211DF0B3F9E06110BD00BF2DE9F043E6
:1087A00083B00546624B5E7C0B2E28BF0B26614CC6
:1087B0002046202114F0F8FF204605F1680114F04E
:1087C000EBFF2046002114F0AFFE204614F072FEAD
:1087D000594B1B78002B00F09F80584B9F785C789A
:1087E0000C2F84BF0C3FFFB29CB9DFF848810237E1
:1087F00055F827300124009440462146324614F0B3
:10880000DDFE009440462146F21D4D4B14F0D6FE8D
:1088100089E0092C1DD8DFF81C81023455F824307A
:108820000124009440462146324614F0C7FE0094CD
:1088300040462146F21D434B14F0C0FE023755F866
:10884000273000944046214606F10E0214F0B6FE91
:1088500069E0112C1BD1DFF8DC80023755F8273096
:108860000124009440462146324614F0A7FE6B6A6C
:10887000009440462146F21D14F0A0FE00944046AC
:10888000214606F10E02304B14F098FE4BE0132CFB
:1088900015D8DFF8A080023755F827300127009758
:1088A00040463946324614F089FE023455F82430E9
:1088B000009740463946F21D14F080FE33E0DFF8A1
:1088C0007490023755F827300127009748463946FB
:1088D000324614F073FE1D4BA3FB04284FEAD80860
:1088E00008F1140355F82330009748463946F21D25
:1088F00014F064FE08EB8808A4EB480414F0FF04AD
:1089000011D0023455F8243039460097484606F114
:108910000E0214F053FE06E0012100910548324694
:108920000B4B14F04BFE002003B0BDE8F08300BFFA
:108930004CB0FF1FC89FFF1F6828002074B0FF1FA6
:10894000E4F50200ECF50200A0FE0200CDCCCCCC98
:10895000F4F502002DE9F04F8DB000248DF824408D
:108960008DF825408DF826403D4809A915F08CFB6F
:108970002046FF211DF0C2F83A49C2B291F8083CE6
:10898000009308A801F60941FF2316F08FFD012589
:108990000395A246A34602944BE0584602211DF0DF
:1089A000ADF8012806D19DF820909DF821809DF812
:1089B000227003E05F46DDF80880C146A5B2261D9F
:1089C000B6B28DF828908DF829808DF82A7033B2D0
:1089D00000930AAB01932248DDF810E00FFA8EF104
:1089E0002AB2DDF814E00FFA8EF315F027FBBAF186
:1089F000010F11DC8DF82C908DF82D808DF82E70E4
:108A000036B200960BAB01931548079A11B22AB201
:108A1000069D2BB215F012FB0634A4B21F2CBCD15C
:108A20000AF1010A039DAB1D9BB20393BAF1030F38
:108A300010D0039DADB20495039D2B1D9BB20593F1
:108A4000C5F11A039BB20793C5F11E039BB20693AF
:108A50000124A2E74FF4FA600DB0BDE8F08F00BF2B
:108A6000C89FFF1FD0A3FF1F30B585B000248DF82D
:108A700008408DF809408DF80A400D4D284602A99E
:108A800015F002FB2846214615F022FB094B1A88F7
:108A90009B78ADF80C208DF80E30074B00932846DC
:108AA00021461B2203AB15F01BFB204605B030BD51
:108AB000C89FFF1FB8F302006C95FF1F30B585B04B
:108AC00000248DF808408DF809408DF80A400D4DBE
:108AD000284602A915F0D8FA2846214615F0F8FADA
:108AE000094B1A889B78ADF80C208DF80E30074B97
:108AF0000093284621461B2203AB15F0F1FA2046CD
:108B000005B030BDC89FFF1FB8F302006C95FF1F72
:108B100030B585B000248DF808408DF809408DF8F7
:108B20000A400D4D284602A915F0AEFA2846214606
:108B300015F0CEFA094B1A889B78ADF80C208DF809
:108B40000E30074B0093284621461B2203AB15F03D
:108B5000C7FA204605B030BDC89FFF1FB8F302001A
:108B60006C95FF1F30B585B000248DF808408DF856
:108B700009408DF80A400D4D284602A915F084FAE7
:108B80002846214615F0A4FA094B1A889B78ADF8BF
:108B90000C208DF80E30074B0093284621461B22EF
:108BA00003AB15F09DFA204605B030BDC89FFF1FEE
:108BB000B8F302006C95FF1F30B585B000248DF826
:108BC00008408DF809408DF80A400D4D284602A94D
:108BD00015F05AFA2846214615F07AFA094B1A88F8
:108BE0009B78ADF80C208DF80E30074B009328468B
:108BF00021461B2203AB15F073FA204605B030BDA9
:108C0000C89FFF1FB8F302006C95FF1F30B585B0F9
:108C100000248DF808408DF809408DF80A400D4D6C
:108C2000284602A915F030FA2846214615F050FAD8
:108C3000094B1A889B78ADF80C208DF80E30074B45
:108C40000093284621461B2203AB15F049FA204623
:108C500005B030BDC89FFF1FB8F302006C95FF1F21
:108C600030B585B000248DF808408DF809408DF8A6
:108C70000A400D4D284602A915F006FA284621465D
:108C800015F026FA094B1A889B78ADF80C208DF860
:108C90000E30074B0093284621461B2203AB15F0EC
:108CA0001FFA204605B030BDC89FFF1FB8F3020071
:108CB0006C95FF1F30B585B000248DF808408DF805
:108CC00009408DF80A400D4D284602A915F0DCF93F
:108CD0002846214615F0FCF9094B1A889B78ADF817
:108CE0000C208DF80E30074B0093284621461B229E
:108CF00003AB15F0F5F9204605B030BDC89FFF1F46
:108D0000B8F302006C95FF1F30B585B000248DF8D4
:108D100008408DF809408DF80A400D4D284602A9FB
:108D200015F0B2F92846214615F0D2F9094B1A88F8
:108D30009B78ADF80C208DF80E30074B0093284639
:108D400021461B2203AB15F0CBF9204605B030BD00
:108D5000C89FFF1FB8F302006C95FF1F30B585B0A8
:108D600000248DF808408DF809408DF80A400D4D1B
:108D7000284602A915F088F92846214615F0A8F9D9
:108D8000094B1A889B78ADF80C208DF80E30074BF4
:108D90000093284621461B2203AB15F0A1F920467B
:108DA00005B030BDC89FFF1FB8F302006C95FF1FD0
:108DB00030B585B000248DF808408DF809408DF855
:108DC0000A400D4D284602A915F05EF928462146B5
:108DD00015F07EF9094B1A889B78ADF80C208DF8B8
:108DE0000E30074B0093284621461B2203AB15F09B
:108DF00077F9204605B030BDC89FFF1FB8F30200C9
:108E00006C95FF1FFFFFFFFF2DE9F0478AB0064674
:108E100000238DF80C308DF80D308DF80E3064483D
:108E200003A915F031F97769B7F1FF3F0CD1202084
:108E30001CF058FEF06020201CF054FE3061AA2384
:108E4000B3600023736100E027BBB589348A594BB6
:108E5000327A93F8081C009105A803F60941FF2314
:108E600016F024FB9DF815209DF816309DF814107F
:108E70008DF810108DF811208DF8123004AB00938E
:108E80004B4829B222B2002315F008F87369013368
:108E9000736183E0B3699F427DDAB6F80C90B6F84F
:108EA000108096F808A0F06920F040FC04460D46BA
:108EB000B81E20F029FC02460B46204629461EF02B
:108EC000CDF939A3D3E9002320F084FC20F044FF3E
:108ED000C3B2384A92F8082C009207A83649524685
:108EE00016F0E4FA9DF81D209DF81E309DF81C1028
:108EF0008DF818108DF819208DF81A3006AB0093F4
:108F00002B480FFA89F10FFA88F2BBB214F0C6FFB2
:108F10007769032F3BDDB6F80C90B6F8108096F811
:108F200008A0F06920F002FC04460D46B81E20F0AF
:108F3000EBFB02460B46204629461EF08FF91AA38A
:108F4000D3E9002320F046FC20F006FFC3B2194A03
:108F500092F8082C009209A81749524616F0A6FA72
:108F60009DF825209DF826309DF824108DF82010BE
:108F70008DF821208DF82230FB1E08AA00920C48A3
:108F80000FFA89F10FFA88F29BB214F087FF736928
:108F90000133736102E04FF0FF33736132200AB096
:108FA000BDE8F087AFF300800000000000E06F40F4
:108FB000C89FFF1FD0A3FF1FD9AFFF1FAFF30080D3
:108FC00010B500F11C04204618F000F810B120463E
:108FD00017F0F0FF10BD00BF10B500F50674204675
:108FE00017F0F4FF10B1204617F0E4FF10BD00BFEA
:108FF00010B50446034B036000F5067017F092FFAE
:10900000204610BDA0F3020010B50446034A40F804
:109010001C2B17F087FF204610BD00BFF8F102009F
:1090200010B5044600F5166017F07CFF204610BD11
:109030002DE9F04F83B083464FF000094FF00F0A3F
:10904000204E4FEAC9085FFA88F855460024FF27EA
:10905000102C06DC8DF800808DF801508DF8027020
:1090600007E08DF800808DF80170C5F10D038DF8D3
:109070000230684601A916F015FB9DF8042096F809
:1090800024309A4210D19DF8052096F825309A4256
:109090000AD19DF8062096F826309A4204D1CBF8E2
:1090A0000890CBF80C4009E001340F35EDB2202CCC
:1090B000CED109F10109B9F11F0FC2D103B0BDE84A
:1090C000F08F00BF7C3100202DE9F04F83B0834644
:1090D0004FF000094FF00F0A1E4E4FEAC9085FFA21
:1090E00088F855460024FF27102C06DC8DF80080F8
:1090F0008DF801508DF8027007E08DF800808DF832
:109100000170C5F10D038DF80230684601A916F013
:10911000C9FA9DF8042033789A420ED19DF80520B3
:1091200073789A4209D19DF80620B3789A4204D107
:10913000CBF80890CBF80C4009E001340F35EDB2C4
:10914000202CD1D109F10109B9F11F0FC5D103B00C
:10915000BDE8F08F5831002008B51BF0BDFB08BDFD
:109160002DE9F04786B00546D0F81839002B2BDCE6
:1091700000238DF80C308DF80D308DF80E30A94895
:1091800003A914F081FF05F10F0305F20F10002170
:1091900006E003F8011F9342FBD1824203D013463D
:1091A00003F11002F5E710201CF09CFC044610208F
:1091B0001CF098FCC5F81841C5F81C010123C5F83E
:1091C0001839002385F82439D5F81809D5F81C3941
:1091D000012B01D0441E02E01CF084FC0446002C4C
:1091E000C0F2C78004F1230205F5887305EBC202C3
:1091F00092E8030083E803008046D5F814912F46D7
:1092000000264FF0040A304651461CF077FC97F8D0
:109210002539284490F8252987F8252980F825390B
:1092200001360137042EEED1D5F81C39012B0BD0B5
:109230007D4991F8083C009302A801F60941E2B289
:10924000FF2316F033F9ACE095F82429531C85F878
:109250002439754991F8083C009302A801F60941A8
:10926000FF2316F023F99CE093F82509022809D082
:1092700004280DD0012811D1D5F81061D5F814714A
:10928000013F10E0D5F81061D5F8147101370AE0FC
:10929000D5F81061013ED5F8147104E0D5F81061DD
:1092A0000136D5F814710F2E52D80F2F50D805EB78
:1092B00007113144097C00294AD14FEA48014FEA9D
:1092C0004902D5F81441D5F8103105EB04142344B4
:1092D0001C7C04431C7405EB071333441B7C0228DD
:1092E00069D0042860D0012800F0918005EB0714B4
:1092F000344443F004032374022807D0042807D021
:10930000012818BF013105D1013A03E0013201E023
:109310000139FFE79DF809009DF80A309DF80840E3
:109320008DF814408DF815008DF816303D4809B2BF
:1093300012B205AB14F012FCD5F818395A1CC5F856
:109340001829233305EBC30245F83360576010E05A
:109350000133934288D135E0013493E8030003E9F7
:109360000300D5F81829013A08339442F4DBC5F814
:109370001829D5F81839002B0EDCD5F81C39013323
:10938000C5F81C39D5F82029934207DB0023C5F81E
:109390001C394FF47A7041E000203FE04FF47A70BE
:1093A0003CE02A1D2B465FE705EB0710304443F0F5
:1093B00008030374ACE705EB0710304443F00103E6
:1093C0000374A3E704F1230305EBC30255F833103C
:1093D0004900526852009DF809009DF80A309DF836
:1093E00008608DF810608DF811008DF812300D486E
:1093F00009B212B204AB14F0B1FBD5F81829013A46
:109400009442B4DA04F1240305EBC303A4E705EBAB
:109410000710304443F00203037475E706B0BDE85B
:10942000F08700BFC89FFF1FD0A3FF1F10B50446E1
:1094300043691944012902DD0023436104E0002946
:10944000AEBF416101234361206A10B103681B690B
:1094500098476369063354F82300206210B103680B
:10946000DB68984710BD00BF10B5044600200221FC
:109470001CF044FB012802DD0023636104E00028A6
:10948000AEBF606101236361206A10B103681B698C
:1094900098476369063354F82300206210B10368CB
:1094A000DB68984710BD00BF2DE9F04F8FB0244C0A
:1094B00000250027A046DFF88C904FF0814B00205C
:1094C000FF211CF01BFB0020FF211CF017FB28468E
:1094D00020F06CFD20606760C8EB040608F108030B
:1094E000F75006EB030A284620F00EF912A3D3E941
:1094F000002320F06FF920F04FFCCAF8040008F1B7
:109500001003F7501E447760C4F81890C4F81C90FC
:10951000C4F820B04FF082436362EB0084F8283037
:109520000C9BE362012384F830301D443434202D39
:10953000C5D10FB0BDE8F08F7B14AE47E17A84BF90
:1095400080280020000020412DE9F04F91B03649DD
:109550000B8803EB432203EB820343F219621344AB
:109560009BB2038103EB432403EB840313449BB2BC
:10957000438103EB432403EB84031A4492B20A8031
:1095800082812A4C0026DFF8AC904FF07C5A2020D4
:109590001CF0A8FA05460020FF211CF0AFFA834614
:1095A0000020FF211CF0AAFA0190284620F0FAFCC6
:1095B000206066601D4BE51A984603F1080758467F
:1095C00020F0F4FC494620F0F9FD514620F038FC2B
:1095D000E8512F44019820F0E9FC494620F0EEFDC7
:1095E000514620F02DFC786008F11003EE501D4428
:1095F0006E600F4BA3614FF07F53E3614FF08143E7
:1096000023624FF082436362002384F828300E9B6C
:10961000E362012384F83030343408F502639C425D
:10962000B5D111B0BDE8F08F1496FF1F802800203F
:10963000CDCC4C3D00007F432DE9F04F83B08346F5
:10964000002002211CF05AFA0028034608BF4FF000
:10965000FF330193DBF80830002B4FDD294C002548
:1096600000270020FF211CF049FA0020FF211CF0F8
:1096700045FA282032211CF041FA8246224B236011
:10968000C5F11F0020F092FC60601E4BE61A984660
:1096900003F10809504620F089FC1C4920F08EFD9A
:1096A0008246019820F082FC0146504620F0D2FC10
:1096B00046F80900B144C9F8047008F1100846F8EA
:1096C0000870B044C8F80470114BA3614FF07F5389
:1096D000E3614FF0814323624FF0824363626B0189
:1096E00084F828304FF07E53E362012384F8303051
:1096F0001D443434DBF80830AB42B2DC03B0BDE8C3
:10970000F08F00BF80280020000070410000C84298
:10971000CDCC4C3D70B582B004461D4B1B68019307
:10972000019AC368D21A03699A4229D90022194BB7
:109730001A70194819F0D4FE18B10122154B1A708D
:1097400012E094F827302BB9144819F041FE012398
:1097500084F82730104D2E7819F0ECFD294619F0C9
:1097600089FC2B78B34208D001220D4B1A70084BAC
:109770001B680093009BE36002E00022084B1A7014
:10978000206A10B103689B689847002002B070BD42
:10979000FC550020CCA3FF1F74B0FF1F599100009F
:1097A000682800202DE9F04F93B00B9041F2104350
:1097B000C358002B40F0B7838DF83C308DF83D3016
:1097C0008DF83E30B1480FA914F05EFC04201CF067
:1097D00089F9032800F2B181DFE810F016000D00CE
:1097E00004004C0100221346A94D174640F6F52609
:1097F0004FF0FF0816E100221346A54D174640F62C
:10980000F5264FF0FF08A9E000221346A04D1746A9
:1098100040F6F5264FF0FF083CE085FB04AB4FEA2D
:10982000E47ACAEBAB0A80F813A080F814C080F881
:1098300015E00133B3F5806F00F06383FF3403302C
:109840004B45EAD1FF31B14220D085FB010CC8174E
:10985000C0EBAC0C5FFA8CFC03EB430410340B98A8
:109860002044DDF82C9009F8047080F801C080F8DD
:1098700002E05C1CB4F5806F00F0438303EB43000F
:10988000484403F10B0923464446C6E7FF32B2427F
:1098900000F0378385FB02AED117C1EBAE0E5FFA45
:1098A0008EFE3946D1E7284631461CF027F994F858
:1098B00010C094F811E0A17C00EB40003B1833F895
:1098C000102F9B782282A37400F11002BB1807F8B6
:1098D00002C083F801E0997001350334B5F5806F5B
:1098E000E1D12AE180F813E085FB04AB4FEAE47A8A
:1098F000CAEBAB0A80F814A080F815C00133B3F5A9
:10990000806F00F00483FF3403304B45EAD1FF3110
:10991000B1421FD085FB010CC817C0EBAC0C5FFA3D
:109920008CFC03EB430410340B982044DDF82C909E
:1099300009F804E0477080F802C05C1CB4F5806F41
:1099400000F0E58203EB4300484403F10B09234692
:109950004446C7E7FF32B24200F0D98285FB02AE2F
:10996000D117C1EBAE0E5FFA8EFE3946D2E728461C
:1099700031461CF0C3F894F810C094F811E0A17CB3
:1099800000EB40003B1833F8102F9B782282A37421
:1099900000F11002BB1807F802C083F801E09970CB
:1099A00001350334B5F5806FE1D1C6E080F813E0EE
:1099B00080F814C085FB04AB4FEAE47ACAEBAB0A2B
:1099C00080F815A00133B3F5806F00F0A682FF3454
:1099D00003304B45EAD1FF31B1421FD085FB010C6A
:1099E000C817C0EBAC0C5FFA8CFC03EB43041034DB
:1099F0000B982044DDF82C9009F804E080F801C0B1
:109A000087705C1CB4F5806F00F0878203EB430025
:109A1000484403F10B0923464446C7E7FF32B242EC
:109A200000F07B8285FB02AED117C1EBAE0E5FFA70
:109A30008EFE3946D2E7284631461CF05FF894F88E
:109A400010C094F811E0A17C00EB40003B1833F803
:109A5000102F9B782282A37400F11002BB1807F824
:109A600002C083F801E0997001350334B5F5806FC9
:109A7000E1D162E00020FF211CF040F8C6B2DDF821
:109A80002C804FF0000BD946FF2751E0C89FFF1FE5
:109A900067666666B5F5806F15DA8DF838608DF803
:109AA00039408DF83A700EA811A915F0E7FD9DF820
:109AB00044109DF845209DF846308AF800108AF839
:109AC00001208AF8023001351034A4B20AF1030AE9
:109AD000B4F5807FDED1DA460BF11005C346B5F54B
:109AE000806F15DA8DF838608DF839708DF83A404E
:109AF0000EA810A915F0C2FD9DF840109DF8412058
:109B00009DF842308BF840108BF841208BF84230A2
:109B10000135103CA4B20BF1030B002CDFD10AF18C
:109B2000200B0836F6B208F16008BBF5806F04D050
:109B300008F1100A5D464C46ACE702201BF0D2FF4C
:109B400041F21443DDF82C9049F8030009F5416017
:109B500009F54364002208E01A7083F800242033DA
:109B60008B42F9D10130A04203D000F58061034659
:109B7000F2E741F21043DDF82CA05AF8033003EB72
:109B80004302524432F8101F9278ADF834108DF829
:109B9000362043B920201BF0A5FF054620201BF0EE
:109BA000A1FF04464DE19DF83490CDF820909DF83A
:109BB00035A0CDF81CA09DF83690CDF8189041F254
:109BC0001443DDF82CA05AF8033053B94FF00009C4
:109BD000CDF81490CDF82490CDF80890AC490A91B6
:109BE0009BE04FF00009CDF81090CDF81490CDF81F
:109BF0000C90A74909911FE109950594029A5A44CE
:109C000041F21003D35C002B6FD0029A0232039210
:109C1000029B5E1EDFF878A207F1FF39CDF81090A5
:109C2000CDF804B0B6F1FF3F4AD0202E48D0DDF881
:109C3000049009F5416507F102083544049C0FFAC8
:109C400086FB0FB90298B8B3B4F1FF3F34D0202C93
:109C500032D015F8203C7BB38E4821B25A4613F01F
:109C60002FFF8DF83800C0F307228DF83920C0F39C
:109C700007438DF83A30C0B2DDF82090C9EB000000
:109C8000D2B2DDF81C90C9EB0202DBB2DDF818900D
:109C9000C9EB030302FB02F200FB002003FB0309F4
:109CA000D14507DB08D102201BF01CFF012818BF9B
:109CB000CA4601D1CA46FFE7013420354445C0D128
:109CC0000136DDF80C904E45ACD1DDF804B00A98B1
:109CD000824505DB0CD102201BF004FF01280AD1CC
:109CE000029C3D46CDF828A009E0059C099D06E0B0
:109CF000059C099D03E0059C099DCDF828A001372E
:109D00000BF1200B202F7FF477AF029901310291E4
:109D1000202900F0968009950594DDF82CA04FF0DD
:109D2000000B5F46D34669E705950494039A5244B5
:109D300041F21003D35C002B63D0DDF80C9009F1E5
:109D4000FF364FF00009CDF804904FF0FF380BEBD1
:109D500008000290CDF828B0B6F1FF3F39D0202E90
:109D600037D00AF541650AF5476737443544029C08
:109D70000FFA86FBB4F1FF3F27D0202C25D015F831
:109D8000203C13B309F10109424821B25A4613F0AD
:109D900097FE8DF83800C0F307228DF83920C0F304
:109DA00007438DF83A30C0B20899401AD2B20799E9
:109DB000521ADBB206995B1A02FB02F200FB00208A
:109DC00003FB0303019A1A44019201342035BD427A
:109DD000D0D108F101080136B8F1020FBCD1DDF88D
:109DE00028B0019B93FBF9F60998864205DB0BD15D
:109DF00002201BF077FE012809D1039C5D460996DD
:109E000008E0049C059D05E0049C059D02E0049C7F
:109E1000059D09960BF1010B0AF1200ABBF1200FF9
:109E200082D1DDF80C9009F10109CDF80C9048467B
:109E3000202806D005950494DDF82CA04FF0000BE7
:109E400074E7DDF82C9009EB45163319002141F237
:109E500010029954012283F8102C0E4829B222B224
:109E60000DAB13F07BFE013C2F464FF0FF3206F5A1
:109E7000805610364FF000084FF0010CB4F1FF3F50
:109E800021D0202C1FD06B1E3019414607E000BFA7
:109E90003F420F00C89FFF1F0131203001339F4216
:109EA00001D1002AF8D0B3F1FF3F0AD0202B08D00F
:109EB000A0F5846999F80090B9F1000F01D100F87C
:109EC00020CC0129E8DD01320134022AD6D141F249
:109ED0001043DDF82CA05AF803300133B3F5806F3E
:109EE00005DA41F210424AF80230002028E0002250
:109EF00041F21043DDF82C9049F8032040F6B830C9
:109F00001EE00B9C00254FF480662746CBE40B9C9B
:109F100000254FF48066274629E50B9C00254FF469
:109F20008066274687E503EB4303DDF82CA0534406
:109F300033F8102F9B78ADF834208DF8363032E6A8
:109F400013B0BDE8F08F00BF70B483B0FF289CBF92
:109F5000000280B21E4C24680194019CE31A4FF465
:109F60008C7404FB03F300FB03F39DF8184004EB2F
:109F70001363DBB213F0400F21D0DD43EDB205F0E7
:109F80003F0005F00F050135124C00114000261866
:109F9000767805FB06F5205C00EB2515EDB213F095
:109FA000800F0EBFEBB26B42DBB283F08003501A1E
:109FB000C0B200FB03F001EB2021C8B204E003F0C3
:109FC0003F0003F00F05DFE703B070BC704700BF30
:109FD000FC550020C4F50200F0B583B00446467C71
:109FE0001F4B1B78C3B11F4B9D78437D1BB90C2DB4
:109FF00084BF0C3DEDB21C48052113F095FA04F125
:10A0000008001A492A46174B5B7820F0FFFF0A2DFB
:10A0100034BF042701270AE01348002113F084FA13
:10A02000134B03CBA060E1601B78237401270E4D16
:10A030002846202113F0B8FB284604F1120113F042
:10A04000ABFB284613F036FA012300932846394625
:10A05000324604F1080313F0B1FA002003B0F0BD5A
:10A060006828002074B0FF1FC89FFF1F00F6020081
:10A07000F4F502002DE9F04F9FB003904D4CDFF84E
:10A080005091DFF840814FF07C5B4FF0000A0020D8
:10A09000FF211BF033FD01900020FF211BF02EFD5E
:10A0A0000290C4F80090C4F804904249651A0F4623
:10A0B00001F1080601981FF079FF414620F07EF873
:10A0C00059461FF0BDFEA8512E4402981FF06EFFA6
:10A0D000414620F073F859461FF0B2FE706007F158
:10A0E000100345F803A01D44C5F804A04FF08143B8
:10A0F00023624FF082436362002384F828300F9B71
:10A10000E362012384F830302B4BE3612B4BA361D6
:10A11000343407F502729442B9D1002002211BF0B9
:10A12000EDFC0028D4BF00200120039B83F84500EC
:10A1300000283BD00020FF211BF0E0FC054600205A
:10A14000FF211BF0DBFC04461D4B03998B60CB60A9
:10A1500028461FF02BFF1B4920F030F84FF07C51B0
:10A160001FF06EFE039A106120461FF01FFF154975
:10A1700020F024F84FF07C511FF062FE039B5861E1
:10A18000002303998B61CB61002281F830201C9A57
:10A190004A63012281F8382081F845200A4A4A6240
:10A1A0000A4A0A624FF08342CA628B621FB0BDE85E
:10A1B000F08F00BF802800205C8FC23E8FC2753CAC
:10A1C0000000F84100007F43B81EC53E0AD7A33CFB
:10A1D000000070412DE9F04387B000258DF8105044
:10A1E0008DF811508DF81250214804A913F04CFF3E
:10A1F000DFF88490DFF884801E4E06F60947D8F811
:10A20000003095FBF3F359F823402246002CB8BFE9
:10A21000E21C96F8083C009303A83946C2F3870273
:10A22000FF2315F043F9ABB29DF80D109DF80E20F9
:10A230009DF80C008DF814008DF815108DF816207F
:10A2400019B22246002CB8BF04F11F025211C2F10C
:10A2500020021F20009005A80190054812B21BB2F1
:10A2600013F0C8FD0135202DC9D107B0BDE8F0833A
:10A27000C89FFF1FD0A3FF1F28280020B495FF1FF1
:10A280002DE9F04F87B000278DF810708DF8117010
:10A290008DF81270294804A913F0F6FE284B1D1FF3
:10A2A00003F1380BDFF89C8008F6094ADFF88C9040
:10A2B00055F8044F6E682246002CB8BFE21C98F88F
:10A2C000083C009303A85146C2F38702FF2315F010
:10A2D000EDF82346002CB8BF04F11F035A11C2F158
:10A2E0002002D2B23346002EB8BF06F11F035B1125
:10A2F000C3F12003DBB2BC1CA4B29DF80D009DF895
:10A300000E109DF80C608DF814608DF815008DF816
:10A3100016101F2B28BF1F23009305AB019348463F
:10A3200039B21F2A28BF1F2223B213F063FD5D45F7
:10A3300001D02746BCE707B0BDE8F08FC89FFF1FDC
:10A3400028280020D0A3FF1F38B504460D46084634
:10A350001AF0BCF8024623685B68204629469847F5
:10A36000054620461BF00CFB284438BD2DE9F04380
:10A3700083B007460E4615460E4B1B680093DDF86A
:10A3800000900024DFF82C803019291B1BF0E2F824
:10A390000444A5420AD9D8F800300193019AC9EBC8
:10A3A0000202BB689A42EFD301233B73204603B0FD
:10A3B000BDE8F083FC55002030B589B00546002388
:10A3C0008DF804305A4B009302914FF0FF33039302
:10A3D0005848694619F098FC0446002800F0A5800A
:10A3E00054482146544A19F0F7FC0346027C042ADB
:10A3F00004D105F10C00996920F0FEFF4D4821467B
:10A400004E4A19F0E9FC037C022B04D1836985F8DC
:10A41000703001232B7147482146494A19F0DCFC72
:10A42000037C022B04D1836985F8713001232B71E1
:10A4300040482146434A19F0CFFC037C022B04D14B
:10A44000836985F8723001232B713A4821463E4AD0
:10A4500019F0C2FC037C022B04BF83696B6735488B
:10A4600021463A4A19F0B8FC037C022B04BF8369E9
:10A47000AB6730482146364A19F0AEFC0346027CF1
:10A48000042A04D105F17C0099691BF0DDFB294801
:10A490002146304A19F0A0FC037C022B04BF8369DB
:10A4A00085F88C30234821462B4A19F095FC034649
:10A4B000027C042A33D104A899691BF075FB04A817
:10A4C00026491BF021FCE0B904A825491BF01CFC1F
:10A4D000C8B904A823491BF017FCB0B904A8224945
:10A4E0001BF012FC98B904A820491BF00DFC80B9A0
:10A4F00004A81F491BF008FC00280CBF05230423F7
:10A5000008E0052306E0002304E0012302E0022323
:10A5100000E0032385F88D3004A81BF0F9FA054804
:10A52000214619F0C9F8012000E0002009B030BD33
:10A53000D83B03006855002008F6020010F6020020
:10A5400014F602001CF6020024F6020028F60200AF
:10A5500030F6020038F6020040F6020048F602002B
:10A560005CF6020068F6020078F6020088F6020047
:10A5700090F6020030B585B005460C465248534A65
:10A5800019F02AFC0346027C042A04D105F10C00D0
:10A59000996920F031FF4C4821464D4A19F01CFCC6
:10A5A000037C022B04D1836985F8703001232B7161
:10A5B00045482146474A19F00FFC037C022B04D181
:10A5C000836985F8713001232B713F482146424A47
:10A5D00019F002FC037C022B04D1836985F87230E8
:10A5E00001232B71384821463C4A19F0F5FB037CC6
:10A5F000022B04BF83696B6733482146384A19F040
:10A60000EBFB037C022B04BF8369AB672E4821461A
:10A61000344A19F0E1FB0346027C042A04D105F117
:10A620007C0099691BF010FB274821462E4A19F03F
:10A63000D3FB037C022B04BF836985F88C3022484E
:10A6400021462A4A19F0C8FB0346027C042A33D16A
:10A65000684699691BF0A8FA684625491BF054FB27
:10A66000E0B9684623491BF04FFBC8B96846224948
:10A670001BF04AFBB0B9684620491BF045FB98B96E
:10A6800068461F491BF040FB80B968461D491BF016
:10A690003BFB00280CBF0523042308E0052306E04C
:10A6A000002304E0012302E0022300E0032385F8F5
:10A6B0008D3068461BF02CFA0348214618F0FCFF49
:10A6C000012005B030BD00BF6855002008F602002B
:10A6D00010F6020014F602001CF6020024F6020036
:10A6E00028F6020030F6020038F6020040F60200BA
:10A6F00048F602005CF6020068F6020078F60200F6
:10A7000088F6020090F6020010B500F17C042046A5
:10A7100013491BF0F9FAC8B9204612491BF0F4FAA4
:10A72000B0B9204610491BF0EFFA98B920460F49FE
:10A730001BF0EAFA80B920460D491BF0E5FA68B92A
:10A7400020460C491BF0E0FA052010BD002010BD8A
:10A75000012010BD022010BD032010BD042010BD3B
:10A7600094F602009CF60200A4F60200B0F6020085
:10A77000BCF60200C8F6020010B50C4608461549A2
:10A780001BF0C2FAE0B9204613491BF0BDFAC8B964
:10A79000204612491BF0B8FAB0B9204610491BF008
:10A7A000B3FA98B920460F491BF0AEFA80B920469B
:10A7B0000D491BF0A9FA00280CBF0520042010BD8C
:10A7C000052010BD002010BD012010BD022010BDCD
:10A7D000032010BD48F602005CF6020068F6020095
:10A7E00078F6020088F6020090F602002DE9F041AA
:10A7F000D8B007460D469E4E04AC9AE12B798DF8F1
:10A800001430AB6806932B7B8DF81C3004962B46D6
:10A8100053F80D0F59689A68CDF81D00CDF8211036
:10A82000CDF825201B7B8DF82930EB690B9368460A
:10A8300000211BF0B9F908E0204616F0FDFA0FE000
:10A840000A290DD068461BF033FA204616F09EFB0D
:10A8500030B1204616F0F0FAC1B20D29F0D1EBE785
:10A86000204616F05FFB0CA882491BF09DF9684654
:10A870000CA91BF07FFA80460CA81BF049F9B8F12F
:10A88000000F13D010A8694605221BF0D3FA6846C2
:10A8900010A91BF0D1F910A81BF03AF9684607F18E
:10A8A0000C01642200231BF089FA3FE114A87249CD
:10A8B0001BF07AF9684614A91BF05CFA804614A8CC
:10A8C0001BF026F9B8F1000F17D018A8694604222A
:10A8D0001BF0B0FA684618A91BF0AEF918A81BF0D7
:10A8E00017F9029B002B00F0218168461BF0BAFA91
:10A8F00087F8700001233B7118E11CA85F491BF029
:10A9000053F968461CA91BF035FA80461CA81BF0B9
:10A91000FFF8B8F1000F17D020A8694606221BF0F7
:10A9200089FA684620A91BF087F920A81BF0F0F8E7
:10A93000029B002B00F0FA8068461BF093FA87F820
:10A94000710001233B71F1E024A84D491BF02CF963
:10A95000684624A91BF00EFA804624A81BF0D8F8FC
:10A96000B8F1000F17D028A8694605221BF062FA3B
:10A97000684628A91BF060F928A81BF0C9F8029BBB
:10A98000002B00F0D38068461BF06CFA87F8720049
:10A9900001233B71CAE02CA83A491BF005F968462F
:10A9A0002CA91BF0E7F980462CA81BF0B1F8B8F1F0
:10A9B000000F14D030A8694604221BF03BFA684609
:10A9C00030A91BF039F930A81BF0A2F8029B002B2C
:10A9D00000F0AC8068461BF045FA7867A6E034A822
:10A9E00029491BF0E1F8684634A91BF0C3F98046F9
:10A9F00034A81BF08DF8B8F1000F14D038A86946C0
:10AA000005221BF017FA684638A91BF015F938A87B
:10AA10001BF07EF8029B002B00F0888068461BF03C
:10AA200021FAB86782E03CA818491BF0BDF86846D7
:10AA30003CA91BF09FF980463CA81BF069F8B8F1CF
:10AA4000000F25D040A8694605221BF0F3F968469F
:10AA500040A91BF0F1F840A81BF05AF8029B002B0C
:10AA600064D007F17C0069461BF0D0F85EE000BFBF
:10AA7000603B0300D4F60200DCF60200E4F60200BC
:10AA8000ECF60200F4F60200FCF6020004F7020005
:10AA900044A82D491BF088F8684644A91BF06AF9C0
:10AAA000804644A81BF034F8B8F1000F14D048A831
:10AAB000694606221BF0BEF9684648A91BF0BCF89F
:10AAC00048A81BF025F8029B002B2FD068461BF0EE
:10AAD000C9F987F88C0029E04CA81C491BF064F8E0
:10AAE00068464CA91BF046F980464CA81BF010F8AC
:10AAF000B8F1000F1AD050A8694605221BF09AF948
:10AB0000684650A91BF098F850A81BF001F8029B6A
:10AB100063B154A869461BF083F8384654A9FFF77F
:10AB20002BFE87F88D0054A81AF0F2FF68461AF041
:10AB3000EFFF2B689B682846984700283FF75EAEDA
:10AB400058B0BDE8F08100BF0CF7020014F7020016
:10AB50002DE9F041F0B00446984B1B78002B00F033
:10AB60000B8185680135856043799D4204DB4FF098
:10AB7000FF33836000251CE10268002DC0F287804E
:10AB800008A88F49012316F09BFB08A816F01EFAAF
:10AB9000002879D010A808A9012216F039FC894EA6
:10ABA000894F68E010A816F005FA64E010A816F0C6
:10ABB000BFF9014603785F2B38D07E2B36D02E2B81
:10ABC00034D06CA81AF0F0FF6CA81BF03BF90146DA
:10ABD00004A81BF025F86CA81AF09AFF68A8314663
:10ABE0001AF0E2FF04A868A91BF0D0F8012800F0D1
:10ABF000D98064A839461AF0D7FF04A864A91BF0CD
:10AC0000C5F8804664A81AF083FF68A81AF080FF90
:10AC100004A81AF07DFFB8F1010F07D1013D10A87B
:10AC200016F086F90146684620F0E6FB10A816F0FB
:10AC3000C1F95CA808A9012216F0EAFB9DF874315D
:10AC40008DF844305E9B12939DF87C318DF84C302A
:10AC500070AB53F8430D59689A68CDF84D00CDF8A4
:10AC60005110CDF855201B7B8DF85930639B1793FD
:10AC70005CA816F057F910A816F0A8F9002800F003
:10AC80008480002D7ADA80E008A816F04BF910A82D
:10AC9000216820F0B1FB10A8694620F0FFF908A850
:10ACA000474910AA012316F00BFB08A816F08EF9ED
:10ACB000054620B92046FFF74BFF054658E0002621
:10ACC000267384F8706084F8716084F872600123E0
:10ACD0006367A36704F17C0005211AF0C7FF1823FE
:10ACE00084F88C3084F88D60267150A869461AF07B
:10ACF0005BFF50A81BF0A6F8014604A81AF090FFCD
:10AD000050A81AF005FF54A82E491AF04DFF04A8C8
:10AD100054A91BF03BF8064654A81AF0F9FE012E80
:10AD200004D1204608A9FFF761FD11E058A8264983
:10AD30001AF03AFF04A858A91BF028F8064658A8AC
:10AD40001AF0E6FE012E03D1204608A9FFF734FBD6
:10AD500023793BB91D4B33F8042F9B78A4F870205E
:10AD600084F8723008A816F025F904A81AF0D0FE6D
:10AD700008A816F0D7F81CE000251AE010A816F075
:10AD8000D9F800287FF40EAF10E710A816F012F9DA
:10AD900008A816F00FF910A816F0C4F808A816F0C5
:10ADA000C1F874E768A81AF0B3FE04A81AF0B0FE60
:10ADB00034E7284670B0BDE8F08100BFD8DDFF1F42
:10ADC000605200201CF7020024F70200B8F30200D2
:10ADD00070B506460D4B18781FF0E8F8014630466E
:10ADE0001FF0E0FA68B9094D012415F8010F1FF0B2
:10ADF000DDF831461FF0E0FA30B901340C2CF4D103
:10AE000001E0002400E00024204670BD9C95FF1F57
:10AE100010B5044600211FF0BBFA28B920460549A9
:10AE20001FF0D4FA10B902E0024C00E000242046E2
:10AE300010BD00BF00007F4310B5054C20781FF007
:10AE4000B1F8FFF7E5FF1FF0F1FA207010BD00BF69
:10AE5000E033002010B50C46FFF7BAFF001903D409
:10AE60000C28A8BF002000E00B20034B185C1FF04B
:10AE700099F8FFF7CDFF10BD9C95FF1F08B5002086
:10AE8000012119F071FD0120014619F06DFD00202E
:10AE9000014619F037FD0120014619F033FD08BDC8
:10AEA0002DE9F04F83B00025804B1D70284601210D
:10AEB00019F028FD2846294619F024FD2C460126C4
:10AEC000DFF820827A4F3046002119F01BFD4FF445
:10AED0002073013B7FF4FDAF282019F085F954F869
:10AEE0000830184420EAE073E3519D42B8BF1D4684
:10AEF0003046314619F006FD04341C2CE3D16D4B6D
:10AF0000187818B11FF04EF881465AE06A4B18784D
:10AF100005FB00F5694B1B889D4222DB684B9B7843
:10AF200083421ED8674B1B680093009A664B1B68D0
:10AF300013B9654B1A603FE0644909880B4493429A
:10AF40003AD21FF02FF84FF0FF31FFF783FF1FF0C9
:10AF50006DFA594B187000235B4A13605C4A13600A
:10AF60002AE05C4B1B889D4221DC554BDB7A8342F7
:10AF70001DD9544B1B680193019A554B1B6813B99B
:10AF8000534B1A6018E0544909880B44934213D27A
:10AF90001FF008F80121FFF75DFF1FF047FA464B4D
:10AFA000187000234A4A1360474A136004E00023E4
:10AFB000474A1360444A13603F4B18781EF0F2FF73
:10AFC0008146464BD3F800A0384B1D780024384EFC
:10AFD00040F2FF38424FA346A0591EF0E7FF494612
:10AFE0001FF038F81FF0FCF920EAE0704045A8BFD8
:10AFF0004046A051E359984201DBE05107E0002BA5
:10B0000005DDB3EB0A0354BFE35144F807B0C12890
:10B01000A8BF012504341C2CDED1244B1D70002553
:10B020002C46DFF8C4A0DFF8C4B0DFF8B4802046B7
:10B030001EF0BCFF51461FF00DF807461FF0D0F977
:10B0400006461EF0B3FF014638461EF0F9FE0746DD
:10B050000E2C1FDC4FF07E5039461EF0F1FE81466B
:10B0600058F826001EF0A2FF014648461EF0F2FFE7
:10B070008146013658F826001EF098FF39461EF02A
:10B08000E9FF014648461EF0DDFE1FF0A9F94BF826
:10B09000050003E058F8263045F80B30013404353C
:10B0A000102CC4D103B0BDE8F08F00BFF9E1FF1F41
:10B0B0000C280020E03300206CB0FF1F8095FF1F9C
:10B0C0009C95FF1FFC550020DCDDFF1FA895FF1F8E
:10B0D000E4DDFF1F6495FF1F8295FF1F7C95FF1F16
:10B0E0003C3100204CDDFF1FCDCCCC3E2828002079
:10B0F00010B50446FFF7D4FE42F69033E0580368DB
:10B100009B68984710BD00BF10B50446FFF7C8FE06
:10B11000606910F0010F01D1236903E04310E25888
:10B120002369D35804EB60009847002010BD00BF8E
:10B1300070B483B0FF289CBF000280B21E4C24680C
:10B140000194019D9DF818404034EB1A4FF48C7522
:10B1500005FB03F300FB03F304EB1363DBB213F013
:10B16000400F21D0DD43EDB205F03F0005F00F05A3
:10B170000135124C001140002618767805FB06F5C3
:10B18000205C00EB2515EDB213F0800F0EBFEBB283
:10B190006B42DBB283F08003501AC0B200FB03F0B5
:10B1A00001EB2021C8B204E003F03F0003F00F05DB
:10B1B000DFE703B070BC7047FC550020C4F5020007
:10B1C0002DE9F04F99B08346A74B1B681293129B51
:10B1D0004FF40C3202FB03F2120ED3B213F0400F05
:10B1E00000F0E882DB43DBB203F03F0103F00F0322
:10B1F00001339E48091149004418647803FB04F3A5
:10B20000415C01EB2313DBB212F0800F18BF5B42ED
:10B21000DBB283F08003F52202FB03F31B120A3337
:10B22000934A106820210A46DBB214F031F98E4BA4
:10B230001B681393139B4FF40C3202FB03F2120EA4
:10B24000D3B213F0400F00F0BA82DB43DBB203F05D
:10B250003F0103F00F0301338448091149004418EA
:10B26000647803FB04F3415C01EB2313DBB212F0BF
:10B27000800F18BF5B42DBB283F0800303EB8303D4
:10B280005B116433DBB2CBF82830774B1B68149327
:10B29000149B4FF4523202FB03F2120ED3B213F09E
:10B2A000400F00F09182DB43DBB203F03F0103F07B
:10B2B0000F0301336D48091149004418647803FBFA
:10B2C00004F3415C01EB2313DBB212F0800F18BFD3
:10B2D0005B42DBB283F0800303EBC303181201303F
:10B2E000C0B21EF063FE63491EF068FFCBF8140085
:10B2F00000230093052001210A22FFF719FF1EF009
:10B3000055FE5C491EF05AFF0546CBF81C00DBF8E1
:10B310001000DBF814101EF095FD0446CBF8100069
:10B320002846DBF818101EF08DFD0646CBF81800F5
:10B3300020461EF0FBF904460D4649A3D3E900233D
:10B340001EF0CEFC50B12046294645A3D3E9002388
:10B350001EF08CF81EF020FDCBF8100030461EF0D9
:10B36000E5F904460D463EA3D3E900231EF0B8FCE0
:10B3700050B1204629463AA3D3E900231EF076F8BF
:10B380001EF00AFDCBF81800DBF810001EF0CEF915
:10B3900004460D461BF04CFE1EF0FEFC04902046B9
:10B3A00029461BF011FF1EF0F7FC0646DBF81800DB
:10B3B0001EF0BCF904460D461BF03AFE1EF0ECFCF4
:10B3C0000590204629461BF0FFFE1EF0E5FC0446D2
:10B3D0000599CBF898120023CBF89C3200F100437A
:10B3E00006930699CBF8A012304621461EF032FE95
:10B3F0000790CBF8A402049BCBF8A83230460599FD
:10B400001EF028FE0890CBF8AC02049821461EF0EE
:10B4100021FE0990CBF8B00206F100460A960A997F
:10B42000CBF8B412049805991EF014FE0B90CBF8DB
:10B43000B802DBF828001EF0B9FD0C90DBF82030D4
:10B440000D93DBF808100391DBF824300E935D4672
:10B450005C464FF00009CDF83CB00DE0AFF3008042
:10B46000182D4454FB211940FC550020C4F502005E
:10B47000D0A3FF1F0000C842D4F82C80276B666B56
:10B48000059841461EF0E6FD8246384600211EF032
:10B49000E1FD014650461EF0D5FC82460698314635
:10B4A0001EF0D8FD014650461EF0CCFC8246C4F882
:10B4B0008C00079841461EF0CDFD8346049839461E
:10B4C0001EF0C8FD014658461EF0BCFC8346089895
:10B4D00031461EF0BFFD014658461EF0B3FCC4F8CD
:10B4E0009000099841461EF0B5FD80460A983946FD
:10B4F0001EF0B0FD014640461EF0A4FC07460B9826
:10B5000031461EF0A7FD014638461EF09BFC0C9903
:10B510001EF098FC0646C4F89400039851461EF0AD
:10B5200099FD31461EF04AFE01460D981EF08AFC38
:10B530001EF0FCF81BF0B8FD1EF02EFCC5F8EC0068
:10B540000398D4F890101EF085FD31461EF036FEAB
:10B5500001460E981EF074FC1EF0E8F81BF0A4FDE6
:10B560001EF01AFCC5F8F00009F101090C34083589
:10B57000B9F1080F80D1DDF83CB0002319460BEB80
:10B58000030282F80C120C33902BF8D10BF1D80186
:10B5900004915C460125D4F830211D320BEBC20228
:10B5A000D4F834311D330BEBC303191D0391D4F8C8
:10B5B00038711D370BEBC7075668D2F808805868FA
:10B5C00031461EF03DFC8146B86841461EF038FC0D
:10B5D000014648461EF03EFD8146039B58684146A1
:10B5E0001EF02EFC8046786831461EF029FC01468C
:10B5F00040461EF02FFD014648461EF021FC00216A
:10B600001EF0C6FEF8B9D4F8403103EB43030BEB50
:10B61000830383F80C52D4F8443103EB43030BEB60
:10B62000830383F80C52D4F8483103EB43030BEB4C
:10B63000830383F80C52D4F84C3103EB43030BEB38
:10B64000830383F80C52243404998C42A3D16349B8
:10B650009BF8BC2291F8083C009311A801F609411F
:10B66000802313F023FF0BF190055C46DFF870A1F7
:10B6700094F80C32A3BBD4F804620BEBC606D6F8E0
:10B68000EC001EF0ADFE1FFA80F8D6F8F0001EF0B8
:10B69000A7FE1FFA80F9D4F808620BEBC606D6F8AD
:10B6A000EC001EF09DFE87B2D6F8F0001EF098FE6A
:10B6B0009DF845209DF846309DF844108DF85410B3
:10B6C0008DF855208DF8563000B2009015AB0193DF
:10B6D00050460FFA88F10FFA89F23BB212F08AFB5A
:10B6E0000C34AC42C4D13D499BF8BC2291F8083CD3
:10B6F000009316A801F60941FF2313F0D7FE9DF829
:10B7000058308DF844309DF859308DF845309DF80B
:10B710005A308DF846305C46DFF8C4A094F80C32FD
:10B72000A3B3D4F804620BEBC606D6F8EC001EF007
:10B7300057FE1FFA80F8D6F8F0001EF051FE1FFAEF
:10B7400080F9D4F808620BEBC606D6F8EC001EF0C0
:10B7500047FE87B2D6F8F0001EF042FE9DF8452065
:10B760009DF846309DF844108DF85C108DF85D20F2
:10B770008DF85E3000B2009017A9019150460FFA83
:10B7800088F10FFA89F23BB212F034FB0C34A54277
:10B79000C4D1DBF8C0320133082B02D0CBF8C03261
:10B7A00017E00023CBF8C0329BF8BC3201338BF892
:10B7B000BC320EE003F03F0103F00F0319E503F084
:10B7C0003F0103F00F0347E503F03F0103F00F03D0
:10B7D00070E5142019B0BDE8F08F00BFD0A3FF1FA3
:10B7E000C89FFF1FAFF3008070B410F0400F21D04E
:10B7F000C543EDB205F03F0305F00F050135114CCF
:10B800001B115B00E618767805FB06F5E35C03EB9D
:10B810002515EDB210F0800F0EBFEBB26B42DBB21C
:10B8200083F08003501AC0B200FB03F001EB20212B
:10B83000C8B204E000F03F0300F00F05DFE770BC82
:10B84000704700BFC4F5020070B44030C3B213F0BB
:10B85000400F21D0DD43EDB205F03F0005F00F05AC
:10B860000135114C001140002618767805FB06F5CD
:10B87000205C00EB2515EDB213F0800F0EBFEBB28C
:10B880006B42DBB283F08003501AC0B200FB03F0BE
:10B8900001EB2021C8B204E003F03F0003F00F05E4
:10B8A000DFE770BC704700BFC4F50200F0B5A1B07F
:10B8B0000446C0F8041C092903DD0023C0F8043C39
:10B8C00014E0002903DA0923C0F8043CFFE0092949
:10B8D00000F20B81DFE811F00A001F00340049007C
:10B8E0005E0073009A00AF00C400FB00804923464D
:10B8F00001F1400551F8042F100C83F8390C100A9F
:10B9000083F83A0C83F83B2C0333A942F2D1794BEC
:10B91000C4F86C3CE9E07849034601F1400551F870
:10B92000042F100C83F8390C100A83F83A0C83F8B2
:10B930003B2C0333A942F2D1704BC4F86C3CD4E0E9
:10B940006F49034601F1400551F8042F100C83F8AC
:10B95000390C100A83F83A0C83F83B2C0333A942C4
:10B96000F2D1684BC4F86C3CBFE06749034601F173
:10B97000400551F8042F100C83F8390C100A83F895
:10B980003A0C83F83B2C0333A942F2D15F4BC4F845
:10B990006C3CAAE05E49034601F1400551F8042FD2
:10B9A000100C83F8390C100A83F83A0C83F83B2CFE
:10B9B0000333A942F2D1574BC4F86C3C95E0002305
:10B9C0008DF80C308DF80D308DF80E30FF238DF88A
:10B9D00008308DF809308DF80A3004A8102103AA28
:10B9E00002AB13F0DBFB04AF04F639450DF1400C5C
:10B9F0003E460FCE28606960AA60EB60374610357E
:10BA00006645F5D1444BC4F86C3C6EE043490346AF
:10BA100001F1400551F8042F100C83F8390C100A7D
:10BA200083F83A0C83F83B2C0333A942F2D13C4B08
:10BA3000C4F86C3C59E03B49034601F1400551F81C
:10BA4000042F100C83F8390C100A83F83A0C83F891
:10BA50003B2C0333A942F2D1334BC4F86C3C44E095
:10BA600000228DF84C208DF84D208DF84E208DF859
:10BA700048208DF84920FF238DF84A308DF8442066
:10BA80008DF845308DF846308DF840308DF84130D6
:10BA90008DF8423011AB009310AB019314A8102124
:10BAA00013AA12AB13F098FB14AF04F639450DF14D
:10BAB000800C3E460FCE28606960AA60EB60374676
:10BAC00010356645F5D1194BC4F86C3C0DE00020EB
:10BAD00009211AF013F801462046FFF7E7FE092373
:10BAE000C4F8043C124BC4F86C3C21B0F0BD00BF5C
:10BAF000D038030028F702009038030030F7020026
:10BB00009039030038F70200103A030040F70200B2
:10BB10005039030048F7020050F70200D039030003
:10BB200058F702001039030060F7020068F70200BE
:10BB30006CF7020038B504460D4642F68C33C35804
:10BB40000B44242B04DD002242F68C33C25009E062
:10BB5000002B03DB42F68C32835003E0242242F6B2
:10BB60008C33C250174BD3F8043C092B03D1154832
:10BB70000921FFF79BFE42F69033E05810B10368AD
:10BB80001B69984742F68C33E35803F6E42304EB31
:10BB90008303586842F69033E05010B10368DB68C5
:10BBA0009847094B1B785BB904F1640342F6903265
:10BBB000A2589A4204D123689B6920462946984797
:10BBC00038BD00BFD0A3FF1F6828002010B5044671
:10BBD000D0F8B8321944272903DD0023C0F8B83261
:10BBE00006E00029AEBFC0F8B8122723C0F8B8326B
:10BBF0000A4BD3F8043C092B03D108480921FFF76D
:10BC000055FED4F8B832DA1C04F1100304EBC20478
:10BC100094E8030083E8030010BD00BFD0A3FF1F1A
:10BC200010B50446D0F8B8321944272903DD0023A3
:10BC3000C0F8B83206E00029AEBFC0F8B81227231A
:10BC4000C0F8B8320A4BD3F8043C092B03D108489A
:10BC50000921FFF72BFED4F8B83203F12B0204F1CF
:10BC6000100304EBC20494E8030083E8030010BD52
:10BC7000D0A3FF1F70B504460E4642F68C33C3585E
:10BC80000B44242B04DD002242F68C33C25009E021
:10BC9000002B03DB42F68C32835003E0242242F671
:10BCA0008C33C250184BD3F8043C092B03D11648EF
:10BCB0000921FFF7FBFD42F68C33E55842F690333D
:10BCC000E05810B103681B69984742F68C33E55081
:10BCD00005F60A3554F8250042F69033E05010B1CD
:10BCE0000368DB689847094B1B785BB904F1640370
:10BCF00042F69032A2589A4204D123685B692046EA
:10BD00003146984770BD00BFD0A3FF1F68280020B0
:10BD100038B505460C460846314919F0F5FF20B103
:10BD200028460021FFF7C2FD38BD20462D4919F0F5
:10BD3000EBFF20B128460121FFF7B8FD38BD2046B2
:10BD4000294919F0E1FF20B128460221FFF7AEFD95
:10BD500038BD2046254919F0D7FF20B128460321D8
:10BD6000FFF7A4FD38BD2046214919F0CDFF20B1D1
:10BD700028460421FFF79AFD38BD20461D4919F0D9
:10BD8000C3FF20B128460521FFF790FD38BD2046AE
:10BD9000194919F0B9FF20B128460621FFF786FDA1
:10BDA00038BD2046154919F0AFFF20B128460721BC
:10BDB000FFF77CFD38BD2046114919F0A5FF20B1E1
:10BDC00028460821FFF772FD38BD20460D4919F0BD
:10BDD0009BFF18B128460921FFF768FD38BD00BF59
:10BDE00028F7020030F7020038F7020040F702009F
:10BDF00048F7020074F7020058F7020060F70200EB
:10BE000068F702006CF702002DE9F043A9B04D4C31
:10BE100023685B6820464C4901229847204619F068
:10BE2000AFFD23685B68204648490B2298472046AF
:10BE30000A2119F0F1FD23685B682046444901227C
:10BE40009847204619F09CFD23685B6820464149CD
:10BE50000E229847204619F093FD68463E4919F096
:10BE6000A3FE04A83D4919F09FFE08A83C4919F01B
:10BE70009BFE0CA83B4919F097FE10A83A4919F00F
:10BE800093FE14A8394919F08FFE18A8384919F003
:10BE90008BFE1CA8374919F087FE20A8364919F0F7
:10BEA00083FE24A8354919F07FFE23685B6820468D
:10BEB0003349052298472046694619F03BFD04ADF9
:10BEC000E8460DF1A0092F4F2D4E1AE01D4C2046DB
:10BED0002D49FEF739FA23685B6820462B49032277
:10BEE0009847204619F04CFD23685B682046284996
:10BEF00001229847204619F043FD24ACA8F1100810
:10BF000016E023685B68204639460222984720469F
:10BF100019F036FD23685B682046314605229847B4
:10BF20002046294619F006FD10354D45E9D1CDE7EB
:10BF3000204619F0EDFD103C4445F9D129B0BDE88B
:10BF4000F08300BFFC56002080F7020084F7020057
:10BF500090F7020094F7020028F7020030F7020081
:10BF600038F7020040F7020048F7020074F70200B9
:10BF700058F7020060F7020068F702006CF7020051
:10BF8000A4F70200B4F70200A8F70200ACF7020021
:10BF9000B0F7020030B400230468E218E55C01FB4E
:10BFA00005F52D12E554547804FB01F42412547065
:10BFB000947804FB01F4241294700333B3F5406FBA
:10BFC000EAD130BC704700BF2DE9F04786B0364853
:10BFD000AA21FFF7DFFF002620253446DFF8D490A2
:10BFE000314F07F60948FF2D9ABF2B029BB22B4613
:10BFF000D9F800200392039A4FF48C7101FB02F2EE
:10C0000003FB02F2120ED3B213F0400F43D06FEADB
:10C01000030A5FFA8AFA0AF03F010AF00F0A0AF1EE
:10C02000010A22480911490000EB010E9EF801E0C7
:10C030000AFB0EFA415C01EB2A1A5FFA8AFA12F047
:10C04000800F18BFCAF1000A5FFA8AFA97F8083C15
:10C05000009305A841463246FF2313F027FA9DF8C6
:10C0600015209DF816309DF814108DF810108DF8DD
:10C0700011208DF812308AF080020D4821B2D208CA
:10C0800004AB11F06BFD01340135ADB20736F6B2E9
:10C09000202CA8D104E003F03F0103F00F0AC0E711
:10C0A0000F2006B0BDE8F087D0A3FF1FC4F5020043
:10C0B000C89FFF1FFC5500202DE9F04F87B0584B5B
:10C0C0001B680393039B4FF40C3202FB03F2120E26
:10C0D000D3B213F0400F00F09580DB43DBB203F0E6
:10C0E0003F0103F00F0301334E4809114900441882
:10C0F000647803FB04F3415C01EB2313DBB212F021
:10C10000800F18BF5B42DBB283F0800303EB830335
:10C1100099111A394448C9B2FFF73CFF4FF004089F
:10C120001E2400270E25DFF8009109F6094BDFF8E1
:10C13000F0A099F8083C009302A859463A46FF231C
:10C1400013F0B4F9EEB2C6F12002002300932046AA
:10C150003146D2B2FEF7ECFF0146FF2C9ABF200217
:10C1600080B22046DAF800300493049B4FF48C72BE
:10C1700002FB03F200FB02F2120ED3B213F0400FE7
:10C1800045D06FEA030C5FFA8CFC0CF03F0E0CF00C
:10C190000F0C0CF1010C234B4FEA2E1E4FEA4E0EF2
:10C1A00003EB0E0040780CFB00FC13F80E0000EBD4
:10C1B0002C13DBB212F0800F18BF5B42DBB29DF88C
:10C1C00009009DF80A209DF808E08DF814E08DF82C
:10C1D00015008DF8162083F0800308FB03F306EBAF
:10C1E0002322124809B2D2B205AB11F0B7FC013DCF
:10C1F0000E37FFB2023CA4B208F10208B5F1FF3FCE
:10C2000097D109E003F03F0103F00F036CE703F05F
:10C210003F0E03F00F0CBEE7002007B0BDE8F08F23
:10C22000FC550020C4F50200D0A3FF1FC89FFF1FCC
:10C230002DE9F04F8BB0002500950220AA21FA22AB
:10C240002B46FDF781FE01466F48FFF7A3FE02264D
:10C250004024A946A8462025DFF8ACB10BF60940DA
:10C2600003905FFA88F70F2F50D8002300933046D1
:10C2700039462A46FEF75CFF8246FF2E9ABF3302FC
:10C280009BB2334661490A680592059A4FF48C7156
:10C2900001FB02F203FB02F2120ED3B213F0400FC5
:10C2A00000F0A480DB43DBB203F03F0103F00F0397
:10C2B000013357480911490000EB010E9EF801E0D7
:10C2C00003FB0EF3415C01EB2313DBB212F0800F92
:10C2D0000EBFDAB25A42D2B282F08002A4F1200339
:10C2E000DBB203FB02F307EB2327FFB29BF8083C0A
:10C2F000009307A803994A46FF2313F0D7F89DF847
:10C300001C109DF81D209DF81E3052E00137FAB236
:10C31000FF2C9ABF23029BB223463C48016806913A
:10C3200006994FF48C7000FB01F103FB01F1090E3B
:10C33000CBB213F0400F5ED0DB43DBB203F03F0023
:10C3400003F00F030133324F0011400007EB000EE2
:10C350009EF801E003FB0EF3385C00EB2313DBB225
:10C3600011F0800F18BF5B42DBB283F08003C4F191
:10C37000210A5FFA8AFA0AFB03FA05EB2A2A5FFA16
:10C380008AFA0023009320462946FEF7D1FE07468D
:10C39000C9F1B2029BF8083C009308A80399D2B2F5
:10C3A000FF2313F083F89DF820109DF821209DF8BD
:10C3B00022308DF824108DF825208DF82630154870
:10C3C0000FFA8AF13AB209AB11F0C8FB013D08F14E
:10C3D000010809F10E095FFA89F9023CA4B202369C
:10C3E000B6B215F0FF057FF43CAF09E003F03F0162
:10C3F00003F00F035DE703F03F0003F00F03A2E734
:10C4000000200BB0BDE8F08FD0A3FF1FFC5500202B
:10C41000C4F50200C89FFF1F2DE9F04F89B0814687
:10C42000834C2046BE21FFF7B5FDD9F81C004FF024
:10C4300082411DF00FFE1DF0F9FFC2B294F8083CD6
:10C44000009305A804F60941FF2313F02FF8D9F84B
:10C450000880D9F80C001DF069F904460D464046E5
:10C46000D9F81C101DF0EEFC1DF060F96EA3D3E9A5
:10C4700000231DF0AFF91DF08FFC1DF057F90646A3
:10C480000F461AF0D5FD02460B46204629461DF000
:10C49000A1F90022674B1CF0EBFF1DF035FC029068
:10C4A000304639461AF090FE02460B462046294691
:10C4B0001DF090F902460B4600205E491CF0D6FFA5
:10C4C0001DF022FC0390DFF874B1D9F80C001DF0C8
:10C4D0002DF904460D4640461DF028F952A3D3E934
:10C4E00000231DF077F91DF057FC1DF01FF90646DB
:10C4F0000F461AF09DFD02460B46204629461DF0C8
:10C5000069F900224B4B1CF0B3FF1DF0FDFB824686
:10C51000304639461AF058FE02460B462046294658
:10C520001DF058F902460B46002042491CF09EFFC0
:10C530001DF0EAFB06469DF815209DF816309DF883
:10C5400014108DF818108DF819208DF81A300FFA84
:10C550008AF405B2584621462A4606AB11F0FEFA87
:10C560009DF815209DF816309DF814108DF81C10BC
:10C570008DF81D208DF81E3058462946224607ABFF
:10C5800011F0ECFA40464FF07E511DF05BFC804606
:10C5900029491DF011FF08B14FF00008029B9A4590
:10C5A00093D1039B9E4290D1D9F81C402046D9F8E4
:10C5B00008101DF047FC05461F491DF0FDFE10B98F
:10C5C000C9F8085029E00023C9F80830D9F82050EC
:10C5D000204629461DF036FC0446C9F81C00D9F84F
:10C5E000106031461DF0DEFE30B1C9F81C6005F167
:10C5F0000045C9F8205010E0D9F8186020463146AF
:10C600001DF0E4FE48B1304629461DF019FCC9F87A
:10C610001C0005F10045C9F82050002009B0BDE814
:10C62000F08F00BFAFF30080399D52A246DF913FEB
:10C63000D0A3FF1F000030400000B443C89FFF1F7D
:10C640002DE9F04F93B00446837B032B00F2D18198
:10C65000DFE813F004007600E8005E010025AA4F31
:10C6600007F60949DFF8A482EEB2A37A03EB46038A
:10C67000DBB213F0800F1CBFDB43DBB25B00DBB22D
:10C6800013F0800F00F0D28183F0FF0303F1010B60
:10C690005FFA8BFB0BFB03F34FEAD31B0BF0FE0B94
:10C6A0008BF0FF0B22699BFBF2FB1FFA85FA627B82
:10C6B000324497F8083C009303A84946D2B2FF23BE
:10C6C00012F0F4FE9DF80D209DF80E309DF80C1030
:10C6D0008DF808108DF809208DF80A3040460FFAC1
:10C6E0008AF15A4602AB11F039FAE369022B23D1E1
:10C6F000A369CBEB030B1FFA8BFB637BF21897F854
:10C70000083C009305A84946D2B2FF2312F0CEFEA2
:10C710009DF815209DF816309DF814108DF8101016
:10C720008DF811208DF8123040460FFA8AF10FFA79
:10C730008BF204AB11F012FA0135202D94D158E19F
:10C740000025714F07F60949DFF8C081EEB2A37AE0
:10C7500003EB4603DBB213F0800F1CBFDB43DBB2FD
:10C760005B00DBB213F0800F00F06B8183F0FF03FE
:10C7700003F1010B5FFA8BFB0BFB03F34FEAD31BB7
:10C780000BF0FE0B8BF0FF0B22699BFBF2FB1FFAF9
:10C7900085FA627B324497F8083C009307A8494623
:10C7A000D2B2FF2312F082FE9DF81D209DF81E30AC
:10C7B0009DF81C108DF818108DF819208DF81A307E
:10C7C000404659460FFA8AF206AB11F0C7F9E36901
:10C7D000022B23D16369CBEB030B1FFA8BFB637B2B
:10C7E000F21897F8083C009309A84946D2B2FF23F3
:10C7F00012F05CFE9DF825209DF826309DF824104F
:10C800008DF820108DF821208DF8223040460FFA47
:10C810008BF10FFA8AF208AB11F0A0F90135202D47
:10C8200094D1E6E00025384F07F60949DFF8DC80AF
:10C83000EEB2A37AC3EB4603DBB213F0800F1CBF4A
:10C84000DB43DBB25B00DBB213F0800F00F004814E
:10C8500083F0FF0303F1010B5FFA8BFB0BFB03F388
:10C860004FEAD31B0BF0FE0B8BF0FF0B22699BFBF7
:10C87000F2FB1FFA85FA627B324497F8083C00937A
:10C880000BA84946D2B2FF2312F010FE9DF82D20CE
:10C890009DF82E309DF82C108DF828108DF8292049
:10C8A0008DF82A3040460FFA8AF15A460AAB11F049
:10C8B00055F9E369022B23D1A369CBEB030B1FFAD4
:10C8C0008BFB637BF21897F8083C00930DA8494650
:10C8D000D2B2FF2312F0EAFD9DF835209DF83630E4
:10C8E0009DF834108DF830108DF831208DF83230ED
:10C8F00040460FFA8AF10FFA8BF20CAB11F02EF9C9
:10C900000135202D94D174E0D0A3FF1FC89FFF1FD5
:10C9100000255E4F07F60949DFF87481EEB2A37A6D
:10C92000C3EB4603DBB213F0800F1CBFDB43DBB26B
:10C930005B00DBB213F0800F00F0998083F0FF03FF
:10C9400003F1010B5FFA8BFB0BFB03F34FEAD31BE5
:10C950000BF0FE0B8BF0FF0B22699BFBF2FB1FFA27
:10C9600085FA627B324497F8083C00930FA8494649
:10C97000D2B2FF2312F09AFD9DF83D209DF83E3083
:10C980009DF83C108DF838108DF839208DF83A302C
:10C99000404659460FFA8AF20EAB11F0DFF8E36910
:10C9A000022B23D16369CBEB030B1FFA8BFB637B59
:10C9B000F21897F8083C009311A84946D2B2FF2319
:10C9C00012F074FD9DF845209DF846309DF8441006
:10C9D0008DF840108DF841208DF8423040460FFA16
:10C9E0008BF10FFA8AF210AB11F0B8F80135202D57
:10C9F00094D12648FE21FFF7CDFA237A627A9A4233
:10CA000005D800232372A37A0133A37201E0013316
:10CA10002372E37A227B9A4205D80023E372637B78
:10CA2000013363732EE00133E3722BE003F1010B5A
:10CA30005FFA8BFB0BFB03FB4FEADB1B0BF0FE0BE0
:10CA400030E603F1010B5FFA8BFB0BFB03FB4FEAB4
:10CA5000DB1B0BF0FE0B97E603F1010B5FFA8BFB80
:10CA60000BFB03FB4FEADB1B0BF0FE0BFEE603F1B7
:10CA7000010B5FFA8BFB0BFB03FB4FEADB1B0BF09D
:10CA8000FE0B69E7002013B0BDE8F08FD0A3FF1FB5
:10CA9000C89FFF1F2DE9F04F87B082463C48AA216E
:10CAA000FFF778FA20250024DFF8F490DFF8F4B0DF
:10CAB000374F07F609482246002CB8BFE21CC2F3E4
:10CAC0008702062A28BF062259F822309AF80A104F
:10CAD00009B15BF82230FF2D9ABF2A0292B22A4692
:10CAE0002C490968039103994FF48C7000FB01F104
:10CAF00002FB01F1090ECAB212F0400F40D0D2433E
:10CB0000D2B202F03F0002F00F020132224E0011B9
:10CB1000400006EB000E9EF801E002FB0EF2305CD6
:10CB200000EB2216F6B211F0800F18BF7642F6B273
:10CB30001A46002BB8BFDA1C97F8083C009305A8EA
:10CB40004146C2F38702FF2312F0B0FC9DF8152086
:10CB50009DF816309DF814108DF810108DF81120E6
:10CB60008DF8123086F080020C4821B2D20804AB56
:10CB700010F0F4FF01340135ADB2202C05D09AE756
:10CB800002F03F0002F00F02C0E707B0BDE8F08FEF
:10CB9000D0A3FF1FFC550020C4F50200C89FFF1F53
:10CBA0000C2800203C3100202DE9F04F89B0039083
:10CBB000002500950220AA21FA222B46FDF7C4F990
:10CBC00001466E48FFF7E6F94FF002081F264024A1
:10CBD000DFF8C091EFB20F2F44D8002300934046F6
:10CBE0003946F2B2FEF7A4FA8246B8F1FF0F9ABFB7
:10CBF0004FEA08239BB24346614802680592059AB2
:10CC00004FF48C7101FB02F203FB02F2120ED3B25D
:10CC100013F0400F00F0A580DB43DBB203F03F01CF
:10CC200003F00F0301330911490009EB01004078BB
:10CC300003FB00F319F8011001EB2313DBB212F030
:10CC4000800F18BF5B42DBB283F08003A4F1210B9D
:10CC50005FFA8BFB0BFB03FB07EB2B2B5FFA8BFBCA
:10CC60007F0844E0F1B2FF2C9ABF23029BB2234617
:10CC7000434802680692069A4FF48C7000FB02F259
:10CC800003FB02F2120ED3B213F0400F6ED0DB435F
:10CC9000DBB203F03F0003F00F030133001140004B
:10CCA00009EB000E9EF801E003FB0EF319F80000FB
:10CCB00000EB2313DBB212F0800F18BF5B42DBB234
:10CCC00083F08003C4F1210A5FFA8AFA0AFB03FAAF
:10CCD00001EB2A2A5FFA8AFA0023009320463A469B
:10CCE000FEF726FA834606EBD677C7F34707062FEB
:10CCF00028BF0627234B53F8273003998A7A12B1AD
:10CD0000214B53F827301A46002BB8BFDA1C1B48BA
:10CD100090F8083C009304A81C49C2F38702FF2343
:10CD200012F0C4FB9DF811209DF812309DF81010F0
:10CD30008DF81C108DF81D208DF81E3014480FFA48
:10CD40008AF10FFA8BF207AB10F008FF0135023CB5
:10CD5000A4B2013E08F102081FFA88F8202D0AD07B
:10CD600038E703F03F0103F00F035CE703F03F00F7
:10CD700003F00F0392E709B0BDE8F08FD0A3FF1FC7
:10CD8000FC5500200C2800203C310020D9AFFF1FAB
:10CD9000C89FFF1FC4F502002DE9F04F87B08246FF
:10CDA0005D4B1B680393039B4FF40C3202FB03F2B1
:10CDB000120ED3B213F0400F00F0A080DB43DBB2C1
:10CDC00003F03F0103F00F030133544809114900F8
:10CDD0004418647803FB04F3415C01EB2313DBB2DA
:10CDE00012F0800F18BF5B42DBB283F0800303EBCD
:10CDF000830399111A394A48C9B2FFF7CBF82025A5
:10CE00000024DFF81C9109F6094B04EBD473C3F33B
:10CE10004703062B28BF0623424A52F823609AF89C
:10CE20000A2012B1404A52F82360E2B2C2F1100760
:10CE3000FFB210320023009328463946D2B2FEF7E3
:10CE400077F98046FF2D9ABF2B029BB22B46324AC0
:10CE500012680492049A4FF48C7101FB02F203FBF6
:10CE600002F2120ED3B213F0400F4CD0DB43DBB210
:10CE700003F03F0103F00F03013328480911490073
:10CE800000EB010E9EF801E003FB0EF3415C01EBA9
:10CE90002313DBB212F0800F18BF5B42DBB283F0CA
:10CEA0008003620002FB03F307EB2327FFB2324645
:10CEB000002EB8BFF21C99F8083C009302A859460E
:10CEC000C2F38702FF2312F0F1FA9DF809209DF8C2
:10CED0000A309DF808108DF814108DF815208DF883
:10CEE000163012480FFA88F13A4605AB10F036FEBC
:10CEF0000134023DADB2102C0AD086E703F03F01A9
:10CF000003F00F0361E703F03F0103F00F03B4E701
:10CF100007B0BDE8F08F00BFFC550020C4F502004B
:10CF2000D0A3FF1F0C2800203C310020C89FFF1F0A
:10CF30002DE9F04F8FB00390BC48F021FFF72AF89D
:10CF4000BB4906914FF0000B8A46039A108A1DF0E8
:10CF50002DF805460AEB0B095BF80A101DF07AF86C
:10CF60001DF03EFA039B1C89204484B22846D9F860
:10CF700004101DF06FF81DF033FA039A5189014433
:10CF8000204689B2928913F0FFF8064610F0400F50
:10CF900000F0A881C043C0B200F03F0300F00F00D2
:10CFA0000130A44A1B115B00D118497800FB01F045
:10CFB000D35C03EB2010C0B216F0800F18BF4042C4
:10CFC000C0B280F080001CF0EDFF1CF0AFFB00222F
:10CFD0004FF07E531CF0FEFB0022974B1CF046FAEC
:10CFE0001CF0DAFE8046069CA06006F14003DBB22E
:10CFF00013F0400F00F07B81D843C0B200F03F0235
:10D0000000F00F0001308B49121152008D186D781D
:10D0100000FB05F08A5C02EB2010C0B213F0800F19
:10D0200018BF4042C0B280F080001CF0BBFF1CF073
:10D030007DFB00224FF07E531CF0CCFB00227E4B88
:10D040001CF014FA1CF0A8FE054600F10043E36052
:10D050000AEB0B07404639691CF0F4FE8046B860C5
:10D06000786929461CF0ECFE05460AF108075F4482
:10D070007860E469404641461CF0ECFF8046284653
:10D0800029461CF0E7FF014640461CF0DBFE054642
:10D09000204621461CF0DEFF014628461DF096F989
:10D0A00000286ED028461CF041FB1AF053FA1CF001
:10D0B00073FE00211DF062F9002841D10AEB0B0339
:10D0C0000793D3F80880DD68404641461CF0C2FF54
:10D0D0000490404641461CF0BDFF80462846294644
:10D0E0001CF0B8FF014640461CF0ACFE1CF01EFBD5
:10D0F0001AF030FA1CF050FE1CF018FB02460B46EA
:10D1000000204D491CF090FCCDE904010799886886
:10D110001CF00CFB02460B46DDE904011CF05AFB37
:10D120001CF03AFE079A906078681CF0FFFA0246FD
:10D130000B46DDE904011CF04DFB1CF02DFE786070
:10D1400020461CF0F3FA04460D460AEB0B08D8F80B
:10D1500008001CF0EBFA02460B46204629461CF05C
:10D1600039FB1CF019FEC8F8080078681CF0DEFADC
:10D1700002460B46204629461CF02CFB1CF00CFEF8
:10D1800078600AEB0B045BF80A00A1681CF05AFEF9
:10D1900007464BF80A00D9F80400E1681CF052FE7B
:10D1A0000546C9F8040020691CF0C0FA00220023DB
:10D1B0001CF010FB1CF0F0FD20610AF110045C442F
:10D1C00060681CF0B3FA002200231CF003FB1CF083
:10D1D000E3FD60601549039A937CF21891F8083CCE
:10D1E00000930DA801F60941D2B2FF2312F05EF9B7
:10D1F0009DF835209DF836309DF834108DF83010AC
:10D200008DF831208DF8323038461DF0E9F804B23F
:10D2100028461DF0E5F802B2084821460CAB10F094
:10D220009DFC5BF80A402046002109E0D0A3FF1FC7
:10D2300080280020C4F502000000F03FC89FFF1FB7
:10D240001DF0A6F890B920464FF084411DF0B4F8C7
:10D2500060B9D9F80440204600211DF099F828B99A
:10D2600020464FF084411DF0A7F848B1202018F067
:10D2700039FC1CF097FE4AF80B000023C9F8043073
:10D280000BF1340B069934310691BBF5026F7FF434
:10D290005CAE214B1B6813F0010F0ED11E4817F036
:10D2A000EBF850B11D4B1B680993099A1C4B1A608F
:10D2B000C8225A60184817F0E5F8184B1B680B9302
:10D2C0000B99174B1A688A1A5B689A4214D3134B4E
:10D2D0001B680A930A9A124B1A60039A937C0133D3
:10D2E000937409E000F03F0300F00F0059E603F0EB
:10D2F0003F0203F00F0086E60399CB890A891A449E
:10D300000A814A891A444A818A8913448B813220CE
:10D310000FB0BDE8F08F00BFB49FFF1FFC55002089
:10D32000809FFF1F2DE9F04F93B00A909348AA21E8
:10D33000FEF730FEDFF858A20027D14657F8092043
:10D34000049209EB070302935A6806929D688C4B7E
:10D350003B445C6809EB07035E69D046DAF8183095
:10D360000B93DAF81C200592DAF820300C93DAF8E7
:10D3700024200D929AF828300793DAF82C200E9288
:10D380009AF830300F93029A10690A9B99681CF042
:10D3900059FD834630460A9AD1681CF053FD03902C
:10D3A000284659461CF04EFD0546204603991CF0C0
:10D3B00049FD0446284629461CF04CFE06462046F8
:10D3C00021461CF047FE014630461CF03BFD064658
:10D3D000059801461CF03EFE014630461CF0F6FF63
:10D3E000002851D030461CF0A1F9CDE908011AF00F
:10D3F000B1F81CF0D1FC00211CF0C0FF38BBDDE906
:10D4000008011AF0A7F81CF0C7FC1CF08FF90246BF
:10D410000B4600205B491CF007FBCDE908012846BC
:10D420001CF084F902460B46DDE908011CF0D2F934
:10D430001CF0B2FC054620461CF078F902460B466B
:10D44000DDE908011CF0C6F91CF0A6FC04460598AD
:10D450001CF06CF9CDE9080128461CF067F902467A
:10D460000B46DDE908011CF0B5F91CF095FC0546FA
:10D4700020461CF05BF902460B46DDE908011CF072
:10D48000A9F91CF089FC0446049829461CF0DAFC32
:10D490000490069821461CF0D5FC064658461CF020
:10D4A00045F9002200231CF095F91CF075FC06904C
:10D4B00003981CF03BF9002200231CF08BF91CF0B0
:10D4C0006BFC03902D4991F8083C009311A801F6DC
:10D4D0000941079AFF2311F0E9FF9DF845209DF8C7
:10D4E00046309DF844108DF840108DF841208DF89D
:10D4F000423004981CF074FF0FFA80FB30461CF099
:10D500006FFF02B22048594610AB10F027FB30469F
:10D510001E491CF051FF10B104F100441B4E049B46
:10D5200047F80930029A566009EB07039D60144AD8
:10D530003A445460069A1A61039A5A610B9BC8F8E0
:10D540001830059AC8F81C200C9BC8F820300D9A9A
:10D55000C8F82420079B88F828300E9AC8F82C2099
:10D560000F9B88F8303034370AF1340AB7F5D06FA2
:10D570007FF4E4AE0F2013B0BDE8F08FD0A3FF1FFF
:10D58000882800200000F03FC89FFF1F0000F841DE
:10D59000802800202DE9F04FA1B0069090F8B43219
:10D5A000002B3FD1012380F8B4320020022118F073
:10D5B000A5FAA54C0026DFF8A4B227460025DFF81F
:10D5C000B0824FF0814A4FF082490020FF2118F0CD
:10D5D00095FA0020FF2118F091FA30461CF0E6FC85
:10D5E0002060C4F804B0E31B07F108029D501A4400
:10D5F000556007F110029D5013445D60C4F8188017
:10D60000C4F81C80C4F820A0C4F82490002384F837
:10D6100028301C9BE362012384F830301E443434EC
:10D62000202ED2D18948AA21FEF7B4FCDFF818B227
:10D630004FF0000AD146844B03EB090105914A687B
:10D640000792CE680F694D695C46DBF818300A9383
:10D65000DBF81C100491DBF820200B92DBF824305F
:10D660000C939BF828100D91DBF82C200E929BF860
:10D6700030300F9350461CF099FC80463846069A8D
:10D68000D2F8A4121CF0DEFB02902846069BD3F8C9
:10D69000A8121CF0D7FB03906D4B83FB0A134FEAD3
:10D6A000EA72C2EB6303DBB26A4A52F8235006996E
:10D6B0008A7A12B1684A52F82350079867491CF0D9
:10D6C0005DFE08B328461CF01FF80022644B1CF0D6
:10D6D00081F81CF019FB294618F010FA1CF066FCC2
:10D6E00000F100405F491CF069FD0546069AC2F84A
:10D6F000B0020298D2F8AC121CF0A4FB029003987E
:10D7000029461CF09FFB0390029800211CF09AFB15
:10D710000546304603991CF095FB064628462946E7
:10D720001CF098FC0746304631461CF093FC01463D
:10D7300038461CF087FB0746049801461CF08AFC1B
:10D74000014638461CF042FE002851D038461BF0F6
:10D75000EDFFCDE9080119F0FDFE1CF01DFB0021D5
:10D760001CF00CFE38BBDDE9080119F0F3FE1CF0DB
:10D7700013FB1BF0DBFF02460B4600203A491CF06E
:10D7800053F9CDE9080128461BF0D0FF02460B46AD
:10D79000DDE908011CF01EF81CF0FEFA05463046D3
:10D7A0001BF0C4FF02460B46DDE908011CF012F82D
:10D7B0001CF0F2FA064604981BF0B8FFCDE9080108
:10D7C00028461BF0B3FF02460B46DDE908011CF0BA
:10D7D00001F81CF0E1FA054630461BF0A7FF0246AF
:10D7E0000B46DDE908011BF0F5FF1CF0D5FA0646F3
:10D7F000404629461CF026FB8046079831461CF01F
:10D8000021FB074602981BF091FF002200231BF02A
:10D81000E1FF1CF0C1FA029003981BF087FF002281
:10D8200000231BF0D7FF1CF0B7FA039040464FF0DF
:10D8300084411CF0C1FDE8B128460C491CF00AFCEB
:10D840000546DFF8188021E080280020D0A3FF1FC4
:10D85000676666660C2800203C3100200000F84115
:10D860000000E83F000070440000F03FCDCC4CBE0B
:10D8700000002041404600211CF08AFD30B12846BE
:10D880003A491CF0E7FB05464FF0000838464FF0D8
:10D8900084411CF091FD30B1304634491CF0DAFB74
:10D8A0000646334F0AE0384600211CF071FD28B1CE
:10D8B00030462E491CF0CEFB064600272D4B49F87A
:10D8C000038005994F6003EB09029560D6600299C9
:10D8D00011611346039A5A610A9BA3610499E1619D
:10D8E0000B9A22620C9B63620D9984F828100E9AA1
:10D8F000E2620F9B84F830301D4839461CF0A0FAD4
:10D900001D491CF0A7FB1CF091FDC2B21B4B93F804
:10D91000083C00931FA81A49FF2311F0C7FD9DF88A
:10D920007D209DF87E309DF87C108DF878108DF864
:10D9300079208DF87A3040461CF052FD04B238460A
:10D940001CF04EFD02B20F4821461EAB10F006F946
:10D950000AF1010A09F134090BF1340BBAF1200F75
:10D960007FF469AE21B0BDE8F08F00BFCDCC4CBED6
:10D970000000F841802800200000E040D0A3FF1FF5
:10D98000D9AFFF1FC89FFF1F2DE9F04F97B002903E
:10D99000002300930220AA21FA22FCF7D5FA0146BF
:10D9A0003648FEF7F7FA029A9368002B40F3C781D6
:10D9B000DFF8CCA04FF00008CDF82880304B58F8A5
:10D9C0000320049203EB0802039252680692039A22
:10D9D00092680D9203EB0802D2680E92039A1269C4
:10D9E000089243445B690F93D346DAF818301093DA
:10D9F000DAF81C200992DAF820301193DAF82420A2
:10DA000012929AF828300B93DAF82C200C929AF89C
:10DA100030301393029A506904991CF011FA0746AA
:10DA2000029B986906991CF00BFA0646384639465F
:10DA30001CF010FB0446304631461CF00BFB01463F
:10DA400020461CF0FFF91BF071FE04460D4619F04C
:10DA500081FD1CF0A1F981460A491CF099FC48B9E6
:10DA600048464FF084411CF0B1FC78B948461BF0A1
:10DA70005DFE0DE0002004490AE000BFD0A3FF1FB7
:10DA8000802800200000A040000014400020AE4983
:10DA90001CF082F981462046294619F05BFD1CF0F6
:10DAA0007BF900211CF06AFC38BB2046294619F09E
:10DAB00051FD1CF071F91BF039FE02460B460020A7
:10DAC000A2491BF0B1FF04460D4638461BF02EFE5E
:10DAD00002460B46204629461BF07CFE1CF05CF9F2
:10DAE000074630461BF022FE02460B4620462946DA
:10DAF0001BF070FE1CF050F90646029A1069D168BE
:10DB00001CF0A8FA01460C981CF0A4FA04464846FA
:10DB100049461CF09FFA014620461CF04FFB1BF0C3
:10DB200005FE04460D4638461BF000FE02460B4635
:10DB3000204629461BF04EFE1CF02EF9014608989F
:10DB40001CF080F9074630461BF0F0FD02460B46FC
:10DB5000204629461BF03EFE1CF01EF901460F9898
