:1000000000800020BD01000065C1010029C1010080
:1000100029C1010029C1010029C1010029C1010034
:1000200029C1010029C1010029C1010065C10100E8
:1000300065C1010029C1010065C1010019C10100AC
:1000400065C1010065C1010065C1010065C1010014
:1000500065C1010065C1010065C1010065C1010004
:1000600065C1010065C1010065C1010065C10100F4
:1000700065C1010065C1010065C1010065C10100E4
:1000800065C1010065C1010065C1010065C10100D4
:1000900065C1010065C1010065C1010065C10100C4
:1000A0004DAA010065C1010065C1010065C10100E3
:1000B00065C1010065C1010065C1010065C10100A4
:1000C00065C1010065C1010065C1010065C1010094
:1000D00065C1010065C1010065C1010065C1010084
:1000E00065C1010065C1010065C1010065C1010074
:1000F00065C10100C1DF010065C10100B9E4010073
:1001000065C10100D5E8010065C1010065C10100BC
:1001100065C1010065C1010065C1010065C1010043
:1001200065C1010065C1010065C1010065C1010033
:1001300065C1010065C1010065C1010065C1010023
:1001400065C101009D7F010065C1010065C101001D
:1001500065C1010065C1010065C1010065C1010003
:1001600065C10100A5C9010065C1010065C10100AB
:1001700065C1010065C1010065C1010065C10100E3
:1001800065C1010065C1010065C1010065C10100D3
:1001900065C1010065C1010065C1010065C10100C3
:1001A00065C1010065C1010065C1010065C10100B3
:1001B00065C1010065C1010065C1010010B5674B53
:1001C0004CF220521A804DF628121A8000BF00BF50
:1001D0001BF0CCFF4FF01062614B1A60614A08338C
:1001E0001A60614A04331A60A3F530432C3B1B6844
:1001F00013F4807F06D100225C4B1A604FF4A852A2
:10020000043B1A605A4B1B7813F0080F04D0584B6C
:100210001A7842F008021A702A22564B1A70564B6E
:10022000564A9A420DD2131D554CE41A24F0030489
:1002300004340023104653495A581A500433A34239
:10024000FAD1514B514A9A4280F08480131F504991
:10025000C91A21F003011A1D1144002243F8042F8A
:100260008B42FBD176E05A581A500433B3F5DE7F47
:10027000F9D1484B8021484A03F8011B9342FBD136
:10028000464B474A1A600A22464B1A702422A3F6AC
:10029000FF731A70A022013B1A7006331A7812F00D
:1002A000020FFBD0404B1A7812F0100FFBD13E4BDF
:1002B0001A7802F00C02082AFAD103223B4B1A707A
:1002C000402201331A7001331A7812F0200FFBD04C
:1002D000354B1A7812F0400FFBD0354A354B1A6077
:1002E000022204331A602022334B1A7006331A7824
:1002F00002F00C020C2AFAD1304A314B1A60314A12
:10030000314B1A600722043B1A6062B61CF00CFAEB
:10031000164B1B6813F0010F05D02C481CF06AF92E
:100320002B4A2C4B1A602C4B1B7813F0400F0AD031
:10033000284B1A68264B9A4205D124481CF05AF9DA
:100340000022244B1A6021F033FF13F0A7FE1DF0AA
:100350005DF9FEE700231248204984E70E2005409E
:1003600030800440823F04000100002B14D0034081
:1003700002D0074000E00740509FFF1F6095FF1F1D
:10038000539FFF1FC8C00200E0590020509FFF1F6D
:10039000DB59002000E400E05FE400E008ED00E04D
:1003A0000090FF1F005006400640064004400640F3
:1003B000000003014480044000400640C0100500D6
:1003C00004800440FF76010014E000E006624A5514
:1003D000A5C3945A1CE0034000F007400000000051
:1003E000FFFFFFFFFFFFFFFFFFFFFFFFFFFFFFFF1D
:1003F000FFFFFFFFFFFFFFFFFFFFFFFFFFFFFFFF0D
:10040000FFFFFFFFFFFFFFFFFFFFFFFFFEFFFFFFFD
:1004100010B5054C237833B9044B13B10448AFF33E
:1004200000800123237010BD509FFF1F00000000BB
:10043000C0C0020008B5064B1BB106480649AFF321
:1004400000800648036813B1054B03B1984708BD07
:1004500000000000C0C00200549FFF1F509FFF1FFC
:10046000000000000020704700207047704700BF68
:10047000704700BF012070470120704740697047F6
:10048000704700BF704700BF30B4C8222C4B1A70B1
:100490002C490B8803EB432203EB820243F21963DE
:1004A0001A4492B2284C226002EB422402EB8402EE
:1004B0001A4492B2254C226002EB422402EB8402E1
:1004C0001A4492B2224C226041F27074214D2C6089
:1004D000214D2C6002EB422402EB84021A4492B2BA
:1004E00002EB2224E4B2048102EB422402EB8402F8
:1004F0001A4492B202EB2224E4B2448102EB422479
:1005000002EB84021A4492B202EB2224E4B2848108
:1005100002EB422402EB84021A4492B202EB222440
:10052000E4B2C48102EB422402EB840213449BB286
:100530000B8003EB2323DBB2038230BC704700BF88
:10054000C49FFF1F1496FF1FE4E5FF1F64B0FF1F49
:1005500068B0FF1F1431002044DDFF1F0369C36131
:100560004369036200238360704700BF0E4803881D
:1005700003EB432203EB820243F219610A4492B275
:100580000A4B1A6002EB422302EB83030B449BB23B
:10059000074A136003EB432203EB8203194489B239
:1005A0000180044B196070471496FF1FE4E5FF1F9C
:1005B00064B0FF1F68B0FF1F10B483B0C16E002984
:1005C00007DD02460023012442F8144F01338B4219
:1005D000FADB184B1B680193019AC2602A238360DF
:1005E0001F21017600234376036102623724C46130
:1005F00080F82C1080F82D3043624263032404639A
:10060000FF2480F8404080F84130836382644724AF
:10061000446480F8541080F85530C364C265592290
:10062000826580F8681080F86930036603B05DF871
:10063000044B7047DC55002042F68C33C05870479D
:1006400008B542F69033C05810B103681B6998474B
:1006500008BD00BF08B542F69033C05810B103681A
:10066000DB68984708BD00BFD0F89802704700BF0C
:100670000069704710B582B000248DF804408DF8F1
:1006800005408DF80640034801A915F085FB20467A
:1006900002B010BDC89FFF1F30B583B005460024CF
:1006A0008DF804408DF805408DF80640044801A9F6
:1006B00015F072FBC5F8184985F8244903B030BD20
:1006C000C89FFF1F30B583B0054600248DF8044055
:1006D0008DF805408DF80640044801A915F05CFB33
:1006E00041F21043EC5003B030BD00BFC89FFF1F64
:1006F00010B504467C301DF093F8204610BD00BFB5
:1007000010B50446002004211DF080F8A0730120DC
:1007100003211DF07BF8E06110BD00BF2DE9F0431F
:1007200083B00546624B5E7C0B2E28BF0B26614CC6
:100730002046202114F0C0FE204605F1680114F087
:10074000B3FE2046002114F077FD204614F03AFD58
:10075000594B1B78002B00F09F80584B9F785C789A
:100760000C2F84BF0C3FFFB29CB9DFF848810237E1
:1007700055F827300124009440462146324614F0B3
:10078000A5FD009440462146F21D4D4B14F09EFD00
:1007900089E0092C1DD8DFF81C81023455F824307B
:1007A0000124009440462146324614F08FFD009407
:1007B00040462146F21D434B14F088FD023755F8A0
:1007C000273000944046214606F10E0214F07EFDCB
:1007D00069E0112C1BD1DFF8DC80023755F8273097
:1007E0000124009440462146324614F06FFD6B6AA6
:1007F000009440462146F21D14F068FD00944046E6
:10080000214606F10E02304B14F060FD4BE0132C34
:1008100015D8DFF8A080023755F827300127009758
:1008200040463946324614F051FD023455F8243022
:10083000009740463946F21D14F048FD33E0DFF8DA
:100840007490023755F827300127009748463946FB
:10085000324614F03BFD1D4BA3FB04284FEAD80899
:1008600008F1140355F82330009748463946F21D25
:1008700014F02CFD08EB8808A4EB480414F0FF04E6
:1008800011D0023455F8243039460097484606F115
:100890000E0214F01BFD06E00121009105483246CE
:1008A0000B4B14F013FD002003B0BDE8F08300BF34
:1008B0004CB0FF1FC89FFF1F4828002074B0FF1FC7
:1008C000E4720200EC720200A07B0200CDCCCCCC22
:1008D000F47202002DE9F04F8DB000248DF8244011
:1008E0008DF825408DF826403D4809A915F054FAA9
:1008F0002046FF211CF08AFF3A49C2B291F8083C19
:10090000009308A801F60941FF2316F057FC0125C2
:100910000395A246A34602944BE0584602211CF0E0
:1009200075FF012806D19DF820909DF821809DF843
:10093000227003E05F46DDF80880C146A5B2261D9F
:10094000B6B28DF828908DF829808DF82A7033B2D0
:1009500000930AAB01932248DDF810E00FFA8EF104
:100960002AB2DDF814E00FFA8EF315F0EFF9BAF1C0
:10097000010F11DC8DF82C908DF82D808DF82E70E4
:1009800036B200960BAB01931548079A11B22AB202
:10099000069D2BB215F0DAF90634A4B21F2CBCD197
:1009A0000AF1010A039DAB1D9BB20393BAF1030F39
:1009B00010D0039DADB20495039D2B1D9BB20593F2
:1009C000C5F11A039BB20793C5F11E039BB20693B0
:1009D0000124A2E74FF4FA600DB0BDE8F08F00BF2C
:1009E000C89FFF1FD0A3FF1F30B585B000248DF82E
:1009F00008408DF809408DF80A400D4D284602A99F
:100A000015F0CAF92846214615F0EAF9094B1A886B
:100A10009B78ADF80C208DF80E30074B00932846DC
:100A200021461B2203AB15F0E3F9204605B030BD8B
:100A3000C89FFF1FC87002006C95FF1F30B585B0BE
:100A400000248DF808408DF809408DF80A400D4DBE
:100A5000284602A915F0A0F92846214615F0C0F94C
:100A6000094B1A889B78ADF80C208DF80E30074B97
:100A70000093284621461B2203AB15F0B9F9204606
:100A800005B030BDC89FFF1FC87002006C95FF1FE6
:100A900030B585B000248DF808408DF809408DF8F8
:100AA0000A400D4D284602A915F076F92846214640
:100AB00015F096F9094B1A889B78ADF80C208DF843
:100AC0000E30074B0093284621461B2203AB15F03E
:100AD0008FF9204605B030BDC89FFF1FC8700200C7
:100AE0006C95FF1F30B585B000248DF808408DF857
:100AF00009408DF80A400D4D284602A915F04CF921
:100B00002846214615F06CF9094B1A889B78ADF8F8
:100B10000C208DF80E30074B0093284621461B22EF
:100B200003AB15F065F9204605B030BDC89FFF1F27
:100B3000C87002006C95FF1F30B585B000248DF899
:100B400008408DF809408DF80A400D4D284602A94D
:100B500015F022F92846214615F042F9094B1A886A
:100B60009B78ADF80C208DF80E30074B009328468B
:100B700021461B2203AB15F03BF9204605B030BDE2
:100B8000C89FFF1FC87002006C95FF1F30B585B06D
:100B900000248DF808408DF809408DF80A400D4D6D
:100BA000284602A915F0F8F82846214615F018F94C
:100BB000094B1A889B78ADF80C208DF80E30074B46
:100BC0000093284621461B2203AB15F011F920465D
:100BD00005B030BDC89FFF1FC87002006C95FF1F95
:100BE00030B585B000248DF808408DF809408DF8A7
:100BF0000A400D4D284602A915F0CEF82846214698
:100C000015F0EEF8094B1A889B78ADF80C208DF89A
:100C10000E30074B0093284621461B2203AB15F0EC
:100C2000E7F8204605B030BDC89FFF1FC87002001E
:100C30006C95FF1F30B585B000248DF808408DF805
:100C400009408DF80A400D4D284602A915F0A4F878
:100C50002846214615F0C4F8094B1A889B78ADF850
:100C60000C208DF80E30074B0093284621461B229E
:100C700003AB15F0BDF8204605B030BDC89FFF1F7F
:100C8000C87002006C95FF1F30B585B000248DF848
:100C900008408DF809408DF80A400D4D284602A9FC
:100CA00015F07AF82846214615F09AF8094B1A886B
:100CB0009B78ADF80C208DF80E30074B009328463A
:100CC00021461B2203AB15F093F8204605B030BD3A
:100CD000C89FFF1FC87002006C95FF1F30B585B01C
:100CE00000248DF808408DF809408DF80A400D4D1C
:100CF000284602A915F050F82846214615F070F84C
:100D0000094B1A889B78ADF80C208DF80E30074BF4
:100D10000093284621461B2203AB15F069F82046B4
:100D200005B030BDC89FFF1FC87002006C95FF1F43
:100D300030B585B000248DF808408DF809408DF855
:100D40000A400D4D284602A915F026F828462146EE
:100D500015F046F8094B1A889B78ADF80C208DF8F1
:100D60000E30074B0093284621461B2203AB15F09B
:100D70003FF8204605B030BDC89FFF1FC870020075
:100D80006C95FF1FFFFFFFFF2DE9F0478AB0064675
:100D900000238DF80C308DF80D308DF80E3064483E
:100DA00003A914F0F9FF7769B7F1FF3F0CD12020B8
:100DB0001CF020FDF06020201CF01CFD3061AA23F7
:100DC000B3600023736100E027BBB589348A594BB7
:100DD000327A93F8081C009105A803F60941FF2315
:100DE00016F0ECF99DF815209DF816309DF81410BA
:100DF0008DF810108DF811208DF8123004AB00938F
:100E00004B4829B222B2002314F0D0FE736901339B
:100E1000736183E0B3699F427DDAB6F80C90B6F84F
:100E2000108096F808A0F06920F008FB04460D46F3
:100E3000B81E20F0F1FA02460B46204629461EF065
:100E400095F839A3D3E9002320F04CFB20F00CFEE9
:100E5000C3B2384A92F8082C009207A83649524685
:100E600016F0ACF99DF81D209DF81E309DF81C1061
:100E70008DF818108DF819208DF81A3006AB0093F4
:100E80002B480FFA89F10FFA88F2BBB214F08EFEEC
:100E90007769032F3BDDB6F80C90B6F8108096F812
:100EA00008A0F06920F0CAFA04460D46B81E20F0EA
:100EB000B3FA02460B46204629461EF057F81AA3FD
:100EC000D3E9002320F00EFB20F0CEFDC3B2194A77
:100ED00092F8082C009209A81749524616F06EF9AC
:100EE0009DF825209DF826309DF824108DF82010BF
:100EF0008DF821208DF82230FB1E08AA00920C48A4
:100F00000FFA89F10FFA88F29BB214F04FFE736961
:100F10000133736102E04FF0FF33736132200AB096
:100F2000BDE8F087AFF300800000000000E06F40F4
:100F3000C89FFF1FD0A3FF1FD9AFFF1FAFF30080D3
:100F400010B500F11C04204617F0C8FE10B1204671
:100F500017F0B8FE10BD00BF10B500F506742046AE
:100F600017F0BCFE10B1204617F0ACFE10BD00BF5C
:100F700010B50446034B036000F5067017F05AFEE7
:100F8000204610BDB070020010B50446034A40F878
:100F90001C2B17F04FFE204610BD00BF086F02004B
:100FA00010B5044600F5166017F044FE204610BD4B
:100FB0002DE9F04F83B083464FF000094FF00F0A40
:100FC000204E4FEAC9085FFA88F855460024FF27EB
:100FD000102C06DC8DF800808DF801508DF8027021
:100FE00007E08DF800808DF80170C5F10D038DF8D4
:100FF0000230684601A916F0DDF99DF8042096F844
:1010000024309A4210D19DF8052096F825309A4256
:101010000AD19DF8062096F826309A4204D1CBF8E2
:101020000890CBF80C4009E001340F35EDB2202CCC
:10103000CED109F10109B9F11F0FC2D103B0BDE84A
:10104000F08F00BF5C3100202DE9F04F83B0834664
:101050004FF000094FF00F0A1E4E4FEAC9085FFA21
:1010600088F855460024FF27102C06DC8DF80080F8
:101070008DF801508DF8027007E08DF800808DF832
:101080000170C5F10D038DF80230684601A916F014
:1010900091F99DF8042033789A420ED19DF80520ED
:1010A00073789A4209D19DF80620B3789A4204D108
:1010B000CBF80890CBF80C4009E001340F35EDB2C5
:1010C000202CD1D109F10109B9F11F0FC5D103B00D
:1010D000BDE8F08F3831002008B51BF085FA08BD57
:1010E0002DE9F04786B00546D0F81839002B2BDCE7
:1010F00000238DF80C308DF80D308DF80E30A94896
:1011000003A914F049FE05F10F0305F20F100021A9
:1011100006E003F8011F9342FBD1824203D013463D
:1011200003F11002F5E710201CF064FB04461020C8
:101130001CF060FBC5F81841C5F81C010123C5F877
:101140001839002385F82439D5F81809D5F81C3941
:10115000012B01D0441E02E01CF04CFB0446002C85
:10116000C0F2C78004F1230205F5887305EBC202C3
:1011700092E8030083E803008046D5F814912F46D7
:1011800000264FF0040A304651461CF03FFB97F80A
:101190002539284490F8252987F8252980F825390C
:1011A00001360137042EEED1D5F81C39012B0BD0B6
:1011B0007D4991F8083C009302A801F60941E2B28A
:1011C000FF2315F0FBFFACE095F82429531C85F8AC
:1011D0002439754991F8083C009302A801F60941A9
:1011E000FF2315F0EBFF9CE093F82509022809D0B6
:1011F00004280DD0012811D1D5F81061D5F814714B
:10120000013F10E0D5F81061D5F8147101370AE0FC
:10121000D5F81061013ED5F8147104E0D5F81061DD
:101220000136D5F814710F2E52D80F2F50D805EB78
:1012300007113144097C00294AD14FEA48014FEA9D
:101240004902D5F81441D5F8103105EB04142344B4
:101250001C7C04431C7405EB071333441B7C0228DD
:1012600069D0042860D0012800F0918005EB0714B4
:10127000344443F004032374022807D0042807D021
:10128000012818BF013105D1013A03E0013201E024
:101290000139FFE79DF809009DF80A309DF80840E4
:1012A0008DF814408DF815008DF816303D4809B2C0
:1012B00012B205AB14F0DAFAD5F818395A1CC5F891
:1012C0001829233305EBC30245F83360576010E05B
:1012D0000133934288D135E0013493E8030003E9F8
:1012E0000300D5F81829013A08339442F4DBC5F815
:1012F0001829D5F81839002B0EDCD5F81C39013324
:10130000C5F81C39D5F82029934207DB0023C5F81E
:101310001C394FF47A7041E000203FE04FF47A70BE
:101320003CE02A1D2B465FE705EB0710304443F0F5
:1013300008030374ACE705EB0710304443F00103E6
:101340000374A3E704F1230305EBC30255F833103C
:101350004900526852009DF809009DF80A309DF836
:1013600008608DF810608DF811008DF812300D486E
:1013700009B212B204AB14F079FAD5F81829013A7F
:101380009442B4DA04F1240305EBC303A4E705EBAC
:101390000710304443F00203037475E706B0BDE85C
:1013A000F08700BFC89FFF1FD0A3FF1F10B50446E2
:1013B00043691944012902DD0023436104E0002947
:1013C000AEBF416101234361206A10B103681B690C
:1013D00098476369063354F82300206210B103680C
:1013E000DB68984710BD00BF10B5044600200221FD
:1013F0001CF00CFA012802DD0023636104E00028E0
:10140000AEBF606101236361206A10B103681B698C
:1014100098476369063354F82300206210B10368CB
:10142000DB68984710BD00BF2DE9F04F8FB0244C0A
:1014300000250027A046DFF88C904FF0814B00205C
:10144000FF211CF0E3F90020FF211CF0DFF9284602
:1014500020F034FC20606760C8EB040608F1080344
:10146000F75006EB030A28461FF0D6FF12A3D3E974
:10147000002320F037F820F017FBCAF8040008F129
:101480001003F7501E447760C4F81890C4F81C90FD
:10149000C4F820B04FF082436362EB0084F8283038
:1014A0000C9BE362012384F830301D443434202D3A
:1014B000C5D10FB0BDE8F08F7B14AE47E17A84BF91
:1014C00060280020000020412DE9F04F91B03649FE
:1014D0000B8803EB432203EB820343F219621344AC
:1014E0009BB2038103EB432403EB840313449BB2BD
:1014F000438103EB432403EB84031A4492B20A8032
:1015000082812A4C0026DFF8AC904FF07C5A2020D4
:101510001CF070F905460020FF211CF077F9834686
:101520000020FF211CF072F90190284620F0C2FB38
:10153000206066601D4BE51A984603F1080758467F
:1015400020F0BCFB494620F0C1FC514620F000FBD6
:10155000E8512F44019820F0B1FB494620F0B6FC39
:10156000514620F0F5FA786008F11003EE501D4462
:101570006E600F4BA3614FF07F53E3614FF08143E7
:1015800023624FF082436362002384F828300E9B6D
:10159000E362012384F83030343408F502639C425E
:1015A000B5D111B0BDE8F08F1496FF1F6028002060
:1015B000CDCC4C3D00007F432DE9F04F83B08346F6
:1015C000002002211CF022F90028034608BF4FF03A
:1015D000FF330193DBF80830002B4FDD294C002549
:1015E00000270020FF211CF011F90020FF211CF032
:1015F0000DF9282032211CF009F98246224B236084
:10160000C5F11F0020F05AFB60601E4BE61A984699
:1016100003F10809504620F051FB1C4920F056FC0C
:101620008246019820F04AFB0146504620F09AFB82
:1016300046F80900B144C9F8047008F1100846F8EA
:101640000870B044C8F80470114BA3614FF07F5389
:10165000E3614FF0814323624FF0824363626B0189
:1016600084F828304FF07E53E362012384F8303051
:101670001D443434DBF80830AB42B2DC03B0BDE8C3
:10168000F08F00BF60280020000070410000C842B9
:10169000CDCC4C3D70B582B004461D4B1B68019308
:1016A000019AC368D21A03699A4229D90022194BB8
:1016B0001A70194819F09CFD18B10122154B1A70C7
:1016C00012E094F827302BB9144819F009FD0123D2
:1016D00084F82730104D2E7819F0B4FC294619F003
:1016E00051FB2B78B34208D001220D4B1A70084BE6
:1016F0001B680093009BE36002E00022084B1A7015
:10170000206A10B103689B689847002002B070BD42
:10171000DC550020CCA3FF1F74B0FF1FD9100000C0
:10172000482800202DE9F04F93B00B9041F2104370
:10173000C358002B40F0B7838DF83C308DF83D3016
:101740008DF83E30B1480FA914F026FB04201CF0A0
:1017500051F8032800F2B181DFE810F016000D0007
:1017600004004C0100221346A94D174640F6F52609
:101770004FF0FF0816E100221346A54D174640F62C
:10178000F5264FF0FF08A9E000221346A04D1746AA
:1017900040F6F5264FF0FF083CE085FB04AB4FEA2E
:1017A000E47ACAEBAB0A80F813A080F814C080F882
:1017B00015E00133B3F5806F00F06383FF3403302D
:1017C0004B45EAD1FF31B14220D085FB010CC8174F
:1017D000C0EBAC0C5FFA8CFC03EB430410340B98A9
:1017E0002044DDF82C9009F8047080F801C080F8DE
:1017F00002E05C1CB4F5806F00F0438303EB430010
:10180000484403F10B0923464446C6E7FF32B2427F
:1018100000F0378385FB02AED117C1EBAE0E5FFA45
:101820008EFE3946D1E7284631461BF0EFFF94F88B
:1018300010C094F811E0A17C00EB40003B1833F895
:10184000102F9B782282A37400F11002BB1807F8B6
:1018500002C083F801E0997001350334B5F5806F5B
:10186000E1D12AE180F813E085FB04AB4FEAE47A8A
:10187000CAEBAB0A80F814A080F815C00133B3F5A9
:10188000806F00F00483FF3403304B45EAD1FF3111
:10189000B1421FD085FB010CC817C0EBAC0C5FFA3E
:1018A0008CFC03EB430410340B982044DDF82C909F
:1018B00009F804E0477080F802C05C1CB4F5806F42
:1018C00000F0E58203EB4300484403F10B09234693
:1018D0004446C7E7FF32B24200F0D98285FB02AE30
:1018E000D117C1EBAE0E5FFA8EFE3946D2E728461D
:1018F00031461BF08BFF94F810C094F811E0A17CE6
:1019000000EB40003B1833F8102F9B782282A37421
:1019100000F11002BB1807F802C083F801E09970CB
:1019200001350334B5F5806FE1D1C6E080F813E0EE
:1019300080F814C085FB04AB4FEAE47ACAEBAB0A2B
:1019400080F815A00133B3F5806F00F0A682FF3454
:1019500003304B45EAD1FF31B1421FD085FB010C6A
:10196000C817C0EBAC0C5FFA8CFC03EB43041034DB
:101970000B982044DDF82C9009F804E080F801C0B1
:1019800087705C1CB4F5806F00F0878203EB430026
:10199000484403F10B0923464446C7E7FF32B242ED
:1019A00000F07B8285FB02AED117C1EBAE0E5FFA71
:1019B0008EFE3946D2E7284631461BF027FF94F8C1
:1019C00010C094F811E0A17C00EB40003B1833F804
:1019D000102F9B782282A37400F11002BB1807F825
:1019E00002C083F801E0997001350334B5F5806FCA
:1019F000E1D162E00020FF211BF008FFC6B2DDF854
:101A00002C804FF0000BD946FF2751E0C89FFF1FE5
:101A100067666666B5F5806F15DA8DF838608DF803
:101A200039408DF83A700EA811A915F0AFFC9DF859
:101A300044109DF845209DF846308AF800108AF839
:101A400001208AF8023001351034A4B20AF1030AE9
:101A5000B4F5807FDED1DA460BF11005C346B5F54B
:101A6000806F15DA8DF838608DF839708DF83A404E
:101A70000EA810A915F08AFC9DF840109DF8412091
:101A80009DF842308BF840108BF841208BF84230A3
:101A90000135103CA4B20BF1030B002CDFD10AF18D
:101AA000200B0836F6B208F16008BBF5806F04D051
:101AB00008F1100A5D464C46ACE702201BF09AFE86
:101AC00041F21443DDF82C9049F8030009F5416018
:101AD00009F54364002208E01A7083F800242033DB
:101AE0008B42F9D10130A04203D000F5806103465A
:101AF000F2E741F21043DDF82CA05AF8033003EB73
:101B00004302524432F8101F9278ADF834108DF829
:101B1000362043B920201BF06DFE054620201BF027
:101B200069FE04464DE19DF83490CDF820909DF873
:101B300035A0CDF81CA09DF83690CDF8189041F254
:101B40001443DDF82CA05AF8033053B94FF00009C4
:101B5000CDF81490CDF82490CDF80890AC490A91B6
:101B60009BE04FF00009CDF81090CDF81490CDF81F
:101B70000C90A74909911FE109950594029A5A44CE
:101B800041F21003D35C002B6FD0029A0232039211
:101B9000029B5E1EDFF878A207F1FF39CDF81090A6
:101BA000CDF804B0B6F1FF3F4AD0202E48D0DDF882
:101BB000049009F5416507F102083544049C0FFAC9
:101BC00086FB0FB90298B8B3B4F1FF3F34D0202C94
:101BD00032D015F8203C7BB38E4821B25A4613F020
:101BE000F7FD8DF83800C0F307228DF83920C0F3D7
:101BF00007438DF83A30C0B2DDF82090C9EB000001
:101C0000D2B2DDF81C90C9EB0202DBB2DDF818900D
:101C1000C9EB030302FB02F200FB002003FB0309F4
:101C2000D14507DB08D102201BF0E4FD012818BFD5
:101C3000CA4601D1CA46FFE7013420354445C0D128
:101C40000136DDF80C904E45ACD1DDF804B00A98B1
:101C5000824505DB0CD102201BF0CCFD01280AD106
:101C6000029C3D46CDF828A009E0059C099D06E0B0
:101C7000059C099D03E0059C099DCDF828A001372E
:101C80000BF1200B202F7FF477AF029901310291E5
:101C9000202900F0968009950594DDF82CA04FF0DE
:101CA000000B5F46D34669E705950494039A5244B6
:101CB00041F21003D35C002B63D0DDF80C9009F1E6
:101CC000FF364FF00009CDF804904FF0FF380BEBD2
:101CD00008000290CDF828B0B6F1FF3F39D0202E91
:101CE00037D00AF541650AF5476737443544029C09
:101CF0000FFA86FBB4F1FF3F27D0202C25D015F832
:101D0000203C13B309F10109424821B25A4613F0AD
:101D10005FFD8DF83800C0F307228DF83920C0F33D
:101D200007438DF83A30C0B20899401AD2B20799E9
:101D3000521ADBB206995B1A02FB02F200FB00208A
:101D400003FB0303019A1A44019201342035BD427A
:101D5000D0D108F101080136B8F1020FBCD1DDF88D
:101D600028B0019B93FBF9F60998864205DB0BD15D
:101D700002201BF03FFD012809D1039C5D46099616
:101D800008E0049C059D05E0049C059D02E0049C80
:101D9000059D09960BF1010B0AF1200ABBF1200FFA
:101DA00082D1DDF80C9009F10109CDF80C9048467C
:101DB000202806D005950494DDF82CA04FF0000BE8
:101DC00074E7DDF82C9009EB45163319002141F238
:101DD00010029954012283F8102C0E4829B222B225
:101DE0000DAB13F043FD013C2F464FF0FF3206F5DB
:101DF000805610364FF000084FF0010CB4F1FF3F51
:101E000021D0202C1FD06B1E3019414607E000BFA7
:101E10003F420F00C89FFF1F0131203001339F4216
:101E200001D1002AF8D0B3F1FF3F0AD0202B08D00F
:101E3000A0F5846999F80090B9F1000F01D100F87C
:101E400020CC0129E8DD01320134022AD6D141F249
:101E50001043DDF82CA05AF803300133B3F5806F3E
:101E600005DA41F210424AF80230002028E0002250
:101E700041F21043DDF82C9049F8032040F6B830C9
:101E80001EE00B9C00254FF480662746CBE40B9C9C
:101E900000254FF48066274629E50B9C00254FF46A
:101EA0008066274687E503EB4303DDF82CA0534407
:101EB00033F8102F9B78ADF834208DF8363032E6A9
:101EC00013B0BDE8F08F00BF70B483B0FF289CBF93
:101ED000000280B21E4C24680194019CE31A4FF466
:101EE0008C7404FB03F300FB03F39DF8184004EB30
:101EF0001363DBB213F0400F21D0DD43EDB205F0E8
:101F00003F0005F00F050135124C00114000261866
:101F1000767805FB06F5205C00EB2515EDB213F095
:101F2000800F0EBFEBB26B42DBB283F08003501A1E
:101F3000C0B200FB03F001EB2021C8B204E003F0C3
:101F40003F0003F00F05DFE703B070BC704700BF30
:101F5000DC550020C4720200F0B583B00446467C14
:101F60001F4B1B78C3B11F4B9D78437D1BB90C2DB4
:101F700084BF0C3DEDB21C48052113F05DF904F15E
:101F800008001A492A46174B5B7820F0C7FE0A2D35
:101F900034BF042701270AE01348002113F04CF94D
:101FA000134B03CBA060E1601B78237401270E4D17
:101FB0002846202113F080FA284604F1120113F07C
:101FC00073FA284613F0FEF8012300932846394699
:101FD000324604F1080313F079F9002003B0F0BD94
:101FE0004828002074B0FF1FC89FFF1F0073020025
:101FF000F47202002DE9F04F9FB003904D4CDFF8D2
:102000005091DFF840814FF07C5B4FF0000A0020D8
:10201000FF211BF0FBFB01900020FF211BF0F6FBD2
:102020000290C4F80090C4F804904249651A0F4623
:1020300001F1080601981FF041FE41461FF046FFDE
:1020400059461FF085FDA8512E4402981FF036FE18
:1020500041461FF03BFF59461FF07AFD706007F1C3
:10206000100345F803A01D44C5F804A04FF08143B8
:1020700023624FF082436362002384F828300F9B71
:10208000E362012384F830302B4BE3612B4BA361D7
:10209000343407F502729442B9D1002002211BF0BA
:1020A000B5FB0028D4BF00200120039B83F8450026
:1020B00000283BD00020FF211BF0A8FB0546002094
:1020C000FF211BF0A3FB04461D4B03998B60CB60E3
:1020D00028461FF0F3FD1B491FF0F8FE4FF07C511E
:1020E0001FF036FD039A106120461FF0E7FD1549E9
:1020F0001FF0ECFE4FF07C511FF02AFD039B58614E
:10210000002303998B61CB61002281F830201C9A57
:102110004A63012281F8382081F845200A4A4A6240
:102120000A4A0A624FF08342CA628B621FB0BDE85E
:10213000F08F00BF602800205C8FC23E8FC2753CCC
:102140000000F84100007F43B81EC53E0AD7A33CFB
:10215000000070412DE9F04387B000258DF8105044
:102160008DF811508DF81250214804A913F014FE77
:10217000DFF88490DFF884801E4E06F60947D8F811
:10218000003095FBF3F359F823402246002CB8BFEA
:10219000E21C96F8083C009303A83946C2F3870274
:1021A000FF2315F00BF8ABB29DF80D109DF80E2033
:1021B0009DF80C008DF814008DF815108DF8162080
:1021C00019B22246002CB8BF04F11F025211C2F10D
:1021D00020021F20009005A80190054812B21BB2F2
:1021E00013F090FC0135202DC9D107B0BDE8F08374
:1021F000C89FFF1FD0A3FF1F08280020B495FF1F12
:102200002DE9F04F87B000278DF810708DF8117010
:102210008DF81270294804A913F0BEFD284B1D1F2C
:1022200003F1380BDFF89C8008F6094ADFF88C9040
:1022300055F8044F6E682246002CB8BFE21C98F88F
:10224000083C009303A85146C2F38702FF2314F011
:10225000B5FF2346002CB8BF04F11F035A11C2F189
:102260002002D2B23346002EB8BF06F11F035B1125
:10227000C3F12003DBB2BC1CA4B29DF80D009DF895
:102280000E109DF80C608DF814608DF815008DF817
:1022900016101F2B28BF1F23009305AB0193484640
:1022A00039B21F2A28BF1F2223B213F02BFC5D4531
:1022B00001D02746BCE707B0BDE8F08FC89FFF1FDD
:1022C00008280020D0A3FF1F38B505460C46084655
:1022D00019F084FF02462B685B6828462146984720
:1022E00038BD00BF38B504460D46084619F076FFE4
:1022F000024623685B6820462946984705462046E3
:102300001BF0C6F9284438BD2DE9F04383B00746D9
:102310000E4615460E4B1B680093DDF80090002416
:10232000DFF82C803019291B1AF09CFF0444A542C9
:102330000AD9D8F800300193019AC9EB0202BB68B0
:102340009A42EFD301233B73204603B0BDE8F083EC
:10235000DC55002030B589B0054600238DF80430E7
:102360005A4B009302914FF0FF330393584869464C
:1023700019F052FB0446002800F0A580544821467D
:10238000544A19F0B1FB0346027C042A04D105F13A
:102390000C00996920F0B8FE4D4821464E4A19F0CC
:1023A000A3FB037C022B04D1836985F870300123E1
:1023B0002B7147482146494A19F096FB037C022BB2
:1023C00004D1836985F8713001232B71404821467F
:1023D000434A19F089FB037C022B04D1836985F8F9
:1023E000723001232B713A4821463E4A19F07CFB9A
:1023F000037C022B04BF83696B67354821463A4A48
:1024000019F072FB037C022B04BF8369AB67304871
:102410002146364A19F068FB0346027C042A04D19F
:1024200005F17C0099691BF097FA29482146304A4A
:1024300019F05AFB037C022B04BF836985F88C30AA
:10244000234821462B4A19F04FFB0346027C042AFD
:1024500033D104A899691BF02FFA04A826491BF070
:10246000DBFAE0B904A825491BF0D6FAC8B904A8DC
:1024700023491BF0D1FAB0B904A822491BF0CCFAC9
:1024800098B904A820491BF0C7FA80B904A81F49CD
:102490001BF0C2FA00280CBF0523042308E0052323
:1024A00006E0002304E0012302E0022300E003230E
:1024B00085F88D3004A81BF0B3F90548214618F0C3
:1024C00083FF012000E0002009B030BDD8B8020031
:1024D00048550020087302001073020014730200B4
:1024E0001C73020024730200287302003073020080
:1024F0003873020040730200487302005C730200EC
:1025000068730200787302008873020090730200FF
:1025100030B585B005460C465248534A19F0E4FAE6
:102520000346027C042A04D105F10C00996920F0CD
:10253000EBFD4C4821464D4A19F0D6FA037C022B9C
:1025400004D1836985F8703001232B7145482146F9
:10255000474A19F0C9FA037C022B04D1836985F834
:10256000713001232B713F482146424A19F0BCFAD1
:10257000037C022B04D1836985F8723001232B710F
:10258000384821463C4A19F0AFFA037C022B04BFBD
:1025900083696B6733482146384A19F0A5FA037CF2
:1025A000022B04BF8369AB672E482146344A19F0D9
:1025B0009BFA0346027C042A04D105F17C00996948
:1025C0001BF0CAF9274821462E4A19F08DFA037CE0
:1025D000022B04BF836985F88C30224821462A4AA1
:1025E00019F082FA0346027C042A33D168469969BD
:1025F0001BF062F9684625491BF00EFAE0B96846FF
:1026000023491BF009FAC8B9684622491BF004FAAD
:10261000B0B9684620491BF0FFF998B968461F49D0
:102620001BF0FAF980B968461D491BF0F5F900283E
:102630000CBF0523042308E0052306E0002304E083
:10264000012302E0022300E0032385F88D30684671
:102650001BF0E6F80348214618F0B6FE012005B04D
:1026600030BD00BF485500200873020010730200FF
:10267000147302001C73020024730200287302000A
:102680003073020038730200407302004873020086
:102690005C730200687302007873020088730200A2
:1026A0009073020010B500F17C04204613491BF022
:1026B000B3F9C8B9204612491BF0AEF9B0B92046AB
:1026C00010491BF0A9F998B920460F491BF0A4F94D
:1026D00080B920460D491BF09FF968B920460C4986
:1026E0001BF09AF9052010BD002010BD012010BD7F
:1026F000022010BD032010BD042010BD9473020001
:102700009C730200A4730200B0730200BC73020049
:10271000C873020010B50C46084615491BF07CF939
:10272000E0B9204613491BF077F9C8B92046124991
:102730001BF072F9B0B9204610491BF06DF998B939
:1027400020460F491BF068F980B920460D491BF05F
:1027500063F900280CBF0520042010BD052010BD22
:10276000002010BD012010BD022010BD032010BDAF
:10277000487302005C730200687302007873020001
:1027800088730200907302002DE9F041D8B007462B
:102790000D469E4E04AC9AE12B798DF81430AB684F
:1027A00006932B7B8DF81C3004962B4653F80D0FA7
:1027B00059689A68CDF81D00CDF82110CDF8252074
:1027C0001B7B8DF82930EB690B93684600211BF0C9
:1027D00073F808E0204616F0B7F90FE00A290DD08B
:1027E00068461BF0EDF8204616F058FA30B1204646
:1027F00016F0AAF9C1B20D29F0D1EBE7204616F088
:1028000019FA0CA882491BF057F868460CA91BF06E
:1028100039F980460CA81BF003F8B8F1000F13D06B
:1028200010A8694605221BF08DF9684610A91BF017
:102830008BF810A81AF0F4FF684607F10C01642227
:1028400000231BF043F93FE114A872491BF034F850
:10285000684614A91BF016F9804614A81AF0E0FF88
:10286000B8F1000F17D018A8694604221BF06AF9C6
:10287000684618A91BF068F818A81AF0D1FF029B47
:10288000002B00F0218168461BF074F987F8700076
:1028900001233B7118E11CA85F491BF00DF8684645
:1028A0001CA91BF0EFF880461CA81AF0B9FFB8F17C
:1028B000000F17D020A8694606221BF043F968468E
:1028C00020A91BF041F820A81AF0AAFF029B002BB8
:1028D00000F0FA8068461BF04DF987F8710001237B
:1028E0003B71F1E024A84D491AF0E6FF684624A99F
:1028F0001BF0C8F8804624A81AF092FFB8F1000F28
:1029000017D028A8694605221BF01CF9684628A99B
:102910001BF01AF828A81AF083FF029B002B00F086
:10292000D38068461BF026F987F8720001233B71BB
:10293000CAE02CA83A491AF0BFFF68462CA91BF040
:10294000A1F880462CA81AF06BFFB8F1000F14D044
:1029500030A8694604221BF0F5F8684630A91AF041
:10296000F3FF30A81AF05CFF029B002B00F0AC8054
:1029700068461BF0FFF87867A6E034A829491AF0EA
:102980009BFF684634A91BF07DF8804634A81AF0F6
:1029900047FFB8F1000F14D038A8694605221BF094
:1029A000D1F8684638A91AF0CFFF38A81AF038FFD6
:1029B000029B002B00F0888068461BF0DBF8B867AC
:1029C00082E03CA818491AF077FF68463CA91BF042
:1029D00059F880463CA81AF023FFB8F1000F25D023
:1029E00040A8694605221BF0ADF8684640A91AF0D8
:1029F000ABFF40A81AF014FF029B002B64D007F134
:102A00007C0069461AF08AFF5EE000BF60B80200F1
:102A1000D4730200DC730200E4730200EC73020062
:102A2000F4730200FC7302000474020044A82D49F0
:102A30001AF042FF684644A91BF024F8804644A8D7
:102A40001AF0EEFEB8F1000F14D048A8694606222D
:102A50001BF078F8684648A91AF076FF48A81AF0E3
:102A6000DFFE029B002B2FD068461BF083F887F80F
:102A70008C0029E04CA81C491AF01EFF68464CA99E
:102A80001BF000F880464CA81AF0CAFEB8F1000FFF
:102A90001AD050A8694605221BF054F8684650A980
:102AA0001AF052FF50A81AF0BBFE029B63B154A863
:102AB00069461AF03DFF384654A9FFF72BFE87F808
:102AC0008D0054A81AF0ACFE68461AF0A9FE2B68D7
:102AD0009B682846984700283FF75EAE58B0BDE88F
:102AE000F08100BF0C740200147402002DE9F04163
:102AF000F0B00446984B1B78002B00F00B818568E2
:102B00000135856043799D4204DB4FF0FF338360DC
:102B100000251CE10268002DC0F2878008A88F49BB
:102B2000012316F055FA08A816F0D8F8002879D035
:102B300010A808A9012216F0F3FA894E894F68E01F
:102B400010A816F0BFF864E010A816F079F8014656
:102B500003785F2B38D07E2B36D02E2B34D06CA848
:102B60001AF0AAFE6CA81AF0F5FF014604A81AF0A4
:102B7000DFFE6CA81AF054FE68A831461AF09CFEDD
:102B800004A868A91AF08AFF012800F0D98064A877
:102B900039461AF091FE04A864A91AF07FFF804616
:102BA00064A81AF03DFE68A81AF03AFE04A81AF0CC
:102BB00037FEB8F1010F07D1013D10A816F040F81B
:102BC0000146684620F0A0FA10A816F07BF85CA831
:102BD00008A9012216F0A4FA9DF874318DF844304A
:102BE0005E9B12939DF87C318DF84C3070AB53F89E
:102BF000430D59689A68CDF84D00CDF85110CDF8C5
:102C000055201B7B8DF85930639B17935CA816F0F9
:102C100011F810A816F062F8002800F08480002D4A
:102C20007ADA80E008A816F005F810A8216820F0EC
:102C30006BFA10A8694620F0B9F808A8474910AA0D
:102C4000012316F0C5F908A816F048F8054620B982
:102C50002046FFF74BFF054658E00026267384F810
:102C6000706084F8716084F8726001236367A36701
:102C700004F17C0005211AF081FE182384F88C30C1
:102C800084F88D60267150A869461AF015FE50A888
:102C90001AF060FF014604A81AF04AFE50A81AF084
:102CA000BFFD54A82E491AF007FE04A854A91AF033
:102CB000F5FE064654A81AF0B3FD012E04D12046B5
:102CC00008A9FFF761FD11E058A826491AF0F4FDA4
:102CD00004A858A91AF0E2FE064658A81AF0A0FD6A
:102CE000012E03D1204608A9FFF734FB23793BB915
:102CF0001D4B33F8042F9B78A4F8702084F87230B1
:102D000008A815F0DFFF04A81AF08AFD08A815F03E
:102D100091FF1CE000251AE010A815F093FF002891
:102D20007FF40EAF10E710A815F0CCFF08A815F03F
:102D3000C9FF10A815F07EFF08A815F07BFF74E707
:102D400068A81AF06DFD04A81AF06AFD34E7284659
:102D500070B0BDE8F08100BFD8DDFF1F40520020F9
:102D60001C74020024740200C870020070B506468C
:102D70000D4B18781EF0A2FF014630461FF09AF95D
:102D800068B9094D012415F8010F1EF097FF31466F
:102D90001FF09AF930B901340C2CF4D101E0002471
:102DA00000E00024204670BD9C95FF1F10B504462E
:102DB00000211FF075F928B9204605491FF08EF94A
:102DC00010B902E0024C00E00024204610BD00BF14
:102DD00000007F4310B5054C20781EF06BFFFFF715
:102DE000E5FF1FF0ABF9207010BD00BFC03300201D
:102DF00010B50C46FFF7BAFF001903D40C28A8BF82
:102E0000002000E00B20034B185C1EF053FFFFF77F
:102E1000CDFF10BD9C95FF1F08B50020012119F0C2
:102E20002BFC0120014619F027FC0020014619F077
:102E3000F1FB0120014619F0EDFB08BD2DE9F04F33
:102E400083B000257D4B1D702846012119F0E2FB5F
:102E50002846294619F0DEFB2C460126DFF81482AD
:102E6000774F3046002119F0D5FB4FF42073013B1A
:102E70007FF4FDAF282019F03FF854F808301844CB
:102E800020EAE073E3519D42B8BF1D46304631460B
:102E900019F0C0FB04341C2CE3D16A4B187818B12C
:102EA0001EF008FF81465AE0674B187800FB05F5D5
:102EB000664B1B889D4222DB654B9B7883421ED864
:102EC000644B1B680093009A634B1B6813B9624BF9
:102ED0001A603FE0614909880B4493423AD21EF0E0
:102EE000E9FE4FF0FF31FFF783FF1FF027F9564B44
:102EF00018700023584A1360594A13602AE0594B4E
:102F00001B889D4221DC524BDB7A83421DD9514BF9
:102F10001B680193019A524B1B6813B9504B1A60FE
:102F200018E0514909880B44934213D21EF0C2FEA7
:102F30000121FFF75DFF1FF001F9434B18700023DB
:102F4000474A1360444A136004E00023444A136074
:102F5000414A13603C4B18781EF0ACFE8146434B4F
:102F6000D3F800A0354B1D780024354E40F2FF38D1
:102F70003F4FA0591EF0A2FE49461EF0F3FE1FF07F
:102F8000B7F84045A8BF4046A051E259904201DB46
:102F9000E05104E0002AC4BFCAEB0202E251C1289A
:102FA000A8BF012504341C2CE3D1244B1D7000253F
:102FB0002C46DFF8C4A0DFF8C4B0DFF8B4802046A8
:102FC0001EF07CFE51461EF0CDFE07461FF090F825
:102FD00006461EF073FE014638461EF0B9FD074650
:102FE0000E2C1FDC4FF07E5039461EF0B1FD81469D
:102FF00058F826001EF062FE014648461EF0B2FE5A
:103000008146013658F826001EF058FE39461EF05B
:10301000A9FE014648461EF09DFD1FF069F84BF8D9
:10302000050003E058F8263045F80B30013404352C
:10303000102CC4D103B0BDE8F08F00BFF9E1FF1F31
:10304000EC270020C03300206CB0FF1F8095FF1FCD
:103050009C95FF1FDC550020DCDDFF1FA895FF1F9E
:10306000E4DDFF1F6495FF1F8295FF1F7C95FF1F06
:103070001C3100204CDDFF1FCDCCCC3E08280020A9
:1030800010B50446FFF7DAFE42F69033E0580368C5
:103090009B68984710BD00BF10B50446FFF7CEFEF1
:1030A000606910F0010F01D1236903E04310E25879
:1030B0002369D35804EB60009847002010BD00BF7F
:1030C00070B483B0FF289CBF000280B21E4C2468FD
:1030D0000194019D9DF818404034EB1A4FF48C7513
:1030E00005FB03F300FB03F304EB1363DBB213F004
:1030F000400F21D0DD43EDB205F03F0005F00F0594
:103100000135124C001140002618767805FB06F5B3
:10311000205C00EB2515EDB213F0800F0EBFEBB273
:103120006B42DBB283F08003501AC0B200FB03F0A5
:1031300001EB2021C8B204E003F03F0003F00F05CB
:10314000DFE703B070BC7047DC550020C47202009A
:103150002DE9F04F99B08346A74B1B681293129B41
:103160004FF40C3202FB03F2120ED3B213F0400FF5
:1031700000F0E882DB43DBB203F03F0103F00F0312
:1031800001339E48091149004418647803FB04F395
:10319000415C01EB2313DBB212F0800F18BF5B42DE
:1031A000DBB283F08003F52202FB03F31B120A3328
:1031B000934A106820210A46DBB213F0F1FF8E4BD0
:1031C0001B681393139B4FF40C3202FB03F2120E95
:1031D000D3B213F0400F00F0BA82DB43DBB203F04E
:1031E0003F0103F00F0301338448091149004418DB
:1031F000647803FB04F3415C01EB2313DBB212F0B0
:10320000800F18BF5B42DBB283F0800303EB8303C4
:103210005B116433DBB2CBF82830774B1B68149317
:10322000149B4FF4523202FB03F2120ED3B213F08E
:10323000400F00F09182DB43DBB203F03F0103F06B
:103240000F0301336D48091149004418647803FBEA
:1032500004F3415C01EB2313DBB212F0800F18BFC3
:103260005B42DBB283F0800303EBC303181201302F
:10327000C0B21EF023FD63491EF028FECBF81400F7
:1032800000230093052001210A22FFF719FF1EF0F9
:1032900015FD5C491EF01AFE0546CBF81C00DBF854
:1032A0001000DBF814101EF055FC0446CBF810009B
:1032B0002846DBF818101EF04DFC0646CBF8180027
:1032C00020461EF0BBF804460D4649A3D3E900236F
:1032D0001EF08EFB50B12046294645A3D3E90023BA
:1032E0001DF04CFF1EF0E0FBCBF8100030461EF046
:1032F000A5F804460D463EA3D3E900231EF078FB53
:1033000050B1204629463AA3D3E900231DF036FFE9
:103310001EF0CAFBCBF81800DBF810001EF08EF888
:1033200004460D461BF00CFD1EF0BEFB049020462B
:1033300029461BF0D1FD1EF0B7FB0646DBF818004E
:103340001EF07CF804460D461BF0FAFC1EF0ACFBA8
:103350000590204629461BF0BFFD1EF0A5FB044644
:103360000599CBF898120023CBF89C3200F100436A
:1033700006930699CBF8A012304621461EF0F2FCC7
:103380000790CBF8A402049BCBF8A83230460599ED
:103390001EF0E8FC0890CBF8AC02049821461EF021
:1033A000E1FC0990CBF8B00206F100460A960A99B2
:1033B000CBF8B412049805991EF0D4FC0B90CBF80E
:1033C000B802DBF828001EF079FC0C90DBF8203006
:1033D0000D93DBF808100391DBF824300E935D4663
:1033E0005C464FF00009CDF83CB00DE0AFF3008033
:1033F000182D4454FB211940DC550020C4720200F2
:10340000D0A3FF1F0000C842D4F82C80276B666B46
:10341000059841461EF0A6FC8246384600211EF063
:10342000A1FC014650461EF095FB824606983146A7
:103430001EF098FC014650461EF08CFB8246C4F8F4
:103440008C00079841461EF08DFC8346049839464F
:103450001EF088FC014658461EF07CFB8346089807
:1034600031461EF07FFC014658461EF073FBC4F83F
:103470009000099841461EF075FC80460A9839462E
:103480001EF070FC014640461EF064FB07460B9898
:1034900031461EF067FC014638461EF05BFB0C9976
:1034A0001EF058FB0646C4F89400039851461EF0DF
:1034B00059FC31461EF00AFD01460D981EF04AFBEC
:1034C0001DF0BCFF1BF078FC1EF0EEFAC5F8EC0016
:1034D0000398D4F890101EF045FC31461EF0F6FC1F
:1034E00001460E981EF034FB1DF0A8FF1BF064FC93
:1034F0001EF0DAFAC5F8F00009F101090C340835BC
:10350000B9F1080F80D1DDF83CB0002319460BEB70
:10351000030282F80C120C33902BF8D10BF1D80176
:1035200004915C460125D4F830211D320BEBC20218
:10353000D4F834311D330BEBC303191D0391D4F8B8
:1035400038711D370BEBC7075668D2F808805868EA
:1035500031461EF0FDFA8146B86841461EF0F8FA81
:10356000014648461EF0FEFB8146039B58684146D3
:103570001EF0EEFA8046786831461EF0E9FA014600
:1035800040461EF0EFFB014648461EF0E1FA0021DE
:103590001EF086FDF8B9D4F8403103EB43030BEB82
:1035A000830383F80C52D4F8443103EB43030BEB51
:1035B000830383F80C52D4F8483103EB43030BEB3D
:1035C000830383F80C52D4F84C3103EB43030BEB29
:1035D000830383F80C52243404998C42A3D16349A9
:1035E0009BF8BC2291F8083C009311A801F6094110
:1035F000802313F0E3FD0BF190055C46DFF870A12A
:1036000094F80C32A3BBD4F804620BEBC606D6F8D0
:10361000EC001EF06DFD1FFA80F8D6F8F0001EF0E9
:1036200067FD1FFA80F9D4F808620BEBC606D6F8DE
:10363000EC001EF05DFD87B2D6F8F0001EF058FDDC
:103640009DF845209DF846309DF844108DF85410A3
:103650008DF855208DF8563000B2009015AB0193CF
:1036600050460FFA88F10FFA89F23BB212F04AFA8B
:103670000C34AC42C4D13D499BF8BC2291F8083CC3
:10368000009316A801F60941FF2313F097FD9DF85A
:1036900058308DF844309DF859308DF845309DF8FC
:1036A0005A308DF846305C46DFF8C4A094F80C32EE
:1036B000A3B3D4F804620BEBC606D6F8EC001EF0F8
:1036C00017FD1FFA80F8D6F8F0001EF011FD1FFA62
:1036D00080F9D4F808620BEBC606D6F8EC001EF0B1
:1036E00007FD87B2D6F8F0001EF002FD9DF84520D8
:1036F0009DF846309DF844108DF85C108DF85D20E3
:103700008DF85E3000B2009017A9019150460FFA73
:1037100088F10FFA89F23BB212F0F4F90C34A542A9
:10372000C4D1DBF8C0320133082B02D0CBF8C03251
:1037300017E00023CBF8C0329BF8BC3201338BF882
:10374000BC320EE003F03F0103F00F0319E503F074
:103750003F0103F00F0347E503F03F0103F00F03C0
:1037600070E5142019B0BDE8F08F00BFD0A3FF1F93
:10377000C89FFF1FAFF3008070B410F0400F21D03E
:10378000C543EDB205F03F0305F00F050135114CBF
:103790001B115B00E618767805FB06F5E35C03EB8E
:1037A0002515EDB210F0800F0EBFEBB26B42DBB20D
:1037B00083F08003501AC0B200FB03F001EB20211C
:1037C000C8B204E000F03F0300F00F05DFE770BC73
:1037D000704700BFC472020070B44030C3B213F02F
:1037E000400F21D0DD43EDB205F03F0005F00F059D
:1037F0000135114C001140002618767805FB06F5BE
:10380000205C00EB2515EDB213F0800F0EBFEBB27C
:103810006B42DBB283F08003501AC0B200FB03F0AE
:1038200001EB2021C8B204E003F03F0003F00F05D4
:10383000DFE770BC704700BFC4720200F0B5A1B0F2
:103840000446C0F8041C092903DD0023C0F8043C29
:1038500014E0002903DA0923C0F8043CFFE0092939
:1038600000F20B81DFE811F00A001F00340049006C
:103870005E0073009A00AF00C400FB00804923463D
:1038800001F1400551F8042F100C83F8390C100A8F
:1038900083F83A0C83F83B2C0333A942F2D1794BDD
:1038A000C4F86C3CE9E07849034601F1400551F861
:1038B000042F100C83F8390C100A83F83A0C83F8A3
:1038C0003B2C0333A942F2D1704BC4F86C3CD4E0DA
:1038D0006F49034601F1400551F8042F100C83F89D
:1038E000390C100A83F83A0C83F83B2C0333A942B5
:1038F000F2D1684BC4F86C3CBFE06749034601F164
:10390000400551F8042F100C83F8390C100A83F885
:103910003A0C83F83B2C0333A942F2D15F4BC4F835
:103920006C3CAAE05E49034601F1400551F8042FC2
:10393000100C83F8390C100A83F83A0C83F83B2CEE
:103940000333A942F2D1574BC4F86C3C95E00023F5
:103950008DF80C308DF80D308DF80E30FF238DF87A
:1039600008308DF809308DF80A3004A8102103AA18
:1039700002AB13F09BFA04AF04F639450DF1400C8D
:103980003E460FCE28606960AA60EB60374610356E
:103990006645F5D1444BC4F86C3C6EE043490346A0
:1039A00001F1400551F8042F100C83F8390C100A6E
:1039B00083F83A0C83F83B2C0333A942F2D13C4BF9
:1039C000C4F86C3C59E03B49034601F1400551F80D
:1039D000042F100C83F8390C100A83F83A0C83F882
:1039E0003B2C0333A942F2D1334BC4F86C3C44E086
:1039F00000228DF84C208DF84D208DF84E208DF84A
:103A000048208DF84920FF238DF84A308DF8442056
:103A10008DF845308DF846308DF840308DF84130C6
:103A20008DF8423011AB009310AB019314A8102114
:103A300013AA12AB13F058FA14AF04F639450DF17E
:103A4000800C3E460FCE28606960AA60EB60374666
:103A500010356645F5D1194BC4F86C3C0DE00020DB
:103A6000092119F0D3FE01462046FFF7E7FE09239E
:103A7000C4F8043C124BC4F86C3C21B0F0BD00BF4C
:103A8000D0B502002874020090B502003074020024
:103A900090B602003874020010B7020040740200B1
:103AA00050B602004874020050740200D0B6020002
:103AB0005874020010B602006074020068740200BC
:103AC0006C74020038B504460D4642F68C33C35878
:103AD0000B44242B04DD002242F68C33C25009E053
:103AE000002B03DB42F68C32835003E0242242F6A3
:103AF0008C33C250174BD3F8043C092B03D1154823
:103B00000921FFF79BFE42F69033E05810B103689D
:103B10001B69984742F68C33E35803F6E42304EB21
:103B20008303586842F69033E05010B10368DB68B5
:103B30009847094B1B785BB904F1640342F6903255
:103B4000A2589A4204D123689B6920462946984787
:103B500038BD00BFD0A3FF1F4828002010B5044681
:103B6000D0F898321944252903DD0023C0F8983293
:103B700006E00029AEBFC0F898122523C0F898329D
:103B80000A4BD3F8043C092B03D108480921FFF75D
:103B900055FED4F89832DA1C04F1100304EBC20489
:103BA00094E8030083E8030010BD00BFD0A3FF1F0B
:103BB00010B50446D0F898321944252903DD0023B6
:103BC000C0F8983206E00029AEBFC0F8981225234D
:103BD000C0F898320A4BD3F8043C092B03D10848AB
:103BE0000921FFF72BFED4F8983203F1290204F1E2
:103BF000100304EBC20494E8030083E8030010BD43
:103C0000D0A3FF1F70B504460E4642F68C33C3584E
:103C10000B44242B04DD002242F68C33C25009E011
:103C2000002B03DB42F68C32835003E0242242F661
:103C30008C33C250184BD3F8043C092B03D11648DF
:103C40000921FFF7FBFD42F68C33E55842F690332D
:103C5000E05810B103681B69984742F68C33E55071
:103C600005F60A3554F8250042F69033E05010B1BD
:103C70000368DB689847094B1B785BB904F1640360
:103C800042F69032A2589A4204D123685B692046DA
:103C90003146984770BD00BFD0A3FF1F48280020C1
:103CA00038B505460C460846314919F0B5FE20B135
:103CB00028460021FFF7C2FD38BD20462D4919F0E6
:103CC000ABFE20B128460121FFF7B8FD38BD2046E4
:103CD000294919F0A1FE20B128460221FFF7AEFDC7
:103CE00038BD2046254919F097FE20B1284603210A
:103CF000FFF7A4FD38BD2046214919F08DFE20B103
:103D000028460421FFF79AFD38BD20461D4919F0C9
:103D100083FE20B128460521FFF790FD38BD2046DF
:103D2000194919F079FE20B128460621FFF786FDD2
:103D300038BD2046154919F06FFE20B128460721ED
:103D4000FFF77CFD38BD2046114919F065FE20B112
:103D500028460821FFF772FD38BD20460D4919F0AD
:103D60005BFE18B128460921FFF768FD38BD00BF8A
:103D7000287402003074020038740200407402009B
:103D800048740200747402005874020060740200E7
:103D9000687402006C7402002DE9F043A9B04D4C28
:103DA00023685B6820464C4901229847204619F059
:103DB0006FFC23685B68204648490B2298472046E1
:103DC0000A2119F0B1FC23685B68204644490122AE
:103DD0009847204619F05CFC23685B6820464149FF
:103DE0000E229847204619F053FC68463E4919F0C8
:103DF00063FD04A83D4919F05FFD08A83C4919F08E
:103E00005BFD0CA83B4919F057FD10A83A4919F081
:103E100053FD14A8394919F04FFD18A8384919F075
:103E20004BFD1CA8374919F047FD20A8364919F069
:103E300043FD24A8354919F03FFD23685B682046FF
:103E40003349052298472046694619F0FBFB04AD2B
:103E5000E8460DF1A0092F4F2D4E1AE01D4C2046CB
:103E60002D49FEF73FFA23685B6820462B49032261
:103E70009847204619F00CFC23685B6820462849C7
:103E800001229847204619F003FC24ACA8F1100841
:103E900016E023685B682046394602229847204690
:103EA00019F0F6FB23685B682046314605229847E7
:103EB0002046294619F0C6FB10354D45E9D1CDE71E
:103EC000204619F0ADFC103C4445F9D129B0BDE8BD
:103ED000F08300BFDC56002080740200847402006E
:103EE000907402009474020028740200307402007E
:103EF00038740200407402004874020074740200B6
:103F00005874020060740200687402006C7402004D
:103F1000A4740200B4740200A8740200AC7402001D
:103F2000B074020030B400230468E218E55C01FBC1
:103F300005F52D12E554547804FB01F42412547055
:103F4000947804FB01F4241294700333B3F5406FAA
:103F5000EAD130BC704700BF2DE9F04786B0364843
:103F6000AA21FFF7DFFF002620253446DFF8D49092
:103F7000314F07F60948FF2D9ABF2B029BB22B4603
:103F8000D9F800200392039A4FF48C7101FB02F2DE
:103F900003FB02F2120ED3B213F0400F43D06FEACC
:103FA000030A5FFA8AFA0AF03F010AF00F0A0AF1DF
:103FB000010A22480911490000EB010E9EF801E0B8
:103FC0000AFB0EFA415C01EB2A1A5FFA8AFA12F038
:103FD000800F18BFCAF1000A5FFA8AFA97F8083C06
:103FE000009305A841463246FF2313F0E7F89DF8F9
:103FF00015209DF816309DF814108DF810108DF8CE
:1040000011208DF812308AF080020D4821B2D208BA
:1040100004AB11F02BFC01340135ADB20736F6B21A
:10402000202CA8D104E003F03F0103F00F0AC0E701
:104030000F2006B0BDE8F087D0A3FF1FC4720200B6
:10404000C89FFF1FDC5500202DE9F04F87B0584B6B
:104050001B680393039B4FF40C3202FB03F2120E16
:10406000D3B213F0400F00F09580DB43DBB203F0D6
:104070003F0103F00F0301334E4809114900441872
:10408000647803FB04F3415C01EB2313DBB212F011
:10409000800F18BF5B42DBB283F0800303EB830326
:1040A00099111A394448C9B2FFF73CFF4FF0040890
:1040B0001E2400270E25DFF8009109F6094BDFF8D2
:1040C000F0A099F8083C009302A859463A46FF230D
:1040D00013F074F8EEB2C6F12002002300932046DC
:1040E0003146D2B2FEF7ECFF0146FF2C9ABF200208
:1040F00080B22046DAF800300493049B4FF48C72AF
:1041000002FB03F200FB02F2120ED3B213F0400FD7
:1041100045D06FEA030C5FFA8CFC0CF03F0E0CF0FC
:104120000F0C0CF1010C234B4FEA2E1E4FEA4E0EE2
:1041300003EB0E0040780CFB00FC13F80E0000EBC4
:104140002C13DBB212F0800F18BF5B42DBB29DF87C
:1041500009009DF80A209DF808E08DF814E08DF81C
:1041600015008DF8162083F0800308FB03F306EB9F
:104170002322124809B2D2B205AB11F077FB013D00
:104180000E37FFB2023CA4B208F10208B5F1FF3FBE
:1041900097D109E003F03F0103F00F036CE703F050
:1041A0003F0E03F00F0CBEE7002007B0BDE8F08F14
:1041B000DC550020C4720200D0A3FF1FC89FFF1F60
:1041C0002DE9F04F8BB0002500950220AA21FA229C
:1041D0002B46FDF779FE01466F48FFF7A3FE022646
:1041E0004024A946A8462025DFF8ACB10BF60940CB
:1041F00003905FFA88F70F2F50D8002300933046C2
:1042000039462A46FEF75CFF8246FF2E9ABF3302EC
:104210009BB2334661490A680592059A4FF48C7146
:1042200001FB02F203FB02F2120ED3B213F0400FB5
:1042300000F0A480DB43DBB203F03F0103F00F0387
:10424000013357480911490000EB010E9EF801E0C7
:1042500003FB0EF3415C01EB2313DBB212F0800F82
:104260000EBFDAB25A42D2B282F08002A4F1200329
:10427000DBB203FB02F307EB2327FFB29BF8083CFA
:10428000009307A803994A46FF2312F097FF9DF871
:104290001C109DF81D209DF81E3052E00137FAB227
:1042A000FF2C9ABF23029BB223463C48016806912B
:1042B00006994FF48C7000FB01F103FB01F1090E2C
:1042C000CBB213F0400F5ED0DB43DBB203F03F0014
:1042D00003F00F030133324F0011400007EB000ED3
:1042E0009EF801E003FB0EF3385C00EB2313DBB216
:1042F00011F0800F18BF5B42DBB283F08003C4F182
:10430000210A5FFA8AFA0AFB03FA05EB2A2A5FFA06
:104310008AFA0023009320462946FEF7D1FE07467D
:10432000C9F1B2029BF8083C009308A80399D2B2E5
:10433000FF2312F043FF9DF820109DF821209DF8E7
:1043400022308DF824108DF825208DF82630154860
:104350000FFA8AF13AB209AB11F088FA013D08F17F
:10436000010809F10E095FFA89F9023CA4B202368C
:10437000B6B215F0FF057FF43CAF09E003F03F0152
:1043800003F00F035DE703F03F0003F00F03A2E724
:1043900000200BB0BDE8F08FD0A3FF1FDC5500203C
:1043A000C4720200C89FFF1F2DE9F04F89B08146FB
:1043B000834C2046BE21FFF7B5FDD9F81C004FF015
:1043C00082411DF0CFFC1DF0B9FEC2B294F8083C4A
:1043D000009305A804F60941FF2312F0EFFED9F877
:1043E0000880D9F80C001DF029F804460D46404617
:1043F000D9F81C101DF0AEFB1DF020F86EA3D3E918
:1044000000231DF06FF81DF04FFB1DF017F8064656
:104410000F461AF095FC02460B46204629461DF031
:1044200061F80022674B1CF0ABFE1DF0F5FA02901C
:10443000304639461AF050FD02460B4620462946C2
:104440001DF050F802460B4600205E491CF096FE17
:104450001DF0E2FA0390DFF874B1D9F80C001CF0FB
:10446000EDFF04460D4640461CF0E8FF52A3D3E999
:1044700000231DF037F81DF017FB1CF0DFFF064688
:104480000F461AF05DFC02460B46204629461DF0F9
:1044900029F800224B4B1CF073FE1DF0BDFA82463A
:1044A000304639461AF018FD02460B46204629468A
:1044B0001DF018F802460B46002042491CF05EFE33
:1044C0001DF0AAFA06469DF815209DF816309DF8B5
:1044D00014108DF818108DF819208DF81A300FFA75
:1044E0008AF405B2584621462A4606AB11F0BEF9B9
:1044F0009DF815209DF816309DF814108DF81C10AD
:104500008DF81D208DF81E3058462946224607ABEF
:1045100011F0ACF940464FF07E511DF01BFB804678
:1045200029491DF0D1FD08B14FF00008029B9A45C2
:1045300093D1039B9E4290D1D9F81C402046D9F8D4
:1045400008101DF007FB05461F491DF0BDFD10B901
:10455000C9F8085029E00023C9F80830D9F82050DC
:10456000204629461DF0F6FA0446C9F81C00D9F881
:10457000106031461DF09EFD30B1C9F81C6005F198
:104580000045C9F8205010E0D9F81860204631469F
:104590001DF0A4FD48B1304629461DF0D9FAC9F8EE
:1045A0001C0005F10045C9F82050002009B0BDE805
:1045B000F08F00BFAFF30080399D52A246DF913FDC
:1045C000D0A3FF1F000030400000B443C89FFF1F6E
:1045D0002DE9F04F93B00446837B032B00F2D18189
:1045E000DFE813F004007600E8005E010025AA4F22
:1045F00007F60949DFF8A482EEB2A37A03EB46037B
:10460000DBB213F0800F1CBFDB43DBB25B00DBB21D
:1046100013F0800F00F0D28183F0FF0303F1010B50
:104620005FFA8BFB0BFB03F34FEAD31B0BF0FE0B84
:104630008BF0FF0B22699BFBF2FB1FFA85FA627B72
:10464000324497F8083C009303A84946D2B2FF23AE
:1046500012F0B4FD9DF80D209DF80E309DF80C1061
:104660008DF808108DF809208DF80A3040460FFAB1
:104670008AF15A4602AB11F0F9F8E369022B23D113
:10468000A369CBEB030B1FFA8BFB637BF21897F844
:10469000083C009305A84946D2B2FF2312F08EFDD4
:1046A0009DF815209DF816309DF814108DF8101007
:1046B0008DF811208DF8123040460FFA8AF10FFA6A
:1046C0008BF204AB11F0D2F80135202D94D158E1D2
:1046D0000025714F07F60949DFF8C081EEB2A37AD1
:1046E00003EB4603DBB213F0800F1CBFDB43DBB2EE
:1046F0005B00DBB213F0800F00F06B8183F0FF03EF
:1047000003F1010B5FFA8BFB0BFB03F34FEAD31BA7
:104710000BF0FE0B8BF0FF0B22699BFBF2FB1FFAE9
:1047200085FA627B324497F8083C009307A8494613
:10473000D2B2FF2312F042FD9DF81D209DF81E30DD
:104740009DF81C108DF818108DF819208DF81A306E
:10475000404659460FFA8AF206AB11F087F8E36932
:10476000022B23D16369CBEB030B1FFA8BFB637B1B
:10477000F21897F8083C009309A84946D2B2FF23E3
:1047800012F01CFD9DF825209DF826309DF8241080
:104790008DF820108DF821208DF8223040460FFA38
:1047A0008BF10FFA8AF208AB11F060F80135202D79
:1047B00094D1E6E00025384F07F60949DFF8DC80A0
:1047C000EEB2A37AC3EB4603DBB213F0800F1CBF3B
:1047D000DB43DBB25B00DBB213F0800F00F004813F
:1047E00083F0FF0303F1010B5FFA8BFB0BFB03F379
:1047F0004FEAD31B0BF0FE0B8BF0FF0B22699BFBE8
:10480000F2FB1FFA85FA627B324497F8083C00936A
:104810000BA84946D2B2FF2312F0D0FC9DF82D2000
:104820009DF82E309DF82C108DF828108DF8292039
:104830008DF82A3040460FFA8AF15A460AAB11F039
:1048400015F8E369022B23D1A369CBEB030B1FFA05
:104850008BFB637BF21897F8083C00930DA8494640
:10486000D2B2FF2312F0AAFC9DF835209DF8363015
:104870009DF834108DF830108DF831208DF83230DD
:1048800040460FFA8AF10FFA8BF20CAB10F0EEFFF4
:104890000135202D94D174E0D0A3FF1FC89FFF1FC6
:1048A00000255E4F07F60949DFF87481EEB2A37A5E
:1048B000C3EB4603DBB213F0800F1CBFDB43DBB25C
:1048C0005B00DBB213F0800F00F0998083F0FF03F0
:1048D00003F1010B5FFA8BFB0BFB03F34FEAD31BD6
:1048E0000BF0FE0B8BF0FF0B22699BFBF2FB1FFA18
:1048F00085FA627B324497F8083C00930FA849463A
:10490000D2B2FF2312F05AFC9DF83D209DF83E30B4
:104910009DF83C108DF838108DF839208DF83A301C
:10492000404659460FFA8AF20EAB10F09FFFE3693A
:10493000022B23D16369CBEB030B1FFA8BFB637B49
:10494000F21897F8083C009311A84946D2B2FF2309
:1049500012F034FC9DF845209DF846309DF8441037
:104960008DF840108DF841208DF8423040460FFA06
:104970008BF10FFA8AF210AB10F078FF0135202D81
:1049800094D12648FE21FFF7CDFA237A627A9A4223
:1049900005D800232372A37A0133A37201E0013307
:1049A0002372E37A227B9A4205D80023E372637B69
:1049B000013363732EE00133E3722BE003F1010B4B
:1049C0005FFA8BFB0BFB03FB4FEADB1B0BF0FE0BD1
:1049D00030E603F1010B5FFA8BFB0BFB03FB4FEAA5
:1049E000DB1B0BF0FE0B97E603F1010B5FFA8BFB71
:1049F0000BFB03FB4FEADB1B0BF0FE0BFEE603F1A8
:104A0000010B5FFA8BFB0BFB03FB4FEADB1B0BF08D
:104A1000FE0B69E7002013B0BDE8F08FD0A3FF1FA5
:104A2000C89FFF1F2DE9F04F87B082463C48AA215E
:104A3000FFF778FA20250024DFF8F490DFF8F4B0CF
:104A4000374F07F609482246002CB8BFE21CC2F3D4
:104A50008702062A28BF062259F822309AF80A103F
:104A600009B15BF82230FF2D9ABF2A0292B22A4682
:104A70002C490968039103994FF48C7000FB01F1F4
:104A800002FB01F1090ECAB212F0400F40D0D2432E
:104A9000D2B202F03F0002F00F020132224E0011AA
:104AA000400006EB000E9EF801E002FB0EF2305CC7
:104AB00000EB2216F6B211F0800F18BF7642F6B264
:104AC0001A46002BB8BFDA1C97F8083C009305A8DB
:104AD0004146C2F38702FF2312F070FB9DF81520B8
:104AE0009DF816309DF814108DF810108DF81120D7
:104AF0008DF8123086F080020C4821B2D20804AB47
:104B000010F0B4FE01340135ADB2202C05D09AE787
:104B100002F03F0002F00F02C0E707B0BDE8F08FDF
:104B2000D0A3FF1FDC550020C4720200C89FFF1FE6
:104B3000EC2700201C3100202DE9F04F89B00390B4
:104B4000002500950220AA21FA222B46FDF7BCF988
:104B500001466E48FFF7E6F94FF002081F26402491
:104B6000DFF8C091EFB20F2F44D8002300934046E6
:104B70003946F2B2FEF7A4FA8246B8F1FF0F9ABFA7
:104B80004FEA08239BB24346614802680592059AA2
:104B90004FF48C7101FB02F203FB02F2120ED3B24E
:104BA00013F0400F00F0A580DB43DBB203F03F01C0
:104BB00003F00F0301330911490009EB01004078AC
:104BC00003FB00F319F8011001EB2313DBB212F021
:104BD000800F18BF5B42DBB283F08003A4F1210B8E
:104BE0005FFA8BFB0BFB03FB07EB2B2B5FFA8BFBBB
:104BF0007F0844E0F1B2FF2C9ABF23029BB2234608
:104C0000434802680692069A4FF48C7000FB02F249
:104C100003FB02F2120ED3B213F0400F6ED0DB434F
:104C2000DBB203F03F0003F00F030133001140003B
:104C300009EB000E9EF801E003FB0EF319F80000EB
:104C400000EB2313DBB212F0800F18BF5B42DBB224
:104C500083F08003C4F1210A5FFA8AFA0AFB03FA9F
:104C600001EB2A2A5FFA8AFA0023009320463A468B
:104C7000FEF726FA834606EBD677C7F34707062FDB
:104C800028BF0627234B53F8273003998A7A12B19D
:104C9000214B53F827301A46002BB8BFDA1C1B48AB
:104CA00090F8083C009304A81C49C2F38702FF2334
:104CB00012F084FA9DF811209DF812309DF8101022
:104CC0008DF81C108DF81D208DF81E3014480FFA39
:104CD0008AF10FFA8BF207AB10F0C8FD0135023CE8
:104CE000A4B2013E08F102081FFA88F8202D0AD06C
:104CF00038E703F03F0103F00F035CE703F03F00E8
:104D000003F00F0392E709B0BDE8F08FD0A3FF1FB7
:104D1000DC550020EC2700201C310020D9AFFF1FFC
:104D2000C89FFF1FC47202002DE9F04F87B0824672
:104D30005D4B1B680393039B4FF40C3202FB03F2A1
:104D4000120ED3B213F0400F00F0A080DB43DBB2B1
:104D500003F03F0103F00F030133544809114900E8
:104D60004418647803FB04F3415C01EB2313DBB2CA
:104D700012F0800F18BF5B42DBB283F0800303EBBD
:104D8000830399111A394A48C9B2FFF7CBF8202595
:104D90000024DFF81C9109F6094B04EBD473C3F32C
:104DA0004703062B28BF0623424A52F823609AF88D
:104DB0000A2012B1404A52F82360E2B2C2F1100751
:104DC000FFB210320023009328463946D2B2FEF7D4
:104DD00077F98046FF2D9ABF2B029BB22B46324AB1
:104DE00012680492049A4FF48C7101FB02F203FBE7
:104DF00002F2120ED3B213F0400F4CD0DB43DBB201
:104E000003F03F0103F00F03013328480911490063
:104E100000EB010E9EF801E003FB0EF3415C01EB99
:104E20002313DBB212F0800F18BF5B42DBB283F0BA
:104E30008003620002FB03F307EB2327FFB2324635
:104E4000002EB8BFF21C99F8083C009302A85946FE
:104E5000C2F38702FF2312F0B1F99DF809209DF8F3
:104E60000A309DF808108DF814108DF815208DF873
:104E7000163012480FFA88F13A4605AB10F0F6FCEE
:104E80000134023DADB2102C0AD086E703F03F0199
:104E900003F00F0361E703F03F0103F00F03B4E7F2
:104EA00007B0BDE8F08F00BFDC550020C4720200DF
:104EB000D0A3FF1FEC2700201C310020C89FFF1F3C
:104EC0002DE9F04F8FB00390BC48F021FFF72AF88E
:104ED000BB4906914FF0000B8A46039A108A1CF0DA
:104EE000EDFE05460AEB0B095BF80A101CF03AFFD1
:104EF0001DF0FEF8039B1C89204484B22846D9F893
:104F000004101CF02FFF1DF0F3F8039A518901449F
:104F1000204689B2928912F0BFFF064610F0400F7A
:104F200000F0A881C043C0B200F03F0300F00F00C2
:104F30000130A44A1B115B00D118497800FB01F035
:104F4000D35C03EB2010C0B216F0800F18BF4042B4
:104F5000C0B280F080001CF0ADFE1CF06FFA0022A1
:104F60004FF07E531CF0BEFA0022974B1CF006F95E
:104F70001CF09AFD8046069CA06006F14003DBB25F
:104F800013F0400F00F07B81D843C0B200F03F0225
:104F900000F00F0001308B49121152008D186D780E
:104FA00000FB05F08A5C02EB2010C0B213F0800F0A
:104FB00018BF4042C0B280F080001CF07BFE1CF0A5
:104FC0003DFA00224FF07E531CF08CFA00227E4BFB
:104FD0001CF0D4F81CF068FD054600F10043E360C6
:104FE0000AEB0B07404639691CF0B4FD8046B860F7
:104FF000786929461CF0ACFD05460AF108075F44B4
:105000007860E469404641461CF0ACFE8046284684
:1050100029461CF0A7FE014640461CF09BFD0546B4
:10502000204621461CF09EFE014628461DF056F8FB
:1050300000286ED028461CF001FA1AF013F91CF073
:1050400033FD00211DF022F8002841D10AEB0B03AB
:105050000793D3F80880DD68404641461CF082FE85
:105060000490404641461CF07DFE80462846294675
:105070001CF078FE014640461CF06CFD1CF0DEF989
:105080001AF0F0F81CF010FD1CF0D8F902460B469F
:1050900000204D491CF050FBCDE9040107998868B8
:1050A0001CF0CCF902460B46DDE904011CF01AFAAB
:1050B0001CF0FAFC079A906078681CF0BFF9024671
:1050C0000B46DDE904011CF00DFA1CF0EDFC7860E4
:1050D00020461CF0B3F904460D460AEB0B08D8F83D
:1050E00008001CF0ABF902460B46204629461CF08E
:1050F000F9F91CF0D9FCC8F8080078681CF09EF992
:1051000002460B46204629461CF0ECF91CF0CCFC6C
:1051100078600AEB0B045BF80A00A1681CF01AFD2A
:1051200007464BF80A00D9F80400E1681CF012FDAC
:105130000546C9F8040020691CF080F9002200230C
:105140001CF0D0F91CF0B0FC20610AF110045C44A2
:1051500060681CF073F9002200231CF0C3F91CF0F6
:10516000A3FC60601549039A937CF21891F8083CFF
:1051700000930DA801F60941D2B2FF2312F01EF8E8
:105180009DF835209DF836309DF834108DF830109C
:105190008DF831208DF8323038461CF0A9FF04B26A
:1051A00028461CF0A5FF02B2084821460CAB10F0BF
:1051B0005DFB5BF80A402046002109E0D0A3FF1FF9
:1051C00060280020C47202000000F03FC89FFF1F4B
:1051D0001CF066FF90B920464FF084411CF074FF2C
:1051E00060B9D9F80440204600211CF059FF28B9C5
:1051F00020464FF084411CF067FF48B1202018F092
:10520000F9FA1CF057FD4AF80B000023C9F80430E6
:105210000BF1340B069934310691BBF5026F7FF424
:105220005CAE214B1B6813F0010F0ED11E4816F027
:10523000ABFF50B11D4B1B680993099A1C4B1A60B8
:10524000C8225A60184816F0A5FF184B1B680B932C
:105250000B99174B1A688A1A5B689A4214D3134B3E
:105260001B680A930A9A124B1A60039A937C0133C3
:10527000937409E000F03F0300F00F0059E603F0DB
:105280003F0203F00F0086E60399CB890A891A448E
:105290000A814A891A444A818A8913448B813220BF
:1052A0000FB0BDE8F08F00BFB49FFF1FDC5500209A
:1052B000809FFF1F2DE9F04F93B00A909348AA21D9
:1052C000FEF730FEDFF858A20027D14657F8092034
:1052D000049209EB070302935A6806929D688C4B6F
:1052E0003B445C6809EB07035E69D046DAF8183086
:1052F0000B93DAF81C200592DAF820300C93DAF8D8
:1053000024200D929AF828300793DAF82C200E9278
:105310009AF830300F93029A10690A9B99681CF032
:1053200019FC834630460A9AD1681CF013FC03909E
:10533000284659461CF00EFC0546204603991CF0F1
:1053400009FC0446284629461CF00CFD064620466A
:1053500021461CF007FD014630461CF0FBFB0646CB
:10536000059801461CF0FEFC014630461CF0B6FED6
:10537000002851D030461CF061F8CDE9080119F041
:1053800071FF1CF091FB00211CF080FE38BBDDE9B1
:10539000080119F067FF1CF087FB1CF04FF802466C
:1053A0000B4600205B491CF0C7F9CDE908012846EF
:1053B0001CF044F802460B46DDE908011CF092F8A7
:1053C0001CF072FB054620461CF038F802460B46DE
:1053D000DDE908011CF086F81CF066FB0446059820
:1053E0001CF02CF8CDE9080128461CF027F80246ED
:1053F0000B46DDE908011CF075F81CF055FB05466D
:1054000020461CF01BF802460B46DDE908011CF0A3
:1054100069F81CF049FB0446049829461CF09AFBE5
:105420000490069821461CF095FB064658461CF051
:1054300005F8002200231CF055F81CF035FB0690FF
:1054400003981BF0FBFF002200231CF04BF81CF01C
:105450002BFB03902D4991F8083C009311A801F60D
:105460000941079AFF2311F0A9FE9DF845209DF8F8
:1054700046309DF844108DF840108DF841208DF88D
:10548000423004981CF034FE0FFA80FB30461CF0CA
:105490002FFE02B22048594610AB10F0E7F9304613
:1054A0001E491CF011FE10B104F100441B4E049B78
:1054B00047F80930029A566009EB07039D60144AC9
:1054C0003A445460069A1A61039A5A610B9BC8F8D1
:1054D0001830059AC8F81C200C9BC8F820300D9A8B
:1054E000C8F82420079B88F828300E9AC8F82C208A
:1054F0000F9B88F8303034370AF1340AB7F5D06F93
:105500007FF4E4AE0F2013B0BDE8F08FD0A3FF1FEF
:10551000682800200000F03FC89FFF1F0000F841EE
:10552000602800202DE9F04FA1B0069090F8943249
:10553000002B3FD1012380F894320020022118F083
:1055400065F9A54C0026DFF8A4B227460025DFF850
:10555000B0824FF0814A4FF082490020FF2118F0BD
:1055600055F90020FF2118F051F930461CF0A6FB38
:105570002060C4F804B0E31B07F108029D501A44F0
:10558000556007F110029D5013445D60C4F8188007
:10559000C4F81C80C4F820A0C4F82490002384F828
:1055A00028301C9BE362012384F830301E443434DD
:1055B000202ED2D18948AA21FEF7B4FCDFF818B218
:1055C0004FF0000AD146844B03EB090105914A686C
:1055D0000792CE680F694D695C46DBF818300A9374
:1055E000DBF81C100491DBF820200B92DBF8243050
:1055F0000C939BF828100D91DBF82C200E929BF851
:1056000030300F9350461CF059FB80463846069ABE
:10561000D2F884121CF09EFA02902846069BD3F81A
:1056200088121CF097FA03906D4B83FB0A134FEA24
:10563000EA72C2EB6303DBB26A4A52F8235006995E
:105640008A7A12B1684A52F82350079867491CF0C9
:105650001DFD08B328461BF0DFFE0022644B1BF043
:1056600041FF1CF0D9F9294618F0D0F81CF026FBB0
:1056700000F100405F491CF029FC0546069AC2F87B
:1056800090020298D2F88C121CF064FA02900398EF
:1056900029461CF05FFA0390029800211CF05AFA88
:1056A0000546304603991CF055FA06462846294619
:1056B0001CF058FB0746304631461CF053FB0146B0
:1056C00038461CF047FA0746049801461CF04AFB8E
:1056D000014638461CF002FD002851D038461BF028
:1056E000ADFECDE9080119F0BDFD1CF0DDF900218A
:1056F0001CF0CCFC38BBDDE9080119F0B3FD1CF04F
:10570000D3F91BF09BFE02460B4600203A491CF0E1
:1057100013F8CDE9080128461BF090FE02460B461F
:10572000DDE908011BF0DEFE1CF0BEF9054630463F
:105730001BF084FE02460B46DDE908011BF0D2FE99
:105740001CF0B2F9064604981BF078FECDE908017A
:1057500028461BF073FE02460B46DDE908011BF0EC
:10576000C1FE1CF0A1F9054630461BF067FE02465B
:105770000B46DDE908011BF0B5FE1CF095F9064665
:10578000404629461CF0E6F98046079831461CF051
:10579000E1F9074602981BF051FE002200231BF09E
:1057A000A1FE1CF081F9029003981BF047FE002235
:1057B00000231BF097FE1CF077F9039040464FF052
:1057C00084411CF081FCE8B128460C491CF0CAFA5F
:1057D0000546DFF8188021E060280020D0A3FF1FD5
:1057E00067666666EC2700201C3100200000F84147
:1057F0000000E83F000070440000F03FCDCC4CBEFC
:1058000000002041404600211CF04AFC30B12846EF
:105810003A491CF0A7FA05464FF0000838464FF009
:1058200084411CF051FC30B1304634491CF09AFAE6
:105830000646334F0AE0384600211CF031FC28B1FF
:1058400030462E491CF08EFA064600272D4B49F8AB
:10585000038005994F6003EB09029560D6600299B9
:1058600011611346039A5A610A9BA3610499E1618D
:105870000B9A22620C9B63620D9984F828100E9A91
:10588000E2620F9B84F830301D4839461CF060F905
:105890001D491CF067FA1CF051FCC2B21B4B93F877
:1058A000083C00931FA81A49FF2311F087FC9DF8BC
:1058B0007D209DF87E309DF87C108DF878108DF855
:1058C00079208DF87A3040461CF012FC04B238463C
:1058D0001CF00EFC02B20F4821461EAB0FF0C6FFB3
:1058E0000AF1010A09F134090BF1340BBAF1200F66
:1058F0007FF469AE21B0BDE8F08F00BFCDCC4CBEC7
:105900000000F841602800200000E040D0A3FF1F05
:10591000D9AFFF1FC89FFF1F2DE9F04F97B002902E
:10592000002300930220AA21FA22FCF7CDFA0146B7
:105930003648FEF7F7FA029A9368002B40F3C781C6
:10594000DFF8CCA04FF00008CDF82880304B58F895
:105950000320049203EB0802039252680692039A12
:1059600092680D9203EB0802D2680E92039A1269B4
:10597000089243445B690F93D346DAF818301093CA
:10598000DAF81C200992DAF820301193DAF8242092
:1059900012929AF828300B93DAF82C200C929AF88D
:1059A00030301393029A506904991CF0D1F80746DD
:1059B000029B986906991CF0CBF806463846394692
:1059C0001CF0D0F90446304631461CF0CBF90146B4
:1059D00020461CF0BFF81BF031FD04460D4619F0BF
:1059E00041FC1CF061F881460A491CF059FB48B99A
:1059F00048464FF084411CF071FB78B948461BF0D3
:105A00001DFD0DE0002004490AE000BFD0A3FF1FE8
:105A1000602800200000A040000014400020AE4993
:105A20001CF042F881462046294619F01BFC1CF068
:105A30003BF800211CF02AFB38BB2046294619F010
:105A400011FC1CF031F81BF0F9FC02460B4600205B
:105A5000A2491BF071FE04460D4638461BF0EEFCD1
:105A600002460B46204629461BF03CFD1CF01CF864
:105A7000074630461BF0E2FC02460B46204629460C
:105A80001BF030FD1CF010F80646029A1069D16830
:105A90001CF068F901460C981CF064F9044648466D
:105AA00049461CF05FF9014620461CF00FFA1BF036
:105AB000C5FC04460D4638461BF0C0FC02460B46AA
:105AC000204629461BF00EFD1BF0EEFF014608980C
:105AD0001CF040F8074630461BF0B0FC02460B466F
