:020000040000FA
:2000000000800020BD010000DDF00100A1F00100A1F00100A1F00100A1F00100A1F00100DA
:20002000A1F00100A1F00100A1F00100DDF00100DDF00100A1F00100DDF0010091F001008C
:20004000DDF00100DDF00100DDF00100DDF00100DDF00100DDF00100DDF00100DDF0010030
:20006000DDF00100DDF00100DDF00100DDF00100DDF00100DDF00100DDF00100DDF0010010
:20008000DDF00100DDF00100DDF00100DDF00100DDF00100DDF00100DDF00100DDF00100F0
:2000A00095D90100DDF00100DDF00100DDF00100DDF00100DDF00100DDF00100DDF001002F
:2000C000DDF00100DDF00100DDF00100DDF00100DDF00100DDF00100DDF00100DDF00100B0
:2000E000DDF00100DDF00100DDF00100DDF00100DDF001002D0F0200DDF0010025140200B3
:20010000DDF0010041180200DDF00100DDF00100DDF00100DDF00100DDF00100DDF00100E2
:20012000DDF00100DDF00100DDF00100DDF00100DDF00100DDF00100DDF00100DDF001004F
:20014000DDF00100E5AE0100DDF00100DDF00100DDF00100DDF00100DDF00100DDF0010069
:20016000DDF0010005F90100DDF00100DDF00100DDF00100DDF00100DDF00100DDF00100DE
:20018000DDF00100DDF00100DDF00100DDF00100DDF00100DDF00100DDF00100DDF00100EF
:2001A000DDF00100DDF00100DDF00100DDF00100DDF00100DDF00100DDF0010010B56B4B22
:2001C0004CF220521A804DF628121A8000BF00BF1EF088FF4FF01062654B1A60654A0833E6
:2001E0001A60654A04331A60A3F530432C3B1B6813F4807F06D10022604B1A604FF4A852CF
:20020000043B1A605E4B1B7813F0080F04D05C4B1A7842F008021A702A225A4B1A705A4BDC
:200220005A4A9A420DD2131D594CE41A24F0030404340023104657495A581A500433A342E8
:20024000FAD1554B554A9A4280F08B80131F5449C91A21F003011A1D1144002243F8042F5A
:200260008B42FBD17DE05A581A500433B3F5DE7FF9D14C4B80214C4A03F8011B9342FBD1E0
:200280004A4B4B4A1A600A224A4B1A702422A3F6FF731A70A022013B1A7006331A7812F03F
:2002A000020FFBD0444B1A7812F0100FFBD1424B1A7802F00C02082AFAD103223F4B1A70FF
:2002C000402201331A7001331A7812F0200FFBD0394B1A7812F0400FFBD0394A394B1A6089
:2002E000022204331A602022374B1A7006331A7802F00C020C2AFAD1344A354B1A60354A18
:20030000354B1A60002204331A600722083B1A60324A03F551631A6062B61FF0B5F9174B51
:200320001B6813F0010F05D02D481FF013F92D4A2D4B1A602D4B1B7813F0400F0AD02A4BAD
:200340001A68284B9A4205D125481FF003F90022254B1A6024F0E0FE15F010FF20F006F95D
:20036000FEE70023124822497DE700BF0E20054030800440823F04000100002B14D003400E
:2003800002D0074000E00740889FFF1F6095FF1F8B9FFF1F70F20200E4590020889FFF1F77
:2003A000DF59002000E400E05FE400E008ED00E00090FF1F005006400640064004400640CF
:2003C000000003014480044000400640C010050004800440FF76010014E000E00000202064
:2003E000635C5F55A5C3945A1CE0034000F0074000000000FFFFFFFFFFFFFFFFFFFFFFFFCA
:20040000FFFFFFFFFFFFFFFFFFFFFFFFFEFFFFFF10B5054C237833B9044B13B10448AFF34F
:2004200000800123237010BD889FFF1F0000000068F2020008B5064B1BB106480649AFF3FE
:2004400000800648036813B1054B03B1984708BD0000000068F202008C9FFF1F889FFF1F0D
:20046000000000000020704700207047704700BF704700BF012070470120704740697047D2
:20048000704700BF704700BF30B4C8222C4B1A702C490B8803EB432203EB820243F2196323
:2004A0001A4492B2284C226002EB422402EB84021A4492B2254C226002EB422402EB840283
:2004C0001A4492B2224C226041F27074214D2C60214D2C6002EB422402EB84021A4492B217
:2004E00002EB2224E4B2048102EB422402EB84021A4492B202EB2224E4B2448102EB422465
:2005000002EB84021A4492B202EB2224E4B2848102EB422402EB84021A4492B202EB22245D
:20052000E4B2C48102EB422402EB840213449BB20B8003EB2323DBB2038230BC704700BF43
:2005400014A0FF1F4C96FF1FB8A6FF1F38A4FF1FC0A6FF1F30A4FF1F34A4FF1F0369C36157
:200560004369036200238360704700BF0E48038803EB432203EB820243F219610A4492B207
:200580000A4B1A6002EB422302EB83030B449BB2074A136003EB432203EB8203194489B209
:2005A0000180044B196070474C96FF1FB8A6FF1F38A4FF1FC0A6FF1F10B4C16E002907DD41
:2005C00002460023012442F8144F01338B42FADB164B1A68C2602A2383601F210176002309
:2005E0004376036102623724C46180F82C1080F82D304362426303240463FF2480F840407E
:2006000080F84130836382644724446480F8541080F85530C364C2655922826580F8681099
:2006200080F8693003665DF8044B7047E055002042F27C73C058704708B500F51E50006816
:2006400010B103681B69984708BD00BF08B500F51E50006810B10368DB68984708BD00BF2D
:20066000D0F8A802704700BF00697047704700BF704700BF10B582B000248DF804408DF81D
:2006800005408DF80640034801A918F059FB204602B010BDB8AAFF1F30B583B0054600240D
:2006A0008DF804408DF805408DF80640044801A918F046FBC5F8184985F8244903B030BDF5
:2006C000B8AAFF1F30B583B0054600248DF804408DF805408DF80640044801A918F030FB8C
:2006E00041F20A03EC5403B030BD00BFB8AAFF1F00B583B000238DF804308DF805308DF898
:200700000630034801A918F01BFB03B05DF804FBB8AAFF1F00B583B000238DF804308DF8C0
:2007200005308DF80630034801A918F009FB03B05DF804FBB8AAFF1F00B583B000238DF8B1
:2007400004308DF805308DF80630034801A918F0F7FA03B05DF804FBB8AAFF1F10B504466C
:20076000803020F013F8204610BD00BF10B504460020042120F000F8A073012003211FF0F9
:20078000FBFFE06110BD00BF2DE9F04383B00546624B5E7C0B2E28BF0B26614C204620219F
:2007A00017F0FEFC204605F1680117F0F1FC2046002117F0B7FB204617F07AFB594B1B7826
:2007C000002B00F09F80584B9F785C780C2F84BF0C3FFFB29CB9DFF84881023755F8273005
:2007E0000124009440462146324617F0E5FB009440462146F21D4D4B17F0DEFB89E0092C4E
:200800001DD8DFF81C81023455F824300124009440462146324617F0CFFB00944046214628
:20082000F21D434B17F0C8FB023755F8273000944046214606F10E0217F0BEFB69E0112CA6
:200840001BD1DFF8DC80023755F827300124009440462146324617F0AFFB6B6A00944046DE
:200860002146F21D17F0A8FB00944046214606F10E02304B17F0A0FB4BE0132C15D8DFF885
:20088000A080023755F827300127009740463946324617F091FB023455F824300097404698
:2008A0003946F21D17F088FB33E0DFF87490023755F827300127009748463946324617F00A
:2008C0007BFB1D4BA3FB04284FEAD80808F1140355F82330009748463946F21D17F06CFB86
:2008E00008EB8808A4EB480414F0FF0411D0023455F8243039460097484606F10E0217F029
:200900005BFB06E001210091054832460B4B17F053FB002003B0BDE8F08300BF8428002002
:20092000B8AAFF1FAC28002040FAFF1F44A302004CA30200C8AC0200CDCCCCCC54A3020071
:2009400030B585B000248DF808408DF809408DF80A400D4D284602A918F0F2F928462146B4
:2009600018F012FA094B1A889B78ADF80C208DF80E30074B0093284621461B2203AB18F019
:200980000BFA204605B030BDB8AAFF1F10A10200F495FF1F30B585B000248DF808408DF8E0
:2009A00009408DF80A400D4D284602A918F0C8F92846214618F0E8F9094B1A889B78ADF877
:2009C0000C208DF80E30074B0093284621461B2203AB18F0E1F9204605B030BDB8AAFF1F19
:2009E00010A10200F495FF1F30B585B000248DF808408DF809408DF80A400D4D284602A982
:200A000018F09EF92846214618F0BEF9094B1A889B78ADF80C208DF80E30074B00932846B3
:200A200021461B2203AB18F0B7F9204605B030BDB8AAFF1F10A10200F495FF1F30B585B0B0
:200A400000248DF808408DF809408DF80A400D4D284602A918F074F92846214618F094F9B6
:200A6000094B1A889B78ADF80C208DF80E30074B0093284621461B2203AB18F08DF9204640
:200A800005B030BDB8AAFF1F10A10200F495FF1F30B585B000248DF808408DF809408DF87C
:200AA0000A400D4D284602A918F04AF92846214618F06AF9094B1A889B78ADF80C208DF88F
:200AC0000E30074B0093284621461B2203AB18F063F9204605B030BDB8AAFF1F10A1020094
:200AE000F495FF1F30B585B000248DF808408DF809408DF80A400D4D284602A918F020F913
:200B00002846214618F040F9094B1A889B78ADF80C208DF80E30074B0093284621461B222B
:200B200003AB18F039F9204605B030BDB8AAFF1F10A10200F495FF1F30B585B000248DF828
:200B400008408DF809408DF80A400D4D284602A918F0F6F82846214618F016F9094B1A8865
:200B60009B78ADF80C208DF80E30074B0093284621461B2203AB18F00FF9204605B030BD11
:200B8000B8AAFF1F10A10200F495FF1F30B585B000248DF808408DF809408DF80A400D4D79
:200BA000284602A918F0CCF82846214618F0ECF8094B1A889B78ADF80C208DF80E30074BA0
:200BC0000093284621461B2203AB18F0E5F8204605B030BDB8AAFF1F10A10200F495FF1FFB
:200BE00030B585B000248DF808408DF809408DF80A400D4D284602A918F0A2F82846214663
:200C000018F0C2F8094B1A889B78ADF80C208DF80E30074B0093284621461B2203AB18F0C8
:200C2000BBF8204605B030BDB8AAFF1F10A10200F495FF1F30B585B000248DF808408DF88F
:200C400009408DF80A400D4D284602A918F078F82846214618F098F8094B1A889B78ADF876
:200C60000C208DF80E30074B0093284621461B2203AB18F091F8204605B030BDB8AAFF1FC7
:200C800010A10200F495FF1F30B585B000248DF808408DF809408DF80A400D4D284602A9DF
:200CA00018F04EF82846214618F06EF8094B1A889B78ADF80C208DF80E30074B00932846B3
:200CC00021461B2203AB18F067F8204605B030BDB8AAFF1F10A10200F495FF1F30B585B05F
:200CE00000248DF808408DF809408DF80A400D4D284602A918F024F82846214618F044F8B6
:200D0000094B1A889B78ADF80C208DF80E30074B0093284621461B2203AB18F03DF82046EE
:200D200005B030BDB8AAFF1F10A10200F495FF1F2DE9F04F89B005460020FF211FF01CFDF6
:200D40003349C2B291F8083C009305A801F60941FF2319F007FA0026029603963FE0029819
:200D600002211FF009FD012806D19DF814909DF815809DF8167003E0029FDDF80C80C146D1
:200D80001FFA86FB297A59441FFA84FA6A7A52448DF818908DF819808DF81A701D4809B2EE
:200DA00012B206AB17F0D6FB012E12DC2B7A0433CBEB03016B7A0AEB03028DF81C908DF89E
:200DC0001D808DF81E70134809B212B207AB17F0C1FB0134052CC2D10136032E01D00024BE
:200DE000BDE72B7A0633DBB2192B01D82B7204E001232B726B7A06336B726B7A192B02D986
:200E000001232B726B727D2009B0BDE8F08F00BF00EDFF1FB8AAFF1F2DE9F04F89B0054697
:200E20000020FF211FF0A8FC4049C2B291F8083C009305A801F60941FF2319F093F94FF07E
:200E40000009CB46CA46CDF8089051E0504602211FF092FC012806D19DF814809DF8157041
:200E60009DF8166002E05646029FB846297A494489B26A7A224492B28DF818808DF8197026
:200E80008DF81A604B1C501C00B2009006A80190274809B212B21BB217F02CFFBBF1010F56
:200EA00019DC2B7A6A7A224492B28DF81C808DF81D708DF81E60039919440933C9EB0303E5
:200EC000501C00B2009007A80190194809B212B21BB217F00FFF0234A4B20A2CB6D10BF11D
:200EE000010B09F102091FFA89F9BBF1030F05D0C9F108039BB203930024A7E72B7A0B3376
:200F0000DBB2162B01D82B7204E000232B726B7A0B336B726B7A162B02D900232B726B724B
:200F20004FF4FA7009B0BDE8F08F00BF00EDFF1FB8AAFF1F2DE9F04F8DB000248DF824403E
:200F40008DF825408DF826403D4809A917F0F8FE2046FF211FF010FC3A49C2B291F8083C23
:200F6000009308A801F60941FF2319F0FBF801250395A246A34602944BE0584602211FF0AF
:200F8000FBFB012806D19DF820909DF821809DF8227003E05F46DDF80880C146A5B2261D33
:200FA000B6B28DF828908DF829808DF82A7033B200930AAB01932248DDF810E00FFA8EF1C7
:200FC0002AB2DDF814E00FFA8EF317F093FEBAF1010F11DC8DF82C908DF82D808DF82E700C
:200FE00036B200960BAB01931548079A11B22AB2069D2BB217F07EFE0634A4B21F2CBCD121
:201000000AF1010A039DAB1D9BB20393BAF1030F10D0039DADB20495039D2B1D9BB205937D
:20102000C5F11A039BB20793C5F11E039BB206930124A2E74FF4FA600DB0BDE8F08F00BF4E
:20104000B8AAFF1F00EDFF1F10B500F11C0420461AF0E8FD10B120461AF0D8FD10BD00BF48
:2010600010B500F5157420461AF0DCFD10B120461AF0CCFD10BD00BF10B50446034B03609E
:2010800000F515701AF07AFD204610BDF8A0020010B50446034A40F81C2B1AF06FFD2046D1
:2010A00010BD00BFD09E020010B5044600F516601AF064FD204610BD2DE9F04F83B08346CB
:2010C0004FF000094FF00F0A204E4FEAC9085FFA88F855460024FF27102C06DC8DF8008017
:2010E0008DF801508DF8027007E08DF800808DF80170C5F10D038DF80230684601A919F063
:20110000FDF89DF8042096F828309A4210D19DF8052096F829309A420AD19DF8062096F8DD
:201120002A309A4204D1CBF80890CBF80C4009E001340F35EDB2202CCED109F10109B9F1A0
:201140001F0FC2D103B0BDE8F08F00BF7CF9FF1F2DE9F04F83B083464FF000094FF00F0AB4
:201160001E4E4FEAC9085FFA88F855460024FF27102C06DC8DF800808DF801508DF802704B
:2011800007E08DF800808DF80170C5F10D038DF80230684601A919F0B1F89DF80420337882
:2011A0009A420ED19DF8052073789A4209D19DF80620B3789A4204D1CBF80890CBF80C4018
:2011C00009E001340F35EDB2202CD1D109F10109B9F11F0FC5D103B0BDE8F08F78FBFF1F46
:2011E00008B51EF0B1F908BD2DE9F04786B00546D0F81839002B31DC00238DF80C308DF82D
:201200000D308DF80E30AD4803A917F099FD05F10F0305F20F10002106E003F8011F93427B
:20122000FBD1824203D0134603F11002F5E710201FF096FA044610201FF092FAC5F8184116
:20124000C5F81C010123C5F81839002085F824094FF480711FF090FA85F82509D5F8180952
:20126000D5F81C39012B01D0441E02E01FF078FA0446002CC0F2CA8004F1230205F5887309
:2012800005EBC20292E8030083E803008046D5F814912F4600264FF0040A304651461FF073
:2012A0006BFA97F82639284490F8262987F8262980F8263901360137042EEED195F82529B8
:2012C000D5F81C39012B0CD07D49224491F8083C009302A801F60941D2B2FF2318F042FF7E
:2012E000ACE095F82429531C85F82439744991F8083C009302A801F60941FF2318F032FFDC
:201300009CE093F82609022809D004280DD0012811D1D5F81061D5F81471013F10E0D5F8F3
:201320001061D5F8147101370AE0D5F81061013ED5F8147104E0D5F810610136D5F814714E
:201340000F2E52D80F2F50D805EB07113144097C00294AD14FEA48014FEA4902D5F8144152
:20136000D5F8103105EB041423441C7C04431C7405EB071333441B7C022869D0042860D0AA
:20138000012800F0918005EB0714344443F004032374022807D0042807D0012818BF013199
:2013A00005D1013A03E0013201E00139FFE79DF809009DF80A309DF808408DF814408DF85D
:2013C00015008DF816303D4809B212B205AB17F0C1F8D5F818395A1CC5F81829233305EBE1
:2013E000C30245F83360576010E00133934288D135E0013493E8030003E90300D5F818298A
:20140000013A08339442F4DBC5F81829D5F81839002B0EDCD5F81C390133C5F81C39D5F84B
:201420002029934207DB0023C5F81C394FF47A7041E000203FE04FF47A703CE02A1D2B46E9
:201440005FE705EB0710304443F008030374ACE705EB0710304443F001030374A3E704F1DB
:20146000230305EBC30255F833104900526852009DF809009DF80A309DF808608DF810604D
:201480008DF811008DF812300C4809B212B204AB17F060F8D5F81829013A9442B4DA04F16C
:2014A000240305EBC303A4E705EB0710304443F00203037475E706B0BDE8F087B8AAFF1FEC
:2014C00000EDFF1F10B5044643691944022902DD0023436104E00029AEBF41610223436133
:2014E000606A10B103681B6998476369063354F82300606210B10368DB68984710BD00BF83
:201500002DE9F04F8FB0244C00250027A046DFF88C904FF0814B0020FF211FF02DF9002002
:20152000FF211FF029F9284623F07CFB20606760C8EB040608F10803F75006EB030A2846A7
:2015400022F01EFF12A3D3E9002322F07FFF23F05FFACAF8040008F11003F7501E4477607A
:20156000C4F81890C4F81C90C4F820B04FF082436362EB0084F828300C9BE362012384F8FF
:2015800030301D443434202DC5D10FB0BDE8F08F7B14AE47E17A84BF182C00200000204175
:2015A00070B504461A4B1A68C368D21A03699A4227D90022174B1A7017481CF0DBFD18B15C
:2015C0000122144B1A7012E094F82B302BB913481CF048FD012384F82B300F4D2E781CF08D
:2015E000F9FC29461CF09AFB2B78B34206D001220B4B1A70064B1B68E36002E00022084B07
:201600001A70606A10B103689B689847002070BDE0550020BCA6FF1F40FAFF1FE1110000FC
:20162000AC28002010B50446002003211FF0A4F8022802DD0023636104E00028AEBF60618E
:2016400002236361606A10B103681B6998476369063354F82300606210B10368DB689847C4
:2016600010BD00BF2DE9F04F91B036490B8803EB432203EB820343F2196213449BB2038198
:2016800003EB432403EB840313449BB2438103EB432403EB84031A4492B20A8082812A4CA9
:2016A0000026DFF8AC904FF07C5A20201FF058F805460020FF211FF05FF883460020FF2143
:2016C0001FF05AF80190284623F0A8FA206066601D4BE51A984603F10807584623F0A2FA1A
:2016E000494623F0A7FB514623F0E6F9E8512F44019823F097FA494623F09CFB514623F051
:20170000DBF9786008F11003EE501D446E600F4BA3614FF07F53E3614FF0814323624FF02A
:2017200082436362002384F828300E9BE362012384F83030343408F502639C42B5D111B04B
:20174000BDE8F08F4C96FF1F182C0020CDCC4C3D00007F432DE9F04F83B083460020022189
:201760001FF00AF80028034608BF4FF0FF330193DBF80830002B4FDD294C002500270020D8
:20178000FF211EF0F9FF0020FF211EF0F5FF282032211EF0F1FF8246224B2360C5F11F00BB
:2017A00023F040FA60601E4BE61A984603F10809504623F037FA1C4923F03CFB82460198E6
:2017C00023F030FA0146504623F080FA46F80900B144C9F8047008F1100846F80870B04436
:2017E000C8F80470114BA3614FF07F53E3614FF0814323624FF0824363626B0184F828306F
:201800004FF07E53E362012384F830301D443434DBF80830AB42B2DC03B0BDE8F08F00BF8E
:20182000182C0020000070410000C842CDCC4C3DF0B583B00446467C274B1B78D3B1274B88
:201840009D78437D2BB90C2D02D90C3DEDB200E0E5B12348052116F065FB04F108002149FF
:201860002A461E4B5B7824F00DFA0A2D34BF0427012718E01A48002116F054FB1A4B03CB21
:20188000A060E1601B78237401270CE01448052116F048FB04F1080012490C220F4B5B784B
:2018A00024F0F0F901270E4D2846202116F078FC284604F1120116F06BFC284616F0F8FA36
:2018C0000123009328463946324604F1080316F073FB002003B0F0BDAC28002040FAFF1FAC
:2018E000B8AAFF1F60A3020054A302002DE9F04383B00546524B1B7873B311301CF0D2FA34
:20190000044650481CF0CEFA84421CDD241A4E48A0FB0430C00AC2B24FF4616303FB124317
:201920004A49A1FB03635B09A4EB0010C3EB0311A0EB8100C0B2009005F108004449DBB227
:2019400024F0A0F90EE00023009305F1080040491A4624F097F905E03E4B03CBA860E9601E
:201960001B782B743C4816F0A3FA354B1B78E3B1344B9C78394B5B7D2BB90C2C02D90C3C39
:20198000E4B200E0ECB13448052116F0CBFA3448344922462B4B5B7824F074F90A2C34BF73
:2019A0004FF004094FF0010918E02B48002116F0B9FA284A2A4B07CA03C31A704FF00109FC
:2019C0000CE02548052116F0ADFA254825490C221C4B5B7824F056F94FF001091E4C20461C
:2019E000202116F0DDFBDFF8748008F112072046394616F0CDFB204616F05AFA01260096BB
:201A000020464946002208F1080316F0D5FA2046002116F087FA2046202116F0C1FB2046F9
:201A2000394616F0B5FB0096204631461A2205F1080316F0C1FA002003B0BDE8F08300BF56
:201A4000AC28002040FAFF1FC5B3A2918988888868A3020054A30200B8AAFF1F842800201C
:201A60008C28002060A302002DE9F04F9FB003904D4CDFF85091DFF840814FF07C5B4FF018
:201A8000000A0020FF211EF077FE01900020FF211EF072FE0290C4F80090C4F80490424971
:201AA000651A0F4601F10806019823F0BBF8414623F0C0F9594622F0FFFFA8512E440298EC
:201AC00023F0B0F8414623F0B5F9594622F0F4FF706007F1100345F803A01D44C5F804A0E2
:201AE0004FF0814323624FF082436362002384F828300F9BE362012384F830302B4BE361F5
:201B00002B4BA361343407F502729442B9D1002002211EF031FE0028D4BF00200120039BF9
:201B200083F8450000283BD00020FF211EF024FE05460020FF211EF01FFE04461D4B03993E
:201B40008B60CB60284623F06DF81B4923F072F94FF07C5122F0B0FF039A1061204623F053
:201B600061F8154923F066F94FF07C5122F0A4FF039B5861002303998B61CB61002281F8B2
:201B800030201C9A4A63012281F8382081F845200A4A4A620A4A0A624FF08342CA628B62E3
:201BA0001FB0BDE8F08F00BF182C00205C8FC23E8FC2753C0000F84100007F43B81EC53E4E
:201BC0000AD7A33C000070412DE9F04387B000258DF810508DF811508DF81250214804A927
:201BE00017F0AEF8DFF88490DFF884801E4E06F60947D8F8003095FBF3F359F82340224628
:201C0000002CB8BFE21C96F8083C009303A83946C2F38702FF2318F0A5FAABB29DF80D107E
:201C20009DF80E209DF80C008DF814008DF815108DF8162019B22246002CB8BF04F11F0256
:201C40005211C2F120021F20009005A80190054812B21BB216F0CAFD0135202DC9D107B0C0
:201C6000BDE8F083B8AAFF1F00EDFF1F7CFBFF1FA895FF1F2DE9F04F87B000278DF8107019
:201C80008DF811708DF81270294804A917F058F8284B1D1F03F1380BDFF89C8008F6094A98
:201CA000DFF88C9055F8044F6E682246002CB8BFE21C98F8083C009303A85146C2F38702CB
:201CC000FF2318F04FFA2346002CB8BF04F11F035A11C2F12002D2B23346002EB8BF06F195
:201CE0001F035B11C3F12003DBB2BC1CA4B29DF80D009DF80E109DF80C608DF814608DF8F0
:201D000015008DF816101F2B28BF1F23009305AB0193484639B21F2A28BF1F2223B216F0F4
:201D200065FD5D4501D02746BCE707B0BDE8F08FB8AAFF1F7CFBFF1F00EDFF1FFFFFFFFFC7
:201D40002DE9F04F91B00D900023734DEB202968CA18CC5C00FB04F42412CC54517800FBBA
:201D600001F109125170917800FB01F1091291700333B3F5406FEAD100220C92DFF8B8B13B
:201D8000D946664B0C9AD5580D9A937A13B1644B0C9AD5582B46002DB8BFEB1CC3F3870449
:201DA0004FF002082E4627465B4991F8083C00930EA801F609413A46FF2318F0D3F9304612
:201DC00022F0DEFA0022574B22F040FB0022564B22F088F922F01CFE0446002123F032F9DD
:201DE000002800F08380204622F0DCFA82468B46484622F0D7FA46A3D3E9002322F026FB75
:201E000022F006FE22F0CEFA04460D4620F018F8CDE90401204629461FF048FFCDE9060172
:201E20004846424922F048FE22F0BCFA38A3D3E9002322F00BFB22F0EBFD22F0B3FA044694
:201E40000D461FF0FDFFCDE90801204629461FF02DFFCDE90A019DF839209DF83A309DF812
:201E600038108DF83C108DF83D208DF83E3050465946DDE9042322F0E9FA00222C4B22F0B2
:201E800033F922F07DFD04B250465946DDE9062322F0DCFA0022264B22F026F922F070FD85
:201EA00000B2009050465946DDE9082322F0CEFA00221F4B22F018F922F062FD00B201907D
:201EC00050465946DDE90A2322F0C0FA0022184B22F00AF922F054FD00B202900FAB03937D
:201EE00014480F210A46234616F03AFE48460F4922F0E2FD8146B8F101087FF455AF0C9BF1
:201F000004330C931C2B7FF43CAF11B0BDE8F08F399D52A246DF913F00EDFF1FE4ECFF1FA9
:201F200020FAFF1F0000903F0000F03F0000C84100002E40B8AAFF1F0000B443AFF300805B
:201F40002DE9F04F93B00546837B032B00F20B82DFE813F004007600E8005E010024AA4F4B
:201F600007F60949DFF8A482E6B2AB7A03EB4603DBB213F0800F1CBFDB43DBB25B00DBB294
:201F800013F0800F00F0E48183F0FF0303F1010B5FFA8BFB0BFB03F34FEAD31B0BF0FE0BDF
:201FA0008BF0FF0B2B699BFBF3FB1FFA84FA6A7B324497F8083C009303A84946D2B2FF234C
:201FC00018F0D0F89DF80D209DF80E309DF80C108DF808108DF809208DF80A3040460FFA52
:201FE0008AF15A4602AB16F0B5FAEB69022B23D1AB69CBEB030B1FFA8BFB6A7B324497F88E
:20200000083C009305A84946D2B2FF2318F0AAF89DF815209DF816309DF814108DF810105A
:202020008DF811208DF8123040460FFA8AF10FFA8BF204AB16F08EFA0134202C94D192E1FD
:202040000024714F07F60949DFF8C081E6B2AB7A03EB4603DBB213F0800F1CBFDB43DBB29C
:202060005B00DBB213F0800F00F0808183F0FF0303F1010B5FFA8BFB0BFB03F34FEAD31B7E
:202080000BF0FE0B8BF0FF0B2B699BFBF3FB1FFA84FA6A7B324497F8083C009307A8494609
:2020A000D2B2FF2318F05EF89DF81D209DF81E309DF81C108DF818108DF819208DF81A306C
:2020C000404659460FFA8AF206AB16F043FAEB69022B23D16B69CBEB030B1FFA8BFB6A7BD1
:2020E000324497F8083C009309A84946D2B2FF2318F038F89DF825209DF826309DF8241058
:202100008DF820108DF821208DF8223040460FFA8BF10FFA8AF208AB16F01CFA0134202C8D
:2021200094D120E10024384F07F60949DFF8DC80E6B2AB7AC3EB4603DBB213F0800F1CBF5E
:20214000DB43DBB25B00DBB213F0800F00F0198183F0FF0303F1010B5FFA8BFB0BFB03F380
:202160004FEAD31B0BF0FE0B8BF0FF0B2B699BFBF3FB1FFA84FA6A7B324497F8083C00933F
:202180000BA84946D2B2FF2317F0ECFF9DF82D209DF82E309DF82C108DF828108DF8292034
:2021A0008DF82A3040460FFA8AF15A460AAB16F0D1F9EB69022B23D1AB69CBEB030B1FFAAB
:2021C0008BFB6A7B324497F8083C00930DA84946D2B2FF2317F0C6FF9DF835209DF836301D
:2021E0009DF834108DF830108DF831208DF8323040460FFA8AF10FFA8BF20CAB16F0AAF994
:202200000134202C94D1AEE000EDFF1FB8AAFF1F0024694F07F60949DFF8A081E6B2AB7ADF
:20222000C3EB4603DBB213F0800F1CBFDB43DBB25B00DBB213F0800F00F0AE8083F0FF03F5
:2022400003F1010B5FFA8BFB0BFB03F34FEAD31B0BF0FE0B8BF0FF0B2B699BFBF3FB1FFAC2
:2022600084FA6A7B324497F8083C00930FA84946D2B2FF2317F076FF9DF83D209DF83E30C2
:202280009DF83C108DF838108DF839208DF83A30404659460FFA8AF20EAB16F05BF9EB69B2
:2022A000022B23D16B69CBEB030B1FFA8BFB6A7B324497F8083C009311A84946D2B2FF2317
:2022C00017F050FF9DF845209DF846309DF844108DF840108DF841208DF8423040460FFA79
:2022E0008BF10FFA8AF210AB16F034F90134202C94D138E00168CA18CC5CC4EBC414E41102
:20230000CC545178C1EBC111C91151709178C1EBC111C91191700333B3F5406FEAD12B7A6C
:202320006A7A9A4205D800232B72AB7A0133AB7201E001332B72EB7A2A7B9A4205D8002332
:20234000EB726B7B01336B7331E00133EB722EE003F1010B5FFA8BFB0BFB03FB4FEADB1B66
:202360000BF0FE0B1EE600231348C3E703F1010B5FFA8BFB0BFB03FB4FEADB1B0BF0FE0B17
:2023800082E603F1010B5FFA8BFB0BFB03FB4FEADB1B0BF0FE0BE9E603F1010B5FFA8BFB11
:2023A0000BFB03FB4FEADB1B0BF0FE0B54E7002013B0BDE8F08F00BF00EDFF1FB8AAFF1F5A
:2023C0002DE9F04F97B00290554B1B684FF40C3202FB03F2120ED3B213F0400F00F01082C0
:2023E000DB43DBB203F03F0103F00F0301334D48091149004418647803FB04F3415C01EB18
:202400002313DBB212F0800F18BF5B42DBB283F0800303EB830318115638C0B20023424D22
:202420002968CA18CC5C00FB04F42412CC54517801FB00F109125170917801FB00F1091215
:2024400091700333B3F5406FEAD1029A9368002B40F3DB81DFF8D4804FF0000ACDF828A0E1
:20246000324B5AF80320049203EB0A02039252680692039A92680D9203EB0A02D2680E92E9
:20248000039A1269089253445B690F93C346D8F818301093D8F81C200992D8F8203011935E
:2024A000D8F82420129298F828300B93D8F82C200C9298F830301393029A5069049922F08A
:2024C000FBFA0746029B9869069922F0F5FA06463846394622F0FAFB04463046314622F0E3
:2024E000F5FB0146204622F0E9FA21F05BFF04460D461FF06BFE22F08BFA81460C4922F005
:2025000083FD48B948464FF0844122F09BFD98B9484621F047FF11E0002006490EE000BFBB
:20252000E055002034A3020000EDFF1F182C00200000A040000014400020AC4922F068FA41
:202540008146204629461FF041FE22F061FA002122F050FD38BB204629461FF037FE22F086
:2025600057FA21F01FFF02460B460020A04922F097F804460D46384621F014FF02460B46C0
:202580002046294621F062FF22F042FA0746304621F008FF02460B462046294621F056FFF7
:2025A00022F036FA0646029A1069D16822F08EFB01460C9822F08AFB04464846494622F0A9
:2025C00085FB0146204622F035FC21F0EBFE04460D46384621F0E6FE02460B462046294613
:2025E00021F034FF22F014FA0146089822F066FA0746304621F0D6FE02460B462046294608
:2026000021F024FF22F004FA01460F9822F056FA08900D98394622F051FA81460E980899FF
:2026200022F04CFA06464846494622F04FFB04463046314622F04AFB0146204622F03EFAF8
:2026400004460998014622F041FB0146204622F0F9FC002851D0204621F0A4FE04460D4647
:202660001FF0B4FD22F0D4F9002122F0C3FC38BB204629461FF0AAFD22F0CAF921F092FED5
:2026800002460B4600205A4922F00AF804460D46484621F087FE02460B462046294621F08A
:2026A000D5FE22F0B5F98146304621F07BFE02460B462046294621F0C9FE22F0A9F906467A
:2026C000099821F06FFE04460D46484621F06AFE02460B462046294621F0B8FE22F098F95F
:2026E0008146304621F05EFE02460B462046294621F0ACFE22F08CF906460498494622F0E7
:20270000DDF905460698314622F0D8F90446384621F048FE0022002321F098FECDE90401DA
:20272000089821F03FFE0022002321F08FFECDE90601304991F8083C009315A801F6094134
:202740000B9AFF2317F00EFD9DF855209DF856309DF854108DF850108DF851208DF85230A0
:20276000284622F079FC07B2204622F075FC02B22148394614AB15F0EDFE204F4AF807506F
:20278000039B5C6007EB0A04C4F80890E660DDE9040122F03DF9206110375744DDE9060102
:2027A00022F036F97860109ACBF81820099BCBF81C30119ACBF82020129BCBF824300B9A91
:2027C0008BF828200C9BCBF82C30139A8BF830200A9B01330A930AF1340A08F13408029A68
:2027E00093680A9A93423FF73BAE0EE0000040400000F03F00EDFF1FB8AAFF1F182C0020BA
:2028000003F03F0103F00F03F1E50F2017B0BDE8F08F00BF2DE9F04784B000233C4DAA20DA
:202820002968CA18CC5C00FB04F42412CC54517800FB01F109125170917800FB01F1091211
:2028400091700333B3F5406FEAD1002620253446DFF8C8902E4F07F60948FF2D9ABF2902A0
:2028600089B22946D9F800304FF48C7202FB03F201FB02F2120ED3B213F0400F3ED0DB4367
:20288000DBB203F03F0103F00F03013321480911490000EB010E9EF801A003FB0AF3415CAA
:2028A00001EB2313DBB212F0800F18BF5B425FFA83FA97F8083C009303A841463246FF235C
:2028C00017F050FC9DF80D209DF80E309DF80C108DF808108DF809208DF80A308AF0800259
:2028E0000D4821B2D20802AB15F034FE01340135ADB20736F6B2202CAFD104E003F03F0160
:2029000003F00F03C2E70F2004B0BDE8F08700BF00EDFF1F34A30200B8AAFF1FE055002092
:202920002DE9F04F85B005460023454EAA243168CA18C85C04FB00F00012C854517804FBBA
:2029400001F109125170917804FB01F1091291700333B3F5406FEAD120260024DFF8F0A07A
:20296000DFF8F0B0DFF8D88008F609492246002CB8BFE21CC2F38702062A28BF06225AF889
:202980002230A97A09B15BF82230FF2E9ABF300280B230462B4A12684FF48C7101FB02F1E5
:2029A00000FB01F1090ECAB212F0400F40D0D243D2B202F03F0002F00F020132224F0011B4
:2029C000400007EB000E9EF801E002FB0EF2385C00EB2212D2B211F0800F18BF5242D7B288
:2029E0001A46002BB8BFDA1C98F8083C009303A84946C2F38702FF2317F0B4FB9DF80D2066
:202A00009DF80E309DF80C108DF808108DF809208DF80A3087F080020C4821B2D20802AB81
:202A200015F098FD01340136B6B2202C05D09DE702F03F0002F00F02C0E705B0BDE8F08FCF
:202A400000EDFF1FE055002034A30200B8AAFF1FE4ECFF1F20FAFF1F2DE9F041B8B004469E
:202A6000B14B1B78002B00F05B814369002B40F3578100F11C06304619F0D4F810B1304659
:202A800019F0C4F8A26925696369002D7ADB9D4278DA08A8A549012319F03EFA08A819F09D
:202AA000C1F800286BD010A808A9012219F0DCFA9F4F5AE010A819F0A9F856E010A819F00E
:202AC00063F8014603785F2B2AD07E2B28D02E2B26D034A81DF0A6FE34A81DF0F1FF0146B8
:202AE00004A81DF0DBFE34A81DF050FE30A839461DF098FE04A830A91DF086FF804630A85E
:202B00001DF044FE04A81DF041FEB8F1010F07D1013D10A819F038F80146684623F0A8FA04
:202B200010A819F073F828A808A9012219F09CFA9DF8A4308DF844302A9B12939DF8AC30E9
:202B40008DF84C3038AB53F8330D59689A68CDF84D00CDF85110CDF855201B7B8DF859302D
:202B60002F9B179328A819F009F810A819F05AF8002800F09680002D80F2A08091E008A8E6
:202B800018F0FCFF04F141052846A16923F070FA2846694623F0BEF820A864492A46012313
:202BA00019F0BAF99DF8843084F82030229B63629DF88C3084F8283038AB53F8535D5868FF
:202BC0009968C4F82950C4F82D00C4F831101B7B84F83530279BA36320A818F0CFFF304686
:202BE00019F020F8002800F09B8094F820E08DF864E0676A1A9794F828008DF86C004D4B6D
:202C00001893234653F8295F59689A68CDF86D50CDF87110CDF87520197B8DF87910A26B39
:202C20001F92454D85F864E9C5F8687985F86C09DDF86DE0DDF87170DDF87500C5F86DE9C2
:202C4000C5F87179C5F8750985F87919C5F87C2918A818F093FF0023237205F5166010A9E6
:202C6000062218F09DFF10A83449062223F08EFA78B310A83249062223F088FA48B324E076
:202C800003F007030133012202FA03F32A498B6503EB430201F516605C3192B218F080FF94
:202CA0003EE010A818F0B2FF08A818F0AFFF10A818F064FF08A818F061FF63E710A818F0DA
:202CC00065FF00287FF4F6AEF8E6304618F09EFF26E0194C04F51665284618F0D9FE0646E0
:202CE000284618F0D5FE46EA00202060284618F0CFFE0646284618F0CBFE46EA00206060DD
:202D0000284618F0C5FEA060284618F0C1FE2061284618F0BDFEE060A36813F0800FAFD136
:202D200038B0BDE8F08100BF00A0FF1F4452002078A3020008EA0200BCAAFF1F80A30200A8
:202D400088A30200FFFFFFFF2DE9F04F89B0814600238B4DBE202968CA18CC5C00FB04F48E
:202D60002412CC54517800FB01F109125170917800FB01F1091291700333B3F5406FEAD111
:202D8000D9F81C004FF0824121F0A0FF22F08AF9C2B27B4B93F8083C009305A87949FF23D2
:202DA00017F0E0F9D9F80880D9F80C0021F0FAFA04460D464046D9F81C1021F07FFE21F039
:202DC000F1FA6DA3D3E9002321F040FB21F020FE21F0E8FA06460F461EF068FF02460B46FC
:202DE0002046294621F032FB0022674B21F07CF921F0C6FD0290304639461FF021F802469B
:202E00000B462046294621F021FB02460B4600205D4921F067F921F0B3FD0390DFF870B143
:202E2000D9F80C0021F0BEFA04460D46404621F0B9FA51A3D3E9002321F008FB21F0E8FD28
:202E400021F0B0FA06460F461EF030FF02460B462046294621F0FAFA00224B4B21F044F960
:202E600021F08EFD8246304639461EF0E9FF02460B462046294621F0E9FA02460B460020E8
:202E8000414921F02FF921F07BFD06469DF815209DF816309DF814108DF818108DF81920D1
:202EA0008DF81A300FFA8AF405B2584621462A4606AB15F04FFB9DF815209DF816309DF856
:202EC00014108DF81C108DF81D208DF81E3058462946224607AB15F03DFB40464FF07E5190
:202EE00021F0ECFD8046294922F0A2F808B14FF00008029B9A4593D1039B9E4290D1D9F864
:202F00001C402046D9F8081021F0D8FD05461F4922F08EF810B9C9F8085029E00023C9F806
:202F20000830D9F820502046294621F0C7FD0446C9F81C00D9F81060314622F06FF830B135
:202F4000C9F81C6005F10045C9F8205010E0D9F818602046314622F075F848B13046294655
:202F600021F0AAFDC9F81C0005F10045C9F82050002009B0BDE8F08F399D52A246DF913F94
:202F800000EDFF1F09F9FF1F000030400000B443B8AAFF1FAFF300802DE9F04F93B00A90CB
:202FA00000239D4DAA202968CA18CC5C00FB04F42412CC54517800FB01F1091251709178BB
:202FC00000FB01F1091291700333B3F5406FEAD1DFF858A20027D14657F80920049209EB8F
:202FE000070302935A6806929D688C4B3B445C6809EB07035E69D046DAF818300B93DAF854
:203000001C200592DAF820300C93DAF824200D929AF828300793DAF82C200E929AF8303033
:203020000F93029A10690A9B996821F047FD834630460A9AD16821F041FD039028465946D3
:2030400021F03CFD05462046039921F037FD04462846294621F03AFE06462046214621F0FA
:2030600035FE0146304621F029FD06460598014621F02CFE0146304621F0E4FF002851D0C4
:20308000304621F08FF9CDE908011FF09FF821F0BFFC002121F0AEFF38BBDDE908011FF040
:2030A00095F821F0B5FC21F07DF902460B4600205B4921F0F5FACDE90801284621F072F934
:2030C00002460B46DDE9080121F0C0F921F0A0FC0546204621F066F902460B46DDE9080188
:2030E00021F0B4F921F094FC0446059821F05AF9CDE90801284621F055F902460B46DDE93B
:20310000080121F0A3F921F083FC0546204621F049F902460B46DDE9080121F097F921F04B
:2031200077FC04460498294621F0C8FC04900698214621F0C3FC0646584621F033F9002240
:20314000002321F083F921F063FC0690039821F029F90022002321F079F921F059FC03902A
:203160002D4991F8083C009311A801F60941079AFF2316F0F7FF9DF845209DF846309DF826
:2031800044108DF840108DF841208DF84230049821F062FF0FFA80FB304621F05DFF02B200
:2031A0002048594610AB15F0D5F930461E4921F03FFF10B104F100441B4E049B47F80930D4
:2031C000029A566009EB07039D60144A3A445460069A1A61039A5A610B9BC8F81830059A52
:2031E000C8F81C200C9BC8F820300D9AC8F82420079B88F828300E9AC8F82C200F9B88F819
:20320000303034370AF1340AB7F5D06F7FF4E4AE0F2013B0BDE8F08F00EDFF1F202C00202D
:203220000000F03FB8AAFF1F0000F841182C002038B504460D46084622F078FF024623680E
:203240005B68204629469847054620461DF0D0F9284438BD30B589B0054600238DF80430CA
:203260005A4B009302914FF0FF330393584869461BF08EFB0446002800F0A580544821460F
:20328000544A1BF0EDFB0346027C042A04D105F10F00996922F0ECFE4D4821464E4A1BF031
:2032A000DFFB037C022B04D1836985F8733001232B7147482146494A1BF0D2FB037C022BDA
:2032C00004D1836985F8743001232B7140482146434A1BF0C5FB037C022B04D1836985F81B
:2032E000753001232B713A4821463E4A1BF0B8FB037C022B04BF8369AB67354821463A4A65
:203300001BF0AEFB037C022B04BF8369EB6730482146364A1BF0A4FB0346027C042A04D179
:2033200005F1800099691DF0CDFA29482146304A1BF096FB037C022B04BF836985F89030BB
:20334000234821462B4A1BF08BFB0346027C042A33D104A899691DF065FA04A826491DF05A
:2033600011FBE0B904A825491DF00CFBC8B904A823491DF007FBB0B904A822491DF002FB48
:2033800098B904A820491DF0FDFA80B904A81F491DF0F8FA00280CBF0523042308E0052325
:2033A00006E0002304E0012302E0022300E0032385F8913004A81DF0E9F9054821461AF058
:2033C000BFFF012000E0002009B030BD80EA02004C55002090A3020098A302009CA3020088
:2033E000A4A30200ACA30200B0A30200B8A30200C0A30200C8A30200D0A30200E4A30200B1
:20340000F0A3020000A4020010A4020018A4020010B500F18004204613491DF0B3FAC8B9C6
:20342000204612491DF0AEFAB0B9204610491DF0A9FA98B920460F491DF0A4FA80B92046E5
:203440000D491DF09FFA68B920460C491DF09AFA052010BD002010BD012010BD022010BD37
:20346000032010BD042010BD1CA4020024A402002CA4020038A4020044A4020050A402004F
:2034800010B50C46084615491DF07CFAE0B9204613491DF077FAC8B9204612491DF072FA52
:2034A000B0B9204610491DF06DFA98B920460F491DF068FA80B920460D491DF063FA00286B
:2034C0000CBF0520042010BD052010BD002010BD012010BD022010BD032010BDD0A30200EA
:2034E000E4A30200F0A3020000A4020010A4020018A402002DE9F041D8B007460D469E4E39
:2035000004AC9AE12B798DF81430AB6806932B7B8DF81C3004962B4653F80D0F59689A68BB
:20352000CDF81D00CDF82110CDF825201B7B8DF82930EB690B93684600211DF073F908E013
:20354000204618F0A5FA0FE00A290DD068461DF0EDF9204618F046FB30B1204618F098FA2E
:20356000C1B20D29F0D1EBE7204618F007FB0CA882491DF057F968460CA91DF039FA80465A
:203580000CA81DF003F9B8F1000F13D010A8694605221DF08DFA684610A91DF08BF910A801
:2035A0001DF0F4F8684607F10F01642200231DF043FA3FE114A872491DF034F9684614A92D
:2035C0001DF016FA804614A81DF0E0F8B8F1000F17D018A8694604221DF06AFA684618A953
:2035E0001DF068F918A81DF0D1F8029B002B00F0218168461DF074FA87F8730001233B7182
:2036000018E11CA85F491DF00DF968461CA91DF0EFF980461CA81DF0B9F8B8F1000F17D0E3
:2036200020A8694606221DF043FA684620A91DF041F920A81DF0AAF8029B002B00F0FA803A
:2036400068461DF04DFA87F8740001233B71F1E024A84D491DF0E6F8684624A91DF0C8F93E
:20366000804624A81DF092F8B8F1000F17D028A8694605221DF01CFA684628A91DF01AF91A
:2036800028A81DF083F8029B002B00F0D38068461DF026FA87F8750001233B71CAE02CA8AA
:2036A0003A491DF0BFF868462CA91DF0A1F980462CA81DF06BF8B8F1000F14D030A869466C
:2036C00004221DF0F5F9684630A91DF0F3F830A81DF05CF8029B002B00F0AC8068461DF072
:2036E000FFF9B867A6E034A829491DF09BF8684634A91DF07DF9804634A81DF047F8B8F19A
:20370000000F14D038A8694605221DF0D1F9684638A91DF0CFF838A81DF038F8029B002BE1
:2037200000F0888068461DF0DBF9F86782E03CA818491DF077F868463CA91DF059F98046C8
:203740003CA81DF023F8B8F1000F25D040A8694605221DF0ADF9684640A91DF0ABF840A810
:203760001DF014F8029B002B64D007F1800069461DF08AF85EE000BF08EA02005CA402008B
:2037800064A402006CA4020074A402007CA4020084A402008CA4020044A82D491DF042F8CC
:2037A000684644A91DF024F9804644A81CF0EEFFB8F1000F14D048A8694606221DF078F9B8
:2037C000684648A91DF076F848A81CF0DFFF029B002B2FD068461DF083F987F8900029E0DF
:2037E0004CA81C491DF01EF868464CA91DF000F980464CA81CF0CAFFB8F1000F1AD050A87B
:20380000694605221DF054F9684650A91DF052F850A81CF0BBFF029B63B154A869461DF053
:203820003DF8384654A9FFF72BFE87F8910054A81CF0ACFF68461CF0A9FF2B689B68284690
:20384000984700283FF75EAE58B0BDE8F08100BF94A402009CA402002DE9F041FCB0044689
:20386000A64B1B78002B00F07D818368013383604279934204DB4FF0FF33836000258EE152
:20388000417B8B4205DA9E4B6D460FCB07C52B708FE00268007B5D1A00F18B80854280F2E3
:2038A00088800CA89749012318F036FB0CA818F0B9F900287AD014A80CA9012218F0D4FBC4
:2038C000914E924F68E014A818F0A0F964E014A818F05AF9014603785F2B38D07E2B36D025
:2038E0002E2B34D070A81CF09DFF70A81DF0E8F8014608A81CF0D2FF70A81CF047FF6CA854
:2039000031461CF08FFF08A86CA91DF07DF8012800F03E8168A839461CF084FF08A868A998
:203920001DF072F8804668A81CF030FF6CA81CF02DFF08A81CF02AFFB8F1010F07D1013DFF
:2039400014A818F021F90146684622F091FB14A818F05CF960A80CA9012218F085FB9DF8E0
:2039600084318DF85430629B16939DF88C318DF85C307CAA52F8630D51689368CDF85D00CA
:20398000CDF86110CDF86530137B8DF86930679B1B9360A818F0F2F814A818F043F9002819
:2039A00000F0E280002D80F2EC80DDE00CA818F0E5F814A8216822F05BFB14A8694622F02A
:2039C000A9F90CA84F4914AA012318F0A5FA0CA818F028F9054620B92046FFF73DFF05468C
:2039E000BCE004F10F070026E67384F8736084F8746084F875600123A367E36704F18000C4
:203A000005211CF071FF182384F8903084F89160267154A869461CF005FF54A81DF050F87D
:203A2000014604A81CF03AFF54A81CF0AFFE04A837491CF0A7FF00284CD0A368B3427DDB1F
:203A4000DFF8D0809DF834308DF8D4310E9B76939DF83C308DF8DC31CDF8D081DDF83D103F
:203A6000DDF84120DDF84530CDF8DD11CDF8E121CDF8E5319DF849308DF8E931139B7B9308
:203A800008A800211CF0CEFE08E074A818F000F80FE00A290DD008A81CF048FF74A818F053
:203AA000A1F830B174A817F0F3FFC1B20D29F0D1EBE774A818F062F808A839460A9A0023C7
:203AC0001CF0BAFF013608A81CF060FEA3689E42B8DD33E058A80C491CF0A4FE04A858A98D
:203AE0001CF092FF064658A81CF050FE012E13D120460CA9FFF7FEFC20E000BF00A0FF1FE8
:203B0000B8A4020044520020B0A40200A4A40200A8A4020008EA02005CA823491CF082FEB3
:203B200004A85CA91CF070FF06465CA81CF02EFE012E03D120460CA9FFF78CFB23793BB9A6
:203B40001A4B33F8042F9B78A4F8732084F875300CA818F05BF804A81CF018FE0CA818F0A6
:203B60000DF81CE000251AE014A818F04FF80CA818F04CF814A818F001F80CA817F0FEFFA5
:203B800017E714A818F002F800287FF49CAE9EE66CA81CF0FBFD08A81CF0F8FDCFE6284614
:203BA0007CB0BDE8F08100BFA4A4020010A1020070B506460D4B187821F034F801463046B4
:203BC00021F02CFA68B9094D012415F8010F21F029F8314621F02CFA30B901340C2CF4D1FA
:203BE00001E0002400E00024204670BDB495FF1F10B50446002121F007FA28B920460549EB
:203C000021F020FA10B902E0024C00E00024204610BD00BF00007F4310B5054C207820F00A
:203C2000FDFFFFF7E5FF21F03DFA207010BD00BFF42B002010B50C46FFF7BAFF001903D455
:203C40000C28A8BF002000E00B20034B185C20F0E5FFFFF7CDFF10BDB495FF1F08B5002015
:203C600001211BF0B9FC012001461BF0B5FC002001461BF07FFC012001461BF07BFC08BDA2
:203C80002DE9F84F00257E4B1D70284601211BF071FC284629461BF06DFC2C460126DFF883
:203CA0001882784F304600211BF064FC4FF42073013B7FF4FDAF28201BF0DAF854F80830C7
:203CC000184420EAE073E3519D42B8BF1D46304631461BF04FFC04341C2CE3D16A4B187882
:203CE00018B120F09BFF814656E0684B187805FB00F5674B1B889D4220DB664B9B78834264
:203D00001CD8654B1A68654B1B6813B9634B1A603DE0634909880B44934238D220F07EFF41
:203D20004FF0FF31FFF786FF21F0BCF9574B187000235A4A13605B4A136028E05A4B1B8807
:203D40009D421FDC534BDB7A83421BD9524B1A68544B1B6813B9534B1A6018E05349098893
:203D60000B44934213D220F059FF0121FFF762FF21F098F9454B187000234A4A1360474AE4
:203D8000136004E00023474A1360444A13603F4B187820F043FF8146454BD3F800A0384BF3
:203DA0001D780024374E40F2FF38424FA346A05920F038FF494620F089FF21F04DF920EA1A
:203DC000E0704045A8BF4046A051E359984201DBE05107E0002B05DDB3EB0A0354BFE35127
:203DE00044F807B0C128A8BF012504341C2CDED1234B1D7000252C46DFF8C0A0DFF8C0B01B
:203E0000DFF8B080204620F00DFF514620F05EFF074621F021F9064620F004FF0146384679
:203E200020F04AFE07460E2C1FDC4FF07E50394620F042FE814658F8260020F0F3FE014647
:203E4000484620F043FF8146013658F8260020F0E9FE394620F03AFF0146484620F02EFE3E
:203E600021F0FAF84BF8050003E058F8263045F80B3001340435102CC4D1BDE8F88F00BFCC
:203E800048FAFF1FE4ECFF1FF42B00203CFAFF1F9095FF1FB495FF1FE0550020B4AAFF1FC6
:203EA0007495FF1FFC9FFF1FE895FF1FF095FF1FA495FF1F20FAFF1F5CFBFF1FCDCCCC3E3D
:203EC0007CFBFF1F10B50446FFF7DAFE04F51E54206803689B68984710BD00BF10B5044695
:203EE000FFF7CEFE0822084B1A60606910F0010F01D1236903E04310E2582369D35804EBBC
:203F000060009847002010BDA495FF1F70B4FF289CBF000280B21D4C25689DF80C404034F9
:203F2000EB1A4FF48C7505FB03F300FB03F304EB1363DBB213F0400F21D0DD43EDB205F068
:203F40003F0005F00F050135114C001140002618767805FB06F5205C00EB2515EDB213F0CB
:203F6000800F0EBFEBB26B42DBB283F08003501AC0B200FB03F001EB2021C8B204E003F0D0
:203F80003F0003F00F05DFE770BC7047E055002034A302002DE9F04F85B05F4B1B684FF40A
:203FA0000C3202FB03F2120ED3B213F0400F00F0A580DB43DBB203F03F0103F00F030133AE
:203FC0005648091149004418647803FB04F3415C01EB2313DBB212F0800F18BF5B42DBB2D5
:203FE00083F0800303EB830398111A38C0B200234B4D2968CA18CC5C00FB04F42412CC544B
:20400000517801FB00F109125170917801FB00F1091291700333B3F5406FEAD14FF0040869
:204020001E2400270E25DFF8F89009F6094BDFF8E8A099F8083C009302A859463A46FF2380
:2040400016F090F8EEB2C6F120020023009320463146D2B2FFF75AFF0146FF2C9ABF200206
:2040600080B22046DAF800304FF48C7202FB03F200FB02F2120ED3B213F0400F43D0DB435C
:20408000DBB203F03F0E03F00F03581C234B4FEA2E1E4FEA4E0E03EB0E0C9CF801C000FBFA
:2040A0000CF013F80EE00EEB2013DBB212F0800F18BF5B42DBB29DF809009DF80A209DF8CE
:2040C00008E08DF80CE08DF80D008DF80E2083F0800308FB03F306EB2322124809B2D2B284
:2040E00003AB14F037FA013D0E37FFB2023CA4B208F10208B5F1FF3F9BD109E003F03F01A6
:2041000003F00F035CE703F03F0E03F00F00BDE7002005B0BDE8F08FE055002034A302004A
:2041200000EDFF1FB8AAFF1F2DE9F04F89B0904B1B684FF40C3202FB03F2120ED3B213F0ED
:20414000400F00F00181DB43DBB203F03F0103F00F0301338748091149004418647803FB1F
:2041600004F3415C01EB2313DBB212F0800F18BF5B42DBB283F0800303EB83031811563849
:20418000C0B200237C4D2968CA18CC5C00FB04F42412CC54517801FB00F109125170917842
:2041A00001FB00F1091291700333B3F5406FEAD1022740244FF00008C1462025DFF8B8B14E
:2041C0000BF6094103915FFA89F60F2E4ED800230093384631462A46FFF798FE8246FF2F28
:2041E0009ABF390289B23946614A13684FF48C7202FB03F201FB02F2120ED3B213F0400F31
:2042000000F0A780DB43DBB203F03F0103F00F03013358480911490000EB010E9EF801E0FC
:2042200003FB0EF3415C01EB2313DBB212F0800F0EBFDAB25A42D2B282F08002A4F120037D
:20424000DBB203FB02F306EB2326F6B29BF8083C009305A803994246FF2315F083FF9DF883
:2042600014109DF815209DF8163050E00136F2B2FF2C9ABF200280B220463D490B684FF4F0
:204280008C7101FB03F100FB01F1090ECBB213F0400F63D0DB43DBB203F03F0003F00F0349
:2042A0000133344E0011400006EB000E9EF801E003FB0EF3305C00EB2313DBB211F0800FB8
:2042C00018BF5B42DBB283F08003C4F1210A5FFA8AFA0AFB03FA05EB2A2A5FFA8AFA0023E4
:2042E000009320462946FFF711FE0646C8F1B2029BF8083C009306A80399D2B2FF2315F039
:2043000031FF9DF818109DF819209DF81A308DF81C108DF81D208DF81E3018480FFA8AF1D9
:2043200032B207AB14F016F9013D09F1010908F10E085FFA88F8023CA4B20237BFB215F067
:20434000FF057FF440AF0EE003F03F0103F00F0300E703F03F0103F00F035AE703F03F003F
:2043600003F00F039DE7002009B0BDE8F08F00BFE055002034A3020000EDFF1FB8AAFF1F3F
:204380002DE9F04F87B003908E4B1B684FF40C3202FB03F2120ED3B213F0400F00F00081C7
:2043A000DB43DBB203F03F0103F00F0301338648091149004418647803FB04F3415C01EBFF
:2043C0002313DBB212F0800F18BF5B42DBB283F0800303EB830318115638C0B200237B4D0A
:2043E0002968CA18CC5C00FB04F42412CC54517801FB00F109125170917801FB00F1091236
:2044000091700333B3F5406FEAD14FF002081F2640240025DFF8B091EFB20F2F42D8002308
:20442000009340463946F2B2FFF770FD8246B8F1FF0F9ABF4FEA082189B24146614A1368BB
:204440004FF48C7202FB03F201FB02F2120ED3B213F0400F00F0A980DB43DBB203F03F014B
:2044600003F00F0301330911490009EB0100407803FB00F319F8011001EB2313DBB212F02F
:20448000800F18BF5B42DBB283F08003A4F1210B5FFA8BFB0BFB03FB07EB2B2B5FFA8BFBCB
:2044A0007F0842E0F1B2FF2C9ABF200280B22046444A13684FF48C7202FB03F200FB02F247
:2044C000120ED3B213F0400F74D0DB43DBB203F03F0003F00F0301330011400009EB000E38
:2044E0009EF801E003FB0EF319F8000000EB2313DBB212F0800F18BF5B42DBB283F08003FF
:20450000C4F1210A5FFA8AFA0AFB03FA01EB2A2A5FFA8AFA0023009320463A46FFF7F6FC3B
:20452000834606EBD677C7F34707062F28BF0627274B53F8273003998A7A12B1254B53F8F1
:2045400027301A46002BB8BFDA1C204991F8083C009304A801F60941C2F38702FF2315F0F1
:2045600001FE9DF811209DF812309DF810108DF814108DF815208DF8163017480FFA8AF1D9
:204580000FFA8BF205AB13F0E5FF0135023CA4B2013E08F102081FFA88F8202D0FD03BE70B
:2045A00003F03F0103F00F0301E703F03F0103F00F0358E703F03F0003F00F038CE707B003
:2045C000BDE8F08FE055002034A3020000EDFF1FE4ECFF1F20FAFF1FB8AAFF1F2DE9F04F83
:2045E00085B08246654B1B684FF40C3202FB03F2120ED3B213F0400F00F0B380DB43DBB253
:2046000003F03F0103F00F0301335D48091149004418647803FB04F3415C01EB2313DBB2AD
:2046200012F0800F18BF5B42DBB283F0800303EB830398111A38C0B20023524D2968CA18DC
:20464000CC5C00FB04F42412CC54517801FB00F109125170917801FB00F10912917003330F
:20466000B3F5406FEAD120250024DFF8189109F6094B04EBD473C3F34703062B28BF062375
:20468000414A52F823609AF80A2012B13F4A52F82360E3B2C3F11007FFB203F110020023B3
:2046A000009328463946D2B2FFF730FC8046FF2D9ABF290289B22946304B1B684FF48C7275
:2046C00002FB03F201FB02F2120ED3B213F0400F4CD0DB43DBB203F03F0103F00F030133CE
:2046E00027480911490000EB010E9EF801E003FB0EF3415C01EB2313DBB212F0800F18BFC4
:204700005B42DBB283F08003620002FB03F307EB2327FFB23246002EB8BFF21C99F8083C37
:20472000009302A85946C2F38702FF2315F01AFD9DF809209DF80A309DF808108DF80C1046
:204740008DF80D208DF80E3011480FFA88F13A4603AB13F0FFFE0134023DADB2102C0AD0F2
:2047600087E703F03F0103F00F034EE703F03F0103F00F03B4E705B0BDE8F08FE05500205D
:2047800034A3020000EDFF1FE4ECFF1F20FAFF1FB8AAFF1FFFFFFFFF2DE9F04F95B0834630
:2047A000A34B1B684FF40C3202FB03F2120ED3B213F0400F00F0E282DB43DBB203F03F01EC
:2047C00003F00F0301339B48091149004418647803FB04F3415C01EB2313DBB212F0800F50
:2047E00018BF5B42DBB283F08003F52202FB03F31B120A33904A106820210A46DBB215F0D9
:20480000A3FC8B4B1B684FF40C3202FB03F2120ED3B213F0400F00F0B682DB43DBB203F070
:204820003F0103F00F0301338248091149004418647803FB04F3415C01EB2313DBB212F057
:20484000800F18BF5B42DBB283F0800303EB83035B116433DBB2CBF82830754B1B684FF42D
:20486000523202FB03F2120ED3B213F0400F00F08F82DB43DBB203F03F0103F00F030133B3
:204880006C48091149004418647803FB04F3415C01EB2313DBB212F0800F18BF5B42DBB2F6
:2048A00083F0800303EBC30318120130C0B220F0B9F9624920F0BEFACBF8140000230093BF
:2048C000052001210A22FFF721FB20F0ABF95B4920F0B0FA0546CBF81C00DBF81000DBF861
:2048E000141020F0EBF80446CBF810002846DBF8181020F0E3F80646CBF8180020461FF094
:2049000051FD04460D4648A3D3E9002320F024F850B12046294644A3D3E900231FF0E2FB2E
:2049200020F076F8CBF8100030461FF03BFD04460D463DA3D3E9002320F00EF850B1204690
:20494000294639A3D3E900231FF0CCFB20F060F8CBF81800DBF810001FF024FD04460D4664
:204960001DF0A4F920F054F80490204629461DF067FA20F04DF80646DBF818001FF012FDB0
:2049800004460D461DF092F920F042F80590204629461DF055FA20F03BF804460599CBF8E4
:2049A00098120023CBF89C3200F1004306930699CBF8A0123046214620F088F90790CBF8F0
:2049C000A402049BCBF8A8323046059920F07EF90890CBF8AC020498214620F077F9099035
:2049E000CBF8B00206F100460A960A99CBF8B4120498059920F06AF90B90CBF8B802DBF8A1
:204A0000280020F00FF90C90DBF820300D93DBF808100391DBF824300E935D465C464FF02C
:204A20000009CDF83CB00BE0182D4454FB211940E055002034A3020000EDFF1F0000C8423C
:204A4000D4F82C80276B666B0598414620F03EF982463846002120F039F90146504620F07A
:204A60002DF882460698314620F030F90146504620F024F88246C4F88C000798414620F0AC
:204A800025F983460498394620F020F90146584620F014F883460898314620F017F90146A3
:204AA000584620F00BF8C4F890000998414620F00DF980460A98394620F008F901464046F6
:204AC0001FF0FCFF07460B98314620F0FFF8014638461FF0F3FF0C991FF0F0FF0646C4F8ED
:204AE00094000398514620F0F1F8314620F0A2F901460D981FF0E2FF1FF054FC1DF010F984
:204B00001FF086FFC5F8EC000398D4F8901020F0DDF8314620F08EF901460E981FF0CCFF97
:204B20001FF040FC1DF0FCF81FF072FFC5F8F00009F101090C340835B9F1080F80D1DDF894
:204B40003CB0002319460BEB030282F80C120C33902BF8D10BF1D80104915C460125D4F893
:204B600030211D320BEBC202D4F834311D330BEBC303191D0391D4F838711D370BEBC70747
:204B80005668D2F80880586831461FF095FF8146B86841461FF090FF0146484620F096F8AC
:204BA0008146039B586841461FF086FF8046786831461FF081FF0146404620F087F8014666
:204BC00048461FF079FF002120F01EFAF8B9D4F8403103EB43030BEB830383F80C52D4F834
:204BE000443103EB43030BEB830383F80C52D4F8483103EB43030BEB830383F80C52D4F81D
:204C00004C3103EB43030BEB830383F80C52243404998C42A3D163499BF8BC2291F8083C6D
:204C2000009310A801F60941802315F09BFA0BF190055C46DFF870A194F80C32A3BBD4F89C
:204C400004620BEBC606D6F8EC0020F005FA1FFA80F8D6F8F00020F0FFF91FFA80F9D4F8AE
:204C600008620BEBC606D6F8EC0020F0F5F987B2D6F8F00020F0F0F99DF841209DF8423063
:204C80009DF840108DF844108DF845208DF8463000B2009011AB019350460FFA88F10FFABE
:204CA00089F23BB213F0A2FD0C34AC42C4D13D499BF8BC2291F8083C009312A801F60941D5
:204CC000FF2315F04FFA9DF848308DF840309DF849308DF841309DF84A308DF842305C46B6
:204CE000DFF8C4A094F80C32A3B3D4F804620BEBC606D6F8EC0020F0AFF91FFA80F8D6F894
:204D0000F00020F0A9F91FFA80F9D4F808620BEBC606D6F8EC0020F09FF987B2D6F8F0000E
:204D200020F09AF99DF841209DF842309DF840108DF84C108DF84D208DF84E3000B20090D6
:204D400013A9019150460FFA88F10FFA89F23BB213F04CFD0C34A542C4D1DBF8C03201337B
:204D6000082B02D0CBF8C03217E00023CBF8C0329BF8BC3201338BF8BC320EE003F03F0163
:204D800003F00F031FE503F03F0103F00F034BE503F03F0103F00F0372E5142015B0BDE875
:204DA000F08F00BF00EDFF1FB8AAFF1FAFF3008070B410F0400F21D0C543EDB205F03F03C6
:204DC00005F00F050135114C1B115B00E618767805FB06F5E35C03EB2515EDB210F0800F34
:204DE0000EBFEBB26B42DBB283F08003501AC0B200FB03F001EB2021C8B204E000F03F0392
:204E000000F00F05DFE770BC704700BF34A3020070B44030C3B213F0400F21D0DD43EDB242
:204E200005F03F0005F00F050135114C001140002618767805FB06F5205C00EB2515EDB2EA
:204E400013F0800F0EBFEBB26B42DBB283F08003501AC0B200FB03F001EB2021C8B204E0D1
:204E600003F03F0003F00F05DFE770BC704700BF34A30200F0B5A1B00446C0F8041C09296E
:204E800003DD0023C0F8043C14E0002903DA0923C0F8043CFFE0092900F20B81DFE811F0A2
:204EA0000A001F00340049005E0073009A00AF00C400FB008049234601F1400551F8042F8E
:204EC000100C83F8390C100A83F83A0C83F83B2C0333A942F2D1794BC4F86C3CE9E07849A3
:204EE000034601F1400551F8042F100C83F8390C100A83F83A0C83F83B2C0333A942F2D139
:204F0000704BC4F86C3CD4E06F49034601F1400551F8042F100C83F8390C100A83F83A0C53
:204F200083F83B2C0333A942F2D1684BC4F86C3CBFE06749034601F1400551F8042F100C2D
:204F400083F8390C100A83F83A0C83F83B2C0333A942F2D15F4BC4F86C3CAAE05E49034668
:204F600001F1400551F8042F100C83F8390C100A83F83A0C83F83B2C0333A942F2D1574B5F
:204F8000C4F86C3C95E000238DF80C308DF80D308DF80E30FF238DF808308DF809308DF8AD
:204FA0000A3004A8102103AA02AB14F053FF04AF04F639450DF1400C3E460FCE2860696003
:204FC000AA60EB60374610356645F5D1444BC4F86C3C6EE04349034601F1400551F8042F80
:204FE000100C83F8390C100A83F83A0C83F83B2C0333A942F2D13C4BC4F86C3C59E03B498C
:20500000034601F1400551F8042F100C83F8390C100A83F83A0C83F83B2C0333A942F2D117
:20502000334BC4F86C3C44E000228DF84C208DF84D208DF84E208DF848208DF84920FF2375
:205040008DF84A308DF844208DF845308DF846308DF840308DF841308DF8423011AB009342
:2050600010AB019314A8102113AA12AB14F010FF14AF04F639450DF1800C3E460FCE2860B9
:205080006960AA60EB60374610356645F5D1194BC4F86C3C0DE0002009211BF06DFB014606
:2050A0002046FFF7E7FE0923C4F8043C124BC4F86C3C21B0F0BD00BF78E70200C8A40200BA
:2050C00038E70200D0A4020038E80200D8A40200B8E80200E0A40200F8E70200E8A4020002
:2050E000F0A4020078E80200F8A40200B8E7020000A5020008A502000CA5020038B5044639
:205100000D4642F27C73C3580B44232B04DD002242F27C73C25009E0002B03DB42F27C7215
:20512000835003E0232242F27C73C250174BD3F8043C092B03D115480921FFF79BFE04F5BB
:205140001E53186810B103681B69984742F27C73E35803F51E6304EB8303586804F51E5359
:20516000186010B10368DB689847094B1B785BB904F51E5204F1640312689A4204D12368F3
:205180009B6920462946984738BD00BF00EDFF1FAC28002010B50446D0F8A8321944262947
:2051A00003DD0023C0F8A83206E00029AEBFC0F8A8122623C0F8A8320A4BD3F8043C092BFD
:2051C00003D108480921FFF755FED4F8A832DA1C04F1100304EBC20494E8030083E80300F2
:2051E00010BD00BF00EDFF1F10B50446D0F8A8321944262903DD0023C0F8A83206E0002917
:20520000AEBFC0F8A8122623C0F8A8320A4BD3F8043C092B03D108480921FFF72BFED4F807
:20522000A83203F12A0204F1100304EBC20494E8030083E8030010BD00EDFF1F70B5044683
:205240000E4642F27C73C3580B44232B04DD002242F27C73C25009E0002B03DB42F27C72D3
:20526000835003E0232242F27C73C250184BD3F8043C092B03D116480921FFF7FBFD42F2DE
:205280007C73E55804F51E53186810B103681B69984742F27C73E55005F6042504EB850574
:2052A000686804F51E53186010B10368DB689847084B1B785BB904F51E5204F164031268B5
:2052C0009A4204D123685B6920463146984770BD00EDFF1FAC28002038B505460C4608460E
:2052E00031491BF04FFB20B128460021FFF7C2FD38BD20462D491BF045FB20B1284601214D
:20530000FFF7B8FD38BD204629491BF03BFB20B128460221FFF7AEFD38BD204625491BF0FD
:2053200031FB20B128460321FFF7A4FD38BD204621491BF027FB20B128460421FFF79AFD64
:2053400038BD20461D491BF01DFB20B128460521FFF790FD38BD204619491BF013FB20B1DA
:2053600028460621FFF786FD38BD204615491BF009FB20B128460721FFF77CFD38BD204626
:2053800011491BF0FFFA20B128460821FFF772FD38BD20460D491BF0F5FA18B128460921D6
:2053A000FFF768FD38BD00BFC8A40200D0A40200D8A40200E0A40200E8A4020014A50200AD
:2053C000F8A4020000A5020008A502000CA502002DE9F043A9B04D4C23685B6820464C49A2
:2053E0000122984720461BF003F923685B68204648490B22984720460A211BF045F9236888
:205400005B68204644490122984720461BF0F0F823685B68204641490E22984720461BF0BD
:20542000E7F868463E491BF0FDF904A83D491BF0F9F908A83C491BF0F5F90CA83B491BF0B7
:20544000F1F910A83A491BF0EDF914A839491BF0E9F918A838491BF0E5F91CA837491BF092
:20546000E1F920A836491BF0DDF924A835491BF0D9F923685B682046334905229847204667
:2054800069461BF08FF804ADE8460DF1A0092F4F2D4E1AE01D4C20462D49FDF7C9FE2368C7
:2054A0005B6820462B490322984720461BF0A0F823685B68204628490122984720461BF0AA
:2054C00097F824ACA8F1100816E023685B68204639460222984720461BF08AF823685B684F
:2054E0002046314605229847204629461BF05AF810354D45E9D1CDE720461BF047F9103C55
:205500004445F9D129B0BDE8F08300BFE056002020A5020024A5020030A5020034A50200EE
:20552000C8A40200D0A40200D8A40200E0A40200E8A4020014A50200F8A4020000A50200F5
:2055400008A502000CA5020044A5020054A5020048A502004CA5020050A5020030B4002323
:205560000468E218E55C01FB05F52D12E554547804FB01F424125470947804FB01F4241226
:2055800094700333B3F5406FEAD130BC704700BF2DE9F04F8BB00390BC48F021FFF7DEFF52
:2055A000BB4906914FF0000B8A46039A108A1FF039FB05460AEB0B095BF80A101FF086FB6B
:2055C0001FF04AFD039B1C89204484B22846D9F804101FF07BFB1FF03FFD039A51890144B9
:2055E000204689B2928915F0FBFB064610F0400F00F0A281C043C0B200F03F0300F00F00A0
:205600000130A44A1B115B00D118497800FB01F0D35C03EB2010C0B216F0800F18BF4042A1
:20562000C0B280F080001FF0F9FA1EF0BBFE00224FF07E531EF00AFF0022974B1EF052FD95
:205640001FF0E6F98046069CA06006F14003DBB213F0400F00F07581D843C0B200F03F0237
:2056600000F00F0001308B49121152008D186D7800FB05F08A5C02EB2010C0B213F0800F30
:2056800018BF4042C0B280F080001FF0C7FA1EF089FE00224FF07E531EF0D8FE00227E4BE9
:2056A0001EF020FD1FF0B4F9054600F10043E3600AEB0B07404639691FF000FA8046B8602B
:2056C000786929461FF0F8F905460AF108075F447860E469404641461FF0F8FA804628461B
:2056E00029461FF0F3FA014640461FF0E7F90546204621461FF0EAFA014628461FF0A2FC16
:2057000000286ED028461EF04DFE1CF05FFD1FF07FF900211FF06EFC002841D10AEB0B0396
:205720000793D3F80880DD68404641461FF0CEFA0490404641461FF0C9FA8046284629463D
:205740001FF0C4FA014640461FF0B8F91EF02AFE1CF03CFD1FF05CF91EF024FE02460B4647
:2057600000204D491EF09CFFCDE90401079988681EF018FE02460B46DDE904011EF066FE85
:205780001FF046F9079A906078681EF00BFE02460B46DDE904011EF059FE1FF039F9786051
:2057A00020461EF0FFFD04460D460AEB0B08D8F808001EF0F7FD02460B46204629461EF07E
:2057C00045FE1FF025F9C8F8080078681EF0EAFD02460B46204629461EF038FE1FF018F9EA
:2057E00078600AEB0B045BF80A00A1681FF066F907464BF80A00D9F80400E1681FF05EF9DB
:205800000546C9F8040020691EF0CCFD002200231EF01CFE1FF0FCF820610AF110045C4478
:2058200060681EF0BFFD002200231EF00FFE1FF0EFF860601549039A937CF21891F8083CDF
:20584000009309A801F60941D2B2FF2314F08AFC9DF825209DF826309DF824108DF8201050
:205860008DF821208DF8223038461FF0F5FB04B228461FF0F1FB02B20848214608AB12F0CF
:2058800069FE5BF80A402046002109E000EDFF1F182C002034A302000000F03FB8AAFF1F9D
:2058A0001FF0B2FB90B920464FF084411FF0C0FB60B9D9F80440204600211FF0A5FB28B96A
:2058C00020464FF084411FF0B3FB48B120201AF047FF1FF0A3F94AF80B000023C9F8043008
:2058E0000BF1340B069934310691BBF5026F7FF45CAE1E4B1B6813F0010F0CD11B4819F0EC
:20590000FFFB40B11A4B1A681A4B1A60C8225A60164819F0FBFB164B1968164B1A688A1A6C
:205920005B689A4212D3124B1A68124B1A60039A937C0133937409E000F03F0300F00F002C
:205940005FE603F03F0203F00F008CE60399CB890A891A440A814A891A444A818A89134488
:205960008B8132200BB0BDE8F08F00BFEC9FFF1FE0550020B89FFF1F2DE9F04FA1B006907C
:2059800090F8A432002B3FD1012380F8A432002002211AF0F1FEA54C0026DFF8A4B227460F
:2059A0000025DFF8B0824FF0814A4FF082490020FF211AF0E1FE0020FF211AF0DDFE3046E1
:2059C0001FF030F92060C4F804B0E31B07F108029D501A44556007F110029D5013445D6094
:2059E000C4F81880C4F81C80C4F820A0C4F82490002384F828301C9BE362012384F830301C
:205A00001E443434202ED2D18948AA21FFF7A6FDDFF818B24FF0000AD146844B03EB0901CE
:205A200005914A680792CE680F694D695C46DBF818300A93DBF81C100491DBF820200B9283
:205A4000DBF824300C939BF828100D91DBF82C200E929BF830300F9350461FF0E3F880467D
:205A60003846069AD2F894121FF028F802902846069BD3F898121FF021F803906D4B83FB62
:205A80000A134FEAEA72C2EB6303DBB26A4A52F8235006998A7A12B1684A52F823500798CF
:205AA00067491FF0A7FA08B328461EF069FC0022644B1EF0CBFC1EF063FF29461AF05CFE01
:205AC0001FF0B0F800F100405F491FF0B3F90546069AC2F8A0020298D2F89C121EF0EEFF27
:205AE0000290039829461EF0E9FF0390029800211EF0E4FF0546304603991EF0DFFF064640
:205B0000284629461FF0E2F80746304631461FF0DDF8014638461EF0D1FF074604980146CE
:205B20001FF0D4F8014638461FF08CFA002851D038461EF037FCCDE908011CF047FB1EF00D
:205B400067FF00211FF056FA38BBDDE908011CF03DFB1EF05DFF1EF025FC02460B46002007
:205B60003A491EF09DFDCDE9080128461EF01AFC02460B46DDE908011EF068FC1EF048FF7A
:205B8000054630461EF00EFC02460B46DDE908011EF05CFC1EF03CFF064604981EF002FC21
:205BA000CDE9080128461EF0FDFB02460B46DDE908011EF04BFC1EF02BFF054630461EF0EE
:205BC000F1FB02460B46DDE908011EF03FFC1EF01FFF0646404629461EF070FF80460798D9
:205BE00031461EF06BFF074602981EF0DBFB002200231EF02BFC1EF00BFF029003981EF01E
:205C0000D1FB002200231EF021FC1EF001FF039040464FF084411FF00BFAE8B128460C49AD
:205C20001FF054F80546DFF8188021E0182C002000EDFF1F67666666E4ECFF1F20FAFF1F20
:205C40000000F8410000E83F000070440000F03FCDCC4CBE00002041404600211FF0D4F97A
:205C600030B128463A491FF031F805464FF0000838464FF084411FF0DBF930B1304634494F
:205C80001FF024F80646334F0AE0384600211FF0BBF928B130462E491FF018F80646002767
:205CA0002D4B49F8038005994F6003EB09029560D660029911611346039A5A610A9BA361D0
:205CC0000499E1610B9A22620C9B63620D9984F828100E9AE2620F9B84F830301D483946A0
:205CE0001EF0EAFE1D491EF0F1FF1FF0DBF9C2B21B4B93F8083C00931FA81A49FF2314F0DB
:205D000031FA9DF87D209DF87E309DF87C108DF878108DF879208DF87A3040461FF09CF93E
:205D200004B238461FF098F902B20F4821461EAB12F010FC0AF1010A09F134090BF1340BCE
:205D4000BAF1200F7FF469AE21B0BDE8F08F00BFCDCC4CBE0000F841182C00200000E040CB
:205D600000EDFF1F09F9FF1FB8AAFF1F2DE9F84F1B4D6FF00E0ADFF878B0DFF87890DFF887
:205D80007880184FDBF8006006FB0AF60024A4F10F01D9F8000030443B68D8F8002002FBD2
:205DA0000131114B1A6814F09FFD104B1B78C0F307205A42D2B202FB00F02A5D03FB02F3E4
:205DC0001B1203EB20232B550134202CDFD10AF1010A2035BAF1110FD4D1BDE8F88F00BFFE
:205DE0002CA0FF1F38A4FF1FC0A6FF1F14A0FF1F30A4FF1FB8A6FF1F34A4FF1F00B587B019
:205E0000002302930748694615F080FD28B1142019F026FC034815F009F9029807B05DF81A
:205E200004FB00BF7C28002010B5FFF7E7FF044620B1FFF7E3FF8442FBD001E0002010BDED
:205E4000204610BD10B50446FFF7EEFF034678B91E4B1A681E4B1B68D21A1E4B1B689A4218
:205E600030D31D4B186800282FD000221A6010BD164A1168164A116020F000416FF000420B
:205E8000914215D1114B1A68144B1B68D21AA24205D30122124B1A700F4B186810BD9BB9DC
:205EA00000200F4B1870094B1A680C4B1A6010BD064A1168094A11600020094A1070064A9C
:205EC000136010BD002010BD002010BDE0550020A82800201096FF1FCCFFFF1F18A0FF1FE0
:205EE000C0ECFF1F0023034A1360034A1370034A13607047CCFFFF1FC0ECFF1F18A0FF1F25
:205F00009C4B1B78002B75D09B4B98426ED027D8A3F55F53083B984260D010D8974B98425F
:205F20004ED004D8A3F5FF63984255D062E0944B98423FD003F5FF63984255D05AE0914BF5
:205F4000984247D004D8A3F57F63984250D051E08D4B984238D003F5FF6398422CD049E0BC
:205F60008A4B98422ED011D8A3F5FF53984239D004D8A3F5FF63984222D03BE0844B984258
:205F800026D003F57F63984220D033E0814B98420ED004D8A3F57F6398420FD02AE07E4BEE
:205FA00098421DD003F5FF63984200F0D98021E0022070470420704705207047062070472F
:205FC00008207047092070470A2070470D2070470E2070470F2070471020704711207047A3
:205FE0001520704713207047172070471420704716207047694B1B78002B37D0684B9842FF
:2060000030D012D8674B984222D005D8A3F57F63984200F0A78029E0634B98421CD003F55B
:206020005F53083398421FD020E0604B98420DD004D8A3F5FF5398420CD017E05C4B984254
:206040000CD003F5FF5398420AD00FE002207047042070470520704706207047072070472C
:2060600008207047092070470A207047514B1B78002B4CD0504B98423FD018D8A3F5CF43EC
:20608000183B98423DD009D8A3F5BF53083B98422FD003F57F63984225D038E0474B9842F2
:2060A00025D003F51F53183398421AD02FE0444B984220D009D8A3F51F53183B984214D00E
:2060C00003F5FF5398424FD021E03E4B98421AD003F5FF63984218D0A3F57F63984216D1D8
:2060E0000DE00220704704207047052070470620704708207047092070470A2070470D2079
:2061000070470E2070470F207047102070472E4B1B785BB32D4B98421CD009D8A3F57F5373
:20612000984215D003F53F531033984216D00DE0274B984208D003F57F63984218D0A3F5CE
:20614000FF53984202D107E002207047002070470420704705207047062070470720704737
:206160000320704703207047032070470020704703207047C895FF1FA758FD00F708FD006D
:20618000EF10FD00BF40FD00B748FD007788FD008F70FD005FA0FD0057A8FD006C95FF1FFC
:2061A0008778EF10EF10EF10DF20EF105FA0EF1027D8EF100C96FF1F7F808916C7388916ED
:2061C0003FC0891627D88916F395FF1FAF50FF005FA0FF0010B5044642491AF0D3FB002847
:2061E00060D1204640491AF0CDFB00285CD120463E491AF0C7FB002858D120463C491AF059
:20620000C1FB002854D120463A491AF0BBFB002850D1204638491AF0B5FB00284CD1204637
:2062200036491AF0AFFB002848D1204634491AF0A9FB002844D1204632491AF0A3FB00286B
:2062400040D1204630491AF09DFB00283CD120462E491AF097FB002838D120462C491AF0E8
:2062600091FB002834D120462A491AF08BFB002830D1204628491AF085FB00282CD12046E7
:2062800026491AF07FFB48BB204625491AF07AFB30BB204623491AF075FB00280CBF00206B
:2062A0000C2010BD022010BD032010BD042010BD052010BD062010BD072010BD082010BD47
:2062C000092010BD0A2010BD0D2010BD0E2010BD0F2010BD102010BD112010BD122010BDE6
:2062E0000B2010BD58A502005CA5020064A502006CA5020074A502007CA502008CA5020015
:2063000098A50200A0A50200BCA50200C4A50200CCA50200DCA50200ECA50200F4A5020005
:2063200008A6020014A602002DE9F00F82B08846019200F58F531B68002BC0F20E819146AC
:2063400000F58F5C0CF1040C00F58F531C3300F58E5204320EE008F1010500F590517C1EC2
:206360000C6017F8011C88F80010B9F1010900F0F080A84600F590510F6804318F42EAD8DE
:2063800041F2C81150F801A041F2D0114658B24525DA00F58E540C3400F58E5108311D68B7
:2063A00035B9156805F1010BC2F800B02D781D60156805F1010BC2F800B095F800B00BFAB9
:2063C0000AFB25684BEA050525600AF108050D601D68013D1D60D1F800A0B245DFDB41F265
:2063E000CC14015941FA06F50551C6EB0A0641F2C814065141F2D41406590E4000F58F5113
:206400000968B14200F0A08041F2DC114158B14221D141F2D8114458611C41F2D01541518B
:2064200004F2614450F8245041F2D4140551DCF8004041F2F0154451012404FA01F141F26B
:20644000E81401514FF0FF3141F2F814015141F2F41401518EE741F2F0114158B14214D147
:2064600041F2F411415800296EDB00F590547D1C2560397041F2F8114158DCF80040A1426D
:20648000A8BF00F5905504DA14E0B1425CDD3146F3E72C68671C2F60471807F5D0573F798C
:2064A000277001F5086100EB81014968DCF800408C42EEDD00F590552C68671C2F60CFB21A
:2064C000277041F2F014055941F2E8140459A54218DA41F2F81A50F80AA0BAF1000F11DB4E
:2064E00000EB050B0BF5D05B8BF8047005F1010B41F2F01740F807B005F5086500EB850578
:20650000C5F804A041F2F415415141F2F811465041F2F01141588C423FF72CAF41F2D011BA
:2065200041580A293FF726AF640041F2E81544514D1C41F2D014055101F2614150F8214047
:2065400041F2D411445015E700F58F504FF0FF330360019BC9EB030000E0002002B0BDE841
:20656000F00F704700B585B000F5166001A9062215F016FB01A8094906221FF007FE48B1F8
:2065800001A8074906221FF001FED0F1010038BF002000E0012005B05DF804FB80A30200C4
:2065A00088A3020070B5054600F51664204615F06FFA0646204615F06BFA46EA0020286007
:2065C000204615F065FA0646204615F061FA46EA00206860204615F05BFAA860204615F094
:2065E00057FA2861204615F053FAE86070BD00BF08B50146836813F0800F0ED003F0070379
:206600000133012202FA03F3836503EB430200F516605C3192B215F0C3FA08BDF0B599B065
:20662000064600238DF81C308DF81D308DF81E304E4807A912F084FB4D4B1B78002B00F068
:20664000938006F51577384615F0ECFA10B1384615F0DCFA01AC474D0FCD0FC495E80300AD
:2066600044F8040B2170444801A915F0E5FC00287AD010A8404901AA012315F04DFC9DF8BD
:20668000443086F85832129BC6F85C329DF84C3086F8603218AB53F8134D58689968C6F877
:2066A0006142C6F86502C6F869121B7B86F86D32179BC6F8703210A815F060FA384615F07A
:2066C000B1FA002850D0384615F060FA18B1384615F09CFA48E096F858E28DF824E0D6F8C1
:2066E0005C520A9596F860028DF82C00234B0893D6F86142D6F86512D6F86922CDF82D4062
:20670000CDF83110CDF8352096F86D128DF83910D6F870220F921A4C84F864E9C4F86859D1
:2067200084F86C09DDF82D60DDF83150DDF83500C4F86D69C4F87159C4F8750984F8791946
:20674000C4F87C2908A815F019FA2046FFF70AFF18B9384615F05AFA06E0094C2046FFF76C
:2067600021FF2046FFF744FF19B0F0BDB8AAFF1F00A0FF1F20A602004452002008EA020034
:20678000BCAAFF1F2DE9F04F87B0044600F5166500F65C06C3E3384615F07AF90546384672
:2067A00015F076F945EA00206061384615F070F90546384615F06CF945EA0020A061384668
:2067C00015F066F90546384615F062F945EA0020E061384615F05CF90546384615F058F9A5
:2067E00045EA00202062384615F052F96062C0F3801384F8283010F0800F0ED000F00703B7
:206800000133012202FA03F3A36503EB4302384604F15C0192B215F0C3F994F844309BB1D3
:20682000216BB1F1FF3F04F518600CBF217CC9B24FF480621EF0D8FF002384F84430A36474
:20684000E364202323656365A36B012B0AD900238DF810308DF811308DF81230AC4804A92B
:2068600012F06EFAA36B022B1FD194F83410A66CE06CD4F850E0636D00EB030C604538DAD8
:2068800006EB401505F67F15254406EB0E08464506DA05EB0E022B4603F8011F9342FBD11B
:2068A000013020356045F2D123E0032B21D104F5586004F51861D4F848E0E36C256D626D00
:2068C00003EB020C634514DA5A0110441144C3EB0C0C00267544F046AE4505DA4346C25CCE
:2068E000CA540133AB42FAD10136203020316645F2D1E26BA26382B36669A664A369E36495
:20690000E5692565216A6165022A06D1236BB3F1FF3F08BF236963631FE0032A1DD104F5AF
