:1000000000800020BD01000011C0000011C00000F0
:1000100011C0000011C0000011C00000DDBF0000D1
:10002000DDBF0000DDBF0000DDBF000011C000002B
:1000300011C00000DDBF000011C00000CDBF0000F6
:1000400011C0000011C0000011C0000011C000006C
:1000500011C0000011C0000011C0000011C000005C
:1000600011C0000011C0000011C0000011C000004C
:1000700011C0000011C0000011C0000011C000003C
:1000800011C0000011C0000011C0000011C000002C
:1000900011C0000011C0000011C0000011C000001C
:1000A000C5B8000011C0000011C0000011C0000060
:1000B00011C0000011C0000011C0000011C00000FC
:1000C00011C0000011C0000011C0000011C00000EC
:1000D00011C0000011C0000011C0000011C00000DC
:1000E00011C0000011C0000011C0000011C00000CC
:1000F00011C0000009D8000011C0000085DC00001C
:1001000011C0000035E0000011C0000011C0000067
:1001100011C0000011C0000011C0000011C000009B
:1001200011C0000011C0000011C0000011C000008B
:1001300011C0000011C0000011C0000011C000007B
:1001400011C000002993000011C0000011C0000080
:1001500011C0000011C0000011C0000011C000005B
:1001600011C00000E9C6000011C0000011C000006D
:1001700011C0000011C0000011C0000011C000003B
:1001800011C0000011C0000011C0000011C000002B
:1001900011C0000011C0000011C000006DC10000BE
:1001A000BDC1000045C2000001C3000085C30000BE
:1001B00011C0000011C0000011C00000544B4CF2EF
:1001C000205210B51A804DF628121A8000BF00BFC9
:1001D0000BF022FF4F4B4FF010621A604E4A9A60AC
:1001E0004E4ADA604E4B1A6812F4807204D14D49BF
:1001F0000A604FF4A8521A604B4B1A7802F00802BA
:10020000D2B21AB11A7842F008021A70474B484825
:10021000484C2A221A700023474A02E01959995083
:10022000043399188142F9D3444B454A002101E037
:1002300043F8041B9342FBD34249434800231A5816
:100240005A500433B3F5DE7FF9D1404B404A802148
:1002500003F8011B9342FBD13A4A3E4B1A603E4BD6
:100260000A221A703D4B24221A70A02203F8012C96
:100270003B4A137803F00203DBB2002BF9D0384A73
:10028000137803F01003DBB2002BF9D1344A137852
:1002900003F00C03082BFAD1324B03221A704022D0
:1002A0005A702F4A137803F02003DBB2002BF9D0E9
:1002B0002B4A137803F04003DBB2002BF9D02A4B12
:1002C0002A4A1A6002225A60294B20221A70244AB4
:1002D000137803F00C030C2BFAD1264A264B1A6034
:1002E000264B4BF67F321A60072243F8042C62B685
:1002F0000CF0ECF80B4B1B68DC0702D520480CF027
:1003000059F810F035FA0BF08DFE0CF01DFFFEE7EA
:100310000E20054030800440823F04000100002B85
:1003200010D0034014D0034002D0074000E0074043
:10033000049CFF1FD4AF01006095FF1F049CFF1FAA
:10034000E44200200090FF1F0000000000E400E0F5
:100350005FE400E008ED00E0005006400140064088
:10036000064006400440064044800440000003115B
:1003700000400640C01005000480044014E000E086
:1003800000DD6850FFFFFFFFFFFFFFFFFFFFFFFFE4
:10039000FFFFFFFFFFFFFFFFFFFFFFFFFFFFFFFF6D
:1003A000FFFFFFFFFFFFFFFFFFFFFFFFFFFFFFFF5D
:1003B000FFFFFFFFFFFFFFFFFFFFFFFFFFFFFFFF4D
:1003C000FFFFFFFFFFFFFFFFFFFFFFFFFFFFFFFF3D
:1003D000FFFFFFFFFFFFFFFFFFFFFFFFFFFFFFFF2D
:1003E000FFFFFFFFFFFFFFFFFFFFFFFFFFFFFFFF1D
:1003F000FFFFFFFFFFFFFFFFFFFFFFFFFFFFFFFF0D
:10040000FFFFFFFFFFFFFFFFFFFFFFFFFEFFFFFFFD
:1004100008B549F60440074BC1F6FF701B1A062BBE
:1004200000D808BD40F20003C0F20003002BF8D052
:100430009847F6E7079CFF1F08B549F6044049F6C0
:100440000443C1F6FF70C1F6FF731B1A9B1003EB48
:10045000D373591000D108BD40F20002C0F200026F
:10046000002AF8D09047F6E710B549F60444C1F6E3
:10047000FF74237873B9FFF7CBFF40F20003C0F29B
:1004800000032BB14AF6D470C0F20100AFF3008034
:100490000123237010BD00BF08B540F20003C0F275
:1004A00000034BB14AF6D47049F60841C0F201008E
:1004B000C1F6FF71AFF3008049F60440C1F6FF704A
:1004C00003682BB140F20003C0F2000303B1984768
:1004D000BDE80840B0E700BF00F4804292B210B51A
:1004E000C0F3CA031AB1C3F5FF6307339BB21A0AFC
:1004F000074C0849895C34F81220C3F3460303FB18
:1005000001239BB2020454BF1846584200B210BDEA
:10051000626B0100986B010000F0400310B503F01E
:10052000FF010BB1C34300E0034603F03F0203F0B9
:100530000F0301B101330A49121152008C188A5C71
:10054000647814FB03F302EB23130106DBB201D43E
:10055000D8B201E05842C0B280F0800010BD00BFA8
:1005600018690100010601D5C043C0B24000C0B205
:10057000C3B21A0648BF80F0FF00421CD2B210FB83
:1005800002F0C00900F0FE001B0648BF80F0FF002B
:100590007047002070470020704770477047012067
:1005A0007047012070470369C918002900DD02E087
:1005B00001D1016101E000230361036900EB8303C2
:1005C0005B6983617047704700230372704700F5D1
:1005D0006E5008B5806810B103681B69984708BD64
:1005E00000F56E5008B5806810B10368DB68984765
:1005F00008BD00F56E5310B55A68891815290446D0
:1006000001DD002204E0002901DB596001E0152230
:100610005A60986810B103681B69984704F56E53D7
:100620005A6802F6E26204EB82046068986010B1D6
:100630000368DB68984710BD00F56E5008B5806808
:1006400003689B68984708BD044B10B504460360D7
:1006500000F5887009F0BCFB204610BDB0640100B5
:10066000044A10B5044640F8102B09F0B1FB2046AF
:1006700010BD00BFD064010010B5044600F516603F
:1006800009F0A6FB204610BD10B500F58874204681
:1006900009F0E3FB20B12046BDE8104009F0D1BBD2
:1006A00010BD10B500F11004204609F0D6FB20B1B2
:1006B0002046BDE8104009F0C4BB10BD37B5054663
:1006C00005F5A055002406488DF8044001A98DF8D1
:1006D00005408DF8064007F0A9F82C613EBD00BF2B
:1006E0008C1C002037B50546002406488DF80440D0
:1006F00001A98DF805408DF8064007F097F8C5F878
:1007000018493EBD8C1C002013B5002405488DF807
:10071000044001A98DF805408DF8064007F086F8E1
:1007200020461CBD8C1C00202DE9F7438046002488
:100730001B4F4FEAC4090F260025102D4FF0FF0371
:10074000C8BF8DF8013000A8C8BFC6F10D0301A9CC
:10075000D8BF8DF801608DF802308DF8009008F058
:100760005EFA9DF804203B7F9A420ED19DF8052049
:100770007B7F9A4209D19DF80620BB7F9A4204D123
:10078000C8F80840C8F80C5007E001350F36202D96
:10079000F6B2D2D101341F2CCAD1BDE8FE8300BF0E
:1007A000701E002010B50421044600200CF081FDCD
:1007B0000321A07301200CF07CFDE06110BD10B599
:1007C0000121044600200CF074FD002800DD02E049
:1007D00001D1206101E000232361A06910B1036809
:1007E0001B699847236904EB83035869A06110B122
:1007F0000368DB68984710BD1F29D4BF21EAE17167
:100800001F211F28D4BF20EAE0701F2000EB4110F9
:10081000704737B50D7B044600950D3108F0FBF8A5
:1008200020463EBD2DE9F74F05460024484F85E0A0
:1008300031462046FFF7E0FFD5F808340AFB03F302
:1008400005EB000893FBF9F10020023198F808B09D
:100850000CF02FFDC0B2C0EB0B0B01362BEAEB7B8B
:10086000202E88F808B0E3D100264FF00308314667
:100870002046FFF7C1FF0136824631462046FFF78A
:10088000BBFF711C81462046FFF7B6FF05EB09024E
:100890002818127A017A05EB0A0302EB410292FB57
:1008A000F8F2202E1A72E2D1FF200CF0F7FCD5F8F6
:1008B0000C3498420ED21F212046FFF79DFF2E18C0
:1008C000FF2196F80880A0200CF0F3FC434683FA41
:1008D00050F3337200264FF0030831462046FFF7ED
:1008E0008BFF2B181B7A19011A02521AC2F3072226
:1008F0003AB9396808FB00F00B180A545A709A701C
:1009000016E008FB00FAFF2301A81149D7F800B050
:10091000FFF77FFF9DF804300BEB0A090BF80A3054
:100920009DF8053089F801309DF8063089F80230CD
:100930000136202ED1D10134202C05D000264FF0D5
:100940000A0A4FF0200973E70F20BDE8FE8F00BFB1
:10095000BC1A00202DE9F04F044685B000254FF069
:100960000D0B0BFB05FC04EB451A00262089618961
:10097000A289CDF800C060440BFB061189B280B299
:1009800008F054FC0AEB060203469073194A3146FC
:10099000284617680193FFF72FFF621902EB4612F2
:1009A0004FF0030909FB00F9019B1249927B03A850
:1009B000FFF72FFF9DF80C3007EB090807F8093007
:1009C0009DF80D3088F801309DF80E30013688F81A
:1009D0000230202EDDF800C0C8D10135202DBED157
:1009E000238901332381A3890133A381002005B02A
:1009F000BDE8F08FBC1A00202DE9F74F90F80834BD
:100A0000053380F8083490F80934023380F809344B
:100A100090F80A34033380F80A3490F80B34043326
:100A2000044680F80B340546002695F80804FFF7C5
:100A300073FD00B24301181A0012013685F80C0448
:100A40000135042EF1D194F80D3494F80C04C0183B
:100A500094F80E34C018032390FBF3F01F21FFF726
:100A6000CBFE2518FF212E7AA0200CF022FC334665
:100A700083FA50F33E4F2B7200256FE03146284633
:100A8000FFF7BAFED4F810340AFB03F304EB0008B6
:100A900093FBF9F10020023198F808B00CF009FC42
:100AA000C0B2C0EB0B0B01362BEAEB7B202E88F893
:100AB00008B0E3D100264FF0030831462846FFF77F
:100AC0009BFE0136824631462846FFF795FE711C93
:100AD00081462846FFF790FE04EB09022018127A9F
:100AE000017A04EB0A0302EB410292FBF8F2202E9A
:100AF0001A72E2D100264FF0030831462846FFF76C
:100B00007BFE23181B7A19011A02521AC2F307221C
:100B10003AB9396808FB00F00B180A545A709A70F9
:100B200016E008FB00FAFF2301A81149D7F800B02E
:100B3000FFF76FFE9DF804300BEB0A090BF80A3043
:100B40009DF8053089F801309DF8063089F80230AB
:100B50000136202ED1D10135202D05D000264FF0B1
:100B60000A0A4FF0200989E70F20BDE8FE8F00BF79
:100B7000BC1A0020074B5A8A801802B2511C02DAB4
:100B80004FF6FF7204E0172A01DC588270471722E3
:100B90005A827047981E002010B503785F2B88B0EA
:100BA000014623D07E2B21D02E2B1FD004A80CF081
:100BB000CBFB04A80CF024FC014668460CF0DFFBDC
:100BC00004A80CF080FB04A80A490CF0BDFB04A9A2
:100BD00068460CF0FFFB044604A80CF074FB601E92
:100BE0004442444168460CF06EFB00E0002420467D
:100BF00008B010BD4069010010B1012819D10AE008
:100C00000C4B9A788918C9B21829997088BF9870C6
:100C100008480AF0D9BF074B5A788918C9B23B294E
:100C200001D95870F4E759700029F1D13B225A706C
:100C3000EEE77047AC1A002013B5044609F073F8CC
:100C40008DF80600204609F06EF88DF80700BDF813
:100C500006001CBD094B10B50360094B0446C0F8E3
:100C6000243800F624100CF02EFB064B04F60C0082
:100C7000C4F8FC370CF027FB204610BDF8640100D7
:100C800028690100806B010038B5044608460D460E
:100C90000BF0F0F9236802465B6820462946984726
:100CA00038BD08B5FFF7F0FF08BD38B50446FFF7BB
:100CB000EBFF054620460CF061FA281838BD38B520
:100CC0000A22002304460CF067FA054620460CF081
:100CD00055FA281838BD10B502780C7882FA54F20B
:100CE00002704C78427882FA54F2427089788278A5
:100CF00082FA51F2827010BD027812FB01F21212D8
:100D00000270427812FB01F212124270827812FBDA
:100D100001F10912817070470278002362F3070322
:100D2000427862F30F23827862F3174382B0184649
:100D300002B070471FB5002402A88DF808408DF856
:100D400009408DF80A40FFF7E7FF8DF80000C0F377
:100D50000723C0F307408DF802008DF80130009B97
:100D6000054804A921F8043D1B0C8DF80E3006F04F
:100D70005DFD204604B010BD8C1C00201FB5002472
:100D800002A88DF808408DF809408DF80A40FFF759
:100D9000C3FF8DF80000C0F30723C0F307408DF8B0
:100DA00002008DF80130009B054804A921F8043D9C
:100DB0001B0C8DF80E3006F039FD204604B010BD36
:100DC0008C1C00201FB5002402A88DF808408DF867
:100DD00009408DF80A40FFF79FFF8DF80000C0F32F
:100DE0000723C0F307408DF802008DF80130009B07
:100DF000054804A921F8043D1B0C8DF80E3006F0BF
:100E000015FD204604B010BD8C1C00201FB5002429
:100E100002A88DF808408DF809408DF80A40FFF7C8
:100E20007BFF8DF80000C0F30723C0F307408DF867
:100E300002008DF80130009B054804A921F8043D0B
:100E40001B0C8DF80E3006F0F1FC204604B010BDEE
:100E50008C1C00201FB5002402A88DF808408DF8D6
:100E600009408DF80A40FFF757FF8DF80000C0F3E6
:100E70000723C0F307408DF802008DF80130009B76
:100E8000054804A921F8043D1B0C8DF80E3006F02E
:100E9000CDFC204604B010BD8C1C00201FB50024E2
:100EA00002A88DF808408DF809408DF80A40FFF738
:100EB00033FF8DF80000C0F30723C0F307408DF81F
:100EC00002008DF80130009B054804A921F8043D7B
:100ED0001B0C8DF80E3006F0A9FC204604B010BDA6
:100EE0008C1C0020FFFFFFFF2DE9F04F8DB0002488
:100EF000064607A88DF81C408DF81D408DF81E4051
:100F0000FFF70AFF8DF81000C0F30723C0F3074076
:100F10008DF812008DF81130049B6D480CA921F852
:100F2000043D1B0C8DF82E3006F080FC73690133F4
:100F30000AD120200CF0B2F9F06020200CF0AEF9BC
:100F4000AA233061B3607461D6F814A0BAF1000F1F
:100F500021D16049327AB589348AFF2308A8FFF786
:100F600058FC08A8FFF7D8FE8DF81000C0F307233F
:100F7000C0F307408DF811308DF812000CAB0498C7
:100F800023F8040D000C8DF82E000093504829B270
:100F900022B2534689E0B3699A4580F28B80B6F855
:100FA0000CC0F069CDF80CC00EF044FD0446AAF167
:100FB00002000D460EF02CFD02460B462046294647
:100FC000377AB6F810B00DF019FA3FA3D3E9002331
:100FD0000EF084FD0FF044F83A46C3B23D4909A82B
:100FE000FFF717FC09A8FFF797FE8DF81000C0F374
:100FF0000723C0F307408DF812008DF81130049BD1
:1010000033480CAF0FFA8BF227F8043DDDF80CC023
:1010100000971B0C8DF82E300FFA8CF11FFA8AF313
:1010200006F031FBD6F81480B8F1030F3FDDF0690C
:10103000B6F80C90B6F810B096F808A00EF0FAFCCE
:101040000446A8F102000D460EF0E2FC02460B46F3
:10105000204629460DF0D2F91BA3D3E900230EF058
:101060003DFD0EF0FDFF1B49C3B252460AA8FFF733
:10107000D0FB0AA8FFF750FEC0F307238DF810003D
:10108000C0F307408DF812008DF81130049B104812
:10109000ADF82C301B0C8DF82E30A8F1030300970F
:1010A0000FFA89F10FFA8BF29BB206F0ECFA736932
:1010B000013301E04FF0FF33736132200DB0BDE822
:1010C000F08F00BFAFF300800000000000E06F4031
:1010D0008C1C0020BC1A00202DE9F04F8DB000269A
:1010E00008A88DF820608DF821608DF82260FFF748
:1010F00013FE8DF81800C0F30723C0F307408DF8E6
:101100001A008DF81930069B48480CAC012524F8CC
:10111000043D1B0C21468DF82E3006F087FBFF2185
:1011200030460CF0C6F84249C2B2FF2309A8FFF7C7
:1011300070FB67E0002002218DF828708DF829707F
:101140008DF82A700CF0B5F801280BD19DF82430E9
:101150008DF828309DF825308DF829309DF82630FF
:101160008DF82A300AA8FFF7D7FD8DF81800C0F3D4
:101170000723C0F307408DF81A008DF81930069B3D
:10118000DDF80CE023800AF104091B0C0FFA8AF841
:101190000FFA89F9A3702548CDF8009001940FFA51
:1011A0008BF142460FFA8EF306F020FB022E1DD083
:1011B0000AA8FFF7B1FD8DF81800C0F30723C0F3AC
:1011C00007408DF81A008DF81930069BDDF810E005
:1011D00023801B0CA370059BCDF8009019B20194DD
:1011E000124842460FFA8EF306F000FB0AF1060C95
:1011F0001FFA8CFABAF11F0F9CD101360635032E67
:10120000ADB20ED0C5F11A0305F1040A0593C5F17C
:101210001E03CDF80CA0AB4604934FF0010A002743
:1012200088E74FF4FA600DB0BDE8F08F8C1C002009
:10123000BC1A00202DE9F04FD0F80C588BB00446B2
:101240000DB1002667E007A88DF81C508DF81D50E1
:101250008DF81E50FFF760FD8DF81000C0F30723D6
:10126000C0F307408DF812008DF81130049B6E48D2
:101270000AA9274621F8083D1B0C8DF8223004F5F9
:10128000006906F0D3FA12E064200CF007F8D4F8F5
:101290000828904207EB06032CBF2A464246023636
:1012A000402E1A725D72EFD140374F45C9D00026EB
:1012B0004FF00108E8E75D48294607683046FFF728
:1012C0009BFA0AEB450309FB00FB1B7A012B07EB9A
:1012D0000B0807D109A8554994F80C28FF23FFF7FC
:1012E00098FA06E000238DF824308DF825308DF82B
:1012F00026309DF8243007F80B309DF82530013555
:1013000088F801309DF82630202D88F80230D2D19F
:101310000136202E5BD0019404EB861A00254FF095
:101320000309C8E7391806EB02090D7A09F1040927
:101330004D720395551C05F01F0814F819A002956D
:101340000BEB0809009D09F1040902F11F0CAA1812
:10135000043214F819900CF01F0CD14414F812A0A8
:101360000BEB0C020432D14414F81220914406EB2A
:1013700008020432A84408F1040814F8122014F8F2
:1013800018804A44424405EB0C0808F10408B444B0
:1013900014F818800CF1040C424414F81C804244E8
:1013A000032A03D1039D0DB901254D72023A012A8A
:1013B00004D90A7A012A01D100224A72029A023023
:1013C000202AAFD101334037202B02D11DE0274620
:1013D000002303F11F055E1C05F01F05002006F029
:1013E0001F066D01024676014FEA431B009599E7FF
:1013F000019DE9180233487A402B0872F8D1013276
:101400004035202A019501D102E000220023EFE7B8
:10141000D4F80C380133FF2BC8BF0023C4F80C38B4
:101420003C200BB0BDE8F08F8C1C0020BC1A0020C3
:10143000F0B50023032751F8232007FB03F54419D7
:10144000160C01334655150A102B6570A270F2D1A7
:10145000F0BDFFFF7FB5002307480293694608F0FF
:1014600099FB28B114200BF01BF8034807F0DCFFB0
:10147000029807B000BD00BF951E002010B5FFF711
:10148000E9FF044618B1FFF7E5FFA042FBD0204674
:1014900010BDFFFF30B587B00546FFF7EFFF214ACB
:1014A0002149034678B91268019201980A68811AA5
:1014B0001E4A1268914201D2002030E01C4A106896
:1014C0000028F9D02AE010680290029C0C60591C98
:1014D000184903D06FF00040834217D1114A1368B6
:1014E000039303980B68C11AA94205D3124B01223A
:1014F0001A700F4B186812E0002BDDD112680E49EC
:1015000004920B700B4A04991160D5E7126805929A
:10151000059A0A60084A00201070054A136007B057
:1015200030BD00BFE83F0020B41A00206895FF1FBF
:10153000901E0020509CFF1F941E0020034A002391
:101540001360034A1370034A13607047901E002013
:10155000941E0020509CFF1F3B4B98425CD029D822
:101560003A4B984260D012D8394B984250D006D8A6
:10157000A3F57F6398425FD003F5FF6343E0354BEB
:1015800098425BD003F5FF53984259D152E0324B59
:1015900098424DD006D8A3F5FF5398423AD003F5B0
:1015A0007F6330E02D4B984240D003F5FF639842B3
:1015B00046D137E02A4B984236D013D8294B98426F
:1015C00040D007D8284B984220D003F57F6398423B
:1015D00036D137E0254B98421AD003F57F63984205
:1015E0002ED119E0224B984210D007D8214B9842B7
:1015F00018D003F5FF63984222D10BE01E4B9842AE
:101600000CD003F5FF5398421AD109E0012070472E
:10161000032070470420704705207047062070475C
:101620000720704708207047092070470A2070473C
:101630000B2070470C2070470D2070470E2070471C
:1016400000207047022070476F90FD00B748FD00F2
:10165000EF10FD00DF20FD008F70FD007F80FD009A
:10166000A758EF10FF00EF105FA0FD00EF10EF1084
:101670005FA0EF108778EF1027D8EF1008B5FFF7BD
:10168000FDFEBDE80840FFF767BF08B5FFF702FFA2
:10169000BDE80840FFF760BF30B593B0FF238DF879
:1016A0000E308DF811308DF812308DF814308DF821
:1016B00015308DF8163004AB0022009305AB0546BB
:1016C0008DF808208DF809208DF80A208DF80C205F
:1016D0008DF80D208DF81020019302AA06A8102184
:1016E00003AB07F036F906AC05F10D0212AD234647
:1016F00003CB083242F8080C42F8041CAB421C46EB
:10170000F5D113B030BDFFFF30B509298FB00446C5
:1017100001DD002304E0002901DB816001E00923F1
:10172000A360A368092B4DD8DFE803F005090D116C
:1017300015191D3F434904F10D0023493CE004F114
:101740000D00224938E004F10D00214934E004F194
:101750000D00204930E004F10D001F492CE004F198
:101760000D001E4928E000238DF804308DF8053067
:101770008DF80630FF238DF800308DF801308DF89C
:10178000023001AA02A810216B4607F0C6F80D34FA
:1017900002AA0EAD134603CB083444F8080C44F8F3
:1017A000041CAB421A46F5D10CE004F10D000C49C3
:1017B00002E00C4904F10D00FFF73AFE02E020467A
:1017C000FFF76AFF0FB030BDC4A5010044A60100B9
:1017D00084A50100C4A6010044A7010084A601005D
:1017E00004A7010004A6010038B516210446002014
:1017F0000BF05FFD152804F56E5301DD002204E0B7
:10180000002801DB586001E015225A6004F56E5390
:10181000986810B103681B69984704F56E550A2152
:101820006B6803F6E26304EB830400206368AB603B
:101830000BF03FFD01460448FFF766FFA86810B1B2
:101840000368DB68984738BDBC1A002038B590F8AB
:101850003D30053380F83D3090F83E30023380F85B
:101860003E3090F83F30033380F83F3090F84030FE
:10187000043380F8403090F841300133DBB2DC07AC
:1018800080F8413004D490F84230013380F842307F
:101890000446002594F83D00FEF73EFE00B24301E9
:1018A000181A0012013584F843000134042DF1D1D7
:1018B00038BDF8B505460E460024032706E0286823
:1018C000314607FB0400FFF717FA01346B689C42AE
:1018D000F5DBF8BD2DE9F041837B8CB00446032B8A
:1018E00000F26D81DFE813F004005E00B800120121
:1018F0000025A07AEEB200EB4600C0B2FEF732FE41
:10190000627B2369BB49B21890FBF3F8D2B2FF2384
:1019100003A8FEF77EFF03A8FFF7FEF98DF800008D
:10192000C0F30723C0F307408DF802008DF80130A3
:10193000009BB148ADF82C302FB21B0C8DF82E3027
:1019400039460BAB0FFA88F205F056FDE369022B1E
:1019500024D1A369A749C8EB0308637BF218D2B26C
:10196000FF2304A8FEF755FF04A8FFF7D5F9C0F33D
:1019700007238DF80000C0F307408DF802008DF8B2
:101980000130009B9C48ADF82C301B0C8DF82E309C
:1019900039460FFA88F20BAB05F02EFD0135202DEC
:1019A000A7D10CE10025A07AEEB200EB4600C0B250
:1019B000FEF7D8FD627B23698E49B21890FBF3F8DD
:1019C000D2B2FF2305A8FEF724FF05A8FFF7A4F96C
:1019D0008DF80000C0F30723C0F307408DF8020024
:1019E0008DF80130009B8448ADF82C302FB21B0CD1
:1019F0008DF82E300FFA88F10BAB3A4605F0FCFC5F
:101A0000E369022B24D163697A49C8EB0308637B3D
:101A1000F218D2B2FF2306A8FEF7FBFE06A8FFF7D6
:101A20007BF9C0F307238DF80000C0F307408DF861
:101A300002008DF80130009B6F48ADF82C301B0C74
:101A40008DF82E300FFA88F13A460BAB05F0D4FC36
:101A50000135202DA7D1B2E00025A37AEEB27000A7
:101A6000C01AC0B2FEF77EFD627B23696149B218DD
:101A700090FBF3F8D2B2FF2307A8FEF7CAFE07A82F
:101A8000FFF74AF98DF80000C0F30723C0F30740C1
:101A90008DF802008DF80130009B5748ADF82C30CE
:101AA0002FB21B0C8DF82E3039460BAB0FFA88F293
:101AB00005F0A2FCE369022B24D1A3694D49C8EBD0
:101AC0000308637BF218D2B2FF2308A8FEF7A1FE39
:101AD00008A8FFF721F9C0F307238DF80000C0F331
:101AE00007408DF802008DF80130009B4248ADF8A8
:101AF0002C301B0C8DF82E3039460FFA88F20BABC8
:101B000005F07AFC0135202DA7D158E00025A37AF5
:101B1000EEB27000C01AC0B2FEF724FD627B2369EA
:101B20003449B21890FBF3F8D2B2FF2309A8FEF7AC
:101B300070FE09A8FFF7F0F88DF80000C0F3072346
:101B4000C0F307408DF802008DF80130009B2A4851
:101B5000ADF82C302FB21B0C8DF82E300FFA88F117
:101B60000BAB3A4605F048FCE369022B24D16369CC
:101B70002049C8EB0308637BF218D2B2FF230AA8FE
:101B8000FEF747FE0AA8FFF7C7F8C0F307238DF852
:101B90000000C0F307408DF802008DF80130009B73
:101BA0001548ADF82C301B0C8DF82E300FFA88F14B
:101BB0003A460BAB05F020FC0135202DA7D1FE21C4
:101BC0000C48FFF776FE237A627A9A4205D8002302
:101BD0002372A37A0133A37201E001332372E37A03
:101BE000227B9A420AD80023E372637B013363733A
:101BF00006E000BFBC1A00208C1C00200133E372F9
:101C000000200CB0BDE8F0812DE9F74F814600249B
:101C100003274BE029465046FEF7EEFDD9F8008039
:101C200007FB00F32946204608EB030B0193FEF760
:101C3000E3FD07FB00F6019B18F8061008EB06020F
:101C400008F8031053788BF8013093788BF8023042
:101C5000C5F11F0B59462046FEF7CEFDD9F800808E
:101C6000784318F8061008EB060208EB000308F8A2
:101C700000105178927859709A7059465046FEF784
:101C8000BBFDD9F80080784308EB060218F806106F
:101C900008EB000308F8001001355178927859706C
:101CA000102D9A70B6D10134102C03D00025C4F148
:101CB0001F0AAFE7BDE8FE8F2DE9F74F81460024EC
:101CC00003264EE029465046FEF796FDD9F80070EF
:101CD00006FB00F32146284607EB030B0093FEF7B3
:101CE0008BFD06FB00F8009B17F8081007EB0802B5
:101CF000F95453788BF8013093788BF80230C5F1A2
:101D00001F0B59465046FEF777FDD9F8007006FBC9
:101D100000F2BB182946204601920093FEF76CFDA5
:101D20007043019A3918385CB854009B4A785A704D
:101D30008A7820469A705946FEF75EFDD9F8007001
:101D4000704307EB080217F808103B1839540135A7
:101D5000517892785970102D9A70B3D10134102CAB
:101D600003D00025C4F11F0AACE7BDE8FE8F2DE9C2
:101D7000F74F03460124032719E030465946D3F8AC
:101D800000800193FEF738FD494607FB008A28468C
:101D9000FEF732FD013507FB00815046FEF79BFF41
:101DA000013E0F2D019BE8DD0134102C07D004F11A
:101DB000FF39C4F1100BC4F10F062546DDE7BDE87D
:101DC000FE8F2DE9F04F89B0044607929DF8482018
:101DD000069104921E4603258FE0069B079AC6EBE8
:101DE0000308921BC14606EB030A05921AE0059907
:101DF00027684846FEF700FD09F1010905FB00FBD5
:101E000007EB0B03059901934846FEF7F5FC019B90
:101E100005FB00711846FEF75EFF206804995844E0
:101E2000FEF76AFFD1455346E1DD079A059F06EBB1
:101E3000020920E0394650460193FEF7DDFCD4F854
:101E400000B005FB00F201370BEB020C394650469F
:101E50000292CDF80CC0FEF7CFFCDDF80CC005FBFC
:101E600000B16046FEF737FF2068029A0499801897
:101E7000FEF742FF019B4F45CB46DBDD1DE01846D8
:101E800049460193FEF7B8FC019B2768013B05FB1F
:101E900000FA07EB0A021846494601930292FEF740
:101EA000ABFC029A05FB00711046FEF714FF206898
:101EB00004995044FEF720FF019B4345DFDA18E008
:101EC00059464046FEF798FC0BF1FF3B05FB00F935
:101ED000594640462768FEF78FFC07EB090A05FBC9
:101EE00000715046FEF7F7FE206804994844FEF75B
:101EF00003FF059B9B45E3DA013E002EBFF66DAF65
:101F000009B0BDE8F08FFFFF2DE9FF41044680686E
:101F1000E1681B4DFEF770FC4FF00308FF2208FB41
:101F200000F8134603A829462E68FEF772FC9DF8B8
:101F30000C3006EB080706F808309DF80D307B7072
:101F40009DF80E300821BB707F23009328460B4676
:101F50000A46FFF736FF2846FFF756FEA36801330F
:101F60000F2BA36007DD0023A360E36801330F2B71
:101F7000C8BF0023E360322004B0BDE8F08100BF99
:101F8000BC1A00202DE9F04F484BC76E1B688BB080
:101F900002460993099E0346002115E02018D860E7
:101FA0005D69186993F818E028187045186103D026
:101FB00093F819E0704501D16D425D61D868351A1A
:101FC000A542EBD201311433B94201DA9C68F5E73E
:101FD000146ED2F82480D56C1769354992F83820F0
:101FE0000DF1200BFF235846FEF713FCC4EB08034A
:101FF000002BB8BF5B425A42C5EB0709B9F1000F8D
:10200000B8BFC9F1000906924445ACBF4FF0FF329A
:102010000122BD42ACBF4FF0FF3C4FF0010C0792D4
:10202000C3EB09064FF0030A21490A6804932146CD
:102030002846CDF80CC00592FEF7DEFB059A5946FE
:102040000AFB0020FEF747FEBD42049BDDF80CC0F2
:1020500001D144450CD0069972008A42C4BFC3EB3B
:10206000060665444A45DFDA079A4E44A418DBE7C2
:1020700080240F210A46102300940D48FFF7A1FE8B
:1020800006221021134600940948FFF79AFE0A2100
:102090000B46182200940648FFF793FE0448FA21E5
:1020A000FFF707FC00200BB0BDE8F08FE83F0020F1
:1020B000BC1A00202DE9F74F06460F469846541CDF
:1020C0004FF0030921E029462046FEF795FBD6F89C
:1020D00000A009FB00F20AEB020C294658468DE8E5
:1020E0000410FEF789FBDDF804C009FB00A160467F
:1020F000FEF7F1FD3068009A39468018FEF7FCFDC6
:1021000001350D9B9D42DEDB0134444503DA0C9D15
:1021100004F1FF3BF5E7DDF8308003240BE0414696
:102120000020FEF769FB3368394604FB0030FEF7F8
:10213000E3FD08F101080D9B9845F0DBBDE8FE8F3B
:102140002DE9F3410746084611469846FEF754FB31
:1021500003254543FF2301A8394642463E68FEF762
:1021600058FB9DF80430741973559DF80530637061
:102170009DF80630A370BDE8FC81FFFF37B5134C16
:102180002046FFF763FB204694F8431094F8442060
:1021900094F83F30FFF7D4FF94F8451094F84620A8
:1021A00094F840302046FFF7CBFF2046FFF7DFFDD5
:1021B0002046FFF781FD002520232046009501934E
:1021C0006E212A46FFF776FF28463EBDBC1A002046
:1021D00037B5124C002220238DE80C007D212046CB
:1021E000FFF768FF2046FFF731FB94F8452094F88D
:1021F000431094F8440094F84650511809184019B7
:102200000323821891FBF3F1204692FBF3F294F83A
:102210004030FFF795FF14203EBD00BFBC1A0020E0
:10222000F7B51E4C0022202305468DE80C007D21C9
:102230002046FFF73FFF2046FFF708FB94F84410C5
:1022400094F843002668FEF7D7FA03272A7A7843E2
:10225000331832546A7A5A70AA7A9A7094F84610EF
:1022600094F84500FEF7C8FAEA7A784333183254F6
:102270002A7B5A706A7B9A7094F8433094F8451020
:1022800094F84420C91894F84630D21820464908DA
:1022900052083223FFF754FF1420FEBDBC1A002061
:1022A00037B5194C002220238DE80C007D212046F3
:1022B000FFF700FF2046FFF7C9FA94F8452094F88D
:1022C000431094F8440094F84650511809184019E6
:1022D0000323821891FBF3F1204692FBF3F294F86A
:1022E0004030FFF72DFF8C250B2120460A460523A1
:1022F0000095FFF766FD1521204600950A46052347
:10230000FFF75FFD0F203EBDBC1A00202DE9F74FFF
:102310000446002539E0D4F808A05FFA8AF8404660
:10232000FEF7FAF81FFA8AFA81460BFB00A080B28A
:10233000FEF7D2F8C9F1800972000AF5804A034617
:1023400009FB02A080B20193FEF7C6F88146C8F1EE
:102350004000C0B2FEF7E0F87843C0F34F00FEF74C
:10236000BBF8019B4B4400FA83F040F307237F3313
:10237000324611482946DBB20136FFF7E1FE202E36
:102380002F44C8D10135202D06D04FEA450B002738
:102390001FFA8BFB3E46BEE7A3680133A360E368E8
:1023A0000133B3F5006FE36002DB0023A360E36059
:1023B0001E20BDE8FE8F00BFBC1A002038B5114CAE
:1023C000FA212046FFF775FA2046FFF73FFA94F806
:1023D0004000FEF7A1F800B20501281AC0F3072556
:1023E00094F84200FEF798F894F8441005F10802BA
:1023F0000346C1F11F012046D2B2FFF7A1FE0F2014
:1024000038BD00BFBC1A002038B500F51664204660
:102410000D4607F0F8FC411B2046BDE8384007F0A8
:10242000EDBC00F5166007F07EBC38B50546FFF739
:10243000F8FF04462846FFF7F4FF44EA002038BDC1
:1024400000F5166092B207F0D3BC38B500F65C0513
:102450004FF482720446002128460EF0E3FD204628
:10246000FFF7DFFFC2B229462046FFF7E9FF20460B
:10247000FFF7D7FFC2B2002AF5D138BD2DE9F04FE2
:1024800000F58F5389B006921A680591002AC0F2B0
:10249000DD8000F58E5202F10801154603F10804B3
:1024A000DDF818B003910C3507940BE0791E21601C
:1024B000059E17F8011C06F8011BBBF1010B0596E0
:1024C00000F0C08000F59054214651F8047B8F4203
:1024D000ECD800F58E54D2F810C003F11C06043479
:1024E00019E0316829B9216811F8019BC6F80090FC
:1024F0002160216811F8019B2160296809FA08F917
:1025000049EA01012960039908F10808C1F800802F
:102510003168013931600399D1F80080E045E0DB92
:102520002E68039C46FA0CF12960CCEB080121606F
:1025300051690E4019688E427FD0D1698E4200F5F4
:102540008F5101F1100112D19469013404F58C66A8
:10255000146150F8266056615E680E60012101FA30
:1025600004F44FF0FF319C6099615961AAE70C684F
:10257000A64209D15C69002C5FDB07F8014B00F52E
:10258000905427609C6913E057DA344610E007192D
:1025900007F5D05704F5086497F80480DCF800705C
:1025A00000EB840407F8018BCCF80070646801E04C
:1025B00000F5905C5F68BC42E9DADCF800700294D8
:1025C00007F8014BCCF80070079FD1F800C0D7F88E
:1025D000008000F58F571837C445019716DAD7F8F1
:1025E0000090B9F1000F11DB00EB0C0ACDF810A040
:1025F0000AF5D05A8AF804400CF5086A00EB8A0AFA
:102600000CF1010CCAF80490C1F800C009685C61C3
:10261000019C41452660FFF655AF11690A293FF735
:1026200051AF0131116101F58C61079E50F8211005
:102630004FEA48043460516144E700F58F504FF091
:10264000FF330360069FCBEB070000E0002009B0DA
:10265000BDE8F08F2DE9FF4190F82830044653B9CA
:1026600039E004EB4511204601F51861E269FFF7F6
:1026700005FF083500E00025236A9D42F1DB0425B3
:1026800008E004EB4511204601F51861E269FFF707
:10269000F5FE0835236A9D42F3DB022508E004EBD2
:1026A0004511204601F51861E269FFF7E7FE0435A0
:1026B000236A9D42F3DB012508E004EB4511204627
:1026C00001F51861E269FFF7D9FE0235236A9D42E0
:1026D000F3DBA5694BE085696E010AE06369E26995
:1026E000F31803F5186120466118FFF7C7FE01359E
:1026F0002036226AA369D3189D42EFDBE9E76669B9
:1027000004EB45174FF003082BE0BB19226B93F83D
:102710008039934224D008FB034358331A798DF84B
:1027200008205A799B798DF8092002A88DF80A3083
:10273000FEF7F2FAC0F307238DF80000C0F307405C
:102740008DF802008DF80130009B0C48ADF80C307C
:102750001B0C8DF80E3031B22AB203AB04F04CFEE4
:102760000136E2696369D3189E42CEDB0135226AE5
:10277000A369D3189D42C2DBBDE8FF818C1C0020F9
:102780002DE9F7430446FFF750FE60612046FFF74E
:102790004CFEA0612046FFF748FEE0612046FFF7AF
:1027A00044FE20622046FFF73CFEC0F3801307067C
:1027B000606284F828300DD500F007000130012355
:1027C00003FA00F30322A365204604F15C015A4397
:1027D000FFF736FE94F8443093B1216B4E1C0CBFCA
:1027E000217CC9B204F518604FF480620EF01AFC27
:1027F000002384F84430A364E364202323656365E5
:10280000A36B012B0AD900236B488DF8043001A972
:102810008DF805308DF8063005F008F8A36B022B13
:102820001AD1A16C226D606DE36C94F83450C0181D
:1028300056180BE004EB43170A4604E007EB020EC0
:1028400001328EF88059B242F8DB01338342F1DB6A
:10285000E36BA36313BB4EE0032BF9D104F14800F3
:1028600065C804F55867530104F5186EDF199E44D6
:102870000021B6182D180EE001EB070C01EB0E0835
:10288000034604E01CF8039008F803900133AB42C0
:10289000F8DB01322031B242EEDBD9E704F114005B
:1028A00065C8A064022BE2642565666505D1236BCB
:1028B0005D1C08BF236963631DE0032B1BD153011B
:1028C00004F5186704F5586EDF199E440021B61808
:1028D0002D180EE001EB070C01EB0E08034604E097
:1028E0001CF8039008F803900133AB42F8DB013287
:1028F0002031B242EEDB2046FFF793FD20642046F4
:10290000FFF78FFD0026054604F516681DE001352A
:10291000012120467719FFF777FDB7F5A06F0CD896
:10292000A119204601F557712A46FFF789FD07E0F6
:10293000404607F0F8F9013600E00026AE42F7DB2A
:102940002046FFF76EFD3E460546002DDFD1216C87
:10295000481C00F58C6604F58E5254F8266091618F
:1029600004F557735661012606FA01F1536004F528
:102970008F534FF0FF37D56095601061D16106FA33
:1029800000F08A1902311A60DD619860596019619E
:102990005F619F6104F590531A1D1A602046FFF78E
:1029A00059FEE36A2763002BD8BFE662E36AE5635A
:1029B0000A205843BDE8FE838C1C00200B7903716C
:1029C0008B6883600B7B30B5037300F10D0201F15E
:1029D0000D0301F1190453F8045BA34242F8045BB0
:1029E000F9D11B781370CB69C36130BD1FB50622C6
:1029F00001A9FFF725FD01A8084906220EF0BCFF3A
:102A000048B1062201A806490EF0B6FFD0F1010038
:102A100038BF002000E0012005B000BD456901007D
:102A20004C69010010B50446FFF7FFFC206020460A
:102A3000FFF7FBFC60602046FFF7F3FCA060204638
:102A4000FFF7EFFC20612046FFF7EBFCE06010BDD4
:102A500008B583681A0601460BD503F00703012267
:102A6000013302FA03F3032283655C315A43FFF713
:102A7000E7FC08BDF8B50446002700F65C052046D3
:102A8000FFF7CFFCC0B22C2803D12046FFF778FE19
:102A9000F8BD2128204651D1FFF7C3FCC0B2F92868
:102AA00017D002DC01284FD104E0FE283BD0FF28DC
:102AB0004AD13FE02046FFF7B4FCC2B22946204687
:102AC000FFF7BEFC2046FFF7ACFCC2B2002AF5D1EE
:102AD000D5E72046FFF7A5FC2046FFF7A2FC0646F7
:102AE0002046FFF7A2FCE0622046FFF79AFCF107C0
:102AF0004CBF20634FF0FF33C6F3820058BF2363FF
:102B00000328C8BF3846E0632046FFF78AFCB6E7D3
:102B100000214FF4827228460EF084FA204629469E
:102B20003246FFF78DFC2046FFF77BFCC6B2002E35
:102B3000EED1A4E72046FFF788FCA0E70121FFF7CC
:102B400063FC6FF00400F8BD6FF00300F8BD0B6884
:102B500013B5DB680C460846984723688DF80400D7
:102B6000DB682046984723688DF80500DB6820461F
:102B7000984723688DF80600DB68204698478DF853
:102B8000070001981CBDFFFF2DE9F04FC3B00546BB
:102B90000AA80E4601921F4607F00CF9AC4BAD484F
:102BA0001B680793079A049204F0B4F8019B8342D0
:102BB00080F00181A74804F0B3F8874280F0FB80E1
:102BC000FBE00AA8FEF738F844F64253984200D0DA
:102BD0001CE1A1492046FEF764F80AA92846FFF740
:102BE000B6FF01462046FEF76AF80AA92846FFF715
:102BF000AEFF0AA92846FFF7AAFF9849804620465B
:102C0000FEF74FF80A220023414620460AF0C4FA94
:102C100020460AF0B3FA92492046FEF742F80AA984
:102C20002846FFF794FF01462046FEF748F80AA918
:102C30002846FFF78CFF0AA906462846FFF787FFBC
:102C400083460AA8FDF7F8FF0128814640F0DE80A0
:102C50000AA8FDF7F1FF83495FFA80FA2046FEF7E4
:102C600020F80A220023514620460AF095FA204611
:102C70000AF084FABAF1180F40F0C88028460AA971
:102C8000FFF765FF8246002800F0C280BEE0CBF16E
:102C9000000BCDF808A0019A6E48941904F03AF898
:102CA000844204DD6B4804F035F8019BC61A69487C
:102CB00004F036F807EB0B04844205DD654804F0A8
:102CC00029F8C01B039001E0CDF80CB00BF1FF3BDD
:102CD00005FB0B8B4FF00009C02445E0029A0AA8BF
:102CE000002A14BFDA46C24607F08DF8504504D0DA
:102CF0000AA8514607F082F8C02407EB09031BB26B
:102D00004FF0000A059328E0BF2C05D90AA812A9A4
:102D1000C02207F06DF8002442AA13194D4813F899
:102D2000C03C8DF81A30631C52FA83F313F8C03C90
:102D30008DF81930A31C52FA83F3059A13F8C03C9E
:102D40008DF81830019B03EB0A0109B206AB04F0C1
:102D500053FB0334E4B20AF1010AB245D4DB09F1B2
:102D60000109C5EB0B0BA844039A9145B6DB3E491C
:102D70003E48FDF796FF364B3C481B680893089980
:102D8000049B0A22C91A00230AF006FA3748384978
:102D9000FDF78BFF01240AA807F053F824B9354941
:102DA0003248FDF782FF6DE0294B049A1B680993B6
:102DB000099CA41A66E0002464E02C4C20460AF02A
:102DC000DDF92D492046FDF76CFF31462046FDF721
:102DD00068FF236827211B682046984720460AF091
:102DE000CDF93246012312A8244907F075F912A93A
:102DF0000AA8FFF7E3FD12A806F0EAFF0AA807F009
:102E00002CF800287FF4DDAE04463BE00024C2E746
:102E10001B492046FDF745FF314620460AF0F4F9EC
:102E2000236878211B6820469847594620460AF0B7
:102E3000EBF920460AF0A2F9751C03235D43BBF1B0
:102E4000000F25F00305FFF622AFCDF8089022E72A
:102E5000E83F00208C1C0020536901005F690100DD
:102E60006E6901007C69010087690100E040002073
:102E70009269010096690100B1690100803C00205F
:102E8000C16901000AA806F0A3FF204643B0BDE8CF
:102E9000F08F00BF027A08B532B9012303720349EB
:102EA00003481346FFF770FE1E2008BDCE690100DF
:102EB000961E00202DE9F04FDFF8D082B24CB8F812
:102EC000007098F8026087B005AD4FF002094FF02E
:102ED0001E0BCDF8009020461721002219230195E2
:102EE000ADF814708DF8166004F080FCCDF800B0D9
:102EF000204607211C2209230195ADF814708DF896
:102F0000166004F073FC4346CDF8009033F8037F5D
:102F100001959E78ADF8147020460F2100221123F0
:102F20008DF8166004F062FCCDF8009020464FF05A
:102F300006091321002215230195ADF814708DF8B0
:102F4000166004F053FCCDF8009020460B210422BB
:102F50000D230195ADF814708DF8166004F046FC51
:102F60004FF00A0CCDF800C04FF01A0A2046072196
:102F7000082209230195CDF80CC0ADF814708DF826
:102F8000166004F033FC2046072118220923CDF8EF
:102F900000A00195ADF814708DF8166004F026FCC1
:102FA000CDF800B020460B210D2301951C22ADF871
:102FB00014708DF8166004F019FCCDF800B02046AE
:102FC0000F2101951C2211234FF0160BADF8147040
:102FD0008DF8166004F00AFC2046132118221523F0
:102FE000CDF800A00195ADF814708DF8166004F0CE
:102FF000FDFB2046172114221923CDF800B00195BE
:10300000ADF814708DF8166004F0F0FB4346CDF86F
:10301000009033F8067F01959E78ADF81470204635
:103020000F21042211238DF8166004F0DFFBCDF888
:10303000009020461321042215230195ADF8147049
:103040008DF8166004F0D2FBCDF8009020461721D1
:10305000042219230195ADF814708DF8166004F060
:10306000C5FBDDF80CC00195CDF800C04FF00E098E
:103070002046172108221923ADF814708DF8166028
:1030800004F0B4FB204607210C22CDF800900195F6
:103090000923ADF814708DF8166004F0A7FB2046E4
:1030A00017210C22CDF8009019230195ADF814706A
:1030B0008DF8166004F09AFB4FF0120CCDF800C0AA
:1030C00020460721102209230195CDF80CC0ADF848
:1030D00014708DF8166004F089FBDDF80CC00195C2
:1030E000CDF800C02046172110221923ADF8147026
:1030F0008DF8166004F07AFB20460721142209237C
:10310000CDF800B00195ADF814708DF8166004F09C
:103110006DFB20460F2114221123CDF800B001953C
:10312000ADF814708DF8166004F060FB2046132192
:1031300014221523CDF800B00195ADF814708DF868
:10314000166004F053FB20460F2118221123CDF8FE
:1031500000A00195ADF814708DF8166004F046FBE0
:103160004346CDF8009033F8092F01959B78ADF8D0
:1031700014208DF8163020460F210C22112304F064
:1031800035FB07B0BDE8F08F8C1C0020C068010043
:103190001F4BF7B50F4619780446C9B11D4EC37DC4
:1031A000B5781BB90C2D01D90C3DEDB21A4805219B
:1031B00003F05CFE32787378009204F108002A462E
:1031C00016490EF0BFF9092D94BF0425012508E02A
:1031D000114803F04BFE04F1080011490EF06EFB9C
:1031E000012520210C4803F05DFF04F114010A4879
:1031F00003F052FF084803F00FFE01230093064836
:1032000029463AB204F1080303F076FE0020FEBD21
:10321000589CFF1FAC1A00208C1C0020E3690100A1
:10322000EB69010008B5B0F91210FFF7B1FF08BD56
:103230002DE9F04F7C4B9D78C37D8FB006468846C4
:103240001BB90C2D01D90C3DEDB2B8F1000F03D024
:10325000B8F1010F0BD105E04FF6FF74092D88BFBF
:10326000022408E0092D94BF1124142407E0B8F1CA
:10327000000F03D14446092D34D900E00024702307
:103280008DF8243080238DF8253009A890238DF8FF
:103290002630FDF741FD8DF81800C0F30723C0F379
:1032A00007408DF81A008DF819300EA9069B778A11
:1032B00021F8043D1FFA84F91B0C484607F1FF3A38
:1032C0008DF83630023F431C023000B20FFA8AF20A
:1032D0003FB20190039100970292544821B21BB271
:1032E00004F05FFA718A70238DF8283080234A1E1B
:1032F0008DF829300AA890238DF82A300591049280
:10330000FDF70AFD8DF81800C0F30723C0F307404E
:103310008DF819308DF81A000EAB069823F8040DBD
:103320000599049A0393A7B2023909B207F1080B71
:10333000000C07F1060A07F1070912B200910FFA13
:103340008BF18DF836000191029238480FFA8AF11C
:103350000FFA89F304F025FAB8F1000F01D1092D15
:103360002FD970238DF82C3080238DF82D300BA8A9
:1033700090238DF82E30FDF7CFFC8DF81800C0F3A8
:103380000723C0F307408DF81A008DF819300EA9F5
:10339000069B758A21F8043D1B0C05F10B088DF87E
:1033A00036300C357B1C02370FFA88F22DB23FB253
:1033B00003918DE8A00002921C4821B21BB204F0D8
:1033C000F0F970238DF8303080238DF831300CA85F
:1033D00090238DF83230FDF79FFC8DF81800C0F374
:1033E0000723C0F307408DF819308DF81A000EAB93
:1033F000748A06990D4823F8041D04F10B05090C85
:103400000C348DF836102AB20FFA8BF124B20191E8
:103410000393009402920FFA8AF10FFA89F304F0F1
:10342000C0F90FB0BDE8F08FAC1A00208C1C002052
:103430002DE9F04F8FB0064602250DACB6F812907C
:10344000A9B24FF0700C09F1FF324F1C4FF0800B06
:1034500002314FF0900A0BA88DF82CC0CDF814C0A3
:10346000079106928DF82DB08DF82EA0FDF754FC33
:103470008DF82000C0F30723C0F307408DF8220029
:103480008DF82130089B264823801B0CA3700799D8
:10349000069A0394A9F102090FFA85F812B20FFAFD
:1034A00089F33FB20FFA81F90093414602923B46FD
:1034B000CDF8049004F075F9738ADDF814C0079311
:1034C00003F10B020CA88DF830C006928DF831B0D4
:1034D0008DF832A0FDF720FC8DF82000C0F3072105
:1034E000C0F307408DF822008DF8211008990C4890
:1034F0002180090CA170079B069A03940C3312B229
:103500001BB206358DE80802029241463B46ADB239
:1035100004F047F9202D91D10FB0BDE8F08F00BF26
:103520008C1C002037B50C4D2B680093009A8368E3
:10353000D21AC3689A4204460CD9084808F098FB8E
:10354000074B30B101221A702B680193019BA360D5
:1035500000E018703EBD00BFE83F0020AC1A00201C
:10356000589CFF1F10B50446FFF7DCFFA06910B19F
:1035700003689B689847002010BDFFFF70B51E4E82
:103580001E4D0446236820469B6898471C48FFF759
:10359000E9FF1C48217AFFF74BFE1B48012104F08C
:1035A000D1F91948002103F03FFC3068FEF76DF8AF
:1035B00001380A2816D8DFE800F006090F121E1598
:1035C000151515151E00207A012102E0207A4FF012
:1035D000FF31FDF711FB05E0E368013B01E0E36823
:1035E0000133E360E368022B01D90023E360E36861
:1035F000EB5C2372C6E770BD9495FF1F6495FF1FB7
:10360000701E0020981E00208C1C002000220260EA
:1036100042608260C260026142614FF08142026298
:103620004FF082424262002280F828207047FFFF5C
:1036300008B5FF21002009F03CFE0CF03BFE0449D8
:103640000CF040FF4FF07C510CF07EFD08BD00BF38
:1036500000007F43F8B50023036043608360C360CC
:10366000036143614FF0814303624FF08243436241
:10367000002380F8283004460D461646FFF7D8FF91
:103680000746FFF7D5FF4FF07F53E361034BE06040
:10369000A76025606660A3612046F8BDCDCC4C3D97
:1036A0000A6802604A6842608A688260CA68C260CA
:1036B0000A6902614A6942618A698261CA69C261B2
:1036C0000A6A02624A6A426291F8282080F8282039
:1036D000CA6AC2627047FFFF10B500210446006845
:1036E0000CF0DAFF08B10D4B2360606800210CF08C
:1036F000D3FF08B1094B636020684FF084410CF0A0
:10370000DFFF08B10023236060684FF084410CF0B4
:10371000D7FF08B10023636010BD00BF0000F8416F
:103720000A6802604A6842608A688260CA68C26049
:103730000A6902614A6942618A698261CA69C26131
:103740000A6A02624A6A426291F8282080F82820B8
:10375000CA6AC2627047FFFF70B51F4E8CB0054643
:1037600000241E4968460A46FFF774FF302000FB1C
:10377000046069460134FFF7D3FF0A2CF1D1002021
:10378000022109F096FD0028D4BF002001206874B2
:10379000D8B11349134C0A466846FFF75BFF6946E8
:1037A0002046FFF7BDFF01236B74A0690CF042F9BE
:1037B00007A3D3E900230CF091F90CF071FC4FF052
:1037C000834363620023A06123620CB070BD00BF1D
:1037D000445EC598AAAAFA3F901C002000007041E0
:1037E0000000F841209CFF1FF0B5174D8DB0064634
:1037F0000024002720460CF05DFD002201466846AB
:10380000FFF728FF204602970CF002F90CA3D3E93A
:1038100000230CF063F90CF043FC0390302000FB14
:103820000460E3000830694601348DF828300695BD
:103830000795FFF775FF202CDCD10DB0F0BD00BF60
:103840007B14AE47E17A84BF00002041AFF30080D3
:103850002DE9F04302218DB00546002009F029FD35
:103860000024002814BF07464FF0FF374FF07E5862
:103870000026C4F11F000CF01DFD184902466846E1
:10388000FFF7E8FE32212820CDF82C8009F011FD49
:103890000CF010FD12490CF015FE814638460CF074
:1038A00009FD014648460CF059FD0290302000FB0E
:1038B00004506301083069468DF828300396FFF7FD
:1038C0002FFFAA20FA2109F0F4FC0134082C85F816
:1038D0009801CED10DB0BDE8F08300BF000070416B
:1038E0000000C8422DE9F84FDFF8709080460C4682
:1038F000FF2500264FF0030A08EB060318F8060020
:103900005978D9F80070FCF777FF21780AFB00FCA2
:1039100015F0FF0F07EB0C000CBF4FF0000B4FF042
:10392000010B11B169430BEB21216278217012B1B7
:103930006A430BEB2222A378627013B16B430BEB4B
:1039400023230236A3700F3D0334202E07F80C10FA
:1039500042708370D0D1BDE8F88F00BFBC1A002040
:103960002DE9F04389B00746002606A88DF81860B7
:103970008DF819608DF81A60FDF7CEF98DF81000FA
:10398000C0F30723C0F307408DF812008DF8113003
:10399000049B3B4808A907F1080821F8043D1B0CCB
:1039A0008DF81E3003F042FF97F83820531C87F83B
:1039B0003830344B0093FF23019301230293404698
:1039C0001021052305F082F84FF0210909FB067547
:1039D00038356C1C23460F22998B013AD983023B60
:1039E00012F0FF02F8D10A2009F058FC07281CD970
:1039F00094F82030032B18D8DFE803F002020B0BF9
:103A00000020022109F055FC012814BF02200320E8
:103A100009E00020022109F04CFCB0F1010EDEF1BA
:103A2000000050EB0E0084F8200094F82030032BA7
:103A30001AD8DFE803F0020C07136378013303F0B0
:103A40001F0309E06B78013303F01F030BE0637879
:103A50000BB1013B00E01F23637005E06B780BB1F5
:103A6000013B00E01F236B70204641460136FFF703
:103A700039FF062EAAD11E2009B0BDE8F08300BF91
:103A80008C1C0020C91A0020013A072A17D8DFE849
:103A900002F00407160D161616114B685A1E01E0A7
:103AA0004B685A1C0B6842600360704791E80C0039
:103AB000013A02E091E80C00013280E80C00704706
:103AC0002DE9F04704468CB0D4F81C39D0F8180919
:103AD000012B01D0451E02E009F0E0FB0546002D58
:103AE000C0F2098105F1230204EBC20292E803004F
:103AF00004F5887383E80300D4F814314FEA4009D1
:103B00004FEA43080026FF2302A88DF80A30CDF8BB
:103B10001890CDF81C808DF808608DF80960FDF7CD
:103B2000FBF88DF80000C0F30723C0F307408DF8C1
:103B300001308DF80200009A70480CAB0FFA89F141
:103B400023F81C2D120C8DF816200FFA88F203F0C2
:103B500053FC0421304609F0ACFBA319201893F85C
:103B6000242990F824190136042E83F8241980F8AA
:103B70002429EED1264604F1040904F5887A96F842
:103B8000248908A851464246FFF77EFF089B002B78
:103B900068DB099A002A65DB0F2B63DC0F2A61DCE6
:103BA00004EB0210C01800F1100E017C002959D15D
:103BB000D4F81411D4F8100104EB01110918087C91
:103BC00048EA0000087408F1FF319EF80000072958
:103BD0000CD8DFE801F0040A0B060B0B0B080227D8
:103BE00004E0082702E0042700E0012704EB0212AA
:103BF000D318074306A942461F740AA8FFF744FFDB
:103C0000FF2303A88DF80C308DF80D308DF80E30A1
:103C1000FDF782F88DF80000C0F30723C0F30740DA
:103C20008DF801308DF802000098BDF82860BDF8CD
:103C30002C500CAB31B223F81C0D000C8DF8160083
:103C40002AB22E4803F0D8FBD4F818395A1C233373
:103C5000C4F8182904EBC30408AB93E8030084E814
:103C6000030048E001364E4589D111E0F11801F515
:103C7000887201F58C7103C982E803000135D4F81C
:103C80001829013A08339542F0DBC4F8182932E0CC
:103C900005F1230304EBC30393E803000CAB03E932
:103CA00003000A9F0B9EFF2376007F0004A807965F
:103CB0008DF810308DF811308DF812300697FDF721
:103CC0002BF88DF80000C0F30723C0F307408DF8F0
:103CD00001308DF80200009A08480CAB39B223F885
:103CE0001C2D120C8DF8162032B203F085FB04EB6C
:103CF000C5060023C3E70CB0BDE8F0878C1C00208C
:103D000070B5D0F81839002B86B004463FDC00258A
:103D100002A88DF808508DF809508DF80A50FCF76C
:103D2000FBFF8DF80000C0F30723C0F307408DF8B8
:103D300002008DF80130009B224806A921F80C3DB5
:103D40001B0C8DF80E3003F071FD2B46294608E060
:103D500050190135102D0174FAD11033B3F5807F5D
:103D600002D00025E218F3E7284609F097FA064644
:103D7000284609F093FA0496059006AA12E9030072
:103D800004F58C7383E803000123C4F81839204636
:103D9000FFF796FED4F81839002B0CDCD4F81C3948
:103DA000D4F8202901339342C4F81C3905DB0023E1
:103DB000C4F81C3901E0002001E04FF47A7006B02D
:103DC00070BD00BF8C1C00202DE9F04F8DB0002489
:103DD000099283468A4604604460DFF80C9173E0E0
:103DE00004EB0A0202EB451202F58052127C002A13
:103DF00064D0A31C0293DFF8F080AB1C661E059311
:103E0000721C4FD0202E4DD00AEB0603039333B221
:103E10006F1E04930DB9002C40D07B1C3ED0202F88
:103E20003CD0039B03EB471292F8102CB2B339B28B
:103E3000049A2C4803F09AFAC0F307228DF8180070
:103E4000C0F307408DF81A008DF81920069A9DF8E6
:103E50002410ADF82C205FFA82FCC1EB0C019DF818
:103E600025C0100CC2F30722CCEB02029DF826C03D
:103E70008DF82E005243C0B2CCEB000C01FB0121A7
:103E80000CFB0C1CC44521DB08D10220CDF804C07A
:103E900009F004FA0128DDF804C017D0059B0137AA
:103EA0009F42B7D1029B01369E42A9D1C8450FDB84
:103EB00004D1022009F0F2F9012809D00135202DA2
:103EC0008ED10134202C09D0002589E7E046E5E7B2
:103ED000CBF80050CBF80440C146EFE758460DB090
:103EE000BDE8F08F8C1C00203F420F002DE9F04F01
:103EF000464B8DB00024099206460391046044604D
:103F0000029375E009EB040303F580531B7C002B3F
:103F100066D04FF0000B651E4FF0FF3ACDF804B0AD
:103F2000691C4BD0202D49D005EB09012AB207F1BD
:103F3000FF38002304910592B8F1FF3F39D0B8F162
:103F4000200F36D00499CA1892F8F02B8AB3019A40
:103F50002F480093013201920FFA88F1059A03F07D
:103F600005FAC0F307228DF81800C0F307408DF85A
:103F70001A008DF81920069A9DF82410ADF82C200F
:103F80005FFA82FCC1EB0C019DF825C0009B100C70
:103F9000C2F30722CCEB02029DF826C08DF82E005A
:103FA0005243C0B2CCEB000001FB012100FB00102A
:103FB00083442033602B08F10108BDD10AF1010AC6
:103FC0000135BAF1020FABD1019B9BFBF3FB029BC6
:103FD0009B4511DB04D1504609F060F901280BD054
:103FE0000137202F09F120098CD10134202C08D071
:103FF000DDF80C90002785E737607460CDF808B0D5
:10400000EEE730460DB0BDE8F08F00BF3F420F0035
:104010008C1C00202DE9F0410446064600250327AC
:1040200028464FF4806109F044F907FB05F210328D
:10403000A318784314F802C059789A7823181030DE
:1040400033F8108FA6F810809B780135B3742318CD
:104050000336B5F5806F04F800C059709A70DFD14F
:10406000BDE8F0812DE9F04FFF2187B081460020A7
:1040700009F01FF900265FFA80FA354651E004A8DE
:1040800002A98DF8122000928DF811408DF8108051
:1040900004F0B2FD032303FB079302A803F1100B06
:1040A0000193FCF739FE019B10341874A4B2C0F3DD
:1040B0000723C0F307408BF801308BF8020001376B
:1040C000B4F5807F009ADAD105F11007FF2205A828
:1040D00003A98DF8152000928DF816408DF81480F4
:1040E00004F08AFD032303FB079303A803F1100BDD
:1040F0000193FCF711FE019B103C1874C0F30723D9
:10410000C0F307408BF801308BF80200A4B20137EE
:10411000009A002CDBD120350836B5F5806FF6B259
:1041200005D006EB0A082F460024FF22A7E707B0B8
:10413000BDE8F08F2DE9F0470446042009F0AEF801
:10414000032800F28D80DFE800F0224D788808FB1C
:1041500001FE0EF1100E04EB0E07013190FBF5FA93
:10416000B1F5806F04F80EA087F8019087F802C0BF
:104170006ED0FF30B042EAD1FF32B24203D092FBA0
:10418000F5F90020E3E7FF33B34207D160E00023F5
:1041900019460A254FF0030840F6F52693FBF5FC77
:1041A0000022ECE708FB01FE0EF1100E04EB0E07F7
:1041B000013104F80EC0B1F5806F90FBF5FE87F871
:1041C00001E087F8029043D0FF30B042EAD1FF32DD
:1041D000B24203D092FBF5F90020E3E7FF33B3428C
:1041E00007D135E0002319460A254FF0030840F6B1
:1041F000F52693FBF5FC0022ECE708FB01FE0EF12F
:10420000100E04EB0E07013104F80EC0B1F5806FFB
:1042100090FBF5FE87F8019087F802E018D0FF3098
:10422000B042EAD1FF32B24203D092FBF5F900204E
:10423000E3E7FF33B34207D10AE0002319460A251A
:104240004FF0030840F6F52693FBF5FC0022ECE75F
:104250002046FFF7DFFEBDE8F0872046FFF702FFAC
:10426000BDE8F0872DE9FF4100F5A0560446356909
:1042700015BB01A94B488DF804508DF805508DF8F9
:10428000065003F0D3FA2046FFF754FF022009F04E
:1042900005F82A4670610CE0C118203381F8102C13
:1042A00001F58051B3F5806F0A74F5D10135202DE9
:1042B00002D000236019EFE704F5A052032311692F
:1042C00003FB014333F8100F9B78ADF800008DF825
:1042D000023041B9202008F0E1FF0546202008F017
:1042E000DDFF064617E05369009AADF80420120C72
:1042F0008DF8062013B1012B0BD105E002A8214651
:10430000019AFFF761FD04E002A82146019AFFF738
:10431000EDFD039E029D04EB4517BB1903F580528A
:1043200000214FF00108117483F8108C29B232B2C9
:104330001C486B4603F060F8721E4FF0FF31531CAF
:1043400004D1013101320229F9D11BE0202AF8D031
:10435000D6194FF0FF3303B981B15819B0F1FF3FBF
:104360000CD020280AD006EB431090F810CCBCF1FA
:10437000000F03D100F5805080F810800133022B2C
:10438000E9D1DEE704F5A054002023690133B3F539
:10439000806FAABF2061236140F6B83004B0BDE849
:1043A000F08100BF8C1C00200B790C4A03718B68D4
:1043B00083600B7B0373034630B543F80D2B01F18B
:1043C000190401F10D0252F8045BA24243F8045BA8
:1043D000F9D112781A70CB69C36130BD18A90100F8
:1043E00070B598B00A4668461D49012308AC05F02F
:1043F00073FE20466946012205F0D4FE00256E4674
:1044000019E0204605F0ECFC30B9204605F0E6FC4A
:10441000FCF7C2FB00B10135204605F012FD10A8E3
:104420006946012205F0BEFE204610A9FEF7C6FA35
:1044300010A805F0CDFC204605F00FFD0028E0D1C6
:10444000204605F0FEFC684605F0FBFC204605F022
:10445000BFFC684605F0BCFC284618B070BD00BF24
:10446000803C0020F0B5161E99B00C461F4650DB6C
:104470001E9B9E424DDA684627492246012305F0DD
:104480002BFE68466D4605F0E8FC002837D008ACE6
:1044900020466946012205F085FE6D4620E0204653
:1044A00005F0CFFC1CE0204605F098FCFCF774FBFF
:1044B00038B1204605F092FC01463846013E0DF029
:1044C000FDF9204605F0BDFC10A86946012205F063
:1044D00069FE204610A9FEF771FA10A805F078FCD5
:1044E000204605F0BAFC08B1002E0CDA204605F093
:1044F000A8FC684605F0A5FC204605F069FC684666
:1045000005F066FC05E0204605F06AFC0028C6D1EF
:10451000C9E719B0F0BD00BF803C002030B5254B85
:104520001B78CFB00546002B42D000F11004204686
:1045300005F093FC10B1204605F083FC6B6B2A6BF1
:104540000093284602ABE968FFF78CFFE9680EA8E4
:104550000DF0B4F902A90EA80DF01CF80EAA012363
:1045600006A8154905F0B8FD06A92046FEF726FA6B
:1045700006A805F02DFC204605F06FFCC0B12146D1
:1045800006A8FFF711FF06A90C48FEF717FA06A8C0
:1045900005F01EFC0A48FEF729FA18B9204605F076
:1045A00050FC05E00648FEF73DFA0548FEF750FAD4
:1045B0004FB030BDB81A0020803C0020BCE1FF1F86
:1045C0005CD8FF1F08B5FFF7A9FF08BD30B5174B32
:1045D0001C7885B00546ECB903A915488DF80C4048
:1045E0008DF80D408DF80E4003F020F901211048A0
:1045F00003F03EF90F4B0E481A889B78ADF80C205B
:104600008DF80E300C4B04210093182203AB03F0FD
:1046100037F908E00948FEF72DFA431D044602D198
:104620002846FFF77BFF204605B030BDB81A0020B2
:104630008C1C0020CC680100F46901005CD8FF1FCD
:1046400010B50446002007F049FC0B4B616B1A883B
:1046500080181880002008F02CFE636B20639842BD
:1046600001DB002302E0002801DA013B236320463E
:10467000FFF754FF10BD00BFCC95FF1F08B5036BBB
:10468000C918436B0163994201DB002302E0002952
:1046900001DA013B0363FFF741FF08BD13B54FF09B
:1046A000FF32C261012280F8202005220D23C26260
:1046B0004FF47A7203608263002342641822044636
:1046C00003730375836180F821304362836280F84D
:1046D000303080F83130436380F83C3080F83D3032
:1046E000036480F8483080F84920802201A88DF8C2
:1046F00004308DF806308DF80520FCF70DFBC0F373
:10470000072384F84A00C0F3074084F84C0084F87B
:104710004B3020461CBDFFFF70B500F588748EB08D
:10472000204605F09AFB10B1204605F08AFB204B8D
:104730006A4603F1100618685968154603C5083320
:10474000B3422A46F7D118681B7928606A462B7154
:1047500006A80123174905F0BFFC06A92046FEF76D
:104760002DF906A805F034FB204605F076FBE8B1EC
:10477000204605F035FB00B10EE0214606A8FFF704
:1047800013FE06A90C48FEF719F906A805F020FB50
:104790000A48FEF72BF918B9204605F052FB05E050
:1047A0000648FEF73FF90548FEF752F90EB070BD16
:1047B000FA690100803C0020BCE1FF1F5CD8FF1FAC
:1047C0001FB50023044602A88DF808308DF8093083
:1047D0008DF80A30FCF7A0FA8DF80000C0F307232B
:1047E000C0F307408DF802008DF80130009B0648A9
:1047F00004A921F8043D1B0C8DF80E3003F016F8C7
:104800002046FFF789FF1FBD8C1C002038B50546E8
:1048100000F5887005F002FB48B10648FEF72AF95A
:10482000421D044604D12846FFF776FF00E0044607
:10483000204638BD5CD8FF1F1FB51E4802F0ECFAB9
:1048400001221D491B4802F0ABFB002402A88DF891
:1048500008408DF809408DF80A40FCF75DFA8DF8A4
:104860000000C0F30723C0F307408DF802008DF865
:104870000130009B0F4804A921F8043D1B0C8DF862
:104880000E3002F0D3FF01210A4803F05BF809481B
:1048900002F0C2FA0748214602F0C6FAFCF7EEFE23
:1048A0000A2806D0062804D04FF4FA7007F0F8FD65
:1048B000F4E71FBD8C1C0020CD690100054B064AA2
:1048C0001B780020815C994203D201300528F9D180
:1048D000002070476695FF1F8995FF1F70B590F8FF
:1048E000313088B004463BB1914B1B680693069A61
:1048F000436B9A4280F00C8194F83D303BB18C4B75
:104900001B680793079A236C9A4280F00881A36979
:10491000E26993420AD194F848203AB994F83020D9
:1049200022B994F83C20002A00F000810025E361C0
:1049300084F848507F4802F06FFA94F83C301BB975
:1049400094F83D30002B38D005217A4884F83C504B
:1049500002F08CFA784B77481A889B78ADF81420CF
:1049600005A98DF8163002F097FB2021714802F05E
:1049700099FB724B6F48197802F0E4F9FFF79EFF3C
:104980000BF098FC4FF07A510BF0E8FC6C490BF0FF
:10499000E5FC0BF0A9FE021E04DC6A4B1B78002B21
:1049A00018BF0122684905A80CF0CCFD0123009333
:1049B000604804210B2205AB53E094F830301BB95A
:1049C00094F83130002B4FD000255A4884F83050ED
:1049D000294602F04BFA574804F14A0102F05CFB09
:1049E0002021544802F05EFB544B5248197802F0E3
:1049F000A9F9666A012E14D002D3022E74D120E0E8
:104A0000524A4C4801920723012600930C210A22A6
:104A1000029602F08FFA009646484D4B2946122224
:104A20001FE04C4A43480192072300930C210A22BD
:104A3000029602F07FFA00963E48474B2946122222
:104A40000FE0444A3B4801920723012600930C21C2
:104A50000A22029602F06EFA3648404B009629462A
:104A6000122202F049FA3FE094F8203053B3636811
:104A70001D68284607F0FEFA052148431F28D8BFC5
:104A800003212C4802F0E6FA94F84910294802F074
:104A9000E7FA0121274802F0F7FA04F14A01254814
:104AA00002F0FAFA2168234802F0FCFA234B21486D
:104AB000197802F047F91F4829464FF0FF3202F0FB
:104AC0006FFA11E094F821301A48254901222BB1E0
:104AD00002F066FA194B1748197803E002F060FA01
:104AE0001448FF2102F02EF994F820305BB994F8B5
:104AF000313043B994F83D302BB994F8213013B1DB
:104B00001848FEF72FFD0B48002102F08DF90DE04B
:104B1000002380F83130012380F84830ECE6002390
:104B200084F83D30012384F84830F0E608B070BDC9
:104B3000E83F00208C1C0020CC6801008895FF1FF6
:104B40000000C8426695FF1F0F6A01006C95FF1FA9
:104B5000156A01007395FF1F1D6A0100266A010096
:104B6000CD690100701E0020054B064A1B7800200D
:104B7000815C994203D201300528F9D100207047A9
:104B80008895FF1F8E95FF1F064B074A19781078EE
:104B9000814201D2187070471279914288BF1A7011
:104BA000704700BF6695FF1F8995FF1F064B074A98
:104BB00019781078814201D21870704712799142A9
:104BC00088BF1A70704700BF8895FF1F8E95FF1F22
:104BD000F0B51E46204B1B788DB004460D46174697
:104BE000002B35D01D48214605F0C8FA18B91B48DE
:104BF000214605F0CDFA04AC204618492A46012387
:104C000005F06AFA204605F028F9F0B1002168465F
:104C100008F09AFB204605F086F80126C1B26D46E1
:104C200007E0684608F0C9FB204605F07CF801362D
:104C3000C1B2BE42F5DD204605F003F9684608F032
:104C4000EEFB0646684608F03EFB04A805F0C0F8F7
:104C500030460DB0F0BD00BFB81A0020803C0020E7
:104C600038B502220B232449244D04462448FFF77B
:104C7000AFFF0B236882234921480222FFF7A8FFD8
:104C8000B5F91230003018BF0120591CE87502DA5E
:104C90004FF6FF7302E0172B01DD17236B82012211
:104CA000002317481849FFF793FF002801DC206113
:104CB00001E000232361236820465B6900219847B7
:104CC00012490F480322FF23FFF782FF1049207784
:104CD0000322FF230A48FFF77BFF0E496077032278
:104CE000FF230748FFF774FF044B627F217FA07703
:104CF00019755A75987538BD376A0100981E0020DD
:104D00002E6A01004A6A01005F6A0100746A0100AC
:104D1000876A01009A6A010070B5114D1149124E5F
:104D2000124C0322FF232846FFF752FF3070FFF793
:104D30002BFF2046317801F0F9FF03223F230C4975
:104D40002846FFF745FF0B4D2870FFF72FFF204641
:104D5000297801F0F7FF0848FFF782FF70BD00BF18
:104D60002E6A0100AD6A01006695FF1F8C1C0020B1
:104D7000C26A01008895FF1F701E002010B53448DC
:104D800004F09AFA334803F0B9F8334B31481978F4
:104D900001F0CCFF01212F4801F07CFFFEF78AF8DB
:104DA00001212C4802F0CEFD05212A4802F060FDC9
:104DB0000821284802F080F91921264802F072F9EA
:104DC0003C21244802F04CF90021224802F042F92B
:104DD00001222048214902F0E3F80F20012107F0C9
:104DE00025FB0F211E4805F0E3F81E4B003018BFCD
:104DF0000120187040B11C4C1C492046E160FFF7AF
:104E0000EFFA002360632363194881680131FCF7DE
:104E10007BFC184B0322122000211A6007F006FBCE
:104E20001320002107F002FB134A144840F2032329
:104E300013605360FEF776FB0A4B1B780BB1FFF74C
:104E40006BFF044802F0A6F80028FAD110BD00BF9D
:104E5000951E00208C1C00206695FF1FD76A01005C
:104E6000803C0020B81A00206C1A0020EC6A010077
:104E7000BC1A0020549CFF1F00A00440701E00209C
:104E800070B5154B1B7888B005460C46164603B323
:104E90001248294605F072F918B91048294605F05C
:104EA00077F968460D492246522305F015F90C485A
:104EB0002146FBF7FAFE684604F0CFFF30B16846A2
:104EC000314608F0A1F9684604F0BBFF684604F0DB
:104ED0007FFF08B070BD00BFB81A0020803C0020E2
:104EE000E0400020024B034803491A78FFF7C8BF8F
:104EF0008895FF1F2E6A0100C26A010010B5104B91
:104F000010491A7800235C5C944203D20133052BCC
:104F1000F9D10023181803D40428C8BF002000E0EA
:104F20000420084B064C1B5C2370FFF73FFE06482D
:104F3000217801F007FFBDE81040FFF7D3BF00BFA5
:104F40008895FF1F8E95FF1F8C1C0020F0B5002454
:104F500089B035E0E7000F260025102D4FF0FF0344
:104F6000C8BF8DF8113005A9C8BFC6F10D0304A84C
:104F7000D8BF8DF811608DF812308DF8107003F0E5
:104F80004EFE05A8FBF7C8FE8DF80800C0F3072306
:104F9000C0F307408DF80A008DF80930029B4A489B
:104FA000ADF81C301B0C8DF81E302AB221B207ABB5
:104FB00001350F3602F020FA202DF6B2CDD10134A2
:104FC0001E2CC7DDFF250024002305A904A88DF8A9
:104FD00010308DF811308DF8125003F020FE05A826
:104FE000FBF79AFE8DF80800C0F30723C0F30740D3
:104FF0008DF80A008DF80930029B3348ADF81C305B
:105000001B0C8DF81E301F2122B207AB0134063D68
:1050100002F0F2F9202CEDB2D6D101212A4802F09B
:1050200091FCFFF7A1FD0BF045F94FF07A510BF021
:1050300095F926490BF092F90BF056FB021E04DCA1
:10504000234B1B78002B18BF0122224907A80CF024
:1050500079FA1D48202102F025F81B48052101F0AE
:1050600005FF1D4B18481A889B78ADF8182006A933
:105070008DF81A3002F010F8134801F0CDFE01232C
:105080000B220093104807AB042101F035FF0E48B6
:10509000002101F0C9FE114B1868FCF7F6FA01383F
:1050A0000A280DD8DFE800F006080C0C0E0C0C0CDA
:1050B0000C0C0E00012001E04FF0FF30FFF71EFF47
:1050C000002447E709B0F0BD8C1C00200000C84256
:1050D0006695FF1F0F6A0100CC6801009495FF1FC1
:1050E000024B034803491A78FFF7CABE6695FF1FB3
:1050F0002E6A0100AD6A010010B50446FFF7DEFB21
:10510000001903D40428C8BF002000E00420074B86
:10511000074C1B5C2370FFF737FD0648217801F030
:1051200005FEBDE81040FFF7DBBF00BF8995FF1FFC
:105130006695FF1F8C1C002008B50120FFF7DCFFDF
:10514000034B1878034B1B78834208BF002008BD2F
:105150006695FF1F8995FF1F2DE9F04F924C934EE6
:105160008FB0054688469346A969EA69914238D0CE
:105170006A6822B1506810B1026812699047AA6942
:105180005A4501DB002203E0002A05DA0BF1FF3269
:10519000AA6101E00131A961A96958F82120507A7A
:1051A0000028F7D050686A6010B10268D268904752
:1051B0006A6850680268A860526890476A682873F5
:1051C000506802682861126890476A6A287542B17F
:1051D000226800920099EA6A4FF47A7000FB02128A
:1051E000AA62734802F0CCFB226830600D926A68B4
:1051F0000D9F5068026892689047012182466C4872
:1052000002F0A0FB6A4802F0BBFB1921306069483C
:1052100003F086FC22680C920C9922680192019A94
:10522000CF1BC7EB0209D144DFF894A128464146C1
:105230005A46FFF753FBDAF80000FCF726FA01287C
:105240000BD195F82020002A00F03081A868026870
:1052500012699047AA69013A0CE002280CD195F82E
:105260002020002A00F02281A86802681269904775
:10527000AA690132AA6177E7032817D12A7B002A9D
:105280003FF472AF6A6AA868022A026802D1926982
:10529000904703E052694FF0FF3190476A6A002A55
:1052A0003FF462AF226802920299F8E0042816D116
:1052B0002A7B002A3FF458AF6A6AA868022A02686B
:1052C00002D19269904702E05269012190476A6ACF
:1052D000002A3FF449AF226803920399DFE00528D2
:1052E0001DD16A68117A31B10021A9614FF0FF31F7
:1052F000E96150681FE02A7D4AB101222C482E49FD
:1053000001F04EFE286902685269904705E095F861
:10531000202082F0010285F82020012215E00B28D0
:1053200016D195F820206AB16B680022AA615868EE
:105330004FF0FF32EA61002800F0CC8003681B695F
:105340009847C7E0012285F8202085F848200BE720
:10535000062819D1194A1778002F40F0AE80FFF7C0
:10536000EBFE002800F0A980012285F83C2085F89A
:105370003D2022680492049931E002681269904746
:10538000002F40F09380EFE70A281BD1FFF754FA73
:105390004FF0FF32EA616A685068002800F08680AA
:1053A00002681269904781E0E83F0020BC1A0020A3
:1053B0008C1C0020BC3A0020CD690100941E002006
:1053C0009495FF1F0C280ED10120FFF795FE0122B6
:1053D00085F83C2085F83D202268059205996A6C85
:1053E0008A182A6462E00D280CD14FF0FF30FFF7D5
:1053F00083FE012285F83C2085F83D202268069234
:105400000699ECE707281CD16A6A0132022A88BF94
:1054100000226A626A6A42B1226807920799EA6AC0
:105420004FF47A7000FB0212AA62012285F8302044
:1054300085F83120226808920899AA6B8A186A6355
:1054400034E0082805D1B16824480131FCF75CF943
:105450002CE009280CD195F820203ABB95F82120A2
:1054600082F0010285F82120012285F848201DE004
:10547000696AD9B1226809920998AA6A904215D33B
:105480002A7B42B1A8680129026802D1526990477B
:1054900001E092699047124B1A680A920A99EA6AE7
:1054A0004FF47A7000FB0212AA625DE622680B924A
:1054B0000B9A4A45FFF4BAAE56E6FCF73FF8FFF701
:1054C000BBF94FF0FF32EA616A68506800287FF448
:1054D00054AF55E70FB0BDE8F08F00BFBC1A0020F5
:1054E000E83F002008B5034B034804491A68FFF75A
:1054F00033FE08BD549CFF1F081B00207C95FF1F36
:1055000008B5084B1B78014680F8C13080F8CD30D3
:1055100080F8D93080F8E530F43108300722FFF701
:105520001BFE08BD589CFF1FF0B5002489B035E074
:10553000E7000F260025102D4FF0FF03C8BF8DF8A0
:10554000113005A9C8BFC6F10D0304A8D8BF8DF856
:1055500011608DF812308DF8107003F060FB05A813
:10556000FBF7DAFB8DF80800C0F30723C0F3074010
:105570008DF80A008DF80930029B4348ADF81C30C5
:105580001B0C8DF81E302AB221B207AB01350F3645
:1055900001F032FF202DF6B2CDD101341E2CC7DD33
:1055A000FF250024002305A904A88DF810308DF8EC
:1055B00011308DF8125003F032FB05A8FBF7ACFB5D
:1055C0008DF80800C0F30723C0F307408DF80A00E8
:1055D0008DF80930029B2C48ADF81C301B0C8DF85F
:1055E0001E301F2122B207AB0134063D01F004FF3B
:1055F000202CEDB2D6D1FFF761F90AF05BFE4FF037
:105600007A510AF0ABFE21490AF0A8FE0BF06CF8C3
:10561000021E04DC1E4B1B78002B18BF012207ACB6
:105620001C4920460BF08EFF1748052102F020F997
:10563000194B15481A889B78ADF818208DF81A3048
:105640000B2206AB0421009402F01AF90E48012146
:1056500002F078F9114B1868FCF717F801380A289E
:105660000DD8DFE800F006080C0C0E0C0C0C0C0C2E
:105670000E00012001E04FF0FF30FFF73DFD002458
:1056800056E709B0F0BD00BF8C1C00200000C842E6
:105690006695FF1F0F6A0100CC6801009495FF1FFB
:1056A00070B51F4C1F4E05462B6828469B689847CF
:1056B0001D48FDF757FF1A480021FDF7B9FD1B48AB
:1056C000012102F03FF91948002101F0ADFB3068DB
:1056D000FBF7DBFF01380A28E6D801A353F820F0D6
:1056E0000D5700000D570000A9560000A9560000F4
:1056F0001F570000A9560000A9560000A956000037
:10570000A9560000A95600001F570000E27D084876
:10571000084982F00102E275FFF7B2FBC4E770BDF1
:10572000981E00209495FF1F701E00208C1C0020E6
:105730002E6A01004A6A01002DE9F04104468AB050
:10574000236820469B68984700254FEAC5080F2725
:105750000026102E4FF0FF03C8BF8DF8113005A9A9
:10576000C8BFC7F10D0304A8D8BF8DF811708DF81C
:1057700012308DF8108003F052FA05A8FBF7CCFA2E
:105780008DF80800C0F30723C0F307408DF80A0026
:105790008DF80930029BC148ADF824301B0C8DF800
:1057A000263029B209AB32B201F026FEA3689D4231
:1057B0000ED1E3689E420BD19DF814308DF818305D
:1057C0009DF815308DF819309DF816308DF81A3087
:1057D00001360F37202EFFB2BBD101351F2DB4D1BA
:1057E000FF260025002305A904A88DF810308DF8A8
:1057F00011308DF8126003F012FA05A8FBF78CFA4D
:105800008DF80800C0F30723C0F307408DF80A00A5
:105810008DF80930029BA148ADF824301B0C8DF89F
:1058200026301F212AB209AB01F0E6FDA7681F2F21
:105830000ED1E3689D420BD19DF814308DF81830DD
:105840009DF815308DF819309DF816308DF81A3006
:105850000135063E202DF6B2C4D1E26805A8D3007A
:1058600090468DF814308DF815308DF81630FBF712
:1058700053FA8DF80800C0F30723C0F307408DF8F2
:105880000A008DF809300AAD029B844825F8043DD2
:1058900009AEBFB21B0C06F8023F0FFA88F2391F9F
:1058A000BB1E8DE8240009B21BB201F095FE05A8CD
:1058B000FBF732FA2789B4F80C808DF80800C0F3A2
:1058C0000723C0F307408DF80A008DF80930029BCA
:1058D0007248ADF824301B0C0FFA88F23370391D72
:1058E000BB1C8DE8240009B21BB201F075FE05A8AF
:1058F000FBF712FAA789B4F808808DF80800C0F306
:105900000723C0F307408DF80A008DF80930029B89
:105910006248ADF824303A1F023F0FFA88F11B0CA1
:105920003FB2337012B20B460097019501F054FE5E
:1059300005A8FBF7F1F9A789B4F808808DF80800ED
:10594000C0F30723C0F307408DF80A008DF8093033
:10595000029B5248ADF824303A1D02370FFA88F105
:105960001B0C3FB2337012B20B460195009701F049
:1059700033FE06A8FBF7D0F98DF80800C0F3072323
:10598000C0F307408DF80A008DF80930029B4448A7
:10599000444D03771A0CC3F30721417782772B75A7
:1059A0006975AA75ADF820308DF82220FDF7BAFD93
:1059B000E368112B284601DD002100E01721FDF7E7
:1059C000E7FB3648012101F0BDFF3448002101F01A
:1059D0002BFA354B1868FBF758FE01380A284ED8C9
:1059E000DFE800F00D100609144D4D4D4D4D14002B
:1059F000A368013B01E0A3680133A3603FE0E368D3
:105A0000013B01E0E3680133E36038E09DF81830C2
:105A1000234C8DF81C309DF819308DF81D309DF801
:105A20001A3007A88DF81E30FBF776F98DF80800BC
:105A3000C0F30723C0F307408DF80A008DF8093042
:105A4000029B1849ADF82430180CDAB2C3F30723CF
:105A50004B758DF8260022776377A0770A758875D5
:105A600012481349FFF70CFA627F10481149FFF7FB
:105A700007FA0E481049A27FFFF702FA24E0A36854
:105A8000002B01DA1F2302E01F2B01DD0023A3609E
:105A9000E368002B12DA1F2314E000BF8C1C0020E7
:105AA000701E0020981E00209495FF1F2E6A010092
:105AB000746A0100876A01009A6A01001F2B7FF750
:105AC0003FAE0023E3603BE60AB0BDE8F08100BFD3
:105AD00070B5214C214E05462B6828469B68984797
