:10808000008000203D8200002D500200F14F0200D0
:10809000F14F0200F14F0200F14F0200F14F0200D8
:1080A000F14F0200F14F0200F14F02002D5002008B
:1080B0002D500200F14F02002D500200E14F02004E
:1080C0002D5002002D5002002D5002002D500200B4
:1080D0002D5002002D5002002D5002002D500200A4
:1080E0002D5002002D5002002D5002002D50020094
:1080F0002D5002002D5002002D5002002D50020084
:108100002D5002002D5002002D5002002D50020073
:108110002D5002002D5002002D5002002D50020063
:10812000153902002D5002002D5002002D50020082
:108130002D5002002D5002002D5002002D50020043
:108140002D5002002D5002002D5002002D50020033
:108150002D5002002D5002002D5002002D50020023
:108160002D5002002D5002002D5002002D50020013
:108170002D500200896E02002D5002008173020012
:108180002D5002009D7702002D5002002D5002005C
:108190002D5002002D5002002D5002002D500200E3
:1081A0002D5002002D5002002D5002002D500200D3
:1081B0002D5002002D5002002D5002002D500200C3
:1081C0002D500200690E02002D5002002D500200B9
:1081D0002D5002002D5002002D5002002D500200A3
:1081E0002D5002006D5802002D5002002D5002004B
:1081F0002D5002002D5002002D5002002D50020083
:108200002D5002002D5002002D5002002D50020072
:108210002D5002002D5002002D5002002D50020062
:108220002D5002002D5002002D5002002D50020052
:108230002D5002002D5002002D50020010B5674B4A
:108240004CF220521A804DF628121A8000BF00BF4F
:108250001CF0F0FE4FF01062614B1A60614A083367
:108260001A60614A04331A60A3F530432C3B1B6843
:1082700013F4807F06D100225C4B1A604FF4A852A1
:10828000043B1A605A4B1B7813F0080F04D0584B6C
:108290001A7842F008021A702A22564B1A70564B6E
:1082A000564A9A420DD2131D554CE41A24F0030489
:1082B00004340023104653495A581A500433A34239
:1082C000FAD1514B514A9A4280F08480131F504991
:1082D000C91A21F003011A1D1144002243F8042F8A
:1082E0008B42FBD176E05A581A500433B3F5DE7F47
:1082F000F9D1484B8021484A03F8011B9342FBD136
:10830000464B474A1A600A22464B1A702422A3F6AB
:10831000FF731A70A022013B1A7006331A7812F00C
:10832000020FFBD0404B1A7812F0100FFBD13E4BDE
:108330001A7802F00C02082AFAD103223B4B1A7079
:10834000402201331A7001331A7812F0200FFBD04B
:10835000354B1A7812F0400FFBD0354A354B1A6076
:10836000022204331A602022334B1A7006331A7823
:1083700002F00C020C2AFAD1304A314B1A60314A11
:10838000314B1A600722043B1A6062B61DF030F9C7
:10839000164B1B6813F0010F05D02C481DF08EF80A
:1083A0002B4A2C4B1A602C4B1B7813F0400F0AD031
:1083B000284B1A68264B9A4205D124481DF07EF8B6
:1083C0000022244B1A6022F057FE14F0DDFD1EF04F
:1083D00081F8FEE700231248204984E70E2005407B
:1083E00030800440823F04000100002B14D0034081
:1083F00002D0074000E00740509FFF1F6095FF1F1D
:10840000539FFF1F5050030070580020509FFF1FC4
:108410006B58002000E400E05FE400E008ED00E0BD
:108420000090FF1F005006400640064004400640F2
:10843000000003014480044000400640C0100500D5
:1084400004800440FF76010014E000E016D3475595
:10845000A5C3945A1CE0034000F007408080000050
:10846000FFFFFFFFFFFFFFFFFFFFFFFFFFFFFFFF1C
:10847000FFFFFFFFFFFFFFFFFFFFFFFFFFFFFFFF0C
:10848000FFFFFFFFFFFFFFFFFFFFFFFFFEFFFFFFFD
:1084900010B5054C237833B9044B13B10448AFF33E
:1084A00000800123237010BD509FFF1F00000000BB
:1084B0004850030008B5064B1BB106480649AFF308
:1084C00000800648036813B1054B03B1984708BD07
:1084D0000000000048500300549FFF1F509FFF1FE3
:1084E000000000000020704700207047704700BF68
:1084F000704700BF01207047012070470069704736
:10850000704700BF704700BF30B4C8222C4B1A70B0
:108510002C490B8803EB432203EB820243F21963DD
:108520001A4492B2284C226002EB422402EB8402ED
:108530001A4492B2254C226002EB422402EB8402E0
:108540001A4492B2224C226041F27074214D2C6088
:10855000214D2C6002EB422402EB84021A4492B2B9
:1085600002EB2224E4B2048102EB422402EB8402F7
:108570001A4492B202EB2224E4B2448102EB422478
:1085800002EB84021A4492B202EB2224E4B2848108
:1085900002EB422402EB84021A4492B202EB222440
:1085A000E4B2C48102EB422402EB840213449BB286
:1085B0000B8003EB2323DBB2038230BC704700BF88
:1085C000F49FFF1F1496FF1FB4E4FF1F94B0FF1F1A
:1085D00098B0FF1FE02F0020FCDCFF1F0369C36180
:1085E0004369036200238360704700BF0E4803881D
:1085F00003EB432203EB820243F219610A4492B275
:108600000A4B1A6002EB422302EB83030B449BB23A
:10861000074A136003EB432203EB8203194489B238
:108620000180044B196070471496FF1FB4E4FF1FCC
:1086300094B0FF1F98B0FF1F10B483B0C16E002923
:1086400007DD02460023012442F8144F01338B4218
:10865000FADB184B1B680193019AC2602A238360DE
:108660001F21017600234376036102623724C4612F
:1086700080F82C1080F82D30436242630324046399
:10868000FF2480F8404080F84130836382644724AF
:10869000446480F8541080F85530C364C265592290
:1086A000826580F8681080F86930036603B05DF871
:1086B000044B70476C54002042F6A033C0587047FA
:1086C00008B542F6A433C05810B103681B69984737
:1086D00008BD00BF08B542F6A433C05810B1036806
:1086E000DB68984708BD00BFD0F8B801704700BFED
:1086F000D0F8B83119442F2903DD0023C0F8B83170
:1087000006E00029AEBFC0F8B8112F23C0F8B83179
:10871000D0F8B831DA1C00F1100300EBC20003C836
:1087200083E80300704700BF006B704710B582B04C
:1087300000248DF804408DF805408DF8064003486C
:1087400001A916F08FFA204602B010BDF89FFF1F56
:1087500030B583B0054600248DF804408DF80540FF
:108760008DF80640044801A916F07CFAC5F81849AE
:1087700085F8244903B030BDF89FFF1F30B583B0A2
:10878000054600248DF804408DF805408DF806401C
:10879000044801A916F066FA41F21043EC5003B008
:1087A00030BD00BFF89FFF1F10B504467C301DF0A0
:1087B0009BFF204610BD00BF2DE9F04182B0054669
:1087C0004A4B5E7C0B2E28BF0B26494C20462021AD
:1087D00015F06AFD204605F1680115F05DFD2046A3
:1087E000002115F021FC204615F0E4FB414B1B78DD
:1087F000002B6FD0404A937854780C2B84BF0C3BED
:10880000DBB2023355F8233001210091384832465B
:1088100015F054FC3CB9012100913548F21D374B4D
:1088200015F04CFC5DE0092C14D8DFF8C48001275A
:10883000009740463946F21D314B15F03FFC02349B
:1088400055F8243000974046394606F10E0215F0DF
:1088500035FC46E0112C11D1254F6B6A01240094A0
:1088600038462146F21D15F029FC00943846214671
:1088700006F10E02234B15F021FC32E0132C09D82F
:10888000023455F82430012100911948F21D15F0E9
:1088900015FC26E01C4FA7FB0437FF0807F1140363
:1088A00055F82330012100911148F21D15F006FC06
:1088B00007EB8707A4EB470414F0FF0411D0023440
:1088C00055F8243001210091094806F10E0215F0F7
:1088D000F5FB06E001210091054832460B4B15F0EF
:1088E000EDFB002002B0BDE8F08100BF7CB0FF1FAF
:1088F000F89FFF1F18270020A4B0FF1F3C020300B1
:1089000044020300240B0300CDCCCCCC480203006E
:1089100010B50446002004211DF0DCFEA0730120E8
:1089200003211DF0D7FEE06110BD00BF2DE9F04F1F
:108930008DB000248DF824408DF825408DF8264018
:108940003D4809A916F08EF92046FF211DF0C2FE10
:108950003A49C2B291F8083C009308A801F60941CF
:10896000FF2317F091FB01250395A246A34602942D
:108970004BE0584602211DF0ADFE012806D19DF8BE
:1089800020909DF821809DF8227003E05F46DDF87D
:108990000880C146A5B2261DB6B28DF828908DF884
:1089A00029808DF82A7033B200930AAB01932248D4
:1089B000DDF810E00FFA8EF12AB2DDF814E00FFABC
:1089C0008EF316F029F9BAF1010F11DC8DF82C9015
:1089D0008DF82D808DF82E7036B200960BAB01937A
:1089E0001548079A11B22AB2069D2BB216F014F957
:1089F0000634A4B21F2CBCD10AF1010A039DAB1DA1
:108A00009BB20393BAF1030F10D0039DADB204954E
:108A1000039D2B1D9BB20593C5F11A039BB20793CF
:108A2000C5F11E039BB206930124A2E74FF4FA603E
:108A30000DB0BDE8F08F00BFF89FFF1F00A4FF1F1F
:108A400030B585B000248DF808408DF809408DF8C8
:108A50000A400D4D284602A916F004F92846214681
:108A600016F024F9094B1A889B78ADF80C208DF884
:108A70000E30074B0093284621461B2203AB16F00D
:108A80001DF9204605B030BDF89FFF1FD0FF020042
:108A90006C95FF1F30B585B000248DF808408DF827
:108AA00009408DF80A400D4D284602A916F0DAF863
:108AB0002846214616F0FAF8094B1A889B78ADF83B
:108AC0000C208DF80E30074B0093284621461B22C0
:108AD00003AB16F0F3F8204605B030BDF89FFF1F3A
:108AE000D0FF02006C95FF1F30B585B000248DF8D3
:108AF00008408DF809408DF80A400D4D284602A91E
:108B000016F0B0F82846214616F0D0F8094B1A881E
:108B10009B78ADF80C208DF80E30074B009328465B
:108B200021461B2203AB16F0C9F8204605B030BD24
:108B3000F89FFF1FD0FF02006C95FF1F30B585B076
:108B400000248DF808408DF809408DF80A400D4D3D
:108B5000284602A916F086F82846214616F0A6F8FF
:108B6000094B1A889B78ADF80C208DF80E30074B16
:108B70000093284621461B2203AB16F09FF820469F
:108B800005B030BDF89FFF1FD0FF02006C95FF1F9E
:108B900030B585B000248DF808408DF809408DF877
:108BA0000A400D4D284602A916F05CF828462146D9
:108BB00016F07CF8094B1A889B78ADF80C208DF8DC
:108BC0000E30074B0093284621461B2203AB16F0BC
:108BD00075F8204605B030BDF89FFF1FD0FF02009A
:108BE0006C95FF1F30B585B000248DF808408DF8D6
:108BF00009408DF80A400D4D284602A916F032F8BA
:108C00002846214616F052F8094B1A889B78ADF891
:108C10000C208DF80E30074B0093284621461B226E
:108C200003AB16F04BF8204605B030BDF89FFF1F90
:108C3000D0FF02006C95FF1F30B585B000248DF881
:108C400008408DF809408DF80A400D4D284602A9CC
:108C500016F008F82846214616F028F8094B1A881D
:108C60009B78ADF80C208DF80E30074B009328460A
:108C700021461B2203AB16F021F8204605B030BD7B
:108C8000F89FFF1FD0FF02006C95FF1F30B585B025
:108C900000248DF808408DF809408DF80A400D4DEC
:108CA000284602A915F0DEFF2846214615F0FEFFF2
:108CB000094B1A889B78ADF80C208DF80E30074BC5
:108CC0000093284621461B2203AB15F0F7FF2046F0
:108CD00005B030BDF89FFF1FD0FF02006C95FF1F4D
:108CE00030B585B000248DF808408DF809408DF826
:108CF0000A400D4D284602A915F0B4FF284621462A
:108D000015F0D4FF094B1A889B78ADF80C208DF82C
:108D10000E30074B0093284621461B2203AB15F06B
:108D2000CDFF204605B030BDF89FFF1FD0FF0200E9
:108D30006C95FF1F30B585B000248DF808408DF884
:108D400009408DF80A400D4D284602A915F08AFF0A
:108D50002846214615F0AAFF094B1A889B78ADF8E2
:108D60000C208DF80E30074B0093284621461B221D
:108D700003AB15F0A3FF204605B030BDF89FFF1FE1
:108D8000D0FF02006C95FF1F30B585B000248DF830
:108D900008408DF809408DF80A400D4D284602A97B
:108DA00015F060FF2846214615F080FF094B1A8810
:108DB0009B78ADF80C208DF80E30074B00932846B9
:108DC00021461B2203AB15F079FF204605B030BDCC
:108DD000F89FFF1FD0FF02006C95FF1FFFFFFFFFF2
:108DE0002DE9F0478AB0064600238DF80C308DF847
:108DF0000D308DF80E30644803A915F033FF776904
:108E0000B7F1FF3F0CD120201DF058FCF06020206E
:108E10001DF054FC3061AA23B3600023736100E0AD
:108E200027BBB589348A594B327A93F8081C0091D4
:108E300005A803F60941FF2317F026F99DF8152030
:108E40009DF816309DF814108DF810108DF8112033
:108E50008DF8123004AB00934B4829B222B20023A4
:108E600015F09CFD73690133736183E0B3699F4220
:108E70007DDAB6F80C90B6F8108096F808A0F06984
:108E800021F040FA04460D46B81E21F029FA0246A8
:108E90000B46204629461EF0CDFF39A3D3E9002317
:108EA00021F084FA21F044FDC3B2384A92F8082C2C
:108EB000009207A83649524617F0E6F89DF81D20A3
:108EC0009DF81E309DF81C108DF818108DF8192093
:108ED0008DF81A3006AB00932B480FFA89F10FFA80
:108EE00088F2BBB215F05AFD7769032F3BDDB6F867
:108EF0000C90B6F8108096F808A0F06921F002FAFC
:108F000004460D46B81E21F0EBF902460B462046FA
:108F100029461EF08FFF1AA3D3E9002321F046FA59
:108F200021F006FDC3B2194A92F8082C009209A854
:108F30001749524617F0A8F89DF825209DF82630CD
:108F40009DF824108DF820108DF821208DF8223006
:108F5000FB1E08AA00920C480FFA89F10FFA88F25A
:108F60009BB215F01BFD73690133736102E04FF092
:108F7000FF33736132200AB0BDE8F087AFF30080A1
:108F80000000000000E06F40F89FFF1F00A4FF1FDB
:108F900009B0FF1FAFF3008010B500F110042046A8
:108FA00018F000FE10B1204618F0F0FD10BD00BF13
:108FB00010B500F5F474204618F0F4FD10B1204609
:108FC00018F0E4FD10BD00BF10B50446034B03606C
:108FD00000F5F47018F092FD204610BDB8FF0200B5
:108FE00010B50446034A40F8102B18F087FD2046C0
:108FF00010BD00BF10FE020010B5044600F516605B
:1090000018F07CFD204610BD2DE9F04F83B083465B
:109010004FF000094FF00F0A204E4FEAC9085FFADF
:1090200088F855460024FF27102C06DC8DF80080B8
:109030008DF801508DF8027007E08DF800808DF8F2
:109040000170C5F10D038DF80230684601A917F0D3
:1090500017F99DF8042096F820309A4210D19DF817
:10906000052096F821309A420AD19DF8062096F8FC
:1090700022309A4204D1CBF80890CBF80C4009E09A
:1090800001340F35EDB2202CCED109F10109B9F12F
:109090001F0FC2D103B0BDE8F08F00BF2430002005
:1090A0002DE9F04F83B083464FF000094FF00F0ACF
:1090B0001E4E4FEAC9085FFA88F855460024FF277C
:1090C000102C06DC8DF800808DF801508DF80270B0
:1090D00007E08DF800808DF80170C5F10D038DF863
:1090E0000230684601A917F0CBF89DF804203378C8
:1090F0009A420ED19DF8052073789A4209D19DF8C5
:109100000620B3789A4204D1CBF80890CBF80C40F3
:1091100009E001340F35EDB2202CD1D109F101095C
:10912000B9F11F0FC5D103B0BDE8F08F04300020A6
:1091300008B51CF0BDF908BD2DE9F04786B005461D
:10914000D0F81839002B2BDC00238DF80C308DF86B
:109150000D308DF80E30A94803A915F083FD05F1F7
:109160000F0305F20F10002106E003F8011F9342E0
:10917000FBD1824203D0134603F11002F5E7102021
:109180001DF09CFA044610201DF098FAC5F818410D
:10919000C5F81C010123C5F81839002385F82439C6
:1091A000D5F81809D5F81C39012B01D0441E02E06E
:1091B0001DF084FA0446002CC0F2C78004F123029B
:1091C00005F5887305EBC20292E8030083E803000B
:1091D0008046D5F814912F4600264FF0040A3046F9
:1091E00051461DF077FA97F82539284490F825293B
:1091F00087F8252980F8253901360137042EEED16C
:10920000D5F81C39012B0BD07D4991F8083C00930F
:1092100002A801F60941E2B2FF2316F035FFACE0E7
:1092200095F82429531C85F82439754991F8083C90
:10923000009302A801F60941FF2316F025FF9CE0E8
:1092400093F82509022809D004280DD0012811D14E
:10925000D5F81061D5F81471013F10E0D5F8106110
:10926000D5F8147101370AE0D5F81061013ED5F840
:10927000147104E0D5F810610136D5F814710F2E81
:1092800052D80F2F50D805EB07113144097C002923
:109290004AD14FEA48014FEA4902D5F81441D5F8BE
:1092A000103105EB041423441C7C04431C7405EBAF
:1092B000071333441B7C022869D0042860D001289E
:1092C00000F0918005EB0714344443F00403237449
:1092D000022807D0042807D0012818BF013105D182
:1092E000013A03E0013201E00139FFE79DF809008E
:1092F0009DF80A309DF808408DF814408DF815004F
:109300008DF816303D4809B212B205AB15F0A6F93A
:10931000D5F818395A1CC5F81829233305EBC302B0
:1093200045F83360576010E00133934288D135E04F
:10933000013493E8030003E90300D5F81829013A42
:1093400008339442F4DBC5F81829D5F81839002BF6
:109350000EDCD5F81C390133C5F81C39D5F82029A5
:10936000934207DB0023C5F81C394FF47A7041E0C3
:1093700000203FE04FF47A703CE02A1D2B465FE767
:1093800005EB0710304443F008030374ACE705EB2A
:109390000710304443F001030374A3E704F12303EF
:1093A00005EBC30255F833104900526852009DF88E
:1093B00009009DF80A309DF808608DF810608DF85E
:1093C00011008DF812300D4809B212B204AB15F03D
:1093D00045F9D5F81829013A9442B4DA04F1240386
:1093E00005EBC303A4E705EB0710304443F0020389
:1093F000037475E706B0BDE8F08700BFF89FFF1F54
:1094000000A4FF1F70B504460E4642F6A033C358B1
:109410000B44262B04DD002242F6A033C25009E0A3
:10942000002B03DB42F6A032835003E0262242F6F3
:10943000A033C25042F6A033E55842F6A433E058B8
:1094400010B103681B69984742F6A033E55005F652
:10945000EA2554F8250042F6A433E05010B1036821
:10946000DB689847074B1B785BB904F1600342F651
:10947000A432A2589A4204D123685B69204631463F
:10948000984770BD1827002010B504460369194499
:10949000012902DD0023036104E00029AEBF016160
:1094A00001230361E06910B103681B6998472369D0
:1094B00004EB83035869E06110B10368DB689847E7
:1094C00010BD00BF10B50446002002211DF002F9B6
:1094D000012802DD0023236104E00028AEBF2061E3
:1094E00001232361E06910B103681B699847236970
:1094F00004EB83035869E06110B10368DB689847A7
:1095000010BD00BF70B582B004461D4B1B680193AF
:10951000019A8368D21AC3689A4228D90022194B4B
:109520001A7019481AF0C8FD18B10122154B1A70AB
:1095300010E094F8233013B914481AF035FD124E98
:1095400035781AF0E3FC31461AF080FB33785D1B66
:1095500018BF012545B101220D4B1A70084B1B683D
:109560000093009BA36002E00022094B1A70E0699F
:1095700010B103689B689847002002B070BD00BF1F
:109580006C540020FCA3FF1FA4B0FF1F319100000A
:1095900018270020FFFFFFFF2DE9F04F8FB0244C6C
:1095A00000250027A046DFF88C904FF0814B00206B
:1095B000FF211DF08FF80020FF211DF08BF82846B9
:1095C00021F0E0FA20606760C8EB040608F10803A8
:1095D000F75006EB030A284620F082FE12A3D3E9D7
:1095E000002320F0E3FE21F0C3F9CAF8040008F1DB
:1095F0001003F7501E447760C4F81890C4F81C900C
:10960000C4F820B04FF082436362EB0084F8283046
:109610000C9BE362012384F830301D443434202D48
:10962000C5D10FB0BDE8F08F7B14AE47E17A84BF9F
:109630002C270020000020412DE9F04F91B0364941
:109640000B8803EB432203EB820343F219621344BA
:109650009BB2038103EB432403EB840313449BB2CB
:10966000438103EB432403EB84031A4492B20A8040
:1096700082812A4C0026DFF8AC904FF07C5A2020E3
:109680001DF01CF805460020FF211DF023F883463D
:109690000020FF211DF01EF80190284621F06EFAEF
:1096A000206066601D4BE51A984603F1080758468E
:1096B00021F068FA494621F06DFB514621F0ACF9E2
:1096C000E8512F44019821F05DFA494621F062FBF0
:1096D000514621F0A1F9786008F11003EE501D44C5
:1096E0006E600F4BA3614FF07F53E3614FF08143F6
:1096F00023624FF082436362002384F828300E9B7C
:10970000E362012384F83030343408F502639C426C
:10971000B5D111B0BDE8F08F1496FF1F2C270020A3
:10972000CDCC4C3D00007F432DE9F04F83B0834604
:10973000002002211CF0CEFF0028034608BF4FF096
:10974000FF330193DBF80830002B4FDD294C002557
:1097500000270020FF211CF0BDFF0020FF211CF08E
:10976000B9FF282032211CF0B5FF8246224B23602E
:10977000C5F11F0021F006FA60601E4BE61A9846FC
:1097800003F10809504621F0FDF91C4921F002FBC4
:109790008246019821F0F6F90146504621F046FA3A
:1097A00046F80900B144C9F8047008F1100846F8F9
:1097B0000870B044C8F80470114BA3614FF07F5398
:1097C000E3614FF0814323624FF0824363626B0198
:1097D00084F828304FF07E53E362012384F8303060
:1097E0001D443434DBF80830AB42B2DC03B0BDE8D2
:1097F000F08F00BF2C270020000070410000C842FD
:10980000CDCC4C3D2DE9F04F93B00B9041F210437D
:10981000C358002B40F0B7838DF83C308DF83D30B5
:109820008DF83E30B1480FA915F01CFA04201CF049
:1098300045FF032800F2B181DFE810F016000D00AB
:1098400004004C0100221346A94D174640F6F526A8
:109850004FF0FF0816E100221346A54D174640F6CB
:10986000F5264FF0FF08A9E000221346A04D174649
:1098700040F6F5264FF0FF083CE085FB04AB4FEACD
:10988000E47ACAEBAB0A80F813A080F814C080F821
:1098900015E00133B3F5806F00F06383FF340330CC
:1098A0004B45EAD1FF31B14220D085FB010CC817EE
:1098B000C0EBAC0C5FFA8CFC03EB430410340B9848
:1098C0002044DDF82C9009F8047080F801C080F87D
:1098D00002E05C1CB4F5806F00F0438303EB4300AF
:1098E000484403F10B0923464446C6E7FF32B2421F
:1098F00000F0378385FB02AED117C1EBAE0E5FFAE5
:109900008EFE3946D1E7284631461CF0E3FE94F836
:1099100010C094F811E0A17C00EB40003B1833F834
:10992000102F9B782282A37400F11002BB1807F855
:1099300002C083F801E0997001350334B5F5806FFA
:10994000E1D12AE180F813E085FB04AB4FEAE47A29
:10995000CAEBAB0A80F814A080F815C00133B3F548
:10996000806F00F00483FF3403304B45EAD1FF31B0
:10997000B1421FD085FB010CC817C0EBAC0C5FFADD
:109980008CFC03EB430410340B982044DDF82C903E
:1099900009F804E0477080F802C05C1CB4F5806FE1
:1099A00000F0E58203EB4300484403F10B09234632
:1099B0004446C7E7FF32B24200F0D98285FB02AECF
:1099C000D117C1EBAE0E5FFA8EFE3946D2E72846BC
:1099D00031461CF07FFE94F810C094F811E0A17C91
:1099E00000EB40003B1833F8102F9B782282A374C1
:1099F00000F11002BB1807F802C083F801E099706B
:109A000001350334B5F5806FE1D1C6E080F813E08D
:109A100080F814C085FB04AB4FEAE47ACAEBAB0ACA
:109A200080F815A00133B3F5806F00F0A682FF34F3
:109A300003304B45EAD1FF31B1421FD085FB010C09
:109A4000C817C0EBAC0C5FFA8CFC03EB430410347A
:109A50000B982044DDF82C9009F804E080F801C050
:109A600087705C1CB4F5806F00F0878203EB4300C5
:109A7000484403F10B0923464446C7E7FF32B2428C
:109A800000F07B8285FB02AED117C1EBAE0E5FFA10
:109A90008EFE3946D2E7284631461CF01BFE94F86C
:109AA00010C094F811E0A17C00EB40003B1833F8A3
:109AB000102F9B782282A37400F11002BB1807F8C4
:109AC00002C083F801E0997001350334B5F5806F69
:109AD000E1D162E00020FF211CF0FCFDC6B2DDF800
:109AE0002C804FF0000BD946FF2751E0F89FFF1F55
:109AF00067666666B5F5806F15DA8DF838608DF8A3
:109B000039408DF83A700EA811A916F0A5FB9DF802
:109B100044109DF845209DF846308AF800108AF8D8
:109B200001208AF8023001351034A4B20AF1030A88
:109B3000B4F5807FDED1DA460BF11005C346B5F5EA
:109B4000806F15DA8DF838608DF839708DF83A40ED
:109B50000EA810A916F080FB9DF840109DF841203A
:109B60009DF842308BF840108BF841208BF8423042
:109B70000135103CA4B20BF1030B002CDFD10AF12C
:109B8000200B0836F6B208F16008BBF5806F04D0F0
:109B900008F1100A5D464C46ACE702201CF08EFD31
:109BA00041F21443DDF82C9049F8030009F54160B7
:109BB00009F54364002208E01A7083F8002420337A
:109BC0008B42F9D10130A04203D000F580610346F9
:109BD000F2E741F21043DDF82CA05AF8033003EB12
:109BE0004302524432F8101F9278ADF834108DF8C9
:109BF000362043B920201CF061FD054620201CF0D2
:109C00005DFD04464DE19DF83490CDF820909DF81F
:109C100035A0CDF81CA09DF83690CDF8189041F2F3
:109C20001443DDF82CA05AF8033053B94FF0000963
:109C3000CDF81490CDF82490CDF80890AC490A9155
:109C40009BE04FF00009CDF81090CDF81490CDF8BE
:109C50000C90A74909911FE109950594029A5A446D
:109C600041F21003D35C002B6FD0029A02320392B0
:109C7000029B5E1EDFF878A207F1FF39CDF8109045
:109C8000CDF804B0B6F1FF3F4AD0202E48D0DDF821
:109C9000049009F5416507F102083544049C0FFA68
:109CA00086FB0FB90298B8B3B4F1FF3F34D0202C33
:109CB00032D015F8203C7BB38E4821B25A4614F0BE
:109CC0007FFC8DF83800C0F307228DF83920C0F3EF
:109CD00007438DF83A30C0B2DDF82090C9EB0000A0
:109CE000D2B2DDF81C90C9EB0202DBB2DDF81890AD
:109CF000C9EB030302FB02F200FB002003FB030994
:109D0000D14507DB08D102201CF0D8FC012818BF80
:109D1000CA4601D1CA46FFE7013420354445C0D1C7
:109D20000136DDF80C904E45ACD1DDF804B00A9850
:109D3000824505DB0CD102201CF0C0FC01280AD1B1
:109D4000029C3D46CDF828A009E0059C099D06E04F
:109D5000059C099D03E0059C099DCDF828A00137CD
:109D60000BF1200B202F7FF477AF02990131029184
:109D7000202900F0968009950594DDF82CA04FF07D
:109D8000000B5F46D34669E705950494039A524455
:109D900041F21003D35C002B63D0DDF80C9009F185
:109DA000FF364FF00009CDF804904FF0FF380BEB71
:109DB00008000290CDF828B0B6F1FF3F39D0202E30
:109DC00037D00AF541650AF5476737443544029CA8
:109DD0000FFA86FBB4F1FF3F27D0202C25D015F8D1
:109DE000203C13B309F10109424821B25A4614F04C
:109DF000E7FB8DF83800C0F307228DF83920C0F357
:109E000007438DF83A30C0B20899401AD2B2079988
:109E1000521ADBB206995B1A02FB02F200FB002029
:109E200003FB0303019A1A44019201342035BD4219
:109E3000D0D108F101080136B8F1020FBCD1DDF82C
:109E400028B0019B93FBF9F60998864205DB0BD1FC
:109E500002201CF033FC012809D1039C5D460996C1
:109E600008E0049C059D05E0049C059D02E0049C1F
:109E7000059D09960BF1010B0AF1200ABBF1200F99
:109E800082D1DDF80C9009F10109CDF80C9048461B
:109E9000202806D005950494DDF82CA04FF0000B87
:109EA00074E7DDF82C9009EB45163319002141F2D7
:109EB00010029954012283F8102C0E4829B222B2C4
:109EC0000DAB14F0CBFB013C2F464FF0FF3206F5F3
:109ED000805610364FF000084FF0010CB4F1FF3FF0
:109EE00021D0202C1FD06B1E3019414607E000BF47
:109EF0003F420F00F89FFF1F0131203001339F4286
:109F000001D1002AF8D0B3F1FF3F0AD0202B08D0AE
:109F1000A0F5846999F80090B9F1000F01D100F81B
:109F200020CC0129E8DD01320134022AD6D141F2E8
:109F30001043DDF82CA05AF803300133B3F5806FDD
:109F400005DA41F210424AF80230002028E00022EF
:109F500041F21043DDF82C9049F8032040F6B83068
:109F60001EE00B9C00254FF480662746CBE40B9C3B
:109F700000254FF48066274629E50B9C00254FF409
:109F80008066274687E503EB4303DDF82CA05344A6
:109F900033F8102F9B78ADF834208DF8363032E648
:109FA00013B0BDE8F08F00BF70B483B0FF289CBF32
:109FB000000280B21E4C24680194019CE31A4FF405
:109FC0008C7404FB03F300FB03F39DF8184004EBCF
:109FD0001363DBB213F0400F21D0DD43EDB205F087
:109FE0003F0005F00F050135124C00114000261806
:109FF000767805FB06F5205C00EB2515EDB213F035
:10A00000800F0EBFEBB26B42DBB283F08003501ABD
:10A01000C0B200FB03F001EB2021C8B204E003F062
:10A020003F0003F00F05DFE703B070BC704700BFCF
:10A030006C5400201C020300F0B583B00446467C3B
:10A040001F4B1B78C3B11F4B9D78437D1BB90C2D53
:10A0500084BF0C3DEDB21C48052113F0E5FF04F16F
:10A0600008001A492A46174B5B7821F0BBFD0A2DE0
:10A0700034BF042701270AE01348002113F0D4FF5E
:10A08000134B03CBA060E1601B78237401270E4DB6
:10A090002846202114F008F9284604F1120114F092
:10A0A000FBF8284613F086FF012300932846394623
:10A0B000324604F1080314F001F8002003B0F0BDAB
:10A0C00018270020A4B0FF1FF89FFF1F54020300B1
:10A0D000480203002DE9F04F9FB003904D4CDFF88C
:10A0E0005091DFF840814FF07C5B4FF0000A002078
:10A0F000FF211CF0EFFA01900020FF211CF0EAFA8A
:10A100000290C4F80090C4F804904249651A0F46C2
:10A1100001F10806019820F035FD414620F03AFE95
:10A12000594620F079FCA8512E44029820F02AFDCF
:10A13000414620F02FFE594620F06EFC706007F17A
:10A14000100345F803A01D44C5F804A04FF0814357
:10A1500023624FF082436362002384F828300F9B10
:10A16000E362012384F830302B4BE3612B4BA36176
:10A17000343407F502729442B9D1002002211CF058
:10A18000A9FA0028D4BF00200120039B83F84500D2
:10A1900000283BD00020FF211CF09CFA054600203F
:10A1A000FF211CF097FA04461D4B03998B60CB608E
:10A1B000284620F0E7FC1B4920F0ECFD4FF07C51D5
:10A1C00020F02AFC039A1061204620F0DBFC1549A0
:10A1D00020F0E0FD4FF07C5120F01EFC039B586105
:10A1E000002303998B61CB61002281F830201C9AF7
:10A1F0004A63012281F8382081F845200A4A4A62E0
:10A200000A4A0A624FF08342CA628B621FB0BDE8FD
:10A21000F08F00BF2C2700205C8FC23E8FC2753CA0
:10A220000000F84100007F43B81EC53E0AD7A33C9A
:10A23000000070412DE9F04387B000258DF81050E3
:10A240008DF811508DF81250214804A914F00AFD20
:10A25000DFF88490DFF884801E4E06F60947D8F8B0
:10A26000003095FBF3F359F823402246002CB8BF89
:10A27000E21C96F8083C009303A83946C2F3870213
:10A28000FF2315F001FFABB29DF80D109DF80E20D5
:10A290009DF80C008DF814008DF815108DF816201F
:10A2A00019B22246002CB8BF04F11F025211C2F1AC
:10A2B00020021F20009005A80190054812B21BB291
:10A2C00014F018FB0135202DC9D107B0BDE8F0838B
:10A2D000F89FFF1F00A4FF1FD8260020B495FF1F82
:10A2E0002DE9F04F87B000278DF810708DF81170B0
:10A2F0008DF81270294804A914F0B4FC284B1D1FD6
:10A3000003F1380BDFF89C8008F6094ADFF88C90DF
:10A3100055F8044F6E682246002CB8BFE21C98F82E
:10A32000083C009303A85146C2F38702FF2315F0AF
:10A33000ABFE2346002CB8BF04F11F035A11C2F133
:10A340002002D2B23346002EB8BF06F11F035B11C4
:10A35000C3F12003DBB2BC1CA4B29DF80D009DF834
:10A360000E109DF80C608DF814608DF815008DF8B6
:10A3700016101F2B28BF1F23009305AB01934846DF
:10A3800039B21F2A28BF1F2223B214F0B3FA5D4549
:10A3900001D02746BCE707B0BDE8F08FF89FFF1F4C
:10A3A000D826002000A4FF1F38B505460C460846F5
:10A3B0001AF078FE02462B685B68284621469847CB
:10A3C00038BD00BF38B504460D4608461AF06AFE8F
:10A3D000024623685B682046294698470546204682
:10A3E0001CF0BAF8284438BD2DE9F04383B0074685
:10A3F0000E4615460E4B1B680093DDF800900024B6
:10A40000DFF82C803019291B1BF090FE0444A54274
:10A410000AD9D8F800300193019AC9EB0202BB684F
:10A420009A42EFD301233B73204603B0BDE8F0838B
:10A430006C54002030B589B0054600238DF80430F7
:10A440005A4B009302914FF0FF33039358486946EB
:10A450001AF046FA0446002800F0A5805448214628
:10A46000544A1AF0A5FA0346027C042A04D105F1E5
:10A470000C00996921F0ACFD4D4821464E4A1AF076
:10A4800097FA037C022B04D1836985F8703001238D
:10A490002B7147482146494A1AF08AFA037C022B5D
:10A4A00004D1836985F8713001232B71404821461E
:10A4B000434A1AF07DFA037C022B04D1836985F8A4
:10A4C000723001232B713A4821463E4A1AF070FA45
:10A4D000037C022B04BF83696B67354821463A4AE7
:10A4E0001AF066FA037C022B04BF8369AB6730481D
:10A4F0002146364A1AF05CFA0346027C042A04D14B
:10A5000005F17C0099691CF08BF929482146304AF5
:10A510001AF04EFA037C022B04BF836985F88C3055
:10A52000234821462B4A1AF043FA0346027C042AA8
:10A5300033D104A899691CF023F904A826491CF01A
:10A54000CFF9E0B904A825491CF0CAF9C8B904A894
:10A5500023491CF0C5F9B0B904A822491CF0C0F980
:10A5600098B904A820491CF0BBF980B904A81F4978
:10A570001CF0B6F900280CBF0523042308E00523CE
:10A5800006E0002304E0012302E0022300E00323AD
:10A5900085F88D3004A81CF0A7F80548214619F06D
:10A5A00077FE012000E0002009B030BD60480300C4
:10A5B000D85300205C020300640203006802030019
:10A5C00070020300780203007C020300840203008F
:10A5D0008C020300940203009C020300B0020300FB
:10A5E000BC020300CC020300DC020300E40203000F
:10A5F00030B585B005460C465248534A1AF0D8F992
:10A600000346027C042A04D105F10C00996921F06B
:10A61000DFFC4C4821464D4A1AF0CAF9037C022B54
:10A6200004D1836985F8703001232B714548214698
:10A63000474A1AF0BDF9037C022B04D1836985F8DF
:10A64000713001232B713F482146424A1AF0B0F97C
:10A65000037C022B04D1836985F8723001232B71AE
:10A66000384821463C4A1AF0A3F9037C022B04BF68
:10A6700083696B6733482146384A1AF099F9037C9D
:10A68000022B04BF8369AB672E482146344A1AF077
:10A690008FF90346027C042A04D105F17C009969F4
:10A6A0001CF0BEF8274821462E4A1AF081F9037C97
:10A6B000022B04BF836985F88C30224821462A4A40
:10A6C0001AF076F90346027C042A33D16846996968
:10A6D0001CF056F8684625491CF002F9E0B96846B6
:10A6E00023491CF0FDF8C8B9684622491CF0F8F867
:10A6F000B0B9684620491CF0F3F898B968461F497C
:10A700001CF0EEF880B968461D491CF0E9F80028F5
:10A710000CBF0523042308E0052306E0002304E022
:10A72000012302E0022300E0032385F88D30684610
:10A730001BF0DAFF0348214619F0AAFD012005B0FD
:10A7400030BD00BFD85300205C0203006402030048
:10A750006802030070020300780203007C02030019
:10A76000840203008C020300940203009C02030095
:10A77000B0020300BC020300CC020300DC020300B1
:10A78000E402030010B500F17C04204613491CF0DC
:10A79000A7F8C8B9204612491CF0A2F8B0B9204663
:10A7A00010491CF09DF898B920460F491CF098F804
:10A7B00080B920460D491CF093F868B920460C4931
:10A7C0001CF08EF8052010BD002010BD012010BD2A
:10A7D000022010BD032010BD042010BDE8020300BC
:10A7E000F0020300F8020300040303001003030057
:10A7F0001C03030010B50C46084615491CF070F800
:10A80000E0B9204613491CF06BF8C8B9204612493C
:10A810001CF066F8B0B9204610491CF061F898B9F0
:10A8200020460F491CF05CF880B920460D491CF009
:10A8300057F800280CBF0520042010BD052010BDCE
:10A84000002010BD012010BD022010BD032010BD4E
:10A850009C020300B0020300BC020300CC02030010
:10A86000DC020300E40203002DE9F041D8B0074602
:10A870000D469E4E04AC9AE12B798DF81430AB68EE
:10A8800006932B7B8DF81C3004962B4653F80D0F46
:10A8900059689A68CDF81D00CDF82110CDF8252013
:10A8A0001B7B8DF82930EB690B93684600211BF068
:10A8B00067FF08E0204617F0ABF80FE00A290DD03B
:10A8C00068461BF0E1FF204617F04CF930B12046F6
:10A8D00017F09EF8C1B20D29F0D1EBE7204617F032
:10A8E0000DF90CA882491BF04BFF68460CA91CF01F
:10A8F0002DF880460CA81BF0F7FEB8F1000F13D01E
:10A9000010A8694605221CF081F8684610A91BF0C2
:10A910007FFF10A81BF0E8FE684607F10C016422D7
:10A9200000231CF037F83FE114A872491BF028FF00
:10A93000684614A91CF00AF8804614A81BF0D4FE3F
:10A94000B8F1000F17D018A8694604221CF05EF871
:10A95000684618A91BF05CFF18A81BF0C5FE029BF7
:10A96000002B00F0218168461CF068F887F8700021
:10A9700001233B7118E11CA85F491BF001FF6846E9
:10A980001CA91BF0E3FF80461CA81BF0ADFEB8F12C
:10A99000000F17D020A8694606221CF037F8684639
:10A9A00020A91BF035FF20A81BF09EFE029B002B68
:10A9B00000F0FA8068461CF041F887F87100012326
:10A9C0003B71F1E024A84D491BF0DAFE684624A94A
:10A9D0001BF0BCFF804624A81BF086FEB8F1000FD8
:10A9E00017D028A8694605221CF010F8684628A947
:10A9F0001BF00EFF28A81BF077FE029B002B00F037
:10AA0000D38068461CF01AF887F8720001233B7166
:10AA1000CAE02CA83A491BF0B3FE68462CA91BF0EB
:10AA200095FF80462CA81BF05FFEB8F1000F14D0F4
:10AA300030A8694604221BF0E9FF684630A91BF0E4
:10AA4000E7FE30A81BF050FE029B002B00F0AC800C
:10AA500068461BF0F3FF7867A6E034A829491BF08D
:10AA60008FFE684634A91BF071FF804634A81BF0A6
:10AA70003BFEB8F1000F14D038A8694605221BF040
:10AA8000C5FF684638A91BF0C3FE38A81BF02CFE92
:10AA9000029B002B00F0888068461BF0CFFFB86750
:10AAA00082E03CA818491BF06BFE68463CA91BF0ED
:10AAB0004DFF80463CA81BF017FEB8F1000F25D0D3
:10AAC00040A8694605221BF0A1FF684640A91BF07B
:10AAD0009FFE40A81BF008FE029B002B64D007F1EC
:10AAE0007C0069461BF07EFE5EE000BFE847030085
:10AAF000280303003003030038030300400303006E
:10AB000048030300500303005803030044A82D49E1
:10AB10001BF036FE684644A91BF018FF804644A887
:10AB20001BF0E2FDB8F1000F14D048A869460622D8
:10AB30001BF06CFF684648A91BF06AFE48A81BF092
:10AB4000D3FD029B002B2FD068461BF077FF87F8C0
:10AB50008C0029E04CA81C491BF012FE68464CA949
:10AB60001BF0F4FE80464CA81BF0BEFDB8F1000FB0
:10AB70001AD050A8694605221BF048FF684650A924
:10AB80001BF046FE50A81BF0AFFD029B63B154A81A
:10AB900069461BF031FE384654A9FFF72BFE87F8B3
:10ABA0008D0054A81BF0A0FD68461BF09DFD2B688E
:10ABB0009B682846984700283FF75EAE58B0BDE82E
:10ABC000F08100BF60030300680303002DE9F0413A
:10ABD000F0B00446984B1B78002B00F00B81856881
:10ABE0000135856043799D4204DB4FF0FF3383607C
:10ABF00000251CE10268002DC0F2878008A88F495B
:10AC0000012317F049F908A816F0CCFF002879D0E5
:10AC100010A808A9012217F0E7F9894E894F68E0CA
:10AC200010A816F0B3FF64E010A816F06DFF0146FF
:10AC300003785F2B38D07E2B36D02E2B34D06CA8E7
:10AC40001BF09EFD6CA81BF0E9FE014604A81BF05A
:10AC5000D3FD6CA81BF048FD68A831461BF090FDA1
:10AC600004A868A91BF07EFE012800F0D98064A822
:10AC700039461BF085FD04A864A91BF073FE8046CD
:10AC800064A81BF031FD68A81BF02EFD04A81BF082
:10AC90002BFDB8F1010F07D1013D10A816F034FFCC
:10ACA0000146684621F094F910A816F06FFF5CA8E1
:10ACB00008A9012217F098F99DF874318DF84430F5
:10ACC0005E9B12939DF87C318DF84C3070AB53F83D
:10ACD000430D59689A68CDF84D00CDF85110CDF864
:10ACE00055201B7B8DF85930639B17935CA816F099
:10ACF00005FF10A816F056FF002800F08480002DF4
:10AD00007ADA80E008A816F0F9FE10A8216821F090
:10AD10005FF910A8694620F0ADFF08A8474910AABE
:10AD2000012317F0B9F808A816F03CFF054620B932
:10AD30002046FFF74BFF054658E00026267384F8AF
:10AD4000706084F8716084F8726001236367A367A0
:10AD500004F17C0005211BF075FD182384F88C306C
:10AD600084F88D60267150A869461BF009FD50A833
:10AD70001BF054FE014604A81BF03EFD50A81BF03A
:10AD8000B3FC54A82E491BF0FBFC04A854A91BF0EB
:10AD9000E9FD064654A81BF0A7FC012E04D120466D
:10ADA00008A9FFF761FD11E058A826491BF0E8FC4F
:10ADB00004A858A91BF0D6FD064658A81BF094FC21
:10ADC000012E03D1204608A9FFF734FB23793BB9B4
:10ADD0001D4B33F8042F9B78A4F8702084F8723050
:10ADE00008A816F0D3FE04A81BF07EFC08A816F0F5
:10ADF00085FE1CE000251AE010A816F087FE00284A
:10AE00007FF40EAF10E710A816F0C0FE08A816F0E9
:10AE1000BDFE10A816F072FE08A816F06FFE74E7CB
:10AE200068A81BF061FC04A81BF05EFC34E7284610
:10AE300070B0BDE8F08100BF90DDFF1FD050002052
:10AE40007003030078030300D0FF020070B50646CC
:10AE50000D4B18781FF096FE0146304620F08EF814
:10AE600068B9094D012415F8010F1FF08BFE31461A
:10AE700020F08EF830B901340C2CF4D101E000241C
:10AE800000E00024204670BD9C95FF1F10B50446CD
:10AE9000002120F069F828B92046054920F082F801
:10AEA00010B902E0024C00E00024204610BD00BFB3
:10AEB00000007F4310B5054C20781FF05FFEFFF7C0
:10AEC000E5FF20F09FF8207010BD00BF5432002035
:10AED00010B50C46FFF7BAFF001903D40C28A8BF21
:10AEE000002000E00B20034B185C1FF047FEFFF72B
:10AEF000CDFF10BD9C95FF1F08B5002001211AF061
:10AF00001FFB012001461AF01BFB002001461AF02E
:10AF1000E5FA012001461AF0E1FA08BD2DE9F04FEB
:10AF200083B000257D4B1D70284601211AF0D6FA0A
:10AF3000284629461AF0D2FA2C460126DFF8148258
:10AF4000774F304600211AF0C9FA4FF42073013BC5
:10AF50007FF4FDAF282019F033FF54F8083018446F
:10AF600020EAE073E3519D42B8BF1D4630463146AA
:10AF70001AF0B4FA04341C2CE3D16A4B187818B1D7
:10AF80001FF0FCFD81465AE0674B187800FB05F581
:10AF9000664B1B889D4222DB654B9B7883421ED803
:10AFA000644B1B680093009A634B1B6813B9624B98
:10AFB0001A603FE0614909880B4493423AD21FF07E
:10AFC000DDFD4FF0FF31FFF783FF20F01BF8564BFC
:10AFD00018700023584A1360594A13602AE0594BED
:10AFE0001B889D4221DC524BDB7A83421DD9514B99
:10AFF0001B680193019A524B1B6813B9504B1A609E
:10B0000018E0514909880B44934213D21FF0B6FD52
:10B010000121FFF75DFF1FF0F5FF434B1870002380
:10B02000474A1360444A136004E00023444A136013
:10B03000414A13603C4B18781FF0A0FD8146434BFA
:10B04000D3F800A0354B1D780024354E40F2FF3870
:10B050003F4FA0591FF096FD49461FF0E7FD1FF036
:10B06000ABFF4045A8BF4046A051E259904201DBEA
:10B07000E05104E0002AC4BFCAEB0202E251C12839
:10B08000A8BF012504341C2CE3D1244B1D700025DE
:10B090002C46DFF8C4A0DFF8C4B0DFF8B480204647
:10B0A0001FF070FD51461FF0C1FD07461FF084FFE1
:10B0B00006461FF067FD014638461FF0ADFC074607
:10B0C0000E2C1FDC4FF07E5039461FF0A5FC814648
:10B0D00058F826001FF056FD014648461FF0A6FD11
:10B0E0008146013658F826001FF04CFD39461FF006
:10B0F0009DFD014648461FF091FC1FF05DFF4BF897
:10B10000050003E058F8263045F80B3001340435CB
:10B11000102CC4D103B0BDE8F08F00BFADE1FF1F1C
:10B12000BC260020543200209CB0FF1F8095FF1FDA
:10B130009C95FF1F6C54002094DDFF1FA895FF1FF6
:10B140009CDDFF1F6495FF1F8295FF1F7C95FF1FED
:10B15000E82F002004DDFF1FCDCCCC3ED8260020F8
:10B1600010B50446FFF7DAFE42F6A433E058036850
:10B170009B68984710BD00BF10B50446FFF7CEFE90
:10B18000606910F0010F01D1236903E04310E25818
:10B190002369D35804EB60009847002010BD00BF1E
:10B1A00070B483B0FF289CBF000280B21E4C24689C
:10B1B0000194019D9DF818404034EB1A4FF48C75B2
:10B1C00005FB03F300FB03F304EB1363DBB213F0A3
:10B1D000400F21D0DD43EDB205F03F0005F00F0533
:10B1E0000135124C001140002618767805FB06F553
:10B1F000205C00EB2515EDB213F0800F0EBFEBB213
:10B200006B42DBB283F08003501AC0B200FB03F044
:10B2100001EB2021C8B204E003F03F0003F00F056A
:10B22000DFE703B070BC70476C5400201C020300C1
:10B230002DE9F04F99B08346A74B1B681293129BE0
:10B240004FF40C3202FB03F2120ED3B213F0400F94
:10B2500000F0E882DB43DBB203F03F0103F00F03B1
:10B2600001339E48091149004418647803FB04F334
:10B27000415C01EB2313DBB212F0800F18BF5B427D
:10B28000DBB283F08003F52202FB03F31B120A33C7
:10B29000934A106820210A46DBB214F0E7FE8E4B79
:10B2A0001B681393139B4FF40C3202FB03F2120E34
:10B2B000D3B213F0400F00F0BA82DB43DBB203F0ED
:10B2C0003F0103F00F03013384480911490044187A
:10B2D000647803FB04F3415C01EB2313DBB212F04F
:10B2E000800F18BF5B42DBB283F0800303EB830364
:10B2F0005B116433DBB2CBF82830774B1B681493B7
:10B30000149B4FF4523202FB03F2120ED3B213F02D
:10B31000400F00F09182DB43DBB203F03F0103F00A
:10B320000F0301336D48091149004418647803FB89
:10B3300004F3415C01EB2313DBB212F0800F18BF62
:10B340005B42DBB283F0800303EBC30318120130CE
:10B35000C0B21FF017FC63491FF01CFDCBF81400AE
:10B3600000230093052001210A22FFF719FF1FF097
:10B3700009FC5C491FF00EFD0546CBF81C00DBF80C
:10B380001000DBF814101FF049FB0446CBF8100046
:10B390002846DBF818101FF041FB0646CBF81800D2
:10B3A00020461EF0AFFF04460D4649A3D3E9002313
:10B3B0001FF082FA50B12046294645A3D3E9002365
:10B3C0001EF040FE1FF0D4FACBF8100030461EF0FD
:10B3D00099FF04460D463EA3D3E900231FF06CFA03
:10B3E00050B1204629463AA3D3E900231EF02AFE95
:10B3F0001FF0BEFACBF81800DBF810001EF082FF39
:10B4000004460D461CF000FC1FF0B2FA04902046E2
:10B4100029461CF0C5FC1FF0ABFA0646DBF8180005
:10B420001EF070FF04460D461CF0EEFB1FF0A0FA64
:10B430000590204629461CF0B3FC1FF099FA0446FB
:10B440000599CBF898120023CBF89C3200F1004309
:10B4500006930699CBF8A012304621461FF0E6FB72
:10B460000790CBF8A402049BCBF8A832304605998C
:10B470001FF0DCFB0890CBF8AC02049821461FF0CB
:10B48000D5FB0990CBF8B00206F100460A960A995E
:10B49000CBF8B412049805991FF0C8FB0B90CBF8B9
:10B4A000B802DBF828001FF06DFB0C90DBF82030B1
:10B4B0000D93DBF808100391DBF824300E935D4602
:10B4C0005C464FF00009CDF83CB00DE0AFF30080D2
:10B4D000182D4454FB2119406C5400201C02030019
:10B4E00000A4FF1F0000C842D4F82C80276B666BB5
:10B4F000059841461FF09AFB8246384600211FF00E
:10B5000095FB014650461FF089FA8246069831465F
:10B510001FF08CFB014650461FF080FA8246C4F8AB
:10B520008C00079841461FF081FB834604983946FA
:10B530001FF07CFB014658461FF070FA83460898BE
:10B5400031461FF073FB014658461FF067FAC4F8F6
:10B550009000099841461FF069FB80460A983946D9
:10B560001FF064FB014640461FF058FA07460B984F
:10B5700031461FF05BFB014638461FF04FFA0C992D
:10B580001FF04CFA0646C4F89400039851461FF089
:10B590004DFB31461FF0FEFB01460D981FF03EFAB1
:10B5A0001EF0B0FE1CF06CFB1FF0E2F9C5F8EC00D9
:10B5B0000398D4F890101FF039FB31461FF0EAFBD6
:10B5C00001460E981FF028FA1EF09CFE1CF058FB56
:10B5D0001FF0CEF9C5F8F00009F101090C34083567
:10B5E000B9F1080F80D1DDF83CB0002319460BEB10
:10B5F000030282F80C120C33902BF8D10BF1D80116
:10B6000004915C460125D4F830211D320BEBC202B7
:10B61000D4F834311D330BEBC303191D0391D4F857
:10B6200038711D370BEBC7075668D2F80880586889
:10B6300031461FF0F1F98146B86841461FF0ECF938
:10B64000014648461FF0F2FA8146039B586841467E
:10B650001FF0E2F98046786831461FF0DDF90146B7
:10B6600040461FF0E3FA014648461FF0D5F9002195
:10B670001FF07AFCF8B9D4F8403103EB43030BEB2D
:10B68000830383F80C52D4F8443103EB43030BEBF0
:10B69000830383F80C52D4F8483103EB43030BEBDC
:10B6A000830383F80C52D4F84C3103EB43030BEBC8
:10B6B000830383F80C52243404998C42A3D1634948
:10B6C0009BF8BC2291F8083C009311A801F60941AF
:10B6D000802314F0D9FC0BF190055C46DFF870A1D3
:10B6E00094F80C32A3BBD4F804620BEBC606D6F870
:10B6F000EC001FF061FC1FFA80F8D6F8F0001FF094
:10B700005BFC1FFA80F9D4F808620BEBC606D6F88A
:10B71000EC001FF051FC87B2D6F8F0001FF04CFC93
:10B720009DF845209DF846309DF844108DF8541042
:10B730008DF855208DF8563000B2009015AB01936E
:10B7400050460FFA88F10FFA89F23BB213F0D2F8A3
:10B750000C34AC42C4D13D499BF8BC2291F8083C62
:10B76000009316A801F60941FF2314F08DFC9DF803
:10B7700058308DF844309DF859308DF845309DF89B
:10B780005A308DF846305C46DFF8C4A094F80C328D
:10B79000A3B3D4F804620BEBC606D6F8EC001FF096
:10B7A0000BFC1FFA80F8D6F8F0001FF005FC1FFA1A
:10B7B00080F9D4F808620BEBC606D6F8EC001FF04F
:10B7C000FBFB87B2D6F8F0001FF0F6FB9DF8452092
:10B7D0009DF846309DF844108DF85C108DF85D2082
:10B7E0008DF85E3000B2009017A9019150460FFA13
:10B7F00088F10FFA89F23BB213F07CF80C34A542C1
:10B80000C4D1DBF8C0320133082B02D0CBF8C032F0
:10B8100017E00023CBF8C0329BF8BC3201338BF821
:10B82000BC320EE003F03F0103F00F0319E503F013
:10B830003F0103F00F0347E503F03F0103F00F035F
:10B8400070E5142019B0BDE8F08F00BF00A4FF1F01
:10B85000F89FFF1FAFF3008070B410F0400F21D0AD
:10B86000C543EDB205F03F0305F00F050135114C5E
:10B870001B115B00E618767805FB06F5E35C03EB2D
:10B880002515EDB210F0800F0EBFEBB26B42DBB2AC
:10B8900083F08003501AC0B200FB03F001EB2021BB
:10B8A000C8B204E000F03F0300F00F05DFE770BC12
:10B8B000704700BF1C02030070B44030C3B213F0E5
:10B8C000400F21D0DD43EDB205F03F0005F00F053C
:10B8D0000135114C001140002618767805FB06F55D
:10B8E000205C00EB2515EDB213F0800F0EBFEBB21C
:10B8F0006B42DBB283F08003501AC0B200FB03F04E
:10B9000001EB2021C8B204E003F03F0003F00F0573
:10B91000DFE770BC704700BF1C020300F0B5A1B0A8
:10B920000446C0F8041C082903DD0023C0F8043CC9
:10B930000FE0002903DA0823C0F8043CC3E008291B
:10B9400000F2F780DFE801F0051A2F44596E95AA3E
:10B95000BF007949234601F1400551F8042F100C2E
:10B9600083F8390C100A83F83A0C83F83B2C033324
:10B97000A942F2D1714BC4F86C3CDAE0704903463D
:10B9800001F1400551F8042F100C83F8390C100A0E
:10B9900083F83A0C83F83B2C0333A942F2D1694B6C
:10B9A000C4F86C3CC5E06849034601F1400551F814
:10B9B000042F100C83F8390C100A83F83A0C83F822
:10B9C0003B2C0333A942F2D1604BC4F86C3CB0E08D
:10B9D0005F49034601F1400551F8042F100C83F82C
:10B9E000390C100A83F83A0C83F83B2C0333A94234
:10B9F000F2D1584BC4F86C3C9BE05749034601F127
:10BA0000400551F8042F100C83F8390C100A83F804
:10BA10003A0C83F83B2C0333A942F2D14F4BC4F8C4
:10BA20006C3C86E000238DF80C308DF80D308DF8DD
:10BA30000E30FF238DF808308DF809308DF80A306C
:10BA400004A8102103AA02AB14F096F904AF04F67F
:10BA500039450DF1400C3E460FCE28606960AA6062
:10BA6000EB60374610356645F5D13D4BC4F86C3C6C
:10BA70005FE03C49034601F1400551F8042F100CEA
:10BA800083F8390C100A83F83A0C83F83B2C033303
:10BA9000A942F2D1344BC4F86C3C4AE03349034626
:10BAA00001F1400551F8042F100C83F8390C100AED
:10BAB00083F83A0C83F83B2C0333A942F2D12C4B88
:10BAC000C4F86C3C35E000228DF84C208DF84D20F8
:10BAD0008DF84E208DF848208DF84920FF238DF8F1
:10BAE0004A308DF844208DF845308DF846308DF879
:10BAF00040308DF841308DF8423011AB009310ABDF
:10BB0000019314A8102113AA12AB14F053F914AF27
:10BB100004F639450DF1800C3E460FCE2860696071
:10BB2000AA60EB60374610356645F5D1114BC4F875
:10BB30006C3C21B0F0BD00BF544503007C03030002
:10BB40001445030084030300144603008C03030020
:10BB50009446030094030300D44503009C030300B0
:10BB6000A403030054460300AC0303009445030000
:10BB7000B4030300BC03030038B5044600202721AA
:10BB80001AF0A8FD262804DD002242F6A033E25078
:10BB900009E0002803DB42F6A033E05003E0262250
:10BBA00042F6A033E250002009211AF093FD01462D
:10BBB0001448FFF7B3FE42F6A033E55842F6A4332B
:10BBC000E05810B103681B69984742F6A033E5506E
:10BBD00005F6EA2554F8250042F6A433E05010B1EA
:10BBE0000368DB689847084B1B7853B904F160037E
:10BBF00042F6A432A2589A4203D123689B69204698
:10BC0000984738BD00A4FF1F1827002010B5044630
:10BC1000002030211AF05EFD2F2803DD0023C4F838
:10BC2000B83106E00028AEBFC4F8B8012F23C4F82D
:10BC3000B831002009211AF04DFD01460748FFF7F1
:10BC40006DFED4F8B831DA1C04F1100304EBC20421
:10BC500094E8030083E8030010BD00BF00A4FF1FA9
:10BC600038B505460C4608462C491AF039FE20B175
:10BC700028460021FFF752FE38BD204628491AF019
:10BC80002FFE20B128460121FFF748FE38BD20468F
:10BC900024491AF025FE20B128460221FFF73EFE76
:10BCA00038BD204620491AF01BFE20B1284603214A
:10BCB000FFF734FE38BD20461C491AF011FE20B1B2
:10BCC00028460421FFF72AFE38BD204618491AF0FD
:10BCD00007FE20B128460521FFF720FE38BD20468B
:10BCE00014491AF0FDFD20B128460621FFF716FE83
:10BCF00038BD204610491AF0F3FD20B1284607212F
:10BD0000FFF70CFE38BD20460C491AF0E9FD18B1CA
:10BD100028460821FFF702FE38BD00BF7C03030060
:10BD2000840303008C030300940303009C030300BB
:10BD3000C0030300AC030300B4030300BC0303000F
:10BD40002DE9F043A5B04B4C23685B6820464A4977
:10BD50000122984720461AF0FFFB23685B682046C3
:10BD600046490B229847204609211AF041FC2368D6
:10BD70005B68204642490122984720461AF0ECFBB6
:10BD800023685B6820463F490E22984720461AF0F8
:10BD9000E3FB68463C491AF0F3FC04A83B491AF05F
:10BDA000EFFC08A83A491AF0EBFC0CA839491AF044
:10BDB000E7FC10A838491AF0E3FC14A837491AF038
:10BDC000DFFC18A836491AF0DBFC1CA835491AF02C
:10BDD000D7FC20A834491AF0D3FC23685B682046BE
:10BDE000324905229847204669461AF08FFB04AD78
:10BDF000E8460DF190092E4F2C4E1AE01D4C2046BE
:10BE00002C49FEF7DFFA23685B6820462A490322A3
:10BE1000984720461AF0A0FB23685B682046274914
:10BE20000122984720461AF097FB20ACA8F1100891
:10BE300016E023685B682046394602229847204670
:10BE40001AF08AFB23685B68204631460522984732
:10BE5000204629461AF05AFB10354D45E9D1CDE769
:10BE600020461AF041FC103C4445F9D125B0BDE80C
:10BE7000F08300BF6C550020CC030300D003030007
:10BE8000DC030300E00303007C03030084030300DE
:10BE90008C030300940303009C030300C00303000E
:10BEA000AC030300B4030300BC030300F00303006E
:10BEB00000040300F4030300F8030300FC03030081
:10BEC00030B400230468E218E55C01FB05F52D128F
:10BED000E554547804FB01F424125470947804FB64
:10BEE00001F4241294700333B3F5406FEAD130BCEF
:10BEF000704700BF2DE9F04786B03648AA21FFF70A
:10BF0000DFFF002620253446DFF8D490314F07F6B6
:10BF10000948FF2D9ABF2B029BB22B46D9F800206F
:10BF20000392039A4FF48C7101FB02F203FB02F2BD
:10BF3000120ED3B213F0400F43D06FEA030A5FFA38
:10BF40008AFA0AF03F010AF00F0A0AF1010A2248B0
:10BF50000911490000EB010E9EF801E00AFB0EFA00
:10BF6000415C01EB2A1A5FFA8AFA12F0800F18BFBF
:10BF7000CAF1000A5FFA8AFA97F8083C009305A80C
:10BF800041463246FF2314F07FF89DF815209DF8B6
:10BF900016309DF814108DF810108DF811208DF8C2
:10BFA00012308AF080020D4821B2D20804AB12F0A0
:10BFB00055FB01340135ADB20736F6B2202CA8D1BD
:10BFC00004E003F03F0103F00F0AC0E70F2006B0C2
:10BFD000BDE8F08700A4FF1F1C020300F89FFF1FAD
:10BFE0006C5400202DE9F04F87B0584B1B68039329
:10BFF000039B4FF40C3202FB03F2120ED3B213F088
:10C00000400F00F09580DB43DBB203F03F0103F00B
:10C010000F0301334E48091149004418647803FBAB
:10C0200004F3415C01EB2313DBB212F0800F18BF65
:10C030005B42DBB283F0800303EB830399111A396F
:10C040004448C9B2FFF73CFF4FF004081E24002704
:10C050000E25DFF8009109F6094BDFF8F0A099F8FA
:10C06000083C009302A859463A46FF2314F00CF806
:10C07000EEB2C6F120020023009320463146D2B230
:10C08000FFF78EF80146FF2C9ABF200280B22046AF
:10C09000DAF800300493049B4FF48C7202FB03F235
:10C0A00000FB02F2120ED3B213F0400F45D06FEA3C
:10C0B000030C5FFA8CFC0CF03F0E0CF00F0C0CF133
:10C0C000010C234B4FEA2E1E4FEA4E0E03EB0E00DF
:10C0D00040780CFB00FC13F80E0000EB2C13DBB2D5
:10C0E00012F0800F18BF5B42DBB29DF809009DF88B
:10C0F0000A209DF808E08DF814E08DF815008DF801
:10C10000162083F0800308FB03F306EB232212487A
:10C1100009B2D2B205AB12F0A1FA013D0E37FFB25F
:10C12000023CA4B208F10208B5F1FF3F97D109E043
:10C1300003F03F0103F00F036CE703F03F0E03F041
:10C140000F0CBEE7002007B0BDE8F08F6C54002054
:10C150001C02030000A4FF1FF89FFF1F2DE9F04FF2
:10C160008BB0002500950220AA21FA222B46FDF76C
:10C170001BFF01466F48FFF7A3FE02264024A94695
:10C18000A8462025DFF8ACB10BF6094003905FFA12
:10C1900088F70F2F50D800230093304639462A469F
:10C1A000FEF7FEFF8246FF2E9ABF33029BB2334654
:10C1B00061490A680592059A4FF48C7101FB02F2FD
:10C1C00003FB02F2120ED3B213F0400F00F0A48072
:10C1D000DB43DBB203F03F0103F00F0301335748A9
:10C1E0000911490000EB010E9EF801E003FB0EF37C
:10C1F000415C01EB2313DBB212F0800F0EBFDAB209
:10C200005A42D2B282F08002A4F12003DBB203FBD7
:10C2100002F307EB2327FFB29BF8083C009307A823
:10C2200003994A46FF2313F02FFF9DF81C109DF839
:10C230001D209DF81E3052E00137FAB2FF2C9ABF44
:10C2400023029BB223463C480168069106994FF4AD
:10C250008C7000FB01F103FB01F1090ECBB213F06E
:10C26000400F5ED0DB43DBB203F03F0003F00F036F
:10C270000133324F0011400007EB000E9EF801E041
:10C2800003FB0EF3385C00EB2313DBB211F0800FDD
:10C2900018BF5B42DBB283F08003C4F1210A5FFA6E
:10C2A0008AFA0AFB03FA05EB2A2A5FFA8AFA0023C4
:10C2B000009320462946FEF773FF0746C9F1B202F4
:10C2C0009BF8083C009308A80399D2B2FF2313F00F
:10C2D000DBFE9DF820109DF821209DF822308DF87E
:10C2E00024108DF825208DF8263015480FFA8AF194
:10C2F0003AB209AB12F0B2F9013D08F1010809F1B7
:10C300000E095FFA89F9023CA4B20236B6B215F002
:10C31000FF057FF43CAF09E003F03F0103F00F039A
:10C320005DE703F03F0003F00F03A2E700200BB02E
:10C33000BDE8F08F00A4FF1F6C5400201C02030016
:10C34000F89FFF1FFFFFFFFF2DE9F04F89B08146E7
:10C35000834C2046BE21FFF7B3FDD9F81C004FF0F7
:10C3600082411EF063FC1EF04DFEC2B294F8083C00
:10C37000009305A804F60941FF2313F085FED9F8C0
:10C380000880D9F80C001DF0BDFF04460D4640465C
:10C39000D9F81C101EF042FB1DF0B4FF6EA3D3E9C8
:10C3A00000231EF003F81EF0E3FA1DF0ABFF064673
:10C3B0000F461BF029FC02460B46204629461DF07D
:10C3C000F5FF0022674B1DF03FFE1EF089FA029038
:10C3D000304639461BF0E4FC02460B46204629460F
:10C3E0001DF0E4FF02460B4600205E491DF02AFEC8
:10C3F0001EF076FA0390DFF874B1D9F80C001DF046
:10C4000081FF04460D4640461DF07CFF52A3D3E950
:10C4100000231DF0CBFF1EF0ABFA1DF073FF0646A4
:10C420000F461BF0F1FB02460B46204629461DF045
:10C43000BDFF00224B4B1DF007FE1EF051FA824655
:10C44000304639461BF0ACFC02460B4620462946D6
:10C450001DF0ACFF02460B46002042491DF0F2FDE4
:10C460001EF03EFA06469DF815209DF816309DF800
:10C4700014108DF818108DF819208DF81A300FFA55
:10C480008AF405B2584621462A4606AB12F0E6F871
:10C490009DF815209DF816309DF814108DF81C108D
:10C4A0008DF81D208DF81E3058462946224607ABD0
:10C4B00012F0D4F840464FF07E511EF0AFFA80469D
:10C4C00029491EF065FD08B14FF00008029B9A450E
:10C4D00093D1039B9E4290D1D9F81C402046D9F8B5
:10C4E00008101EF09BFA05461F491EF051FD10B9B9
:10C4F000C9F8085029E00023C9F80830D9F82050BD
:10C50000204629461EF08AFA0446C9F81C00D9F8CC
:10C51000106031461EF032FD30B1C9F81C6005F1E3
:10C520000045C9F8205010E0D9F81860204631467F
:10C530001EF038FD48B1304629461EF06DFAC9F8A4
:10C540001C0005F10045C9F82050002009B0BDE8E5
:10C55000F08F00BFAFF30080399D52A246DF913FBC
:10C5600000A4FF1F000030400000B443F89FFF1FED
:10C570002DE9F04F93B00446837B032B00F2D18169
:10C58000DFE813F004007600E8005E010025AA4F02
:10C5900007F60949DFF8A482EEB2A37A03EB46035B
:10C5A000DBB213F0800F1CBFDB43DBB25B00DBB2FE
:10C5B00013F0800F00F0D28183F0FF0303F1010B31
:10C5C0005FFA8BFB0BFB03F34FEAD31B0BF0FE0B65
:10C5D0008BF0FF0B22699BFBF2FB1FFA85FA627B53
:10C5E000324497F8083C009303A84946D2B2FF238F
:10C5F00013F04AFD9DF80D209DF80E309DF80C10AB
:10C600008DF808108DF809208DF80A3040460FFA91
:10C610008AF15A4602AB12F021F8E369022B23D1CA
:10C62000A369CBEB030B1FFA8BFB637BF21897F824
:10C63000083C009305A84946D2B2FF2313F024FD1D
:10C640009DF815209DF816309DF814108DF81010E7
:10C650008DF811208DF8123040460FFA8AF10FFA4A
:10C660008BF204AB11F0FAFF0135202D94D158E183
:10C670000025714F07F60949DFF8C081EEB2A37AB1
:10C6800003EB4603DBB213F0800F1CBFDB43DBB2CE
:10C690005B00DBB213F0800F00F06B8183F0FF03CF
:10C6A00003F1010B5FFA8BFB0BFB03F34FEAD31B88
:10C6B0000BF0FE0B8BF0FF0B22699BFBF2FB1FFACA
:10C6C00085FA627B324497F8083C009307A84946F4
:10C6D000D2B2FF2313F0D8FC9DF81D209DF81E3028
:10C6E0009DF81C108DF818108DF819208DF81A304F
:10C6F000404659460FFA8AF206AB11F0AFFFE369E4
:10C70000022B23D16369CBEB030B1FFA8BFB637BFB
:10C71000F21897F8083C009309A84946D2B2FF23C3
:10C7200013F0B2FC9DF825209DF826309DF82410CA
:10C730008DF820108DF821208DF8223040460FFA18
:10C740008BF10FFA8AF208AB11F088FF0135202D2A
:10C7500094D1E6E00025384F07F60949DFF8DC8080
:10C76000EEB2A37AC3EB4603DBB213F0800F1CBF1B
:10C77000DB43DBB25B00DBB213F0800F00F004811F
:10C7800083F0FF0303F1010B5FFA8BFB0BFB03F359
:10C790004FEAD31B0BF0FE0B8BF0FF0B22699BFBC8
:10C7A000F2FB1FFA85FA627B324497F8083C00934B
:10C7B0000BA84946D2B2FF2313F066FC9DF82D204A
:10C7C0009DF82E309DF82C108DF828108DF829201A
:10C7D0008DF82A3040460FFA8AF15A460AAB11F01A
:10C7E0003DFFE369022B23D1A369CBEB030B1FFAB7
:10C7F0008BFB637BF21897F8083C00930DA8494621
:10C80000D2B2FF2313F040FC9DF835209DF836305E
:10C810009DF834108DF830108DF831208DF83230BD
:10C8200040460FFA8AF10FFA8BF20CAB11F016FFAB
:10C830000135202D94D174E000A4FF1FF89FFF1F45
:10C8400000255E4F07F60949DFF87481EEB2A37A3E
:10C85000C3EB4603DBB213F0800F1CBFDB43DBB23C
:10C860005B00DBB213F0800F00F0998083F0FF03D0
:10C8700003F1010B5FFA8BFB0BFB03F34FEAD31BB6
:10C880000BF0FE0B8BF0FF0B22699BFBF2FB1FFAF8
:10C8900085FA627B324497F8083C00930FA849461A
:10C8A000D2B2FF2313F0F0FB9DF83D209DF83E30FF
:10C8B0009DF83C108DF838108DF839208DF83A30FD
:10C8C000404659460FFA8AF20EAB11F0C7FEE369F3
:10C8D000022B23D16369CBEB030B1FFA8BFB637B2A
:10C8E000F21897F8083C009311A84946D2B2FF23EA
:10C8F00013F0CAFB9DF845209DF846309DF8441082
:10C900008DF840108DF841208DF8423040460FFAE6
:10C910008BF10FFA8AF210AB11F0A0FE0135202D39
:10C9200094D12648FE21FFF7CBFA237A627A9A4205
:10C9300005D800232372A37A0133A37201E00133E7
:10C940002372E37A227B9A4205D80023E372637B49
:10C95000013363732EE00133E3722BE003F1010B2B
:10C960005FFA8BFB0BFB03FB4FEADB1B0BF0FE0BB1
:10C9700030E603F1010B5FFA8BFB0BFB03FB4FEA85
:10C98000DB1B0BF0FE0B97E603F1010B5FFA8BFB51
:10C990000BFB03FB4FEADB1B0BF0FE0BFEE603F188
:10C9A000010B5FFA8BFB0BFB03FB4FEADB1B0BF06E
:10C9B000FE0B69E7002013B0BDE8F08F00A4FF1F55
:10C9C000F89FFF1F2DE9F04F87B082463C48AA210F
:10C9D000FFF776FA20250024DFF8F490DFF8F4B0B2
:10C9E000374F07F609482246002CB8BFE21CC2F3B5
:10C9F0008702062A28BF062259F822309AF8091021
:10CA000009B15BF82230FF2D9ABF2A0292B22A4662
:10CA10002C490968039103994FF48C7000FB01F1D4
:10CA200002FB01F1090ECAB212F0400F40D0D2430E
:10CA3000D2B202F03F0002F00F020132224E00118A
:10CA4000400006EB000E9EF801E002FB0EF2305CA7
:10CA500000EB2216F6B211F0800F18BF7642F6B244
:10CA60001A46002BB8BFDA1C97F8083C009305A8BB
:10CA70004146C2F38702FF2313F006FB9DF8152001
:10CA80009DF816309DF814108DF810108DF81120B7
:10CA90008DF8123086F080020C4821B2D20804AB27
:10CAA00011F0DCFD01340135ADB2202C05D09AE740
:10CAB00002F03F0002F00F02C0E707B0BDE8F08FC0
:10CAC00000A4FF1F6C5400201C020300F89FFF1FEE
:10CAD000BC260020E82F00202DE9F04F89B00390FC
:10CAE000002500950220AA21FA222B46FDF75CFAC8
:10CAF00001466E48FFF7E4F94FF002081F26402474
:10CB0000DFF8C091EFB20F2F44D8002300934046C6
:10CB10003946F2B2FEF744FB8246B8F1FF0F9ABFE6
:10CB20004FEA08239BB24346614802680592059A82
:10CB30004FF48C7101FB02F203FB02F2120ED3B22E
:10CB400013F0400F00F0A580DB43DBB203F03F01A0
:10CB500003F00F0301330911490009EB010040788C
:10CB600003FB00F319F8011001EB2313DBB212F001
:10CB7000800F18BF5B42DBB283F08003A4F1210B6E
:10CB80005FFA8BFB0BFB03FB07EB2B2B5FFA8BFB9B
:10CB90007F0844E0F1B2FF2C9ABF23029BB22346E8
:10CBA000434802680692069A4FF48C7000FB02F22A
:10CBB00003FB02F2120ED3B213F0400F6ED0DB4330
:10CBC000DBB203F03F0003F00F030133001140001C
:10CBD00009EB000E9EF801E003FB0EF319F80000CC
:10CBE00000EB2313DBB212F0800F18BF5B42DBB205
:10CBF00083F08003C4F1210A5FFA8AFA0AFB03FA80
:10CC000001EB2A2A5FFA8AFA0023009320463A466B
:10CC1000FEF7C6FA834606EBD677C7F34707062F1B
:10CC200028BF0627234B53F8273003994A7A12B1BD
:10CC3000214B53F827301A46002BB8BFDA1C1B488B
:10CC400090F8083C009304A81C49C2F38702FF2314
:10CC500013F01AFA9DF811209DF812309DF810106B
:10CC60008DF81C108DF81D208DF81E3014480FFA19
:10CC70008AF10FFA8BF207AB11F0F0FC0135023CA0
:10CC8000A4B2013E08F102081FFA88F8202D0AD04C
:10CC900038E703F03F0103F00F035CE703F03F00C8
:10CCA00003F00F0392E709B0BDE8F08F00A4FF1F67
:10CCB0006C540020BC260020E82F002009B0FF1F84
:10CCC000F89FFF1F1C0203002DE9F04F87B0834639
:10CCD000002400940220E621FA222346FDF764F99D
:10CCE00001464448FFF7ECF82025DFF8089109F6E3
:10CCF000094A04EBD473C3F34703062B28BF06236A
:10CD00003D4A52F823609BF8092012B13B4A52F881
:10CD10002360E2B2C2F11007FFB210320023009389
:10CD200028463946D2B2FEF73BFA8046FF2D9ABF1D
:10CD30002B029BB22B46324A12680492049A4FF49B
:10CD40008C7101FB02F203FB02F2120ED3B213F05C
:10CD5000400F47D0DB43DBB203F03F0103F00F038A
:10CD6000013328480911490000EB010E9EF801E04B
:10CD700003FB0EF3415C01EB2313DBB212F0800FD7
:10CD800018BF5B42DBB283F08003620002FB03F357
:10CD900007EB2327FFB23246002EB8BFF21C99F8EA
:10CDA000083C009303A85146C2F38702FF2313F007
:10CDB0006BF99DF80D209DF80E309DF80C108DF844
:10CDC00014108DF815208DF816300F480FFA88F1E1
:10CDD0003A4605AB11F042FC0134023DADB2102CD5
:10CDE00005D086E703F03F0103F00F03B9E707B072
:10CDF000BDE8F08F00A4FF1FBC260020E82F002014
:10CE00006C5400201C020300F89FFF1F2DE9F04F17
:10CE10008FB00390BC48F021FFF752F8BB49069150
:10CE20004FF0000B8A46039A108A1DF0ABFE0546B0
:10CE30000AEB0B095BF80A101DF0F8FE1EF0BCF8B7
:10CE4000039B1C89204484B22846D9F804101DF0A5
:10CE5000EDFE1EF0B1F8039A51890144204689B2D3
:10CE6000928913F07FFF064610F0400F00F0A88172
:10CE7000C043C0B200F03F0300F00F000130A44AED
:10CE80001B115B00D118497800FB01F0D35C03EB68
:10CE90002010C0B216F0800F18BF4042C0B280F020
:10CEA00080001DF06BFE1DF02DFA00224FF07E5326
:10CEB0001DF07CFA0022974B1DF0C4F81DF058FDC0
:10CEC0008046069CA06006F14003DBB213F0400FE1
:10CED00000F07B81D843C0B200F03F0200F00F00A9
:10CEE00001308B49121152008D186D7800FB05F04E
:10CEF0008A5C02EB2010C0B213F0800F18BF4042D2
:10CF0000C0B280F080001DF039FE1DF0FBF9002258
:10CF10004FF07E531DF04AFA00227E4B1DF092F82E
:10CF20001DF026FD054600F10043E3600AEB0B0708
:10CF3000404639691DF072FD8046B860786929461F
:10CF40001DF06AFD05460AF108075F447860E46950
:10CF5000404641461DF06AFE8046284629461DF09F
:10CF600065FE014640461DF059FD05462046214616
:10CF70001DF05CFE014628461EF014F800286ED015
:10CF800028461DF0BFF91BF0D1F81DF0F1FC00217F
:10CF90001DF0E0FF002841D10AEB0B030793D3F803
:10CFA0000880DD68404641461DF040FE0490404642
:10CFB00041461DF03BFE8046284629461DF036FEC0
:10CFC000014640461DF02AFD1DF09CF91BF0AEF80D
:10CFD0001DF0CEFC1DF096F902460B4600204D498F
:10CFE0001DF00EFBCDE90401079988681DF08AF950
:10CFF00002460B46DDE904011DF0D8F91DF0B8FC2E
:10D00000079A906078681DF07DF902460B46DDE9CD
:10D0100004011DF0CBF91DF0ABFC786020461DF03B
:10D0200071F904460D460AEB0B08D8F808001DF00C
:10D0300069F902460B46204629461DF0B7F91DF056
:10D0400097FCC8F8080078681DF05CF902460B46AA
:10D05000204629461DF0AAF91DF08AFC78600AEBEB
:10D060000B045BF80A00A1681DF0D8FC07464BF8DA
:10D070000A00D9F80400E1681DF0D0FC0546C9F8A3
:10D08000040020691DF03EF9002200231DF08EF9F6
:10D090001DF06EFC20610AF110045C4460681DF014
:10D0A00031F9002200231DF081F91DF061FC606060
:10D0B0001549039A937CF21891F8083C00930DA847
:10D0C00001F60941D2B2FF2312F0DEFF9DF83520B0
:10D0D0009DF836309DF834108DF830108DF83120E1
:10D0E0008DF8323038461DF067FF04B228461DF037
:10D0F00063FF02B2084821460CAB11F0AFFA5BF8AF
:10D100000A402046002109E000A4FF1F2C27002030
:10D110001C0203000000F03FF89FFF1F1DF024FFDA
:10D1200090B920464FF084411DF032FF60B9D9F824
:10D130000440204600211DF017FF28B920464FF07B
:10D1400084411DF025FF48B1202019F0B7FA1DF0E9
:10D1500015FD4AF80B000023C9F804300BF1340B1D
:10D16000069934310691BBF5026F7FF45CAE214B1A
:10D170001B6813F0010F0ED11E4817F069FF50B164
:10D180001D4B1B680993099A1C4B1A60C8225A60F0
:10D19000184817F063FF184B1B680B930B99174B3C
:10D1A0001A688A1A5B689A4214D3134B1B680A9355
:10D1B0000A9A124B1A60039A937C0133937409E024
:10D1C00000F03F0300F00F0059E603F03F0203F0C8
:10D1D0000F0086E60399CB890A891A440A814A8995
:10D1E0001A444A818A8913448B8132200FB0BDE8EA
:10D1F000F08F00BFE49FFF1F6C540020A09FFF1F13
:10D200002DE9F04F93B00A909348AA21FEF758FEFB
:10D21000DFF858A20027D14657F80920049209EBFD
:10D22000070302935A6806929D688C4B3B445C68E6
:10D2300009EB07035E69D046DAF818300B93DAF889
:10D240001C200592DAF820300C93DAF824200D9295
:10D250009AF828300793DAF82C200E929AF830309A
:10D260000F93029A10690A9B99681DF0D7FB8346B9
:10D2700030460A9AD1681DF0D1FB039028465946E2
:10D280001DF0CCFB0546204603991DF0C7FB044664
:10D29000284629461DF0CAFC0646204621461DF0B8
:10D2A000C5FC014630461DF0B9FB0646059801460F
:10D2B0001DF0BCFC014630461DF074FE002851D024
:10D2C00030461DF01FF8CDE908011AF02FFF1DF0C0
:10D2D0004FFB00211DF03EFE38BBDDE908011AF0CE
:10D2E00025FF1DF045FB1DF00DF802460B46002002
:10D2F0005B491DF085F9CDE9080128461DF002F8CB
:10D3000002460B46DDE908011DF050F81DF030FB28
:10D31000054620461CF0F6FF02460B46DDE90801F3
:10D320001DF044F81DF024FB044605981CF0EAFFAC
:10D33000CDE9080128461CF0E5FF02460B46DDE971
:10D3400008011DF033F81DF013FB054620461CF0C4
:10D35000D9FF02460B46DDE908011DF027F81DF054
:10D3600007FB0446049829461DF058FB04900698D4
:10D3700021461DF053FB064658461CF0C3FF002211
:10D3800000231DF013F81DF0F3FA069003981CF02B
:10D39000B9FF002200231DF009F81DF0E9FA0390FF
:10D3A0002D4991F8083C009311A801F60941079A0C
:10D3B000FF2312F069FE9DF845209DF846309DF848
:10D3C00044108DF840108DF841208DF842300498BB
:10D3D0001DF0F2FD0FFA80FB30461DF0EDFD02B2AC
:10D3E0002048594610AB11F039F930461E491DF05E
:10D3F000CFFD10B104F100441B4E049B47F80930E7
:10D40000029A566009EB07039D60144A3A4454603F
:10D41000069A1A61039A5A610B9BC8F81830059A4C
:10D42000C8F81C200C9BC8F820300D9AC8F824209E
:10D43000079B88F828300E9AC8F82C200F9B88F894
:10D44000303034370AF1340AB7F5D06F7FF4E4AEE8
:10D450000F2013B0BDE8F08F00A4FF1F3427002079
:10D460000000F03FF89FFF1F0000F8412C2700202C
:10D470002DE9F04FA1B0069090F8B431002B3FD1C8
:10D48000012380F8B4310020022119F023F9A54CC2
:10D490000026DFF8A4B227460025DFF8B0824FF05F
:10D4A000814A4FF082490020FF2119F013F9002032
:10D4B000FF2119F00FF930461DF064FB2060C4F81D
:10D4C00004B0E31B07F108029D501A44556007F1B0
:10D4D00010029D5013445D60C4F81880C4F81C808D
:10D4E000C4F820A0C4F82490002384F828301C9BA2
:10D4F000E362012384F830301E443434202ED2D12C
:10D500008948AA21FEF7DCFCDFF818B24FF0000AC8
:10D51000D146844B03EB090105914A680792CE6816
:10D520000F694D695C46DBF818300A93DBF81C1074
:10D530000491DBF820200B92DBF824300C939BF84D
:10D5400028100D91DBF82C200E929BF830300F93B1
:10D5500050461DF017FB80463846069AD2F8A411B3
:10D560001DF05CFA02902846069BD3F8A8111DF026
:10D5700055FA03906D4B83FB0A134FEAEA72C2EB34
:10D580006303DBB26A4A52F8235006994A7A12B111
:10D59000684A52F82350079867491DF0DBFC08B32E
:10D5A00028461CF09DFE0022644B1CF0FFFE1DF07F
:10D5B00097F9294619F08EF81DF0E4FA00F10040C1
:10D5C0005F491DF0E7FB0546069AC2F8B0010298D4
:10D5D000D2F8AC111DF022FA0290039829461DF0F2
:10D5E0001DFA0390029800211DF018FA05463046F6
:10D5F00003991DF013FA0646284629461DF016FB2E
:10D600000746304631461DF011FB014638461DF0F5
:10D6100005FA0746049801461DF008FB0146384606
:10D620001DF0C0FC002851D038461CF06BFECDE93F
:10D6300008011AF07BFD1DF09BF900211DF08AFC0A
:10D6400038BBDDE908011AF071FD1DF091F91CF0FD
:10D6500059FE02460B4600203A491CF0D1FFCDE9A5
:10D66000080128461CF04EFE02460B46DDE9080183
:10D670001CF09CFE1DF07CF9054630461CF042FE75
:10D6800002460B46DDE908011CF090FE1DF070F922
:10D69000064604981CF036FECDE9080128461CF029
:10D6A00031FE02460B46DDE908011CF07FFE1DF04D
:10D6B0005FF9054630461CF025FE02460B46DDE9C3
:10D6C00008011CF073FE1DF053F90646404629463A
:10D6D0001DF0A4F98046079831461DF09FF90746D2
:10D6E00002981CF00FFE002200231CF05FFE1DF0CC
:10D6F0003FF9029003981CF005FE002200231CF065
:10D7000055FE1DF035F9039040464FF084411DF061
:10D710003FFCE8B128460C491DF088FA0546DFF8C1
:10D72000188021E02C27002000A4FF1F6766666692
:10D73000BC260020E82F00200000F8410000E83F50
:10D74000000070440000F03FCDCC4CBE00002041F2
:10D75000404600211DF008FC30B128463A491DF032
:10D7600065FA05464FF0000838464FF084411DF039
:10D770000FFC30B1304634491DF058FA0646334F9D
:10D780000AE0384600211DF0EFFB28B130462E4953
:10D790001DF04CFA064600272D4B49F803800599E9
:10D7A0004F6003EB09029560D66002991161134640
:10D7B000039A5A610A9BA3610499E1610B9A226260
:10D7C0000C9B63620D9984F828100E9AE2620F9BFD
:10D7D00084F830301D4839461DF01EF91D491DF0F2
:10D7E00025FA1DF00FFCC2B21B4B93F8083C0093C6
:10D7F0001FA81A49FF2312F047FC9DF87D209DF8D1
:10D800007E309DF87C108DF878108DF879208DF899
:10D810007A3040461DF0D0FB04B238461DF0CCFBF8
:10D8200002B20F4821461EAB10F018FF0AF1010AA0
:10D8300009F134090BF1340BBAF1200F7FF469AE12
:10D8400021B0BDE8F08F00BFCDCC4CBE0000F84148
:10D850002C2700200000E04000A4FF1F09B0FF1F9C
:10D86000F89FFF1F2DE9F04F97B00290002300931F
:10D870000220AA21FA22FCF797FB01463648FEF760
:10D880001FFB029A9368002B40F3C781DFF8CCA0FE
:10D890004FF00008CDF82880304B58F80320049250
:10D8A00003EB0802039252680692039A92680D9263
:10D8B00003EB0802D2680E92039A1269089243445D
:10D8C0005B690F93D346DAF818301093DAF81C200E
:10D8D0000992DAF820301193DAF8242012929AF89B
:10D8E00028300B93DAF82C200C929AF830301393EE
:10D8F000029A506904991DF08FF80746029B9869B7
:10D9000006991DF089F80646384639461DF08EF90D
:10D910000446304631461DF089F9014620461DF087
:10D920007DF81CF0EFFC04460D461AF0FFFB1DF0DD
:10D930001FF881460A491DF017FB48B948464FF0C9
:10D9400084411DF02FFB78B948461CF0DBFC0DE04C
:10D95000002004490AE000BF00A4FF1F2C2700207C
:10D960000000A040000014400020AE491DF000F867
:10D970008146204629461AF0D9FB1CF0F9FF002108
:10D980001DF0E8FA38BB204629461AF0CFFB1CF000
:10D99000EFFF1CF0B7FC02460B460020A2491CF02A
:10D9A0002FFE04460D4638461CF0ACFC02460B46E2
:10D9B000204629461CF0FAFC1CF0DAFF07463046E8
:10D9C0001CF0A0FC02460B46204629461CF0EEFC4B
:10D9D0001CF0CEFF0646029A1069D1681DF026F9A8
:10D9E00001460C981DF022F90446484649461DF0B0
:10D9F0001DF9014620461DF0CDF91CF083FC0446BC
:10DA00000D4638461CF07EFC02460B462046294651
:10DA10001CF0CCFC1CF0ACFF014608981CF0FEFF8B
:10DA2000074630461CF06EFC02460B46204629464F
:10DA30001CF0BCFC1CF09CFF01460F981CF0EEFF94
:10DA400008900D9839461CF0E9FF81460E98089918
:10DA50001CF0E4FF0646484649461DF0E7F8044638
:10DA6000304631461DF0E2F8014620461CF0D6FF54
:10DA70000446099801461DF0D9F8014620461DF0DC
:10DA800091FA002851D020461CF03CFC04460D467B
:10DA90001AF04CFB1CF06CFF00211DF05BFA38BB48
:10DAA000204629461AF042FB1CF062FF1CF02AFCBB
:10DAB00002460B4600205C491CF0A2FD04460D46C0
:10DAC00048461CF01FFC02460B46204629461CF027
:10DAD0006DFC1CF04DFF814630461CF013FC0246E5
:10DAE0000B46204629461CF061FC1CF041FF06460F
:10DAF00009981CF007FC04460D4648461CF002FC41
:10DB000002460B46204629461CF050FC1CF030FF14
:10DB1000814630461CF0F6FB02460B46204629465D
:10DB20001CF044FC1CF024FF0646049849461CF0F7
:10DB300075FF0546069831461CF070FF04463846CE
:10DB40001CF0E0FB002200231CF030FCCDE90401B6
:10DB500008981CF0D7FB002200231CF027FCCDE91D
