:1000000000800020BD010000A5FE0000A5FE00004C
:10001000A5FE0000A5FE0000A5FE000071FE000088
:1000200071FE000071FE000071FE0000A5FE0000E0
:10003000A5FE000071FE0000A5FE000061FE0000AC
:10004000A5FE0000A5FE0000A5FE0000A5FE000024
:10005000A5FE0000A5FE0000A5FE0000A5FE000014
:10006000A5FE0000A5FE0000A5FE0000A5FE000004
:10007000A5FE0000A5FE0000A5FE0000A5FE0000F4
:10008000A5FE0000A5FE0000A5FE0000A5FE0000E4
:10009000A5FE0000A5FE0000A5FE0000A5FE0000D4
:1000A0001DF00000A5FE0000A5FE0000A5FE00005A
:1000B000A5FE0000A5FE0000A5FE0000A5FE0000B4
:1000C000A5FE0000A5FE0000A5FE0000A5FE0000A4
:1000D000A5FE0000A5FE0000A5FE0000A5FE000094
:1000E000A5FE0000A5FE0000A5FE0000A5FE000084
:1000F000A5FE000039190100A5FE0000B51D010094
:10010000A5FE000065210100A5FE0000A5FE00007F
:10011000A5FE0000A5FE0000A5FE0000A5FE000053
:10012000A5FE0000A5FE0000A5FE0000A5FE000043
:10013000A5FE0000A5FE0000A5FE0000A5FE000033
:10014000A5FE000085CA0000A5FE0000A5FE000077
:10015000A5FE0000A5FE0000A5FE0000A5FE000013
:10016000A5FE00007D050100A5FE0000A5FE000023
:10017000A5FE0000A5FE0000A5FE0000A5FE0000F3
:10018000A5FE0000A5FE0000A5FE0000A5FE0000E3
:10019000A5FE0000A5FE0000A5FE00000100010074
:1001A00051000100D9000100950101001902010070
:1001B000A5FE0000A5FE0000A5FE0000544B4CF279
:1001C000205210B51A804DF628121A8000BF00BFC9
:1001D0000FF06CFE4F4B4FF010621A604E4A9A605F
:1001E0004E4ADA604E4B1A6812F4807204D14D49BF
:1001F0000A604FF4A8521A604B4B1A7802F00802BA
:10020000D2B21AB11A7842F008021A70474B484825
:10021000484C2A221A700023474A02E01959995083
:10022000043399188142F9D3444B454A002101E037
:1002300043F8041B9342FBD34249434800231A5816
:100240005A500433B3F5DE7FF9D1404B404A802148
:1002500003F8011B9342FBD13A4A3E4B1A603E4BD6
:100260000A221A703D4B24221A70A02203F8012C96
:100270003B4A137803F00203DBB2002BF9D0384A73
:10028000137803F01003DBB2002BF9D1344A137852
:1002900003F00C03082BFAD1324B03221A704022D0
:1002A0005A702F4A137803F02003DBB2002BF9D0E9
:1002B0002B4A137803F04003DBB2002BF9D02A4B12
:1002C0002A4A1A6002225A60294B20221A70244AB4
:1002D000137803F00C030C2BFAD1264A264B1A6034
:1002E000264B274A1A60072243F8042C62B610F006
:1002F00037F80C4B1B68DC0702D522480FF0A4FF2F
:1003000015F0FAFB0FF0D8FD10F0E4FEFEE700BF99
:100310000E20054030800440823F04000100002B85
:1003200010D0034014D0034002D0074000E0074043
:10033000089CFF1F840A02006095FF1F089CFF1F96
:10034000BC5E00200090FF1F0000000000E400E001
:100350005FE400E008ED00E0005006400140064088
:10036000064006400440064044800440000003016B
:1003700000400640C01005000480044014E000E086
:10038000FF76010062BEC654FFFFFFFFFFFFFFFFC5
:10039000FFFFFFFFFFFFFFFFFFFFFFFFFFFFFFFF6D
:1003A000FFFFFFFFFFFFFFFFFFFFFFFFFFFFFFFF5D
:1003B000FFFFFFFFFFFFFFFFFFFFFFFFFFFFFFFF4D
:1003C000FFFFFFFFFFFFFFFFFFFFFFFFFFFFFFFF3D
:1003D000FFFFFFFFFFFFFFFFFFFFFFFFFFFFFFFF2D
:1003E000FFFFFFFFFFFFFFFFFFFFFFFFFFFFFFFF1D
:1003F000FFFFFFFFFFFFFFFFFFFFFFFFFFFFFFFF0D
:10040000FFFFFFFFFFFFFFFFFFFFFFFFFEFFFFFFFD
:1004100008B549F60840074BC1F6FF701B1A062BBA
:1004200000D808BD40F20003C0F20003002BF8D052
:100430009847F6E70B9CFF1F08B549F6084049F6B8
:100440000843C1F6FF70C1F6FF731B1A9B1003EB44
:10045000D373591000D108BD40F20002C0F200026F
:10046000002AF8D09047F6E710B549F60844C1F6DF
:10047000FF74237873B9FFF7CBFF40F20003C0F29B
:1004800000032BB140F68420C0F20200AFF30080DD
:100490000123237010BD00BF08B540F20003C0F275
:1004A00000034BB140F6842049F60C41C0F2020033
:1004B000C1F6FF71AFF3008049F60840C1F6FF7046
:1004C00003682BB140F20003C0F2000303B1984768
:1004D000BDE80840B0E700BF054B1A8840F60500AC
:1004E000504300F5585019301880C0B2704700BF13
:1004F000D095FF1F054B1A8840F60500504300F5C4
:100500005850193080B21880704700BFD095FF1F37
:1005100000F4804292B210B5C0F3CA031AB1C3F519
:10052000FF6307339BB21A0A074C0849895C34F809
:100530001220C3F3460303FB01239BB2020454BF02
:100540001846584200B210BD68BF010060BF0100EC
:1005500000F0400310B503F0FF010BB1C34300E00E
:10056000034603F03F0203F00F0301B101330A49D0
:10057000121152008C188A5C647814FB03F302EBAE
:1005800023130106DBB201D4D8B201E05842C0B255
:1005900080F0800010BD00BF58BF0100010601D5EA
:1005A000C043C0B24000C0B2C3B21A0648BF80F018
:1005B000FF00421CD2B210FB02F0C00900F0FE00A6
:1005C0001B0648BF80F0FF007047FFFFFF2837B5CC
:1005D0000C46154601D8000280B2094B1B680193F6
:1005E000019B4FF48C7253435843000EFFF7B0FF4A
:1005F0002D1BEDB210FB05F004EB2020C0B23EBD78
:10060000B85A00200020704700207047704770479C
:1006100001207047012070477047704700238360B6
:1006200070470369C36143690362002383607047B5
:1006300013B50246C16E0023012401E014600133AA
:1006400014328B42FADB174B1B6837240193019A53
:10065000C46103242A230463FF241F21C260836032
:1006600002620023426380F8404082644724C265EE
:10067000592201764376036180F82C1080F82D30E2
:10068000436280F841308363446480F8541080F8FA
:100690005530C364826580F8681080F8693003665D
:1006A0001CBD00BFB85A002000F58B4008B580691A
:1006B00010B103681B69984708BD00F58B4008B569
:1006C000806910B10368DB68984708BD00F58B436B
:1006D00010B55A6989181F29044601DD002204E07B
:1006E000002901DB596101E01F225A61986910B1AC
:1006F00003681B69984704F58B435A6902F58B52CE
:1007000004EB8204E069986110B10368DB689847E4
:1007100010BD00F58B4008B5806903689B68984759
:1007200008BDFFFF044B10B50446036000F5B4702C
:100730000CF0FAFE204610BDC0B80100044A10B506
:10074000044640F8102B0CF0EFFE204610BD00BF11
:10075000E0B8010010B5044600F516600CF0E4FEA8
:10076000204610BD10B504464C3010F092FD2046D6
:1007700010BD10B500F5B47420460CF01AFF20B17E
:100780002046BDE810400CF008BF10BD10B500F1C8
:10079000100420460CF00DFF20B12046BDE81040AB
:1007A0000CF0FBBE10BDFFFF37B5054605F5A055A3
:1007B000002406488DF8044001A98DF805408DF805
:1007C00006400AF03FFA2C613EBD00BF1039002000
:1007D00037B50546002406488DF8044001A98DF878
:1007E00005408DF806400AF02DFAC5F818493EBDBF
:1007F0001039002013B5002405488DF8044001A9E4
:100800008DF805408DF806400AF01CFA20461CBD04
:10081000103900202DE9F743804600241B4F4FEA92
:10082000C4090F260025102D4FF0FF03C8BF8DF817
:10083000013000A8C8BFC6F10D0301A9D8BF8DF8CB
:1008400001608DF802308DF800900BF0D2FB9DF81E
:1008500004203B789A420ED19DF805207B789A427D
:1008600009D19DF80620BB789A4204D1C8F8084007
:10087000C8F80C5007E001350F36202DF6B2D2D162
:1008800001341F2CCAD1BDE8FE8300BFBCF2FF1F9C
:100890002DE9F743804600241C4F4FEAC4090F2678
:1008A0000025102D4FF0FF03C8BF8DF8013000A8C0
:1008B000C8BFC6F10D0301A9D8BF8DF801608DF83E
:1008C00002308DF800900BF094FB9DF8042097F80F
:1008D00020309A4210D19DF8052097F821309A4295
:1008E0000AD19DF8062097F822309A4204D1C8F820
:1008F0000840C8F80C5007E001350F36202DF6B23D
:10090000CFD101341F2CC7D1BDE8FE83EC380020C5
:1009100010B504210446002010F0B1FC0321A0739F
:10092000012010F0ACFCE06110BD37B501F581513C
:1009300004460D79053100950BF081FA20463EBD45
:1009400010B503785F2B88B0014623D07E2B21D0D1
:100950002E2B1FD004A810F0DDFC04A810F0E8FD39
:100960000146684610F00EFD04A810F092FC04A8A1
:100970000A4910F0CFFC04A9684610F085FD044632
:1009800004A810F086FC601E44424441684610F002
:1009900080FC00E00024204608B010BD78BF0100B4
:1009A00010B1012819D10AE00C4B9A788918C9B204
:1009B0001829997088BF987008480EF0B1BC074B91
:1009C0005A788918C9B23B2901D95870F4E759708F
:1009D0000029F1D13B225A70EEE77047DCACFF1FD3
:1009E0000122074B027018680918002901DC1A60FF
:1009F000704740F2E7329142D4BF19601A607047E5
:100A00007095FF1F0A4B10B504460360094B00F5B3
:100A1000B250436000F5827010F03BFC04F5B0501A
:100A2000054B2C3040F8103C10F033FC204610BD34
:100A300008B9010020BF010040BF010038B50446DD
:100A400008460D460FF060FA236802465B682046B0
:100A50002946984738BD08B5FFF7F0FF08BD38B5FF
:100A6000044610F050FB0546204610F06DFB40197F
:100A700038BD38B50446FFF7E1FF0546204610F0C3
:100A800063FB281838BD38B50A220023044610F04D
:100A900069FB0546204610F057FB281838BD38B5CD
:100AA000044610F097FB0546204610F04DFB281831
:100AB00038BD08B50368C9B21B68984708BDFFFF79
:100AC0002DE9F7430E4B16461A680092009F054623
:100AD00089460024984609EB0400311B10F04CF9BC
:100AE0002418B44209D2D8F80030AA680193019BB7
:100AF000DB1B9342EFD301232B732046BDE8FE831B
:100B0000B85A002010B502780C7882FA54F20270BC
:100B10004C78427882FA54F242708978827882FA6C
:100B200051F2827010BD03780A1C18BF01221BB15C
:100B300013FB01F302EB1323037043781BB113FB88
:100B400001F302EB1323437083781BB113FB01F312
:100B500002EB132383707047027812FB01F212122A
:100B60000270427812FB01F212124270827812FB7C
:100B700001F10912817070470278002362F30703C4
:100B8000427862F30F23827862F3174382B01846EB
:100B900002B070471FB5002402A88DF808408DF8F8
:100BA00009408DF80A40FFF7E7FF8DF80000C0F319
:100BB0000723C0F307408DF802008DF80130009B39
:100BC000054804A921F8043D1B0C8DF80E300AF0ED
:100BD00039F8204604B010BD103900201FB500249C
:100BE00002A88DF808408DF809408DF80A40FFF7FB
:100BF000C3FF8DF80000C0F30723C0F307408DF852
:100C000002008DF80130009B054804A921F8043D3D
:100C10001B0C8DF80E300AF015F8204604B010BDFC
:100C2000103900201FB5002402A88DF808408DF867
:100C300009408DF80A40FFF79FFF8DF80000C0F3D0
:100C40000723C0F307408DF802008DF80130009BA8
:100C5000054804A921F8043D1B0C8DF80E3009F05D
:100C6000F1FF204604B010BD103900201FB500244C
:100C700002A88DF808408DF809408DF80A40FFF76A
:100C80007BFF8DF80000C0F30723C0F307408DF809
:100C900002008DF80130009B054804A921F8043DAD
:100CA0001B0C8DF80E3009F0CDFF204604B010BDAE
:100CB000103900201FB5002402A88DF808408DF8D7
:100CC00009408DF80A40FFF757FF8DF80000C0F388
:100CD0000723C0F307408DF802008DF80130009B18
:100CE000054804A921F8043D1B0C8DF80E3009F0CD
:100CF000A9FF204604B010BD103900201FB5002404
:100D000002A88DF808408DF809408DF80A40FFF7D9
:100D100033FF8DF80000C0F30723C0F307408DF8C0
:100D200002008DF80130009B054804A921F8043D1C
:100D30001B0C8DF80E3009F085FF204604B010BD65
:100D4000103900201FB5002402A88DF808408DF846
:100D500009408DF80A40FFF70FFF8DF80000C0F33F
:100D60000723C0F307408DF802008DF80130009B87
:100D7000054804A921F8043D1B0C8DF80E3009F03C
:100D800061FF204604B010BD103900201FB50024BB
:100D900002A88DF808408DF809408DF80A40FFF749
:100DA000EBFE8DF80000C0F30723C0F307408DF879
:100DB00002008DF80130009B054804A921F8043D8C
:100DC0001B0C8DF80E3009F03DFF204604B010BD1D
:100DD00010390020FFFFFFFF2DE9F04F8DB00024F8
:100DE000064607A88DF81C408DF81D408DF81E4062
:100DF000FFF7C2FE8DF81000C0F30723C0F30740D1
:100E00008DF812008DF81130049B6D480CA921F863
:100E1000043D1B0C8DF82E3009F014FF736901336B
:100E20000AD1202010F020FAF060202010F01CFAE7
:100E3000AA233061B3607461D6F814A0BAF1000F30
:100E400021D16049327AB589348AFF2308A8FFF797
:100E50006CFD08A8FFF790FE8DF81000C0F3072383
:100E6000C0F307408DF811308DF812000CAB0498D8
:100E700023F8040D000C8DF82E000093504829B281
:100E800022B2534689E0B3699A4580F28B80B6F866
:100E90000CC0F069CDF80CC013F070FF0446AAF145
:100EA00002000D4613F058FF02460B462046294625
:100EB000377AB6F810B011F0CFFB3FA3D3E9002387
:100EC00013F0B0FF14F070FA3A46C3B23D4909A8D6
:100ED000FFF72BFD09A8FFF74FFE8DF81000C0F3B8
:100EE0000723C0F307408DF812008DF81130049BE2
:100EF00033480CAF0FFA8BF227F8043DDDF80CC035
:100F000000971B0C8DF82E300FFA8CF11FFA8AF324
:100F100009F0C5FDD6F81480B8F1030F3FDDF06984
:100F2000B6F80C90B6F810B096F808A013F026FFAB
:100F30000446A8F102000D4613F00EFF02460B46D0
:100F40002046294611F088FB1BA3D3E9002313F0A8
:100F500069FF14F029FA1B49C3B252460AA8FFF7E9
:100F6000E4FC0AA8FFF708FEC0F307238DF8100081
:100F7000C0F307408DF812008DF81130049B104823
:100F8000ADF82C301B0C8DF82E30A8F10303009720
:100F90000FFA89F10FFA8BF29BB209F080FD7369A9
:100FA000013301E04FF0FF33736132200DB0BDE833
:100FB000F08F00BFAFF300800000000000E06F4042
:100FC00010390020289CFF1F2DE9F04F8DB000261E
:100FD00008A88DF820608DF821608DF82260FFF759
:100FE000CBFD8DF81800C0F30723C0F307408DF840
:100FF0001A008DF81930069B48480CAC012524F8DE
:10100000043D1B0C21468DF82E3009F01BFEFF21FC
:10101000304610F034F94249C2B2FF2309A8FFF765
:1010200084FC67E0002002218DF828708DF829707B
:101030008DF82A7010F023F901280BD19DF8243087
:101040008DF828309DF825308DF829309DF8263010
:101050008DF82A300AA8FFF78FFD8DF81800C0F32D
:101060000723C0F307408DF81A008DF81930069B4E
:10107000DDF80CE023800AF104091B0C0FFA8AF852
:101080000FFA89F9A3702548CDF8009001940FFA62
:101090008BF142460FFA8EF309F0B4FD022E1DD0FB
:1010A0000AA8FFF769FD8DF81800C0F30723C0F305
:1010B00007408DF81A008DF81930069BDDF810E016
:1010C00023801B0CA370059BCDF8009019B20194EE
:1010D000124842460FFA8EF309F094FD0AF1060C0D
:1010E0001FFA8CFABAF11F0F9CD101360635032E78
:1010F000ADB20ED0C5F11A0305F1040A0593C5F18E
:101100001E03CDF80CA0AB4604934FF0010A002754
:1011100088E74FF4FA600DB0BDE8F08F1039002079
:10112000289CFF1F08B5302215F0DAF808BDF0B58D
:101130000023032751F8232007FB03F54419160C5D
:1011400001334655150A102B6570A270F2D1F0BD1F
:101150007FB500230748029369460CF0C7F828B111
:1011600014200FF0E7F803480BF00CFD029807B0CD
:1011700000BD00BF55ADFF1F10B5FFF7E9FF0446E6
:1011800060B1FFF7E5FFA042FBD0054821460A22E7
:1011900000230FF0E7FF02480FF0D6FF204610BDF6
:1011A000B85B002030B587B00546FFF7E5FF214A60
:1011B0002149034678B91268019201980A68811A98
:1011C0001E4A1268914201D2002030E01C4A106889
:1011D0000028F9D02AE010680290029C0C60591C8B
:1011E000184903D06FF00040834217D1114A1368A9
:1011F000039303980B68C11AA94205D3124B01222D
:101200001A700F4B186812E0002BDDD112680E49DE
:1012100004920B700B4A04991160D5E7126805928D
:10122000059A0A60084A00201070054A136007B04A
:1012300030BD00BFB85A0020ACF2FF1F6495FF1FFD
:10124000D8ACFF1FE4ACFF1F57ADFF1F034A0023BC
:101250001360034A1370034A13607047D8ACFF1F32
:1012600057ADFF1FE4ACFF1F944B984200F00D8177
:1012700000F28C80924B984200F0038140D8914B51
:10128000984200F006811DD8A3F57F53984200F0E4
:101290000E810BD88C4B984200F0FB8003F5FF6366
:1012A000984200F0EE80A3F57F6383E0874B98427D
:1012B00000F0F38003F5FF63984200F0E480A3F5AB
:1012C0007F6390E0824B984200F0DF800ED8A3F558
:1012D0007F63984200F0E38003F5FF63984200F0DB
:1012E000DA807C4B984240F0E480DAE07A4B984216
:1012F00000F0E180794B984200F0C180784BB3E078
:10130000784B984200F0CB801DD8774B984200F084
:10131000BE8009D8754B984200F0C980744B984242
:1013200000F0B780734B86E0734B984200F0A780C3
:1013300003F5FF63984200F0AE80A3F57F63984207
:1013400040F0B780A1E06D4B984200F09A800CD835
:101350006B4B984200F0A3806A4B984200F09D804E
:10136000694B984240F0A580A5E0684B984200F098
:10137000A28005D8A3F5FF63984240F09A8096E0DA
:10138000634B98427BD003F5FF7313E0614B9842A7
:1013900075D036D8604B984200F0838016D85F4BEA
:1013A000984276D009D85E4B984272D05D4B9842F5
:1013B00069D05D4B98427CD177E05C4B984260D01D
:1013C00003F5FF7398426ED0594B17E0594B984282
:1013D0005BD00BD8A3F5FF5398426CD003F57F6325
:1013E00098424ED0544B984263D15CE0534B9842A4
:1013F00051D003F5FF63984245D0514B984258D1E4
:101400004BE0504B984256D018D84F4B984240D0A2
:1014100009D84E4B98423CD04D4B984247D04D4B4B
:10142000984246D133E04C4B98422CD04B4B9842DB
:1014300037D0A3F5FF5398423BD12CE0484B98425C
:1014400023D00BD8A3F57F6398421AD003F5FF632E
:10145000984222D0434B98422BD11AE0424B9842FB
:1014600023D004D8A3F57F63984222D107E03F4BF5
:10147000984218D003F5FF6398421AD10FE001207B
:1014800070470320704704207047052070470620EE
:1014900070470720704708207047092070470A20CE
:1014A00070470B2070470C2070470D2070470E20AE
:1014B0007047002070470220704700BF57A8FF0008
:1014C000EF10FF009F60FD00F708FD00B748FD002A
:1014D0006F90FD008F70FD004FB0FD00FD02FF001A
:1014E0005FA0FD009D62FF00BF40FF00DD22FF0006
:1014F000CF30FF00E718FF00AF50FF007788FF00F4
:101500008F70FF00857AFF009768FF006798FF00E3
:101510005FA0FF005FA0EF1017E8FF002FD0FF00D3
:101520003DC2FF0037C8FF004FB0FF001FE0FF00C3
:1015300027D8FF00DF20EF100FF0FF008778EF10B3
:10154000A758EF109F608916EF10891607F8EF1063
:10155000FF00891627D8EF10BF408916A7588916B3
:101560005FA089167F8089162FD0891627D8891603
:1015700008B5FFF701FEBDE80840FFF775BE08B5E6
:10158000FFF710FEBDE80840FFF76EBE70B5ACB0C7
:101590000646FEF7A1FFFF24002510A98DF80000E4
:1015A00068468DF801408DF802500AF022FDFEF7E2
:1015B00093FF11A98DF8040001A88DF805408DF85E
:1015C00006500AF016FDFEF787FF12A98DF80800F5
:1015D00002A88DF809408DF80A400AF00AFDFEF7CE
:1015E0007BFF13A98DF80C0003A88DF80D408DF832
:1015F0000E400AF0FEFCFEF76FFF14A98DF81000F4
:1016000004A88DF811408DF812500AF0F2FCFEF794
:1016100063FF15A98DF8140005A88DF815408DF805
:1016200016400AF0E6FCFEF757FF16A98DF81800E1
:1016300006A88DF819408DF81A400AF0DAFCFEF77A
:101640004BFF17A98DF81C0007A88DF81D408DF8D9
:101650001E500AF0CEFCFEF73FFF18A98DF82000BF
:1016600008A88DF821408DF822500AF0C2FCFEF740
:1016700033FF19A98DF8240009A88DF825408DF8AD
:1016800026400AF0B6FCFEF727FF1AA98DF82800BD
:101690000AA88DF829408DF82A400AF0AAFCFEF726
:1016A0001BFF1BA98DF82C000BA88DF82D408DF881
:1016B0002E500AF09EFCFEF70FFF1CA98DF830009B
:1016C0000CA88DF831408DF832400AF092FCFEF7FC
:1016D00003FF1DA98DF834000DA88DF835408DF855
:1016E00036400AF086FCFEF7F7FE1EA98DF838009A
:1016F0000EA88DF839408DF83A500AF07AFCFEF7C2
:10170000EBFE1FA98DF83C000FA88DF83D408DF829
:101710003E500AF06EFC9DF840308DF880309DF808
:1017200041308DF881309DF842308DF882309DF83F
:1017300044308DF883309DF845308DF884309DF825
:1017400046308DF885309DF848308DF886309DF80C
:1017500049308DF887309DF84A308DF888309DF8F3
:101760004C308DF889309DF84D308DF88A309DF8D9
:101770004E308DF88B309DF850308DF88C309DF8C0
:1017800051308DF88D309DF852308DF88E309DF8A7
:1017900054308DF88F309DF855308DF890309DF88D
:1017A00056308DF891309DF858308DF892309DF874
:1017B00059308DF893309DF85A308DF894309DF85B
:1017C0005C308DF895309DF85D308DF896309DF841
:1017D0005E308DF897309DF860308DF898309DF828
:1017E00061308DF899309DF862308DF89A309DF80F
:1017F00064308DF89B309DF865308DF89C309DF8F5
:1018000066308DF89D309DF868308DF89E309DF8DB
:1018100069308DF89F309DF86A308DF8A0309DF8C2
:101820006C308DF8A1309DF86D308DF8A2309DF8A8
:101830006E308DF8A3309DF870308DF8A4309DF88F
:1018400071308DF8A5309DF872308DF8A6309DF876
:1018500074308DF8A7309DF875308DF8A8309DF85C
:1018600076308DF8A9309DF878308DF8AA309DF843
:1018700079308DF8AB309DF87A308DF8AC309DF82A
:101880007C308DF8AD309DF87D3006F582508DF8B6
:10189000AE309DF87E30153020A98DF8AF30FFF7BF
:1018A00041FC2CB070BDFFFF10B50A29A0B0044662
:1018B00000F5815301DD002204E0002901DB1960FD
:1018C00001E00A221A6004F581531B680A2B00F21A
:1018D000AB80DFE803F006101A242E3842606A74E9
:1018E000A20004F5825015305049FFF720FC04F5A2
:1018F00084544F4B97E004F5825015304D49FFF763
:1019000016FC04F584544C4B8DE004F582501530E0
:101910004A49FFF70CFC04F58454494B83E004F575
:10192000825015304749FFF702FC04F58454464BBA
:1019300079E004F5825015304449FFF7F8FB04F5CF
:101940008454434B6FE004F5825015304149FFF752
:10195000EEFB04F58454404B65E000238DF80C3019
:101960008DF80D308DF80E30FF238DF808308DF88E
:1019700009308DF80A3008A802AB102103AA0AF03A
:10198000E0F904F58250153008A9FFF7CBFB04F508
:101990008454324B47E004F5825015303049FFF74C
:1019A000C6FB04F584542F4B3DE004F582501530FE
:1019B0002D49FFF7BCFB04F584542C4B33E0FF2387
:1019C0008DF81A308DF815308DF816308DF81030EE
:1019D0008DF811308DF8123005AB0022009304AB66
:1019E0008DF81C208DF81D208DF81E208DF81820F4
:1019F0008DF819208DF81420019314A806AB10213E
:101A000007AA0AF0BAF904F58250153014A9FFF7B5
:101A100089FB04F58454164B05E02046FFF7B6FD1C
:101A2000144B04F58454A36020B010BD44FE0100A3
:101A30007DBF0100C4FE010085BF010004FE01005E
:101A400093BF010044FF010099BF0100C4FF0100E2
:101A50009FBF010004FF0100A6BF0100ACBF010051
:101A600084FF0100B1BF010084FE0100B6BF010088
:101A7000BBBF010073C1010038B52021044600201E
:101A80000FF0FDFB1F2804F58B4301DD002204E06D
:101A9000002801DB586101E01F225A6104F58B43E5
:101AA000986910B103681B69984704F58B450B21B1
:101AB0006B6903F58B5304EB83040020E369AB618E
:101AC0000FF0DDFB01460448FFF7EEFEA86910B1F8
:101AD0000368DB68984738BD289CFF1F70B500F588
:101AE000845306461A7B05321A735A7B02325A73A4
:101AF0009A7B03329A73DA7B0432DA731A7C0132EE
:101B0000D2B2D0071A7402D45A7C01325A7400241B
:101B1000351905F584550134287BFEF719FD00B20F
:101B20004301181A0012042CA874F1D170BD2DE9DC
:101B3000F04105460F46002400F580564FF003089B
:101B400006E02868394608FB0400FFF705F8013471
:101B5000F3699C42F5DBBDE8F081FFFF2DE9F04120
:101B6000837B8CB00446032B00F26D81DFE813F019
:101B700004005E00B80012010025A07AEEB200EB6E
:101B80004600C0B2FEF70AFD627B2369BB49B2186A
:101B900090FBF3F8D2B2FF2303A8FEF7C6FE03A81A
:101BA000FEF7EAFF8DF80000C0F30723C0F30740FB
:101BB0008DF802008DF80130009BB148ADF82C3053
:101BC0002FB21B0C8DF82E3039460BAB0FFA88F272
:101BD00008F01EFEE369022B24D1A369A749C8EBD4
:101BE0000308637BF218D2B2FF2304A8FEF79DFE20
:101BF00004A8FEF7C1FFC0F307238DF80000C0F36F
:101C000007408DF802008DF80130009B9C48ADF82C
:101C10002C301B0C8DF82E3039460FFA88F20BABA6
:101C200008F0F6FD0135202DA7D10CE10025A07AA2
:101C3000EEB200EB4600C0B2FEF7B0FC627B236957
:101C40008E49B21890FBF3F8D2B2FF2305A8FEF735
:101C50006CFE05A8FEF790FF8DF80000C0F3072387
:101C6000C0F307408DF802008DF80130009B8448D6
:101C7000ADF82C302FB21B0C8DF82E300FFA88F1F6
:101C80000BAB3A4608F0C4FDE369022B24D163692B
:101C90007A49C8EB0308637BF218D2B2FF2306A887
:101CA000FEF743FE06A8FEF767FFC0F307238DF893
:101CB0000000C0F307408DF802008DF80130009B52
:101CC0006F48ADF82C301B0C8DF82E300FFA88F1D0
:101CD0003A460BAB08F09CFD0135202DA7D1B2E0B0
:101CE0000025A37AEEB27000C01AC0B2FEF756FC0F
:101CF000627B23696149B21890FBF3F8D2B2FF23EB
:101D000007A8FEF712FE07A8FEF736FF8DF80000C1
:101D1000C0F30723C0F307408DF802008DF80130AF
:101D2000009B5748ADF82C302FB21B0C8DF82E308D
:101D300039460BAB0FFA88F208F06AFDE369022B13
:101D400024D1A3694D49C8EB0308637BF218D2B2D2
:101D5000FF2308A8FEF7E9FD08A8FEF70DFFC0F372
:101D600007238DF80000C0F307408DF802008DF8BE
:101D70000130009B4248ADF82C301B0C8DF82E3002
:101D800039460FFA88F20BAB08F042FD0135202DE1
:101D9000A7D158E00025A37AEEB27000C01AC0B2F5
:101DA000FEF7FCFB627B23693449B21890FBF3F821
:101DB000D2B2FF2309A8FEF7B8FD09A8FEF7DCFEA2
:101DC0008DF80000C0F30723C0F307408DF8020030
:101DD0008DF80130009B2A48ADF82C302FB21B0C37
:101DE0008DF82E300FFA88F10BAB3A4608F010FD53
:101DF000E369022B24D163692049C8EB0308637BA4
:101E0000F218D2B2FF230AA8FEF78FFD0AA8FEF748
:101E1000B3FEC0F307238DF80000C0F307408DF830
:101E200002008DF80130009B1548ADF82C301B0CDA
:101E30008DF82E300FFA88F13A460BAB08F0E8FC2B
:101E40000135202DA7D1FE210C48FFF770FE237A23
:101E5000627A9A4205D800232372A37A0133A372CF
:101E600001E001332372E37A227B9A420AD80023ED
:101E7000E372637B0133637306E000BF289CFF1F9E
:101E8000103900200133E37200200CB0BDE8F0816E
:101E90002DE9F04F804687B08948BE21FFF747FE05
:101EA0004FF08241D8F81C0013F0FCFB13F0E6FD64
:101EB000FF23C2B2824904A8FEF737FDD8F80C0010
:101EC000D8F8089012F05AFF04460D464846D8F854
:101ED0001C1013F0DFFA12F051FF77A3D3E90023AF
:101EE00012F0A0FF13F080FA12F048FF06460F46EA
:101EF00010F01CFB02460B462046294612F092FFCA
:101F00000022704B12F0DCFD13F026FA39468246AF
:101F1000304610F055FB02460B462046294612F08B
:101F200081FF02460B460020664912F0C7FD13F000
:101F300013FA0190D8F80C0012F020FF044648462E
:101F40000D4612F01BFF5CA3D3E9002312F06AFFD9
:101F500013F04AFA12F012FF06460F4610F0E6FAA6
:101F600002460B462046294612F05CFF0022554BE4
:101F700012F0A6FD13F0F0F939468346304610F012
:101F80001FFB02460B462046294612F04BFF024635
:101F90000B4600204B4912F091FD13F0DDF9064687
:101FA00004A80096FEF7E8FD8DF80800C0F30723AB
:101FB000C0F307408DF80A008DF80930029B4248B3
:101FC00006AC05AD24F8043D1B0C05F8023FDDF816
:101FD00000C00FFA8BF70FFA8CFC62463946234695
:101FE000CDF800C008F014FC04A8FEF7C5FD8DF87C
:101FF0000800C0F30723C0F307408DF80A008DF8EE
:102000000930029B3048ADF814301B0C2B70DDF802
:1020100000C03A466146234608F0FAFB48464FF0B6
:102020007E5113F037FA2949814613F0EDFC08B1CF
:102030004FF00009D3457FF47DAF019B9E427FF4B2
:1020400079AF26E0D8F82040002328462146C8F87A
:10205000083013F01FFAD8F81050C8F81C002946B1
:10206000064613F0C7FC10B1C8F81C500CE0D8F8B5
:1020700018503046294613F0D1FCC0B128462146FD
:1020800013F006FAC8F81C0004F10044C8F8204018
:102090000DE0D8F81C50D8F80810284613F0FAF9CB
:1020A0000A49C8F8080013F0AFFC0028CAD1002084
:1020B00007B0BDE8F08F00BF399D52A246DF913FC7
:1020C000289CFF1F00003040103900200000B4435E
:1020D000F0B5AA2185B005461B48FFF728FD00246E
:1020E000072604F120000021202280B2FEF76EFABC
:1020F00006FB04F2FF231449D2B2074602A8FEF7FA
:1021000014FC02A8FEF738FD8DF80000C0F3072389
:10211000C0F307408DF802008DF80130009B0B489A
:10212000ADF80C301B0C8DF80E3021B23AB203AB77
:10213000013408F06DFB202CD3D1AB680133AB60C8
:102140000F2005B0F0BD00BF289CFF1F10390020F4
:1021500000F58053C82210B51A760446FEF7CAF976
:10216000C4F8040CFEF7C6F9C4F8080CFEF7C2F96F
:1021700041F27073C4F80C0CC4F8103CC4F8143C61
:1021800010BDFFFF08B50248FFF7E2FF08BD00BF22
:10219000289CFF1F08B50248FFF7DAFF08BD00BF03
:1021A000289CFF1F08B50248FFF7D2FF08BD00BFFB
:1021B000289CFF1F08B50248FFF7CAFF08BD00BFF3
:1021C000289CFF1F08B50248FFF7C2FF08BD00BFEB
:1021D000289CFF1F08B50248FFF7BAFF08BD00BFE3
:1021E000289CFF1F2DE9F04F87B04B0101F2023808
:1021F000039300EB880304460F460025059307F57B
:10220000417BA5F10F0A54F82B3003FB0AF3DDF8EC
:102210000CA0009305EB0A0907F5407C04F58053F8
:1022200004EB4919002604EB8C0C04EB8B0B049394
:10223000DBF8042054F82830DCF80400DDF800A0B6
:10224000A6F10F0102FB0131059B50445A68CDF8FD
:1022500008C00AF037F909EB0603049993F818ACA3
:102260000A7E1AFB02F152420012D2B2424312120B
:1022700002EB1121013683F8181C202EDDF808C06E
:10228000D6D10135202DBAD107B0BDE8F08F38B5D1
:1022900000F5166420460D460BF061F9411B2046FF
:1022A000BDE838400BF056B900F516600BF0E7B802
:1022B00038B50546FFF7F8FF04462846FFF7F4FF58
:1022C00044EA002038BD00F5166092B20BF03CB92C
:1022D00038B500F65C054FF48272044600212846AA
:1022E00014F064F82046FFF7DFFFC2B2294620460B
:1022F000FFF7E9FF2046FFF7D7FFC2B2002AF5D16A
:1023000038BD2DE9F04F00F58F5389B006921A6859
:102310000591002AC0F2DD8000F58E5202F108011D
:10232000154603F10804DDF818B003910C35079445
:102330000BE0791E2160059E17F8011C06F8011BB1
:10234000BBF1010B059600F0C08000F590542146CA
:1023500051F8047B8F42ECD800F58E54D2F810C0AF
:1023600003F11C06043419E0316829B9216811F819
:10237000019BC6F800902160216811F8019B216043
:10238000296809FA08F949EA01012960039908F165
:102390000808C1F800803168013931600399D1F82B
:1023A0000080E045E0DB2E68039C46FA0CF12960D2
:1023B000CCEB0801216051690E4019688E427FD034
:1023C000D1698E4200F58F5101F1100112D194694B
:1023D000013404F58C66146150F8266056615E681D
:1023E0000E60012101FA04F44FF0FF319C60996105
:1023F0005961AAE70C68A64209D15C69002C5FDB31
:1024000007F8014B00F5905427609C6913E057DAF8
:10241000344610E0071907F5D05704F5086497F81B
:102420000480DCF8007000EB840407F8018BCCF822
:102430000070646801E000F5905C5F68BC42E9DA16
:10244000DCF80070029407F8014BCCF80070079F8D
:10245000D1F800C0D7F8008000F58F571837C44571
:10246000019716DAD7F80090B9F1000F11DB00EBF5
:102470000C0ACDF810A00AF5D05A8AF804400CF5E1
:10248000086A00EB8A0A0CF1010CCAF80490C1F842
:1024900000C009685C61019C41452660FFF655AFAC
:1024A00011690A293FF751AF0131116101F58C61C2
:1024B000079E50F821104FEA48043460516144E708
:1024C00000F58F504FF0FF330360069FCBEB070002
:1024D00000E0002009B0BDE8F08FFFFF2DE9FF41CB
:1024E00090F82830044653B939E004EB45112046F2
:1024F00001F51861E269FFF704FF083500E00025E7
:10250000236A9D42F1DB042508E004EB45112046D7
:1025100001F51861E269FFF7F4FE0835236A9D4270
:10252000F3DB022508E004EB4511204601F51861B4
:10253000E269FFF7E6FE0435236A9D42F3DB0125DD
:1025400008E004EB4511204601F51861E269FFF748
:10255000D8FE0235236A9D42F3DBA5694BE085690D
:102560006E010AE06369E269F31803F51861204619
:102570006118FFF7C6FE01352036226AA369D31819
:102580009D42EFDBE9E7666904EB45174FF003086E
:102590002BE0BB19226B93F88039934224D008FBBF
:1025A000034358331A798DF808205A799B798DF8AE
:1025B000092002A88DF80A30FEF7DEFAC0F30723DF
:1025C0008DF80000C0F307408DF802008DF801304F
:1025D000009B0C48ADF80C301B0C8DF80E3031B25E
:1025E0002AB203AB08F014F90136E2696369D31823
:1025F0009E42CEDB0135226AA369D3189D42C2DB1D
:10260000BDE8FF81103900202DE9F7430446FFF7AC
:102610004FFE60612046FFF74BFEA0612046FFF7AA
:1026200047FEE0612046FFF743FE20622046FFF7A9
:102630003BFEC0F380130706606284F828300DD596
:1026400000F007000130012303FA00F30322A36521
:10265000204604F15C015A43FFF735FE94F84430FC
:1026600093B1216B4E1C0CBF217CC9B204F51860DC
:102670004FF4806213F09AFE002384F84430A36480
:10268000E364202323656365A36B012B0AD9002330
:102690006B488DF8043001A98DF805308DF80630AF
:1026A00008F0D0FAA36B022B1AD1A16C226D606DD9
:1026B000E36C94F83450C01856180BE004EB431741
:1026C0000A4604E007EB020E01328EF88059B2424E
:1026D000F8DB01338342F1DBE36BA36313BB4EE012
:1026E000032BF9D104F1480065C804F5586753017C
:1026F00004F5186EDF199E440021B6182D180EE05F
:1027000001EB070C01EB0E08034604E01CF80390F4
:1027100008F803900133AB42F8DB01322031B242BA
:10272000EEDBD9E704F1140065C8A064022BE26473
:102730002565666505D1236B5D1C08BF236963634E
:102740001DE0032B1BD1530104F5186704F5586EE7
:10275000DF199E440021B6182D180EE001EB070C7E
:1027600001EB0E08034604E01CF8039008F8039000
:102770000133AB42F8DB01322031B242EEDB2046BE
:10278000FFF792FD20642046FFF78EFD00260546E8
:1027900004F516681DE00135012120467719FFF781
:1027A00076FDB7F5A06F0CDCA119204601F5577135
:1027B0002A46FFF788FD07E040460AF060FE013632
:1027C00000E00026AE42F7DB2046FFF76DFD3E46F7
:1027D0000546002DDFD1216C481C00F58C6604F500
:1027E0008E5254F82660916104F5577356610126A4
:1027F00006FA01F1536004F58F534FF0FF37D560AF
:1028000095601061D16106FA00F08A1902311A60F0
:10281000DD619860596019615F619F6104F59053B3
:102820001A1D1A602046FFF759FEE36A2763002B42
:10283000D8BFE662E36AE5630A205843BDE8FE8339
:10284000103900200B7903718B6883600B7B30B5E6
:10285000037300F10D0201F10D0301F1190453F8A6
:10286000045BA34242F8045BF9D11B781370CB6977
:10287000C36130BD1FB5062201A9FFF724FD01A8E1
:102880000849062214F060FA48B1062201A8064958
:1028900014F05AFAD0F1010038BF002000E0012006
:1028A00005B000BDBFBF0100C6BF010010B50446A2
:1028B000FFF7FEFC20602046FFF7FAFC6060204630
:1028C000FFF7F2FCA0602046FFF7EEFC20612046F7
:1028D000FFF7EAFCE06010BD08B583681A06014600
:1028E0000BD503F007030122013302FA03F303229D
:1028F00083655C315A43FFF7E6FC08BDF8B5044632
:10290000002700F65C052046FFF7CEFCC0B22C285D
:1029100003D12046FFF778FEF8BD2128204651D18B
:10292000FFF7C2FCC0B2F92817D002DC01284FD152
:1029300004E0FE283BD0FF284AD13FE02046FFF7C5
:10294000B3FCC2B229462046FFF7BDFC2046FFF784
:10295000ABFCC2B2002AF5D1D5E72046FFF7A4FCB4
:102960002046FFF7A1FC06462046FFF7A1FCE062E7
:102970002046FFF799FCF1074CBF20634FF0FF336F
:10298000C6F3820058BF23630328C8BF3846E063FC
:102990002046FFF789FCB6E700214FF482722846F3
:1029A00013F004FD204629463246FFF78CFC2046F2
:1029B000FFF77AFCC6B2002EEED1A4E72046FFF75F
:1029C00087FCA0E70121FFF762FC6FF00400F8BD6F
:1029D0006FF00300F8BDFFFF0B790C4A03718B68A1
:1029E00083600B7B0373034630B543F80D2B01F175
:1029F000190401F10D0252F8045BA24243F8045B92
:102A0000F9D112781A70CB69C36130BD9801020008
:102A100010B50B785F2B8CB034D07E2B32D02E2BA0
:102A200030D008A80EF076FC08A80EF081FD014613
:102A300068460EF0A7FC08A80EF02BFC134904A86A
:102A40000EF068FC684604A90EF01EFD01280FD0A8
:102A500008A80F490EF05EFC684608A90EF014FDA8
:102A600010F1FF3408A818BF01240EF012FC00E09A
:102A7000002404A80EF00DFC684684F001040EF05A
:102A800008FC00E0002420460CB010BDCDBF0100C2
:102A9000D2BF01002DE9F041161E98B007460C4642
:102AA000984652DB1E9B9E424FDA684628492246D2
:102AB00001230AF0BDFE68466D460AF07AFD002843
:102AC00039D008AC2046694601220AF017FF6D464E
:102AD00022E020460AF061FD1EE020460AF02AFDB1
:102AE00001463846FFF794FF38B120460AF022FD30
:102AF00001464046013E14F0C9F820460AF04DFD5B
:102B000010A8694601220AF0F9FE204610A9FFF735
:102B100099FE10A80AF008FD20460AF04AFD08B107
:102B2000002E0CDA20460AF038FD68460AF035FD22
:102B300020460AF0F9FC68460AF0F6FC05E020465B
:102B40000AF0FAFC0028C4D1C7E718B0BDE8F0814C
:102B500044570020F0B5074699B027480C460AF0C4
:102B6000B9FE002844D068462349224601230AF0D2
:102B70005FFE68466E460AF01CFD002833D008ACA4
:102B80002046694601220AF0B9FE00256E461BE088
:102B900020460AF0D1FC40B920460AF0CBFC0146A1
:102BA0003846FFF735FF00B1013520460AF0F5FC45
:102BB00010A8694601220AF0A1FE204610A9FFF7DD
:102BC00041FE10A80AF0B0FC20460AF0F2FC0028F2
:102BD000DED120460AF0E1FC68460AF0DEFC204621
:102BE0000AF0A2FC00E0054668460AF09DFC00E001
:102BF0000546284619B0F0BD4457002038B50846B0
:102C00000C4616490EF00CFC0546E0B92046144966
:102C10000EF006FCC8B9204612490EF001FCB0B90E
:102C2000204611490EF0FCFB98B920460F490EF0E2
:102C3000F7FB80B920460E490EF0F2FB00280CBFCE
:102C40000520042038BD052038BD284638BD0120A8
:102C500038BD022038BD032038BD00BFD6BF0100FB
:102C6000EABF0100F6BF010004C0010012C001006C
:102C70001AC0010070B5044690B00D46C2E1294665
:102C800008A8FFF7A9FE684600210EF043FB08E004
:102C900008A80AF0F4FB0FE00A290DD068460EF0F0
:102CA000B2FB08A80AF066FC30B108A80AF0E7FBFE
:102CB000C1B20D29F0D1EBE708A80AF035FCA7490D
:102CC00004A80EF027FB04A968460EF0D4FB0646C4
:102CD00004A80EF0DEFA04A8D6B1052269460EF06B
:102CE00020FC04A968460EF058FB04A80EF0D1FAA7
:102CF0009B499C48FDF7AFFE69469A48FDF7AFFE39
:102D0000684604F10C01322200230EF0D3FB76E179
:102D100095490EF0FFFA04A968460EF0ACFB064692
:102D200004A80EF0B6FA04A8EEB1042269460EF02B
:102D3000F8FB04A968460EF030FB04A80EF0A9FACF
:102D4000029B002B00F05B8168460EF000FC012323
:102D500084F83E00854923718248FDF77CFE814856
:102D600094F83E1029E082490EF0D4FA04A968468E
:102D70000EF081FB064604A80EF08BFA04A8FEB103
:102D8000062269460EF0CDFB04A968460EF005FB4D
:102D900004A80EF07EFA029B002B00F030816846FA
:102DA0000EF0D5FB012384F83F00724923716D4872
:102DB000FDF751FE6B4894F83F10FDF764FE1EE1ED
:102DC0006D490EF0A7FA04A968460EF054FB0646BA
:102DD00004A80EF05EFA04A8EEB1052269460EF0D2
:102DE000A0FB04A968460EF0D8FA04A80EF051FA28
:102DF000029B002B00F0038168460EF0A8FB012324
:102E000084F840005D4923715648FDF724FE55487B
:102E100094F84010D1E75A490EF07CFA04A96846AC
:102E20000EF029FB064604A80EF033FA04A8CEB132
:102E3000042269460EF075FB04A968460EF0ADFA4F
:102E400004A80EF026FA029B002B00F0D8806846FA
:102E50000EF07DFB4B4960644248FDF7FCFD4148A4
:102E6000616C25E048490EF055FA04A968460EF059
:102E700002FB064604A80EF00CFA04A8DEB10522F7
:102E800069460EF04EFB04A968460EF086FA04A8C7
:102E90000EF0FFF9029B002B00F0B18068460EF0A7
:102EA00056FB3A49A0642F48FDF7D5FD2D48A16C8B
:102EB000FDF7F5FDA3E036490EF02CFA04A96846AB
:102EC0000EF0D9FA064604A80EF0E3F904A8DEB124
:102ED000052269460EF025FB04A968460EF05DFA4E
:102EE00004A80EF0D6F9029B002B00F0888004F1B4
:102EF0004C06694630460EF03DFA26491948FDF762
:102F0000AAFD1848314678E023490EF003FA04A9D7
:102F100068460EF0B0FA064604A80EF0BAF904A806
:102F2000002E3DD0062269460EF0FBFA04A9684641
:102F30000EF033FA04A80EF0ACF9029B002B5ED021
:102F400068460EF004FB154984F85C000548FDF75F
:102F500082FD044894F85C102FE700BF1EC00100FA
:102F600024C00100B85B00202EC0010033C0010066
:102F700039C0010040C0010048C001004EC001003E
:102F800055C001005AC001006AC0010070C00100B4
:102F900081C0010087C001008EC0010095C0010002
:102FA0001D490EF0B7F9684604A90EF064FA06460A
:102FB00004A80EF06EF916B3052204A869460EF0B7
:102FC000B0FA04A968460EF0E8F904A80EF061F919
:102FD000029BA3B1694604A80EF0D4F904A92046C7
:102FE000FFF70CFE84F85D0004A80EF052F90B49BF
:102FF0000B48FDF730FD0A486946FDF730FD68468D
:103000000EF047F92B6828469B68984700283FF741
:1030100036AE10B070BD00BFA3C00100A9C0010052
:10302000B85B002070B588B000238DF80430724B77
:103030000291009371494FF0FF33044670480393A7
:10304000FDF709FD69466F480CF060FD6E490546C5
:103050006B48FDF7F3FC6A480EF076F86B4A694856
:1030600029460CF056FD027C052A03460DD104F1D9
:103070000C069969304613F009FE65496048FDF772
:10308000EAFC5F483146FDF7F4FC5E48614A294698
:103090000CF03FFD037C032B0DD183695E4984F85E
:1030A0003E30012323715648FDF7D5FC544894F86F
:1030B0003E10FDF7E8FC5348584A29460CF029FD1C
:1030C000037C032B0DD18369554984F83F300123DC
:1030D00023714B48FDF7BFFC494894F83F10FDF7BA
:1030E000D2FC48484F4A29460CF013FD037C032BC1
:1030F0000DD183694C4984F8403001232371404845
:10310000FDF7A9FC3E4894F84010FDF7BCFC3D4893
:10311000464A29460CF0FDFC037C032B09D1836948
:10312000434963643648FDF796FC3548616CFDF70A
:10313000B6FC34483F4A29460CF0EBFC037C032BD9
:1031400009D183693C49A3642D48FDF784FC2C48D0
:10315000A16CFDF7A4FC394A2A4829460CF0D9FC99
:10316000027C052A03460DD104F14C0699693046CC
:103170000EF01BF932492248FDF76DFC204831461C
:10318000FDF76DFC1F482F4A29460CF0C2FC037C5A
:10319000032B0BD183692C4984F85C301848FDF768
:1031A0005AFC174894F85C10FDF76DFC274A154847
:1031B00029460CF0AEFC027C052A034615D199691C
:1031C00004A80EF0A7F804A92046FFF717FD84F81D
:1031D0005D0004A80EF05DF81D490948FDF73BFCB1
:1031E000074894F85D10FDF75AFC064829460CF094
:1031F000C3F908B070BD00BFF8010200B6C00100FD
:10320000B85B0020285A0020C6C00100CCC00100D5
:1032100024C00100D1C0010033C00100D5C00100AD
:1032200040C00100DBC001004EC00100E0C0010051
:103230005AC00100E4C0010070C00100E9C00100F3
:1032400087C00100EEC0010095C00100F4C001007C
:10325000A9C0010030B54E4B1B78D7B00446002BF7
:1032600000F091808268437901329A42826004DBE7
:103270004FF0FF338360002486E00093016802ABC7
:10328000FFF708FC216816A813F000FD02A916A894
:1032900013F068FB3F494048FDF7DDFB16A93E48A7
:1032A000FDF7E7FB0EA83D4916AA01230AF0C0FA74
:1032B0000EA80AF07EF938B92046FFF7CBFF044686
:1032C0000EA80AF031F95FE0354904F10C0013F063
:1032D000DDFC00250123052184F83E5084F83F5091
:1032E00084F840506364A36404F14C000EF06DF860
:1032F000182384F85C3002A984F85D5025710AA86F
:103300000EF008F80AA80EF013F9014606A80EF010
:1033100039F80AA80DF0BDFF22490AA80DF0FAFFFE
:103320000AA906A80EF0B0F805460AA80DF0B1FFEC
:10333000012D04D120460EA9FFF79CFC11E01A498B
:103340000AA80DF0E7FF0AA906A80EF09DF80546A9
:103350000AA80DF09EFF012D03D120460EA9FFF70C
:1033600061FE23792BB9114B1A889B78E28784F888
:1033700040300EA80AF011F906A80DF08AFF0EA839
:103380000AF0D2F801E01C46204657B030BD00BF1D
:1033900056ADFF1FF9C00100B85B00204457002064
:1033A000A2C00100CDBF0100D2BF010050BE01008C
:1033B0002DE9F04FDFF8D082B24C434687B033F8A6
:1033C000037F05AD9E7801954FF002094FF01E0B6B
:1033D000CDF800902046172100221923ADF8147073
:1033E0008DF8166007F00EFCCDF800B020460721DE
:1033F0001C2209230195ADF814708DF8166007F0B2
:1034000001FC4346CDF8009033F8067F01959E7885
:10341000ADF8147020460F21002211238DF816609C
:1034200007F0F0FBCDF8009020464FF0060913217D
:10343000002215230195ADF814708DF8166007F081
:10344000E1FBCDF8009020460B2104220D230195CD
:10345000ADF814708DF8166007F0D4FB4FF00A0C2D
:10346000CDF800C04FF01A0A204607210822092390
:103470000195CDF80CC0ADF814708DF8166007F00A
:10348000C1FB2046072118220923CDF800A0019591
:10349000ADF814708DF8166007F0B4FBCDF800B0ED
:1034A00020460B210D2301951C22ADF814708DF8D8
:1034B000166007F0A7FBCDF800B020460F2101955C
:1034C0001C2211234FF0160BADF814708DF8166006
:1034D00007F098FB2046132118221523CDF800A0F1
:1034E0000195ADF814708DF8166007F08BFB20463F
:1034F000172114221923CDF800B00195ADF81470EE
:103500008DF8166007F07EFB4346CDF8009033F847
:10351000097F01959E78ADF8147020460F21042292
:1035200011238DF8166007F06DFBCDF80090204652
:103530001321042215230195ADF814708DF816603F
:1035400007F060FBCDF800902046172104221923D4
:103550000195ADF814708DF8166007F053FBDDF897
:103560000CC00195CDF800C04FF00E092046172180
:1035700008221923ADF814708DF8166007F042FB8D
:10358000204607210C22CDF8009001950923ADF8C3
:1035900014708DF8166007F035FB204617210C22B9
:1035A000CDF8009019230195ADF814708DF81660D0
:1035B00007F028FB4FF0120CCDF800C02046072181
:1035C000102209230195CDF80CC0ADF814708DF8C8
:1035D000166007F017FBDDF80CC00195CDF800C0B0
:1035E0002046172110221923ADF814708DF81660AB
:1035F00007F008FB2046072114220923CDF800B06C
:103600000195ADF814708DF8166007F0FBFA2046AE
:103610000F2114221123CDF800B00195ADF81470DC
:103620008DF8166007F0EEFA2046132114221523B8
:10363000CDF800B00195ADF814708DF8166007F064
:10364000E1FA20460F2118221123CDF800A00195A0
:10365000ADF814708DF8166007F0D4FA4346CDF833
:10366000009033F80C2F01959B78ADF814208DF85D
:10367000163020460F210C22112307F0C3FA07B0A1
:10368000BDE8F08F1039002050BE01001F4BF7B588
:103690000E4619780446C1B11D4B427D9D781F46E8
:1036A0001AB90C2D01D90C3DEDB21A48052106F0CE
:1036B000E9FD2A4604F1080017497B7813F006F962
:1036C000092D94BF0425012508E0124806F0DAFD13
:1036D00004F10800114913F0D9FA012520210D4801
:1036E00006F0ECFE04F112010A4806F0E1FE09487A
:1036F00006F098FD012300930648294632B204F1F2
:10370000080306F005FE0020FEBD00BF38F2FF1FD3
:10371000DCACFF1F103900200DC1010015C10100F4
:1037200008B5417CFFF7B2FF08BDFFFF2DE9F04F60
:103730007A4B9D78437D8FB0064688461BB90C2D89
:1037400001D90C3DEDB2B8F1000F03D0B8F1010F73
:103750000BD105E04FF6FF74092D88BF022408E065
:10376000092D94BF1124142407E0B8F1000F03D1F0
:103770004446092D33D900E0002470238DF824300D
:1037800080238DF8253009A890238DF82630FDF789
:10379000F3F98DF81800C0F30723C0F307408DF844
:1037A0001A008DF819300EA9069B777C21F8043D8C
:1037B0001FFA84F91B0C484607F1FF3A8DF83630A2
:1037C000431C023000B20FFA8AF2023F01900391CB
:1037D00000970292524821B21BB207F0EEF9717CB9
:1037E00070238DF8283080234A1E8DF829300AA8CE
:1037F00090238DF82A3005910492FDF7BDF98DF8DC
:103800001800C0F30723C0F307408DF819308DF876
:103810001A000EAB069823F8040D0599049A039339
:10382000A7B2023907F1080B000C07F1060A07F1ED
:10383000070912B200910FFA8BF18DF83600019151
:10384000029237480FFA8AF10FFA89F307F0B5F9B7
:10385000B8F1000F01D1092D2ED970238DF82C302D
:1038600080238DF82D300BA890238DF82E30FDF796
:1038700083F98DF81800C0F30723C0F307408DF8D3
:103880001A008DF819300EA9069B757C21F8043DAD
:103890001B0C05F10B088DF836307B1C02370FFA34
:1038A00088F20C353FB203918DE8A00002921C48CB
:1038B00021B21BB207F081F970238DF830308023DC
:1038C0008DF831300CA890238DF83230FDF754F983
:1038D0008DF81800C0F30723C0F307408DF81930A6
:1038E0008DF81A000EAB747C06990D4823F8041D60
:1038F00004F10B05090C8DF836102AB20FFA8BF182
:103900000C3401910393009402920FFA8AF10FFA9A
:1039100089F307F052F90FB0BDE8F08FDCACFF1F60
:103920001039002070B51E4E1E4D044623682046F7
:103930009B6898471C48FFF7F3FE1B48217AFFF766
:10394000F5FE1A48012107F009FA1848002106F08F
:1039500071FC3068FDF713FE01380A2816D8DFE83D
:1039600000F006090F121E15151515151E00207AF8
:10397000012102E0207A4FF0FF31FDF711F805E058
:10398000E368013B01E0E3680133E360E368022B95
:1039900001D90023E360E368EB5C2372C6E770BDE6
:1039A0009495FF1F6D95FF1FC0ACFF1F10390020BD
:1039B0002DE9F04F8FB0064602250DAC96F8119018
:1039C000A9B24FF0700C09F1FF324F1C4FF0800B81
:1039D00002314FF0900A0BA88DF82CC0CDF814C01E
:1039E000079106928DF82DB08DF82EA0FDF7C4F842
:1039F0008DF82000C0F30723C0F307408DF82200A4
:103A00008DF82130089B244823801B0CA370079954
:103A1000069A03940FFA85F812B2A9F102033FB295
:103A20000FFA81F90093414602923B46CDF804908B
:103A300007F0C3F8737CDDF814C0079303F10B02A1
:103A40000CA88DF830C006928DF831B08DF832A0F8
:103A5000FDF792F88DF82000C0F30721C0F307406E
:103A60008DF822008DF8211008990B482180090C4F
:103A7000A170069A079B03940C3312B206358DE8A9
:103A80000802029241463B46ADB207F096F8202D5F
:103A900094D10FB0BDE8F08F103900202DE9F74325
:103AA00006460F463C48202106F008FD3A4806F13C
:103AB000680106F0FDFC3848002106F0E3FB3648BB
:103AC00006F0B0FB354B1B78002B5AD0344A937864
:103AD00055780C2B01D90C3BDBB202330124009446
:103AE0002D4856F8233021463AB206F011FC35B97C
:103AF000FA1D009428482B4B214612B246E0092DAE
:103B000009D8BFB2FA1D00942348274B214612B2B0
:103B100006F0FEFB2BE0112D10D1BFB2FA1D1E489E
:103B2000736A0094214612B206F0F2FB07F10E020E
:103B3000009419481D4B214612B227E0132D01D8DD
:103B4000FA1D16E04FF00A09B5FBF9F8BFB208F10B
:103B50001403FA1D0094104856F82330214612B27F
:103B600009FB185506F0D4FB15F0FF0510D007F13E
:103B70000E0202350094084856F82530214612B24C
:103B800004E0012104480A4B00913AB206F0C0FB60
:103B90000020BDE8FE8300BF1039002038F2FF1F6F
:103BA000DCACFF1F1EC1010026C1010001C40100E1
:103BB00015C1010008B5044B597C0B2928BF0B2106
:103BC000FFF76CFF08BD00BFC0ACFF1F012910B597
:103BD000044601DD002304E0002901DB016101E06E
:103BE00001232361E06910B103681B6998472369C9
:103BF00004EB83035869E06110B10368DB68984700
:103C000010BD10B50221044600200DF038FB01461E
:103C10002046FFF7DBFF10BD08B50369C918FFF7A1
:103C2000D5FF08BD37B50C4D2B680093009A83680B
:103C3000D21AC3689A4204460CD908480BF0C4FB58
:103C4000074B30B101221A702B680193019BA360CE
:103C500000E018703EBD00BFB85A0020DCACFF1F6A
:103C600038F2FF1F10B50446FFF7DCFFE06910B122
:103C700003689B689847002010BD002202604260E4
:103C80008260C260026142614FF0814202624FF085
:103C900082424262002280F82820704708B5FF2146
:103CA00000200DF0ECFA11F0A9FC044911F0AEFD72
:103CB0004FF07C5111F0ECFB08BD00BF00007F43CA
:103CC000F8B50023036043608360C3600361436110
:103CD0004FF0814303624FF082434362002380F838
:103CE000283004460D461646FFF7D8FF0746FFF773
:103CF000D5FF4FF07F53E361034BE060A760256081
:103D00006660A3612046F8BDCDCC4C3D0A680260D8
:103D10004A6842608A688260CA68C2600A69026151
:103D20004A6942618A698261CA69C2610A6A026239
:103D30004A6A426291F8282080F82820CA6AC26242
:103D40007047FFFF10B500210446006811F048FEDF
:103D500008B10D4B23606068002111F041FE08B1ED
:103D6000094B636020684FF0844111F04DFE08B1AB
:103D70000023236060684FF0844111F045FE08B1D4
:103D80000023636010BD00BF0000F8410A680260B4
:103D90004A6842608A688260CA68C2600A690261D1
:103DA0004A6942618A698261CA69C2610A6A0262B9
:103DB0004A6A426291F8282080F82820CA6AC262C2
:103DC0007047FFFFFFFFFFFFF0B504468DB00025F1
:103DD0003027214907FB05460A4608366846FFF7A3
:103DE0006FFF013530466946FFF7D0FF0A2DF0D14D
:103DF000002002210DF043FA0028D4BF002001204A
:103E000084F8210200B3154968460A46FFF758FFB7
:103E1000694604F5F470FFF7B9FF012384F82132F5
:103E2000D4F8000210F0AAFF09A3D3E9002310F090
:103E3000F9FF11F0D9FA4FF08343C4F80C32002394
:103E4000C4F80002C4F808320DB0F0BDAFF3008032
:103E5000445EC598AAAAFA3F000070410000F841EC
:103E6000F0B5174D8DB0064600240027204611F00E
:103E7000C5FB002201466846FFF722FF2046029755
:103E800010F06AFF0CA3D3E9002310F0CBFF11F070
:103E9000ABFA0390302000FB0460E3000830694671
:103EA00001348DF8283006950795FFF76FFF202C19
:103EB000DCD10DB0F0BD00BF7B14AE47E17A84BF0A
:103EC00000002041AFF300802DE9F04302218DB0C6
:103ED000054600200DF0D3F90024002814BF074642
:103EE0004FF0FF374FF07E580026C4F11F0011F04D
:103EF00085FB154902466846FFF7E2FE322128207D
:103F0000CDF82C800DF0BBF911F078FB0F4911F0C2
:103F10007DFC8146384611F071FB0146484611F0A0
:103F2000C1FB0290302000FB045063010830694659
:103F3000013403968DF82830FFF728FF082CD4D1E0
:103F40000DB0BDE8F08300BF000070410000C84222
:103F5000F0B58DB00446FCF7CDFA2081FCF7CAFA23
:103F60006081FCF7C7FA0025A081302720200DF0E2
:103F70007BF911F03FFB07FB054601460022143692
:103F80006846FFF79DFE013530466946FFF7FEFEA5
:103F9000282DEBD10DB0F0BD013A072A17D8DFE884
:103FA00002F00407160D161616114B685A1E01E092
:103FB0004B685A1C0B6842600360704791E80C0024
:103FC000013A02E091E80C00013280E80C007047F1
:103FD0002DE9F04704468CB0D4F81C39D0F8180904
:103FE000012B01D0451E02E00DF03EF90546002DE3
:103FF000C0F2098105F1230204EBC20292E803003A
:1040000004F5887383E80300D4F814314FEA4009BB
:104010004FEA43080026FF2302A88DF80A30CDF8A6
:104020001890CDF81C808DF808608DF80960FCF7B9
:10403000A3FD8DF80000C0F30723C0F307408DF8FF
:1040400001308DF80200009A70480CAB0FFA89F12C
:1040500023F81C2D120C8DF816200FFA88F206F0AA
:10406000D7FB042130460DF00AF9A319201893F864
:10407000242990F824190136042E83F8241980F895
:104080002429EED1264604F1040904F5887A96F82D
:10409000248908A851464246FFF77EFF089B002B63
:1040A00068DB099A002A65DB0F2B63DC0F2A61DCD1
:1040B00004EB0210C01800F1100E017C002959D148
:1040C000D4F81411D4F8100104EB01110918087C7C
:1040D00048EA0000087408F1FF319EF80000072943
:1040E0000CD8DFE801F0040A0B060B0B0B080227C3
:1040F00004E0082702E0042700E0012704EB021295
:10410000D318074306A942461F740AA8FFF744FFC5
:10411000FF2303A88DF80C308DF80D308DF80E308C
:10412000FCF72AFD8DF80000C0F30723C0F3074019
:104130008DF801308DF802000098BDF82860BDF8B8
:104140002C500CAB31B223F81C0D000C8DF816006E
:104150002AB22E4806F05CFBD4F818395A1C2333D7
:10416000C4F8182904EBC30408AB93E8030084E8FF
:10417000030048E001364E4589D111E0F11801F500
:10418000887201F58C7103C982E803000135D4F807
:104190001829013A08339542F0DBC4F8182932E0B7
:1041A00005F1230304EBC30393E803000CAB03E91D
:1041B00003000A9F0B9EFF2376007F0004A807964A
:1041C0008DF810308DF811308DF812300697FCF70D
:1041D000D3FC8DF80000C0F30723C0F307408DF82F
:1041E00001308DF80200009A08480CAB39B223F870
:1041F0001C2D120C8DF8162032B206F009FB04EBD0
:10420000C5060023C3E70CB0BDE8F08710390020D5
:1042100070B5D0F81839002B86B004463FDC002575
:1042200002A88DF808508DF809508DF80A50FCF757
:10423000A3FC8DF80000C0F30723C0F307408DF8FE
:1042400002008DF80130009B224806A921F80C3DA0
:104250001B0C8DF80E3006F0F5FC2B46294608E0C5
:1042600050190135102D0174FAD11033B3F5807F48
:1042700002D00025E218F3E728460CF0F5FF0646C9
:1042800028460CF0F1FF0496059006AA12E90300F7
:1042900004F58C7383E803000123C4F81839204621
:1042A000FFF796FED4F81839002B0CDCD4F81C3933
:1042B000D4F8202901339342C4F81C3905DB0023CC
:1042C000C4F81C3901E0002001E04FF47A7006B018
:1042D00070BD00BF103900202DE9F04F8DB00024D3
:1042E000099283468A4604604460DFF80C9173E0CB
:1042F00004EB0A0202EB451202F58052127C002AFE
:1043000064D0A31C0293DFF8F080AB1C661E0593FB
:10431000731C4FD0202E4DD00AEB0603039333B20B
:104320006F1E04930DB9002C40D0781C3ED0202F76
:104330003CD0039B03EB471292F8102CB2B339B276
:10434000049A2C4806F01EFAC0F307228DF81800D4
:10435000C0F307408DF81A008DF81920069A9DF8D1
:104360002410ADF82C205FFA82FCC1EB0C019DF803
:1043700025C0100CC2F30722CCEB02029DF826C028
:104380008DF82E005243C0B2CCEB000C01FB012192
:104390000CFB0C1CC44521DB08D10220CDF804C065
:1043A0000CF062FF0128DDF804C017D0059B01372F
:1043B0009F42B7D1029B01369E42A9D1C8450FDB6F
:1043C00004D102200CF050FF012809D00135202D26
:1043D0008ED10134202C09D0002589E7E046E5E79D
:1043E000CBF80050CBF80440C146EFE758460DB07B
:1043F000BDE8F08F103900203F420F002DE9F04F4B
:10440000464B8DB000240992064603910460446037
:10441000029375E009EB040303F580531B7C002B2A
:1044200066D04FF0000B651E4FF0FF3ACDF804B098
:104430006A1C4BD0202D49D005EB09012AB207F1A7
:10444000FF38002304910592B8F1FF3F39D0B8F14D
:10445000200F36D00499CA1892F8F02B8AB3019A2B
:104460002F480093013201920FFA88F1059A06F065
:1044700089F9C0F307228DF81800C0F307408DF8C2
:104480001A008DF81920069A9DF82410ADF82C20FA
:104490005FFA82FCC1EB0C019DF825C0009B100C5B
:1044A000C2F30722CCEB02029DF826C08DF82E0045
:1044B0005243C0B2CCEB000001FB012100FB001015
:1044C00083442033602B08F10108BDD10AF1010AB1
:1044D0000135BAF1020FABD1019B9BFBF3FB029BB1
:1044E0009B4511DB04D150460CF0BEFE01280BD0D9
:1044F0000137202F09F120098CD10134202C08D05C
:10450000DDF80C90002785E737607460CDF808B0BF
:10451000EEE730460DB0BDE8F08F00BF3F420F0020
:10452000103900202DE9F0410446064600250327F6
:1045300028464FF480610CF0A2FE07FB05F2103212
:10454000A318784314F802C059789A7823181030C9
:1045500033F8108FA6F810809B780135B3742318B8
:104560000336B5F5806F04F800C059709A70DFD13A
:10457000BDE8F0812DE9F04FFF2187B08146002092
:104580000CF07DFE00265FFA80FA354651E004A863
:1045900002A98DF8122000928DF811408DF810803C
:1045A00007F014FD032303FB079302A803F1100B8C
:1045B0000193FCF7E1FA019B10341874A4B2C0F324
:1045C0000723C0F307408BF801308BF80200013756
:1045D000B4F5807F009ADAD105F11007FF2205A813
:1045E00003A98DF8152000928DF816408DF81480DF
:1045F00007F0ECFC032303FB079303A803F1100B64
:104600000193FCF7B9FA019B103C1874C0F307231F
:10461000C0F307408BF801308BF80200A4B20137D9
:10462000009A002CDBD120350836B5F5806FF6B244
:1046300005D006EB0A082F460024FF22A7E707B0A3
:10464000BDE8F08F2DE9F047044604200CF00CFE85
:10465000032800F28D80DFE800F0224D788808FB07
:1046600001FE0EF1100E04EB0E07013190FBF5FA7E
:10467000B1F5806F04F80EA087F8019087F802C0AA
:104680006ED0FF30B042EAD1FF32B24203D092FB8B
:10469000F5F90020E3E7FF33B34207D160E00023E0
:1046A00019460A254FF0030840F6F52693FBF5FC62
:1046B0000022ECE708FB01FE0EF1100E04EB0E07E2
:1046C000013104F80EC0B1F5806F90FBF5FE87F85C
:1046D00001E087F8029043D0FF30B042EAD1FF32C8
:1046E000B24203D092FBF5F90020E3E7FF33B34277
:1046F00007D135E0002319460A254FF0030840F69C
:10470000F52693FBF5FC0022ECE708FB01FE0EF119
:10471000100E04EB0E07013104F80EC0B1F5806FE6
:1047200090FBF5FE87F8019087F802E018D0FF3083
:10473000B042EAD1FF32B24203D092FBF5F9002039
:10474000E3E7FF33B34207D10AE0002319460A2505
:104750004FF0030840F6F52693FBF5FC0022ECE74A
:104760002046FFF7DFFEBDE8F0872046FFF702FF97
:10477000BDE8F0872DE9FF4100F5A05604463569F4
:1047800015BB01A94B488DF804508DF805508DF8E4
:10479000065006F057FA2046FFF754FF02200CF0AF
:1047A00063FD2A4670610CE0C118203381F8102C9B
:1047B00001F58051B3F5806F0A74F5D10135202DD4
:1047C00002D000236019EFE704F5A052032311691A
:1047D00003FB014333F8100F9B78ADF800008DF810
:1047E000023041B920200CF03FFD054620200CF09E
:1047F0003BFD064617E05369009AADF80420120C01
:104800008DF8062013B1012B0BD105E002A821463B
:10481000019AFFF761FD04E002A82146019AFFF723
:10482000EDFD039E029D04EB4517BB1903F5805275
:1048300000214FF00108117483F8108C29B232B2B4
:104840001C486B4605F0E4FF721E4FF0FF31531C0D
:1048500004D1013101320229F9D11BE0202AF8D01C
:10486000D6194FF0FF3303B981B15819B0F1FF3FAA
:104870000CD020280AD006EB431090F810CCBCF1E5
:10488000000F03D100F5805080F810800133022B17
:10489000E9D1DEE704F5A054002023690133B3F524
:1048A000806FAABF2061236140F6B83004B0BDE834
:1048B000F08100BF1039002070B5284898B00C4630
:1048C00009F008F8002843D068462449224601230D
:1048D00008F0AEFF68466E4608F06BFE002831D047
:1048E00008AC20466946012209F008F800256E460A
:1048F00019E0204608F020FE30B9204608F01AFEE4
:10490000FCF71EF800B10135204608F046FE10A85D
:104910006946012208F0F2FF204610A9FDF792FF38
:1049200010A808F001FE204608F043FE0028E0D160
:10493000204608F032FE684608F02FFE204608F0B8
:10494000F3FD01E04FF0FF35684608F0EDFD01E0B2
:104950004FF0FF35284618B070BD00BF4457002007
:10496000F0B5161E99B00C461F4650DB1E9B9E42AA
:104970004DDA684627492246012308F059FF684668
:104980006D4608F016FE002837D008AC2046694670
:10499000012208F0B3FF6D4620E0204608F0FDFD3F
:1049A0001CE0204608F0C6FDFBF7CAFF38B12046E0
:1049B00008F0C0FD01463846013E12F067F9204676
:1049C00008F0EBFD10A86946012208F097FF204689
:1049D00010A9FDF737FF10A808F0A6FD204608F043
:1049E000E8FD08B1002E0CDA204608F0D6FD684636
:1049F00008F0D3FD204608F097FD684608F094FDC6
:104A000005E0204608F098FD0028C6D1C9E719B096
:104A1000F0BD00BF4457002070B52B4B1B788EB003
:104A20000446002B4DD0436B002B4ADD00F11005EE
:104A3000284619B1002108F08DFD33E008F0B9FDDA
:104A400010B1284608F0A9FD636B226B009304F1B6
:104A50003D0602AB2046E168FFF782FFE168304681
:104A600012F014F902A9304611F07CFF32460123FE
:104A700006A8164908F0DCFE06A92846FDF7E2FE66
:104A800006A808F051FD284608F093FDC8B1294654
:104A900006A8FDF7A1FF0E4806A9FDF7D3FE06A85C
:104AA00008F042FD0B48FDF7E5FE20B904F11000C7
:104AB00008F073FD05E00748FDF7F8FE0548FDF72F
:104AC0000BFF0EB070BD00BF56ADFF1F4457002056
:104AD00094B9FF1F34B0FF1F08B50021FFF79CFFFA
:104AE00008BDFFFF30B5334B1B7885B00546CBB909
:104AF00031488DF80C3003A98DF80D308DF80E304B
:104B000006F0A0F82C48012106F0BEF82B4B2A48ED
:104B10001A889B78ADF80C208DF80E30284B0421B4
:104B200000931CE0446B002C1FDA002422488DF80F
:104B30000C4003A98DF80D408DF80E4006F082F868
:104B40001D48214606F0A0F81C4B1A889B78ADF84A
:104B50000C208DF80E301B4B1748009303211822B0
:104B600003AB06F099F81E2421E016D112488DF807
:104B70000C4003A98DF80D408DF80E4006F062F848
:104B80000D48214606F080F80C4B1A889B78ADF84A
:104B90000C208DF80E300C4BDEE70C48FDF7AEFE16
:104BA000431D044603D128460121FFF735FF204667
:104BB00005B030BD56ADFF1F103900205FBE0100AB
:104BC00029C101002FC1010036C1010034B0FF1F0F
:104BD00010B5044600200BF0CBF80B4B616B1A8824
:104BE0008018188000200CF04AFB636B2063984209
:104BF00001DB002302E0002801DA013B23632046A9
:104C00000021FFF709FF10BDD095FF1F08B5036B0A
:104C1000C918436B0163994201DB002302E00029BC
:104C200001DA013B03630021FFF7F6FE08BD10B572
:104C300084691C19944201DB002206E0002C01DB90
:104C4000846103E0013A00E0D2188261826951F880
:104C50002240647A002CF7D010BDFFFF70B52A4BBC
:104C60001B788EB0002B4CD000F5B474204608F0B1
:104C7000A0FC10B1204608F090FC244B6A4603F1DA
:104C8000100618685968154603C50833B3422A460A
:104C9000F7D118681B7928602B711D48694608F008
:104CA00019FE70B36A46012306A8194908F0C0FD31
:104CB00006A92046FDF7C6FD06A808F035FC2046EB
:104CC00008F077FCE8B1204608F036FC00B10EE0B1
:104CD000214606A8FDF780FE06A90E48FDF7B2FDA5
:104CE00006A808F021FC0C48FDF7C4FD18B92046C1
:104CF00008F053FC05E00848FDF7D8FD0648FDF72D
:104D0000EBFD0EB070BD00BF56ADFF1F3EC10100F0
:104D10004457002094B9FF1F34B0FF1F1FB5002374
:104D2000044602A88DF808308DF809308DF80A3055
:104D3000FBF722FF8DF80000C0F30723C0F3074004
:104D40008DF802008DF80130009B064804A921F877
:104D5000043D1B0C8DF80E3005F074FF2046FFF764
:104D60007DFF1FBD1039002038B500F5B47405462D
:104D7000204608F01EFC50B9204608F0FBFB20B18D
:104D800005E02846FFF76AFF07E01E2405E0044817
:104D9000FDF7B4FD421D0446F3D0204638BD00BFE8
:104DA00034B0FF1FF8B51A4805F0C0F90646184898
:104DB00005F0B6F90746164805F0EEFF05460BF07C
:104DC00087FFC92822D10BF083FFDA281ED10BF010
:104DD0007FFF04460BF07CFF7E43032740EA042458
:104DE0007E43B44212DC0B4829462246FBF768FE9C
:104DF000A0420BD10BF06CFF362807D104480121EB
:104E000005F0ACFF0348AC21FBF753FEF8BD00BF33
:104E100010390020B85B00202DE9F0471E4805F04E
:104E200085F9602747431C4805F0B6FF4FF0AA09F3
:104E300080464FF4FF7A0BF04BFF9C282AD10BF0F1
:104E400047FFDA2826D10BF043FF05460BF040FF61
:104E500040EA05250BF03CFFC4B20BF039FF09FB1B
:104E60000453BB42C6B215DC0C480AFB04812A4637
:104E7000FBF726FEA8420DD10BF02AFF362809D1F8
:104E8000B442D8D30448012105F068FF0348AC219F
:104E9000FBF70FFEBDE8F08710390020B85B00205B
:104EA00010B586B004460BF059FF204B00281B6854
:104EB00013DD0493049BA3600BF032FF9C2805D004
:104EC000C92807D12046FFF76DFF2BE02046FFF7EA
:104ED000A3FF27E00BF0FCFE24E00593059AA368EE
:104EE000D31AB3F57A7F1DD9002411488DF80C40F0
:104EF00003A98DF80D408DF80E4005F0A3FE0C4877
:104F0000214605F0C1FE0B4B09481A889B78ADF885
:104F10000C208DF80E30084B03210093182203ABB0
:104F200005F0BAFE0A2006B010BD00BFB85A002036
:104F3000103900205FBE010053C101001FB51E489B
:104F400005F070F901221D491B4805F035FA0024CF
:104F500002A88DF808408DF809408DF80A40FBF74B
:104F60000BFE8DF80000C0F30723C0F307408DF857
:104F700002008DF80130009B0F4804A921F8043D80
:104F80001B0C8DF80E3005F05DFE01210A4805F07E
:104F9000E5FE094805F046F90748214605F04AF9BB
:104FA000FCF7E6FA0A2806D0062804D04FF4FA7077
:104FB0000BF0C0F9F4E71FBD10390020A2C00100BA
:104FC000054B064A1B780020815C994203D20130D0
:104FD0000528F9D1002070479D95FF1F9895FF1F68
:104FE00070B590F82D3088B004463BB1A34B1B68D8
:104FF0000593059A036B9A4280F0BF8194F839308B
:105000003BB19E4B1B680693069AE36B9A4280F075
:10501000BB8194F845303BB1984B1B680793079AC6
:10502000A36C9A4280F0B781A369E26993420DD1E3
:1050300094F8502052B994F82C203AB994F83820BA
:1050400022B994F84420002A00F084810025E3610D
:1050500084F850508A4805F0E5F894F838301BB9C8
:1050600094F83930002B31D00521854884F8385028
:1050700005F008F98248834905F01AFA2021804892
:1050800005F01CFA804B7E48197805F061F8FFF7AF
:1050900097FF10F0B3FA4FF07A5110F003FB7B4901
:1050A00010F000FB10F0C4FC021E04DC784B1B78EF
:1050B000002B18BF0A22774904A811F007FC01232E
:1050C00000936F4804210B2204AB20E094F8443095
:1050D00013B994F84530EBB10025694884F8445081
:1050E000294605F0CFF86648664905F0E1F96448BD
:1050F000202105F0E3F9644B6148197805F028F8A0
:1051000001230093644B5E489B6829460E2205F0FC
:10511000FFF808E194F82C301BB994F82D30002BDF
:105120004DD00025564884F82C50294605F0AAF8A1
:105130005348544905F0BCF92021514805F0BEF907
:10514000514B4F48197805F003F8666A012E15D0C7
:1051500003D3022E40F0E78020E0504A48480192F5
:105160000723012600930C210A22029605F0EEF88F
:10517000009643484A4B29461222C8E7494A40480C
:105180000192072300930C210A22029605F0DEF813
:1051900000963B48444B29461222B8E7414A38481A
:1051A00001920723012600930C210A22029605F0A2
:1051B000CDF8009632483D4B29461222A7E794F8D5
:1051C0002060F6B163682E481D68052105F04EF990
:1051D0002B4894F8511005F04FF92948052105F0A6
:1051E0005FF92748274905F063F92548216805F04C
:1051F00065F9254B2248197804F0AAFF2048294672
:105200007AE094F82230002B7BD0294D1C4895F889
:105210005D1005F02BF91A4895F85C1005F02CF993
:1052200005F14C0023490CF0FBF8F0B905F14C00F6
:1052300021490CF0F5F8D0B905F14C001F490CF0EC
:10524000EFF8B0B905F14C001D490CF0E9F890B940
:1052500005F14C001B490CF0E3F8B8BB1A4905F105
:105260004C000CF0DDF8052131E031462FE0012142
:105270002DE002212BE0032129E000BFB85A0020D5
:1052800010390020BCF2FF1F8295FF1F0000C842AA
:105290009D95FF1F5BC10100A8ACFF1F7B95FF1F01
:1052A00061C101007495FF1F69C1010072C1010055
:1052B00048F2FF1F7AC1010082C101008AC10100CA
:1052C00093C101009CC10100A7C101000421364D1A
:1052D000364805F0E5F8354805F13E0105F0E8F8F7
:1052E0003248696C05F0EAF8314B3048197804F01F
:1052F0002FFF2E4805F10C014FF0FF3205F05CF84E
:1053000011E094F8213029482A4901222BB105F0F7
:1053100053F8274B2548197803E005F04DF823484A
:10532000FF2104F015FF94F8203073B994F82D3064
:105330005BB994F8393043B994F845302BB994F8F7
:10534000213013B11C48FEF78DFC1848002104F0F1
:1053500071FF27E094F8203023BB94F82D300BBB6D
:1053600094F83930F3B994F84530DBB994F821302A
:10537000C3B10E4804F056FFE4E7002380F82D3057
:10538000012380F8503039E6002384F839300123B6
:1053900084F850303DE6002384F84530012384F83A
:1053A000503041E608B070BD48F2FF1F10390020B0
:1053B0008295FF1FA2C00100EC380020054B064A71
:1053C0001B780020815C994203D201300528F9D175
:1053D000002070478295FF1F6895FF1F064B074A04
:1053E00019781078814201D2187070471279914271
:1053F00088BF1A70704700BF9D95FF1F9895FF1FCB
:1054000010B50446FFF7DCFD001903D40428C8BF1B
:10541000002000E00420064B064C1B5C2370FFF7C5
:10542000DDFF05482178BDE8104004F085BE00BFCF
:105430009895FF1F9D95FF1F10390020064B074AC6
:1054400019781078814201D2187070471279914210
:1054500088BF1A70704700BF8295FF1F6895FF1FB5
:1054600010B50F4B0F491A7800235C5C944203D2AD
:105470000133052BF9D10023181803D40428C8BF21
:10548000002000E00420074B054C1B5C2370FFF755
:10549000D5FF05482178BDE8104004F059BE00BF93
:1054A0008295FF1F6895FF1F10390020F0B51E463A
:1054B000204B1B788DB004460D461746002B35D087
:1054C0001D48214608F006FA18B91B48214608F085
:1054D0000BFA04AC204618492A46012308F0A8F923
:1054E000204608F066F8F0B1002168460BF012FF84
:1054F000204607F0C4FF0126C1B26D4607E06846AA
:105500000BF081FF204607F0BAFF0136C1B2BE4260
:10551000F5DD204608F041F868460CF018F806461C
:1055200068460BF0B6FE04A807F0FEFF30460DB04B
:10553000F0BD00BF56ADFF1F4457002038B5022212
:105540000B232449244D04462448FFF7AFFF0B23C7
:105550006874022221482249FFF7A8FF6B7C0030C3
:1055600018BF0120172B687501D917236B7401220E
:1055700000231A481B49FFF799FF012801DC20612D
:1055800001E001232361236820465B6900219847DD
:10559000154912480322FF23FFF788FF134984F8B7
:1055A00020000322FF230D48FFF780FF104984F8F5
:1055B00021000322FF230948FFF778FF064B94F8E8
:1055C000212094F8201084F822009974DA74187558
:1055D00038BD00BFBCC10100C0ACFF1FB3C101009A
:1055E000CFC10100E4C10100F9C101000CC20100FA
:1055F0001FC2010070B5204C2049214E214D0322CD
:10560000FF232046FFF752FF3070FFF7E7FE2846E2
:1056100031781D4E04F090FD03223F231B492046A4
:10562000FFF744FF3070FFF709FF28463178184D27
:1056300004F08EFD0322002320461649FFF736FFB3
:1056400003222870002320461349FFF72FFF03226F
:105650006870FF2320461149FFF728FF0A23A8702E
:105660000F4920460322FFF721FF0E4B18600E481A
:10567000FFF764FF70BD00BFB3C1010032C201007B
:105680009D95FF1F103900208295FF1F47C2010022
:10569000BCF2FF1F5CC201006EC2010080C20100AB
:1056A00092C201007095FF1FEC38002013B54648E8
:1056B00007F0B0F9454805F02DFE454B43481978F1
:1056C00004F03AFD4148012104F0EAFC3F4805217D
:1056D00005F0DAFA3D48082104F0FAFE3B481921AA
:1056E00004F0ECFE3948502104F0C6FE3748002192
:1056F00004F0BCFE374B1B783BB1FDF759FE334835
:105700003549012204F058FE09E030488DF8043094
:1057100001A98DF805308DF8063005F093FA0121C6
:105720002A4805F01BFB0F2001210AF0C9FD0F21BB
:105730002A4807F0E9FF2A4B003018BF01201870F3
:10574000D0B1284C28492046E160FFF7B5F8002386
:1057500023636063254C264920462160FDF7FAF952
:10576000244960712448FBF776F923486179FBF7F7
:105770008AF94FF0FF33A36020480168A0F58150FB
:105780000131FCF791F81E4B0422122000211A600F
:105790000AF096FD132000210AF092FD194A1A48DA
:1057A00040F2032313605360FEF73CFA0C4B1B7866
:1057B0000BB1FFF71FFF074B1B7823B1034804F021
:1057C000F5FD0028FAD11CBD55ADFF1F1039002092
:1057D0009D95FF1F54ADFF1FA7C201004457002035
:1057E00056ADFF1FF8AEFF1FBCC2010048F2FF1FFD
:1057F000C3C20100CEC20100B85B002048ACFF1F4D
:10580000A8F2FF1F00A00440EC38002070B5154B33
:105810001B7888B005460C46164603B31248294645
:1058200008F058F818B91048294608F05DF868469D
:105830000D492246522307F0FBFF0C482146FBF797
:1058400018F9684607F0B5FE30B1684631460BF0EE
:10585000C1FC684607F0A1FE684607F065FE08B087
:1058600070BD00BF56ADFF1F44570020B85B00203D
:10587000024B034803499A78FFF7C8BFBCF2FF1FE9
:10588000B3C1010080C20100024B034803495A78AA
:10589000FFF7BCBFBCF2FF1FB3C101006EC2010025
:1058A000024B034803491A78FFF7B0BFBCF2FF1F51
:1058B000B3C101005CC2010008B5FFF7F1FFFFF7BB
:1058C000E3FFBDE80840FFF7D3BFFFFF2DE9F0413C
:1058D00004468AB0236820469B68984700254FEA13
:1058E000C5080F270026102E4FF0FF03C8BF8DF804
:1058F000153006A9C8BFC7F10D0305A8D8BF8DF89C
:1059000015708DF816308DF8148006F072FB06A81D
:10591000FBF732F98DF80800C0F30723C0F3074006
:105920008DF80A008DF80930029BC048ADF8203090
:105930001B0C8DF8223029B208AB32B204F068FF9C
:10594000A3689D420ED1E3689E420BD19DF81830AA
:105950008DF81C309DF819308DF81D309DF81A30E7
:105960008DF81E3001360F37202EFFB2BBD1013526
:105970001F2DB4D1FF260025002306A905A88DF808
:1059800014308DF815308DF8166006F032FB06A83D
:10599000FBF7F2F88DF80800C0F30723C0F30740C7
:1059A0008DF80A008DF80930029BA048ADF8203030
:1059B0001B0C8DF822301F212AB208AB04F028FFFF
:1059C000A7681F2F0ED1E3689D420BD19DF81830B8
:1059D0008DF81C309DF819308DF81D309DF81A3067
:1059E0008DF81E300135063E202DF6B2C4D1E26896
:1059F00006A8D30090468DF818308DF819308DF830
:105A00001A30FBF7B9F88DF80800C0F30723C0F38C
:105A100007408DF80A008DF809300AAD029B8348D3
:105A200025F8083D08AEBFB21B0C06F8023F0FFA7E
:105A300088F2391FBB1E8DE8240009B21BB204F0A6
:105A4000D7FF06A8FBF798F88DF80800C0F30723E6
:105A5000C0F307408DF80A008DF80930029B2789B2
:105A6000B4F80C80ADF820301B0C0FFA88F23370BC
:105A7000391DBB1C8DE8240009B21BB26B4804F031
:105A8000B7FF06A8FBF778F88DF80800C0F30723E6
:105A9000C0F307408DF80A00A7898DF80930029BF2
:105AA000B4F80880ADF820303A1F023F0FFA88F1B1
:105AB0001B0C3FB2337012B20B4600975B48019546
:105AC00004F096FF06A8FBF757F88DF80800C0F31E
:105AD0000723C0F307408DF80A00A7898DF8093025
