:1000000000800020BD0100005D0201005D020100D2
:100010005D0201005D0201005D0201002902010094
:100020002902010029020100290201005D020100EC
:100030005D020100290201005D02010019020100B8
:100040005D0201005D0201005D0201005D02010030
:100050005D0201005D0201005D0201005D02010020
:100060005D0201005D0201005D0201005D02010010
:100070005D0201005D0201005D0201005D02010000
:100080005D0201005D0201005D0201005D020100F0
:100090005D0201005D0201005D0201005D020100E0
:1000A000D5F300005D0201005D0201005D02010068
:1000B0005D0201005D0201005D0201005D020100C0
:1000C0005D0201005D0201005D0201005D020100B0
:1000D0005D0201005D0201005D0201005D020100A0
:1000E0005D0201005D0201005D0201005D02010090
:1000F0005D020100051D01005D020100812101007A
:100100005D020100312501005D0201005D02010078
:100110005D0201005D0201005D0201005D0201005F
:100120005D0201005D0201005D0201005D0201004F
:100130005D0201005D0201005D0201005D0201003F
:100140005D02010039CE00005D0201005D02010088
:100150005D0201005D0201005D0201005D0201001F
:100160005D020100490901005D0201005D0201001C
:100170005D0201005D0201005D0201005D020100FF
:100180005D0201005D0201005D0201005D020100EF
:100190005D0201005D0201005D020100CD0301006E
:1001A0001D040100A504010061050100E505010031
:1001B0005D0201005D0201005D020100544B4CF242
:1001C000205210B51A804DF628121A8000BF00BFC9
:1001D00010F048F84F4B4FF010621A604E4A9A6088
:1001E0004E4ADA604E4B1A6812F4807204D14D49BF
:1001F0000A604FF4A8521A604B4B1A7802F00802BA
:10020000D2B21AB11A7842F008021A70474B484825
:10021000484C2A221A700023474A02E01959995083
:10022000043399188142F9D3444B454A002101E037
:1002300043F8041B9342FBD34249434800231A5816
:100240005A500433B3F5DE7FF9D1404B404A802148
:1002500003F8011B9342FBD13A4A3E4B1A603E4BD6
:100260000A221A703D4B24221A70A02203F8012C96
:100270003B4A137803F00203DBB2002BF9D0384A73
:10028000137803F01003DBB2002BF9D1344A137852
:1002900003F00C03082BFAD1324B03221A704022D0
:1002A0005A702F4A137803F02003DBB2002BF9D0E9
:1002B0002B4A137803F04003DBB2002BF9D02A4B12
:1002C0002A4A1A6002225A60294B20221A70244AB4
:1002D000137803F00C030C2BFAD1264A264B1A6034
:1002E000264B274A1A60072243F8042C62B610F006
:1002F0001DFA0C4B1B68DC0702D5224810F08AF966
:1003000015F0E2FD0FF0B4FF11F0CAF8FEE700BFF0
:100310000E20054030800440823F04000100002B85
:1003200010D0034014D0034002D0074000E0074043
:10033000089CFF1F940E02006095FF1F089CFF1F82
:10034000686300200090FF1F0000000000E400E050
:100350005FE400E008ED00E0005006400140064088
:10036000064006400440064044800440000003016B
:1003700000400640C01005000480044014E000E086
:10038000FF76010065B2EC54FFFFFFFFFFFFFFFFA8
:10039000FFFFFFFFFFFFFFFFFFFFFFFFFFFFFFFF6D
:1003A000FFFFFFFFFFFFFFFFFFFFFFFFFFFFFFFF5D
:1003B000FFFFFFFFFFFFFFFFFFFFFFFFFFFFFFFF4D
:1003C000FFFFFFFFFFFFFFFFFFFFFFFFFFFFFFFF3D
:1003D000FFFFFFFFFFFFFFFFFFFFFFFFFFFFFFFF2D
:1003E000FFFFFFFFFFFFFFFFFFFFFFFFFFFFFFFF1D
:1003F000FFFFFFFFFFFFFFFFFFFFFFFFFFFFFFFF0D
:10040000FFFFFFFFFFFFFFFFFFFFFFFFFEFFFFFFFD
:1004100008B549F60840074BC1F6FF701B1A062BBA
:1004200000D808BD40F20003C0F20003002BF8D052
:100430009847F6E70B9CFF1F08B549F6084049F6B8
:100440000843C1F6FF70C1F6FF731B1A9B1003EB44
:10045000D373591000D108BD40F20002C0F200026F
:10046000002AF8D09047F6E710B549F60844C1F6DF
:10047000FF74237873B9FFF7CBFF40F20003C0F29B
:1004800000032BB140F69460C0F20200AFF300808D
:100490000123237010BD00BF08B540F20003C0F275
:1004A00000034BB140F6946049F60C41C0F20200E3
:1004B000C1F6FF71AFF3008049F60840C1F6FF7046
:1004C00003682BB140F20003C0F2000303B1984768
:1004D000BDE80840B0E700BF064B1A8840F60500AB
:1004E000504300F55850193080B2188000EB1020AE
:1004F000C0B27047D095FF1F054B1A8840F6050023
:10050000504300F55850193080B21880704700BF32
:10051000D095FF1F00F4804292B210B5C0F3CA0319
:100520001AB1C3F5FF6307339BB21A0A074C084997
:10053000895C34F81220C3F3460303FB01239BB20A
:10054000020454BF1846584200B210BD78C30100DF
:1005500070C3010000F0400310B503F0FF010BB1C0
:10056000C34300E0034603F03F0203F00F0301B171
:1005700001330A49121152008C188A5C647814FB0A
:1005800003F302EB23130106DBB201D4D8B201E07E
:100590005842C0B280F0800010BD00BF68C30100A7
:1005A000010601D5C043C0B24000C0B2C3B21A06B2
:1005B00048BF80F0FF00421CD2B210FB02F0C0091D
:1005C00000F0FE001B0648BF80F0FF0070470020CF
:1005D0007047002070477047704701207047012026
:1005E000704770477047002383607047002310B541
:1005F0000372C82380F82A340446FFF77DFFE060C9
:10060000FFF77AFF2061FFF777FF41F27073A36174
:10061000E3616061FFF760FF2084FFF75DFF6084A6
:10062000FFF75AFFA084FFF757FFE084FFF754FF5E
:10063000208510BD0369C3614369036200238360A1
:100640007047FFFF13B50246C16E0023012401E08D
:100650001460013314328B42FADB174B1B683724CA
:100660000193019AC46103242A230463FF241F21F8
:10067000C260836002620023426380F8404082646B
:100680004724C265592201764376036180F82C1015
:1006900080F82D30436280F841308363446480F8F1
:1006A000541080F85530C364826580F8681080F873
:1006B000693003661CBD00BF645F002000F59340F5
:1006C00008B5006D10B103681B69984708BD00F5B7
:1006D000934008B5006D10B10368DB68984708BD0A
:1006E00000F5934310B5DA6C89182129044601DD21
:1006F000002204E0002901DBD96401E02122DA6450
:10070000186D10B103681B69984704F59343DA6CC0
:1007100002F5935204EB8204606D186510B1036812
:10072000DB68984710BD00F5934008B5006D03687D
:100730009B68984708BDFFFF044B10B50446036053
:1007400000F5B4700DF0CCF8204610BD90BC01004F
:10075000044A10B5044640F8102B0DF0C1F82046AD
:1007600010BD00BFB0BC010010B5044600F5166016
:100770000DF0B6F8204610BD10B504467C3010F0E0
:100780006EFF204610BD10B500F5B47420460DF084
:10079000ECF820B12046BDE810400DF0DAB810BDED
:1007A00010B500F1100420460DF0DFF820B120460E
:1007B000BDE810400DF0CDB810BDFFFF37B50546C0
:1007C00005F5A055002406488DF8044001A98DF8D0
:1007D00005408DF806400AF0E9FA2C613EBD00BFE5
:1007E000883D002037B50546002406488DF80440B2
:1007F00001A98DF805408DF806400AF0D7FAC5F832
:1008000018493EBD883D002013B5002405488DF8E9
:10081000044001A98DF805408DF806400AF0C6FA9B
:1008200020461CBD883D00202DE9F743804600246A
:100830001B4F4FEAC4090F260025102D4FF0FF0370
:10084000C8BF8DF8013000A8C8BFC6F10D0301A9CB
:10085000D8BF8DF801608DF802308DF800900BF054
:1008600084FD9DF804203B789A420ED19DF8052026
:100870007B789A4209D19DF80620BB789A4204D130
:10088000C8F80840C8F80C5007E001350F36202D95
:10089000F6B2D2D101341F2CCAD1BDE8FE8300BF0D
:1008A000F4F2FF1F2DE9F743804600241C4F4FEA66
:1008B000C4090F260025102D4FF0FF03C8BF8DF887
:1008C000013000A8C8BFC6F10D0301A9D8BF8DF83B
:1008D00001608DF802308DF800900BF046FD9DF818
:1008E000042097F820309A4210D19DF8052097F8FF
:1008F00021309A420AD19DF8062097F822309A4278
:1009000004D1C8F80840C8F80C5007E001350F368C
:10091000202DF6B2CFD101341F2CC7D1BDE8FE8304
:10092000643D002010B504210446002010F08DFE27
:100930000321A073012010F088FEE06110BD37B5DF
:1009400001F5815104460D79053100950BF009FC44
:1009500020463EBD10B503785F2B88B0014623D0FA
:100960007E2B21D02E2B1FD004A810F0B9FE04A896
:1009700010F0C4FF0146684610F0EAFE04A810F02B
:100980006EFE04A80A4910F0ABFE04A9684610F0F8
:1009900061FF044604A810F062FE601E4442444118
:1009A000684610F05CFE00E00024204608B010BD50
:1009B00088C3010010B1012819D10AE00C4B9A78C4
:1009C0008918C9B21829997088BF987008480EF024
:1009D00083BE074B5A788918C9B23B2901D9587090
:1009E000F4E759700029F1D13B225A70EEE77047C5
:1009F000E4ACFF1F0122074B027018680918002998
:100A000001DC1A60704740F2E7329142D4BF1960AE
:100A10001A6070477095FF1F0A4B10B504460360BB
:100A2000094B00F5D350C36100F58E7010F017FE2E
:100A300004F5D250054B243040F8103C10F00FFE66
:100A4000204610BDD8BC010030C3010050C30100D6
:100A5000FF2837B50C46154601D8000280B2094B75
:100A60001B680193019B4FF48C7253435843000E53
:100A7000FFF770FD2D1BEDB210FB05F004EB2020FD
:100A8000C0B23EBD645F002038B5044608460D463E
:100A90000FF020FC236802465B68204629469847F1
:100AA00038BD08B5FFF7F0FF08BD38B5044610F0B3
:100AB00010FD0546204610F02DFD401938BD38B513
:100AC0000446FFF7E1FF0546204610F023FD2818F5
:100AD00038BD38B50A220023044610F029FD05462A
:100AE000204610F017FD281838BD38B5044610F020
:100AF00057FD0546204610F00DFD281838BD08B5F5
:100B00000368C9B21B68984708BDFFFF2DE9F7438A
:100B10000E4B16461A680092009F0546894600242F
:100B2000984609EB0400311B10F00CFB2418B4426A
:100B300009D2D8F80030AA680193019BDB1B9342CD
:100B4000EFD301232B732046BDE8FE83645F0020B2
:100B500010B502780C7882FA54F202704C78427820
:100B600082FA54F242708978827882FA51F2827065
:100B700010BD03780A1C18BF01221BB113FB01F33F
:100B800002EB1323037043781BB113FB01F302EB59
:100B90001323437083781BB113FB01F302EB132380
:100BA00083707047027812FB01F2121202704278D1
:100BB00012FB01F212124270827812FB01F109124B
:100BC000817070470278002362F30703427862F372
:100BD0000F23827862F3174382B0184602B0704741
:100BE0001FB5002402A88DF808408DF809408DF843
:100BF0000A40FFF7E7FF8DF80000C0F30723C0F3BA
:100C000007408DF802008DF80130009B054804A9CB
:100C100021F8043D1B0C8DF80E300AF0C7F8204671
:100C200004B010BD883D00201FB5002402A88DF837
:100C300008408DF809408DF80A40FFF7C3FF8DF892
:100C40000000C0F30723C0F307408DF802008DF8C1
:100C50000130009B054804A921F8043D1B0C8DF8C8
:100C60000E300AF0A3F8204604B010BD883D0020E5
:100C70001FB5002402A88DF808408DF809408DF8B2
:100C80000A40FFF79FFF8DF80000C0F30723C0F371
:100C900007408DF802008DF80130009B054804A93B
:100CA00021F8043D1B0C8DF80E300AF07FF8204629
:100CB00004B010BD883D00201FB5002402A88DF8A7
:100CC00008408DF809408DF80A40FFF77BFF8DF84A
:100CD0000000C0F30723C0F307408DF802008DF831
:100CE0000130009B054804A921F8043D1B0C8DF838
:100CF0000E300AF05BF8204604B010BD883D00209D
:100D00001FB5002402A88DF808408DF809408DF821
:100D10000A40FFF757FF8DF80000C0F30723C0F328
:100D200007408DF802008DF80130009B054804A9AA
:100D300021F8043D1B0C8DF80E300AF037F82046E0
:100D400004B010BD883D00201FB5002402A88DF816
:100D500008408DF809408DF80A40FFF733FF8DF801
:100D60000000C0F30723C0F307408DF802008DF8A0
:100D70000130009B054804A921F8043D1B0C8DF8A7
:100D80000E300AF013F8204604B010BD883D002054
:100D90001FB5002402A88DF808408DF809408DF891
:100DA0000A40FFF70FFF8DF80000C0F30723C0F3E0
:100DB00007408DF802008DF80130009B054804A91A
:100DC00021F8043D1B0C8DF80E3009F0EFFF204692
:100DD00004B010BD883D00201FB5002402A88DF886
:100DE00008408DF809408DF80A40FFF7EBFE8DF8BA
:100DF0000000C0F30723C0F307408DF802008DF810
:100E00000130009B054804A921F8043D1B0C8DF816
:100E10000E3009F0CBFF204604B010BD883D002005
:100E20002DE9F04F8DB00024064607A88DF81C4030
:100E30008DF81D408DF81E40FFF7C4FE8DF81000A0
:100E4000C0F30723C0F307408DF812008DF811306E
:100E5000049B6D480CA921F8043D1B0C8DF82E3025
:100E600009F0A4FF736901330AD1202010F0E2FBDE
:100E7000F060202010F0DEFBAA233061B3607461C3
:100E8000D6F814A0BAF1000F21D16049327AB589A1
:100E9000348AFF2308A8FFF752FD08A8FFF792FE47
:100EA0008DF81000C0F30723C0F307408DF8113010
:100EB0008DF812000CAB049823F8040D000C8DF88B
:100EC0002E000093504829B222B2534689E0B369FC
:100ED0009A4580F28B80B6F80CC0F069CDF80CC052
:100EE00014F034F90446AAF102000D4614F01CF97E
:100EF00002460B4620462946377AB6F810B011F064
:100F000091FD3FA3D3E9002314F074F914F034FCED
:100F10003A46C3B23D4909A8FFF711FD09A8FFF7FA
:100F200051FE8DF81000C0F30723C0F307408DF881
:100F300012008DF81130049B33480CAF0FFA8BF27E
:100F400027F8043DDDF80CC000971B0C8DF82E30FF
:100F50000FFA8CF11FFA8AF309F055FED6F81480C7
:100F6000B8F1030F3FDDF069B6F80C90B6F810B099
:100F700096F808A014F0EAF80446A8F102000D461D
:100F800014F0D2F802460B462046294611F04AFDDD
:100F90001BA3D3E9002314F02DF914F0EDFB1B493A
:100FA000C3B252460AA8FFF7CAFC0AA8FFF70AFE16
:100FB000C0F307238DF81000C0F307408DF812002E
:100FC0008DF81130049B1048ADF82C301B0C8DF8B7
:100FD0002E30A8F1030300970FFA89F10FFA8BF274
:100FE0009BB209F010FE7369013301E04FF0FF334B
:100FF000736132200DB0BDE8F08F00BFAFF3008009
:101000000000000000E06F40883D0020309CFF1F82
:101010002DE9F04F8DB0002608A88DF820608DF8DE
:1010200021608DF82260FFF7CDFD8DF81800C0F328
:101030000723C0F307408DF81A008DF81930069B7E
:1010400048480CAC012524F8043D1B0C21468DF8C2
:101050002E3009F0ABFEFF21304610F0F6FA42497F
:10106000C2B2FF2309A8FFF76AFC67E00020022153
:101070008DF828708DF829708DF82A7010F0E5FA37
:1010800001280BD19DF824308DF828309DF82530AB
:101090008DF829309DF826308DF82A300AA8FFF700
:1010A00091FD8DF81800C0F30723C0F307408DF8B9
:1010B0001A008DF81930069BDDF80CE023800AF148
:1010C00004091B0C0FFA8AF80FFA89F9A370254856
:1010D000CDF8009001940FFA8BF142460FFA8EF38F
:1010E00009F044FE022E1DD00AA8FFF76BFD8DF813
:1010F0001800C0F30723C0F307408DF81A008DF8DD
:101100001930069BDDF810E023801B0CA370059BB3
:10111000CDF8009019B20194124842460FFA8EF3AE
:1011200009F024FE0AF1060C1FFA8CFABAF11F0F1F
:101130009CD101360635032EADB20ED0C5F11A038F
:1011400005F1040A0593C5F11E03CDF80CA0AB46CA
:1011500004934FF0010A002788E74FF4FA600DB0BE
:10116000BDE8F08F883D0020309CFF1F08B530227D
:1011700015F09EFA08BDF0B50023032751F823208F
:1011800007FB03F54419160C01334655150A102BBD
:101190006570A270F2D1F0BD7FB5002307480293BD
:1011A00069460CF07FFA28B114200FF0A9FA034821
:1011B0000BF0C2FE029807B000BD00BF5DADFF1F7F
:1011C00010B5FFF7E9FF044660B1FFF7E5FFA04265
:1011D000FBD0054821460A22002310F0A9F9024855
:1011E00010F098F9204610BD6460002030B587B03B
:1011F0000546FFF7E5FF214A2149034678B9126801
:10120000019201980A68811A1E4A1268914201D21D
:10121000002030E01C4A10680028F9D02AE010684D
:101220000290029C0C60591C184903D06FF00040DA
:10123000834217D1114A1368039303980B68C11AAC
:10124000A94205D3124B01221A700F4B186812E005
:10125000002BDDD112680E4904920B700B4A0499E1
:101260001160D5E712680592059A0A60084A0020C5
:101270001070054A136007B030BD00BF645F0020E6
:10128000E4F2FF1F6495FF1FE0ACFF1FECACFF1FF3
:101290005FADFF1F034A00231360034A1370034A24
:1012A00013607047E0ACFF1F5FADFF1FECACFF1F8A
:1012B0003B4B98425CD029D83A4B984260D012D828
:1012C000394B984250D006D8A3F57F6398425FD03F
:1012D00003F5FF6343E0354B98425BD003F5FF53C2
:1012E000984259D152E0324B98424DD006D8A3F5DE
:1012F000FF5398423AD003F57F6330E02D4B98427C
:1013000040D003F5FF63984246D137E02A4B98421C
:1013100036D013D8294B984240D007D8284B984252
:1013200020D003F57F63984236D137E0254B9842B1
:101330001AD003F57F6398422ED119E0224B9842D0
:1013400010D007D8214B984218D003F5FF6398427C
:1013500022D10BE01E4B98420CD003F5FF5398426C
:101360001AD109E00120704703207047042070471C
:1013700005207047062070470720704708207047F7
:10138000092070470A2070470B2070470C207047D7
:101390000D2070470E2070470020704702207047D4
:1013A0006F90FD00B748FD00EF10FD00DF20FD004D
:1013B0008F70FD007F80FD00A758EF10FF00EF1039
:1013C0005FA0FD00EF10EF105FA0EF108778EF1027
:1013D00027D8EF1008B5FFF7F3FEBDE80840FFF788
:1013E00067BF08B5FFF702FFBDE80840FFF760BF21
:1013F00070B5ACB00646FFF76FF8FF24002510A9C2
:101400008DF8000068468DF801408DF802500AF012
:10141000ACFFFFF761F811A98DF8040001A88DF861
:1014200005408DF806500AF0A0FFFFF755F812A905
:101430008DF8080002A88DF809408DF80A400AF0DE
:1014400094FFFFF749F813A98DF80C0003A88DF855
:101450000D408DF80E400AF088FFFFF73DF814A903
:101460008DF8100004A88DF811408DF812500AF084
:101470007CFFFFF731F815A98DF8140005A88DF849
:1014800015408DF816400AF070FFFFF725F816A9F1
:101490008DF8180006A88DF819408DF81A400AF04A
:1014A00064FFFFF719F817A98DF81C0007A88DF83D
:1014B0001D408DF81E500AF058FFFFF70DF818A9CF
:1014C0008DF8200008A88DF821408DF822500AF0F0
:1014D0004CFFFFF701F819A98DF8240009A88DF831
:1014E00025408DF826400AF040FFFEF7F5FF1AA9C7
:1014F0008DF828000AA88DF829408DF82A400AF0B6
:1015000034FFFEF7E9FF1BA98DF82C000BA88DF81E
:101510002D408DF82E500AF028FFFEF7DDFF1CA9A4
:101520008DF830000CA88DF831408DF832400AF06B
:101530001CFFFEF7D1FF1DA98DF834000DA88DF812
:1015400035408DF836400AF010FFFEF7C5FF1EA9A2
:101550008DF838000EA88DF839408DF83A500AF011
:1015600004FFFEF7B9FF1FA98DF83C000FA88DF806
:101570003D408DF83E500AF0F8FE9DF840308DF861
:1015800080309DF841308DF881309DF842308DF8E3
:1015900082309DF844308DF883309DF845308DF8C9
:1015A00084309DF846308DF885309DF848308DF8B0
:1015B00086309DF849308DF887309DF84A308DF897
:1015C00088309DF84C308DF889309DF84D308DF87D
:1015D0008A309DF84E308DF88B309DF850308DF864
:1015E0008C309DF851308DF88D309DF852308DF84B
:1015F0008E309DF854308DF88F309DF855308DF831
:1016000090309DF856308DF891309DF858308DF817
:1016100092309DF859308DF893309DF85A308DF8FE
:1016200094309DF85C308DF895309DF85D308DF8E4
:1016300096309DF85E308DF897309DF860308DF8CB
:1016400098309DF861308DF899309DF862308DF8B2
:101650009A309DF864308DF89B309DF865308DF898
:101660009C309DF866308DF89D309DF868308DF87F
:101670009E309DF869308DF89F309DF86A308DF866
:10168000A0309DF86C308DF8A1309DF86D308DF84C
:10169000A2309DF86E308DF8A3309DF870308DF833
:1016A000A4309DF871308DF8A5309DF872308DF81A
:1016B000A6309DF874308DF8A7309DF875308DF800
:1016C000A8309DF876308DF8A9309DF878308DF8E7
:1016D000AA309DF879308DF8AB309DF87A308DF8CE
:1016E000AC309DF87C308DF8AD309DF87D3006F53E
:1016F00082508DF8AE309DF87E30153020A98DF8DF
:10170000AF30FFF733FD2CB070BDFFFF10B50A29D5
:10171000A0B0044600F5815301DD002204E0002959
:1017200001DB196001E00A221A6004F581531B688D
:101730000A2B00F2AB80DFE803F006101A242E38E3
:1017400042606A74A20004F5825015305049FFF7D8
:1017500012FD04F584544F4B97E004F58250153088
:101760004D49FFF708FD04F584544C4B8DE004F51A
:10177000825015304A49FFF7FEFC04F58454494B6A
:1017800083E004F5825015304749FFF7F4FC04F577
:101790008454464B79E004F5825015304449FFF7F4
:1017A000EAFC04F58454434B6FE004F58250153095
:1017B0004149FFF7E0FC04F58454404B65E0002309
:1017C0008DF80C308DF80D308DF80E30FF238DF82C
:1017D00008308DF809308DF80A3008A802AB1021C6
:1017E00003AA0AF062FB04F58250153008A9FFF73E
:1017F000BDFC04F58454324B47E004F582501530AB
:101800003049FFF7B8FC04F584542F4B3DE004F554
:10181000825015302D49FFF7AEFC04F584542C4B53
:1018200033E0FF238DF81A308DF815308DF816301F
:101830008DF810308DF811308DF8123005AB002284
:10184000009304AB8DF81C208DF81D208DF81E2010
:101850008DF818208DF819208DF81420019314A804
:1018600006AB102107AA0AF03CFB04F582501530A4
:1018700014A9FFF77BFC04F58454164B05E02046C1
:10188000FFF7B6FD144B04F58454A36020B010BDDF
:10189000540202008DC30100D402020095C301006E
:1018A00014020200A3C3010054030200A9C30100F3
:1018B000D4030200AFC3010014030200B6C3010049
:1018C000BCC3010094030200C1C3010094020200E2
:1018D000C6C30100CBC3010083C5010038B5222176
:1018E000044600200FF0B1FE212804F5934301DDEA
:1018F000002204E0002801DBD86401E02122DA6440
:1019000004F59343186D10B103681B69984704F5FB
:1019100093450B21EB6C03F5935304EB83040020F8
:10192000636D2B650FF091FE01460448FFF7EEFE54
:10193000286D10B10368DB68984738BD309CFF1FE5
:1019400070B500F5845306461A7B05321A735A7B2C
:1019500002325A739A7B03329A73DA7B0432DA7357
:101960001A7C0132D2B2D0071A7402D45A7C0132E6
:101970005A740024351905F584550134287BFEF787
:10198000E9FD00B24301181A0012042CA874F1D129
:1019900070BD2DE9F04105460F46002400F5805644
:1019A0004FF0030806E02868394608FB0400FFF7FB
:1019B000F9F80134F3699C42F5DBBDE8F081FFFFE3
:1019C0002DE9F041837B8CB00446032B00F26D813E
:1019D000DFE813F004005E00B80012010025A07AD1
:1019E000EEB200EB4600C0B2FEF7DAFD627B23697F
:1019F000BB49B21890FBF3F8D2B2FF2303A8FEF75D
:101A00009EFF03A8FFF7DEF88DF80000C0F3072360
:101A1000C0F307408DF802008DF80130009BB148FB
:101A2000ADF82C302FB21B0C8DF82E3039460BAB95
:101A30000FFA88F208F0A0FFE369022B24D1A36912
:101A4000A749C8EB0308637BF218D2B2FF2304A8AE
:101A5000FEF775FF04A8FFF7B5F8C0F307238DF86C
:101A60000000C0F307408DF802008DF80130009BA4
:101A70009C48ADF82C301B0C8DF82E3039460FFAEF
:101A800088F20BAB08F078FF0135202DA7D10CE1CF
:101A90000025A07AEEB200EB4600C0B2FEF780FD52
:101AA000627B23698E49B21890FBF3F8D2B2FF2310
:101AB00005A8FEF744FF05A8FFF784F88DF800009D
:101AC000C0F30723C0F307408DF802008DF8013002
:101AD000009B8448ADF82C302FB21B0C8DF82E30B3
:101AE0000FFA88F10BAB3A4608F046FFE369022B88
:101AF00024D163697A49C8EB0308637BF218D2B238
:101B0000FF2306A8FEF71BFF06A8FFF75BF8C0F34C
:101B100007238DF80000C0F307408DF802008DF810
:101B20000130009B6F48ADF82C301B0C8DF82E3027
:101B30000FFA88F13A460BAB08F01EFF0135202D55
:101B4000A7D1B2E00025A37AEEB27000C01AC0B2ED
:101B5000FEF726FD627B23696149B21890FBF3F81A
:101B6000D2B2FF2307A8FEF7EAFE07A8FFF72AF87C
:101B70008DF80000C0F30723C0F307408DF8020082
:101B80008DF80130009B5748ADF82C302FB21B0C5C
:101B90008DF82E3039460BAB0FFA88F208F0ECFEC8
:101BA000E369022B24D1A3694D49C8EB0308637B89
:101BB000F218D2B2FF2308A8FEF7C1FE08A8FFF76B
:101BC00001F8C0F307238DF80000C0F307408DF83B
:101BD00002008DF80130009B4248ADF82C301B0C00
:101BE0008DF82E3039460FFA88F20BAB08F0C4FEA0
:101BF0000135202DA7D158E00025A37AEEB2700060
:101C0000C01AC0B2FEF7CCFC627B23693449B2181B
:101C100090FBF3F8D2B2FF2309A8FEF790FE09A8C3
:101C2000FEF7D0FF8DF80000C0F30723C0F3074094
:101C30008DF802008DF80130009B2A48ADF82C3059
:101C40002FB21B0C8DF82E300FFA88F10BAB3A46F1
:101C500008F092FEE369022B24D163692049C8EBA6
:101C60000308637BF218D2B2FF230AA8FEF767FECF
:101C70000AA8FEF7A7FFC0F307238DF80000C0F302
:101C800007408DF802008DF80130009B1548ADF833
:101C90002C301B0C8DF82E300FFA88F13A460BAB26
:101CA00008F06AFE0135202DA7D1FE210C48FFF770
:101CB00070FE237A627A9A4205D800232372A37AAF
:101CC0000133A37201E001332372E37A227B9A424B
:101CD0000AD80023E372637B0133637306E000BF1D
:101CE000309CFF1F883D00200133E37200200CB0C0
:101CF000BDE8F081FFFFFFFF2DE9F04F804687B080
:101D00008948BE21FFF745FE4FF08241D8F81C00FC
:101D100013F0B0FE14F09AF8FF23C2B2824904A86F
:101D2000FEF70DFED8F80C00D8F8089013F00EFA64
:101D300004460D464846D8F81C1013F093FD13F0E6
:101D400005FA77A3D3E9002313F054FA13F034FD16
:101D500013F0FCF906460F4610F0CEFD02460B4686
:101D60002046294613F046FA0022704B13F090F8F3
:101D700013F0DAFC39468246304610F007FE024680
:101D80000B462046294613F035FA02460B46002042
:101D9000664913F07BF813F0C7FC0190D8F80C00EB
:101DA00013F0D4F9044648460D4613F0CFF95CA36E
:101DB000D3E9002313F01EFA13F0FEFC13F0C6F96A
:101DC00006460F4610F098FD02460B46204629466F
:101DD00013F010FA0022554B13F05AF813F0A4FC3C
:101DE00039468346304610F0D1FD02460B46204668
:101DF000294613F0FFF902460B4600204B4913F029
:101E000045F813F091FC064604A80096FEF7DAFEAA
:101E10008DF80800C0F30723C0F307408DF80A00CF
:101E20008DF80930029B424806AC05AD24F8043D0C
:101E30001B0C05F8023FDDF800C00FFA8BF70FFA14
:101E40008CFC624639462346CDF800C008F094FD6C
:101E500004A8FEF7B7FE8DF80800C0F30723C0F30F
:101E600007408DF80A008DF80930029B3048ADF824
:101E700014301B0C2B70DDF800C03A466146234637
:101E800008F07AFD48464FF07E5113F0EBFC2949EB
:101E9000814613F0A1FF08B14FF00009D3457FF44C
:101EA0007DAF019B9E427FF479AF26E0D8F82040B9
:101EB000002328462146C8F8083013F0D3FCD8F890
:101EC0001050C8F81C002946064613F07BFF10B1DD
:101ED000C8F81C500CE0D8F818503046294613F0CA
:101EE00085FFC0B12846214613F0BAFCC8F81C0093
:101EF00004F10044C8F820400DE0D8F81C50D8F890
:101F00000810284613F0AEFC0A49C8F8080013F080
:101F100063FF0028CAD1002007B0BDE8F08F00BFE2
:101F2000399D52A246DF913F309CFF1F0000304098
:101F3000883D00200000B443F0B5AA2185B00546D5
:101F40001B48FFF726FD0024072604F1200000218E
:101F5000202280B2FEF77CFD06FB04F2FF23144929
:101F6000D2B2074602A8FEF7EAFC02A8FEF72AFE54
:101F70008DF80000C0F30723C0F307408DF802007E
:101F80008DF80130009B0B48ADF80C301B0C8DF820
:101F90000E3021B23AB203AB013408F0EDFC202C34
:101FA000D3D1AB680133AB600F2005B0F0BD00BFEB
:101FB000309CFF1F883D002000F58053C82210B5DB
:101FC0001A760446FEF798FAC4F8040CFEF794FA61
:101FD000C4F8080CFEF790FA41F27073C4F80C0CC8
:101FE000C4F8103CC4F8143C10BDFFFF08B502480B
:101FF000FFF7E2FF08BD00BF309CFF1F08B5024895
:10200000FFF7DAFF08BD00BF309CFF1F08B502488C
:10201000FFF7D2FF08BD00BF309CFF1F08B5024884
:10202000FFF7CAFF08BD00BF309CFF1F08B502487C
:10203000FFF7C2FF08BD00BF309CFF1F08B5024874
:10204000FFF7BAFF08BD00BF309CFF1F2DE9F04F1E
:1020500087B04B0101F20238039300EB880304467A
:102060000F460025059307F5417BA5F10F0A54F8AB
:102070002B3003FB0AF3DDF80CA0009305EB0A09F3
:1020800007F5407C04F5805304EB4919002604EB66
:102090008C0C04EB8B0B0493DBF8042054F82830F1
:1020A000DCF80400DDF800A0A6F10F0102FB01310D
:1020B000059B50445A68CDF808C00AF0BFFB09EBF5
:1020C0000603049993F818AC0A7E1AFB02F15242F7
:1020D0000012D2B24243121202EB1121013683F8F0
:1020E000181C202EDDF808C0D6D10135202DBAD11C
:1020F00007B0BDE8F08F38B500F5166420460D46F0
:102100000BF009FC411B2046BDE838400BF0FEBB3C
:1021100000F516600BF08FBB38B50546FFF7F8FFEA
:1021200004462846FFF7F4FF44EA002038BD00F5D6
:10213000166092B20BF0E4BB38B500F65C054FF4C4
:10214000827204460021284614F018FB2046FFF74F
:10215000DFFFC2B229462046FFF7E9FF2046FFF71E
:10216000D7FFC2B2002AF5D138BD2DE9F04F00F5F6
:102170008F5389B006921A680591002AC0F2DD805B
:1021800000F58E5202F10801154603F10804DDF84E
:1021900018B003910C3507940BE0791E2160059E61
:1021A00017F8011C06F8011BBBF1010B059600F0A6
:1021B000C08000F59054214651F8047B8F42ECD842
:1021C00000F58E54D2F810C003F11C06043419E057
:1021D000316829B9216811F8019BC6F80090216087
:1021E000216811F8019B2160296809FA08F949EA78
:1021F00001012960039908F10808C1F800803168DD
:10220000013931600399D1F80080E045E0DB2E68A8
:10221000039C46FA0CF12960CCEB0801216051695E
:102220000E4019688E427FD0D1698E4200F58F51E1
:1022300001F1100112D19469013404F58C66146126
:1022400050F8266056615E680E60012101FA04F4C0
:102250004FF0FF319C6099615961AAE70C68A64272
:1022600009D15C69002C5FDB07F8014B00F5905445
:1022700027609C6913E057DA344610E0071907F528
:10228000D05704F5086497F80480DCF8007000EB80
:10229000840407F8018BCCF80070646801E000F555
:1022A000905C5F68BC42E9DADCF80070029407F8E1
:1022B000014BCCF80070079FD1F800C0D7F8008020
:1022C00000F58F571837C445019716DAD7F80090F4
:1022D000B9F1000F11DB00EB0C0ACDF810A00AF5E4
:1022E000D05A8AF804400CF5086A00EB8A0A0CF10F
:1022F000010CCAF80490C1F800C009685C61019C37
:1023000041452660FFF655AF11690A293FF751AFE5
:102310000131116101F58C61079E50F821104FEADF
:1023200048043460516144E700F58F504FF0FF33AB
:102330000360069FCBEB070000E0002009B0BDE87A
:10234000F08FFFFF2DE9FF4190F82830044653B984
:1023500039E004EB4511204601F51861E269FFF709
:1023600004FF083500E00025236A9D42F1DB0425C7
:1023700008E004EB4511204601F51861E269FFF71A
:10238000F4FE0835236A9D42F3DB022508E004EBE6
:102390004511204601F51861E269FFF7E6FE0435B4
:1023A000236A9D42F3DB012508E004EB451120463A
:1023B00001F51861E269FFF7D8FE0235236A9D42F4
:1023C000F3DBA5694BE085696E010AE06369E269A8
:1023D000F31803F5186120466118FFF7C6FE0135B2
:1023E0002036226AA369D3189D42EFDBE9E76669CC
:1023F00004EB45174FF003082BE0BB19226B93F851
:102400008039934224D008FB034358331A798DF85E
:1024100008205A799B798DF8092002A88DF80A3096
:10242000FEF7D0FBC0F307238DF80000C0F3074090
:102430008DF802008DF80130009B0C48ADF80C308F
:102440001B0C8DF80E3031B22AB203AB08F094FAAF
:102450000136E2696369D3189E42CEDB0135226AF8
:10246000A369D3189D42C2DBBDE8FF81883D0020EF
:102470002DE9F7430446FFF74FFE60612046FFF762
:102480004BFEA0612046FFF747FEE0612046FFF7C4
:1024900043FE20622046FFF73BFEC0F38013070691
:1024A000606284F828300DD500F007000130012368
:1024B00003FA00F30322A365204604F15C015A43AA
:1024C000FFF735FE94F8443093B1216B4E1C0CBFDE
:1024D000217CC9B204F518604FF4806214F04EF903
:1024E000002384F84430A364E364202323656365F8
:1024F000A36B012B0AD900236B488DF8043001A986
:102500008DF805308DF8063008F050FCA36B022BD7
:102510001AD1A16C226D606DE36C94F83450C01830
:1025200056180BE004EB43170A4604E007EB020ED3
:1025300001328EF88059B242F8DB01338342F1DB7D
:10254000E36BA36313BB4EE0032BF9D104F1480006
:1025500065C804F55867530104F5186EDF199E44E9
:102560000021B6182D180EE001EB070C01EB0E0848
:10257000034604E01CF8039008F803900133AB42D3
:10258000F8DB01322031B242EEDBD9E704F114006E
:1025900065C8A064022BE2642565666505D1236BDE
:1025A0005D1C08BF236963631DE0032B1BD153012E
:1025B00004F5186704F5586EDF199E440021B6181B
:1025C0002D180EE001EB070C01EB0E08034604E0AA
:1025D0001CF8039008F803900133AB42F8DB01329A
:1025E0002031B242EEDB2046FFF792FD2064204608
:1025F000FFF78EFD0026054604F516681DE001353F
:10260000012120467719FFF776FDB7F5A06F0CDCA6
:10261000A119204601F557712A46FFF788FD07E00A
:1026200040460BF008F9013600E00026AE42F7DB29
:102630002046FFF76DFD3E460546002DDFD1216C9B
:10264000481C00F58C6604F58E5254F826609161A2
:1026500004F557735661012606FA01F1536004F53B
:102660008F534FF0FF37D56095601061D16106FA46
:1026700000F08A1902311A60DD61986059601961B1
:102680005F619F6104F590531A1D1A602046FFF7A1
:1026900059FEE36A2763002BD8BFE662E36AE5636D
:1026A0000A205843BDE8FE83883D00200B79037162
:1026B0008B6883600B7B30B5037300F10D0201F171
:1026C0000D0301F1190453F8045BA34242F8045BC3
:1026D000F9D11B781370CB69C36130BD1FB50622D9
:1026E00001A9FFF724FD01A80849062214F014FDF2
:1026F00048B1062201A8064914F00EFDD0F10100F0
:1027000038BF002000E0012005B000BDCFC30100AC
:10271000D6C3010010B50446FFF7FEFC206020463A
:10272000FFF7FAFC60602046FFF7F2FCA06020464D
:10273000FFF7EEFC20612046FFF7EAFCE06010BDE9
:1027400008B583681A0601460BD503F0070301227A
:10275000013302FA03F3032283655C315A43FFF726
:10276000E6FC08BDF8B50446002700F65C052046E7
:10277000FFF7CEFCC0B22C2803D12046FFF778FE2D
:10278000F8BD2128204651D1FFF7C2FCC0B2F9287C
:1027900017D002DC01284FD104E0FE283BD0FF28EF
:1027A0004AD13FE02046FFF7B3FCC2B2294620469B
:1027B000FFF7BDFC2046FFF7ABFCC2B2002AF5D103
:1027C000D5E72046FFF7A4FC2046FFF7A1FC06460C
:1027D0002046FFF7A1FCE0622046FFF799FCF107D5
:1027E0004CBF20634FF0FF33C6F3820058BF236312
:1027F0000328C8BF3846E0632046FFF789FCB6E7E8
:1028000000214FF48272284613F0B8FF2046294673
:102810003246FFF78CFC2046FFF77AFCC6B2002E4A
:10282000EED1A4E72046FFF787FCA0E70121FFF7E0
:1028300062FC6FF00400F8BD6FF00300F8BDFFFF0D
:102840000B790C4A03718B6883600B7B037303461F
:1028500030B543F80D2B01F1190401F10D0252F8C6
:10286000045BA24243F8045BF9D112781A70CB6979
:10287000C36130BDA805020010B50B785F2B8CB08A
:1028800034D07E2B32D02E2B30D008A80EF028FF6B
:1028900008A80FF033F8014668460EF059FF08A863
:1028A0000EF0DDFE134904A80EF01AFF684604A9D5
:1028B0000EF0D0FF01280FD008A80F490EF010FF2E
:1028C000684608A90EF0C6FF10F1FF3408A818BF2B
:1028D00001240EF0C4FE00E0002404A80EF0BFFEA8
:1028E000684684F001040EF0BAFE00E000242046A1
:1028F0000CB010BDDDC30100E2C301002DE9F041C1
:10290000161E98B007460C46984652DB1E9B9E4208
:102910004FDA68462849224601230BF065F96846DC
:102920006D460BF022F8002839D008AC20466946E5
:1029300001220BF0BFF96D4622E020460BF009F8AA
:102940001EE020460AF0D2FF01463846FFF794FF0A
:1029500038B120460AF0CAFF01464046013E14F055
:102960007DFB20460AF0F5FF10A8694601220BF016
:10297000A1F9204610A9FFF799FE10A80AF0B0FFB0
:1029800020460AF0F2FF08B1002E0CDA20460AF0C9
:10299000E0FF68460AF0DDFF20460AF0A1FF684626
:1029A0000AF09EFF05E020460AF0A2FF0028C4D1ED
:1029B000C7E718B0BDE8F081F05B0020F0B507462E
:1029C00099B027480C460BF061F9002844D06846BE
:1029D0002349224601230BF007F968466E460AF0A8
:1029E000C4FF002833D008AC2046694601220BF012
:1029F00061F900256E461BE020460AF079FF40B9D8
:102A000020460AF073FF01463846FFF735FF00B154
:102A1000013520460AF09DFF10A8694601220BF0FF
:102A200049F9204610A9FFF741FE10A80AF058FF07
:102A300020460AF09AFF0028DED120460AF089FFDE
:102A400068460AF086FF20460AF04AFF00E0054685
:102A500068460AF045FF00E00546284619B0F0BD7B
:102A6000F05B002038B508460C4616490EF0BEFE55
:102A70000546E0B9204614490EF0B8FEC8B9204614
:102A800012490EF0B3FEB0B9204611490EF0AEFE69
:102A900098B920460F490EF0A9FE80B920460E498C
:102AA0000EF0A4FE00280CBF0520042038BD052030
:102AB00038BD284638BD012038BD022038BD03206E
:102AC00038BD00BFE6C30100FAC3010006C401001F
:102AD00014C4010022C401002AC4010070B50446D8
:102AE00090B00D46C2E1294608A8FFF7A9FE684646
:102AF00000210EF0F5FD08E008A80AF09CFE0FE0AA
:102B00000A290DD068460EF064FE08A80AF00EFFF0
:102B100030B108A80AF08FFEC1B20D29F0D1EBE761
:102B200008A80AF0DDFEA74904A80EF0D9FD04A903
:102B300068460EF086FE064604A80EF090FD04A836
:102B4000D6B1052269460EF0D2FE04A968460EF001
:102B50000AFE04A80EF083FD9B499C48FDF7A1FFE7
:102B600069469A48FDF7A1FF684604F10C0164220A
:102B700000230EF085FE76E195490EF0B1FD04A923
:102B800068460EF05EFE064604A80EF068FD04A836
:102B9000EEB1042269460EF0AAFE04A968460EF0C2
:102BA000E2FD04A80EF05BFD029B002B00F05B81B0
:102BB00068460EF0B2FE012384F870008549237147
:102BC0008248FDF76EFF814894F8701029E0824931
:102BD0000EF086FD04A968460EF033FE064604A8F2
:102BE0000EF03DFD04A8FEB1062269460EF07FFE00
:102BF00004A968460EF0B7FD04A80EF030FD029B54
:102C0000002B00F0308168460EF087FE012384F827
:102C10007100724923716D48FDF743FF6B4894F8CA
:102C20007110FDF756FF1EE16D490EF059FD04A924
:102C300068460EF006FE064604A80EF010FD04A835
:102C4000EEB1052269460EF052FE04A968460EF068
:102C50008AFD04A80EF003FD029B002B00F0038107
:102C600068460EF05AFE012384F872005D49237114
:102C70005648FDF716FF554894F87210D1E75A49A7
:102C80000EF02EFD04A968460EF0DBFD064604A8F2
:102C90000EF0E5FC04A8CEB1042269460EF027FE32
:102CA00004A968460EF05FFD04A80EF0D8FC029B54
:102CB000002B00F0D88068460EF02FFE4B4960676D
:102CC0004248FDF7EEFE4148616F25E048490EF0AD
:102CD00007FD04A968460EF0B4FD064604A80EF0F0
:102CE000BEFC04A8DEB1052269460EF000FE04A970
:102CF00068460EF038FD04A80EF0B1FC029B002BD4
:102D000000F0B18068460EF008FE3A49A0672F48EF
:102D1000FDF7C7FE2D48A16FFDF7E7FEA3E036499A
:102D20000EF0DEFC04A968460EF08BFD064604A8F2
:102D30000EF095FC04A8DEB1052269460EF0D7FD21
:102D400004A968460EF00FFD04A80EF088FC029B53
:102D5000002B00F0888004F17C06694630460EF0B6
:102D6000EFFC26491948FDF79CFE1848314678E0EB
:102D700023490EF0B5FC04A968460EF062FD064634
:102D800004A80EF06CFC04A8002E3DD00622694673
:102D90000EF0ADFD04A968460EF0E5FC04A80EF0A7
:102DA0005EFC029B002B5ED068460EF0B6FD154916
:102DB00084F88C000548FDF774FE044894F88C10E4
:102DC0002FE700BF2EC4010034C40100646000205E
:102DD0003EC4010043C4010049C4010050C40100C5
:102DE00058C401005EC4010065C401006AC401004A
:102DF0007AC4010080C4010091C4010097C401009D
:102E00009EC40100A5C401001D490EF069FC68467E
:102E100004A90EF016FD064604A80EF020FC16B319
:102E2000052204A869460EF062FD04A968460EF06A
:102E30009AFC04A80EF013FC029BA3B1694604A8F7
:102E40000EF086FC04A92046FFF70CFE84F88D00E6
:102E500004A80EF004FC0B490B48FDF722FE0A48BB
:102E60006946FDF722FE68460EF0F9FB2B682846FE
:102E70009B68984700283FF736AE10B070BD00BF82
:102E8000B3C40100B9C401006460002070B588B00B
:102E900000238DF80430724B0291009371494FF07A
:102EA000FF33044670480393FDF7FBFD69466F4806
:102EB0000DF008F86E4905466B48FDF7E5FD6A48D8
:102EC0000EF028FB6B4A694829460CF0FEFF027C95
:102ED000042A03460DD104F10C069969304614F01A
:102EE000BDF865496048FDF7DCFD5F483146FDF7F8
:102EF000E6FD5E48614A29460CF0E7FF037C022BA1
:102F00000DD183695E4984F87030012323715648DE
:102F1000FDF7C7FD544894F87010FDF7DAFD5348EB
:102F2000584A29460CF0D1FF037C022B0DD183694E
:102F3000554984F87130012323714B48FDF7B1FDE9
:102F4000494894F87110FDF7C4FD48484F4A294696
:102F50000CF0BBFF037C022B0DD183694C4984F834
:102F60007230012323714048FDF79BFD3E4894F8E1
:102F70007210FDF7AEFD3D48464A29460CF0A5FF0C
:102F8000037C022B09D18369434963673648FDF707
:102F900088FD3548616FFDF7A8FD34483F4A294652
:102FA0000CF093FF037C022B09D183693C49A36792
:102FB0002D48FDF776FD2C48A16FFDF796FD394AA7
:102FC0002A4829460CF081FF027C042A03460DD1D1
:102FD00004F17C06996930460EF0CDFB3249224857
:102FE000FDF75FFD20483146FDF75FFD1F482F4A82
:102FF00029460CF06AFF037C022B0BD183692C4914
:1030000084F88C301848FDF74CFD174894F88C1064
:10301000FDF75FFD274A154829460CF056FF027C54
:10302000042A034615D1996904A80EF059FB04A996
:103030002046FFF717FD84F88D0004A80EF00FFB63
:103040001D490948FDF72DFD074894F88D10FDF73F
:103050004CFD064829460CF06BFC08B070BD00BF63
:1030600008060200C6C4010064600020D45E00208F
:10307000D6C40100DCC4010034C40100E1C4010075
:1030800043C40100E5C4010050C40100EBC40100C9
:103090005EC40100F0C401006AC40100F4C4010070
:1030A00080C40100F9C4010097C40100FEC40100FE
:1030B000A5C4010004C50100B9C4010030B54E4BE0
:1030C0001B78D7B00446002B00F0928082684379C9
:1030D00001329A42826004DB4FF0FF3383600024A8
:1030E00087E00093016802ABFFF708FC216816A88F
:1030F00013F0B4FF02A916A813F01CFE3F49404884
:10310000FDF7CFFC16A93E48FDF7D9FC0EA83D49B6
:1031100016AA01230AF068FD0EA80AF026FC38B9A9
:103120002046FFF7CBFF04460EA80AF0D9FB60E06B
:10313000354904F10C0013F091FF0025012305210E
:1031400084F8705084F8715084F872506367A367F4
:1031500004F17C000EF01FFB182384F88C3002A9C8
:1031600084F88D5025710AA80EF0BAFA0AA80EF05C
:10317000C5FB014606A80EF0EBFA0AA80EF06FFA9E
:1031800022490AA80EF0ACFA0AA906A80EF062FBC2
:1031900005460AA80EF063FA012D04D120460EA9B7
:1031A000FFF79CFC11E01A490AA80EF099FA0AA947
:1031B00006A80EF04FFB05460AA80EF050FA012DA6
:1031C00003D120460EA9FFF761FE237933B9114BD5
:1031D0001A889B78A4F8702084F872300EA80AF040
:1031E000B8FB06A80EF03BFA0EA80AF079FB01E046
:1031F0001C46204657B030BD5EADFF1F09C501001B
:1032000064600020F05B0020B2C40100DDC3010057
:10321000E2C3010060C201002DE9F04FDFF8D08267
:10322000B24C434687B033F8037F05AD9E780195D5
:103230004FF002094FF01E0BCDF8009020461721E9
:1032400000221923ADF814708DF8166007F08EFD7A
:10325000CDF800B0204607211C2209230195ADF8C6
:1032600014708DF8166007F081FD4346CDF800908C
:1032700033F8067F01959E78ADF8147020460F2133
:10328000002211238DF8166007F070FDCDF8009034
:1032900020464FF006091321002215230195ADF8B1
:1032A00014708DF8166007F061FDCDF8009020468F
:1032B0000B2104220D230195ADF814708DF81660D2
:1032C00007F054FD4FF00A0CCDF800C04FF01A0A79
:1032D00020460721082209230195CDF80CC0ADF83E
:1032E00014708DF8166007F041FD20460721182262
:1032F0000923CDF800A00195ADF814708DF8166083
:1033000007F034FDCDF800B020460B210D230195C8
:103310001C22ADF814708DF8166007F027FDCDF86B
:1033200000B020460F2101951C2211234FF0160BEF
:10333000ADF814708DF8166007F018FD20461321C3
:1033400018221523CDF800A00195ADF814708DF862
:10335000166007F00BFD2046172114221923CDF823
:1033600000B00195ADF814708DF8166007F0FEFC02
:103370004346CDF8009033F8097F01959E78ADF86B
:10338000147020460F21042211238DF8166007F0D7
:10339000EDFCCDF800902046132104221523019561
:1033A000ADF814708DF8166007F0E0FCCDF80090D1
:1033B00020461721042219230195ADF814708DF8C9
:1033C000166007F0D3FCDDF80CC00195CDF800C005
:1033D0004FF00E092046172108221923ADF814706A
:1033E0008DF8166007F0C2FC204607210C22CDF8AC
:1033F000009001950923ADF814708DF8166007F060
:10340000B5FC204617210C22CDF800901923019518
:10341000ADF814708DF8166007F0A8FC4FF0120C90
:10342000CDF800C020460721102209230195CDF8D0
:103430000CC0ADF814708DF8166007F097FCDDF83D
:103440000CC00195CDF800C0204617211022192389
:10345000ADF814708DF8166007F088FC204607213F
:1034600014220923CDF800B00195ADF814708DF841
:10347000166007F07BFC20460F2114221123CDF8A3
:1034800000B00195ADF814708DF8166007F06EFC71
:103490002046132114221523CDF800B00195ADF874
:1034A00014708DF8166007F061FC20460F21182279
:1034B0001123CDF800A00195ADF814708DF81660B9
:1034C00007F054FC4346CDF8009033F80C2F0195DB
:1034D0009B78ADF814208DF8163020460F210C2271
:1034E000112307F043FC07B0BDE8F08F883D0020B2
:1034F00060C201001F4BF7B50E4619780446C1B1F2
:103500001D4B427D9D781F461AB90C2D01D90C3DEB
:10351000EDB21A48052106F05DFF2A4604F10800C5
:1035200017497B7813F0BAFB092D94BF04250125B8
:1035300008E0124806F04EFF04F10800114913F0AC
:103540008DFD012520210D4807F06CF804F11201D2
:103550000A4807F061F8094806F00CFF01230093C0
:103560000648294632B204F1080306F079FF00202C
:10357000FEBD00BF40F2FF1FE4ACFF1F883D0020EE
:103580001DC5010025C5010008B5417CFFF7B2FF4C
:1035900008BDFFFF2DE9F04F7A4B9D78437D8FB03A
:1035A000064688461BB90C2D01D90C3DEDB2B8F189
:1035B000000F03D0B8F1010F0BD105E04FF6FF74F7
:1035C000092D88BF022408E0092D94BF112414247A
:1035D00007E0B8F1000F03D14446092D33D900E0CC
:1035E000002470238DF8243080238DF8253009A81D
:1035F00090238DF82630FDF7E5FA8DF81800C0F31A
:103600000723C0F307408DF81A008DF819300EA972
:10361000069B777C21F8043D1FFA84F91B0C484671
:1036200007F1FF3A8DF83630431C023000B20FFA32
:103630008AF2023F0190039100970292524821B210
:103640001BB207F06EFB717C70238DF8283080234D
:103650004A1E8DF829300AA890238DF82A3005914A
:103660000492FDF7AFFA8DF81800C0F30723C0F3FA
:1036700007408DF819308DF81A000EAB069823F824
:10368000040D0599049A0393A7B2023907F1080BB8
:10369000000C07F1060A07F1070912B200910FFAB0
:1036A0008BF18DF836000191029237480FFA8AF1BA
:1036B0000FFA89F307F035FBB8F1000F01D1092D9E
:1036C0002ED970238DF82C3080238DF82D300BA847
:1036D00090238DF82E30FDF775FA8DF81800C0F3A1
:1036E0000723C0F307408DF81A008DF819300EA992
:1036F000069B757C21F8043D1B0C05F10B088DF829
:1037000036307B1C02370FFA88F20C353FB203913A
:103710008DE8A00002921C4821B21BB207F001FB09
:1037200070238DF8303080238DF831300CA8902331
:103730008DF83230FDF746FA8DF81800C0F30723F4
:10374000C0F307408DF819308DF81A000EAB747C69
:1037500006990D4823F8041D04F10B05090C8DF89A
:1037600036102AB20FFA8BF10C34019103930094B6
:1037700002920FFA8AF10FFA89F307F0D2FA0FB02A
:10378000BDE8F08FE4ACFF1F883D002070B51E4EF1
:103790001E4D0446236820469B6898471C48FFF747
:1037A000F3FE1B48217AFFF7F5FE1A48012107F0C6
:1037B00089FB1848002106F0E5FD3068FDF711FE91
:1037C00001380A2816D8DFE800F006090F121E1586
:1037D000151515151E00207A012102E0207A4FF000
:1037E000FF31FDF7E7F805E0E368013B01E0E3683E
:1037F0000133E360E368022B01D90023E360E3684F
:10380000EB5C2372C6E770BD9495FF1F6D95FF1F9B
:10381000C8ACFF1F883D00202DE9F04F8FB0064651
:1038200002250DAC96F81190A9B24FF0700C09F179
:10383000FF324F1C4FF0800B02314FF0900A0BA863
:103840008DF82CC0CDF814C0079106928DF82DB0DC
:103850008DF82EA0FDF7B6F98DF82000C0F30723F0
:10386000C0F307408DF822008DF82130089B2448D2
:1038700023801B0CA3700799069A03940FFA85F80E
:1038800012B2A9F102033FB20FFA81F90093414647
:1038900002923B46CDF8049007F043FA737CDDF8C2
:1038A00014C0079303F10B020CA88DF830C00692E8
:1038B0008DF831B08DF832A0FDF784F98DF8200035
:1038C000C0F30721C0F307408DF822008DF82110C6
:1038D00008990B482180090CA170069A079B039454
:1038E0000C3312B206358DE80802029241463B467F
:1038F000ADB207F016FA202D94D10FB0BDE8F08FCD
:10390000883D00202DE9F74306460F463C4820211C
:1039100006F088FE3A4806F1680106F07DFE384858
:10392000002106F057FD364806F024FD354B1B7884
:10393000002B5AD0344A937855780C2B01D90C3B84
:10394000DBB20233012400942D4856F8233021467F
:103950003AB206F085FD35B9FA1D009428482B4B84
:10396000214612B246E0092D09D8BFB2FA1D0094D3
:103970002348274B214612B206F072FD2BE0112D91
:1039800010D1BFB2FA1D1E48736A0094214612B2CC
:1039900006F066FD07F10E02009419481D4B214602
:1039A00012B227E0132D01D8FA1D16E04FF00A09D4
:1039B000B5FBF9F8BFB208F11403FA1D00941048E2
:1039C00056F82330214612B209FB185506F048FD7F
:1039D00015F0FF0510D007F10E02023500940848DB
:1039E00056F82530214612B204E0012104480A4B62
:1039F00000913AB206F034FD0020BDE8FE8300BF1E
:103A0000883D002040F2FF1FE4ACFF1F2EC50100DF
:103A100036C5010011C8010025C5010008B5044BD9
:103A2000597C0B2928BF0B21FFF76CFF08BD00BF95
:103A3000C8ACFF1F012910B5044601DD002304E0D6
:103A4000002901DB016101E001232361E06910B17C
:103A500003681B699847236904EB83035869E06195
:103A600010B10368DB68984710BD10B50221044609
:103A700000200DF0EAFD01462046FFF7DBFF10BDF8
:103A800008B50369C918FFF7D5FF08BD37B50C4D58
:103A90002B680093009A8368D21AC3689A4204463E
:103AA0000CD908480BF06CFE074B30B101221A709C
:103AB0002B680193019BA36000E018703EBD00BF1E
:103AC000645F0020E4ACFF1F40F2FF1F10B5044606
:103AD000FFF7DCFFE06910B103689B68984700209E
:103AE00010BD0022026042608260C26002614261D9
:103AF0004FF0814202624FF082424262002280F81F
:103B00002820704708B5FF2100200DF09EFD11F020
:103B10005DFF044912F062F84FF07C5111F0A0FEF5
:103B200008BD00BF00007F43F8B500230360436079
:103B30008360C360036143614FF0814303624FF0D0
:103B400082434362002380F8283004460D4616461F
:103B5000FFF7D8FF0746FFF7D5FF4FF07F53E3612C
:103B6000034BE060A76025606660A3612046F8BD56
:103B7000CDCC4C3D0A6802604A6842608A68826027
:103B8000CA68C2600A6902614A6942618A698261DF
:103B9000CA69C2610A6A02624A6A426291F82820CE
:103BA00080F82820CA6AC2627047FFFF10B5002162
:103BB0000446006812F0FCF808B10D4B2360606801
:103BC000002112F0F5F808B1094B636020684FF04E
:103BD000844112F001F908B10023236060684FF0BE
:103BE000844112F0F9F808B10023636010BD00BFF2
:103BF0000000F8410A6802604A6842608A68826090
:103C0000CA68C2600A6902614A6942618A6982615E
:103C1000CA69C2610A6A02624A6A426291F828204D
:103C200080F82820CA6AC2627047FFFFFFFFFFFFCB
:103C3000F0B504468DB000253027214907FB054625
:103C40000A4608366846FFF76FFF01353046694679
:103C5000FFF7D0FF0A2DF0D1002002210DF0F5FC76
:103C60000028D4BF0020012084F8210200B31549A8
:103C700068460A46FFF758FF694604F5F470FFF7F7
:103C8000B9FF012384F82132D4F8000211F05EFA62
:103C900009A3D3E9002311F0ADFA11F08DFD4FF027
:103CA0008343C4F80C320023C4F80002C4F808327D
:103CB0000DB0F0BDAFF30080445EC598AAAAFA3FEC
:103CC000000070410000F841F0B5174D8DB0064678
:103CD00000240027204611F079FE002201466846A4
:103CE000FFF722FF2046029711F01EFA0CA3D3E93A
:103CF000002311F07FFA11F05FFD0390302000FBEC
:103D00000460E3000830694601348DF828300695D8
:103D10000795FFF76FFF202CDCD10DB0F0BD00BF81
:103D20007B14AE47E17A84BF00002041AFF30080EE
:103D30002DE9F04302218DB0054600200DF085FCF1
:103D40000024002814BF07464FF0FF374FF07E587D
:103D50000026C4F11F0011F039FE154902466846DD
:103D6000FFF7E2FE32212820CDF82C800DF06DFC0B
:103D700011F02CFE0F4911F031FF8146384611F049
:103D800025FE0146484611F075FE0290302000FBEA
:103D90000450630108306946013403968DF82830D9
:103DA000FFF728FF082CD4D10DB0BDE8F08300BF89
:103DB000000070410000C842F0B58DB00446FCF729
:103DC0009BFB2081FCF798FB6081FCF795FB0025AD
:103DD000A081302720200DF02DFC11F0F3FD07FB12
:103DE00005460146002214366846FFF79DFE013560
:103DF00030466946FFF7FEFE282DEBD10DB0F0BD31
:103E0000013A072A17D8DFE802F00407160D161644
:103E100016114B685A1E01E04B685A1C0B68426031
:103E20000360704791E80C00013A02E091E80C0051
:103E3000013280E80C0070472DE9F04704468CB051
:103E4000D4F81C39D0F81809012B01D0451E02E026
:103E50000DF0F0FB0546002DC0F2098105F12302AB
:103E600004EBC20292E8030004F5887383E80300C0
:103E7000D4F814314FEA40094FEA43080026FF23E3
:103E800002A88DF80A30CDF81890CDF81C808DF876
:103E900008608DF80960FCF795FE8DF80000C0F30E
:103EA0000723C0F307408DF801308DF80200009A17
:103EB00070480CAB0FFA89F123F81C2D120C8DF809
:103EC00016200FFA88F206F057FD042130460DF057
:103ED000BCFBA319201893F8242990F82419013663
:103EE000042E83F8241980F82429EED1264604F103
:103EF000040904F5887A96F8248908A851464246B0
:103F0000FFF77EFF089B002B68DB099A002A65DB20
:103F10000F2B63DC0F2A61DC04EB0210C01800F1E8
:103F2000100E017C002959D1D4F81411D4F81001D5
:103F300004EB01110918087C48EA0000087408F134
:103F4000FF319EF8000007290CD8DFE801F0040AD1
:103F50000B060B0B0B08022704E0082702E00427DE
:103F600000E0012704EB0212D318074306A94246DA
:103F70001F740AA8FFF744FFFF2303A88DF80C3035
:103F80008DF80D308DF80E30FCF71CFE8DF800001A
:103F9000C0F30723C0F307408DF801308DF802000D
:103FA0000098BDF82860BDF82C500CAB31B223F856
:103FB0001C0D000C8DF816002AB22E4806F0DCFC11
:103FC000D4F818395A1C2333C4F8182904EBC30455
:103FD00008AB93E8030084E8030048E001364E454F
:103FE00089D111E0F11801F5887201F58C7103C9CE
:103FF00082E803000135D4F81829013A08339542C4
:10400000F0DBC4F8182932E005F1230304EBC30305
:1040100093E803000CAB03E903000A9F0B9EFF2308
:1040200076007F0004A807968DF810308DF81130C7
:104030008DF812300697FCF7C5FD8DF80000C0F32F
:104040000723C0F307408DF801308DF80200009A75
:1040500008480CAB39B223F81C2D120C8DF8162031
:1040600032B206F089FC04EBC5060023C3E70CB0AE
:10407000BDE8F087883D002070B5D0F81839002BD6
:1040800086B004463FDC002502A88DF808508DF864
:1040900009508DF80A50FCF795FD8DF80000C0F32B
:1040A0000723C0F307408DF802008DF80130009B14
:1040B000224806A921F80C3D1B0C8DF80E3006F0A5
:1040C00075FE2B46294608E050190135102D017464
:1040D000FAD11033B3F5807F02D00025E218F3E760
:1040E00028460DF0A7FA064628460DF0A3FA0496D6
:1040F000059006AA12E9030004F58C7383E8030017
:104100000123C4F818392046FFF796FED4F8183971
:10411000002B0CDCD4F81C39D4F82029013393424D
:10412000C4F81C3905DB0023C4F81C3901E0002069
:1041300001E04FF47A7006B070BD00BF883D0020EA
:104140002DE9F04F8DB00024099283468A46046021
:104150004460DFF80C9173E004EB0A0202EB4512B5
:1041600002F58052127C002A64D0A31C0293DFF86F
:10417000F080AB1C661E0593731C4FD0202E4DD0D3
:104180000AEB0603039333B26F1E04930DB9002CA0
:1041900040D0781C3ED0202F3CD0039B03EB47122D
:1041A00092F8102CB2B339B2049A2C4806F09EFB58
:1041B000C0F307228DF81800C0F307408DF81A00ED
:1041C0008DF81920069A9DF82410ADF82C205FFA7E
:1041D00082FCC1EB0C019DF825C0100CC2F3072234
:1041E000CCEB02029DF826C08DF82E005243C0B2DF
:1041F000CCEB000C01FB01210CFB0C1CC44521DBAA
:1042000008D10220CDF804C00DF014FA0128DDF821
:1042100004C017D0059B01379F42B7D1029B0136DE
:104220009E42A9D1C8450FDB04D102200DF002FA4D
:10423000012809D00135202D8ED10134202C09D040
:10424000002589E7E046E5E7CBF80050CBF80440CD
:10425000C146EFE758460DB0BDE8F08F883D00201D
:104260003F420F002DE9F04F464B8DB000240992DC
:104270000646039104604460029375E009EB040371
:1042800003F580531B7C002B66D04FF0000B651E9E
:104290004FF0FF3ACDF804B06A1C4BD0202D49D026
:1042A00005EB09012AB207F1FF38002304910592BA
:1042B000B8F1FF3F39D0B8F1200F36D00499CA18B1
:1042C00092F8F02B8AB3019A2F48009301320192A1
:1042D0000FFA88F1059A06F009FBC0F307228DF862
:1042E0001800C0F307408DF81A008DF81920069ABF
:1042F0009DF82410ADF82C205FFA82FCC1EB0C0174
:104300009DF825C0009B100CC2F30722CCEB0202E3
:104310009DF826C08DF82E005243C0B2CCEB0000B1
:1043200001FB012100FB001083442033602B08F1C6
:104330000108BDD10AF1010A0135BAF1020FABD172
:10434000019B9BFBF3FB029B9B4511DB04D1504679
:104350000DF070F901280BD00137202F09F1200949
:104360008CD10134202C08D0DDF80C90002785E793
:1043700037607460CDF808B0EEE730460DB0BDE8A8
:10438000F08F00BF3F420F00883D00202DE9F04133
:10439000044606460025032728464FF480610DF0A9
:1043A00054F907FB05F21032A318784314F802C041
:1043B00059789A782318103033F8108FA6F81080A7
:1043C0009B780135B37423180336B5F5806F04F874
:1043D00000C059709A70DFD1BDE8F0812DE9F04F2F
:1043E000FF2187B0814600200DF02FF900265FFAEB
:1043F00080FA354651E004A802A98DF812200092F7
:104400008DF811408DF8108007F09CFF032303FB0B
:10441000079302A803F1100B0193FCF7D3FB019B58
:1044200010341874A4B2C0F30723C0F307408BF80C
:1044300001308BF802000137B4F5807F009ADAD1A1
:1044400005F11007FF2205A803A98DF81520009299
:104450008DF816408DF8148007F074FF032303FBDA
:10446000079303A803F1100B0193FCF7ABFB019B2F
:10447000103C1874C0F30723C0F307408BF80130D9
:104480008BF80200A4B20137009A002CDBD1203552
:104490000836B5F5806FF6B205D006EB0A082F4650
:1044A0000024FF22A7E707B0BDE8F08F2DE9F04711
:1044B000044604200DF0BEF8032800F28D80DFE8EA
:1044C00000F0224D788808FB01FE0EF1100E04EB7F
:1044D0000E07013190FBF5FAB1F5806F04F80EA0DC
:1044E00087F8019087F802C06ED0FF30B042EAD161
:1044F000FF32B24203D092FBF5F90020E3E7FF332D
:10450000B34207D160E0002319460A254FF00308A3
:1045100040F6F52693FBF5FC0022ECE708FB01FED4
:104520000EF1100E04EB0E07013104F80EC0B1F5C8
:10453000806F90FBF5FE87F801E087F8029043D08A
:10454000FF30B042EAD1FF32B24203D092FBF5F91C
:104550000020E3E7FF33B34207D135E000231946DB
:104560000A254FF0030840F6F52693FBF5FC0022E0
:10457000ECE708FB01FE0EF1100E04EB0E07013113
:1045800004F80EC0B1F5806F90FBF5FE87F801903E
:1045900087F802E018D0FF30B042EAD1FF32B242D1
:1045A00003D092FBF5F90020E3E7FF33B34207D1D4
:1045B0000AE0002319460A254FF0030840F6F526C5
:1045C00093FBF5FC0022ECE72046FFF7DFFEBDE899
:1045D000F0872046FFF702FFBDE8F0872DE9FF4195
:1045E00000F5A0560446356915BB01A94B488DF866
:1045F00004508DF805508DF8065006F0D7FB204684
:10460000FFF754FF02200DF015F82A4670610CE008
:10461000C118203381F8102C01F58051B3F5806F5B
:104620000A74F5D10135202D02D000236019EFE77F
:1046300004F5A0520323116903FB014333F8100F63
:104640009B78ADF800008DF8023041B920200CF0C5
:10465000F1FF054620200CF0EDFF064617E05369F8
:10466000009AADF80420120C8DF8062013B1012B2E
:104670000BD105E002A82146019AFFF761FD04E095
:1046800002A82146019AFFF7EDFD039E029D04EB6F
:104690004517BB1903F5805200214FF00108117432
:1046A00083F8108C29B232B21C486B4606F064F9CC
:1046B000721E4FF0FF31531C04D101310132022927
:1046C000F9D11BE0202AF8D0D6194FF0FF3303B9F7
:1046D00081B15819B0F1FF3F0CD020280AD006EB69
:1046E000431090F810CCBCF1000F03D100F58050BE
:1046F00080F810800133022BE9D1DEE704F5A054E5
:10470000002023690133B3F5806FAABF20612361C4
:1047100040F6B83004B0BDE8F08100BF883D00200D
:1047200070B5284898B00C4609F0B0FA002843D07C
:10473000684624492246012309F056FA68466E4627
:1047400009F013F9002831D008AC2046694601224F
:1047500009F0B0FA00256E4619E0204609F0C8F8C5
:1047600030B9204609F0C2F8FCF7F4F800B1013581
:10477000204609F0EEF810A86946012209F09AFADD
:10478000204610A9FDF792FF10A809F0A9F82046CD
:1047900009F0EBF80028E0D1204609F0DAF8684685
:1047A00009F0D7F8204609F09BF801E04FF0FF35FB
:1047B000684609F095F801E04FF0FF35284618B03B
:1047C00070BD00BFF05B0020F0B5161E99B00C461E
:1047D0001F4650DB1E9B9E424DDA68462749224603
:1047E000012309F001FA68466D4609F0BEF8002879
:1047F00037D008AC20466946012209F05BFA6D46C5
:1048000020E0204609F0A5F81CE0204609F06EF8EB
:10481000FCF7A0F838B1204609F068F801463846A0
:10482000013E12F01BFC204609F093F810A86946DF
:10483000012209F03FFA204610A9FDF737FF10A822
:1048400009F04EF8204609F090F808B1002E0CDA75
:10485000204609F07EF8684609F07BF8204609F00A
:104860003FF8684609F03CF805E0204609F040F8BA
:104870000028C6D1C9E719B0F0BD00BFF05B002029
:1048800070B52B4B1B788EB00446002B4DD0436B7C
:10489000002B4ADD00F11005284619B1002109F06E
:1048A00035F833E009F061F810B1284609F051F805
:1048B000636B226B009304F13D0602AB2046E16876
:1048C000FFF782FFE168304612F0C8FB02A93046CC
:1048D00012F030FA3246012306A8164909F084F98D
:1048E00006A92846FDF7E2FE06A808F0F9FF2846CB
:1048F00009F03BF8C8B1294606A8FDF7A1FF0E480C
:1049000006A9FDF7D3FE06A808F0EAFF0B48FDF75D
:10491000E5FE20B904F1100009F01BF805E0074896
:10492000FDF7F8FE0548FDF70BFF0EB070BD00BFA8
:104930005EADFF1FF05B00209CB9FF1F3CB0FF1F66
:1049400008B50021FFF79CFF08BDFFFF30B5334BD2
:104950001B7885B00546CBB931488DF80C3003A9DA
:104960008DF80D308DF80E3006F020FA2C4801211C
:1049700006F03EFA2B4B2A481A889B78ADF80C209B
:104980008DF80E30284B042100931CE0446B002C62
:104990001FDA002422488DF80C4003A98DF80D4041
:1049A0008DF80E4006F002FA1D48214606F020FA66
:1049B0001C4B1A889B78ADF80C208DF80E301B4BE1
:1049C000174800930321182203AB06F019FA1E249E
:1049D00021E016D112488DF80C4003A98DF80D4046
:1049E0008DF80E4006F0E2F90D48214606F000FA77
:1049F0000C4B1A889B78ADF80C208DF80E300C4BC0
:104A0000DEE70C48FDF7AEFE431D044603D1284601
:104A10000121FFF735FF204605B030BD5EADFF1F19
:104A2000883D00206FC2010039C501003FC501006B
:104A300046C501003CB0FF1F10B5044600200BF036
:104A400073FB0B4B616B1A888018188000200CF0E8
:104A5000FCFD636B2063984201DB002302E0002829
:104A600001DA013B236320460021FFF709FF10BD57
:104A7000D095FF1F08B5036BC918436B01639942BA
:104A800001DB002302E0002901DA013B036300217E
:104A9000FFF7F6FE08BD10B584691C19944201DBCE
:104AA000002206E0002C01DB846103E0013A00E013
:104AB000D2188261826951F82240647A002CF7D0C2
:104AC00010BDFFFF70B52A4B1B788EB0002B4CD069
:104AD00000F5B474204608F048FF10B1204608F0F5
:104AE00038FF244B6A4603F11006186859681546CA
:104AF00003C50833B3422A46F7D118681B792860EA
:104B00002B711D48694609F0C1F870B36A4601234C
:104B100006A8194909F068F806A92046FDF7C6FD60
:104B200006A808F0DDFE204608F01FFFE8B1204689
:104B300008F0DEFE00B10EE0214606A8FDF780FE7B
:104B400006A90E48FDF7B2FD06A808F0C9FE0C48FC
:104B5000FDF7C4FD18B9204608F0FBFE05E0084843
:104B6000FDF7D8FD0648FDF7EBFD0EB070BD00BFA8
:104B70005EADFF1F4EC50100F05B00209CB9FF1F1A
:104B80003CB0FF1F1FB50023044602A88DF8083073
:104B90008DF809308DF80A30FCF714F88DF8000014
:104BA000C0F30723C0F307408DF802008DF80130F1
:104BB000009B064804A921F8043D1B0C8DF80E301B
:104BC00006F0F4F82046FFF77DFF1FBD883D00206A
:104BD00038B500F5B4740546204608F0C6FE50B955
:104BE000204608F0A3FE20B105E02846FFF76AFF43
:104BF00007E01E2405E00448FDF7B4FD421D04460D
:104C0000F3D0204638BD00BF3CB0FF1FF8B51A48AE
:104C100005F034FB0646184805F02AFB07461648FF
:104C200006F06EF905460CF039FAC92822D10CF0CD
:104C300035FADA281ED10CF031FA04460CF02EFABF
:104C40007E43032740EA04247E43B44212DC0B482F
:104C500029462246FBF75AFFA0420BD10CF01EFA60
:104C6000362807D10448012106F02CF90348AC216D
:104C7000FBF745FFF8BD00BF883D002064600020C1
:104C80002DE9F0471E4805F0F9FA602747431C4814
:104C900006F036F94FF0AA0980464FF4FF7A0CF07F
:104CA000FDF99C282AD10CF0F9F9DA2826D10CF06C
:104CB000F5F905460CF0F2F940EA05250CF0EEF99D
:104CC000C4B20CF0EBF909FB0453BB42C6B215DCCD
:104CD0000C480AFB04812A46FBF718FFA8420DD1B5
:104CE0000CF0DCF9362809D1B442D8D304480121AC
:104CF00006F0E8F80348AC21FBF701FFBDE8F087B8
:104D0000883D00206460002010B586B004460CF099
:104D10000BFA204B00281B6813DD0493049BA3604F
:104D20000CF0E4F99C2805D0C92807D12046FFF7EC
:104D30006DFF2BE02046FFF7A3FF27E00CF0AEF954
:104D400024E00593059AA368D31AB3F57A7F1DD999
:104D5000002411488DF80C4003A98DF80D408DF802
:104D60000E4006F023F80C48214606F041F80B4BA4
:104D700009481A889B78ADF80C208DF80E30084B46
:104D800003210093182203AB06F03AF80A2006B07C
:104D900010BD00BF645F0020883D00206FC201008D
:104DA00063C501001FB51E4805F0E4FA01221D4944
:104DB0001B4805F0E1FB002402A88DF808408DF89F
:104DC00009408DF80A40FBF7FDFE8DF80000C0F3A6
:104DD0000723C0F307408DF802008DF80130009BD7
:104DE0000F4804A921F8043D1B0C8DF80E3005F086
:104DF000DDFF01210A4806F065F8094805F0BAFA16
:104E00000748214605F0BEFAFCF7E4FA0A2806D066
:104E1000062804D04FF4FA700BF072FCF4E71FBDC3
:104E2000883D0020B2C40100054B064A1B780020D3
:104E3000815C994203D201300528F9D100207047E6
:104E40009D95FF1F9895FF1F70B590F82D3088B085
:104E500004463BB1A34B1B680593059A036B9A422A
:104E600080F0BF8194F839303BB19E4B1B680693AC
:104E7000069AE36B9A4280F0BB8194F845303BB1CF
:104E8000984B1B680793079AA36C9A4280F0B781EE
:104E9000A369E26993420DD194F8502052B994F875
:104EA0002C203AB994F8382022B994F84420002AEA
:104EB00000F084810025E36184F850508A4805F0B1
:104EC00059FA94F838301BB994F83930002B31D0A6
:104ED0000521854884F8385005F07CFA82488349DA
:104EE00005F09AFB2021804805F09CFB804B7E4812
:104EF000197805F0D5F9FFF797FF10F067FD4FF02F
:104F00007A5110F0B7FD7B4910F0B4FD10F078FF36
:104F1000021E04DC784B1B78002B18BF0A2277494D
:104F200004A811F0BBFE012300936F4804210B225B
:104F300004AB20E094F8443013B994F84530EBB159
:104F40000025694884F84450294605F043FA66482C
:104F5000664905F061FB6448202105F063FB644B62
:104F60006148197805F09CF901230093644B5E4871
:104F70009B6829460E2205F073FA08E194F82C305C
:104F80001BB994F82D30002B4DD00025564884F8DD
:104F90002C50294605F01EFA5348544905F03CFBB5
:104FA0002021514805F03EFB514B4F48197805F040
:104FB00077F9666A012E15D003D3022E40F0E78000
:104FC00020E0504A484801920723012600930C2113
:104FD0000A22029605F062FA009643484A4B294697
:104FE0001222C8E7494A40480192072300930C2146
:104FF0000A22029605F052FA00963B48444B294695
:105000001222B8E7414A384801920723012600934B
:105010000C210A22029605F041FA009632483D4BD7
:1050200029461222A7E794F82060F6B163682E485B
:105030001D68052105F0CAFA2B4894F8511005F0B7
:10504000CBFA2948052105F0DFFA2748274905F062
:10505000E3FA2548216805F0E5FA254B224819783E
:1050600005F01EF9204829467AE094F82230002BFA
:105070007BD0294D1C4895F88D1005F0A7FA1A48E9
:1050800095F88C1005F0A8FA05F17C0023490CF086
:10509000ADFBF0B905F17C0021490CF0A7FBD0B9BC
:1050A00005F17C001F490CF0A1FBB0B905F17C00B3
:1050B0001D490CF09BFB90B905F17C001B490CF0DD
:1050C00095FBB8BB1A4905F17C000CF08FFB05215C
:1050D00031E031462FE001212DE002212BE00321B8
:1050E00029E000BF645F0020883D0020F4F2FF1F2C
:1050F0008295FF1F0000C8429D95FF1F6BC50100F0
:10510000B0ACFF1F7B95FF1F71C501007495FF1F99
:1051100079C5010082C5010050F2FF1F8AC5010058
:1051200092C501009AC50100A3C50100ACC50100EC
:10513000B7C501000421364D364805F065FA3548FB
:1051400005F1700105F068FA3248696F05F06AFAF6
:10515000314B3048197805F0A3F82E4805F10C01C1
:105160004FF0FF3205F008FA11E094F82130294899
:105170002A4901222BB105F0FFF9274B2548197860
:1051800003E005F0F9F92348FF2105F089F894F8C8
:10519000203073B994F82D305BB994F8393043B9A5
:1051A00094F845302BB994F8213013B11C48FEF720
:1051B0008DFC1848002105F0E5F827E094F8203030
:1051C00023BB94F82D300BBB94F83930F3B994F825
:1051D0004530DBB994F82130C3B10E4805F0CAF868
:1051E000E4E7002380F82D30012380F8503039E6C1
:1051F000002384F83930012384F850303DE6002341
:1052000084F84530012384F8503041E608B070BD81
:1052100050F2FF1F883D00208295FF1FB2C401009D
:10522000643D0020054B064A1B780020815C9942B2
:1052300003D201300528F9D1002070478295FF1F65
:105240006895FF1F064B074A19781078814201D2F2
:10525000187070471279914288BF1A70704700BF6A
:105260009D95FF1F9895FF1F10B50446FFF7DCFDC5
:10527000001903D40428C8BF002000E00420064B16
:10528000064C1B5C2370FFF7DDFF05482178BDE865
:10529000104004F0F9BF00BF9895FF1F9D95FF1FB8
:1052A000883D0020064B074A19781078814201D2C8
:1052B000187070471279914288BF1A70704700BF0A
:1052C0008295FF1F6895FF1F10B50F4B0F491A7885
:1052D00000235C5C944203D20133052BF9D10023F7
:1052E000181803D40428C8BF002000E00420074B8E
:1052F000054C1B5C2370FFF7D5FF05482178BDE8FE
:10530000104004F0CDBF00BF8295FF1F6895FF1FBE
:10531000883D0020F0B51E46204B1B788DB004461A
:105320000D461746002B35D01D48214608F0AEFC2F
:1053300018B91B48214608F0B3FC04AC20461849B4
:105340002A46012308F050FC204608F00EFBF0B17D
:10535000002168460CF0C4F9204608F06CFA0126DA
:10536000C1B26D4607E068460CF033FA204608F0FB
:1053700062FA0136C1B2BE42F5DD204608F0E9FA14
:1053800068460CF0CAFA064668460CF068F904A8AC
:1053900008F0A6FA30460DB0F0BD00BF5EADFF1FAD
:1053A000F05B002038B502220B232449244D04462B
:1053B0002448FFF7AFFF0B236874022221482249DB
:1053C000FFF7A8FF6B7C003018BF0120172B687512
:1053D00001D917236B74012200231A481B49FFF7D8
:1053E00099FF012801DC206101E00123236123688A
:1053F00020465B6900219847154912480322FF2384
:10540000FFF788FF134984F820000322FF230D488B
:10541000FFF780FF104984F821000322FF23094889
:10542000FFF778FF064B94F8212094F8201084F8B9
:1054300022009974DA74187538BD00BFCCC501001C
:10544000C8ACFF1FC3C50100DFC50100F4C50100E2
:1054500009C601001CC601002FC6010070B5204C12
:105460002049214E214D0322FF232046FFF752FF02
:105470003070FFF7E7FE284631781D4E04F004FF38
:1054800003223F231B492046FFF744FF3070FFF7FC
:1054900009FF28463178184D04F002FF032200234B
:1054A00020461649FFF736FF0322287000232046C6
:1054B0001349FFF72FFF03226870FF23204611498D
:1054C000FFF728FF0A23A8700F4920460322FFF7A1
:1054D00021FF0E4B18600E48FFF764FF70BD00BF40
:1054E000C3C5010042C601009D95FF1F883D0020F5
:1054F0008295FF1F57C60100F4F2FF1F6CC6010022
:105500007EC6010090C60100A2C601007095FF1F73
:10551000643D002013B5464807F056FC454805F0A9
:10552000ADFF454B4348197804F0AEFE41480121D8
:1055300004F05EFE3F48052105F05AFC3D48082175
:1055400005F07AF83B48192105F06CF839485021EC
:1055500005F042F83748002105F038F8374B1B7842
:105560003BB1FDF759FE33483549012205F004F8F7
:1055700009E030488DF8043001A98DF805308DF828
:10558000063005F013FC01212A4805F09BFC0F2092
:1055900001210BF07BF80F212A4808F091FA2A4BE1
:1055A000003018BF01201870D0B1284C284920467F
:1055B000E160FFF7B5F8002323636063254C2649BB
:1055C00020462160FDF7FAF9244960712448FBF771
:1055D00068FA23486179FBF77CFA4FF0FF33A36048
:1055E00020480168A0F581500131FCF78FF81E4B6F
:1055F0000422122000211A600BF048F81320002129
:105600000BF044F8194A1A4840F203231360536020
:10561000FEF73CFA0C4B1B780BB1FFF71FFF074B53
:105620001B7823B1034804F069FF0028FAD11CBDA0
:105630005DADFF1F883D00209D95FF1F5CADFF1FE6
:10564000B7C60100F05B00205EADFF1F00AFFF1F7B
:10565000CCC6010050F2FF1FD3C60100DEC6010018
:105660006460002050ACFF1FE0F2FF1F00A0044068
:10567000643D002070B5154B1B7888B005460C467C
:10568000164603B31248294608F000FB18B9104823
:10569000294608F005FB68460D492246522308F0CA
:1056A000A3FA0C482146FBF70AFA684608F05DF9B0
:1056B00030B1684631460BF073FF684608F049F98F
:1056C000684608F00DF908B070BD00BF5EADFF1F61
:1056D000F05B002064600020024B034803499A7885
:1056E000FFF7C8BFF4F2FF1FC3C5010090C6010059
:1056F000024B034803495A78FFF7BCBFF4F2FF1F7F
:10570000C3C501007EC60100024B034803491A7855
:10571000FFF7B0BFF4F2FF1FC3C501006CC6010064
:1057200008B5FFF7F1FFFFF7E3FFBDE80840FFF71B
:10573000D3BFFFFF2DE9F04104468AB0236820461D
:105740009B68984700254FEAC5080F270026102EB2
:105750004FF0FF03C8BF8DF8153006A9C8BFC7F1C9
:105760000D0305A8D8BF8DF815708DF816308DF88B
:10577000148006F0FAFD06A8FBF724FA8DF808005D
:10578000C0F30723C0F307408DF80A008DF80930F5
:10579000029BC048ADF820301B0C8DF8223029B296
:1057A00008AB32B205F0E8F8A3689D420ED1E36879
:1057B0009E420BD19DF818308DF81C309DF81930A1
:1057C0008DF81D309DF81A308DF81E3001360F37D8
:1057D000202EFFB2BBD101351F2DB4D1FF260025ED
:1057E000002306A905A88DF814308DF815308DF822
:1057F000166006F0BAFD06A8FBF7E4F98DF808007C
:10580000C0F30723C0F307408DF80A008DF8093074
:10581000029BA048ADF820301B0C8DF822301F21D0
:105820002AB208AB05F0A8F8A7681F2F0ED1E368CD
:105830009D420BD19DF818308DF81C309DF8193021
:105840008DF81D309DF81A308DF81E300135063E5A
:10585000202DF6B2C4D1E26806A8D30090468DF898
:1058600018308DF819308DF81A30FBF7ABF98DF838
:105870000800C0F30723C0F307408DF80A008DF835
:1058800009300AAD029B834825F8083D08AEBFB237
:105890001B0C06F8023F0FFA88F2391FBB1E8DE879
:1058A000240009B21BB205F057F906A8FBF78AF9E4
:1058B0008DF80800C0F30723C0F307408DF80A00F5
:1058C0008DF80930029B2789B4F80C80ADF82030A0
:1058D0001B0C0FFA88F23370391DBB1C8DE82400B5
:1058E00009B21BB26B4805F037F906A8FBF76AF955
:1058F0008DF80800C0F30723C0F307408DF80A00B5
:10590000A7898DF80930029BB4F80880ADF82030E3
:105910003A1F023F0FFA88F11B0C3FB2337012B2EC
:105920000B4600975B48019505F016F906A8FBF7B2
:1059300049F98DF80800C0F30723C0F307408DF83C
:105940000A00A7898DF80930029BB4F80880ADF8E9
:1059500020303A1D02370FFA88F11B0C3FB233702A
:1059600012B20B464B480097019505F0F5F807A8D1
:10597000FBF728F9C0F307238DF808008DF80930EC
:10598000454BBDF80820C0F307408DF80A00987019
:1059900007A81A80FBF716F98DF80800C0F3072353
:1059A000C0F307408DF80A008DF80930029B394892
:1059B000ADF8203029461B0C337004F02DFEE3684F
:1059C0003448112B4FF000014FF00103C8BF0A46C5
:1059D0000093D8BF1722314B04F042FD2D4801211E
:1059E00005F070FA2B48002104F0CCFC2C4B186811
:1059F000FBF7F7FC01380A283DD8DFE800F00D106E
:105A00000609163C3C3C3C3C1600A368013B01E007
:105A1000A3680133A36005E0E368013B01E0E368AC
:105A20000133E3600123237425E0237C002B3FD066
:105A30009DF81C308DF824309DF81D308DF82530F0
:105A40009DF81E3009A88DF82630FBF7BBF8C0F38F
:105A500007238DF808008DF80930BDF808200E4B9B
:105A6000C0F307408DF80A001A809870FFF758FEBF
:105A7000002323741CE0A368002B01DA1F2302E03B
:105A80001F2B01DD0023A360E368002B0ADA1F232C
:105A90000CE000BF883D0020F4F2FF1FF3C60100B8
:105AA0009495FF1F1F2B7FF749AE0023E36045E667
:105AB0000AB0BDE8F08100BF024B034803491A78E1
:105AC000FFF7D8BD8295FF1FC3C5010057C601006F
:105AD0007FB52C4E044603AD236820469B6898474B
