:020000040000FA
:2000000000800020BD01000071DC010035DC010035DC010035DC010035DC010035DC0100DA
:2000200035DC010035DC010035DC010071DC010071DC010035DC010071DC010025DC01008C
:2000400071DC010071DC010071DC010071DC010071DC010071DC010071DC010071DC010030
:2000600071DC010071DC010071DC010071DC010071DC010071DC010071DC010071DC010010
:2000800071DC010071DC010071DC010071DC010071DC010071DC010071DC010071DC0100F0
:2000A00029C5010071DC010071DC010071DC010071DC010071DC010071DC010071DC01002F
:2000C00071DC010071DC010071DC010071DC010071DC010071DC010071DC010071DC0100B0
:2000E00071DC010071DC010071DC010071DC010071DC0100B5FA010071DC0100ADFF0100CF
:2001000071DC0100C903020071DC010071DC010071DC010071DC010071DC010071DC0100EF
:2001200071DC010071DC010071DC010071DC010071DC010071DC010071DC010071DC01004F
:2001400071DC0100E599010071DC010071DC010071DC010071DC010071DC010071DC0100FE
:2001600071DC010099E4010071DC010071DC010071DC010071DC010071DC010071DC0100DF
:2001800071DC010071DC010071DC010071DC010071DC010071DC010071DC010071DC0100EF
:2001A00071DC010071DC010071DC010071DC010071DC010071DC010071DC010010B56B4BA2
:2001C0004CF220521A804DF628121A8000BF00BF1DF052FD4FF01062654B1A60654A08331F
:2001E0001A60654A04331A60A3F530432C3B1B6813F4807F06D10022604B1A604FF4A852CF
:20020000043B1A605E4B1B7813F0080F04D05C4B1A7842F008021A702A225A4B1A705A4BDC
:200220005A4A9A420DD2131D594CE41A24F0030404340023104657495A581A500433A342E8
:20024000FAD1554B554A9A4280F08B80131F5449C91A21F003011A1D1144002243F8042F5A
:200260008B42FBD17DE05A581A500433B3F5DE7FF9D14C4B80214C4A03F8011B9342FBD1E0
:200280004A4B4B4A1A600A224A4B1A702422A3F6FF731A70A022013B1A7006331A7812F03F
:2002A000020FFBD0444B1A7812F0100FFBD1424B1A7802F00C02082AFAD103223F4B1A70FF
:2002C000402201331A7001331A7812F0200FFBD0394B1A7812F0400FFBD0394A394B1A6089
:2002E000022204331A602022374B1A7006331A7802F00C020C2AFAD1344A354B1A60354A18
:20030000354B1A60002204331A600722083B1A60324A03F551631A6062B61DF07FFF174B83
:200320001B6813F0010F05D02D481DF0DDFE2D4A2D4B1A602D4B1B7813F0400F0AD02A4BE0
:200340001A68284B9A4205D125481DF0CDFE0022254B1A6023F0A4FC15F084FA1EF0D0FE93
:20036000FEE70023124822497DE700BF0E20054030800440823F04000100002B14D003400E
:2003800002D0074000E00740889FFF1F6095FF1F8B9FFF1FE0DC0200C45A0020889FFF1F3C
:2003A000BF5A002000E400E05FE400E008ED00E00090FF1F005006400640064004400640EE
:2003C000000003014480044000400640C010050004800440FF76010014E000E00000202064
:2003E0002C068B55A5C3945A1CE0034000F0074000000000FFFFFFFFFFFFFFFFFFFFFFFF2B
:20040000FFFFFFFFFFFFFFFFFFFFFFFFFEFFFFFF10B5054C237833B9044B13B10448AFF34F
:2004200000800123237010BD889FFF1F00000000D8DC020008B5064B1BB106480649AFF3A4
:2004400000800648036813B1054B03B1984708BD00000000D8DC02008C9FFF1F889FFF1FB3
:20046000000000000020704700207047704700BF704700BF01207047012070470C4B5B7D03
:2004800083F001030B4A517880F8311092780C2A84BFA3EB830102EB810280F8322090F8B7
:2004A000322022B903EB43039B0080F832307047142C00202CFAFF1F40697047704700BF35
:2004C000704700BF30B4C8222C4B1A702C490B8803EB432203EB820243F219631A4492B2B7
:2004E000284C226002EB422402EB84021A4492B2254C226002EB422402EB84021A4492B243
:20050000224C226041F27074214D2C60214D2C6002EB422402EB84021A4492B202EB222445
:20052000E4B2048102EB422402EB84021A4492B202EB2224E4B2448102EB422402EB8402E4
:200540001A4492B202EB2224E4B2848102EB422402EB84021A4492B202EB2224E4B2C481B5
:2005600002EB422402EB840213449BB20B8003EB2323DBB2038230BC704700BF14A0FF1F0C
:200580004896FF1F90A6FF1F28A4FF1F98A6FF1F20A4FF1F24A4FF1F0369C361436903625C
:2005A00000238360704700BF0E48038803EB432203EB820243F219610A4492B20A4B1A6009
:2005C00002EB422302EB83030B449BB2074A136003EB432203EB8203194489B20180044BC8
:2005E000196070474896FF1F90A6FF1F28A4FF1F98A6FF1F10B4C16E002907DD02460023CA
:20060000012442F8144F01338B42FADB164B1A68C2602A2383601F21017600234376036116
:2006200002623724C46180F82C1080F82D304362426303240463FF2480F8404080F8413071
:20064000836382644724446480F8541080F85530C364C2655922826580F8681080F8693031
:2006600003665DF8044B7047C056002042F67C33C058704708B500F52E50006810B1036806
:200680001B69984708BD00BF08B500F52E50006810B10368DB68984708BD00BFD0F8A80297
:2006A000704700BF0069704710B40B4B5C791A7942EA44149A790A3A44EA42220280587863
:2006C0009A78D20242EA40121B7842EA63030B805DF8044B704700BF2CFAFF1F10B582B0B1
:2006E00000248DF804408DF805408DF80640034801A917F0A5F8204602B010BD94AAFF1F9E
:2007000030B583B0054600248DF804408DF805408DF80640044801A917F092F8C5F818494F
:2007200085F8244903B030BD94AAFF1F30B583B0054600248DF804408DF805408DF80640EE
:20074000044801A917F07CF841F20A43EC5203B030BD00BF94AAFF1F00B583B000238DF81F
:2007600004308DF805308DF80630034801A917F067F803B05DF804FB94AAFF1F00B583B02A
:2007800000238DF804308DF805308DF80630034801A917F055F803B05DF804FB94AAFF1F5C
:2007A00000B583B000238DF804308DF805308DF80630034801A917F043F803B05DF804FBC2
:2007C00094AAFF1F10B500F11C04204619F0AAFF10B1204619F09AFF10BD00BF10B500F5C0
:2007E0000D74204619F09EFF10B1204619F08EFF10BD00BF10B5044680301EF08BFD204668
:2008000010BD00BF10B50446034B036000F50D7019F034FF204610BD208C020010B50446EE
:20082000034A40F81C2B19F029FF204610BD00BF788A020010B5044600F5166019F01EFF25
:20084000204610BD10B50446002004211EF058FDA073012003211EF053FDE06110BD00BF2B
:200860002DE9F04383B00546624B5E7C0B2E28BF0B26614C2046202116F012FA204605F117
:20088000680116F005FA2046002116F0CBF8204616F08EF8594B1B78002B00F09F80584B94
:2008A0009F785C780C2F84BF0C3FFFB29CB9DFF84881023755F8273001240094404621465B
:2008C000324616F0F9F8009440462146F21D4D4B16F0F2F889E0092C1DD8DFF81C81023454
:2008E00055F824300124009440462146324616F0E3F8009440462146F21D434B16F0DCF860
:20090000023755F8273000944046214606F10E0216F0D2F869E0112C1BD1DFF8DC800237C4
:2009200055F827300124009440462146324616F0C3F86B6A009440462146F21D16F0BCF815
:2009400000944046214606F10E02304B16F0B4F84BE0132C15D8DFF8A080023755F82730B7
:200960000127009740463946324616F0A5F8023455F82430009740463946F21D16F09CF87C
:2009800033E0DFF87490023755F827300127009748463946324616F08FF81D4BA3FB042889
:2009A0004FEAD80808F1140355F82330009748463946F21D16F080F808EB8808A4EB4804DF
:2009C00014F0FF0411D0023455F8243039460097484606F10E0216F06FF806E001210091A7
:2009E000054832460B4B16F067F8002003B0BDE8F08300BF142C002094AAFF1F3D2C002088
:200A00002CFAFF1F548E02005C8E020034970200CDCCCCCC648E020030B585B000248DF80D
:200A200008408DF809408DF80A400D4D284602A916F006FF2846214616F026FF094B1A885D
:200A40009B78ADF80C208DF80E30074B0093284621461B2203AB16F01FFF204605B030BD1E
:200A600094AAFF1F388C0200F095FF1F30B585B000248DF808408DF809408DF80A400D4DAF
:200A8000284602A916F0DCFE2846214616F0FCFE094B1A889B78ADF80C208DF80E30074B99
:200AA0000093284621461B2203AB16F0F5FE204605B030BD94AAFF1F388C0200F095FF1F1D
:200AC00030B585B000248DF808408DF809408DF80A400D4D284602A916F0B2FE2846214670
:200AE00016F0D2FE094B1A889B78ADF80C208DF80E30074B0093284621461B2203AB16F0D8
:200B0000CBFE204605B030BD94AAFF1F388C0200F095FF1F30B585B000248DF808408DF8AF
:200B200009408DF80A400D4D284602A916F088FE2846214616F0A8FE094B1A889B78ADF86F
:200B40000C208DF80E30074B0093284621461B2203AB16F0A1FE204605B030BD94AAFF1FF8
:200B6000388C0200F095FF1F30B585B000248DF808408DF809408DF80A400D4D284602A9F1
:200B800016F05EFE2846214616F07EFE094B1A889B78ADF80C208DF80E30074B00932846AC
:200BA00021461B2203AB16F077FE204605B030BD94AAFF1F388C0200F095FF1F30B585B081
:200BC00000248DF808408DF809408DF80A400D4D284602A916F034FE2846214616F054FEAF
:200BE000094B1A889B78ADF80C208DF80E30074B0093284621461B2203AB16F04DFE2046FC
:200C000005B030BD94AAFF1F388C0200F095FF1F30B585B000248DF808408DF809408DF80F
:200C20000A400D4D284602A916F00AFE2846214616F02AFE094B1A889B78ADF80C208DF887
:200C40000E30074B0093284621461B2203AB16F023FE204605B030BD94AAFF1F388C020060
:200C6000F095FF1F30B585B000248DF808408DF809408DF80A400D4D284602A916F0E0FDD3
:200C80002846214616F000FE094B1A889B78ADF80C208DF80E30074B0093284621461B22E7
:200CA00003AB16F0F9FD204605B030BD94AAFF1F388C0200F095FF1F30B585B000248DF8FA
:200CC00008408DF809408DF80A400D4D284602A916F0B6FD2846214616F0D6FD094B1A885F
:200CE0009B78ADF80C208DF80E30074B0093284621461B2203AB16F0CFFD204605B030BDCE
:200D000094AAFF1F388C0200F095FF1F30B585B000248DF808408DF809408DF80A400D4D0C
:200D2000284602A916F08CFD2846214616F0ACFD094B1A889B78ADF80C208DF80E30074B98
:200D40000093284621461B2203AB16F0A5FD204605B030BD94AAFF1F388C0200F095FF1FCB
:200D600030B585B000248DF808408DF809408DF80A400D4D284602A916F062FD284621461E
:200D800016F082FD094B1A889B78ADF80C208DF80E30074B0093284621461B2203AB16F086
:200DA0007BFD204605B030BD94AAFF1F388C0200F095FF1F2DE9F04F89B005460020FF21D5
:200DC0001EF09EFA3349C2B291F8083C009305A801F60941FF2317F045FF0026029603966B
:200DE0003FE0029802211EF08BFA012806D19DF814909DF815809DF8167003E0029FDDF8AD
:200E00000C80C1461FFA86FB297A59441FFA84FA6A7A52448DF818908DF819808DF81A70FA
:200E20001D4809B212B206AB16F014F9012E12DC2B7A0433CBEB03016B7A0AEB03028DF8F3
:200E40001C908DF81D808DF81E70134809B212B207AB16F0FFF80134052CC2D10136032EC7
:200E600001D00024BDE72B7A0633DBB2192B01D82B7204E001232B726B7A06336B726B7A2F
:200E8000192B02D901232B726B727D2009B0BDE8F08F00BFE4ECFF1F94AAFF1F2DE9F04FBD
:200EA00089B005460020FF211EF02AFA4049C2B291F8083C009305A801F60941FF2317F0C8
:200EC000D1FE4FF00009CB46CA46CDF8089051E0504602211EF014FA012806D19DF814804E
:200EE0009DF815709DF8166002E05646029FB846297A494489B26A7A224492B28DF818809A
:200F00008DF819708DF81A604B1C501C00B2009006A80190274809B212B21BB216F06AFC49
:200F2000BBF1010F19DC2B7A6A7A224492B28DF81C808DF81D708DF81E6003991944093362
:200F4000C9EB0303501C00B2009007A80190194809B212B21BB216F04DFC0234A4B20A2C2B
:200F6000B6D10BF1010B09F102091FFA89F9BBF1030F05D0C9F108039BB203930024A7E755
:200F80002B7A0B33DBB2162B01D82B7204E000232B726B7A0B336B726B7A162B02D9002362
:200FA0002B726B724FF4FA7009B0BDE8F08F00BFE4ECFF1F94AAFF1F2DE9F04F8DB000246E
:200FC0008DF824408DF825408DF826403D4809A916F036FC2046FF211EF092F93A49C2B2CE
:200FE00091F8083C009308A801F60941FF2317F039FE01250395A246A34602944BE0584652
:2010000002211EF07DF9012806D19DF820909DF821809DF8227003E05F46DDF80880C1469B
:20102000A5B2261DB6B28DF828908DF829808DF82A7033B200930AAB01932248DDF810E034
:201040000FFA8EF12AB2DDF814E00FFA8EF316F0D1FBBAF1010F11DC8DF82C908DF82D80EC
:201060008DF82E7036B200960BAB01931548079A11B22AB2069D2BB216F0BCFB0634A4B21B
:201080001F2CBCD10AF1010A039DAB1D9BB20393BAF1030F10D0039DADB20495039D2B1D0A
:2010A0009BB20593C5F11A039BB20793C5F11E039BB206930124A2E74FF4FA600DB0BDE827
:2010C000F08F00BF94AAFF1FE4ECFF1F2DE9F04F83B083464FF000094FF00F0A204E4FEAF0
:2010E000C9085FFA88F855460024FF27102C06DC8DF800808DF801508DF8027007E08DF805
:2011000000808DF80170C5F10D038DF80230684601A917F073FE9DF8042096F830309A4289
:2011200010D19DF8052096F831309A420AD19DF8062096F832309A4204D1CBF80890CBF8F4
:201140000C4009E001340F35EDB2202CCED109F10109B9F11F0FC2D103B0BDE8F08F00BF52
:2011600060F9FF1F2DE9F04F83B083464FF000094FF00F0A1E4E4FEAC9085FFA88F855461D
:201180000024FF27102C06DC8DF800808DF801508DF8027007E08DF800808DF80170C5F17D
:2011A0000D038DF80230684601A917F027FE9DF8042033789A420ED19DF8052073789A4244
:2011C00009D19DF80620B3789A4204D1CBF80890CBF80C4009E001340F35EDB2202CD1D145
:2011E00009F10109B9F11F0FC5D103B0BDE8F08FD0FAFF1F08B51CF071FF08BD2DE9F04773
:2012000086B00546D0F81839002B31DC00238DF80C308DF80D308DF80E30AD4803A916F0EC
:201220000FFB05F10F0305F20F10002106E003F8011F9342FBD1824203D0134603F11002CD
:20124000F5E710201EF050F8044610201EF04CF8C5F81841C5F81C010123C5F8183900201E
:2012600085F824094FF480711EF04AF885F82509D5F81809D5F81C39012B01D0441E02E044
:201280001EF032F80446002CC0F2CA8004F1230205F5887305EBC20292E8030083E80300F6
:2012A0008046D5F814912F4600264FF0040A304651461EF025F897F82639284490F82629A5
:2012C00087F8262980F8263901360137042EEED195F82529D5F81C39012B0CD07D492244D8
:2012E00091F8083C009302A801F60941D2B2FF2317F0B8FCACE095F82429531C85F8243993
:20130000744991F8083C009302A801F60941FF2317F0A8FC9CE093F82609022809D0042893
:201320000DD0012811D1D5F81061D5F81471013F10E0D5F81061D5F8147101370AE0D5F886
:201340001061013ED5F8147104E0D5F810610136D5F814710F2E52D80F2F50D805EB07110B
:201360003144097C00294AD14FEA48014FEA4902D5F81441D5F8103105EB041423441C7CF2
:2013800004431C7405EB071333441B7C022869D0042860D0012800F0918005EB07143444F2
:2013A00043F004032374022807D0042807D0012818BF013105D1013A03E0013201E00139E4
:2013C000FFE79DF809009DF80A309DF808408DF814408DF815008DF816303D4809B212B29B
:2013E00005AB15F037FED5F818395A1CC5F81829233305EBC30245F83360576010E00133BB
:20140000934288D135E0013493E8030003E90300D5F81829013A08339442F4DBC5F81829C0
:20142000D5F81839002B0EDCD5F81C390133C5F81C39D5F82029934207DB0023C5F81C390F
:201440004FF47A7041E000203FE04FF47A703CE02A1D2B465FE705EB0710304443F00803FF
:201460000374ACE705EB0710304443F001030374A3E704F1230305EBC30255F83310490006
:20148000526852009DF809009DF80A309DF808608DF810608DF811008DF812300C4809B275
:2014A00012B204AB15F0D6FDD5F81829013A9442B4DA04F1240305EBC303A4E705EB0710D0
:2014C000304443F00203037475E706B0BDE8F08794AAFF1FE4ECFF1F2DE9F04F8FB0244C6D
:2014E00000250027A046DFF88C904FF0814B0020FF211DF005FF0020FF211DF001FF2846B0
:2015000022F054F920606760C8EB040608F10803F75006EB030A284621F0F6FC12A3D3E93D
:20152000002321F057FD22F037F8CAF8040008F11003F7501E447760C4F81890C4F81C90C4
:20154000C4F820B04FF082436362EB0084F828300C9BE362012384F830301D443434202D75
:20156000C5D10FB0BDE8F08F7B14AE47E17A84BF6C2C00200000204110B50446436919449F
:201580004161037E994202DB0023436104E00029BCBF03F1FF334361E06A10B103681B695D
:2015A0009847636904EB8303D869E06210B10368DB68984710BD00BF2DE9F04F91B0364999
:2015C0000B8803EB432203EB820343F2196213449BB2038103EB432403EB840313449BB26C
:2015E000438103EB432403EB84031A4492B20A8082812A4C0026DFF8AC904FF07C5A20202A
:201600001DF072FE05460020FF211DF079FE83460020FF211DF074FE0190284622F0C2F8EB
:20162000206066601D4BE51A984603F10807584622F0BCF8494622F0C1F9514622F000F8BC
:20164000E8512F44019822F0B1F8494622F0B6F9514621F0F5FF786008F11003EE501D441B
:201660006E600F4BA3614FF07F53E3614FF0814323624FF082436362002384F828300E9BF8
:20168000E362012384F83030343408F502639C42B5D111B0BDE8F08F4896FF1F6C2C00203E
:2016A000CDCC4C3D00007F4310B504460020217E1DF026FE6061237E984202DB0023636147
:2016C00004E00028BCBF03F1FF336361E06A10B103681B699847636904EB8303D869E062FC
:2016E00010B10368DB68984710BD00BF2DE9F04F83B08346002002211DF002FE00280346FE
:2017000008BF4FF0FF330193DBF80830002B4FDD294C002500270020FF211DF0F1FD00207F
:20172000FF211DF0EDFD282032211DF0E9FD8246224B2360C5F11F0022F038F860601E4B0C
:20174000E61A984603F10809504622F02FF81C4922F034F98246019822F028F801465046C3
:2017600022F078F846F80900B144C9F8047008F1100846F80870B044C8F80470114BA36127
:201780004FF07F53E3614FF0814323624FF0824363626B0184F828304FF07E53E3620123EA
:2017A00084F830301D443434DBF80830AB42B2DC03B0BDE8F08F00BF6C2C002000007041FF
:2017C0000000C842CDCC4C3D10B50446C3682BB11A4A1268D31A026993421CD90022184B42
:2017E0001A7018481BF090FA18B10122144B1A7017E0154B1B78DBB194F833302BB91348F1
:201800001BF0FAF9012384F833301BF0ADF90D491BF04EF805E0E06A70B103689B689847D2
:201820000AE001220A4B1A70044B1B68E360F2E70022074B1A70EEE7002010BDC0560020D8
:2018400094A6FF1F2CFAFF1F3C2C0020F51100003D2C00202DE9F04F93B00B9041F20A4322
:20186000C35A002B40F0BD838DF83C308DF83D308DF83E30AF480FA915F0E2FF04201DF014
:2018800033FD032800F2AD81DFE810F016000D000400480100221346A74D174640F6F52679
:2018A0004FF0FF0812E100221346A34D174640F6F5264FF0FF08A6E0002213469E4D174647
:2018C00040F6F5264FF0FF083AE085FB04AB4FEAE47ACAEBAB0A80F80DA080F80EC080F844
:2018E0000FE00133B3F5806F00F06083FF3403304B45EAD1FF31B1421ED085FB010CC8172D
:20190000C0EBAC0C5FFA8CFC03EB43040834DDF82C904C44A77084F803C084F804E05C1CC3
:20192000B4F5806F00F0428303EB4300484403F10B0923464446C8E7FF32B24200F0368325
:2019400085FB02AED117C1EBAE0E5FFA8EFE3946D3E7284631461DF0D3FC94F800C094F850
:2019600001E0A17800EB40003B1833F80A2F9B782280A37000F108023A4482F802C082F894
:2019800003E0117101350334B5F5806FE1D128E180F80DE085FB04AB4FEAE47ACAEBAB0A8C
:2019A00080F80EA080F80FC00133B3F5806F00F00683FF3403304B45EAD1FF31B1421ED0B4
:2019C00085FB010CC817C0EBAC0C5FFA8CFC03EB43040834DDF82C904C4484F802E0E77010
:2019E00084F804C05C1CB4F5806F00F0E88203EB4300484403F10B0923464446C8E7FF32A5
:201A0000B24200F0DC8285FB02AED117C1EBAE0E5FFA8EFE3946D3E7284631461DF070FC88
:201A200094F800C094F801E0A17800EB40003B1833F80A2F9B782280A37000F108023A44B1
:201A400082F802C082F803E0117101350334B5F5806FE1D1C5E080F80DE080F80EC085FBE3
:201A600004AB4FEAE47ACAEBAB0A80F80FA00133B3F5806F00F0AC82FF3403304B45EAD1F5
:201A8000FF31B1421ED085FB010CC817C0EBAC0C5FFA8CFC03EB43040834DDF82C904C44F3
:201AA00084F802E084F803C027715C1CB4F5806F00F08E8203EB4300484403F10B092346B3
:201AC0004446C8E7FF32B24200F0828285FB02AED117C1EBAE0E5FFA8EFE3946D3E72846A8
:201AE00031461DF00DFC94F800C094F801E0A17800EB40003B1833F80A2F9B782280A370DD
:201B000000F108023A4482F802C082F803E0117101350334B5F5806FE1D162E00020FF21F7
:201B20001DF0EEFBC6B2DDF82C804FF0000BD946FF2751E094AAFF1F67666666B5F5806F68
:201B400015DA8DF838608DF839408DF83A700EA811A917F03FF99DF844109DF845209DF825
:201B600046308AF800108AF801208AF8023001351034A4B20AF1030AB4F5807FDED1DA46B7
:201B80000BF11005C346B5F5806F15DA8DF838608DF839708DF83A400EA810A917F01AF9D0
:201BA0009DF840109DF841209DF842308BF83A108BF83B208BF83C300135103CA4B20BF1D5
:201BC000030B002CDFD10AF1200B0836F6B208F16008BBF5806F04D008F10A0A5D464C46F9
:201BE000ACE702201DF080FB41F20C43DDF82C9009F8030009F60A4009F62A44002208E0D1
:201C00001A7083F8002420338B42F9D10130A04203D000F580610346F2E741F20A43DDF87E
:201C20002CA03AF8033003EB4302524432F80A1F9278ADF834108DF8362053B920201DF030
:201C400053FBC0B20A9020201DF04EFBC0B2099043E19DF83490CDF81C909DF835A0CDF86C
:201C600018A09DF83690CDF8149041F20C43DDF82CA01AF8033033B90020029009900A90AF
:201C8000C349089198E04FF00009CDF80C90CDF82490CDF82890BE49049119E1029A5A44B8
:201CA00041F20A03D35C002B7AD0029A02320392029B5E1EDFF8D8A207F1FF39CDF81090DC
:201CC000CDF804B0B6F1FF3F4AD0202E48D0DDF8049009F60A4507F102083544049C0FFA4B
:201CE00086FB0FB90298B8B3B4F1FF3F34D0202C32D015F8203C7BB3A64821B25A4615F064
:201D00005BF98DF83800C0F307228DF83920C0F307438DF83A30C0B2DDF81C90C9EB000065
:201D2000D2B2DDF81890C9EB0202DBB2DDF81490C9EB030302FB02F200FB002003FB030914
:201D4000D14507DB08D102201DF0CEFA012818BFCA4601D1CA46FFE7013420354445C0D13F
:201D60000136DDF80C904E45ACD1DDF804B054460898824507DB13D102201DF0B5FA012854
:201D800018BF08940CD15FFA87F9CDF82890DDF808905FFA89F9CDF82490CDF820A0FFE771
:201DA00001370BF1200B202F7FF478AF029801300290202800F09180DDF82CA04FF0000B4A
:201DC0005F46D3466AE7039A524441F20A03D35C002B6DD0DDF80C9009F1FF364FF0000902
:201DE000CDF804904FF0FF380BEB08000290CDF820B0B6F1FF3F39D0202E37D00AF60A455D
:201E00000AF66A4737443544029C0FFA86FBB4F1FF3F27D0202C25D015F8203C13B309F1B1
:201E200001095C4821B25A4615F0C6F88DF83800C0F307228DF83920C0F307438DF83A305B
:201E4000C0B20799401AD2B20699521ADBB205995B1A02FB02F200FB002003FB0303019A3C
:201E60001A44019201342035BD42D0D108F101080136B8F1020FBCD1DDF820B0019B93FBF8
:201E8000F9F40498844207DB12D102201DF02CFA012818BF04940BD15FFA8BF9CDF828900B
:201EA000DDF80C905FFA89F9CDF824900494FFE70BF1010B0AF1200ABBF1200F83D1DDF8AE
:201EC0000CA00AF1010ACDF80CA05046202804D0DDF82CA04FF0000B75E7DDF82C90DDF880
:201EE00028A009EB4A12DDF824904A4402F5805300219972012382F80A3C264851464A4644
:201F00000DAB15F0A7F809F1FF300AF1FF3209F58053093303EB42130B9D1D444FF0FF3148
:201F2000944600270126B0F1FF3F1BD0202819D062462C463B4602E0013320340132012B1A
:201F400001D10029F8D0B2F1FF3F09D0202A07D0A4F5806898F80080B8F1000F00D1267033
:201F6000012BE9DD0131013001350229DBD141F20A43DDF82CA03AF8033001339BB2B3F550
:201F8000806F09D241F20A422AF80230002035E03F420F0094AAFF1F002241F20A43DDF80C
:201FA0002C9029F8032040F6B83027E0DDF82CA00AF10A0400254FF480665746C9E4DDF8E5
:201FC0002C9009F10A0400254FF480664F4623E5DDF82CA00AF10A0400254FF480665746BD
:201FE0007DE503EB4303DDF82C904B4433F80A2F9B78ADF834208DF836302AE613B0BDE858
:20200000F08F00BFF0B583B00446467C274B1B78D3B1274B9D78437D2BB90C2D02D90C3D8D
:20202000EDB200E0E5B12348052114F0FBFC04F1080021492A461E4B5B7822F0E7FB0A2DC1
:2020400034BF0427012718E01A48002114F0EAFC1A4B03CBA060E1601B78237401270CE023
:202060001448052114F0DEFC04F1080012490C220F4B5B7822F0CAFB01270E4D2846202144
:2020800014F00EFE284604F1120114F001FE284614F08EFC0123009328463946324604F1AA
:2020A000080314F009FD002003B0F0BD3D2C00202CFAFF1F94AAFF1F708E0200648E02006E
:2020C0002DE9F04383B00546504B1B785BB350481AF0B2FC2B6A98421CDA181A4D4BA3FBE0
:2020E0000023DB0ADAB24FF4616404FB12044A49A1FB04646409A0EB0313C4EB0411A3EB38
:202100008103DBB2009305F108004449E3B222F07DFB0EE00023009305F108003F491A46E7
:2021200022F074FB05E03E4B03CBA860E9601B782B743C4814F03CFC344B1B78E3B1344B7A
:202140009C78394B5B7D2BB90C2C02D90C3CE4B200E0ECB13348052114F064FC33483449C0
:2021600022462B4B5B7822F051FB0A2C34BF4FF004094FF0010918E02A48002114F052FCB5
:20218000274A2A4B07CA03C31A704FF001090CE02448052114F046FC244825490C221C4BBC
:2021A0005B7822F033FB4FF001091E4C2046202114F076FDDFF8708008F11207204639467D
:2021C00014F066FD204614F0F3FB0126009620464946002208F1080314F06EFC2046002173
:2021E00014F020FC2046202114F05AFD2046394614F04EFD0096204631461A2205F10803D9
:2022000014F05AFC002003B0BDE8F0833D2C00202CFAFF1FC5B3A29189888888788E0200D8
:20222000648E020094AAFF1F142C00201C2C0020708E02002DE9F04F9FB003904D4CDFF8DF
:202240005091DFF840814FF07C5B4FF0000A0020FF211DF055F801900020FF211DF050F8E6
:202260000290C4F80090C4F804904249651A0F4601F10806019821F099FA414621F09EFB63
:20228000594621F0DDF9A8512E44029821F08EFA414621F093FB594621F0D2F9706007F1B1
:2022A000100345F803A01D44C5F804A04FF0814323624FF082436362002384F828300F9B77
:2022C000E362012384F830302B4BE3612B4BA361343407F502729442B9D1002002211DF0FD
:2022E0000FF80028D4BF00200120039B83F8450000283BD00020FF211DF002F80546002098
:20230000FF211CF0FDFF04461D4B03998B60CB60284621F04BFA1B4921F050FB4FF07C51A1
:2023200021F08EF9039A1061204621F03FFA154921F044FB4FF07C5121F082F9039B5861AA
:20234000002303998B61CB61002281F830201C9A4A63012281F8382081F845200A4A4A6286
:202360000A4A0A624FF08342CA628B621FB0BDE8F08F00BF6C2C00205C8FC23E8FC2753C29
:202380000000F84100007F43B81EC53E0AD7A33C000070412DE9F04387B000258DF810506E
:2023A0008DF811508DF81250214804A915F048FADFF88490DFF884801E4E06F60947D8F8A5
:2023C000003095FBF3F359F823402246002CB8BFE21C96F8083C009303A83946C2F38702CD
:2023E000FF2316F03FFCABB29DF80D109DF80E209DF80C008DF814008DF815108DF8162009
:2024000019B22246002CB8BF04F11F025211C2F120021F20009005A80190054812B21BB2AD
:2024200014F064FF0135202DC9D107B0BDE8F08394AAFF1FE4ECFF1FD4FAFF1FA895FF1FB8
:202440002DE9F04F87B000278DF810708DF811708DF81270294804A915F0F2F9284B1D1FFA
:2024600003F1380BDFF89C8008F6094ADFF88C9055F8044F6E682246002CB8BFE21C98F8DF
:20248000083C009303A85146C2F38702FF2316F0E9FB2346002CB8BF04F11F035A11C2F198
:2024A0002002D2B23346002EB8BF06F11F035B11C3F12003DBB2BC1CA4B29DF80D009DF80A
:2024C0000E109DF80C608DF814608DF815008DF816101F2B28BF1F23009305AB01934846C7
:2024E00039B21F2A28BF1F2223B214F0FFFE5D4501D02746BCE707B0BDE8F08F94AAFF1FF0
:20250000D4FAFF1FE4ECFF1F2DE9F04F91B00D900023734DEB202968CA18CC5C00FB04F432
:202520002412CC54517800FB01F109125170917800FB01F1091291700333B3F5406FEAD159
:2025400000220C92DFF8B8B1D946664B0C9AD5580D9A937A13B1644B0C9AD5582B46002D40
:20256000B8BFEB1CC3F387044FF002082E4627465B4991F8083C00930EA801F609413A46F7
:20258000FF2316F06FFB304620F0BEFC0022574B20F020FD0022564B20F068FB20F0FCFF37
:2025A0000446002121F012FB002800F08380204620F0BCFC82468B46484620F0B7FC46A376
:2025C000D3E9002320F006FD20F0E6FF20F0AEFC04460D461EF0F8F9CDE90401204629462E
:2025E0001EF028F9CDE906014846424921F028F820F09CFC38A3D3E9002320F0EBFC20F03C
:20260000CBFF20F093FC04460D461EF0DDF9CDE90801204629461EF00DF9CDE90A019DF8D2
:2026200039209DF83A309DF838108DF83C108DF83D208DF83E3050465946DDE9042320F08D
:20264000C9FC00222C4B20F013FB20F05DFF04B250465946DDE9062320F0BCFC0022264B5D
:2026600020F006FB20F050FF00B2009050465946DDE9082320F0AEFC00221F4B20F0F8FA3A
:2026800020F042FF00B2019050465946DDE90A2320F0A0FC0022184B20F0EAFA20F034FF16
:2026A00000B202900FAB039314480F210A46234614F0D6FF48460F4920F0C2FF8146B8F141
:2026C00001087FF455AF0C9B04330C931C2B7FF43CAF11B0BDE8F08F399D52A246DF913FB4
:2026E000E4ECFF1FC8ECFF1F0CFAFF1F0000903F0000F03F0000C84100002E4094AAFF1F25
:202700000000B443AFF300802DE9F04F93B00546837B032B00F20B82DFE813F004007600CE
:20272000E8005E010024AA4F07F60949DFF8A482E6B2AB7A03EB4603DBB213F0800F1CBFFB
:20274000DB43DBB25B00DBB213F0800F00F0E48183F0FF0303F1010B5FFA8BFB0BFB03F3AF
:202760004FEAD31B0BF0FE0B8BF0FF0B2B699BFBF3FB1FFA84FA6A7B324497F8083C009339
:2027800003A84946D2B2FF2316F06CFA9DF80D209DF80E309DF80C108DF808108DF809205C
:2027A0008DF80A3040460FFA8AF15A4602AB14F051FCEB69022B23D1AB69CBEB030B1FFA4C
:2027C0008BFB6A7B324497F8083C009305A84946D2B2FF2316F046FA9DF815209DF81630E5
:2027E0009DF814108DF810108DF811208DF8123040460FFA8AF10FFA8BF204AB14F02AFC95
:202800000134202C94D192E10024714F07F60949DFF8C081E6B2AB7A03EB4603DBB213F090
:20282000800F1CBFDB43DBB25B00DBB213F0800F00F0808183F0FF0303F1010B5FFA8BFBC4
:202840000BFB03F34FEAD31B0BF0FE0B8BF0FF0B2B699BFBF3FB1FFA84FA6A7B324497F833
:20286000083C009307A84946D2B2FF2316F0FAF99DF81D209DF81E309DF81C108DF8181081
:202880008DF819208DF81A30404659460FFA8AF206AB14F0DFFBEB69022B23D16B69CBEB73
:2028A000030B1FFA8BFB6A7B324497F8083C009309A84946D2B2FF2316F0D4F99DF8252017
:2028C0009DF826309DF824108DF820108DF821208DF8223040460FFA8BF10FFA8AF208ABAF
:2028E00014F0B8FB0134202C94D120E10024384F07F60949DFF8DC80E6B2AB7AC3EB460359
:20290000DBB213F0800F1CBFDB43DBB25B00DBB213F0800F00F0198183F0FF0303F1010B99
:202920005FFA8BFB0BFB03F34FEAD31B0BF0FE0B8BF0FF0B2B699BFBF3FB1FFA84FA6A7B78
:20294000324497F8083C00930BA84946D2B2FF2316F088F99DF82D209DF82E309DF82C1086
:202960008DF828108DF829208DF82A3040460FFA8AF15A460AAB14F06DFBEB69022B23D1AD
:20298000AB69CBEB030B1FFA8BFB6A7B324497F8083C00930DA84946D2B2FF2316F062F9B4
:2029A0009DF835209DF836309DF834108DF830108DF831208DF8323040460FFA8AF10FFAC4
:2029C0008BF20CAB14F046FB0134202C94D1AEE0E4ECFF1F94AAFF1F0024694F07F6094995
:2029E000DFF8A081E6B2AB7AC3EB4603DBB213F0800F1CBFDB43DBB25B00DBB213F0800F0C
:202A000000F0AE8083F0FF0303F1010B5FFA8BFB0BFB03F34FEAD31B0BF0FE0B8BF0FF0B98
:202A20002B699BFBF3FB1FFA84FA6A7B324497F8083C00930FA84946D2B2FF2316F012F929
:202A40009DF83D209DF83E309DF83C108DF838108DF839208DF83A30404659460FFA8AF25C
:202A60000EAB14F0F7FAEB69022B23D16B69CBEB030B1FFA8BFB6A7B324497F8083C00933B
:202A800011A84946D2B2FF2316F0ECF89DF845209DF846309DF844108DF840108DF84120B5
:202AA0008DF8423040460FFA8BF10FFA8AF210AB14F0D0FA0134202C94D138E00168CA18BD
:202AC000CC5CC4EBC414E411CC545178C1EBC111C91151709178C1EBC111C91191700333B8
:202AE000B3F5406FEAD12B7A6A7A9A4205D800232B72AB7A0133AB7201E001332B72EB7A35
:202B00002A7B9A4205D80023EB726B7B01336B7331E00133EB722EE003F1010B5FFA8BFB50
:202B20000BFB03FB4FEADB1B0BF0FE0B1EE600231348C3E703F1010B5FFA8BFB0BFB03FB4F
:202B40004FEADB1B0BF0FE0B82E603F1010B5FFA8BFB0BFB03FB4FEADB1B0BF0FE0BE9E6F5
:202B600003F1010B5FFA8BFB0BFB03FB4FEADB1B0BF0FE0B54E7002013B0BDE8F08F00BF3E
:202B8000E4ECFF1F94AAFF1F2DE9F04F97B00290554B1B684FF40C3202FB03F2120ED3B282
:202BA00013F0400F00F01082DB43DBB203F03F0103F00F0301334D480911490044186478FA
:202BC00003FB04F3415C01EB2313DBB212F0800F18BF5B42DBB283F0800303EB830318118F
:202BE0005638C0B20023424D2968CA18CC5C00FB04F42412CC54517801FB00F109125170AD
:202C0000917801FB00F1091291700333B3F5406FEAD1029A9368002B40F3DB81DFF8D480DE
:202C20004FF0000ACDF828A0324B5AF80320049203EB0A02039252680692039A92680D921F
:202C400003EB0A02D2680E92039A1269089253445B690F93C346D8F818301093D8F81C2021
:202C60000992D8F820301193D8F82420129298F828300B93D8F82C200C9298F83030139367
:202C8000029A5069049920F0DBFC0746029B9869069920F0D5FC06463846394620F0DAFDC0
:202CA00004463046314620F0D5FD0146204620F0C9FC20F03BF904460D461EF04BF820F037
:202CC0006BFC81460C4920F063FF48B948464FF0844120F07BFF98B9484620F027F911E0E2
:202CE000002006490EE000BFC0560020448E0200E4ECFF1F6C2C00200000A04000001440D4
:202D00000020AC4920F048FC8146204629461EF021F820F041FC002120F030FF38BB204681
:202D200029461EF017F820F037FC20F0FFF802460B460020A04920F077FA04460D4638467F
:202D400020F0F4F802460B462046294620F042F920F022FC0746304620F0E8F802460B4644
:202D60002046294620F036F920F016FC0646029A1069D16820F06EFD01460C9820F06AFDA6
:202D800004464846494620F065FD0146204620F015FE20F0CBF804460D46384620F0C6F8CE
:202DA00002460B462046294620F014F920F0F4FB0146089820F046FC0746304620F0B6F8CF
:202DC00002460B462046294620F004F920F0E4FB01460F9820F036FC08900D98394620F08D
:202DE00031FC81460E98089920F02CFC06464846494620F02FFD04463046314620F02AFD4D
:202E00000146204620F01EFC04460998014620F021FD0146204620F0D9FE002851D0204638
:202E200020F084F804460D461DF094FF20F0B4FB002120F0A3FE38BB204629461DF08AFFDA
:202E400020F0AAFB20F072F802460B4600205A4920F0EAF904460D46484620F067F8024612
:202E60000B462046294620F0B5F820F095FB8146304620F05BF802460B462046294620F0B1
:202E8000A9F820F089FB0646099820F04FF804460D46484620F04AF802460B4620462946CE
:202EA00020F098F820F078FB8146304620F03EF802460B462046294620F08CF820F06CFBF3
:202EC00006460498494620F0BDFB05460698314620F0B8FB0446384620F028F80022002353
:202EE00020F078F8CDE90401089820F01FF80022002320F06FF8CDE90601304991F8083C11
:202F0000009315A801F609410B9AFF2315F0AAFE9DF855209DF856309DF854108DF85010A9
:202F20008DF851208DF85230284620F059FE07B2204620F055FE02B22148394614AB14F0DE
:202F400089F8204F4AF80750039B5C6007EB0A04C4F80890E660DDE9040120F01DFB206180
:202F600010375744DDE9060120F016FB7860109ACBF81820099BCBF81C30119ACBF82020A3
:202F8000129BCBF824300B9A8BF828200C9BCBF82C30139A8BF830200A9B01330A930AF146
:202FA000340A08F13408029A93680A9A93423FF73BAE0EE0000040400000F03FE4ECFF1FE4
:202FC00094AAFF1F6C2C002003F03F0103F00F03F1E50F2017B0BDE8F08F00BF2DE9F047A9
:202FE00084B000233C4DAA202968CA18CC5C00FB04F42412CC54517800FB01F109125170B1
:20300000917800FB01F1091291700333B3F5406FEAD1002620253446DFF8C8902E4F07F6C8
:203020000948FF2D9ABF290289B22946D9F800304FF48C7202FB03F201FB02F2120ED3B21C
:2030400013F0400F3ED0DB43DBB203F03F0103F00F03013321480911490000EB010E9EF89D
:2030600001A003FB0AF3415C01EB2313DBB212F0800F18BF5B425FFA83FA97F8083C009327
:2030800003A841463246FF2315F0ECFD9DF80D209DF80E309DF80C108DF808108DF80920E5
:2030A0008DF80A308AF080020D4821B2D20802AB13F0D0FF01340135ADB20736F6B2202CD9
:2030C000AFD104E003F03F0103F00F03C2E70F2004B0BDE8F08700BFE4ECFF1F448E02002B
:2030E00094AAFF1FC05600202DE9F04F85B005460023454EAA243168CA18C85C04FB00F057
:203100000012C854517804FB01F109125170917804FB01F1091291700333B3F5406FEAD18D
:2031200020260024DFF8F0A0DFF8F0B0DFF8D88008F609492246002CB8BFE21CC2F3870281
:20314000062A28BF06225AF82230A97A09B15BF82230FF2E9ABF300280B230462B4A1268BB
:203160004FF48C7101FB02F100FB01F1090ECAB212F0400F40D0D243D2B202F03F0002F083
:203180000F020132224F0011400007EB000E9EF801E002FB0EF2385C00EB2212D2B211F07D
:2031A000800F18BF5242D7B21A46002BB8BFDA1C98F8083C009303A84946C2F38702FF2393
:2031C00015F050FD9DF80D209DF80E309DF80C108DF808108DF809208DF80A3087F0800254
:2031E0000C4821B2D20802AB13F034FF01340136B6B2202C05D09DE702F03F0002F00F023E
:20320000C0E705B0BDE8F08FE4ECFF1FC0560020448E020094AAFF1FC8ECFF1F0CFAFF1FE4
:203220002DE9F041B8B00446B14B1B78002B00F05B814369002B40F3578100F11C063046A4
:2032400017F070FA10B1304617F060FAA26925696369002D7ADB9D4278DA08A8A54901238B
:2032600017F0E4FB08A817F05DFA00286BD010A808A9012217F08EFC9F4F5AE010A817F0F3
:2032800045FA56E010A817F0FFF9014603785F2B2AD07E2B28D02E2B26D034A81CF086F866
:2032A00034A81CF0D1F9014604A81CF0BBF834A81CF030F830A839461CF078F804A830A942
:2032C0001CF066F9804630A81CF024F804A81CF021F8B8F1010F07D1013D10A817F0D4F991
:2032E0000146684621F088FC10A817F00FFA28A808A9012217F04EFC9DF8A4308DF8443025
:203300002A9B12939DF8AC308DF84C3038AB53F8330D59689A68CDF84D00CDF85110CDF8A3
:2033200055201B7B8DF859302F9B179328A817F0A5F910A817F0F6F9002800F09680002D82
:2033400080F2A08091E008A817F098F904F141052846A16921F050FC2846694621F09EFA4C
:2033600020A864492A46012317F060FB9DF8843084F82030229B63629DF88C3084F8283026
:2033800038AB53F8535D58689968C4F82950C4F82D00C4F831101B7B84F83530279BA36334
:2033A00020A817F06BF9304617F0BCF9002800F09B8094F820E08DF864E0676A1A9794F812
:2033C00028008DF86C004D4B1893234653F8295F59689A68CDF86D50CDF87110CDF8752070
:2033E000197B8DF87910A26B1F92454D85F864E9C5F8687985F86C09DDF86DE0DDF87170A9
:20340000DDF87500C5F86DE9C5F87179C5F8750985F87919C5F87C2918A817F02FF90023EA
:20342000237205F5166010A9062217F039F910A83449062221F06EFC78B310A8324906220F
:2034400021F068FC48B324E003F007030133012202FA03F32A498B6503EB430201F51660B0
:203460005C3192B217F01CF93EE010A817F04EF908A817F04BF910A817F000F908A817F0D1
:20348000FDF863E710A817F001F900287FF4F6AEF8E6304617F03AF926E0194C04F5166588
:2034A000284617F075F80646284617F071F846EA00202060284617F06BF80646284617F097
:2034C00067F846EA00206060284617F061F8A060284617F05DF82061284617F059F8E0605E
:2034E000A36813F0800FAFD138B0BDE8F08100BF00A0FF1F24530020888E020078D4020037
:2035000098AAFF1F908E0200988E0200FFFFFFFF2DE9F04F89B0814600238B4DBE20296848
:20352000CA18CC5C00FB04F42412CC54517800FB01F109125170917800FB01F10912917094
:203540000333B3F5406FEAD1D9F81C004FF0824120F080F920F06AFBC2B27B4B93F8083C2D
:20356000009305A87949FF2315F07CFBD9F80880D9F80C001FF0DAFC04460D464046D9F89C
:203580001C1020F05FF81FF0D1FC6DA3D3E900231FF020FD20F000F81FF0C8FC06460F4625
:2035A0001DF048F902460B46204629461FF012FD0022674B1FF05CFB1FF0A6FF029030463B
:2035C00039461DF001FA02460B46204629461FF001FD02460B4600205D491FF047FB1FF02A
:2035E00093FF0390DFF870B1D9F80C001FF09EFC04460D4640461FF099FC51A3D3E900238E
:203600001FF0E8FC1FF0C8FF1FF090FC06460F461DF010F902460B46204629461FF0DAFC3C
:2036200000224B4B1FF024FB1FF06EFF8246304639461DF0C9F902460B46204629461FF01F
:20364000C9FC02460B46002041491FF00FFB1FF05BFF06469DF815209DF816309DF8141036
:203660008DF818108DF819208DF81A300FFA8AF405B2584621462A4606AB13F0EBFC9DF82D
:2036800015209DF816309DF814108DF81C108DF81D208DF81E3058462946224607AB13F0F1
:2036A000D9FC40464FF07E511FF0CCFF8046294920F082FA08B14FF00008029B9A4593D123
:2036C000039B9E4290D1D9F81C402046D9F808101FF0B8FF05461F4920F06EFA10B9C9F814
:2036E000085029E00023C9F80830D9F82050204629461FF0A7FF0446C9F81C00D9F810601A
:20370000314620F04FFA30B1C9F81C6005F10045C9F8205010E0D9F818602046314620F029
:2037200055FA48B1304629461FF08AFFC9F81C0005F10045C9F82050002009B0BDE8F08F7E
:20374000399D52A246DF913FE4ECFF1FEDF8FF1F000030400000B44394AAFF1FAFF30080D4
:2037600038B504460D46084621F0A4FA024623685B68204629469847054620461BF002FDBD
:20378000284438BD30B589B0054600238DF804305A4B009302914FF0FF3303935848694662
:2037A00019F0C0FE0446002800F0A58054482146544A19F01FFF0346027C042A04D105F133
:2037C0000F00996921F018FA4D4821464E4A19F011FF037C022B04D1836985F87330012357
:2037E0002B7147482146494A19F004FF037C022B04D1836985F8743001232B71404821465B
:20380000434A19F0F7FE037C022B04D1836985F8753001232B713A4821463E4A19F0EAFE6C
:20382000037C022B04BF8369AB67354821463A4A19F0E0FE037C022B04BF8369EB673048A7
:203840002146364A19F0D6FE0346027C042A04D105F1800099691BF0F9FD29482146304A0F
:2038600019F0C8FE037C022B04BF836985F89030234821462B4A19F0BDFE0346027C042AE1
:2038800033D104A899691BF091FD04A826491BF03DFEE0B904A825491BF038FEC8B904A85B
:2038A00023491BF033FEB0B904A822491BF02EFE98B904A820491BF029FE80B904A81F49C4
:2038C0001BF024FE00280CBF0523042308E0052306E0002304E0012302E0022300E003234B
:2038E00085F8913004A81BF015FD0548214619F0F1FA012000E0002009B030BDF0D402008C
:203900002C560020A08E0200A88E0200AC8E0200B48E0200BC8E0200C08E0200C88E020029
:20392000D08E0200D88E0200E08E0200F48E0200008F0200108F0200208F0200288F02002F
:2039400030B585B005460C465248534A19F052FE0346027C042A04D105F10F00996921F03E
:203960004BF94C4821464D4A19F044FE037C022B04D1836985F8733001232B7145482146E5
:20398000474A19F037FE037C022B04D1836985F8743001232B713F482146424A19F02AFE5F
:2039A000037C022B04D1836985F8753001232B71384821463C4A19F01DFE037C022B04BFB8
:2039C0008369AB6733482146384A19F013FE037C022B04BF8369EB672E482146344A19F05A
:2039E00009FE0346027C042A04D105F1800099691BF02CFD274821462E4A19F0FBFD037C7C
:203A0000022B04BF836985F89030224821462A4A19F0F0FD0346027C042A33D168469969A9
:203A20001BF0C4FC684625491BF070FDE0B9684623491BF06BFDC8B9684622491BF066FDF9
:203A4000B0B9684620491BF061FD98B968461F491BF05CFD80B968461D491BF057FD0028DE
:203A60000CBF0523042308E0052306E0002304E0012302E0022300E0032385F89130684612
:203A80001BF048FC0348214619F024FA012005B030BD00BF2C560020A08E0200A88E020072
:203AA000AC8E0200B48E0200BC8E0200C08E0200C88E0200D08E0200D88E0200E08E02005A
:203AC000F48E0200008F0200108F0200208F0200288F020010B500F18004204613491BF0BF
:203AE00015FDC8B9204612491BF010FDB0B9204610491BF00BFD98B920460F491BF006FD02
:203B000080B920460D491BF001FD68B920460C491BF0FCFC052010BD002010BD012010BDFB
:203B2000022010BD032010BD042010BD2C8F0200348F02003C8F0200488F0200548F0200A8
:203B4000608F020010B50C46084615491BF0DEFCE0B9204613491BF0D9FCC8B9204612494F
:203B60001BF0D4FCB0B9204610491BF0CFFC98B920460F491BF0CAFC80B920460D491BF08C
:203B8000C5FC00280CBF0520042010BD052010BD002010BD012010BD022010BD032010BDAF
:203BA000E08E0200F48E0200008F0200108F0200208F0200288F02002DE9F041D8B0074659
:203BC0000D469E4E04AC9AE12B798DF81430AB6806932B7B8DF81C3004962B4653F80D0F79
:203BE00059689A68CDF81D00CDF82110CDF825201B7B8DF82930EB690B93684600211BF0E0
:203C0000D5FB08E0204616F0C3FC0FE00A290DD068461BF04FFC204616F064FD30B12046AA
:203C200016F0B6FCC1B20D29F0D1EBE7204616F025FD0CA882491BF0B9FB68460CA91BF056
:203C40009BFC80460CA81BF065FBB8F1000F13D010A8694605221BF0EFFC684610A91BF057
:203C6000EDFB10A81BF056FB684607F10F01642200231BF0A5FC3FE114A872491BF096FB0A
:203C8000684614A91BF078FC804614A81BF042FBB8F1000F17D018A8694604221BF0CCFC69
:203CA000684618A91BF0CAFB18A81BF033FB029B002B00F0218168461BF0D6FC87F87300F5
:203CC00001233B7118E11CA85F491BF06FFB68461CA91BF051FC80461CA81BF01BFBB8F11B
:203CE000000F17D020A8694606221BF0A5FC684620A91BF0A3FB20A81BF00CFB029B002BC1
:203D000000F0FA8068461BF0AFFC87F8740001233B71F1E024A84D491BF048FB684624A916
:203D20001BF02AFC804624A81BF0F4FAB8F1000F17D028A8694605221BF07EFC684628A97E
:203D40001BF07CFB28A81BF0E5FA029B002B00F0D38068461BF088FC87F8750001233B711B
:203D6000CAE02CA83A491BF021FB68462CA91BF003FC80462CA81BF0CDFAB8F1000F14D086
:203D800030A8694604221BF057FC684630A91BF055FB30A81BF0BEFA029B002B00F0AC80B7
:203DA00068461BF061FCB867A6E034A829491BF0FDFA684634A91BF0DFFB804634A81BF0DB
:203DC000A9FAB8F1000F14D038A8694605221BF033FC684638A91BF031FB38A81BF09AFA6F
:203DE000029B002B00F0888068461BF03DFCF86782E03CA818491BF0D9FA68463CA91BF08F
:203E0000BBFB80463CA81BF085FAB8F1000F25D040A8694605221BF00FFC684640A91BF095
:203E20000DFB40A81BF076FA029B002B64D007F1800069461BF0ECFA5EE000BF78D40200B8
:203E40006C8F0200748F02007C8F0200848F02008C8F0200948F02009C8F020044A82D496D
:203E60001BF0A4FA684644A91BF086FB804644A81BF050FAB8F1000F14D048A86946062208
:203E80001BF0DAFB684648A91BF0D8FA48A81BF041FA029B002B2FD068461BF0E5FB87F8B1
:203EA000900029E04CA81C491BF080FA68464CA91BF062FB80464CA81BF02CFAB8F1000FDD
:203EC0001AD050A8694605221BF0B6FB684650A91BF0B4FA50A81BF01DFA029B63B154A847
:203EE00069461BF09FFA384654A9FFF72BFE87F8910054A81BF00EFA68461BF00BFA2B6865
:203F00009B682846984700283FF75EAE58B0BDE8F08100BFA48F0200AC8F02002DE9F04151
:203F2000FCB00446A94B1B78002B00F083818368013383604279934204DB4FF0FF33836020
:203F4000002594E1417B8B420CDAA14B6D460FCB07C52B702F23ADF8503014A8694620F086
:203F60009DFC97E00268007B5D1A00F18B80854280F288800CA89749012316F057FD0CA8D2
:203F800016F0D0FB00287AD014A80CA9012216F001FE914E914F68E014A816F0B7FB64E086
:203FA00014A816F071FB014603785F2B38D07E2B36D02E2B34D070A81BF0F8F970A81BF03C
:203FC00043FB014608A81BF02DFA70A81BF0A2F96CA831461BF0EAF908A86CA91BF0D8FAA1
:203FE000012800F03D8168A839461BF0DFF908A868A91BF0CDFA804668A81BF08BF96CA86C
:204000001BF088F908A81BF085F9B8F1010F07D1013D14A816F038FB0146684620F0ECFD29
:2040200014A816F073FB60A80CA9012216F0B2FD9DF884318DF85430629B16939DF88C3170
:204040008DF85C307CAA52F8630D51689368CDF85D00CDF86110CDF86530137B8DF869305D
:20406000679B1B9360A816F009FB14A816F05AFB002800F0E180002D80F2EB80DCE00CA874
:2040800016F0FCFA14A8216820F0B6FD14A8694620F004FC0CA84F4914AA012316F0C6FCAB
:2040A0000CA816F03FFB054620B92046FFF736FF0546BBE004F10F070026E67384F8736098
:2040C00084F8746084F875600B23A367E66704F1800005211BF0CCF9322384F8903084F842
:2040E0009160267154A869461BF060F954A81BF0ABFA014604A81BF095F954A81BF00AF9E7
:2041000004A837491BF002FA00284CD0A368B3427CDBDFF8D0809DF834308DF8D4310E9B7E
:2041200076939DF83C308DF8DC31CDF8D081DDF83D10DDF84120DDF84530CDF8DD11CDF8B3
:20414000E121CDF8E5319DF849308DF8E931139B7B9308A800211BF029F908E074A816F011
:2041600017FA0FE00A290DD008A81BF0A3F974A816F0B8FA30B174A816F00AFAC1B20D2954
:20418000F0D1EBE774A816F079FA08A83946642200231BF015FA013608A81BF0BBF8A36855
:2041A0009E42B8DD32E058A80B491BF0FFF804A858A91BF0EDF9064658A81BF0ABF8012E5B
:2041C00012D120460CA9FFF7F7FC1FE000A0FF1FC88F020024530020C08F0200B48F0200B5
:2041E000B88F020078D402005CA823491BF0DEF804A85CA91BF0CCF906465CA81BF08AF879
:20420000012E03D120460CA9FFF7BCFA23793BB91A4B33F8042F9B78A4F8732084F875301E
:204220000CA816F073FA04A81BF074F80CA816F025FA1CE000251AE014A816F067FA0CA869
:2042400016F064FA14A816F019FA0CA816F016FA18E714A816F01AFA00287FF49DAE9FE61B
:204260006CA81BF057F808A81BF054F8D0E628467CB0BDE8F08100BFB48F0200388C020099
:2042800070B506460D4B18781FF090FA014630461FF088FC68B9094D012415F8010F1FF014
:2042A00085FA31461FF088FC30B901340C2CF4D101E0002400E00024204670BDB495FF1F57
:2042C00010B5044600211FF063FC28B9204605491FF07CFC10B902E0024C00E000242046C1
:2042E00010BD00BF00007F4310B5054C20781FF059FAFFF7E5FF1FF099FC207010BD00BFC6
:20430000442C002010B50C46FFF7BAFF001903D40C28A8BF002000E00B20034B185C1FF0C0
:2043200041FAFFF7CDFF10BDB495FF1F08B50020012119F01BFF0120014619F017FF002083
:20434000014619F0E1FE0120014619F0DDFE08BD2DE9F84F00257E4B1D702846012119F0AC
:20436000D3FE2846294619F0CFFE2C460126DFF81882784F3046002119F0C6FE4FF42073AE
:20438000013B7FF4FDAF282019F03CFB54F80830184420EAE073E3519D42B8BF1D4630469A
:2043A000314619F0B1FE04341C2CE3D16A4B187818B11FF0F7F9814656E0684B187805FB4D
:2043C00000F5674B1B889D4220DB664B9B7883421CD8654B1A68654B1B6813B9634B1A60E3
:2043E0003DE0634909880B44934238D21FF0DAF94FF0FF31FFF786FF1FF018FC574B18701C
:2044000000235A4A13605B4A136028E05A4B1B889D421FDC534BDB7A83421BD9524B1A6855
:20442000544B1B6813B9534B1A6018E0534909880B44934213D21FF0B5F90121FFF762FF12
:204440001FF0F4FB454B187000234A4A1360474A136004E00023474A1360444A13603F4B82
:2044600018781FF09FF98146454BD3F800A0384B1D780024374E40F2FF38424FA346A059A6
:204480001FF094F949461FF0E5F91FF0A9FB20EAE0704045A8BF4046A051E359984201DBA2
:2044A000E05107E0002B05DDB3EB0A0354BFE35144F807B0C128A8BF012504341C2CDED14D
:2044C000234B1D7000252C46DFF8C0A0DFF8C0B0DFF8B08020461FF069F951461FF0BAF995
:2044E00007461FF07DFB06461FF060F9014638461FF0A6F807460E2C1FDC4FF07E503946B4
:204500001FF09EF8814658F826001FF04FF9014648461FF09FF98146013658F826001FF063
:2045200045F939461FF096F9014648461FF08AF81FF056FB4BF8050003E058F8263045F84C
:204540000B3001340435102CC4D1BDE8F88F00BF35FAFF1FC8ECFF1F442C002028FAFF1F07
:204560009095FF1FB495FF1FC056002090AAFF1F7495FF1FFC9FFF1FE495FF1FEC95FF1FED
:20458000A495FF1F0CFAFF1FB4FAFF1FCDCCCC3ED4FAFF1F10B50446FFF7DAFE04F52E54ED
:2045A000206803689B68984710BD00BF10B50446FFF7CEFE0822084B1A60606910F0010FF9
:2045C00001D1236903E04310E2582369D35804EB60009847002010BDA495FF1F2DE9F0419D
:2045E0001546814202DA034608461946002918DB1F2816DCABB21F2B13D820EAE0741F293E
:20460000B4BF0E461F26B4420BDCDFF81C800127404621B22A463B4612F0EAF90134B442BC
:20462000F6DDBDE8F08100BF94AAFF1FF8B505461646994202DD0A4619461346B54202DD8A
:204640002A46354616460C461F46994207DC2846314622B2FFF7C2FF0134BC42F7DDF8BD72
:204660002DE9F04F85B00446A04D2846202112F017FB28469E4912F00BFB2846002112F0C8
:20468000D1F9284612F094F90025DFF8608210270126404639462AB2334612F0A9F90235E2
:2046A000ADB2102DF5D1934B1B7813F0010F0CD18E4D284610210222012312F099F9284673
:2046C00010210422012312F093F9884E3046002112F0A8F9884F03A8394694F8322020F0D2
:2046E00095F801250095304608212A4603AB12F0E3F903A8394694F8312020F087F80095AC
:20470000304612212A4603AB12F0D6F9A0684FF07C511EF097FF1FF063FAC7B2E0684FF0DD
:204720007C511EF08FFF1FF05BFAC2B2304639462B4612F05DF9E1694B1D284609B202227B
:204740001BB2FFF773FF216A4B1D1D2009B21E221BB2FFF76BFF694B1B68626B9B1A272BC1
:2047600040F29482654B1B689B1A272B08D9634802F12803636301681A46CB1A272BF7D878
:2047800094F830302BB34FF08343A36004200C211AF0B6FD1FF00AF8E060002002211AF09B
:2047A000AFFD0028CCBF4FF07E53554B6361002002211AF0A5FD0028CCBF4FF07C534FF037
:2047C0003F43A361002384F82E3084F82F3084F83030484B1B783B2B0BD1464B5B783A2B6E
:2047E00000F24782012384F82E3042E2012384F82F30A568122020211AF082FD1EF0D6FFF1
:20480000014628461FF0BAF918B1E0681FF0E8F96062A568042010211AF072FD1EF0C6FFB0
:20482000014628461FF0AAF918B1E0681FF0D8F9A062A568284633491FF0A0F9002869D01E
:20484000D4F81480404600211FF0A2F9002800F0C180E668A7694FF0000A4FF08049DFF8C8
:20486000A8B0284641461EF0EDFE0546304639461EF0E8FE064651461FF094F920B93046F0
:2048800020491FF099F908B107F10047284649461FF09CF928B1284659461FF079F90028E6
:2048A000DFD130461FF0C2F9C5B294F82E30012B11D1002384F82E30082D05D91846032107
:2048C0001AF01EFD606225E0002003211AF018FD083060621EE0002006211AF011FD281AF0
:2048E0006062002812DA0023636213E094AAFF1FB0FAFF1F2CFAFF1FD88F0200C056002000
:20490000000080BF000070410000E0410A28C4BF0A236362A5682846A1491FF02FF900281B
:2049200058D0D4F81480404600211FF04FF9002850D0E668A7694FF0000A4FF08049DFF823
:204940006CB2284641461EF07DFE0546304639461EF078FE064651461FF024F920B9304699
:2049600090491FF029F908B107F10047284649461FF02CF928B1284659461FF009F90028E5
:20498000DFD130461FF052F9C5B294F82F30012B11D1002384F82F30082D05D91846032194
:2049A0001AF0AEFCA06215E0002003211AF0A8FC0830A0620EE0002006211AF0A1FC281A02
:2049C000A062002802DA0023A36203E00A28C4BF0A23A362E269636A9A4206DD002A04DDFD
:2049E000013AE261012284F82C20E269934206DD092A04DC0132E261012384F82C30226A3A
:204A0000A36A9A4206DD002A04DD013A2262012284F82D20226A934206DD092A04DC01328A
:204A20002262012384F82D30A06861691EF00AFE0546A060A7693846E1681EF003FE064690
:204A4000E06000211FF0AEF828B107F10047A7610023E3600AE0304652491FF0ADF828B132
:204A6000A36903F10043A3614E4BE36028461FF0B7F8032864DCE569E0681FF0B1F8854267
:204A80005EDC0535A8425BDC474BA360002003211AF036FC20B9636903F1004363614FE09D
:204AA000012384F82C30002002211AF029FCE369012B40F3E480C2B2072B21DC12B1012AE8
:204AC0003ED11DE0656A012003211AF019FC28446062636903F100436361A56928464FF0E7
:204AE00080411FF055F858B328461EF01FFA2AA3D3E900231EF0BCF81EF04EFDA0611FE032
:204B0000656A012003211AF0FBFB281A6062636903F100436361A0691EF008FA06460F46FC
:204B20001DA3D3E900231EF0E5FC48B13046394619A3D3E900231EF099F81EF02DFDA06186
:204B4000A0681FF04DF81B2870DD256AE0681FF047F885426ADC0535A84267DC134BA3606F
:204B6000002003211AF0CCFB20B9636903F1004363615BE0012384F82C30002002211AF0FC
:204B8000BFFB236A012B7EDDC2B2072B2EDC7AB1012A4BD12AE000BF9A9999999999C93FBD
:204BA0000000884100007041000040400000E041A56A012003211AF0A3FB2844A0626369A4
:204BC00003F100436361A56928464FF080411EF0DFFF58B328461EF0A9F92FA3D3E9002398
:204BE0001EF046F81EF0D8FCA0611FE0A56A012003211AF085FB281AA062636903F1004362
:204C00006361A0691EF092F906460F4622A3D3E900231EF06FFC48B1304639461EA3D3E905
:204C200000231EF023F81EF0B7FCA061A0681EF0D7FF30F0200329D1012384F83030184BDA
:204C40005B7D83F00103174A517884F8311092780C2A84BFA3EB830102EB810284F832204B
:204C600094F8322092B903EB43039B0084F832300CE00C4B5B783B2B7FF4BBADB6E5072B3A
:204C80003FF73EAF1EE7072BB0DC91E7002005B0BDE8F08FAFF300809A9999999999C93FFC
:204CA000142C00202CFAFF1F70B4FF289CBF000280B21D4C25689DF80C404034EB1A4FF4E3
:204CC0008C7505FB03F300FB03F304EB1363DBB213F0400F21D0DD43EDB205F03F0005F0CF
:204CE0000F050135114C001140002618767805FB06F5205C00EB2515EDB213F0800F0EBFF6
:204D0000EBB26B42DBB283F08003501AC0B200FB03F001EB2021C8B204E003F03F0003F04C
:204D20000F05DFE770BC7047C0560020448E02002DE9F04F85B05F4B1B684FF40C3202FB77
:204D400003F2120ED3B213F0400F00F0A580DB43DBB203F03F0103F00F0301335648091183
:204D600049004418647803FB04F3415C01EB2313DBB212F0800F18BF5B42DBB283F08003E9
:204D800003EB830398111A38C0B200234B4D2968CA18CC5C00FB04F42412CC54517801FBCE
:204DA00000F109125170917801FB00F1091291700333B3F5406FEAD14FF004081E24002718
:204DC0000E25DFF8F89009F6094BDFF8E8A099F8083C009302A859463A46FF2313F042FFF8
:204DE000EEB2C6F120020023009320463146D2B2FFF75AFF0146FF2C9ABF200280B220464F
:204E0000DAF800304FF48C7202FB03F200FB02F2120ED3B213F0400F43D0DB43DBB203F0C6
:204E20003F0E03F00F03581C234B4FEA2E1E4FEA4E0E03EB0E0C9CF801C000FB0CF013F8C5
:204E40000EE00EEB2013DBB212F0800F18BF5B42DBB29DF809009DF80A209DF808E08DF8BA
:204E60000CE08DF80D008DF80E2083F0800308FB03F306EB2322124809B2D2B203AB12F093
:204E8000E9F8013D0E37FFB2023CA4B208F10208B5F1FF3F9BD109E003F03F0103F00F03F5
:204EA0005CE703F03F0E03F00F00BDE7002005B0BDE8F08FC0560020448E0200E4ECFF1FD8
:204EC00094AAFF1F2DE9F04F89B0904B1B684FF40C3202FB03F2120ED3B213F0400F00F030
:204EE0000181DB43DBB203F03F0103F00F0301338748091149004418647803FB04F3415C1D
:204F000001EB2313DBB212F0800F18BF5B42DBB283F0800303EB830318115638C0B200239A
:204F20007C4D2968CA18CC5C00FB04F42412CC54517801FB00F109125170917801FB00F13C
:204F4000091291700333B3F5406FEAD1022740244FF00008C1462025DFF8B8B10BF6094142
:204F600003915FFA89F60F2E4ED800230093384631462A46FFF798FE8246FF2F9ABF390231
:204F800089B23946614A13684FF48C7202FB03F201FB02F2120ED3B213F0400F00F0A78000
:204FA000DB43DBB203F03F0103F00F03013358480911490000EB010E9EF801E003FB0EF367
:204FC000415C01EB2313DBB212F0800F0EBFDAB25A42D2B282F08002A4F12003DBB203FB44
:204FE00002F306EB2326F6B29BF8083C009305A803994246FF2313F035FE9DF814109DF8F9
:2050000015209DF8163050E00136F2B2FF2C9ABF200280B220463D490B684FF48C7101FB02
:2050200003F100FB01F1090ECBB213F0400F63D0DB43DBB203F03F0003F00F030133344EDE
:205040000011400006EB000E9EF801E003FB0EF3305C00EB2313DBB211F0800F18BF5B424C
:20506000DBB283F08003C4F1210A5FFA8AFA0AFB03FA05EB2A2A5FFA8AFA002300932046B1
:205080002946FFF711FE0646C8F1B2029BF8083C009306A80399D2B2FF2313F0E3FD9DF811
:2050A00018109DF819209DF81A308DF81C108DF81D208DF81E3018480FFA8AF132B207AB5B
:2050C00011F0C8FF013D09F1010908F10E085FFA88F8023CA4B20237BFB215F0FF057FF424
:2050E00040AF0EE003F03F0103F00F0300E703F03F0103F00F035AE703F03F0003F00F0304
:205100009DE7002009B0BDE8F08F00BFC0560020448E0200E4ECFF1F94AAFF1F2DE9F04FA6
:2051200087B003908E4B1B684FF40C3202FB03F2120ED3B213F0400F00F00081DB43DBB2C3
:2051400003F03F0103F00F0301338648091149004418647803FB04F3415C01EB2313DBB239
:2051600012F0800F18BF5B42DBB283F0800303EB830318115638C0B200237B4D2968CA18AC
:20518000CC5C00FB04F42412CC54517801FB00F109125170917801FB00F1091291700333C4
:2051A000B3F5406FEAD14FF002081F2640240025DFF8B091EFB20F2F42D800230093404679
:2051C0003946F2B2FFF770FD8246B8F1FF0F9ABF4FEA082189B24146614A13684FF48C72E6
:2051E00002FB03F201FB02F2120ED3B213F0400F00F0A980DB43DBB203F03F0103F00F03DA
:2052000001330911490009EB0100407803FB00F319F8011001EB2313DBB212F0800F18BF20
:205220005B42DBB283F08003A4F1210B5FFA8BFB0BFB03FB07EB2B2B5FFA8BFB7F0842E0DA
:20524000F1B2FF2C9ABF200280B22046444A13684FF48C7202FB03F200FB02F2120ED3B29D
:2052600013F0400F74D0DB43DBB203F03F0003F00F0301330011400009EB000E9EF801E0B8
:2052800003FB0EF319F8000000EB2313DBB212F0800F18BF5B42DBB283F08003C4F1210AE8
:2052A0005FFA8AFA0AFB03FA01EB2A2A5FFA8AFA0023009320463A46FFF7F6FC834606EBB4
:2052C000D677C7F34707062F28BF0627274B53F8273003998A7A12B1254B53F827301A4647
:2052E000002BB8BFDA1C204991F8083C009304A801F60941C2F38702FF2313F0B3FC9DF8B9
:2053000011209DF812309DF810108DF814108DF815208DF8163017480FFA8AF10FFA8BF239
:2053200005AB11F097FE0135023CA4B2013E08F102081FFA88F8202D0FD03BE703F03F0101
:2053400003F00F0301E703F03F0103F00F0358E703F03F0003F00F038CE707B0BDE8F08F64
:20536000C0560020448E0200E4ECFF1FC8ECFF1F0CFAFF1F94AAFF1F2DE9F04F85B0824691
:20538000654B1B684FF40C3202FB03F2120ED3B213F0400F00F0B380DB43DBB203F03F016F
:2053A00003F00F0301335D48091149004418647803FB04F3415C01EB2313DBB212F0800FA2
:2053C00018BF5B42DBB283F0800303EB830398111A38C0B20023524D2968CA18CC5C00FB9D
:2053E00004F42412CC54517801FB00F109125170917801FB00F1091291700333B3F5406F2E
:20540000EAD120250024DFF8189109F6094B04EBD473C3F34703062B28BF0623414A52F849
:2054200023609AF80A2012B13F4A52F82360E3B2C3F11007FFB203F11002002300932846D9
:205440003946D2B2FFF730FC8046FF2D9ABF290289B22946304B1B684FF48C7202FB03F2D6
:2054600001FB02F2120ED3B213F0400F4CD0DB43DBB203F03F0103F00F0301332748091189
:20548000490000EB010E9EF801E003FB0EF3415C01EB2313DBB212F0800F18BF5B42DBB275
:2054A00083F08003620002FB03F307EB2327FFB23246002EB8BFF21C99F8083C009302A877
:2054C0005946C2F38702FF2313F0CCFB9DF809209DF80A309DF808108DF80C108DF80D2076
:2054E0008DF80E3011480FFA88F13A4603AB11F0B1FD0134023DADB2102C0AD087E703F0E7
:205500003F0103F00F034EE703F03F0103F00F03B4E705B0BDE8F08FC0560020448E02005B
:20552000E4ECFF1FC8ECFF1F0CFAFF1F94AAFF1F2DE9F04F95B08346A34B1B684FF40C32D6
:2055400002FB03F2120ED3B213F0400F00F0E282DB43DBB203F03F0103F00F0301339B4814
:20556000091149004418647803FB04F3415C01EB2313DBB212F0800F18BF5B42DBB283F04A
:205580008003F52202FB03F31B120A33904A106820210A46DBB213F057FB8B4B1B684FF4B3
:2055A0000C3202FB03F2120ED3B213F0400F00F0B682DB43DBB203F03F0103F00F03013385
:2055C0008248091149004418647803FB04F3415C01EB2313DBB212F0800F18BF5B42DBB293
:2055E00083F0800303EB83035B116433DBB2CBF82830754B1B684FF4523202FB03F2120E7A
:20560000D3B213F0400F00F08F82DB43DBB203F03F0103F00F0301336C4809114900441828
:20562000647803FB04F3415C01EB2313DBB212F0800F18BF5B42DBB283F0800303EBC30311
:2056400018120130C0B21EF0B1F862491EF0B6F9CBF8140000230093052001210A22FFF768
:2056600023FB1EF0A3F85B491EF0A8F90546CBF81C00DBF81000DBF814101DF0E3FF0446D3
:20568000CBF810002846DBF818101DF0DBFF0646CBF8180020461DF049FC04460D4648A380
:2056A000D3E900231DF01CFF50B12046294644A3D3E900231DF0DAFA1DF06EFFCBF8100019
:2056C00030461DF033FC04460D463DA3D3E900231DF006FF50B12046294639A3D3E9002319
:2056E0001DF0C4FA1DF058FFCBF81800DBF810001DF01CFC04460D461BF09CF81DF04CFF04
:205700000490204629461BF05FF91DF045FF0646DBF818001DF00AFC04460D461BF08AF8F8
:205720001DF03AFF0590204629461BF04DF91DF033FF04460599CBF898120023CBF89C3220
:2057400000F1004306930699CBF8A012304621461EF080F80790CBF8A402049BCBF8A832C9
:20576000304605991EF076F80890CBF8AC02049821461EF06FF80990CBF8B00206F10046CD
:205780000A960A99CBF8B412049805991EF062F80B90CBF8B802DBF828001EF007F80C90DF
:2057A000DBF820300D93DBF808100391DBF824300E935D465C464FF00009CDF83CB00BE0B6
:2057C000182D4454FB211940C0560020448E0200E4ECFF1F0000C842D4F82C80276B666B9A
:2057E000059841461EF036F88246384600211EF031F8014650461DF025FF824606983146C0
:205800001EF028F8014650461DF01CFF8246C4F88C00079841461EF01DF883460498394618
:205820001EF018F8014658461DF00CFF8346089831461EF00FF8014658461DF003FFC4F8A8
:205840009000099841461EF005F880460A9839461EF000F8014640461DF0F4FE07460B98DC
:2058600031461DF0F7FF014638461DF0EBFE0C991DF0E8FE0646C4F89400039851461DF080
:20588000E9FF31461EF09AF801460D981DF0DAFE1DF04CFB1BF008F81DF07EFEC5F8EC00A7
:2058A0000398D4F890101DF0D5FF31461EF086F801460E981DF0C4FE1DF038FB1AF0F4FF04
:2058C0001DF06AFEC5F8F00009F101090C340835B9F1080F80D1DDF83CB0002319460BEBDA
:2058E000030282F80C120C33902BF8D10BF1D80104915C460125D4F830211D320BEBC202F0
:20590000D4F834311D330BEBC303191D0391D4F838711D370BEBC7075668D2F80880586823
:2059200031461DF08DFE8146B86841461DF088FE014648461DF08EFF8146039B586841463C
:205940001DF07EFE8046786831461DF079FE014640461DF07FFF014648461DF071FE002153
:205960001EF016F9F8B9D4F8403103EB43030BEB830383F80C52D4F8443103EB43030BEB28
:20598000830383F80C52D4F8483103EB43030BEB830383F80C52D4F84C3103EB43030BEB67
:2059A000830383F80C52243404998C42A3D163499BF8BC2291F8083C009310A801F60941DB
:2059C000802313F04FF90BF190055C46DFF870A194F80C32A3BBD4F804620BEBC606D6F8D4
:2059E000EC001EF0FDF81FFA80F8D6F8F0001EF0F7F81FFA80F9D4F808620BEBC606D6F814
:205A0000EC001EF0EDF887B2D6F8F0001EF0E8F89DF841209DF842309DF840108DF8441007
:205A20008DF845208DF8463000B2009011AB019350460FFA88F10FFA89F23BB211F056FC13
:205A40000C34AC42C4D13D499BF8BC2291F8083C009312A801F60941FF2313F003F99DF87B
:205A600048308DF840309DF849308DF841309DF84A308DF842305C46DFF8C4A094F80C3208
:205A8000A3B3D4F804620BEBC606D6F8EC001EF0A7F81FFA80F8D6F8F0001EF0A1F81FFA46
:205AA00080F9D4F808620BEBC606D6F8EC001EF097F887B2D6F8F0001EF092F89DF8412099
:205AC0009DF842309DF840108DF84C108DF84D208DF84E3000B2009013A9019150460FFAD5
:205AE00088F10FFA89F23BB211F000FC0C34A542C4D1DBF8C0320133082B02D0CBF8C03250
:205B000017E00023CBF8C0329BF8BC3201338BF8BC320EE003F03F0103F00F031FE503F073
:205B20003F0103F00F034BE503F03F0103F00F0372E5142015B0BDE8F08F00BFE4ECFF1F97
:205B400094AAFF1FAFF3008070B410F0400F21D0C543EDB205F03F0305F00F050135114CE9
:205B60001B115B00E618767805FB06F5E35C03EB2515EDB210F0800F0EBFEBB26B42DBB27E
:205B800083F08003501AC0B200FB03F001EB2021C8B204E000F03F0300F00F05DFE770BC92
:205BA000704700BF448E020070B44030C3B213F0400F21D0DD43EDB205F03F0005F00F0553
:205BC0000135114C001140002618767805FB06F5205C00EB2515EDB213F0800F0EBFEBB27E
:205BE0006B42DBB283F08003501AC0B200FB03F001EB2021C8B204E003F03F0003F00F05E7
:205C0000DFE770BC704700BF448E0200F0B5A1B00446C0F8041C092903DD0023C0F8043C03
:205C200014E0002903DA0923C0F8043CFFE0092900F20B81DFE811F00A001F003400490049
:205C40005E0073009A00AF00C400FB008049234601F1400551F8042F100C83F8390C100A90
:205C600083F83A0C83F83B2C0333A942F2D1794BC4F86C3CE9E07849034601F1400551F822
:205C8000042F100C83F8390C100A83F83A0C83F83B2C0333A942F2D1704BC4F86C3CD4E081
:205CA0006F49034601F1400551F8042F100C83F8390C100A83F83A0C83F83B2C0333A94276
:205CC000F2D1684BC4F86C3CBFE06749034601F1400551F8042F100C83F8390C100A83F82E
:205CE0003A0C83F83B2C0333A942F2D15F4BC4F86C3CAAE05E49034601F1400551F8042F5D
:205D0000100C83F8390C100A83F83A0C83F83B2C0333A942F2D1574BC4F86C3C95E0002368
:205D20008DF80C308DF80D308DF80E30FF238DF808308DF809308DF80A3004A8102103AA37
:205D400002AB12F007FE04AF04F639450DF1400C3E460FCE28606960AA60EB603746103551
:205D60006645F5D1444BC4F86C3C6EE04349034601F1400551F8042F100C83F8390C100AF3
:205D800083F83A0C83F83B2C0333A942F2D13C4BC4F86C3C59E03B49034601F1400551F80B
:205DA000042F100C83F8390C100A83F83A0C83F83B2C0333A942F2D1334BC4F86C3C44E02D
:205DC00000228DF84C208DF84D208DF84E208DF848208DF84920FF238DF84A308DF84420E6
:205DE0008DF845308DF846308DF840308DF841308DF8423011AB009310AB019314A8102141
:205E000013AA12AB12F0C4FD14AF04F639450DF1800C3E460FCE28606960AA60EB603746FC
:205E200010356645F5D1194BC4F86C3C0DE00020092119F065FA01462046FFF7E7FE092391
:205E4000C4F8043C124BC4F86C3C21B0F0BD00BFE4D10200E08F0200A4D10200E88F020030
:205E6000A4D20200F08F020024D30200F88F020064D202000090020008900200E4D202008B
:205E80001090020024D2020018900200209002002490020038B504460D4642F67C33C358CA
:205EA0000B44232B04DD002242F67C33C25009E0002B03DB42F67C32835003E0232242F63E
:205EC0007C33C250174BD3F8043C092B03D115480921FFF79BFE04F52E53186810B1036850
:205EE0001B69984742F67C33E35803F52E6304EB8303586804F52E53186010B10368DB68FE
:205F00009847094B1B785BB904F52E5204F1640312689A4204D123689B6920462946984764
:205F200038BD00BFE4ECFF1F3D2C002010B50446D0F8A8321944262903DD0023C0F8A83244
:205F400006E00029AEBFC0F8A8122623C0F8A8320A4BD3F8043C092B03D108480921FFF7A0
:205F600055FED4F8A832DA1C04F1100304EBC20494E8030083E8030010BD00BFE4ECFF1F0E
:205F800070B504460E4642F67C33C3580B44232B04DD002242F67C33C25009E0002B03DBB1
:205FA00042F67C32835003E0232242F67C33C250184BD3F8043C092B03D116480921FFF713
:205FC00025FE42F67C33E55804F52E53186810B103681B69984742F67C33E55005F60435A1
:205FE00004EB8505686804F52E53186010B10368DB689847084B1B785BB904F52E5204F1B0
:20600000640312689A4204D123685B6920463146984770BDE4ECFF1F3D2C002010B5044630
:20602000D0F8A8321944262903DD0023C0F8A83206E00029AEBFC0F8A8122623C0F8A832B4
:206040000A4BD3F8043C092B03D108480921FFF7DDFDD4F8A83203F12A0204F1100304EBD1
:20606000C20494E8030083E8030010BDE4ECFF1F2DE9F043A9B04D4C23685B6820464C492E
:2060800001229847204619F07DF823685B68204648490B22984720460A2119F0BFF82368ED
:2060A0005B682046444901229847204619F06AF823685B68204641490E229847204619F09B
:2060C00061F868463E4919F071F904A83D4919F06DF908A83C4919F069F90CA83B4919F03D
:2060E00065F910A83A4919F061F914A8394919F05DF918A8384919F059F91CA8374919F01E
:2061000055F920A8364919F051F924A8354919F04DF923685B682046334905229847204662
:20612000694619F009F804ADE8460DF1A0092F4F2D4E1AE01D4C20462D49FDF711FB23685D
:206140005B6820462B4903229847204619F01AF823685B682046284901229847204619F087
:2061600011F824ACA8F1100816E023685B682046394602229847204619F004F823685B68B0
:2061800020463146052298472046294618F0D4FF10354D45E9D1CDE7204619F0BBF8103CB9
:2061A0004445F9D129B0BDE8F08300BFC05700202C900200309002003C9002004090020085
:2061C000E08F0200E88F0200F08F0200F88F0200009002005090020010900200189002000B
:2061E00020900200249002005C9002006C90020060900200649002006890020030B4002362
:206200000468E218E55C01FB05F52D12E554547804FB01F424125470947804FB01F4241279
:2062200094700333B3F5406FEAD130BC704700BF2DE9F04F8BB00390BC48F021FFF7DEFFA5
:20624000BB4906914FF0000B8A46039A108A1DF0ADFA05460AEB0B095BF80A101DF0FAFADC
:206260001DF0BEFC039B1C89204484B22846D9F804101DF0EFFA1DF0B3FC039A51890144B9
:20628000204689B2928913F02BFB064610F0400F00F0A281C043C0B200F03F0300F00F00C5
:2062A0000130A44A1B115B00D118497800FB01F0D35C03EB2010C0B216F0800F18BF4042F5
:2062C000C0B280F080001DF06DFA1CF02FFE00224FF07E531CF07EFE0022974B1CF0C6FC23
:2062E0001DF05AF98046069CA06006F14003DBB213F0400F00F07581D843C0B200F03F0219
:2063000000F00F0001308B49121152008D186D7800FB05F08A5C02EB2010C0B213F0800F83
:2063200018BF4042C0B280F080001DF03BFA1CF0FDFD00224FF07E531CF04CFE00227E4BE7
:206340001CF094FC1DF028F9054600F10043E3600AEB0B07404639691DF074F98046B8602A
:20636000786929461DF06CF905460AF108075F447860E469404641461DF06CFA804628468A
:2063800029461DF067FA014640461DF05BF90546204621461DF05EFA014628461DF016FCA1
:2063A00000286ED028461CF0C1FD1AF0D3FC1DF0F3F800211DF0E2FB002841D10AEB0B0326
:2063C0000793D3F80880DD68404641461DF042FA0490404641461DF03DFA804628462946AD
:2063E0001DF038FA014640461DF02CF91CF09EFD1AF0B0FC1DF0D0F81CF098FD02460B46F3
:2064000000204D491CF010FFCDE90401079988681CF08CFD02460B46DDE904011CF0DAFD84
:206420001DF0BAF8079A906078681CF07FFD02460B46DDE904011CF0CDFD1DF0ADF87860E0
:2064400020461CF073FD04460D460AEB0B08D8F808001CF06BFD02460B46204629461CF0EF
:20646000B9FD1DF099F8C8F8080078681CF05EFD02460B46204629461CF0ACFD1DF08CF805
:2064800078600AEB0B045BF80A00A1681DF0DAF807464BF80A00D9F80400E1681DF0D2F84C
:2064A0000546C9F8040020691CF040FD002200231CF090FD1DF070F820610AF110045C4477
:2064C00060681CF033FD002200231CF083FD1DF063F860601549039A937CF21891F8083CDE
:2064E000009309A801F60941D2B2FF2312F0BAFB9DF825209DF826309DF824108DF8201077
:206500008DF821208DF8223038461DF069FB04B228461DF065FB02B20848214608AB10F040
:2065200099FD5BF80A402046002109E0E4ECFF1F6C2C0020448E02000000F03F94AAFF1FB3
:206540001DF026FB90B920464FF084411DF034FB60B9D9F80440204600211DF019FB28B967
:2065600020464FF084411DF027FB48B1202018F0BBFE1DF017F94AF80B000023C9F8043006
:206580000BF1340B069934310691BBF5026F7FF45CAE1E4B1B6813F0010F0CD11B4817F041
:2065A00079FB40B11A4B1A681A4B1A60C8225A60164817F075FB164B1968164B1A688A1ACE
:2065C0005B689A4212D3124B1A68124B1A60039A937C0133937409E000F03F0300F00F0080
:2065E0005FE603F03F0203F00F008CE60399CB890A891A440A814A891A444A818A891344DC
:206600008B8132200BB0BDE8F08F00BFEC9FFF1FC0560020B89FFF1F2DE9F04F93B00A90F8
:206620009348AA21FFF7EAFDDFF858A20027D14657F80920049209EB070302935A680692CD
:206640009D688C4B3B445C6809EB07035E69D046DAF818300B93DAF81C200592DAF82030C1
:206660000C93DAF824200D929AF828300793DAF82C200E929AF830300F93029A10690A9B36
:2066800099681CF0DFFF834630460A9AD1681CF0D9FF0390284659461CF0D4FF05462046DF
:2066A00003991CF0CFFF0446284629461DF0D2F80646204621461DF0CDF8014630461CF0B2
:2066C000C1FF0646059801461DF0C4F8014630461DF07CFA002851D030461CF027FCCDE91D
:2066E00008011AF037FB1CF057FF00211DF046FA38BBDDE908011AF02DFB1CF04DFF1CF02D
:2067000015FC02460B4600205B491CF08DFDCDE9080128461CF00AFC02460B46DDE90801CE
:206720001CF058FC1CF038FF054620461CF0FEFB02460B46DDE908011CF04CFC1CF02CFF0D
:20674000044605981CF0F2FBCDE9080128461CF0EDFB02460B46DDE908011CF03BFC1CF081
:206760001BFF054620461CF0E1FB02460B46DDE908011CF02FFC1CF00FFF04460498294658
:206780001CF060FF0490069821461CF05BFF064658461CF0CBFB002200231CF01BFC1CF05F
:2067A000FBFE069003981CF0C1FB002200231CF011FC1CF0F1FE03902D4991F8083C009325
:2067C00011A801F60941079AFF2312F04BFA9DF845209DF846309DF844108DF840108DF86D
:2067E00041208DF8423004981DF0FAF90FFA80FB30461DF0F5F902B22048594610AB10F03A
:2068000029FC30461E491DF0D7F910B104F100441B4E049B47F80930029A566009EB0703CF
:206820009D60144A3A445460069A1A61039A5A610B9BC8F81830059AC8F81C200C9BC8F8A8
:2068400020300D9AC8F82420079B88F828300E9AC8F82C200F9B88F8303034370AF1340AE1
:20686000B7F5D06F7FF4E4AE0F2013B0BDE8F08FE4ECFF1F742C00200000F03F94AAFF1FD9
:206880000000F8416C2C00202DE9F04FA1B0069090F8A432002B3FD1012380F8A4320020A0
:2068A000022118F02DFDA54C0026DFF8A4B227460025DFF8B0824FF0814A4FF08249002070
:2068C000FF2118F01DFD0020FF2118F019FD30461CF06CFF2060C4F804B0E31B07F108023B
:2068E0009D501A44556007F110029D5013445D60C4F81880C4F81C80C4F820A0C4F82490F5
:20690000002384F828301C9BE362012384F830301E443434202ED2D18948AA21FFF76EFCCD
