:1000000000800020BD01000021DD0100E5DC0100D1
:10001000E5DC0100E5DC0100E5DC0100E5DC0100D8
:10002000E5DC0100E5DC0100E5DC010021DD01008B
:1000300021DD0100E5DC010021DD0100D5DC01004E
:1000400021DD010021DD010021DD010021DD0100B4
:1000500021DD010021DD010021DD010021DD0100A4
:1000600021DD010021DD010021DD010021DD010094
:1000700021DD010021DD010021DD010021DD010084
:1000800021DD010021DD010021DD010021DD010074
:1000900021DD010021DD010021DD010021DD010064
:1000A000D9C5010021DD010021DD010021DD0100B4
:1000B00021DD010021DD010021DD010021DD010044
:1000C00021DD010021DD010021DD010021DD010034
:1000D00021DD010021DD010021DD010021DD010024
:1000E00021DD010021DD010021DD010021DD010014
:1000F00021DD010065FB010021DD01005D00020042
:1001000021DD01007904020021DD010021DD010073
:1001100021DD010021DD010021DD010021DD0100E3
:1001200021DD010021DD010021DD010021DD0100D3
:1001300021DD010021DD010021DD010021DD0100C3
:1001400021DD0100959A010021DD010021DD010082
:1001500021DD010021DD010021DD010021DD0100A3
:1001600021DD010049E5010021DD010021DD010063
:1001700021DD010021DD010021DD010021DD010083
:1001800021DD010021DD010021DD010021DD010073
:1001900021DD010021DD010021DD010021DD010063
:1001A00021DD010021DD010021DD010021DD010053
:1001B00021DD010021DD010021DD010010B56B4BC7
:1001C0004CF220521A804DF628121A8000BF00BF50
:1001D0001DF0AAFD4FF01062654B1A60654A0833A6
:1001E0001A60654A04331A60A3F530432C3B1B6840
:1001F00013F4807F06D10022604B1A604FF4A8529E
:10020000043B1A605E4B1B7813F0080F04D05C4B64
:100210001A7842F008021A702A225A4B1A705A4B66
:100220005A4A9A420DD2131D594CE41A24F0030481
:1002300004340023104657495A581A500433A34235
:10024000FAD1554B554A9A4280F08B80131F54497E
:10025000C91A21F003011A1D1144002243F8042F8A
:100260008B42FBD17DE05A581A500433B3F5DE7F40
:10027000F9D14C4B80214C4A03F8011B9342FBD12E
:100280004A4B4B4A1A600A224A4B1A702422A3F6A0
:10029000FF731A70A022013B1A7006331A7812F00D
:1002A000020FFBD0444B1A7812F0100FFBD1424BD7
:1002B0001A7802F00C02082AFAD103223F4B1A7076
:1002C000402201331A7001331A7812F0200FFBD04C
:1002D000394B1A7812F0400FFBD0394A394B1A606B
:1002E000022204331A602022374B1A7006331A7820
:1002F00002F00C020C2AFAD1344A354B1A60354A06
:10030000354B1A60002204331A600722083B1A603A
:10031000324A03F551631A6062B61DF0D7FF174BDE
:100320001B6813F0010F05D02D481DF035FF2D4A35
:100330002D4B1A602D4B1B7813F0400F0AD02A4B1F
:100340001A68284B9A4205D125481DF025FF002246
:10035000254B1A6023F0FCFC15F0C6FA1EF028FFAE
:10036000FEE70023124822497DE700BF0E2005402A
:1003700030800440823F04000100002B14D0034071
:1003800002D0074000E00740889FFF1F6095FF1FD5
:100390008B9FFF1FA0DD0200CC5A0020889FFF1F0B
:1003A000C75A002000E400E05FE400E008ED00E050
:1003B0000090FF1F005006400640064004400640E3
:1003C000000003014480044000400640C0100500C6
:1003D00004800440FF76010014E000E000002020CB
:1003E000E0497755A5C3945A1CE0034000F007404C
:1003F00000000000FFFFFFFFFFFFFFFFFFFFFFFF09
:10040000FFFFFFFFFFFFFFFFFFFFFFFFFEFFFFFFFD
:1004100010B5054C237833B9044B13B10448AFF33E
:1004200000800123237010BD889FFF1F0000000083
:1004300098DD020008B5064B1BB106480649AFF32C
:1004400000800648036813B1054B03B1984708BD07
:100450000000000098DD02008C9FFF1F889FFF1F97
:10046000000000000020704700207047704700BF68
:10047000704700BF01207047012070470C4B5B7D27
:1004800083F001030B4A517880F8311092780C2ADE
:1004900084BFA3EB830102EB810280F8322090F845
:1004A000322022B903EB43039B0080F832307047BF
:1004B000AC2C002030FAFF1F40697047704700BF26
:1004C000704700BF30B4C8222C4B1A702C490B88DF
:1004D00003EB432203EB820243F219631A4492B204
:1004E000284C226002EB422402EB84021A4492B2AE
:1004F000254C226002EB422402EB84021A4492B2A1
:10050000224C226041F27074214D2C60214D2C60F0
:1005100002EB422402EB84021A4492B202EB222440
:10052000E4B2048102EB422402EB84021A4492B248
:1005300002EB2224E4B2448102EB422402EB840267
:100540001A4492B202EB2224E4B2848102EB4224E8
:1005500002EB84021A4492B202EB2224E4B2C48178
:1005600002EB422402EB840213449BB20B8003EBA8
:100570002323DBB2038230BC704700BF14A0FF1FEF
:100580004896FF1FA8A6FF1F28A4FF1FB0A6FF1FA5
:1005900020A4FF1F24A4FF1F0369C36143690362F2
:1005A00000238360704700BF0E48038803EB43229B
:1005B00003EB820243F219610A4492B20A4B1A60B9
:1005C00002EB422302EB83030B449BB2074A136006
:1005D00003EB432203EB8203194489B20180044BED
:1005E000196070474896FF1FA8A6FF1F28A4FF1F89
:1005F000B0A6FF1F10B4C16E002907DD024600231C
:10060000012442F8144F01338B42FADB164B1A686F
:10061000C2602A2383601F21017600234376036191
:1006200002623724C46180F82C1080F82D304362B8
:10063000426303240463FF2480F8404080F8413083
:10064000836382644724446480F8541080F85530F2
:10065000C364C2655922826580F8681080F86930E9
:1006600003665DF8044B7047C856002042F67C33A1
:10067000C058704708B500F52E50006810B10368E7
:100680001B69984708BD00BF08B500F52E500068EB
:1006900010B10368DB68984708BD00BFD0F8A80216
:1006A000704700BF0069704710B40B4B5C791A7932
:1006B00042EA44149A790A3A44EA4222028058787B
:1006C0009A78D20242EA40121B7842EA63030B8016
:1006D0005DF8044B704700BF30FAFF1F10B582B0C1
:1006E00000248DF804408DF805408DF8064003483D
:1006F00001A917F0FDF8204602B010BDA8AAFF1FFF
:1007000030B583B0054600248DF804408DF80540CF
:100710008DF80640044801A917F0EAF8C5F8184911
:1007200085F8244903B030BDA8AAFF1F30B583B0B7
:10073000054600248DF804408DF805408DF80640EC
:10074000044801A917F0D4F841F20A43EC5203B06F
:1007500030BD00BFA8AAFF1F00B583B000238DF8ED
:1007600004308DF805308DF80630034801A917F0E4
:10077000BFF803B05DF804FBA8AAFF1F00B583B063
:1007800000238DF804308DF805308DF806300348CD
:1007900001A917F0ADF803B05DF804FBA8AAFF1F8C
:1007A00000B583B000238DF804308DF805308DF846
:1007B0000630034801A917F09BF803B05DF804FB6D
:1007C000A8AAFF1F10B500F11C0420461AF002F879
:1007D00010B1204619F0F2FF10BD00BF10B500F5B2
:1007E0001574204619F0F6FF10B1204619F0E6FF07
:1007F00010BD00BF10B5044680301EF0E3FD20465A
:1008000010BD00BF10B50446034B036000F5157022
:1008100019F08CFF204610BDF08C020010B5044684
:10082000034A40F81C2B19F081FF204610BD00BF81
:10083000288B020010B5044600F5166019F076FF0B
:10084000204610BD10B50446002004211EF0B0FD66
:10085000A073012003211EF0ABFDE06110BD00BFBD
:100860002DE9F04383B00546624B5E7C0B2E28BF1A
:100870000B26614C2046202116F06AFA204605F12D
:10088000680116F05DFA2046002116F021F9204695
:1008900016F0E4F8594B1B78002B00F09F80584B62
:1008A0009F785C780C2F84BF0C3FFFB29CB9DFF8B7
:1008B0004881023755F827300124009440462146EC
:1008C000324616F04FF9009440462146F21D4D4B3A
:1008D00016F048F989E0092C1DD8DFF81C81023494
:1008E00055F824300124009440462146324616F043
:1008F00039F9009440462146F21D434B16F032F977
:10090000023755F8273000944046214606F10E0282
:1009100016F028F969E0112C1BD1DFF8DC800237D2
:1009200055F827300124009440462146324616F0FF
:1009300019F96B6A009440462146F21D16F012F92F
:1009400000944046214606F10E02304B16F00AF99B
:100950004BE0132C15D8DFF8A080023755F827306C
:100960000127009740463946324616F0FBF802341C
:1009700055F82430009740463946F21D16F0F2F83B
:1009800033E0DFF87490023755F8273001270097DD
:1009900048463946324616F0E5F81D4BA3FB0428BD
:1009A0004FEAD80808F1140355F823300097484659
:1009B0003946F21D16F0D6F808EB8808A4EB480477
:1009C00014F0FF0411D0023455F824303946009752
:1009D000484606F10E0216F0C5F806E00121009126
:1009E000054832460B4B16F0BDF8002003B0BDE8B9
:1009F000F08300BFAC2C0020A8AAFF1FD42C00203D
:100A000030FAFF1F248F02002C8F0200F89702009B
:100A1000CDCCCCCC348F020030B585B000248DF81D
:100A200008408DF809408DF80A400D4D284602A96E
:100A300016F05EFF2846214616F07EFF094B1A8805
:100A40009B78ADF80C208DF80E30074B00932846AC
:100A500021461B2203AB16F077FF204605B030BDC0
:100A6000A8AAFF1F088D0200F095FF1F30B585B0C2
:100A700000248DF808408DF809408DF80A400D4D8E
:100A8000284602A916F034FF2846214616F054FFE6
:100A9000094B1A889B78ADF80C208DF80E30074B67
:100AA0000093284621461B2203AB16F04DFF20463B
:100AB00005B030BDA8AAFF1F088D0200F095FF1FEA
:100AC00030B585B000248DF808408DF809408DF8C8
:100AD0000A400D4D284602A916F00AFF2846214675
:100AE00016F02AFF094B1A889B78ADF80C208DF878
:100AF0000E30074B0093284621461B2203AB16F00D
:100B000023FF204605B030BDA8AAFF1F088D0200B4
:100B1000F095FF1F30B585B000248DF808408DF8A2
:100B200009408DF80A400D4D284602A916F0E0FE56
:100B30002846214616F000FF094B1A889B78ADF82D
:100B40000C208DF80E30074B0093284621461B22BF
:100B500003AB16F0F9FE204605B030BDA8AAFF1F72
:100B6000088D0200F095FF1F30B585B000248DF888
:100B700008408DF809408DF80A400D4D284602A91D
:100B800016F0B6FE2846214616F0D6FE094B1A8806
:100B90009B78ADF80C208DF80E30074B009328465B
:100BA00021461B2203AB16F0CFFE204605B030BD18
:100BB000A8AAFF1F088D0200F095FF1F30B585B071
:100BC00000248DF808408DF809408DF80A400D4D3D
:100BD000284602A916F08CFE2846214616F0ACFEE7
:100BE000094B1A889B78ADF80C208DF80E30074B16
:100BF0000093284621461B2203AB16F0A5FE204693
:100C000005B030BDA8AAFF1F088D0200F095FF1F98
:100C100030B585B000248DF808408DF809408DF876
:100C20000A400D4D284602A916F062FE28462146CC
:100C300016F082FE094B1A889B78ADF80C208DF8CF
:100C40000E30074B0093284621461B2203AB16F0BB
:100C50007BFE204605B030BDA8AAFF1F088D02000C
:100C6000F095FF1F30B585B000248DF808408DF851
:100C700009408DF80A400D4D284602A916F038FEAD
:100C80002846214616F058FE094B1A889B78ADF885
:100C90000C208DF80E30074B0093284621461B226E
:100CA00003AB16F051FE204605B030BDA8AAFF1FC9
:100CB000088D0200F095FF1F30B585B000248DF837
:100CC00008408DF809408DF80A400D4D284602A9CC
:100CD00016F00EFE2846214616F02EFE094B1A8805
:100CE0009B78ADF80C208DF80E30074B009328460A
:100CF00021461B2203AB16F027FE204605B030BD6F
:100D0000A8AAFF1F088D0200F095FF1F30B585B01F
:100D100000248DF808408DF809408DF80A400D4DEB
:100D2000284602A916F0E4FD2846214616F004FEE6
:100D3000094B1A889B78ADF80C208DF80E30074BC4
:100D40000093284621461B2203AB16F0FDFD2046EA
:100D500005B030BDA8AAFF1F088D0200F095FF1F47
:100D600030B585B000248DF808408DF809408DF825
:100D70000A400D4D284602A916F0BAFD2846214624
:100D800016F0DAFD094B1A889B78ADF80C208DF827
:100D90000E30074B0093284621461B2203AB16F06A
:100DA000D3FD204605B030BDA8AAFF1F088D020064
:100DB000F095FF1F30B585B000248DF808408DF800
:100DC00009408DF80A400D4D284602A916F090FD05
:100DD0002846214616F0B0FD094B1A889B78ADF8DD
:100DE0000C208DF80E30074B0093284621461B221D
:100DF00003AB16F0A9FD204605B030BDA8AAFF1F21
:100E0000088D0200F095FF1F2DE9F04F89B00546CF
:100E10000020FF211EF0CCFA3349C2B291F8083C01
:100E2000009305A801F60941FF2317F073FF002680
:100E3000029603963FE0029802211EF0B9FA0128BB
:100E400006D19DF814909DF815809DF8167003E06A
:100E5000029FDDF80C80C1461FFA86FB297A5944AF
:100E60001FFA84FA6A7A52448DF818908DF8198026
:100E70008DF81A701D4809B212B206AB16F042F98D
:100E8000012E12DC2B7A0433CBEB03016B7A0AEBD5
:100E900003028DF81C908DF81D808DF81E7013488C
:100EA00009B212B207AB16F02DF90134052CC2D1EC
:100EB0000136032E01D00024BDE72B7A0633DBB2C6
:100EC000192B01D82B7204E001232B726B7A0633A5
:100ED0006B726B7A192B02D901232B726B727D20F6
:100EE00009B0BDE8F08F00BFF0ECFF1FA8AAFF1FFC
:100EF0002DE9F04F89B005460020FF211EF058FA79
:100F00004049C2B291F8083C009305A801F6094196
:100F1000FF2317F0FFFE4FF00009CB46CA46CDF87D
:100F2000089051E0504602211EF042FA012806D1F5
:100F30009DF814809DF815709DF8166002E05646E5
:100F4000029FB846297A494489B26A7A224492B209
:100F50008DF818808DF819708DF81A604B1C501C94
:100F600000B2009006A80190274809B212B21BB245
:100F700016F098FCBBF1010F19DC2B7A6A7A224437
:100F800092B28DF81C808DF81D708DF81E6003994B
:100F900019440933C9EB0303501C00B2009007A8A1
:100FA0000190194809B212B21BB216F07BFC023450
:100FB000A4B20A2CB6D10BF1010B09F102091FFAF8
:100FC00089F9BBF1030F05D0C9F108039BB2039364
:100FD0000024A7E72B7A0B33DBB2162B01D82B7238
:100FE00004E000232B726B7A0B336B726B7A162B37
:100FF00002D900232B726B724FF4FA7009B0BDE86E
:10100000F08F00BFF0ECFF1FA8AAFF1F2DE9F04FE3
:101010008DB000248DF824408DF825408DF82640B1
:101020003D4809A916F064FC2046FF211EF0C0F9D6
:101030003A49C2B291F8083C009308A801F6094168
:10104000FF2317F067FE01250395A246A3460294ED
:101050004BE0584602211EF0ABF9012806D19DF85D
:1010600020909DF821809DF8227003E05F46DDF816
:101070000880C146A5B2261DB6B28DF828908DF81D
:1010800029808DF82A7033B200930AAB019322486D
:10109000DDF810E00FFA8EF12AB2DDF814E00FFA55
:1010A0008EF316F0FFFBBAF1010F11DC8DF82C90D6
:1010B0008DF82D808DF82E7036B200960BAB019313
:1010C0001548079A11B22AB2069D2BB216F0EAFB18
:1010D0000634A4B21F2CBCD10AF1010A039DAB1D3A
:1010E0009BB20393BAF1030F10D0039DADB20495E8
:1010F000039D2B1D9BB20593C5F11A039BB2079369
:10110000C5F11E039BB206930124A2E74FF4FA60D7
:101110000DB0BDE8F08F00BFA8AAFF1FF0ECFF1FC5
:101120002DE9F04F83B083464FF000094FF00F0ACE
:10113000204E4FEAC9085FFA88F855460024FF2779
:10114000102C06DC8DF800808DF801508DF80270AF
:1011500007E08DF800808DF80170C5F10D038DF862
:101160000230684601A917F0A1FE9DF8042096F808
:101170002C309A4210D19DF8052096F82D309A42D5
:101180000AD19DF8062096F82E309A4204D1CBF869
:101190000890CBF80C4009E001340F35EDB2202C5B
:1011A000CED109F10109B9F11F0FC2D103B0BDE8D9
:1011B000F08F00BF6CF9FF1F2DE9F04F83B083461D
:1011C0004FF000094FF00F0A1E4E4FEAC9085FFAB0
:1011D00088F855460024FF27102C06DC8DF8008087
:1011E0008DF801508DF8027007E08DF800808DF8C1
:1011F0000170C5F10D038DF80230684601A917F0A2
:1012000055FE9DF8042033789A420ED19DF80520B2
:1012100073789A4209D19DF80620B3789A4204D196
:10122000CBF80890CBF80C4009E001340F35EDB253
:10123000202CD1D109F10109B9F11F0FC5D103B09B
:10124000BDE8F08F68FBFF1F08B51CF09FFF08BDCD
:101250002DE9F04786B00546D0F81839002B31DC6F
:1012600000238DF80C308DF80D308DF80E30AD4820
:1012700003A916F03DFB05F10F0305F20F10002145
:1012800006E003F8011F9342FBD1824203D01346CC
:1012900003F11002F5E710201EF07EF8044610203E
:1012A0001EF07AF8C5F81841C5F81C010123C5F8ED
:1012B0001839002085F824094FF480711EF078F861
:1012C00085F82509D5F81809D5F81C39012B01D066
:1012D000441E02E01EF060F80446002CC0F2CA80F2
:1012E00004F1230205F5887305EBC20292E80300BE
:1012F00083E803008046D5F814912F4600264FF06E
:10130000040A304651461EF053F897F8263928440F
:1013100090F8262987F8262980F8263901360137E2
:10132000042EEED195F82529D5F81C39012B0CD0C7
:101330007D49224491F8083C009302A801F6094136
:10134000D2B2FF2317F0E6FCACE095F82429531C39
:1013500085F82439744991F8083C009302A801F6F5
:101360000941FF2317F0D6FC9CE093F826090228D8
:1013700009D004280DD0012811D1D5F81061D5F875
:101380001471013F10E0D5F81061D5F814710137E0
:101390000AE0D5F81061013ED5F8147104E0D5F8E3
:1013A00010610136D5F814710F2E52D80F2F50D876
:1013B00005EB07113144097C00294AD14FEA480165
:1013C0004FEA4902D5F81441D5F8103105EB041461
:1013D00023441C7C04431C7405EB071333441B7C1F
:1013E000022869D0042860D0012800F0918005EB24
:1013F0000714344443F004032374022807D004285C
:1014000007D0012818BF013105D1013A03E00132AC
:1014100001E00139FFE79DF809009DF80A309DF8C9
:1014200008408DF814408DF815008DF816303D48B1
:1014300009B212B205AB15F065FED5F818395A1C81
:10144000C5F81829233305EBC30245F8336057600C
:1014500010E00133934288D135E0013493E8030072
:1014600003E90300D5F81829013A08339442F4DB64
:10147000C5F81829D5F81839002B0EDCD5F81C3919
:101480000133C5F81C39D5F82029934207DB002326
:10149000C5F81C394FF47A7041E000203FE04FF46A
:1014A0007A703CE02A1D2B465FE705EB07103044BD
:1014B00043F008030374ACE705EB0710304443F036
:1014C00001030374A3E704F1230305EBC30255F8FA
:1014D00033104900526852009DF809009DF80A3007
:1014E0009DF808608DF810608DF811008DF81230AD
:1014F0000C4809B212B204AB15F004FED5F8182955
:10150000013A9442B4DA04F1240305EBC303A4E7DF
:1015100005EB0710304443F00203037475E706B08F
:10152000BDE8F087A8AAFF1FF0ECFF1F10B5044626
:1015300043691944032902DD0023436104E00029C3
:10154000AEBF416103234361A06A10B103681B6908
:1015500098476369063354F82300A06210B103680A
:10156000DB68984710BD00BF2DE9F04F8FB0244CC9
:1015700000250027A046DFF88C904FF0814B00201B
:10158000FF211DF015FF0020FF211DF011FF28464F
:1015900022F064F920606760C8EB040608F10803D4
:1015A000F75006EB030A284621F006FD12A3D3E903
:1015B000002321F067FD22F047F8CAF8040008F183
:1015C0001003F7501E447760C4F81890C4F81C90BC
:1015D000C4F820B04FF082436362EB0084F82830F7
:1015E0000C9BE362012384F830301D443434202DF9
:1015F000C5D10FB0BDE8F08F7B14AE47E17A84BF50
:10160000002D00200000204110B5044600200421D8
:101610001DF0CEFE032802DD0023636104E00028F4
:10162000AEBF606103236361A06A10B103681B69E8
:1016300098476369063354F82300A06210B1036829
:10164000DB68984710BD00BF2DE9F04F91B03649D7
:101650000B8803EB432203EB820343F2196213442A
:101660009BB2038103EB432403EB840313449BB23B
:10167000438103EB432403EB84031A4492B20A80B0
:1016800082812A4C0026DFF8AC904FF07C5A202053
:101690001DF082FE05460020FF211DF089FE8346D5
:1016A0000020FF211DF084FE0190284622F0D2F890
:1016B000206066601D4BE51A984603F108075846FE
:1016C00022F0CCF8494622F0D1F9514622F010F828
:1016D000E8512F44019822F0C1F8494622F0C6F99A
:1016E000514622F005F8786008F11003EE501D44D1
:1016F0006E600F4BA3614FF07F53E3614FF0814366
:1017000023624FF082436362002384F828300E9BEB
:10171000E362012384F83030343408F502639C42DC
:10172000B5D111B0BDE8F08F4896FF1F002D002005
:10173000CDCC4C3D00007F432DE9F04F83B0834674
:10174000002002211DF034FE0028034608BF4FF0A0
:10175000FF330193DBF80830002B4FDD294C0025C7
:1017600000270020FF211DF023FE0020FF211DF097
:101770001FFE282032211DF01BFE8246224B2360D3
:10178000C5F11F0022F06AF860601E4BE61A984609
:1017900003F10809504622F061F81C4922F066F96D
:1017A0008246019822F05AF80146504622F0AAF8E3
:1017B00046F80900B144C9F8047008F1100846F869
:1017C0000870B044C8F80470114BA3614FF07F5308
:1017D000E3614FF0814323624FF0824363626B0108
:1017E00084F828304FF07E53E362012384F83030D0
:1017F0001D443434DBF80830AB42B2DC03B0BDE842
:10180000F08F00BF002D0020000070410000C84292
:10181000CDCC4C3D10B50446C3682BB1154A1268B7
:10182000D31A026993421ED90022134B1A7013482F
:101830001BF0C2FA18B101220F4B1A700DE094F898
:101840002F302BB90E481BF02FFA012384F82F30CC
:101850001BF0E2F909491BF083F80122094B1A70C9
:10186000044B1B68E360A06A10B103689B6898474B
:10187000002010BDC8560020ACA6FF1F30FAFF1F85
:1018800049120000D42C00202DE9F04F93B00B90AA
:1018900041F20A43C35A002B40F0BD838DF83C301F
:1018A0008DF83D308DF83E30AF480FA916F020F886
:1018B00004201DF071FD032800F2AD81DFE810F077
:1018C00016000D000400480100221346A74D1746DC
:1018D00040F6F5264FF0FF0812E100221346A34D13
:1018E000174640F6F5264FF0FF08A6E00022134603
:1018F0009E4D174640F6F5264FF0FF083AE085FB6F
:1019000004AB4FEAE47ACAEBAB0A80F80DA080F88A
:101910000EC080F80FE00133B3F5806F00F06083F4
:10192000FF3403304B45EAD1FF31B1421ED085FB75
:10193000010CC817C0EBAC0C5FFA8CFC03EB430442
:101940000834DDF82C904C44A77084F803C084F868
:1019500004E05C1CB4F5806F00F0428303EB4300AD
:10196000484403F10B0923464446C8E7FF32B2421C
:1019700000F0368385FB02AED117C1EBAE0E5FFAE5
:101980008EFE3946D3E7284631461DF011FD94F806
:1019900000C094F801E0A17800EB40003B1833F858
:1019A0000A2F9B782280A37000F108023A4482F843
:1019B00002C082F803E0117101350334B5F5806F80
:1019C000E1D128E180F80DE085FB04AB4FEAE47A31
:1019D000CAEBAB0A80F80EA080F80FC00133B3F554
:1019E000806F00F00683FF3403304B45EAD1FF31AE
:1019F000B1421ED085FB010CC817C0EBAC0C5FFADE
:101A00008CFC03EB43040834DDF82C904C4484F840
:101A100002E0E77084F804C05C1CB4F5806F00F04D
:101A2000E88203EB4300484403F10B092346444694
:101A3000C8E7FF32B24200F0DC8285FB02AED1176C
:101A4000C1EBAE0E5FFA8EFE3946D3E7284631462B
:101A50001DF0AEFC94F800C094F801E0A17800EB12
:101A600040003B1833F80A2F9B782280A37000F1C6
:101A700008023A4482F802C082F803E0117101358D
:101A80000334B5F5806FE1D1C5E080F80DE080F852
:101A90000EC085FB04AB4FEAE47ACAEBAB0A80F8D0
:101AA0000FA00133B3F5806F00F0AC82FF34033038
:101AB0004B45EAD1FF31B1421ED085FB010CC8175E
:101AC000C0EBAC0C5FFA8CFC03EB43040834DDF88C
:101AD0002C904C4484F802E084F803C027715C1C0D
:101AE000B4F5806F00F08E8203EB4300484403F1AD
:101AF0000B0923464446C8E7FF32B24200F0828217
:101B000085FB02AED117C1EBAE0E5FFA8EFE3946F1
:101B1000D3E7284631461DF04BFC94F800C094F8FA
:101B200001E0A17800EB40003B1833F80A2F9B78C6
:101B30002280A37000F108023A4482F802C082F8C1
:101B400003E0117101350334B5F5806FE1D162E036
:101B50000020FF211DF02CFCC6B2DDF82C804FF0D8
:101B6000000BD946FF2751E0A8AAFF1F67666666EB
:101B7000B5F5806F15DA8DF838608DF839408DF83D
:101B80003A700EA811A917F07DF99DF844109DF840
:101B900045209DF846308AF800108AF801208AF81E
:101BA000023001351034A4B20AF1030AB4F5807F83
:101BB000DED1DA460BF11005C346B5F5806F15DAB4
:101BC0008DF838608DF839708DF83A400EA810A95C
:101BD00017F058F99DF840109DF841209DF84230CB
:101BE0008BF83A108BF83B208BF83C300135103CD9
:101BF000A4B20BF1030B002CDFD10AF1200B083645
:101C0000F6B208F16008BBF5806F04D008F10A0A4B
:101C10005D464C46ACE702201DF0BEFB41F20C4392
:101C2000DDF82C9009F8030009F60A4009F62A4469
:101C3000002208E01A7083F8002420338B42F9D187
:101C40000130A04203D000F580610346F2E741F283
:101C50000A43DDF82CA03AF8033003EB4302524468
:101C600032F80A1F9278ADF834108DF8362053B947
:101C700020201DF091FBC0B20A9020201DF08CFBAB
:101C8000C0B2099043E19DF83490CDF81C909DF8C6
:101C900035A0CDF818A09DF83690CDF8149041F2FB
:101CA0000C43DDF82CA01AF8033033B90020029061
:101CB00009900A90C349089198E04FF00009CDF8C7
:101CC0000C90CDF82490CDF82890BE49049119E1EC
:101CD000029A5A4441F20A03D35C002B7AD0029A4A
:101CE00002320392029B5E1EDFF8D8A207F1FF3991
:101CF000CDF81090CDF804B0B6F1FF3F4AD0202EB9
:101D000048D0DDF8049009F60A4507F10208354489
:101D1000049C0FFA86FB0FB90298B8B3B4F1FF3FE9
:101D200034D0202C32D015F8203C7BB3A64821B209
:101D30005A4615F099F98DF83800C0F307228DF84E
:101D40003920C0F307438DF83A30C0B2DDF81C905B
:101D5000C9EB0000D2B2DDF81890C9EB0202DBB289
:101D6000DDF81490C9EB030302FB02F200FB002034
:101D700003FB0309D14507DB08D102201DF00CFB52
:101D8000012818BFCA4601D1CA46FFE701342035F1
:101D90004445C0D10136DDF80C904E45ACD1DDF89C
:101DA00004B054460898824507DB13D102201DF089
:101DB000F3FA012818BF08940CD15FFA87F9CDF81F
:101DC0002890DDF808905FFA89F9CDF82490CDF8D5
:101DD00020A0FFE701370BF1200B202F7FF478AF15
:101DE000029801300290202800F09180DDF82CA0AC
:101DF0004FF0000B5F46D3466AE7039A524441F224
:101E00000A03D35C002B6DD0DDF80C9009F1FF368E
:101E10004FF00009CDF804904FF0FF380BEB0800AD
:101E20000290CDF820B0B6F1FF3F39D0202E37D048
:101E30000AF60A450AF66A4737443544029C0FFA07
:101E400086FBB4F1FF3F27D0202C25D015F8203C8D
:101E500013B309F101095C4821B25A4615F004F99F
:101E60008DF83800C0F307228DF83920C0F30743FE
:101E70008DF83A30C0B20799401AD2B20699521A78
:101E8000DBB205995B1A02FB02F200FB002003FBA8
:101E90000303019A1A44019201342035BD42D0D186
:101EA00008F101080136B8F1020FBCD1DDF820B00D
:101EB000019B93FBF9F40498844207DB12D10220C2
:101EC0001DF06AFA012818BF04940BD15FFA8BF950
:101ED000CDF82890DDF80C905FFA89F9CDF82490C0
:101EE0000494FFE70BF1010B0AF1200ABBF1200F6C
:101EF00083D1DDF80CA00AF1010ACDF80CA0504600
:101F0000202804D0DDF82CA04FF0000B75E7DDF899
:101F10002C90DDF828A009EB4A12DDF824904A4401
:101F200002F5805300219972012382F80A3C264869
:101F300051464A460DAB15F0E5F809F1FF300AF1BC
:101F4000FF3209F58053093303EB42130B9D1D4407
:101F50004FF0FF31944600270126B0F1FF3F1BD020
:101F6000202819D062462C463B4602E0013320343B
:101F70000132012B01D10029F8D0B2F1FF3F09D085
:101F8000202A07D0A4F5806898F80080B8F1000FE7
:101F900000D12670012BE9DD013101300135022924
:101FA000DBD141F20A43DDF82CA03AF803300133CB
:101FB0009BB2B3F5806F09D241F20A422AF802308F
:101FC000002035E03F420F00A8AAFF1F002241F287
:101FD0000A43DDF82C9029F8032040F6B83027E0BA
:101FE000DDF82CA00AF10A0400254FF4806657465C
:101FF000C9E4DDF82C9009F10A0400254FF480664D
:102000004F4623E5DDF82CA00AF10A0400254FF421
:10201000806657467DE503EB4303DDF82C904B4487
:1020200033F80A2F9B78ADF834208DF836302AE645
:1020300013B0BDE8F08F00BFF0B583B00446467C16
:10204000274B1B78D3B1274B9D78437D2BB90C2DA3
:1020500002D90C3DEDB200E0E5B12348052114F0B2
:1020600037FD04F1080021492A461E4B5B7822F017
:1020700025FC0A2D34BF0427012718E01A48002147
:1020800014F026FD1A4B03CBA060E1601B7823748B
:1020900001270CE01448052114F01AFD04F1080092
:1020A00012490C220F4B5B7822F008FC01270E4DE1
:1020B0002846202114F04CFE284604F1120114F0A9
:1020C0003FFE284614F0CAFC0123009328463946F7
:1020D000324604F1080314F045FD002003B0F0BDC2
:1020E000D42C002030FAFF1FA8AAFF1F408F020047
:1020F000348F02002DE9F04383B00546524B1B7824
:1021000073B311301AF0F0FC044650481AF0ECFC9E
:1021100084421CDD241A4E48A0FB0430C00AC2B21F
:102120004FF4616303FB12434A49A1FB03635B095C
:10213000A4EB0010C3EB0311A0EB8100C0B2009030
:1021400005F108004449DBB222F0B8FB0EE00023A1
:10215000009305F1080040491A4622F0AFFB05E064
:102160003E4B03CBA860E9601B782B743C4814F00D
:1021700075FC354B1B78E3B1344B9C78394B5B7D58
:102180002BB90C2C02D90C3CE4B200E0ECB1344881
:10219000052114F09DFC3448344922462B4B5B78D2
:1021A00022F08CFB0A2C34BF4FF004094FF00109D8
:1021B00018E02B48002114F08BFC284A2A4B07CA50
:1021C00003C31A704FF001090CE02548052114F0F3
:1021D0007FFC254825490C221C4B5B7822F06EFBC6
:1021E0004FF001091E4C2046202114F0B1FDDFF80C
:1021F000748008F112072046394614F0A1FD2046EC
:1022000014F02CFC0126009620464946002208F1D5
:10221000080314F0A7FC2046002114F059FC2046C6
:10222000202114F095FD2046394614F089FD0096D2
:10223000204631461A2205F1080314F093FC0020D1
:1022400003B0BDE8F08300BFD42C002030FAFF1F9C
:10225000C5B3A29189888888488F0200348F020014
:10226000A8AAFF1FAC2C0020B42C0020408F020035
:102270002DE9F04F9FB003904D4CDFF85091DFF8FF
:1022800040814FF07C5B4FF0000A0020FF211DF0E1
:102290008FF801900020FF211DF08AF80290C4F809
:1022A0000090C4F804904249651A0F4601F10806EF
:1022B000019821F0D3FA414621F0D8FB594621F08C
:1022C00017FAA8512E44029821F0C8FA414621F08D
:1022D000CDFB594621F00CFA706007F1100345F868
:1022E00003A01D44C5F804A04FF0814323624FF0C2
:1022F00082436362002384F828300F9BE36201234A
:1023000084F830302B4BE3612B4BA361343407F559
:1023100002729442B9D1002002211DF049F8002830
:10232000D4BF00200120039B83F8450000283BD048
:102330000020FF211DF03CF805460020FF211DF084
:1023400037F804461D4B03998B60CB60284621F07B
:1023500085FA1B4921F08AFB4FF07C5121F0C8F926
:10236000039A1061204621F079FA154921F07EFB8D
:102370004FF07C5121F0BCF9039B58610023039975
:102380008B61CB61002281F830201C9A4A630122C4
:1023900081F8382081F845200A4A4A620A4A0A62CE
:1023A0004FF08342CA628B621FB0BDE8F08F00BF5E
:1023B000002D00205C8FC23E8FC2753C0000F841AA
:1023C00000007F43B81EC53E0AD7A33C0000704101
:1023D0002DE9F04387B000258DF810508DF811508D
:1023E0008DF81250214804A915F082FADFF8849084
:1023F000DFF884801E4E06F60947D8F8003095FBBA
:10240000F3F359F823402246002CB8BFE21C96F89B
:10241000083C009303A83946C2F38702FF2316F055
:1024200079FCABB29DF80D109DF80E209DF80C00C4
:102430008DF814008DF815108DF8162019B222466B
:10244000002CB8BF04F11F025211C2F120021F205C
:10245000009005A80190054812B21BB214F09EFF2F
:102460000135202DC9D107B0BDE8F083A8AAFF1F10
:10247000F0ECFF1F6CFBFF1FA895FF1F2DE9F04F2D
:1024800087B000278DF810708DF811708DF81270DC
:10249000294804A915F02CFA284B1D1F03F1380B0D
:1024A000DFF89C8008F6094ADFF88C9055F8044F55
:1024B0006E682246002CB8BFE21C98F8083C0093D6
:1024C00003A85146C2F38702FF2316F023FC2346DC
:1024D000002CB8BF04F11F035A11C2F12002D2B27E
:1024E0003346002EB8BF06F11F035B11C3F1200372
:1024F000DBB2BC1CA4B29DF80D009DF80E109DF837
:102500000C608DF814608DF815008DF816101F2BD7
:1025100028BF1F23009305AB0193484639B21F2AF9
:1025200028BF1F2223B214F039FF5D4501D0274692
:10253000BCE707B0BDE8F08FA8AAFF1F6CFBFF1F28
:10254000F0ECFF1FFFFFFFFF2DE9F04F91B00D9062
:102550000023734DEB202968CA18CC5C00FB04F4FF
:102560002412CC54517800FB01F10912517091787A
:1025700000FB01F1091291700333B3F5406FEAD10A
:1025800000220C92DFF8B8B1D946664B0C9AD558A8
:102590000D9A937A13B1644B0C9AD5582B46002DA3
:1025A000B8BFEB1CC3F387044FF002082E46274642
:1025B0005B4991F8083C00930EA801F609413A46A0
:1025C000FF2316F0A7FB304620F0F6FC0022574B05
:1025D00020F058FD0022564B20F0A0FB21F034F8EB
:1025E0000446002121F04AFB002800F083802046A9
:1025F00020F0F4FC82468B46484620F0EFFC46A3D0
:10260000D3E9002320F03EFD21F01EF820F0E6FC87
:1026100004460D461EF030FACDE904012046294655
:102620001EF060F9CDE906014846424921F060F804
:1026300020F0D4FC38A3D3E9002320F023FD21F0BF
:1026400003F820F0CBFC04460D461EF015FACDE948
:102650000801204629461EF045F9CDE90A019DF8FA
:1026600039209DF83A309DF838108DF83C108DF8DF
:102670003D208DF83E3050465946DDE9042320F0D8
:1026800001FD00222C4B20F04BFB20F095FF04B203
:1026900050465946DDE9062320F0F4FC0022264B83
:1026A00020F03EFB20F088FF00B2009050465946D3
:1026B000DDE9082320F0E6FC00221F4B20F030FB70
:1026C00020F07AFF00B2019050465946DDE90A2316
:1026D00020F0D8FC0022184B20F022FB20F06CFFE9
:1026E00000B202900FAB039314480F210A46234611
:1026F00015F00EF848460F4920F0FAFF8146B8F170
:1027000001087FF455AF0C9B04330C931C2B7FF412
:102710003CAF11B0BDE8F08F399D52A246DF913F2A
:10272000F0ECFF1FD4ECFF1F10FAFF1F0000903FDA
:102730000000F03F0000C84100002E40A8AAFF1F83
:102740000000B443AFF300802DE9F04F93B005468D
:10275000837B032B00F20B82DFE813F0040076008A
:10276000E8005E010024AA4F07F60949DFF8A482B9
:10277000E6B2AB7A03EB4603DBB213F0800F1CBF6B
:10278000DB43DBB25B00DBB213F0800F00F0E481CF
:1027900083F0FF0303F1010B5FFA8BFB0BFB03F3E9
:1027A0004FEAD31B0BF0FE0B8BF0FF0B2B699BFB4F
:1027B000F3FB1FFA84FA6A7B324497F8083C0093D3
:1027C00003A84946D2B2FF2316F0A4FA9DF80D20C3
:1027D0009DF80E309DF80C108DF808108DF809202A
:1027E0008DF80A3040460FFA8AF15A4602AB14F0CF
:1027F00089FCEB69022B23D1AB69CBEB030B1FFAEE
:102800008BFB6A7B324497F8083C009305A8494645
:10281000D2B2FF2316F07EFA9DF815209DF81630EF
:102820009DF814108DF810108DF811208DF81230CD
:1028300040460FFA8AF10FFA8BF204AB14F062FCF7
:102840000134202C94D192E10024714F07F60949FC
:10285000DFF8C081E6B2AB7A03EB4603DBB213F0DC
:10286000800F1CBFDB43DBB25B00DBB213F0800FD9
:1028700000F0808183F0FF0303F1010B5FFA8BFB13
:102880000BFB03F34FEAD31B0BF0FE0B8BF0FF0B9C
:102890002B699BFBF3FB1FFA84FA6A7B324497F89F
:1028A000083C009307A84946D2B2FF2316F032FA3B
:1028B0009DF81D209DF81E309DF81C108DF81810F5
:1028C0008DF819208DF81A30404659460FFA8AF2D1
:1028D00006AB14F017FCEB69022B23D16B69CBEB31
:1028E000030B1FFA8BFB6A7B324497F8083C00937A
:1028F00009A84946D2B2FF2316F00CFA9DF825200C
:102900009DF826309DF824108DF820108DF8212098
:102910008DF8223040460FFA8BF10FFA8AF208AB9D
:1029200014F0F0FB0134202C94D120E10024384F26
:1029300007F60949DFF8DC80E6B2AB7AC3EB460361
:10294000DBB213F0800F1CBFDB43DBB25B00DBB2FA
:1029500013F0800F00F0198183F0FF0303F1010BE6
:102960005FFA8BFB0BFB03F34FEAD31B0BF0FE0B61
:102970008BF0FF0B2B699BFBF3FB1FFA84FA6A7B3E
:10298000324497F8083C00930BA84946D2B2FF2383
:1029900016F0C0F99DF82D209DF82E309DF82C10D2
:1029A0008DF828108DF829208DF82A3040460FFA2E
:1029B0008AF15A460AAB14F0A5FBEB69022B23D12E
:1029C000AB69CBEB030B1FFA8BFB6A7B324497F8A6
:1029D000083C00930DA84946D2B2FF2316F09AF99D
:1029E0009DF835209DF836309DF834108DF8301064
:1029F0008DF831208DF8323040460FFA8AF10FFA07
:102A00008BF20CAB14F07EFB0134202C94D1AEE0A1
:102A1000F0ECFF1FA8AAFF1F0024694F07F6094921
:102A2000DFF8A081E6B2AB7AC3EB4603DBB213F06A
:102A3000800F1CBFDB43DBB25B00DBB213F0800F07
:102A400000F0AE8083F0FF0303F1010B5FFA8BFB14
:102A50000BFB03F34FEAD31B0BF0FE0B8BF0FF0BCA
:102A60002B699BFBF3FB1FFA84FA6A7B324497F8CD
:102A7000083C00930FA84946D2B2FF2316F04AF94A
:102A80009DF83D209DF83E309DF83C108DF83810A3
:102A90008DF839208DF83A30404659460FFA8AF2BF
:102AA0000EAB14F02FFBEB69022B23D16B69CBEB40
:102AB000030B1FFA8BFB6A7B324497F8083C0093A8
:102AC00011A84946D2B2FF2316F024F99DF84520FB
:102AD0009DF846309DF844108DF840108DF8412047
:102AE0008DF8423040460FFA8BF10FFA8AF210ABA4
:102AF00014F008FB0134202C94D138E00168CA1886
:102B0000CC5CC4EBC414E411CC545178C1EBC111BA
:102B1000C91151709178C1EBC111C9119170033382
:102B2000B3F5406FEAD12B7A6A7A9A4205D800232E
:102B30002B72AB7A0133AB7201E001332B72EB7A6B
:102B40002A7B9A4205D80023EB726B7B01336B73AF
:102B500031E00133EB722EE003F1010B5FFA8BFBE6
:102B60000BFB03FB4FEADB1B0BF0FE0B1EE6002307
:102B70001348C3E703F1010B5FFA8BFB0BFB03FB6D
:102B80004FEADB1B0BF0FE0B82E603F1010B5FFA51
:102B90008BFB0BFB03FB4FEADB1B0BF0FE0BE9E6A9
:102BA00003F1010B5FFA8BFB0BFB03FB4FEADB1B13
:102BB0000BF0FE0B54E7002013B0BDE8F08F00BF10
:102BC000F0ECFF1FA8AAFF1F2DE9F04F97B002906D
:102BD000554B1B684FF40C3202FB03F2120ED3B2BA
:102BE00013F0400F00F01082DB43DBB203F03F0133
:102BF00003F00F0301334D4809114900441864786C
:102C000003FB04F3415C01EB2313DBB212F0800FF2
:102C100018BF5B42DBB283F0800303EB8303181120
:102C20005638C0B20023424D2968CA18CC5C00FB5C
:102C300004F42412CC54517801FB00F109125170B4
:102C4000917801FB00F1091291700333B3F5406FE5
:102C5000EAD1029A9368002B40F3DB81DFF8D4803D
:102C60004FF0000ACDF828A0324B5AF80320049206
:102C700003EB0A02039252680692039A92680D923D
:102C800003EB0A02D2680E92039A12690892534427
:102C90005B690F93C346D8F818301093D8F81C20FE
:102CA0000992D8F820301193D8F82420129298F87D
:102CB00028300B93D8F82C200C9298F830301393CE
:102CC000029A5069049920F013FD0746029B986907
:102CD000069920F00DFD06463846394620F012FED2
:102CE00004463046314620F00DFE0146204620F0D5
:102CF00001FD20F073F904460D461EF083F820F024
:102D0000A3FC81460C4920F09BFF48B948464FF090
:102D1000844120F0B3FF98B9484620F05FF911E0F4
:102D2000002006490EE000BFC8560020148F0200A4
:102D3000F0ECFF1F002D00200000A0400000144018
:102D40000020AC4920F080FC8146204629461EF038
:102D500059F820F079FC002120F068FF38BB2046AC
:102D600029461EF04FF820F06FFC20F037F902469C
:102D70000B460020A04920F0AFFA04460D46384625
:102D800020F02CF902460B462046294620F07AF91D
:102D900020F05AFC0746304620F020F902460B4648
:102DA0002046294620F06EF920F04EFC0646029A95
:102DB0001069D16820F0A6FD01460C9820F0A2FD14
:102DC00004464846494620F09DFD0146204620F035
:102DD0004DFE20F003F904460D46384620F0FEF87B
:102DE00002460B462046294620F04CF920F02CFCE8
:102DF0000146089820F07EFC0746304620F0EEF8A9
:102E000002460B462046294620F03CF920F01CFCE7
:102E100001460F9820F06EFC08900D98394620F07E
:102E200069FC81460E98089920F064FC06464846E5
:102E3000494620F067FD04463046314620F062FDE9
:102E40000146204620F056FC04460998014620F031
:102E500059FD0146204620F011FF002851D02046A0
:102E600020F0BCF804460D461DF0CCFF20F0ECFB32
:102E7000002120F0DBFE38BB204629461DF0C2FFB2
:102E800020F0E2FB20F0AAF802460B4600205A4947
:102E900020F022FA04460D46484620F09FF80246EC
:102EA0000B462046294620F0EDF820F0CDFB814668
:102EB000304620F093F802460B462046294620F083
:102EC000E1F820F0C1FB0646099820F087F8044697
:102ED0000D46484620F082F802460B462046294619
:102EE00020F0D0F820F0B0FB8146304620F076F894
:102EF00002460B462046294620F0C4F820F0A4FBE9
:102F000006460498494620F0F5FB054606983146EA
:102F100020F0F0FB0446384620F060F80022002341
:102F200020F0B0F8CDE90401089820F057F800220D
:102F3000002320F0A7F8CDE90601304991F8083CBC
:102F4000009315A801F609410B9AFF2315F0E2FE44
:102F50009DF855209DF856309DF854108DF850106E
:102F60008DF851208DF85230284620F091FE07B29E
:102F7000204620F08DFE02B22148394614AB14F0F1
:102F8000C1F8204F4AF80750039B5C6007EB0A0426
:102F9000C4F80890E660DDE9040120F055FB2061EB
:102FA00010375744DDE9060120F04EFB7860109A97
:102FB000CBF81820099BCBF81C30119ACBF82020B5
:102FC000129BCBF824300B9A8BF828200C9BCBF863
:102FD0002C30139A8BF830200A9B01330A930AF1A4
:102FE000340A08F13408029A93680A9A93423FF728
:102FF0003BAE0EE0000040400000F03FF0ECFF1F51
:10300000A8AAFF1F002D002003F03F0103F00F03CB
:10301000F1E50F2017B0BDE8F08F00BF2DE9F047B4
:1030200084B000233C4DAA202968CA18CC5C00FB60
:1030300004F42412CC54517800FB01F109125170B0
:10304000917800FB01F1091291700333B3F5406FE1
:10305000EAD1002620253446DFF8C8902E4F07F627
:103060000948FF2D9ABF290289B22946D9F80030B4
:103070004FF48C7202FB03F201FB02F2120ED3B288
:1030800013F0400F3ED0DB43DBB203F03F0103F00F
:103090000F03013321480911490000EB010E9EF88E
:1030A00001A003FB0AF3415C01EB2313DBB212F036
:1030B000800F18BF5B425FFA83FA97F8083C0093D1
:1030C00003A841463246FF2315F024FE9DF80D204B
:1030D0009DF80E309DF80C108DF808108DF8092021
:1030E0008DF80A308AF080020D4821B2D20802AB76
:1030F00014F008F801340135ADB20736F6B2202CD1
:10310000AFD104E003F03F0103F00F03C2E70F204B
:1031100004B0BDE8F08700BFF0ECFF1F148F020081
:10312000A8AAFF1FC85600202DE9F04F85B005461C
:103130000023454EAA243168CA18C85C04FB00F07D
:103140000012C854517804FB01F1091251709178B2
:1031500004FB01F1091291700333B3F5406FEAD11A
:1031600020260024DFF8F0A0DFF8F0B0DFF8D880E8
:1031700008F609492246002CB8BFE21CC2F38702B8
:10318000062A28BF06225AF82230A97A09B15BF82C
:103190002230FF2E9ABF300280B230462B4A12688E
:1031A0004FF48C7101FB02F100FB01F1090ECAB270
:1031B00012F0400F40D0D243D2B202F03F0002F0F2
:1031C0000F020132224F0011400007EB000E9EF863
:1031D00001E002FB0EF2385C00EB2212D2B211F0D9
:1031E000800F18BF5242D7B21A46002BB8BFDA1C64
:1031F00098F8083C009303A84946C2F38702FF23CE
:1032000015F088FD9DF80D209DF80E309DF80C10EE
:103210008DF808108DF809208DF80A3087F08002AB
:103220000C4821B2D20802AB13F06CFF0134013616
:10323000B6B2202C05D09DE702F03F0002F00F024D
:10324000C0E705B0BDE8F08FF0ECFF1FC8560020C6
:10325000148F0200A8AAFF1FD4ECFF1F10FAFF1F53
:103260002DE9F041B8B00446B14B1B78002B00F0BB
:103270005B814369002B40F3578100F11C06304607
:1032800017F0A8FA10B1304617F098FAA26925692C
:103290006369002D7ADB9D4278DA08A8A5490123ED
:1032A00017F01CFC08A817F095FA00286BD010A89E
:1032B00008A9012217F0C6FC9F4F5AE010A817F08A
:1032C0007DFA56E010A817F037FA014603785F2B15
:1032D0002AD07E2B28D02E2B26D034A81CF0BEF866
:1032E00034A81CF009FA014604A81CF0F3F834A82D
:1032F0001CF068F830A839461CF0B0F804A830A9D2
:103300001CF09EF9804630A81CF05CF804A81CF064
:1033100059F8B8F1010F07D1013D10A817F00CFAC8
:103320000146684621F0C0FC10A817F047FA28A80B
:1033300008A9012217F086FC9DF8A4308DF84430CE
:103340002A9B12939DF8AC308DF84C3038AB53F873
:10335000330D59689A68CDF84D00CDF85110CDF86D
:1033600055201B7B8DF859302F9B179328A817F0F9
:10337000DDF910A817F02EFA002800F09680002D35
:1033800080F2A08091E008A817F0D0F904F141057F
:103390002846A16921F088FC2846694621F0D6FA22
:1033A00020A864492A46012317F098FB9DF8843031
:1033B00084F82030229B63629DF88C3084F828309A
:1033C00038AB53F8535D58689968C4F82950C4F86D
:1033D0002D00C4F831101B7B84F83530279BA36384
:1033E00020A817F0A3F9304617F0F4F9002800F0F0
:1033F0009B8094F820E08DF864E0676A1A9794F84F
:1034000028008DF86C004D4B1893234653F8295F24
:1034100059689A68CDF86D50CDF87110CDF87520C7
:10342000197B8DF87910A26B1F92454D85F864E9E0
:10343000C5F8687985F86C09DDF86DE0DDF8717024
:10344000DDF87500C5F86DE9C5F87179C5F875093D
:1034500085F87919C5F87C2918A817F067F90023B1
:10346000237205F5166010A9062217F071F910A84D
:103470003449062221F0A6FC78B310A8324906226E
:1034800021F0A0FC48B324E003F00703013301223C
:1034900002FA03F32A498B6503EB430201F5166038
:1034A0005C3192B217F054F93EE010A817F086F99B
:1034B00008A817F083F910A817F038F908A817F032
:1034C00035F963E710A817F039F900287FF4F6AE54
:1034D000F8E6304617F072F926E0194C04F5166547
:1034E000284617F0ADF80646284617F0A9F846EA30
:1034F00000202060284617F0A3F80646284617F05B
:103500009FF846EA00206060284617F099F8A0600E
:10351000284617F095F82061284617F091F8E060EA
:10352000A36813F0800FAFD138B0BDE8F08100BFC1
:1035300000A0FF1F2C530020588F020038D5020036
:10354000ACAAFF1F608F0200688F0200FFFFFFFF21
:103550002DE9F04F89B0814600238B4DBE202968AC
:10356000CA18CC5C00FB04F42412CC54517800FB44
:1035700001F109125170917800FB01F1091291706B
:103580000333B3F5406FEAD1D9F81C004FF0824104
:1035900020F0B8F920F0A2FBC2B27B4B93F8083CB4
:1035A000009305A87949FF2315F0B4FBD9F80880EA
:1035B000D9F80C001FF012FD04460D464046D9F81C
:1035C0001C1020F097F81FF009FD6DA3D3E900232C
:1035D0001FF058FD20F038F81FF000FD06460F469A
:1035E0001DF080F902460B46204629461FF04AFD91
:1035F0000022674B1FF094FB1FF0DEFF0290304665
:1036000039461DF039FA02460B46204629461FF07E
:1036100039FD02460B4600205D491FF07FFB1FF07D
:10362000CBFF0390DFF870B1D9F80C001FF0D6FC87
:1036300004460D4640461FF0D1FC51A3D3E90023B8
:103640001FF020FD20F000F81FF0C8FC06460F46D2
:103650001DF048F902460B46204629461FF012FD90
:1036600000224B4B1FF05CFB1FF0A6FF824630464A
:1036700039461DF001FA02460B46204629461FF046
:1036800001FD02460B46002041491FF047FB1FF099
:1036900093FF06469DF815209DF816309DF81410EE
:1036A0008DF818108DF819208DF81A300FFA8AF459
:1036B00005B2584621462A4606AB13F023FD9DF875
:1036C00015209DF816309DF814108DF81C108DF8FB
:1036D0001D208DF81E3058462946224607AB13F0B0
:1036E00011FD40464FF07E5120F004F880462949F4
:1036F00020F0BAFA08B14FF00008029B9A4593D126
:10370000039B9E4290D1D9F81C402046D9F808105E
:103710001FF0F0FF05461F4920F0A6FA10B9C9F8BE
:10372000085029E00023C9F80830D9F82050204675
:1037300029461FF0DFFF0446C9F81C00D9F81060C5
:10374000314620F087FA30B1C9F81C6005F1004518
:10375000C9F8205010E0D9F818602046314620F012
:103760008DFA48B1304629461FF0C2FFC9F81C0047
:1037700005F10045C9F82050002009B0BDE8F08FE0
:10378000399D52A246DF913FF0ECFF1FF9F8FF1F71
:10379000000030400000B443A8AAFF1FAFF3008030
:1037A0002DE9F04F93B00A9000239D4DAA2029687F
:1037B000CA18CC5C00FB04F42412CC54517800FBF2
:1037C00001F109125170917800FB01F10912917019
:1037D0000333B3F5406FEAD1DFF858A20027D14692
:1037E00057F80920049209EB070302935A680692DE
:1037F0009D688C4B3B445C6809EB07035E69D046CF
:10380000DAF818300B93DAF81C200592DAF8203039
:103810000C93DAF824200D929AF828300793DAF8FE
:103820002C200E929AF830300F93029A10690A9B5E
:1038300099681FF05FFF834630460A9AD1681FF0EF
:1038400059FF0390284659461FF054FF054620466D
:1038500003991FF04FFF04462846294620F052F8EE
:1038600006462046214620F04DF8014630461FF01E
:1038700041FF06460598014620F044F801463046CF
:1038800020F0FCF9002851D030461FF0A7FBCDE90D
:1038900008011DF0B7FA1FF0D7FE002120F0C6F98D
:1038A00038BBDDE908011DF0ADFA1FF0CDFE1FF0B9
:1038B00095FB02460B4600205B491FF00DFDCDE94C
:1038C000080128461FF08AFB02460B46DDE9080185
:1038D0001FF0D8FB1FF0B8FE054620461FF07EFB08
:1038E00002460B46DDE908011FF0CCFB1FF0ACFEE1
:1038F000044605981FF072FBCDE9080128461FF029
:103900006DFB02460B46DDE908011FF0BBFB1FF013
:103910009BFE054620461FF061FB02460B46DDE993
:1039200008011FF0AFFB1FF08FFE044604982946E4
:103930001FF0E0FE0490069821461FF0DBFE0646CD
:1039400058461FF04BFB002200231FF09BFB1FF08B
:103950007BFE069003981FF041FB002200231FF01E
:1039600091FB1FF071FE03902D4991F8083C0093E4
:1039700011A801F60941079AFF2315F0CBF99DF82C
:1039800045209DF846309DF844108DF840108DF884
:1039900041208DF84230049820F07AF90FFA80FB2C
:1039A000304620F075F902B22048594610AB13F0AA
:1039B000A9FB30461E4920F057F910B104F100442C
:1039C0001B4E049B47F80930029A566009EB070327
:1039D0009D60144A3A445460069A1A61039A5A61E7
:1039E0000B9BC8F81830059AC8F81C200C9BC8F827
:1039F00020300D9AC8F82420079B88F828300E9AAA
:103A0000C8F82C200F9B88F8303034370AF1340A7C
:103A1000B7F5D06F7FF4E4AE0F2013B0BDE8F08FA0
:103A2000F0ECFF1F082D00200000F03FA8AAFF1FA8
:103A30000000F841002D002038B504460D46084628
:103A400021F090F9024623685B6820462946984792
:103A5000054620461BF0EEFB284438BD30B589B042
:103A6000054600238DF804305A4B009302914FF025
:103A7000FF3303935848694619F0ACFD044600280B
:103A800000F0A58054482146544A19F00BFE034625
:103A9000027C042A04D105F10F00996921F004F990
:103AA0004D4821464E4A19F0FDFD037C022B04D1FE
:103AB000836985F8733001232B7147482146494AB1
:103AC00019F0F0FD037C022B04D1836985F8743072
:103AD00001232B7140482146434A19F0E3FD037C42
:103AE000022B04D1836985F8753001232B713A4884
:103AF00021463E4A19F0D6FD037C022B04BF8369A0
:103B0000AB67354821463A4A19F0CCFD037C022BBD
:103B100004BF8369EB6730482146364A19F0C2FD7D
:103B20000346027C042A04D105F1800099691BF048
:103B3000E5FC29482146304A19F0B4FD037C022BEC
:103B400004BF836985F89030234821462B4A19F039
:103B5000A9FD0346027C042A33D104A899691BF00D
:103B60007DFC04A826491BF029FDE0B904A82549DD
:103B70001BF024FDC8B904A823491BF01FFDB0B9F0
:103B800004A822491BF01AFD98B904A820491BF08B
:103B900015FD80B904A81F491BF010FD00280CBFBB
:103BA0000523042308E0052306E0002304E00123A5
:103BB00002E0022300E0032385F8913004A81BF003
:103BC00001FC0548214619F0DDF9012000E0002044
:103BD00009B030BDB0D5020034560020708F02000D
:103BE000788F02007C8F0200848F02008C8F02008D
:103BF000908F0200988F0200A08F0200A88F020011
:103C0000B08F0200C48F0200D08F0200E08F02004C
:103C1000F08F0200F88F020030B585B005460C46E3
:103C20005248534A19F03EFD0346027C042A04D14F
:103C300005F10F00996921F037F84C4821464D4AAB
:103C400019F030FD037C022B04D1836985F87330B1
:103C500001232B7145482146474A19F023FD037C77
:103C6000022B04D1836985F8743001232B713F48FE
:103C70002146424A19F016FD037C022B04D18369C8
:103C800085F8753001232B71384821463C4A19F0DC
:103C900009FD037C022B04BF8369AB6733482146CF
:103CA000384A19F0FFFC037C022B04BF8369EB67E1
:103CB0002E482146344A19F0F5FC0346027C042ABA
:103CC00004D105F1800099691BF018FC27482146B2
:103CD0002E4A19F0E7FC037C022B04BF836985F8A8
:103CE0009030224821462A4A19F0DCFC0346027C27
:103CF000042A33D1684699691BF0B0FB6846254910
:103D00001BF05CFCE0B9684623491BF057FCC8B9BE
:103D1000684622491BF052FCB0B9684620491BF0A6
:103D20004DFC98B968461F491BF048FC80B96846AD
:103D30001D491BF043FC00280CBF0523042308E0A9
:103D4000052306E0002304E0012302E0022300E053
:103D5000032385F8913068461BF034FB0348214665
:103D600019F010F9012005B030BD00BF3456002015
:103D7000708F0200788F02007C8F0200848F020017
:103D80008C8F0200908F0200988F0200A08F02009B
:103D9000A88F0200B08F0200C48F0200D08F0200F3
:103DA000E08F0200F08F0200F88F020010B500F1E2
:103DB0008004204613491BF001FCC8B92046124973
:103DC0001BF0FCFBB0B9204610491BF0F7FB98B97B
:103DD00020460F491BF0F2FB80B920460D491BF02D
:103DE000EDFB68B920460C491BF0E8FB052010BD2F
:103DF000002010BD012010BD022010BD032010BD09
:103E0000042010BDFC8F0200049002000C90020000
:103E100018900200249002003090020010B50C4669
:103E2000084615491BF0CAFBE0B9204613491BF0B0
:103E3000C5FBC8B9204612491BF0C0FBB0B92046EB
:103E400010491BF0BBFB98B920460F491BF0B6FB8D
:103E500080B920460D491BF0B1FB00280CBF05209E
:103E6000042010BD052010BD002010BD012010BD94
:103E7000022010BD032010BDB08F0200C48F0200CD
:103E8000D08F0200E08F0200F08F0200F88F020056
:103E90002DE9F041D8B007460D469E4E04AC9AE19C
:103EA0002B798DF81430AB6806932B7B8DF81C3082
:103EB00004962B4653F80D0F59689A68CDF81D00EB
:103EC000CDF82110CDF825201B7B8DF82930EB692A
:103ED0000B93684600211BF0C1FA08E0204616F05B
:103EE000AFFB0FE00A290DD068461BF03BFB2046D4
:103EF00016F050FC30B1204616F0A2FBC1B20D29DD
:103F0000F0D1EBE7204616F011FC0CA882491BF01B
:103F1000A5FA68460CA91BF087FB80460CA81BF08D
:103F200051FAB8F1000F13D010A8694605221BF012
:103F3000DBFB684610A91BF0D9FA10A81BF042FA67
:103F4000684607F10F01642200231BF091FB3FE15B
:103F500014A872491BF082FA684614A91BF064FB8E
:103F6000804614A81BF02EFAB8F1000F17D018A83D
:103F7000694604221BF0B8FB684618A91BF0B6FA84
:103F800018A81BF01FFA029B002B00F02181684645
:103F90001BF0C2FB87F8730001233B7118E11CA8DA
:103FA0005F491BF05BFA68461CA91BF03DFB80468D
:103FB0001CA81BF007FAB8F1000F17D020A869461B
:103FC00006221BF091FB684620A91BF08FFA20A85F
:103FD0001BF0F8F9029B002B00F0FA8068461BF0FA
:103FE0009BFB87F8740001233B71F1E024A84D4945
:103FF0001BF034FA684624A91BF016FB804624A85F
:104000001BF0E0F9B8F1000F17D028A86946052287
:104010001BF06AFB684628A91BF068FA28A81BF069
:10402000D1F9029B002B00F0D38068461BF074FB93
:1040300087F8750001233B71CAE02CA83A491BF0B0
:104040000DFA68462CA91BF0EFFA80462CA81BF04D
:10405000B9F9B8F1000F14D030A8694604221BF05A
:1040600043FB684630A91BF041FA30A81BF0AAF9BF
:10407000029B002B00F0AC8068461BF04DFBB8673C
:10408000A6E034A829491BF0E9F9684634A91BF0D9
:10409000CBFA804634A81BF095F9B8F1000F14D084
:1040A00038A8694605221BF01FFB684638A91BF09B
:1040B0001DFA38A81BF086F9029B002B00F08880BF
:1040C00068461BF029FBF86782E03CA818491BF002
:1040D000C5F968463CA91BF0A7FA80463CA81BF02E
:1040E00071F9B8F1000F25D040A8694605221BF0F0
:1040F000FBFA684640A91BF0F9F940A81BF062F9E9
:10410000029B002B64D007F1800069461BF0D8F9B0
:104110005EE000BF38D502003C90020044900200EF
:104120004C900200549002005C90020064900200E7
:104130006C90020044A82D491BF090F9684644A9F0
:104140001BF072FA804644A81BF03CF9B8F1000F4E
:1041500014D048A8694606221BF0C6FA684648A94A
:104160001BF0C4F948A81BF02DF9029B002B2FD09F
:1041700068461BF0D1FA87F8900029E04CA81C494A
:104180001BF06CF968464CA91BF04EFA80464CA80F
:104190001BF018F9B8F1000F1AD050A86946052293
:1041A0001BF0A2FA684650A91BF0A0F950A81BF01A
:1041B00009F9029B63B154A869461BF08BF9384694
:1041C00054A9FFF72BFE87F8910054A81BF0FAF8CA
:1041D00068461BF0F7F82B689B682846984700282C
:1041E0003FF75EAE58B0BDE8F08100BF74900200AA
:1041F0007C9002002DE9F041FCB00446A64B1B78F0
:10420000002B00F07D818368013383604279934203
:1042100004DB4FF0FF33836000258EE1417B8B424E
:1042200005DA9E4B6D460FCB07C52B708FE00268F9
:10423000007B5D1A00F18B80854280F288800CA89B
:104240009749012316F04AFC0CA816F0C3FA00287F
:104250007AD014A80CA9012216F0F4FC914E924FCA
:1042600068E014A816F0AAFA64E014A816F064FA3C
:10427000014603785F2B38D07E2B36D02E2B34D0DE
:1042800070A81BF0EBF870A81BF036FA014608A8DE
:104290001BF020F970A81BF095F86CA831461BF0B4
:1042A000DDF808A86CA91BF0CBF9012800F03E81CD
:1042B00068A839461BF0D2F808A868A91BF0C0F915
:1042C000804668A81BF07EF86CA81BF07BF808A855
:1042D0001BF078F8B8F1010F07D1013D14A816F0D2
:1042E0002BFA0146684620F0DFFC14A816F066FAA7
:1042F00060A80CA9012216F0A5FC9DF884318DF868
:104300005430629B16939DF88C318DF85C307CAAFA
:1043100052F8630D51689368CDF85D00CDF86110D7
:10432000CDF86530137B8DF86930679B1B9360A8CF
:1043300016F0FCF914A816F04DFA002800F0E280FF
:10434000002D80F2EC80DDE00CA816F0EFF914A847
:10435000216820F0A9FC14A8694620F0F7FA0CA8FF
:104360004F4914AA012316F0B9FB0CA816F032FA33
:10437000054620B92046FFF73DFF0546BCE004F1A5
:104380000F070026E67384F8736084F8746084F87D
:1043900075600123A367E36704F1800005211BF02A
:1043A000BFF8182384F8903084F89160267154A8DF
:1043B00069461BF053F854A81BF09EF9014604A867
:1043C0001BF088F854A81AF0FDFF04A837491BF029
:1043D000F5F800284CD0A368B3427DDBDFF8D0802D
:1043E0009DF834308DF8D4310E9B76939DF83C3097
:1043F0008DF8DC31CDF8D081DDF83D10DDF84120BD
:10440000DDF84530CDF8DD11CDF8E121CDF8E5310D
:104410009DF849308DF8E931139B7B9308A8002162
:104420001BF01CF808E074A816F00AF90FE00A293E
:104430000DD008A81BF096F874A816F0ABF930B1AF
:1044400074A816F0FDF8C1B20D29F0D1EBE774A8FD
:1044500016F06CF908A839460A9A00231BF008F9EF
:10446000013608A81AF0AEFFA3689E42B8DD33E01B
:1044700058A80C491AF0F2FF04A858A91BF0E0F85C
:10448000064658A81AF09EFF012E13D120460CA90B
:10449000FFF7FEFC20E000BF00A0FF1F9890020085
:1044A0002C5300209090020084900200889002001B
:1044B00038D502005CA823491AF0D0FF04A85CA9F3
:1044C0001BF0BEF806465CA81AF07CFF012E03D153
:1044D00020460CA9FFF7C2FA23793BB91A4B33F8EF
:1044E000042F9B78A4F8732084F875300CA816F07C
:1044F00065F904A81AF066FF0CA816F017F91CE07D
:1045000000251AE014A816F059F90CA816F056F96F
:1045100014A816F00BF90CA816F008F917E714A860
:1045200016F00CF900287FF49CAE9EE66CA81AF0F9
:1045300049FF08A81AF046FFCFE628467CB0BDE840
:10454000F08100BF84900200088D020070B506461D
:104550000D4B18781FF082F9014630461FF07AFBA8
:1045600068B9094D012415F8010F1FF077F931469C
:104570001FF07AFB30B901340C2CF4D101E0002497
:1045800000E00024204670BDB495FF1F10B504461E
:1045900000211FF055FB28B9204605491FF06EFB8E
:1045A00010B902E0024C00E00024204610BD00BF1C
:1045B00000007F4310B5054C20781FF04BF9FFF742
:1045C000E5FF1FF08BFB207010BD00BFDC2C00202E
:1045D00010B50C46FFF7BAFF001903D40C28A8BF8A
:1045E000002000E00B20034B185C1FF033F9FFF7AD
:1045F000CDFF10BDB495FF1F08B50020012119F0B3
:104600000DFE0120014619F009FE0020014619F0B7
:10461000D3FD0120014619F0CFFD08BD2DE9F84F6B
:1046200000257E4B1D702846012119F0C5FD284646
:10463000294619F0C1FD2C460126DFF81882784F73
:104640003046002119F0B8FD4FF42073013B7FF490
:10465000FDAF282019F02EFA54F80830184420EA4B
:10466000E073E3519D42B8BF1D463046314619F014
:10467000A3FD04341C2CE3D16A4B187818B11FF049
:10468000E9F8814656E0684B187805FB00F5674B62
:104690001B889D4220DB664B9B7883421CD8654B70
:1046A0001A68654B1B6813B9634B1A603DE0634998
:1046B00009880B44934238D21FF0CCF84FF0FF31F9
:1046C000FFF786FF1FF00AFB574B187000235A4A6A
:1046D00013605B4A136028E05A4B1B889D421FDC25
:1046E000534BDB7A83421BD9524B1A68544B1B68DD
:1046F00013B9534B1A6018E0534909880B4493428D
:1047000013D21FF0A7F80121FFF762FF1FF0E6FAAE
:10471000454B187000234A4A1360474A136004E06F
:104720000023474A1360444A13603F4B18781FF038
:1047300091F88146454BD3F800A0384B1D780024F2
:10474000374E40F2FF38424FA346A0591FF086F87B
:1047500049461FF0D7F81FF09BFA20EAE070404569
:10476000A8BF4046A051E359984201DBE05107E061
:10477000002B05DDB3EB0A0354BFE35144F807B047
:10478000C128A8BF012504341C2CDED1234B1D7089
:1047900000252C46DFF8C0A0DFF8C0B0DFF8B080FD
:1047A00020461FF05BF851461FF0ACF807461FF09B
:1047B0006FFA06461FF052F8014638461EF098FF81
:1047C00007460E2C1FDC4FF07E5039461EF090FF3E
:1047D000814658F826001FF041F8014648461FF070
:1047E00091F88146013658F826001FF037F839460F
:1047F0001FF088F8014648461EF07CFF1FF048FA7B
:104800004BF8050003E058F8263045F80B3001342A
:104810000435102CC4D1BDE8F88F00BF38FAFF1F53
:10482000D4ECFF1FDC2C00202CFAFF1F9095FF1FFB
:10483000B495FF1FC8560020A4AAFF1F7495FF1F40
:10484000FC9FFF1FE495FF1FEC95FF1FA495FF1F22
:1048500010FAFF1F4CFBFF1FCDCCCC3E6CFBFF1FA3
:1048600010B50446FFF7DAFE04F52E5420680368FD
:104870009B68984710BD00BF10B50446FFF7CEFEF9
:104880000822084B1A60606910F0010F01D12369FA
:1048900003E04310E2582369D35804EB60009847C3
:1048A000002010BDA495FF1F2DE9F041154681425F
:1048B00002DA034608461946002918DB1F2816DCD1
:1048C000ABB21F2B13D820EAE0741F29B4BF0E46E9
:1048D0001F26B4420BDCDFF81C800127404621B2C2
:1048E0002A463B4612F0DAF80134B442F6DDBDE860
:1048F000F08100BFA8AAFF1FF8B5054616469942E9
:1049000002DD0A4619461346B54202DD2A463546FF
:1049100016460C461F46994207DC2846314622B20D
:10492000FFF7C2FF0134BC42F7DDF8BDFFFFFFFF18
:104930002DE9F04F85B00446A04D2846202112F005
:1049400007FA28469E4912F0FBF92846002112F08A
:10495000BFF8284612F082F80025DFF860821027A1
:104960000126404639462AB2334612F097F80235FE
:10497000ADB2102DF5D1934B1B7813F0010F0CD174
:104980008E4D284610210222012312F087F8284676
:1049900010210422012312F081F8884E30460021B4
:1049A00012F096F8884F03A8394694F832201FF089
:1049B00085FF01250095304608212A4603AB12F0F9
:1049C000D1F803A8394694F831201FF077FF0095FD
:1049D000304612212A4603AB12F0C4F8A0684FF00B
:1049E0007C511EF087FE1FF053F9C7B2E0684FF00C
:1049F0007C511EF07FFE1FF04BF9C2B230463946A3
:104A00002B4612F04BF8E1694B1D284609B20222F1
:104A10001BB2FFF771FF216A4B1D1D2009B21E2238
:104A20001BB2FFF769FF694B1B68626B9B1A272B50
:104A300040F29482654B1B689B1A272B08D9634868
:104A400002F12803636301681A46CB1A272BF7D8B3
:104A500094F830302BB34FF08343A36004200C2133
:104A60001AF0A6FC1EF0FAFEE060002002211AF007
:104A70009FFC0028CCBF4FF07E53554B6361002054
:104A800002211AF095FC0028CCBF4FF07C534FF068
:104A90003F43A361002384F82E3084F82F3084F83C
:104AA0003030484B1B783B2B0BD1464B5B783A2B75
:104AB00000F24782012384F82E3042E2012384F879
:104AC0002F30A568122020211AF072FC1EF0C6FEBD
:104AD000014628461FF0AAF818B1E0681FF0D8F880
:104AE0006062A568042010211AF062FC1EF0B6FE78
:104AF000014628461FF09AF818B1E0681FF0C8F880
:104B0000A062A568284633491FF090F8002869D0B4
:104B1000D4F81480404600211FF092F8002800F0DD
:104B2000C180E668A7694FF0000A4FF08049DFF8BE
:104B3000A8B0284641461EF0DDFD05463046394600
:104B40001EF0D8FD064651461FF084F820B93046C5
:104B500020491FF089F808B107F100472846494667
:104B60001FF08CF828B1284659461FF069F8002834
:104B7000DFD130461FF0B2F8C5B294F82E30012BC9
:104B800011D1002384F82E30082D05D918460321B1
:104B90001AF00EFC606225E0002003211AF008FCE8
:104BA000083060621EE0002006211AF001FC281A7D
:104BB0006062002812DA0023636213E0A8AAFF1FD4
:104BC00048FBFF1F30FAFF1FA8900200C8560020C4
:104BD000000080BF000070410000E0410A28C4BF0F
:104BE0000A236362A5682846A1491FF01FF8002820
:104BF00058D0D4F81480404600211FF03FF8002818
:104C000050D0E668A7694FF0000A4FF08049DFF8FE
:104C10006CB2284641461EF06DFD054630463946C9
:104C20001EF068FD064651461FF014F820B93046C4
:104C300090491FF019F808B107F100472846494686
:104C40001FF01CF828B1284659461EF0F9FF00282D
:104C5000DFD130461FF042F8C5B294F82F30012B57
:104C600011D1002384F82F30082D05D918460321CF
:104C70001AF09EFBA06215E0002003211AF098FBB9
:104C80000830A0620EE0002006211AF091FB281ADD
:104C9000A062002802DA0023A36203E00A28C4BF4E
:104CA0000A23A362E269636A9A4206DD002A04DDF0
:104CB000013AE261012284F82C20E269934206DD88
:104CC000092A04DC0132E261012384F82C30226AD3
:104CD000A36A9A4206DD002A04DD013A226201221B
:104CE00084F82D20226A934206DD092A04DC013271
:104CF0002262012384F82D30A06861691EF0FAFC5D
:104D00000546A060A7693846E1681EF0F3FC064638
:104D1000E06000211EF09EFF28B107F10047A76167
:104D20000023E3600AE0304652491EF09DFF28B19F
:104D3000A36903F10043A3614E4BE36028461EF0D4
:104D4000A7FF032864DCE569E0681EF0A1FF854247
:104D50005EDC0535A8425BDC474BA36000200321E5
:104D60001AF026FB20B9636903F1004363614FE049
:104D7000012384F82C30002002211AF019FBE3698A
:104D8000012B40F3E480C2B2072B21DC12B1012ACF
:104D90003ED11DE0656A012003211AF009FB284479
:104DA0006062636903F100436361A56928464FF0BF
:104DB00080411EF045FF58B328461EF00FF92AA384
:104DC000D3E900231DF0ACFF1EF03EFCA0611FE004
:104DD000656A012003211AF0EBFA281A6062636900
:104DE00003F100436361A0691EF0F8F806460F4620
:104DF0001DA3D3E900231EF0D5FB48B13046394648
:104E000019A3D3E900231DF089FF1EF01DFCA0614A
:104E1000A0681EF03DFF1B2870DD256AE0681EF0CB
:104E200037FF85426ADC0535A84267DC134BA36077
:104E3000002003211AF0BCFA20B9636903F1004392
:104E400063615BE0012384F82C30002002211AF01A
:104E5000AFFA236A012B7EDDC2B2072B2EDC7AB1BA
:104E6000012A4BD12AE000BF9A9999999999C93F93
:104E70000000884100007041000040400000E04117
:104E8000A56A012003211AF093FA2844A0626369FD
:104E900003F100436361A56928464FF080411EF08D
:104EA000CFFE58B328461EF099F82FA3D3E900236C
:104EB0001DF036FF1EF0C8FBA0611FE0A56A0120AF
:104EC00003211AF075FA281AA062636903F10043FE
:104ED0006361A0691EF082F806460F4622A3D3E95B
:104EE00000231EF05FFB48B1304639461EA3D3E9CC
:104EF00000231DF013FF1EF0A7FBA061A0681EF0A9
:104F0000C7FE30F0200329D1012384F83030184B3C
:104F10005B7D83F00103174A517884F83110927851
:104F20000C2A84BFA3EB830102EB810284F83220B8
:104F300094F8322092B903EB43039B0084F832309B
:104F40000CE00C4B5B783B2B7FF4BBADB6E5072B3D
:104F50003FF73EAF1EE7072BB0DC91E7002005B01E
:104F6000BDE8F08FAFF300809A9999999999C93F5C
:104F7000AC2C002030FAFF1F70B4FF289CBF000249
:104F800080B21D4C25689DF80C404034EB1A4FF45C
:104F90008C7505FB03F300FB03F304EB1363DBB237
:104FA00013F0400F21D0DD43EDB205F03F0005F0D6
:104FB0000F050135114C001140002618767805FBCD
:104FC00006F5205C00EB2515EDB213F0800F0EBF47
:104FD000EBB26B42DBB283F08003501AC0B200FB2D
:104FE00003F001EB2021C8B204E003F03F0003F01E
:104FF0000F05DFE770BC7047C8560020148F020011
:105000002DE9F04F85B05F4B1B684FF40C3202FB6B
:1050100003F2120ED3B213F0400F00F0A580DB4371
:10502000DBB203F03F0103F00F03013356480911CF
:1050300049004418647803FB04F3415C01EB23133B
:10504000DBB212F0800F18BF5B42DBB283F080034B
:1050500003EB830398111A38C0B200234B4D296823
:10506000CA18CC5C00FB04F42412CC54517801FB28
:1050700000F109125170917801FB00F10912917051
:105080000333B3F5406FEAD14FF004081E24002724
:105090000E25DFF8F89009F6094BDFF8E8A099F83B
:1050A000083C009302A859463A46FF2313F032FE0B
:1050B000EEB2C6F120020023009320463146D2B260
:1050C000FFF75AFF0146FF2C9ABF200280B220460C
:1050D000DAF800304FF48C7202FB03F200FB02F2AC
:1050E000120ED3B213F0400F43D0DB43DBB203F018
:1050F0003F0E03F00F03581C234B4FEA2E1E4FEABE
:105100004E0E03EB0E0C9CF801C000FB0CF013F8E4
:105110000EE00EEB2013DBB212F0800F18BF5B42E3
:10512000DBB29DF809009DF80A209DF808E08DF893
:105130000CE08DF80D008DF80E2083F0800308FB45
:1051400003F306EB2322124809B2D2B203AB11F0EB
:10515000D9FF013D0E37FFB2023CA4B208F10208AC
:10516000B5F1FF3F9BD109E003F03F0103F00F03CE
:105170005CE703F03F0E03F00F00BDE7002005B031
:10518000BDE8F08FC8560020148F0200F0ECFF1F1E
:10519000A8AAFF1F2DE9F04F89B0904B1B684FF470
:1051A0000C3202FB03F2120ED3B213F0400F00F0E8
:1051B0000181DB43DBB203F03F0103F00F03013356
:1051C0008748091149004418647803FB04F3415CE3
:1051D00001EB2313DBB212F0800F18BF5B42DBB28E
:1051E00083F0800303EB830318115638C0B2002309
:1051F0007C4D2968CA18CC5C00FB04F42412CC5402
:10520000517801FB00F109125170917801FB00F116
:10521000091291700333B3F5406FEAD1022740249D
:105220004FF00008C1462025DFF8B8B10BF6094160
:1052300003915FFA89F60F2E4ED80023009338466B
:1052400031462A46FFF798FE8246FF2F9ABF390261
:1052500089B23946614A13684FF48C7202FB03F23B
:1052600001FB02F2120ED3B213F0400F00F0A78040
:10527000DB43DBB203F03F0103F00F030133584877
:105280000911490000EB010E9EF801E003FB0EF34B
:10529000415C01EB2313DBB212F0800F0EBFDAB2D8
:1052A0005A42D2B282F08002A4F12003DBB203FBA7
:1052B00002F306EB2326F6B29BF8083C009305A800
:1052C00003994246FF2313F025FD9DF814109DF825
:1052D00015209DF8163050E00136F2B2FF2C9ABF2F
:1052E000200280B220463D490B684FF48C7101FBCF
:1052F00003F100FB01F1090ECBB213F0400F63D0B4
:10530000DB43DBB203F03F0003F00F030133344E05
:105310000011400006EB000E9EF801E003FB0EF3C7
:10532000305C00EB2313DBB211F0800F18BF5B423F
:10533000DBB283F08003C4F1210A5FFA8AFA0AFB28
:1053400003FA05EB2A2A5FFA8AFA00230093204623
:105350002946FFF711FE0646C8F1B2029BF8083C49
:10536000009306A80399D2B2FF2313F0D3FC9DF853
:1053700018109DF819209DF81A308DF81C108DF822
:105380001D208DF81E3018480FFA8AF132B207AB93
:1053900011F0B8FE013D09F1010908F10E085FFAAC
:1053A00088F8023CA4B20237BFB215F0FF057FF4C3
:1053B00040AF0EE003F03F0103F00F0300E703F0FE
:1053C0003F0103F00F035AE703F03F0003F00F0320
:1053D0009DE7002009B0BDE8F08F00BFC85600204F
:1053E000148F0200F0ECFF1FA8AAFF1F2DE9F04F59
:1053F00087B003908E4B1B684FF40C3202FB03F214
:10540000120ED3B213F0400F00F00081DB43DBB289
:1054100003F03F0103F00F030133864809114900EF
:105420004418647803FB04F3415C01EB2313DBB203
:1054300012F0800F18BF5B42DBB283F0800303EBF6
:10544000830318115638C0B200237B4D2968CA184F
:10545000CC5C00FB04F42412CC54517801FB00F125
:1054600009125170917801FB00F109129170033318
:10547000B3F5406FEAD14FF002081F264024002503
:10548000DFF8B091EFB20F2F42D8002300934046CF
:105490003946F2B2FFF770FD8246B8F1FF0F9ABFAE
:1054A0004FEA082189B24146614A13684FF48C7271
:1054B00002FB03F201FB02F2120ED3B213F0400F13
:1054C00000F0A980DB43DBB203F03F0103F00F03E0
:1054D00001330911490009EB0100407803FB00F397
:1054E00019F8011001EB2313DBB212F0800F18BF83
:1054F0005B42DBB283F08003A4F1210B5FFA8BFBEC
:105500000BFB03FB07EB2B2B5FFA8BFB7F0842E0C7
:10551000F1B2FF2C9ABF200280B22046444A1368A1
:105520004FF48C7202FB03F200FB02F2120ED3B2B4
:1055300013F0400F74D0DB43DBB203F03F0003F005
:105540000F0301330011400009EB000E9EF801E04B
:1055500003FB0EF319F8000000EB2313DBB212F08B
:10556000800F18BF5B42DBB283F08003C4F1210AD5
:105570005FFA8AFA0AFB03FA01EB2A2A5FFA8AFA2F
:105580000023009320463A46FFF7F6FC834606EBDD
:10559000D677C7F34707062F28BF0627274B53F8B0
:1055A000273003998A7A12B1254B53F827301A46CF
:1055B000002BB8BFDA1C204991F8083C009304A8DE
:1055C00001F60941C2F38702FF2313F0A3FB9DF804
:1055D00011209DF812309DF810108DF814108DF8E0
:1055E00015208DF8163017480FFA8AF10FFA8BF252
:1055F00005AB11F087FD0135023CA4B2013E08F174
:1056000002081FFA88F8202D0FD03BE703F03F0176
:1056100003F00F0301E703F03F0103F00F0358E726
:1056200003F03F0003F00F038CE707B0BDE8F08FF5
:10563000C8560020148F0200F0ECFF1FD4ECFF1FAF
:1056400010FAFF1FA8AAFF1F2DE9F04F85B0824670
:10565000654B1B684FF40C3202FB03F2120ED3B2FF
:1056600013F0400F00F0B380DB43DBB203F03F01E7
:1056700003F00F0301335D480911490044186478B1
:1056800003FB04F3415C01EB2313DBB212F0800F48
:1056900018BF5B42DBB283F0800303EB83039811F6
:1056A0001A38C0B20023524D2968CA18CC5C00FBDE
:1056B00004F42412CC54517801FB00F1091251700A
:1056C000917801FB00F1091291700333B3F5406F3B
:1056D000EAD120250024DFF8189109F6094B04EBE4
:1056E000D473C3F34703062B28BF0623414A52F85D
:1056F00023609AF80A2012B13F4A52F82360E3B2BD
:10570000C3F11007FFB203F11002002300932846F3
:105710003946D2B2FFF730FC8046FF2D9ABF2902EE
:1057200089B22946304B1B684FF48C7202FB03F29E
:1057300001FB02F2120ED3B213F0400F4CD0DB4348
:10574000DBB203F03F0103F00F03013327480911D7
:10575000490000EB010E9EF801E003FB0EF3415CF3
:1057600001EB2313DBB212F0800F18BF5B42DBB2F8
:1057700083F08003620002FB03F307EB2327FFB2F1
:105780003246002EB8BFF21C99F8083C009302A8DC
:105790005946C2F38702FF2313F0BCFA9DF8092093
:1057A0009DF80A309DF808108DF80C108DF80D202A
:1057B0008DF80E3011480FFA88F13A4603AB11F01C
:1057C000A1FC0134023DADB2102C0AD087E703F0F2
:1057D0003F0103F00F034EE703F03F0103F00F0317
:1057E000B4E705B0BDE8F08FC8560020148F020062
:1057F000F0ECFF1FD4ECFF1F10FAFF1FA8AAFF1F39
:105800002DE9F04F95B08346A34B1B684FF40C3243
:1058100002FB03F2120ED3B213F0400F00F0E2824B
:10582000DB43DBB203F03F0103F00F0301339B487E
:10583000091149004418647803FB04F3415C01EB4F
:105840002313DBB212F0800F18BF5B42DBB283F090
:105850008003F52202FB03F31B120A33904A1068FF
:1058600020210A46DBB213F047FA8B4B1B684FF43A
:105870000C3202FB03F2120ED3B213F0400F00F011
:10588000B682DB43DBB203F03F0103F00F030133C9
:105890008248091149004418647803FB04F3415C11
:1058A00001EB2313DBB212F0800F18BF5B42DBB2B7
:1058B00083F0800303EB83035B116433DBB2CBF82B
:1058C0002830754B1B684FF4523202FB03F2120E64
:1058D000D3B213F0400F00F08F82DB43DBB203F052
:1058E0003F0103F00F0301336C48091149004418CC
:1058F000647803FB04F3415C01EB2313DBB212F089
:10590000800F18BF5B42DBB283F0800303EBC3035D
:1059100018120130C0B21DF0A1FF62491EF0A6F8B6
:10592000CBF8140000230093052001210A22FFF781
:1059300023FB1DF093FF5B491EF098F80546CBF85A
:105940001C00DBF81000DBF814101DF0D3FE044639
:10595000CBF810002846DBF818101DF0CBFE0646E9
:10596000CBF8180020461DF039FB04460D4648A32D
:10597000D3E900231DF00CFE50B12046294644A374
:10598000D3E900231DF0CAF91DF05EFECBF810002C
:1059900030461DF023FB04460D463DA3D3E900230A
:1059A0001DF0F6FD50B12046294639A3D3E9002366
:1059B0001DF0B4F91DF048FECBF81800DBF810001C
:1059C0001DF00CFB04460D461AF08CFF1DF03CFE4A
:1059D0000490204629461BF04FF81DF035FE064680
:1059E000DBF818001DF0FAFA04460D461AF07AFFAB
:1059F0001DF02AFE0590204629461BF03DF81DF0BB
:105A000023FE04460599CBF898120023CBF89C326C
:105A100000F1004306930699CBF8A01230462146C8
:105A20001DF070FF0790CBF8A402049BCBF8A832BE
:105A3000304605991DF066FF0890CBF8AC0204983B
:105A400021461DF05FFF0990CBF8B00206F1004639
:105A50000A960A99CBF8B412049805991DF052FFE2
:105A60000B90CBF8B802DBF828001DF0F7FE0C9085
:105A7000DBF820300D93DBF808100391DBF82430BD
:105A80000E935D465C464FF00009CDF83CB00BE04C
:105A9000182D4454FB211940C8560020148F0200D1
:105AA000F0ECFF1F0000C842D4F82C80276B666B17
:105AB000059841461DF026FF8246384600211DF01C
:105AC00021FF014650461DF015FE824606983146DC
:105AD0001DF018FF014650461DF00CFE8246C4F82A
