:1000000000800020BD01000065F1010029F1010020
:1000100029F1010029F1010029F1010029F1010074
:1000200029F1010029F1010029F1010065F1010028
:1000300065F1010029F1010065F1010019F10100EC
:1000400065F1010065F1010065F1010065F1010054
:1000500065F1010065F1010065F1010065F1010044
:1000600065F1010065F1010065F1010065F1010034
:1000700065F1010065F1010065F1010065F1010024
:1000800065F1010065F1010065F1010065F1010014
:1000900065F1010065F1010065F1010065F1010004
:1000A0001DDA010065F1010065F1010065F1010053
:1000B00065F1010065F1010065F1010065F10100E4
:1000C00065F1010065F1010065F1010065F10100D4
:1000D00065F1010065F1010065F1010065F10100C4
:1000E00065F1010065F1010065F1010065F10100B4
:1000F00065F10100B50F020065F10100AD140200C9
:1001000065F10100C918020065F1010065F1010007
:1001100065F1010065F1010065F1010065F1010083
:1001200065F1010065F1010065F1010065F1010073
:1001300065F1010065F1010065F1010065F1010063
:1001400065F101006DAF010065F1010065F101008D
:1001500065F1010065F1010065F1010065F1010043
:1001600065F101008DF9010065F1010065F1010003
:1001700065F1010065F1010065F1010065F1010023
:1001800065F1010065F1010065F1010065F1010013
:1001900065F1010065F1010065F1010065F1010003
:1001A00065F1010065F1010065F1010065F10100F3
:1001B00065F1010065F1010065F1010010B56B4BBF
:1001C0004CF220521A804DF628121A8000BF00BF50
:1001D0001EF0CCFF4FF01062654B1A60654A083381
:1001E0001A60654A04331A60A3F530432C3B1B6840
:1001F00013F4807F06D10022604B1A604FF4A8529E
:10020000043B1A605E4B1B7813F0080F04D05C4B64
:100210001A7842F008021A702A225A4B1A705A4B66
:100220005A4A9A420DD2131D594CE41A24F0030481
:1002300004340023104657495A581A500433A34235
:10024000FAD1554B554A9A4280F08B80131F54497E
:10025000C91A21F003011A1D1144002243F8042F8A
:100260008B42FBD17DE05A581A500433B3F5DE7F40
:10027000F9D14C4B80214C4A03F8011B9342FBD12E
:100280004A4B4B4A1A600A224A4B1A702422A3F6A0
:10029000FF731A70A022013B1A7006331A7812F00D
:1002A000020FFBD0444B1A7812F0100FFBD1424BD7
:1002B0001A7802F00C02082AFAD103223F4B1A7076
:1002C000402201331A7001331A7812F0200FFBD04C
:1002D000394B1A7812F0400FFBD0394A394B1A606B
:1002E000022204331A602022374B1A7006331A7820
:1002F00002F00C020C2AFAD1344A354B1A60354A06
:10030000354B1A60002204331A600722083B1A603A
:10031000324A03F551631A6062B61FF0F9F9174BC0
:100320001B6813F0010F05D02D481FF057F92D4A17
:100330002D4B1A602D4B1B7813F0400F0AD02A4B1F
:100340001A68284B9A4205D125481FF047F9002228
:10035000254B1A6024F024FF15F036FF20F04AF9EF
:10036000FEE70023124822497DE700BF0E2005402A
:1003700030800440823F04000100002B14D0034071
:1003800002D0074000E00740589FFF1F6095FF1F05
:100390005B9FFF1FE0F20200C0620020589FFF1F1A
:1003A000BB62002000E400E05FE400E008ED00E054
:1003B0000090FF1F005006400640064004400640E3
:1003C000000003014480044000400640C0100500C6
:1003D00004800440FF76010014E000E000002020CB
:1003E0005DFE5455A5C3945A1CE0034000F007403D
:1003F00000000000FFFFFFFFFFFFFFFFFFFFFFFF09
:10040000FFFFFFFFFFFFFFFFFFFFFFFFFEFFFFFFFD
:1004100010B5054C237833B9044B13B10448AFF33E
:1004200000800123237010BD589FFF1F00000000B3
:10043000D8F2020008B5064B1BB106480649AFF3D7
:1004400000800648036813B1054B03B1984708BD07
:1004500000000000D8F202005C9FFF1F589FFF1FA2
:10046000000000000020704700207047704700BF68
:10047000704700BF012070470120704740697047F6
:10048000704700BF704700BF30B4C8222C4B1A70B1
:100490002C490B8803EB432203EB820243F21963DE
:1004A0001A4492B2284C226002EB422402EB8402EE
:1004B0001A4492B2254C226002EB422402EB8402E1
:1004C0001A4492B2224C226041F27074214D2C6089
:1004D000214D2C6002EB422402EB84021A4492B2BA
:1004E00002EB2224E4B2048102EB422402EB8402F8
:1004F0001A4492B202EB2224E4B2448102EB422479
:1005000002EB84021A4492B202EB2224E4B2848108
:1005100002EB422402EB84021A4492B202EB222440
:10052000E4B2C48102EB422402EB840213449BB286
:100530000B8003EB2323DBB2038230BC704700BF88
:10054000CC9FFF1F1C96FF1F24E6FF1F6CB0FF1FF0
:1005500070B0FF1FE039002074DDFF1F0369C36125
:100560004369036200238360704700BF0E4803881D
:1005700003EB432203EB820243F219610A4492B275
:100580000A4B1A6002EB422302EB83030B449BB23B
:10059000074A136003EB432203EB8203194489B239
:1005A0000180044B196070471C96FF1F24E6FF1F53
:1005B0006CB0FF1F70B0FF1F10B4C16E002907DDC3
:1005C00002460023012442F8144F01338B42FADB28
:1005D000164B1A68C2602A2383601F21017600230C
:1005E0004376036102623724C46180F82C1080F8DE
:1005F0002D304362426303240463FF2480F84040AB
:1006000080F84130836382644724446480F8541046
:1006100080F85530C364C2655922826580F868103D
:1006200080F8693003665DF8044B7047BC5E0020BB
:1006300042F6A433C058704708B542F6A833C058F4
:1006400010B103681B69984708BD00BF08B542F6A2
:10065000A833C05810B10368DB68984708BD00BFD5
:10066000D0F8A802704700BF00697047704700BF0C
:10067000704700BF10B582B000248DF804408DF89B
:1006800005408DF80640034801A918F09DFB20465F
:1006900002B010BDD09FFF1F30B583B005460024C7
:1006A0008DF804408DF805408DF80640044801A9F6
:1006B00018F08AFBC5F8184985F8244903B030BD05
:1006C000D09FFF1F30B583B0054600248DF804404D
:1006D0008DF805408DF80640044801A918F074FB18
:1006E00041F21043EC5003B030BD00BFD09FFF1F5C
:1006F00000B583B000238DF804308DF805308DF8F7
:100700000630034801A918F05FFB03B05DF804FB55
:10071000D09FFF1F00B583B000238DF804308DF803
:1007200005308DF80630034801A918F04DFB03B0E1
:100730005DF804FBD09FFF1F00B583B000238DF848
:1007400004308DF805308DF80630034801A918F003
:100750003BFB03B05DF804FBD09FFF1F10B50446C0
:10076000803020F057F8204610BD00BF10B5044679
:100770000020042120F044F8A0730120032120F080
:100780003FF8E06110BD00BF2DE9F04383B005469E
:10079000624B5E7C0B2E28BF0B26614C204620212D
:1007A00017F042FD204605F1680117F035FD20469F
:1007B000002117F0FBFB204617F0BEFB594B1B78BE
:1007C000002B00F09F80584B9F785C780C2F84BFE3
:1007D0000C3FFFB29CB9DFF84881023755F827304B
:1007E0000124009440462146324617F029FC00942B
:1007F00040462146F21D4D4B17F022FC89E0092CA2
:100800001DD8DFF81C81023455F8243001240094EF
:1008100040462146324617F013FC009440462146DC
:10082000F21D434B17F00CFC023755F827300094AB
:100830004046214606F10E0217F002FC69E0112C39
:100840001BD1DFF8DC80023755F8273001240094F3
:1008500040462146324617F0F3FB6B6A009440464F
:100860002146F21D17F0ECFB00944046214606F1AC
:100870000E02304B17F0E4FB4BE0132C15D8DFF8D9
:10088000A080023755F827300127009740463946A7
:10089000324617F0D5FB023455F824300097404615
:1008A0003946F21D17F0CCFB33E0DFF874900237C5
:1008B00055F827300127009748463946324617F049
:1008C000BFFB1D4BA3FB04284FEAD80808F1140313
:1008D00055F82330009748463946F21D17F0B0FB13
:1008E00008EB8808A4EB480414F0FF0411D002348C
:1008F00055F8243039460097484606F10E0217F0A5
:100900009FFB06E001210091054832460B4B17F092
:1009100097FB002003B0BDE8F08300BF54B0FF1F79
:10092000D09FFF1F882800207CB0FF1F0CA402006E
:1009300014A40200B8AD0200CDCCCCCC1CA40200A3
:100940002DE9F04F89B005460020FF211FF058FF28
:100950004049C2B291F8083C009305A801F609414C
:10096000FF2319F043FC4FF00009CB46CA46CDF8EF
:10097000089051E0504602211FF042FF012806D1A5
:100980009DF814809DF815709DF8166002E056469B
:10099000029FB846297A494489B26A7A224492B2BF
:1009A0008DF818808DF819708DF81A604B1C501C4A
:1009B00000B2009006A80190274809B212B21BB2FB
:1009C00018F0DCF9BBF1010F19DC2B7A6A7A2244AA
:1009D00092B28DF81C808DF81D708DF81E60039901
:1009E00019440933C9EB0303501C00B2009007A857
:1009F0000190194809B212B21BB218F0BFF90234C3
:100A0000A4B20A2CB6D10BF1010B09F102091FFAAD
:100A100089F9BBF1030F05D0C9F108039BB2039319
:100A20000024A7E72B7A0B33DBB2162B01D82B72ED
:100A300004E000232B726B7A0B336B726B7A162BEC
:100A400002D900232B726B724FF4FA7009B0BDE823
:100A5000F08F00BFD8A3FF1FD09FFF1F2DE9F04FDD
:100A60008DB000248DF824408DF825408DF8264067
:100A70003D4809A918F0A8F92046FF211FF0C0FE43
:100A80003A49C2B291F8083C009308A801F609411E
:100A9000FF2319F0ABFB01250395A246A346029460
:100AA0004BE0584602211FF0ABFE012806D19DF80D
:100AB00020909DF821809DF8227003E05F46DDF8CC
:100AC0000880C146A5B2261DB6B28DF828908DF8D3
:100AD00029808DF82A7033B200930AAB0193224823
:100AE000DDF810E00FFA8EF12AB2DDF814E00FFA0B
:100AF0008EF318F043F9BAF1010F11DC8DF82C9048
:100B00008DF82D808DF82E7036B200960BAB0193C8
:100B10001548079A11B22AB2069D2BB218F02EF989
:100B20000634A4B21F2CBCD10AF1010A039DAB1DEF
:100B30009BB20393BAF1030F10D0039DADB204959D
:100B4000039D2B1D9BB20593C5F11A039BB207931E
:100B5000C5F11E039BB206930124A2E74FF4FA608D
:100B60000DB0BDE8F08F00BFD09FFF1FD8A3FF1FBF
:100B700030B585B000248DF808408DF809408DF817
:100B80000A400D4D284602A918F01EF928462146B4
:100B900018F03EF9094B1A889B78ADF80C208DF8B7
:100BA0000E30074B0093284621461B2203AB18F05A
:100BB00037F9204605B030BDD09FFF1FB8A1020015
:100BC0006C95FF1F30B585B000248DF808408DF876
:100BD00009408DF80A400D4D284602A918F0F4F896
:100BE0002846214618F014F9094B1A889B78ADF86D
:100BF0000C208DF80E30074B0093284621461B220F
:100C000003AB18F00DF9204605B030BDD09FFF1F93
:100C1000B8A102006C95FF1F30B585B000248DF897
:100C200008408DF809408DF80A400D4D284602A96C
:100C300018F0CAF82846214618F0EAF8094B1A8835
:100C40009B78ADF80C208DF80E30074B00932846AA
:100C500021461B2203AB18F0E3F8204605B030BD57
:100C6000D09FFF1FB8A102006C95FF1F30B585B063
:100C700000248DF808408DF809408DF80A400D4D8C
:100C8000284602A918F0A0F82846214618F0C0F816
:100C9000094B1A889B78ADF80C208DF80E30074B65
:100CA0000093284621461B2203AB18F0B9F82046D2
:100CB00005B030BDD09FFF1FB8A102006C95FF1F8B
:100CC00030B585B000248DF808408DF809408DF8C6
:100CD0000A400D4D284602A918F076F8284621460C
:100CE00018F096F8094B1A889B78ADF80C208DF80F
:100CF0000E30074B0093284621461B2203AB18F009
:100D00008FF8204605B030BDD09FFF1FB8A102006C
:100D10006C95FF1F30B585B000248DF808408DF824
:100D200009408DF80A400D4D284602A918F04CF8EC
:100D30002846214618F06CF8094B1A889B78ADF8C4
:100D40000C208DF80E30074B0093284621461B22BD
:100D500003AB18F065F8204605B030BDD09FFF1FEB
:100D6000B8A102006C95FF1F30B585B000248DF846
:100D700008408DF809408DF80A400D4D284602A91B
:100D800018F022F82846214618F042F8094B1A8834
:100D90009B78ADF80C208DF80E30074B0093284659
:100DA00021461B2203AB18F03BF8204605B030BDAE
:100DB000D09FFF1FB8A102006C95FF1F30B585B012
:100DC00000248DF808408DF809408DF80A400D4D3B
:100DD000284602A917F0F8FF2846214618F018F80F
:100DE000094B1A889B78ADF80C208DF80E30074B14
:100DF0000093284621461B2203AB18F011F8204629
:100E000005B030BDD09FFF1FB8A102006C95FF1F39
:100E100030B585B000248DF808408DF809408DF874
:100E20000A400D4D284602A917F0CEFF284621465C
:100E300017F0EEFF094B1A889B78ADF80C208DF85F
:100E40000E30074B0093284621461B2203AB17F0B8
:100E5000E7FF204605B030BDD09FFF1FB8A10200BC
:100E60006C95FF1F30B585B000248DF808408DF8D3
:100E700009408DF80A400D4D284602A917F0A4FF3D
:100E80002846214617F0C4FF094B1A889B78ADF815
:100E90000C208DF80E30074B0093284621461B226C
:100EA00003AB17F0BDFF204605B030BDD09FFF1F3C
:100EB000B8A102006C95FF1F30B585B000248DF8F5
:100EC00008408DF809408DF80A400D4D284602A9CA
:100ED00017F07AFF2846214617F09AFF094B1A8827
:100EE0009B78ADF80C208DF80E30074B0093284608
:100EF00021461B2203AB17F093FF204605B030BDFF
:100F0000D09FFF1FB8A102006C95FF1F2DE9F04F85
:100F100089B005460020FF211FF072FC3349C2B2A0
:100F200091F8083C009305A801F60941FF2319F048
:100F30005DF90026029603963FE0029802211FF019
:100F40005FFC012806D19DF814909DF815809DF84E
:100F5000167003E0029FDDF80C80C1461FFA86FB85
:100F6000297A59441FFA84FA6A7A52448DF8189003
:100F70008DF819808DF81A701D4809B212B206ABAF
:100F800017F02CFB012E12DC2B7A0433CBEB030180
:100F90006B7A0AEB03028DF81C908DF81D808DF89A
:100FA0001E70134809B212B207AB17F017FB0134D9
:100FB000052CC2D10136032E01D00024BDE72B7AC7
:100FC0000633DBB2192B01D82B7204E001232B72FC
:100FD0006B7A06336B726B7A192B02D901232B7251
:100FE0006B727D2009B0BDE8F08F00BFD8A3FF1F52
:100FF000D09FFF1F10B500F11C0420461AF056FECA
:1010000010B120461AF046FE10BD00BF10B500F525
:10101000067420461AF04AFE10B120461AF03AFE35
:1010200010BD00BF10B50446034B036000F5067009
:101030001AF0E8FD204610BDA0A1020010B504463C
:10104000034A40F81C2B1AF0DDFD204610BD00BFFE
:10105000989F020010B5044600F516601AF0D2FD04
:10106000204610BD2DE9F04F83B083464FF00009B4
:101070004FF00F0A204E4FEAC9085FFA88F855462C
:101080000024FF27102C06DC8DF800808DF801501D
:101090008DF8027007E08DF800808DF80170C5F1C1
:1010A0000D038DF80230684601A919F06BF99DF81F
:1010B000042096F824309A4210D19DF8052096F825
:1010C00025309A420AD19DF8062096F826309A4299
:1010D00004D1CBF80890CBF80C4009E001340F356F
:1010E000EDB2202CCED109F10109B9F11F0FC2D107
:1010F00003B0BDE8F08F00BF383A00202DE9F04F73
:1011000083B083464FF000094FF00F0A1E4E4FEA9E
:10111000C9085FFA88F855460024FF27102C06DC22
:101120008DF800808DF801508DF8027007E08DF881
:1011300000808DF80170C5F10D038DF8023068460E
:1011400001A919F01FF99DF8042033789A420ED1B5
:101150009DF8052073789A4209D19DF80620B3784E
:101160009A4204D1CBF80890CBF80C4009E0013446
:101170000F35EDB2202CD1D109F10109B9F11F0FC2
:10118000C5D103B0BDE8F08F043A002008B51EF0C9
:101190001FFA08BD2DE9F04786B00546D0F818398A
:1011A000002B31DC00238DF80C308DF80D308DF8DC
:1011B0000E30AD4803A917F007FE05F10F0305F245
:1011C0000F10002106E003F8011F9342FBD1824279
:1011D00003D0134603F11002F5E710201FF004FBC3
:1011E000044610201FF000FBC5F81841C5F81C018B
:1011F0000123C5F81839002085F824094FF48071BF
:101200001FF0FEFA85F82509D5F81809D5F81C391C
:10121000012B01D0441E02E01FF0E6FA0446002C28
:10122000C0F2CA8004F1230205F5887305EBC202FF
:1012300092E8030083E803008046D5F814912F4616
:1012400000264FF0040A304651461FF0D9FA97F8AD
:101250002639284490F8262987F8262980F8263947
:1012600001360137042EEED195F82529D5F81C3921
:10127000012B0CD07D49224491F8083C009302A830
:1012800001F60941D2B2FF2318F0B0FFACE095F8A7
:101290002429531C85F82439744991F8083C00939B
:1012A00002A801F60941FF2318F0A0FF9CE093F883
:1012B0002609022809D004280DD0012811D1D5F81B
:1012C0001061D5F81471013F10E0D5F81061D5F820
:1012D000147101370AE0D5F81061013ED5F8147198
:1012E00004E0D5F810610136D5F814710F2E52D8EC
:1012F0000F2F50D805EB07113144097C00294AD142
:101300004FEA48014FEA4902D5F81441D5F81031A7
:1013100005EB041423441C7C04431C7405EB0713E5
:1013200033441B7C022869D0042860D0012800F0D7
:10133000918005EB0714344443F00403237402281E
:1013400007D0042807D0012818BF013105D1013A80
:1013500003E0013201E00139FFE79DF809009DF843
:101360000A309DF808408DF814408DF815008DF86E
:1013700016303D4809B212B205AB17F02FF9D5F877
:1013800018395A1CC5F81829233305EBC30245F850
:101390003360576010E00133934288D135E0013467
:1013A00093E8030003E90300D5F81829013A08334C
:1013B0009442F4DBC5F81829D5F81839002B0EDC57
:1013C000D5F81C390133C5F81C39D5F820299342CA
:1013D00007DB0023C5F81C394FF47A7041E0002088
:1013E0003FE04FF47A703CE02A1D2B465FE705EBA7
:1013F0000710304443F008030374ACE705EB071013
:10140000304443F001030374A3E704F1230305EB25
:10141000C30255F833104900526852009DF8090084
:101420009DF80A309DF808608DF810608DF8110065
:101430008DF812300C4809B212B204AB17F0CEF896
:10144000D5F81829013A9442B4DA04F1240305EBE3
:10145000C303A4E705EB0710304443F00203037411
:1014600075E706B0BDE8F087D09FFF1FD8A3FF1F28
:1014700010B5044643691944012902DD0023436184
:1014800004E00029AEBF416101234361206A10B12D
:1014900003681B6998476369063354F82300206288
:1014A00010B10368DB68984710BD00BF10B5044653
:1014B000002002211FF0A4F9012802DD002363614E
:1014C00004E00028AEBF606101236361206A10B1AF
:1014D00003681B6998476369063354F82300206248
:1014E00010B10368DB68984710BD00BF70B50446B3
:1014F0001A4B1A68C368D21A03699A4227D9002284
:10150000174B1A7017481CF079FE18B10122144BC2
:101510001A7012E094F827302BB913481CF0E6FD3E
:10152000012384F827300F4D2E781CF097FD2946B3
:101530001CF038FC2B78B34206D001220B4B1A70FA
:10154000064B1B68E36002E00022084B1A70206A19
:1015500010B103689B689847002070BDBC5E0020F6
:10156000D4A3FF1F7CB0FF1F8D110000882800202E
:101570002DE9F04F8FB0244C00250027A046DFF85E
:101580008C904FF0814B0020FF211FF039F9002093
:10159000FF211FF035F9284623F088FB20606760A3
:1015A000C8EB040608F10803F75006EB030A2846C7
:1015B00022F02AFF12A3D3E9002322F08BFF23F0AD
:1015C0006BFACAF8040008F11003F7501E44776064
:1015D000C4F81890C4F81C90C4F820B04FF08243AF
:1015E0006362EB0084F828300C9BE362012384F8EB
:1015F00030301D443434202DC5D10FB0BDE8F08FFC
:101600007B14AE47E17A84BF2C31002000002041DA
:101610002DE9F04F91B036490B8803EB432203EBE1
:10162000820343F2196213449BB2038103EB432408
:1016300003EB840313449BB2438103EB432403EB8A
:1016400084031A4492B20A8082812A4C0026DFF871
:10165000AC904FF07C5A20201FF0C6F805460020C1
:10166000FF211FF0CDF883460020FF211FF0C8F8AE
:101670000190284623F016FB206066601D4BE51A9A
:10168000984603F10807584623F010FB494623F01B
:1016900015FC514623F054FAE8512F44019823F0E9
:1016A00005FB494623F00AFC514623F049FA7860CD
:1016B00008F11003EE501D446E600F4BA3614FF014
:1016C0007F53E3614FF0814323624FF082436362B3
:1016D000002384F828300E9BE362012384F8303025
:1016E000343408F502639C42B5D111B0BDE8F08FE7
:1016F0001C96FF1F2C310020CDCC4C3D00007F43B9
:101700002DE9F04F83B08346002002211FF078F8C6
:101710000028034608BF4FF0FF330193DBF8083081
:10172000002B4FDD294C002500270020FF211FF052
:1017300067F80020FF211FF063F8282032211FF0F6
:101740005FF88246224B2360C5F11F0023F0AEFAFA
:1017500060601E4BE61A984603F10809504623F0D4
:10176000A5FA1C4923F0AAFB8246019823F09EFAB1
:101770000146504623F0EEFA46F80900B144C9F894
:10178000047008F1100846F80870B044C8F80470F6
:10179000114BA3614FF07F53E3614FF0814323620C
:1017A0004FF0824363626B0184F828304FF07E5320
:1017B000E362012384F830301D443434DBF8083010
:1017C000AB42B2DC03B0BDE8F08F00BF2C3100208B
:1017D000000070410000C842CDCC4C3D2DE9F04FD7
:1017E00093B00B9041F21043C358002B40F0B783E5
:1017F0008DF83C308DF83D308DF83E30B1480FA962
:1018000017F0E2FA04201EF0EFFF032800F2B18186
:10181000DFE810F016000D0004004C010022134612
:10182000A94D174640F6F5264FF0FF0816E10022B5
:101830001346A54D174640F6F5264FF0FF08A9E0E0
:1018400000221346A04D174640F6F5264FF0FF083C
:101850003CE085FB04AB4FEAE47ACAEBAB0A80F8C4
:1018600013A080F814C080F815E00133B3F5806F41
:1018700000F06383FF3403304B45EAD1FF31B142BE
:1018800020D085FB010CC817C0EBAC0C5FFA8CFCB8
:1018900003EB430410340B982044DDF82C9009F836
:1018A000047080F801C080F802E05C1CB4F5806F21
:1018B00000F0438303EB4300484403F10B09234644
:1018C0004446C6E7FF32B24200F0378385FB02AEE2
:1018D000D117C1EBAE0E5FFA8EFE3946D1E728462E
:1018E00031461EF08DFF94F810C094F811E0A17CF1
:1018F00000EB40003B1833F8102F9B782282A37432
:1019000000F11002BB1807F802C083F801E09970DB
:1019100001350334B5F5806FE1D12AE180F813E099
:1019200085FB04AB4FEAE47ACAEBAB0A80F814A05B
:1019300080F815C00133B3F5806F00F00483FF34E5
:1019400003304B45EAD1FF31B1421FD085FB010C7A
:10195000C817C0EBAC0C5FFA8CFC03EB43041034EB
:101960000B982044DDF82C9009F804E0477080F8CB
:1019700002C05C1CB4F5806F00F0E58203EB43000D
:10198000484403F10B0923464446C7E7FF32B242FD
:1019900000F0D98285FB02AED117C1EBAE0E5FFA23
:1019A0008EFE3946D2E7284631461EF029FF94F8CC
:1019B00010C094F811E0A17C00EB40003B1833F814
:1019C000102F9B782282A37400F11002BB1807F835
:1019D00002C083F801E0997001350334B5F5806FDA
:1019E000E1D1C6E080F813E080F814C085FB04ABB9
:1019F0004FEAE47ACAEBAB0A80F815A00133B3F5DD
:101A0000806F00F0A682FF3403304B45EAD1FF31EE
:101A1000B1421FD085FB010CC817C0EBAC0C5FFABC
:101A20008CFC03EB430410340B982044DDF82C901D
:101A300009F804E080F801C087705C1CB4F5806F81
:101A400000F0878203EB4300484403F10B0923466F
:101A50004446C7E7FF32B24200F07B8285FB02AE0C
:101A6000D117C1EBAE0E5FFA8EFE3946D2E728469B
:101A700031461EF0C5FE94F810C094F811E0A17C28
:101A800000EB40003B1833F8102F9B782282A374A0
:101A900000F11002BB1807F802C083F801E099704A
:101AA00001350334B5F5806FE1D162E00020FF21FC
:101AB0001EF0A6FEC6B2DDF82C804FF0000BD94612
:101AC000FF2751E0D09FFF1F67666666B5F5806F00
:101AD00015DA8DF838608DF839408DF83A700EA817
:101AE00011A918F03BFC9DF844109DF845209DF885
:101AF00046308AF800108AF801208AF80230013551
:101B00001034A4B20AF1030AB4F5807FDED1DA46BC
:101B10000BF11005C346B5F5806F15DA8DF8386006
:101B20008DF839708DF83A400EA810A918F016FCFF
:101B30009DF840109DF841209DF842308BF84010F0
:101B40008BF841208BF842300135103CA4B20BF1E8
:101B5000030B002CDFD10AF1200B0836F6B208F196
:101B60006008BBF5806F04D008F1100A5D464C4652
:101B7000ACE702201EF038FE41F21443DDF82C9051
:101B800049F8030009F5416009F54364002208E0C3
:101B90001A7083F8002420338B42F9D10130A0421F
:101BA00003D000F580610346F2E741F21043DDF80F
:101BB0002CA05AF8033003EB4302524432F8101FB2
:101BC0009278ADF834108DF8362043B920201EF0FD
:101BD0000BFE054620201EF007FE04464DE19DF851
:101BE0003490CDF820909DF835A0CDF81CA09DF83C
:101BF0003690CDF8189041F21443DDF82CA05AF835
:101C0000033053B94FF00009CDF81490CDF824906B
:101C1000CDF80890AC490A919BE04FF00009CDF84F
:101C20001090CDF81490CDF80C90A74909911FE1C0
:101C300009950594029A5A4441F21003D35C002B93
:101C40006FD0029A02320392029B5E1EDFF878A2E6
:101C500007F1FF39CDF81090CDF804B0B6F1FF3F91
:101C60004AD0202E48D0DDF8049009F5416507F1EF
:101C700002083544049C0FFA86FB0FB90298B8B3EA
:101C8000B4F1FF3F34D0202C32D015F8203C7BB388
:101C90008E4821B25A4616F053FC8DF83800C0F336
:101CA00007228DF83920C0F307438DF83A30C0B2CF
:101CB000DDF82090C9EB0000D2B2DDF81C90C9EB32
:101CC0000202DBB2DDF81890C9EB030302FB02F25B
:101CD00000FB002003FB0309D14507DB08D10220EC
:101CE0001EF082FD012818BFCA4601D1CA46FFE78F
:101CF000013420354445C0D10136DDF80C904E4505
:101D0000ACD1DDF804B00A98824505DB0CD1022085
:101D10001EF06AFD01280AD1029C3D46CDF828A09C
:101D200009E0059C099D06E0059C099D03E0059CD2
:101D3000099DCDF828A001370BF1200B202F7FF44F
:101D400077AF029901310291202900F09680099520
:101D50000594DDF82CA04FF0000B5F46D34669E7F1
:101D600005950494039A524441F21003D35C002B6E
:101D700063D0DDF80C9009F1FF364FF00009CDF883
:101D800004904FF0FF380BEB08000290CDF828B01C
:101D9000B6F1FF3F39D0202E37D00AF541650AF55C
:101DA000476737443544029C0FFA86FBB4F1FF3F86
:101DB00027D0202C25D015F8203C13B309F10109B8
:101DC000424821B25A4616F0BBFB8DF83800C0F3EA
:101DD00007228DF83920C0F307438DF83A30C0B29E
:101DE0000899401AD2B20799521ADBB206995B1AC7
:101DF00002FB02F200FB002003FB0303019A1A44DA
:101E0000019201342035BD42D0D108F101080136DC
:101E1000B8F1020FBCD1DDF828B0019B93FBF9F6B5
:101E20000998864205DB0BD102201EF0DDFC01285B
:101E300009D1039C5D46099608E0049C059D05E0D8
:101E4000049C059D02E0049C059D09960BF1010B85
:101E50000AF1200ABBF1200F82D1DDF80C9009F1C4
:101E60000109CDF80C904846202806D00595049429
:101E7000DDF82CA04FF0000B74E7DDF82C9009EB97
:101E800045163319002141F210029954012283F8BA
:101E9000102C0E4829B222B20DAB16F09FFB013C6C
:101EA0002F464FF0FF3206F5805610364FF00008EF
:101EB0004FF0010CB4F1FF3F21D0202C1FD06B1E3E
:101EC0003019414607E000BF3F420F00D09FFF1F7F
:101ED0000131203001339F4201D1002AF8D0B3F103
:101EE000FF3F0AD0202B08D0A0F5846999F8009014
:101EF000B9F1000F01D100F820CC0129E8DD013251
:101F00000134022AD6D141F21043DDF82CA05AF850
:101F100003300133B3F5806F05DA41F210424AF81D
:101F20000230002028E0002241F21043DDF82C901E
:101F300049F8032040F6B8301EE00B9C00254FF412
:101F400080662746CBE40B9C00254FF4806627462D
:101F500029E50B9C00254FF48066274687E503EBB7
:101F60004303DDF82CA0534433F8102F9B78ADF8D1
:101F700034208DF8363032E613B0BDE8F08F00BF64
:101F8000F0B583B00446467C274B1B78D3B1274B72
:101F90009D78437D2BB90C2D02D90C3DEDB200E0AC
:101FA000E5B12348052116F001F804F108002149A4
:101FB0002A461E4B5B7823F0A9FE0A2D34BF042766
:101FC000012718E01A48002115F0F0FF1A4B03CB47
:101FD000A060E1601B78237401270CE01448052100
:101FE00015F0E4FF04F1080012490C220F4B5B7856
:101FF00023F08CFE01270E4D2846202116F014F9FF
:10200000284604F1120116F007F9284615F094FF4E
:102010000123009328463946324604F1080316F09E
:102020000FF8002003B0F0BD882800207CB0FF1F0F
:10203000D09FFF1F28A402001CA402002DE9F04F2E
:102040009FB003904D4CDFF85091DFF840814FF086
:102050007C5B4FF0000A0020FF211EF0D1FB0190B5
:102060000020FF211EF0CCFB0290C4F80090C4F8C1
:1020700004904249651A0F4601F10806019822F0C2
:1020800015FE414622F01AFF594622F059FDA8518B
:102090002E44029822F00AFE414622F00FFF5946D4
:1020A00022F04EFD706007F1100345F803A01D44B7
:1020B000C5F804A04FF0814323624FF0824363626E
:1020C000002384F828300F9BE362012384F830302A
:1020D0002B4BE3612B4BA361343407F5027294421E
:1020E000B9D1002002211EF08BFB0028D4BF0020B4
:1020F0000120039B83F8450000283BD00020FF21EE
:102100001EF07EFB05460020FF211EF079FB0446F1
:102110001D4B03998B60CB60284622F0C7FD1B49FD
:1021200022F0CCFE4FF07C5122F00AFD039A1061A0
:10213000204622F0BBFD154922F0C0FE4FF07C5135
:1021400022F0FEFC039B5861002303998B61CB6155
:10215000002281F830201C9A4A63012281F838203D
:1021600081F845200A4A4A620A4A0A624FF08342CD
:10217000CA628B621FB0BDE8F08F00BF2C31002017
:102180005C8FC23E8FC2753C0000F84100007F4367
:10219000B81EC53E0AD7A33C000070412DE9F043AC
:1021A00087B000258DF810508DF811508DF8125021
:1021B000214804A916F008FEDFF88490DFF8848037
:1021C0001E4E06F60947D8F8003095FBF3F359F890
:1021D00023402246002CB8BFE21C96F8083C00932E
:1021E00003A83946C2F38702FF2317F0FFFFABB203
:1021F0009DF80D109DF80E209DF80C008DF8140030
:102200008DF815108DF8162019B22246002CB8BF93
:1022100004F11F025211C2F120021F20009005A8F4
:102220000190054812B21BB216F024FB0135202D97
:10223000C9D107B0BDE8F083D09FFF1FD8A3FF1F0F
:1022400048280020B495FF1F2DE9F04F87B00027E4
:102250008DF810708DF811708DF81270294804A94E
:1022600016F0B2FD284B1D1F03F1380BDFF89C80E0
:1022700008F6094ADFF88C9055F8044F6E6822463C
:10228000002CB8BFE21C98F8083C009303A8514604
:10229000C2F38702FF2317F0A9FF2346002CB8BF23
:1022A00004F11F035A11C2F12002D2B23346002EAC
:1022B000B8BF06F11F035B11C3F12003DBB2BC1CE6
:1022C000A4B29DF80D009DF80E109DF80C608DF8DD
:1022D00014608DF815008DF816101F2B28BF1F23D2
:1022E000009305AB0193484639B21F2A28BF1F222D
:1022F00023B216F0BFFA5D4501D02746BCE707B010
:10230000BDE8F08FD09FFF1F48280020D8A3FF1FF3
:102310002DE9F04F91B00D900023734DEB2029680B
:10232000CA18CC5C00FB04F42412CC54517800FB96
:1023300001F109125170917800FB01F109129170BD
:102340000333B3F5406FEAD100220C92DFF8B8B145
:10235000D946664B0C9AD5580D9A937A13B1644BB3
:102360000C9AD5582B46002DB8BFEB1CC3F387043D
:102370004FF002082E4627465B4991F8083C00932F
:102380000EA801F609413A46FF2317F02FFF304609
:1023900022F03AF80022574B22F09CF80022564BCC
:1023A00021F0E4FE22F078FB0446002122F08EFEAC
:1023B000002800F08380204622F038F882468B46C1
:1023C000484622F033F846A3D3E9002322F082F8EE
:1023D00022F062FB22F02AF804460D461FF074FD3D
:1023E000CDE90401204629461FF0A4FCCDE90601F1
:1023F0004846424922F0A4FB22F018F838A3D3E95A
:10240000002322F067F822F047FB22F00FF8044681
:102410000D461FF059FDCDE90801204629461FF061
:1024200089FCCDE90A019DF839209DF83A309DF8E4
:1024300038108DF83C108DF83D208DF83E30504618
:102440005946DDE9042322F045F800222C4B21F007
:102450008FFE22F0D9FA04B250465946DDE9062330
:1024600022F038F80022264B21F082FE22F0CCFA2E
:1024700000B2009050465946DDE9082322F02AF8C0
:1024800000221F4B21F074FE22F0BEFA00B2019030
:1024900050465946DDE90A2322F01CF80022184B69
:1024A00021F066FE22F0B0FA00B202900FAB039367
:1024B00014480F210A46234616F096FB48460F495A
:1024C00022F03EFB8146B8F101087FF455AF0C9B2A
:1024D00004330C931C2B7FF43CAF11B0BDE8F08F9C
:1024E000399D52A246DF913FD8A3FF1F2C28002020
:1024F000E83900200000903F0000F03F0000C84194
:1025000000002E40D09FFF1F0000B443AFF30080B7
:102510002DE9F04F93B00546837B032B00F20B822D
:10252000DFE813F004007600E8005E010024AA4F03
:1025300007F60949DFF8A482E6B2AB7A03EB46035B
:10254000DBB213F0800F1CBFDB43DBB25B00DBB2FE
:1025500013F0800F00F0E48183F0FF0303F1010B1F
:102560005FFA8BFB0BFB03F34FEAD31B0BF0FE0B65
:102570008BF0FF0B2B699BFBF3FB1FFA84FA6A7B42
:10258000324497F8083C009303A84946D2B2FF238F
:1025900017F02CFE9DF80D209DF80E309DF80C10C4
:1025A0008DF808108DF809208DF80A3040460FFA92
:1025B0008AF15A4602AB16F011F8EB69022B23D1CF
:1025C000AB69CBEB030B1FFA8BFB6A7B324497F8AA
:1025D000083C009305A84946D2B2FF2317F006FE37
:1025E0009DF815209DF816309DF814108DF81010E8
:1025F0008DF811208DF8123040460FFA8AF10FFA4B
:102600008BF204AB15F0EAFF0134202C94D192E157
:102610000024714F07F60949DFF8C081E6B2AB7AB2
:1026200003EB4603DBB213F0800F1CBFDB43DBB2CE
:102630005B00DBB213F0800F00F0808183F0FF03BA
:1026400003F1010B5FFA8BFB0BFB03F34FEAD31B88
:102650000BF0FE0B8BF0FF0B2B699BFBF3FB1FFAC0
:1026600084FA6A7B324497F8083C009307A84946ED
:10267000D2B2FF2317F0BAFD9DF81D209DF81E3041
:102680009DF81C108DF818108DF819208DF81A304F
:10269000404659460FFA8AF206AB15F09FFFEB69E8
:1026A000022B23D16B69CBEB030B1FFA8BFB6A7BED
:1026B000324497F8083C009309A84946D2B2FF2358
:1026C00017F094FD9DF825209DF826309DF82410E4
:1026D0008DF820108DF821208DF8223040460FFA19
:1026E0008BF10FFA8AF208AB15F078FF0134202C39
:1026F00094D120E10024384F07F60949DFF8DC8047
:10270000E6B2AB7AC3EB4603DBB213F0800F1CBF1B
:10271000DB43DBB25B00DBB213F0800F00F019810A
:1027200083F0FF0303F1010B5FFA8BFB0BFB03F359
:102730004FEAD31B0BF0FE0B8BF0FF0B2B699BFBBF
:10274000F3FB1FFA84FA6A7B324497F8083C009343
:102750000BA84946D2B2FF2317F048FD9DF82D2063
:102760009DF82E309DF82C108DF828108DF829201A
:102770008DF82A3040460FFA8AF15A460AAB15F016
:102780002DFFEB69022B23D1AB69CBEB030B1FFAB7
:102790008BFB6A7B324497F8083C00930DA84946AE
:1027A000D2B2FF2317F022FD9DF835209DF8363078
:1027B0009DF834108DF830108DF831208DF83230BE
:1027C00040460FFA8AF10FFA8BF20CAB15F006FFB8
:1027D0000134202C94D1AEE0D8A3FF1FD09FFF1F5F
:1027E0000024694F07F60949DFF8A081E6B2AB7A09
:1027F000C3EB4603DBB213F0800F1CBFDB43DBB23D
:102800005B00DBB213F0800F00F0AE8083F0FF03BB
:1028100003F1010B5FFA8BFB0BFB03F34FEAD31BB6
:102820000BF0FE0B8BF0FF0B2B699BFBF3FB1FFAEE
:1028300084FA6A7B324497F8083C00930FA8494613
:10284000D2B2FF2317F0D2FC9DF83D209DF83E3018
:102850009DF83C108DF838108DF839208DF83A30FD
:10286000404659460FFA8AF20EAB15F0B7FEEB69F7
:10287000022B23D16B69CBEB030B1FFA8BFB6A7B1B
:10288000324497F8083C009311A84946D2B2FF237E
:1028900017F0ACFC9DF845209DF846309DF844109B
:1028A0008DF840108DF841208DF8423040460FFAE7
:1028B0008BF10FFA8AF210AB15F090FE0134202C48
:1028C00094D138E00168CA18CC5CC4EBC414E4119C
:1028D000CC545178C1EBC111C91151709178C1EB41
:1028E000C111C91191700333B3F5406FEAD12B7A4E
:1028F0006A7A9A4205D800232B72AB7A0133AB7205
:1029000001E001332B72EB7A2A7B9A4205D800232F
:10291000EB726B7B01336B7331E00133EB722EE0B2
:1029200003F1010B5FFA8BFB0BFB03FB4FEADB1B95
:102930000BF0FE0B1EE600231348C3E703F1010B67
:102940005FFA8BFB0BFB03FB4FEADB1B0BF0FE0B71
:1029500082E603F1010B5FFA8BFB0BFB03FB4FEAF3
:10296000DB1B0BF0FE0BE9E603F1010B5FFA8BFBBF
:102970000BFB03FB4FEADB1B0BF0FE0B54E70020C5
:1029800013B0BDE8F08F00BFD8A3FF1FD09FFF1F7B
:102990002DE9F04F97B00290554B1B684FF40C3265
:1029A00002FB03F2120ED3B213F0400F00F01082BC
:1029B000DB43DBB203F03F0103F00F0301334D486B
:1029C000091149004418647803FB04F3415C01EBEE
:1029D0002313DBB212F0800F18BF5B42DBB283F02F
:1029E000800303EB830318115638C0B20023424D15
:1029F0002968CA18CC5C00FB04F42412CC5451782A
:102A000001FB00F109125170917801FB00F10912EC
:102A100091700333B3F5406FEAD1029A9368002BAB
:102A200040F3DB81DFF8D4804FF0000ACDF828A016
:102A3000324B5AF80320049203EB0A0203925268C5
:102A40000692039A92680D9203EB0A02D2680E92E4
:102A5000039A1269089253445B690F93C346D8F8EE
:102A600018301093D8F81C200992D8F82030119310
:102A7000D8F82420129298F828300B93D8F82C20FC
:102A80000C9298F830301393029A5069049922F00E
:102A900057F80746029B9869069922F051F80646B6
:102AA0003846394622F056F904463046314622F07F
:102AB00051F90146204622F045F821F0B7FC0446C2
:102AC0000D461FF0C7FB21F0E7FF81460C4922F0BD
:102AD000DFFA48B948464FF0844122F0F7FA98B936
:102AE000484621F0A3FC11E0002006490EE000BF9B
:102AF000BC5E0020F4A30200D8A3FF1F2C310020ED
:102B00000000A040000014400020AC4921F0C4FFA8
:102B10008146204629461FF09DFB21F0BDFF002184
:102B200022F0ACFA38BB204629461FF093FB21F077
:102B3000B3FF21F07BFC02460B460020A04921F0A8
:102B4000F3FD04460D46384621F070FC02460B4664
:102B50002046294621F0BEFC21F09EFF0746304664
:102B600021F064FC02460B462046294621F0B2FCC7
:102B700021F092FF0646029A1069D16822F0EAF825
:102B800001460C9822F0E6F804464846494622F0F1
:102B9000E1F80146204622F091F921F047FC044675
:102BA0000D46384621F042FC02460B462046294697
:102BB00021F090FC21F070FF0146089821F0C2FF3F
:102BC0000746304621F032FC02460B462046294695
:102BD00021F080FC21F060FF01460F9821F0B2FF48
:102BE00008900D98394621F0ADFF81460E9808995E
:102BF00021F0A8FF06464846494622F0ABF80446B5
:102C00003046314622F0A6F80146204621F09AFFD0
:102C100004460998014622F09DF80146204622F01C
:102C200055FA002851D0204621F000FC04460D46FC
:102C30001FF010FB21F030FF002122F01FFA38BBFB
:102C4000204629461FF006FB21F026FF21F0EEFB6F
:102C500002460B4600205A4921F066FD04460D4607
:102C6000484621F0E3FB02460B462046294621F068
:102C700031FC21F011FF8146304621F0D7FB02469E
:102C80000B462046294621F025FC21F005FF06468B
:102C9000099821F0CBFB04460D46484621F0C6FBBF
:102CA00002460B462046294621F014FC21F0F4FE92
:102CB0008146304621F0BAFB02460B4620462946A3
:102CC00021F008FC21F0E8FE06460498494621F070
:102CD00039FF05460698314621F034FF0446384650
:102CE00021F0A4FB0022002321F0F4FBCDE9040134
:102CF000089821F09BFB0022002321F0EBFBCDE99B
:102D00000601304991F8083C009315A801F60941E5
:102D10000B9AFF2317F06AFA9DF855209DF856305C
:102D20009DF854108DF850108DF851208DF85230C8
:102D3000284622F0D5F907B2204622F0D1F902B296
:102D40002148394614AB15F049FC204F4AF807508A
:102D5000039B5C6007EB0A04C4F80890E660DDE9B9
:102D6000040121F099FE206110375744DDE9060186
:102D700021F092FE7860109ACBF81820099BCBF8CE
:102D80001C30119ACBF82020129BCBF824300B9AE0
:102D90008BF828200C9BCBF82C30139A8BF8302022
:102DA0000A9B01330A930AF1340A08F13408029AA3
:102DB00093680A9A93423FF73BAE0EE00000404012
:102DC0000000F03FD8A3FF1FD09FFF1F2C31002031
:102DD00003F03F0103F00F03F1E50F2017B0BDE84A
:102DE000F08F00BF2DE9F04784B000233C4DAA20AE
:102DF0002968CA18CC5C00FB04F42412CC54517826
:102E000000FB01F109125170917800FB01F10912E8
:102E100091700333B3F5406FEAD100262025344684
:102E2000DFF8C8902E4F07F60948FF2D9ABF2902F8
:102E300089B22946D9F800304FF48C7202FB03F2B4
:102E400001FB02F2120ED3B213F0400F3ED0DB436F
:102E5000DBB203F03F0103F00F03013321480911F6
:102E6000490000EB010E9EF801A003FB0AF3415C50
:102E700001EB2313DBB212F0800F18BF5B425FFA45
:102E800083FA97F8083C009303A841463246FF2393
:102E900017F0ACF99DF80D209DF80E309DF80C1040
:102EA0008DF808108DF809208DF80A308AF080021C
:102EB0000D4821B2D20802AB15F090FB0134013568
:102EC000ADB20736F6B2202CAFD104E003F03F01DB
:102ED00003F00F03C2E70F2004B0BDE8F08700BF86
:102EE000D8A3FF1FF4A30200D09FFF1FBC5E0020E9
:102EF0002DE9F04F85B005460023454EAA243168E0
:102F0000CA18C85C04FB00F00012C854517804FBD6
:102F100001F109125170917804FB01F109129170CD
:102F20000333B3F5406FEAD120260024DFF8F0A088
:102F3000DFF8F0B0DFF8D88008F609492246002C07
:102F4000B8BFE21CC2F38702062A28BF06225AF83D
:102F50002230A97A09B15BF82230FF2E9ABF3002E5
:102F600080B230462B4A12684FF48C7101FB02F19B
:102F700000FB01F1090ECAB212F0400F40D0D2435B
:102F8000D2B202F03F0002F00F020132224F0011D4
:102F9000400007EB000E9EF801E002FB0EF2385CE9
:102FA00000EB2212D2B211F0800F18BF5242D7B2FA
:102FB0001A46002BB8BFDA1C98F8083C009303A807
:102FC0004946C2F38702FF2317F010F99DF80D2040
:102FD0009DF80E309DF80C108DF808108DF8092022
:102FE0008DF80A3087F080020C4821B2D20802AB7B
:102FF00015F0F4FA01340136B6B2202C05D09DE765
:1030000002F03F0002F00F02C0E705B0BDE8F08F0C
:10301000D8A3FF1FBC5E0020F4A30200D09FFF1FB7
:103020002C280020E83900202DE9F04F89B0814696
:1030300000238B4DBE202968CA18CC5C00FB04F429
:103040002412CC54517800FB01F10912517091788F
:1030500000FB01F1091291700333B3F5406FEAD11F
:10306000D9F81C004FF0824121F074FE22F05EF886
:10307000C2B27B4B93F8083C009305A87949FF2323
:1030800017F0B4F8D9F80880D9F80C0021F0CEF97F
:1030900004460D464046D9F81C1021F053FD21F09E
:1030A000C5F96DA3D3E9002321F014FA21F0F4FC53
:1030B00021F0BCF906460F461EF03CFE02460B46C8
:1030C0002046294621F006FA0022674B21F050F8ED
:1030D00021F09AFC0290304639461EF0F5FE024679
:1030E0000B462046294621F0F5F902460B46002002
:1030F0005D4921F03BF821F087FC0390DFF870B1C7
:10310000D9F80C0021F092F904460D46404621F012
:103110008DF951A3D3E9002321F0DCF921F0BCFCA7
:1031200021F084F906460F461EF004FE02460B46C7
:103130002046294621F0CEF900224B4B21F018F809
:1031400021F062FC8246304639461EF0BDFE024642
:103150000B462046294621F0BDF902460B460020C9
:10316000414921F003F821F04FFC06469DF8152057
:103170009DF816309DF814108DF818108DF8192050
:103180008DF81A300FFA8AF405B2584621462A46BD
:1031900006AB15F023FA9DF815209DF816309DF822
:1031A00014108DF81C108DF81D208DF81E30584617
:1031B0002946224607AB15F011FA40464FF07E51E2
:1031C00021F0C0FC8046294921F076FF08B14FF07C
:1031D0000008029B9A4593D1039B9E4290D1D9F857
:1031E0001C402046D9F8081021F0ACFC05461F49C8
:1031F00021F062FF10B9C9F8085029E00023C9F88E
:103200000830D9F820502046294621F09BFC04467E
:10321000C9F81C00D9F81060314621F043FF30B1E5
:10322000C9F81C6005F10045C9F8205010E0D9F834
:1032300018602046314621F049FF48B13046294602
:1032400021F07EFCC9F81C0005F10045C9F82050AA
:10325000002009B0BDE8F08F399D52A246DF913FB2
:10326000D8A3FF1FE1AFFF1F000030400000B443B0
:10327000D09FFF1FAFF3008038B504460D460846C7
:1032800022F098FF024623685B682046294698474B
:10329000054620461DF0F0F9284438BD30B589B008
:1032A000054600238DF804305A4B009302914FF0ED
:1032B000FF330393584869461BF0AEFB04460028D1
:1032C00000F0A58054482146544A1BF00DFC0346EB
:1032D000027C042A04D105F10F00996922F00CFF49
:1032E0004D4821464E4A1BF0FFFB037C022B04D1C4
:1032F000836985F8733001232B7147482146494A79
:103300001BF0F2FB037C022B04D1836985F8743037
:1033100001232B7140482146434A1BF0E5FB037C07
:10332000022B04D1836985F8753001232B713A484B
:1033300021463E4A1BF0D8FB037C022B04BF836965
:10334000AB67354821463A4A1BF0CEFB037C022B83
:1033500004BF8369EB6730482146364A1BF0C4FB43
:103360000346027C042A04D105F1800099691DF00E
:10337000EDFA29482146304A1BF0B6FB037C022BAC
:1033800004BF836985F89030234821462B4A1BF0FF
:10339000ABFB0346027C042A33D104A899691DF0D3
:1033A00085FA04A826491DF031FBE0B904A8254997
:1033B0001DF02CFBC8B904A823491DF027FBB0B9A8
:1033C00004A822491DF022FB98B904A820491DF049
:1033D0001DFB80B904A81F491DF018FB00280CBF75
:1033E0000523042308E0052306E0002304E001236D
:1033F00002E0022300E0032385F8913004A81DF0C9
:1034000009FA054821461AF0DFFF012000E00020FC
:1034100009B030BDF0EA0200285E002030A40200AE
:1034200038A402003CA4020044A402004CA4020000
:1034300050A4020058A4020060A4020068A4020084
:1034400070A4020084A4020090A40200A0A40200C0
:10345000B0A40200B8A4020010B500F18004204618
:1034600013491DF0D3FAC8B9204612491DF0CEFA0F
:10347000B0B9204610491DF0C9FA98B920460F4945
:103480001DF0C4FA80B920460D491DF0BFFA68B995
:1034900020460C491DF0BAFA052010BD002010BDD1
:1034A000012010BD022010BD032010BD042010BD5E
:1034B000BCA40200C4A40200CCA40200D8A4020050
:1034C000E4A40200F0A4020010B50C460846154919
:1034D0001DF09CFAE0B9204613491DF097FAC8B9CF
:1034E000204612491DF092FAB0B9204610491DF04D
:1034F0008DFA98B920460F491DF088FA80B9204608
:103500000D491DF083FA00280CBF0520042010BDD2
:10351000052010BD002010BD012010BD022010BDEF
:10352000032010BD70A4020084A4020090A4020035
:10353000A0A40200B0A40200B8A402002DE9F0414A
:10354000D8B007460D469E4E04AC9AE12B798DF813
:103550001430AB6806932B7B8DF81C3004962B46F9
:1035600053F80D0F59689A68CDF81D00CDF8211059
:10357000CDF825201B7B8DF82930EB690B9368462D
:1035800000211DF093F908E0204618F0C5FA0FE07D
:103590000A290DD068461DF00DFA204618F066FB8A
:1035A00030B1204618F0B8FAC1B20D29F0D1EBE7DE
:1035B000204618F027FB0CA882491DF077F96846D1
:1035C0000CA91DF059FA80460CA81DF023F9B8F19A
:1035D000000F13D010A8694605221DF0ADFA684609
:1035E00010A91DF0ABF910A81DF014F9684607F1F9
:1035F0000F01642200231DF063FA3FE114A8724911
:103600001DF054F9684614A91DF036FA804614A836
:103610001DF000F9B8F1000F17D018A86946042270
:103620001DF08AFA684618A91DF088F918A81DF03F
:10363000F1F8029B002B00F0218168461DF094FAFE
:1036400087F8730001233B7118E11CA85F491DF046
:103650002DF968461CA91DF00FFA80461CA81DF024
:10366000D9F8B8F1000F17D020A8694606221DF03E
:1036700063FA684620A91DF061F920A81DF0CAF878
:10368000029B002B00F0FA8068461DF06DFA87F867
:10369000740001233B71F1E024A84D491DF006F9A7
:1036A000684624A91DF0E8F9804624A81DF0B2F868
:1036B000B8F1000F17D028A8694605221DF03CFA82
:1036C000684628A91DF03AF928A81DF0A3F8029B26
:1036D000002B00F0D38068461DF046FA87F875008D
:1036E00001233B71CAE02CA83A491DF0DFF8684677
:1036F0002CA91DF0C1F980462CA81DF08BF8B8F15B
:10370000000F14D030A8694604221DF015FA68464F
:1037100030A91DF013F930A81DF07CF8029B002B96
:1037200000F0AC8068461DF01FFAB867A6E034A828
:1037300029491DF0BBF8684634A91DF09DF9804663
:1037400034A81DF067F8B8F1000F14D038A8694606
:1037500005221DF0F1F9684638A91DF0EFF838A8E8
:103760001DF058F8029B002B00F0888068461DF081
:10377000FBF9F86782E03CA818491DF097F8684605
:103780003CA91DF079F980463CA81DF043F8B8F13A
:10379000000F25D040A8694605221DF0CDF96846E6
:1037A00040A91DF0CBF840A81DF034F8029B002B77
:1037B00064D007F1800069461DF0AAF85EE000BF02
:1037C00078EA0200FCA4020004A502000CA5020095
:1037D00014A502001CA5020024A502002CA50200CD
:1037E00044A82D491DF062F8684644A91DF044F92B
:1037F000804644A81DF00EF8B8F1000F14D048A878
:10380000694606221DF098F9684648A91DF096F809
:1038100048A81CF0FFFF029B002B2FD068461DF02C
:10382000A3F987F8900029E04CA81C491DF03EF848
:1038300068464CA91DF020F980464CA81CF0EAFF10
:10384000B8F1000F1AD050A8694605221DF074F98E
:10385000684650A91DF072F850A81CF0DBFF029BCF
:1038600063B154A869461DF05DF8384654A9FFF7C6
:103870002BFE87F8910054A81CF0CCFF68461CF082
:10388000C9FF2B689B682846984700283FF75EAE23
:1038900058B0BDE8F08100BF34A502003CA502008D
:1038A0002DE9F041FCB00446A64B1B78002B00F03C
:1038B0007D818368013383604279934204DB4FF05A
:1038C000FF33836000258EE1417B8B4205DA9E4BFE
:1038D0006D460FCB07C52B708FE00268007B5D1A29
:1038E00000F18B80854280F288800CA897490123E3
:1038F00018F056FB0CA818F0D9F900287AD014A8B3
:103900000CA9012218F0F4FB914E924F68E014A824
:1039100018F0C0F964E014A818F07AF901460378A9
:103920005F2B38D07E2B36D02E2B34D070A81CF0D5
:10393000BDFF70A81DF008F9014608A81CF0F2FFB1
:1039400070A81CF067FF6CA831461CF0AFFF08A8F8
:103950006CA91DF09DF8012800F03E8168A8394649
:103960001CF0A4FF08A868A91DF092F8804668A87A
:103970001CF050FF6CA81CF04DFF08A81CF04AFF7B
:10398000B8F1010F07D1013D14A818F041F9014623
:10399000684622F0B1FB14A818F07CF960A80CA9C5
:1039A000012218F0A5FB9DF884318DF85430629BFC
:1039B00016939DF88C318DF85C307CAA52F8630D1B
:1039C00051689368CDF85D00CDF86110CDF8653091
:1039D000137B8DF86930679B1B9360A818F012F970
:1039E00014A818F063F9002800F0E280002D80F29E
:1039F000EC80DDE00CA818F005F914A8216822F08D
:103A00007BFB14A8694622F0C9F90CA84F4914AAF7
:103A1000012318F0C5FA0CA818F048F9054620B99A
:103A20002046FFF73DFF0546BCE004F10F070026E6
:103A3000E67384F8736084F8746084F87560012319
:103A4000A367E36704F1800005211CF091FF1823B0
:103A500084F8903084F89160267154A869461CF06F
:103A600025FF54A81DF070F8014604A81CF05AFF69
:103A700054A81CF0CFFE04A837491CF0C7FF00284B
:103A80004CD0A368B3427DDBDFF8D0809DF83430A2
:103A90008DF8D4310E9B76939DF83C308DF8DC3157
:103AA000CDF8D081DDF83D10DDF84120DDF845305E
:103AB000CDF8DD11CDF8E121CDF8E5319DF84930A3
:103AC0008DF8E931139B7B9308A800211CF0EEFED2
:103AD00008E074A818F020F80FE00A290DD008A813
:103AE0001CF068FF74A818F0C1F830B174A818F081
:103AF00013F8C1B20D29F0D1EBE774A818F082F8E1
:103B000008A839460A9A00231CF0DAFF013608A8F3
:103B10001CF080FEA3689E42B8DD33E058A80C4933
:103B20001CF0C4FE04A858A91CF0B2FF064658A811
:103B30001CF070FE012E13D120460CA9FFF7FEFCED
:103B400020E000BF08DEFF1F58A50200205B002018
:103B500050A5020044A5020048A5020078EA020030
:103B60005CA823491CF0A2FE04A85CA91CF090FFED
:103B700006465CA81CF04EFE012E03D120460CA97F
:103B8000FFF78CFB23793BB91A4B33F8042F9B7852
:103B9000A4F8732084F875300CA818F07BF804A8FA
:103BA0001CF038FE0CA818F02DF81CE000251AE0D7
:103BB00014A818F06FF80CA818F06CF814A818F0F6
:103BC00021F80CA818F01EF817E714A818F022F82E
:103BD00000287FF49CAE9EE66CA81CF01BFE08A893
:103BE0001CF018FECFE628467CB0BDE8F08100BF8F
:103BF00044A50200B8A1020070B506460D4B187826
:103C000021F054F80146304621F04CFA68B9094DCC
:103C1000012415F8010F21F049F8314621F04CFA42
:103C200030B901340C2CF4D101E0002400E0002470
:103C3000204670BD9C95FF1F10B50446002121F061
:103C400027FA28B92046054921F040FA10B902E0C8
:103C5000024C00E00024204610BD00BF00007F435E
:103C600010B5054C207821F01DF8FFF7E5FF21F095
:103C70005DFA207010BD00BFA03C002010B50C46BE
:103C8000FFF7BAFF001903D40C28A8BF002000E0FA
:103C90000B20034B185C21F005F8FFF7CDFF10BD9A
:103CA0009C95FF1F08B5002001211BF0D9FC0120C5
:103CB00001461BF0D5FC002001461BF09FFC0120B3
:103CC00001461BF09BFC08BD2DE9F84F00257E4BFB
:103CD0001D70284601211BF091FC284629461BF047
:103CE0008DFC2C460126DFF81882784F30460021E3
:103CF0001BF084FC4FF42073013B7FF4FDAF2820C0
:103D00001BF0FAF854F80830184420EAE073E35145
:103D10009D42B8BF1D46304631461BF06FFC04344F
:103D20001C2CE3D16A4B187818B120F0BBFF8146F8
:103D300056E0684B187805FB00F5674B1B889D42E1
:103D400020DB664B9B7883421CD8654B1A68654B19
:103D50001B6813B9634B1A603DE0634909880B4443
:103D6000934238D220F09EFF4FF0FF31FFF786FFDD
:103D700021F0DCF9574B187000235A4A13605B4A54
:103D8000136028E05A4B1B889D421FDC534BDB7AA3
:103D900083421BD9524B1A68544B1B6813B9534BBF
:103DA0001A6018E0534909880B44934213D220F05B
:103DB00079FF0121FFF762FF21F0B8F9454B187038
:103DC00000234A4A1360474A136004E00023474A2D
:103DD0001360444A13603F4B187820F063FF81461C
:103DE000454BD3F800A0384B1D780024374E40F2E5
:103DF000FF38424FA346A05920F058FF494620F013
:103E0000A9FF21F06DF920EAE0704045A8BF4046C7
:103E1000A051E359984201DBE05107E0002B05DD9A
:103E2000B3EB0A0354BFE35144F807B0C128A8BF5D
:103E3000012504341C2CDED1234B1D7000252C469B
:103E4000DFF8C0A0DFF8C0B0DFF8B080204620F077
:103E50002DFF514620F07EFF074621F041F906462E
:103E600020F024FF0146384620F06AFE07460E2C5B
:103E70001FDC4FF07E50394620F062FE814658F834
:103E8000260020F013FF0146484620F063FF8146DC
:103E9000013658F8260020F009FF394620F05AFF75
:103EA0000146484620F04EFE21F01AF94BF8050075
:103EB00003E058F8263045F80B3001340435102C57
:103EC000C4D1BDE8F88F00BF29E2FF1F2C280020D5
:103ED000A03C002074B0FF1F8095FF1F9C95FF1F22
:103EE000BC5E00200CDEFF1FA895FF1F14DEFF1F25
:103EF0006495FF1F8295FF1F7C95FF1FE839002006
:103F00007CDDFF1FCDCCCC3E4828002010B50446F8
:103F1000FFF7DAFE42F6A833E05803689B6898473B
:103F200010BD00BF10B50446FFF7CEFE0822084BB7
:103F30001A60606910F0010F01D1236903E043109A
:103F4000E2582369D35804EB60009847002010BD65
:103F50007C95FF1F70B4FF289CBF000280B21D4CEF
:103F600025689DF80C404034EB1A4FF48C7505FB26
:103F700003F300FB03F304EB1363DBB213F0400F16
:103F800021D0DD43EDB205F03F0005F00F0501350E
:103F9000114C001140002618767805FB06F5205CD0
:103FA00000EB2515EDB213F0800F0EBFEBB26B42A4
:103FB000DBB283F08003501AC0B200FB03F001EBC8
:103FC0002021C8B204E003F03F0003F00F05DFE753
:103FD00070BC7047BC5E0020F4A302002DE9F04FD6
:103FE00085B05F4B1B684FF40C3202FB03F2120EDC
:103FF000D3B213F0400F00F0A580DB43DBB203F037
:104000003F0103F00F0301335648091149004418DA
:10401000647803FB04F3415C01EB2313DBB212F081
:10402000800F18BF5B42DBB283F0800303EB830396
:1040300098111A38C0B200234B4D2968CA18CC5CBD
:1040400000FB04F42412CC54517801FB00F1091256
:104050005170917801FB00F1091291700333B3F5AF
:10406000406FEAD14FF004081E2400270E25DFF828
:10407000F89009F6094BDFF8E8A099F8083C00939E
:1040800002A859463A46FF2316F0B0F8EEB2C6F140
:1040900020020023009320463146D2B2FFF75AFF98
:1040A0000146FF2C9ABF200280B22046DAF8003089
:1040B0004FF48C7202FB03F200FB02F2120ED3B239
:1040C00013F0400F43D0DB43DBB203F03F0E03F0AD
:1040D0000F03581C234B4FEA2E1E4FEA4E0E03EBE4
:1040E0000E0C9CF801C000FB0CF013F80EE00EEB78
:1040F0002013DBB212F0800F18BF5B42DBB29DF8D9
:1041000009009DF80A209DF808E08DF80CE08DF874
:104110000D008DF80E2083F0800308FB03F306EBFF
:104120002322124809B2D2B203AB14F057FA013D70
:104130000E37FFB2023CA4B208F10208B5F1FF3F0E
:104140009BD109E003F03F0103F00F035CE703F0AC
:104150003F0E03F00F00BDE7002005B0BDE8F08F73
:10416000BC5E0020F4A30200D8A3FF1FD09FFF1F56
:104170002DE9F04F89B0904B1B684FF40C3202FBD5
:1041800003F2120ED3B213F0400F00F00181DB43B3
:10419000DBB203F03F0103F00F030133874809113D
:1041A00049004418647803FB04F3415C01EB2313DA
:1041B000DBB212F0800F18BF5B42DBB283F08003EA
:1041C00003EB830318115638C0B200237C4D2968D5
:1041D000CA18CC5C00FB04F42412CC54517801FBC7
:1041E00000F109125170917801FB00F109129170F0
:1041F0000333B3F5406FEAD1022740244FF00008A3
:10420000C1462025DFF8B8B10BF6094103915FFAEA
:1042100089F60F2E4ED800230093384631462A46A1
:10422000FFF798FE8246FF2F9ABF390289B23946BE
:10423000614A13684FF48C7202FB03F201FB02F235
:10424000120ED3B213F0400F00F0A780DB43DBB2B5
:1042500003F03F0103F00F030133584809114900EF
:1042600000EB010E9EF801E003FB0EF3415C01EB55
:104270002313DBB212F0800F0EBFDAB25A42D2B271
:1042800082F08002A4F12003DBB203FB02F306EB11
:104290002326F6B29BF8083C009305A803994246F2
:1042A000FF2315F0A3FF9DF814109DF815209DF82D
:1042B000163050E00136F2B2FF2C9ABF200280B2D5
:1042C00020463D490B684FF48C7101FB03F100FB64
:1042D00001F1090ECBB213F0400F63D0DB43DBB228
:1042E00003F03F0003F00F030133344E0011400090
:1042F00006EB000E9EF801E003FB0EF3305C00EBD2
:104300002313DBB211F0800F18BF5B42DBB283F0E6
:104310008003C4F1210A5FFA8AFA0AFB03FA05EB6B
:104320002A2A5FFA8AFA0023009320462946FFF7DB
:1043300011FE0646C8F1B2029BF8083C009306A89D
:104340000399D2B2FF2315F051FF9DF818109DF884
:1043500019209DF81A308DF81C108DF81D208DF84D
:104360001E3018480FFA8AF132B207AB14F036F952
:10437000013D09F1010908F10E085FFA88F8023CD5
:10438000A4B20237BFB215F0FF057FF440AF0EE0D4
:1043900003F03F0103F00F0300E703F03F0103F0D8
:1043A0000F035AE703F03F0003F00F039DE70020DF
:1043B00009B0BDE8F08F00BFBC5E0020F4A302008E
:1043C000D8A3FF1FD09FFF1F2DE9F04F87B00390A8
:1043D0008E4B1B684FF40C3202FB03F2120ED3B269
:1043E00013F0400F00F00081DB43DBB203F03F012C
:1043F00003F00F030133864809114900441864781B
:1044000003FB04F3415C01EB2313DBB212F0800FDA
:1044100018BF5B42DBB283F0800303EB8303181108
:104420005638C0B200237B4D2968CA18CC5C00FB0B
:1044300004F42412CC54517801FB00F1091251709C
:10444000917801FB00F1091291700333B3F5406FCD
:10445000EAD14FF002081F2640240025DFF8B09172
:10446000EFB20F2F42D80023009340463946F2B2F4
:10447000FFF770FD8246B8F1FF0F9ABF4FEA08219F
:1044800089B24146614A13684FF48C7202FB03F211
:1044900001FB02F2120ED3B213F0400F00F0A9801C
:1044A000DB43DBB203F03F0103F00F0301330911DB
:1044B000490009EB0100407803FB00F319F80110F3
:1044C00001EB2313DBB212F0800F18BF5B42DBB2AB
:1044D00083F08003A4F1210B5FFA8BFB0BFB03FB42
:1044E00007EB2B2B5FFA8BFB7F0842E0F1B2FF2C2E
:1044F0009ABF200280B22046444A13684FF48C725F
:1045000002FB03F200FB02F2120ED3B213F0400FD3
:1045100074D0DB43DBB203F03F0003F00F03013341
:104520000011400009EB000E9EF801E003FB0EF3C2
:1045300019F8000000EB2313DBB212F0800F18BF54
:104540005B42DBB283F08003C4F1210A5FFA8AFA8E
:104550000AFB03FA01EB2A2A5FFA8AFA0023009386
:1045600020463A46FFF7F6FC834606EBD677C7F3BC
:104570004707062F28BF0627274B53F827300399F4
:104580008A7A12B1254B53F827301A46002BB8BF50
:10459000DA1C204991F8083C009304A801F609416F
:1045A000C2F38702FF2315F021FE9DF811209DF82C
:1045B00012309DF810108DF814108DF815208DF81C
:1045C000163017480FFA8AF10FFA8BF205AB14F088
:1045D00005F80135023CA4B2013E08F102081FFAB9
:1045E00088F8202D0FD03BE703F03F0103F00F03C5
:1045F00001E703F03F0103F00F0358E703F03F002A
:1046000003F00F038CE707B0BDE8F08FBC5E00201D
:10461000F4A30200D8A3FF1F2C280020E8390020B3
:10462000D09FFF1F2DE9F04F85B08246654B1B6878
:104630004FF40C3202FB03F2120ED3B213F0400F10
:1046400000F0B380DB43DBB203F03F0103F00F0364
:1046500001335D48091149004418647803FB04F3F1
:10466000415C01EB2313DBB212F0800F18BF5B42F9
:10467000DBB283F0800303EB830398111A38C0B2D6
:104680000023524D2968CA18CC5C00FB04F42412A4
:10469000CC54517801FB00F109125170917801FB63
:1046A00000F1091291700333B3F5406FEAD1202570
:1046B0000024DFF8189109F6094B04EBD473C3F317
:1046C0004703062B28BF0623414A52F823609AF875
:1046D0000A2012B13F4A52F82360E3B2C3F1100737
:1046E000FFB203F110020023009328463946D2B2EC
:1046F000FFF730FC8046FF2D9ABF290289B2294678
:10470000304B1B684FF48C7202FB03F201FB02F288
:10471000120ED3B213F0400F4CD0DB43DBB203F0E8
:104720003F0103F00F03013327480911490000EB53
:10473000010E9EF801E003FB0EF3415C01EB231335
:10474000DBB212F0800F18BF5B42DBB283F0800354
:10475000620002FB03F307EB2327FFB23246002E71
:10476000B8BFF21C99F8083C009302A85946C2F35E
:104770008702FF2315F03AFD9DF809209DF80A30C5
:104780009DF808108DF80C108DF80D208DF80E3066
:1047900011480FFA88F13A4603AB13F01FFF0134BA
:1047A000023DADB2102C0AD087E703F03F0103F0C1
:1047B0000F034EE703F03F0103F00F03B4E705B02A
:1047C000BDE8F08FBC5E0020F4A30200D8A3FF1F59
:1047D0002C280020E8390020D09FFF1FFFFFFFFF9B
:1047E0002DE9F04F95B08346A34B1B684FF40C3274
:1047F00002FB03F2120ED3B213F0400F00F0E2827C
:10480000DB43DBB203F03F0103F00F0301339B48AE
:10481000091149004418647803FB04F3415C01EB7F
:104820002313DBB212F0800F18BF5B42DBB283F0C0
:104830008003F52202FB03F31B120A33904A10682F
:1048400020210A46DBB215F0C3FC8B4B1B684FF4EA
:104850000C3202FB03F2120ED3B213F0400F00F041
:10486000B682DB43DBB203F03F0103F00F030133F9
:104870008248091149004418647803FB04F3415C41
:1048800001EB2313DBB212F0800F18BF5B42DBB2E7
:1048900083F0800303EB83035B116433DBB2CBF85B
:1048A0002830754B1B684FF4523202FB03F2120E94
:1048B000D3B213F0400F00F08F82DB43DBB203F082
:1048C0003F0103F00F0301336C48091149004418FC
:1048D000647803FB04F3415C01EB2313DBB212F0B9
:1048E000800F18BF5B42DBB283F0800303EBC3038E
:1048F00018120130C0B220F0D9F9624920F0DEFA76
:10490000CBF8140000230093052001210A22FFF7B1
:1049100021FB20F0CBF95B4920F0D0FA0546CBF81B
:104920001C00DBF81000DBF8141020F00BF9044633
:10493000CBF810002846DBF8181020F003F90646E3
:10494000CBF8180020461FF071FD04460D4648A321
:10495000D3E9002320F044F850B12046294644A36F
:10496000D3E900231FF002FC20F096F8CBF81000EA
:1049700030461FF05BFD04460D463DA3D3E90023FE
:1049800020F02EF850B12046294639A3D3E9002360
:104990001FF0ECFB20F080F8CBF81800DBF81000DB
:1049A0001FF044FD04460D461DF0C4F920F074F8D4
:1049B0000490204629461DF087FA20F06DF806463F
:1049C000DBF818001FF032FD04460D461DF0B2F969
:1049D00020F062F80590204629461DF075FA20F077
:1049E0005BF804460599CBF898120023CBF89C326B
:1049F00000F1004306930699CBF8A01230462146F9
:104A000020F0A8F90790CBF8A402049BCBF8A832B9
:104A10003046059920F09EF90890CBF8AC02049836
:104A2000214620F097F90990CBF8B00206F1004634
:104A30000A960A99CBF8B4120498059920F08AF9DD
:104A40000B90CBF8B802DBF8280020F02FF90C907F
:104A5000DBF820300D93DBF808100391DBF82430ED
:104A60000E935D465C464FF00009CDF83CB00BE07C
:104A7000182D4454FB211940BC5E0020F4A3020011
:104A8000D8A3FF1F0000C842D4F82C80276B666BA8
:104A90000598414620F05EF982463846002120F014
:104AA00059F90146504620F04DF8824606983146A5
:104AB00020F050F90146504620F044F88246C4F8F0
:104AC0008C000798414620F045F983460498394602
:104AD00020F040F90146584620F034F88346089803
:104AE000314620F037F90146584620F02BF8C4F83B
:104AF00090000998414620F02DF980460A983946E1
:104B000020F028F90146404620F01CF807460B9893
:104B1000314620F01FF90146384620F013F80C9971
:104B200020F010F80646C4F894000398514620F08F
:104B300011F9314620F0C2F901460D9820F002F833
:104B40001FF074FC1DF030F91FF0A6FFC5F8EC0053
:104B50000398D4F8901020F0FDF8314620F0AEF91B
:104B600001460E981FF0ECFF1FF060FC1DF01CF9D1
:104B70001FF092FFC5F8F00009F101090C34083567
:104B8000B9F1080F80D1DDF83CB0002319460BEBDA
:104B9000030282F80C120C33902BF8D10BF1D801E0
:104BA00004915C460125D4F830211D320BEBC20282
:104BB000D4F834311D330BEBC303191D0391D4F822
:104BC00038711D370BEBC7075668D2F80880586854
:104BD00031461FF0B5FF8146B86841461FF0B0FF6F
:104BE0000146484620F0B6F88146039B5868414686
:104BF0001FF0A6FF8046786831461FF0A1FF0146EE
:104C0000404620F0A7F8014648461FF099FF0021D2
:104C100020F03EFAF8B9D4F8403103EB43030BEB34
:104C2000830383F80C52D4F8443103EB43030BEBBA
:104C3000830383F80C52D4F8483103EB43030BEBA6
:104C4000830383F80C52D4F84C3103EB43030BEB92
:104C5000830383F80C52243404998C42A3D1634912
:104C60009BF8BC2291F8083C009310A801F609417A
:104C7000802315F0BBFA0BF190055C46DFF870A1BC
:104C800094F80C32A3BBD4F804620BEBC606D6F83A
:104C9000EC0020F025FA1FFA80F8D6F8F00020F09A
:104CA0001FFA1FFA80F9D4F808620BEBC606D6F893
:104CB000EC0020F015FA87B2D6F8F00020F010FAD8
:104CC0009DF841209DF842309DF840108DF8441029
:104CD0008DF845208DF8463000B2009011AB01935D
:104CE00050460FFA88F10FFA89F23BB213F0C2FD79
:104CF0000C34AC42C4D13D499BF8BC2291F8083C2D
:104D0000009312A801F60941FF2315F06FFA9DF8F0
:104D100048308DF840309DF849308DF841309DF88D
:104D20004A308DF842305C46DFF8C4A094F80C326B
:104D3000A3B3D4F804620BEBC606D6F8EC0020F05F
:104D4000CFF91FFA80F8D6F8F00020F0C9F91FFA61
:104D500080F9D4F808620BEBC606D6F8EC0020F018
:104D6000BFF987B2D6F8F00020F0BAF99DF84120DB
:104D70009DF842309DF840108DF84C108DF84D2074
:104D80008DF84E3000B2009013A9019150460FFAF1
:104D900088F10FFA89F23BB213F06CFD0C34A54296
:104DA000C4D1DBF8C0320133082B02D0CBF8C032BB
:104DB00017E00023CBF8C0329BF8BC3201338BF8EC
:104DC000BC320EE003F03F0103F00F031FE503F0D8
:104DD0003F0103F00F034BE503F03F0103F00F0326
:104DE00072E5142015B0BDE8F08F00BFD8A3FF1FF7
:104DF000D09FFF1FAFF3008070B410F0400F21D0A0
:104E0000C543EDB205F03F0305F00F050135114C28
:104E10001B115B00E618767805FB06F5E35C03EBF7
:104E20002515EDB210F0800F0EBFEBB26B42DBB276
:104E300083F08003501AC0B200FB03F001EB202185
:104E4000C8B204E000F03F0300F00F05DFE770BCDC
:104E5000704700BFF4A3020070B44030C3B213F037
:104E6000400F21D0DD43EDB205F03F0005F00F0506
:104E70000135114C001140002618767805FB06F527
:104E8000205C00EB2515EDB213F0800F0EBFEBB2E6
:104E90006B42DBB283F08003501AC0B200FB03F018
:104EA00001EB2021C8B204E003F03F0003F00F053E
:104EB000DFE770BC704700BFF4A30200F0B5A1B0FB
:104EC0000446C0F8041C092903DD0023C0F8043C93
:104ED00014E0002903DA0923C0F8043CFFE00929A3
:104EE00000F20B81DFE811F00A001F0034004900D6
:104EF0005E0073009A00AF00C400FB0080492346A7
:104F000001F1400551F8042F100C83F8390C100AF8
:104F100083F83A0C83F83B2C0333A942F2D1794B46
:104F2000C4F86C3CE9E07849034601F1400551F8CA
:104F3000042F100C83F8390C100A83F83A0C83F80C
:104F40003B2C0333A942F2D1704BC4F86C3CD4E043
:104F50006F49034601F1400551F8042F100C83F806
:104F6000390C100A83F83A0C83F83B2C0333A9421E
:104F7000F2D1684BC4F86C3CBFE06749034601F1CD
:104F8000400551F8042F100C83F8390C100A83F8EF
:104F90003A0C83F83B2C0333A942F2D15F4BC4F89F
:104FA0006C3CAAE05E49034601F1400551F8042F2C
:104FB000100C83F8390C100A83F83A0C83F83B2C58
:104FC0000333A942F2D1574BC4F86C3C95E000235F
:104FD0008DF80C308DF80D308DF80E30FF238DF8E4
:104FE00008308DF809308DF80A3004A8102103AA82
:104FF00002AB14F073FF04AF04F639450DF1400C19
:105000003E460FCE28606960AA60EB6037461035D7
:105010006645F5D1444BC4F86C3C6EE04349034609
:1050200001F1400551F8042F100C83F8390C100AD7
:1050300083F83A0C83F83B2C0333A942F2D13C4B62
:10504000C4F86C3C59E03B49034601F1400551F876
:10505000042F100C83F8390C100A83F83A0C83F8EB
:105060003B2C0333A942F2D1334BC4F86C3C44E0EF
:1050700000228DF84C208DF84D208DF84E208DF8B3
:1050800048208DF84920FF238DF84A308DF84420C0
:105090008DF845308DF846308DF840308DF8413030
:1050A0008DF8423011AB009310AB019314A810217E
:1050B00013AA12AB14F030FF14AF04F639450DF10A
:1050C000800C3E460FCE28606960AA60EB603746D0
:1050D00010356645F5D1194BC4F86C3C0DE0002045
:1050E00009211BF08DFB01462046FFF7E7FE09234F
:1050F000C4F8043C124BC4F86C3C21B0F0BD00BFB6
:10510000E8E7020068A50200A8E7020070A5020017
:10511000A8E8020078A5020028E9020080A50200A4
:1051200068E8020088A5020090A50200E8E80200F5
:1051300098A5020028E80200A0A50200A8A5020088
:10514000ACA5020038B504460D4642F6A433C35858
:105150000B44262B04DD002242F6A433C25009E0A2
:10516000002B03DB42F6A432835003E0262242F6F2
:10517000A433C250174BD3F8043C092B03D1154874
:105180000921FFF79BFE42F6A833E05810B10368EF
:105190001B69984742F6A433E35803F6EA2304EB6D
:1051A0008303586842F6A833E05010B10368DB6807
:1051B0009847094B1B785BB904F1640342F6A832A7
:1051C000A2589A4204D123689B69204629469847F1
:1051D00038BD00BFD8A3FF1F8828002010B50446A3
:1051E000D0F8A8321944262903DD0023C0F8A832DC
:1051F00006E00029AEBFC0F8A8122623C0F8A832E6
:105200000A4BD3F8043C092B03D108480921FFF7C6
:1052100055FED4F8A832DA1C04F1100304EBC204E2
:1052200094E8030083E8030010BD00BFD8A3FF1F6C
:1052300010B50446D0F8A8321944262903DD00230E
:10524000C0F8A83206E00029AEBFC0F8A812262395
:10525000C0F8A8320A4BD3F8043C092B03D1084804
:105260000921FFF72BFED4F8A83203F12A0204F13A
:10527000100304EBC20494E8030083E8030010BDAC
:10528000D8A3FF1F70B504460E4642F6A433C35898
:105290000B44262B04DD002242F6A433C25009E061
:1052A000002B03DB42F6A432835003E0262242F6B1
:1052B000A433C250184BD3F8043C092B03D1164831
:1052C0000921FFF7FBFD42F6A433E55842F6A83367
:1052D000E05810B103681B69984742F6A433E550C3
:1052E00005F6123554F8250042F6A833E05010B107
:1052F0000368DB689847094B1B785BB904F16403CA
:1053000042F6A832A2589A4204D123685B6920462B
:105310003146984770BD00BFD8A3FF1F88280020E2
:1053200038B505460C46084631491BF06FFB20B1E5
:1053300028460021FFF7C2FD38BD20462D491BF04D
:1053400065FB20B128460121FFF7B8FD38BD204696
:1053500029491BF05BFB20B128460221FFF7AEFD77
:1053600038BD204625491BF051FB20B128460321BA
:10537000FFF7A4FD38BD204621491BF047FB20B1B3
:1053800028460421FFF79AFD38BD20461D491BF031
:105390003DFB20B128460521FFF790FD38BD204692
:1053A00019491BF033FB20B128460621FFF786FD83
:1053B00038BD204615491BF029FB20B1284607219E
:1053C000FFF77CFD38BD204611491BF01FFB20B1C3
:1053D00028460821FFF772FD38BD20460D491BF015
:1053E00015FB18B128460921FFF768FD38BD00BF3D
:1053F00068A5020070A5020078A5020080A5020041
:1054000088A50200B4A5020098A50200A0A502008C
:10541000A8A50200ACA502002DE9F043A9B04D4CAF
:1054200023685B6820464C490122984720461BF0C0
:1054300023F923685B68204648490B229847204699
:105440000A211BF065F923685B6820464449012264
:10545000984720461BF010F923685B6820464149B5
:105460000E22984720461BF007F968463E491BF07C
:105470001DFA04A83D491BF019FA08A83C491BF085
:1054800015FA0CA83B491BF011FA10A83A491BF079
:105490000DFA14A839491BF009FA18A838491BF06D
:1054A00005FA1CA837491BF001FA20A836491BF061
:1054B000FDF924A835491BF0F9F923685B682046FB
:1054C000334905229847204669461BF0AFF804ADE2
:1054D000E8460DF1A0092F4F2D4E1AE01D4C204635
:1054E0002D49FDF7C9FE23685B6820462B4903223E
:1054F000984720461BF0C0F823685B68204628497F
:105500000122984720461BF0B7F824ACA8F11008F8
:1055100016E023685B6820463946022298472046F9
:105520001BF0AAF823685B6820463146052298479D
:10553000204629461BF07AF810354D45E9D1CDE7D4
:1055400020461BF067F9103C4445F9D129B0BDE86D
:10555000F08300BFBC5F0020C0A50200C4A502000C
:10556000D0A50200D4A5020068A5020070A5020023
:1055700078A5020080A5020088A50200B4A502005B
:1055800098A50200A0A50200A8A50200ACA50200F3
:10559000E4A50200F4A50200E8A50200ECA50200C3
:1055A000F0A5020030B400230468E218E55C01FBBA
:1055B00005F52D12E554547804FB01F424125470BF
:1055C000947804FB01F4241294700333B3F5406F14
:1055D000EAD130BC704700BF2DE9F04F8BB003908B
:1055E000BC48F021FFF7DEFFBB4906914FF0000BEE
:1055F0008A46039A108A1FF059FB05460AEB0B09ED
:105600005BF80A101FF0A6FB1FF06AFD039B1C89C4
:10561000204484B22846D9F804101FF09BFB1FF0E9
:105620005FFD039A51890144204689B2928915F0A1
:105630001BFC064610F0400F00F0A281C043C0B230
:1056400000F03F0300F00F000130A44A1B115B0083
:10565000D118497800FB01F0D35C03EB2010C0B2F5
:1056600016F0800F18BF4042C0B280F080001FF0DB
:1056700019FB1EF0DBFE00224FF07E531EF02AFFC6
:105680000022974B1EF072FD1FF006FA8046069C22
:10569000A06006F14003DBB213F0400F00F075810B
:1056A000D843C0B200F03F0200F00F0001308B4938
:1056B000121152008D186D7800FB05F08A5C02EB28
:1056C0002010C0B213F0800F18BF4042C0B280F06B
:1056D00080001FF0E7FA1EF0A9FE00224FF07E5373
:1056E0001EF0F8FE00227E4B1EF040FD1FF0D4F9A4
:1056F000054600F10043E3600AEB0B0740463969B9
:105700001FF020FA8046B860786929461FF018FA21
:1057100005460AF108075F447860E469404641465F
:105720001FF018FB8046284629461FF013FB014650
:1057300040461FF007FA0546204621461FF00AFBA7
:10574000014628461FF0C2FC00286ED028461EF0F5
:105750006DFE1CF07FFD1FF09FF900211FF08EFCF5
:10576000002841D10AEB0B030793D3F80880DD68CA
:10577000404641461FF0EEFA0490404641461FF075
:10578000E9FA8046284629461FF0E4FA01464046D9
:105790001FF0D8F91EF04AFE1CF05CFD1FF07CF9EA
:1057A0001EF044FE02460B4600204D491EF0BCFF91
:1057B000CDE90401079988681EF038FE02460B46C1
:1057C000DDE904011EF086FE1FF066F9079A90607D
:1057D00078681EF02BFE02460B46DDE904011EF040
:1057E00079FE1FF059F9786020461EF01FFE04462E
:1057F0000D460AEB0B08D8F808001EF017FE02460B
:105800000B46204629461EF065FE1FF045F9C8F8F4
:10581000080078681EF00AFE02460B46204629461C
:105820001EF058FE1FF038F978600AEB0B045BF8A5
:105830000A00A1681FF086F907464BF80A00D9F85C
:105840000400E1681FF07EF90546C9F804002069EC
:105850001EF0ECFD002200231EF03CFE1FF01CF9A0
:1058600020610AF110045C4460681EF0DFFD002234
:1058700000231EF02FFE1FF00FF960601549039AF8
:10588000937CF21891F8083C009309A801F60941AD
:10589000D2B2FF2314F0AAFC9DF825209DF82630F3
:1058A0009DF824108DF820108DF821208DF82230DD
:1058B00038461FF015FC04B228461FF011FC02B256
:1058C0000848214608AB12F089FE5BF80A402046E2
:1058D000002109E0D8A3FF1F2C310020F4A302000F
:1058E0000000F03FD09FFF1F1FF0D2FB90B9204671
:1058F0004FF084411FF0E0FB60B9D9F80440204626
:1059000000211FF0C5FB28B920464FF084411FF04D
:10591000D3FB48B120201AF067FF1FF0C3F94AF803
:105920000B000023C9F804300BF1340B0699343115
:105930000691BBF5026F7FF45CAE1E4B1B6813F043
:10594000010F0CD11B4819F01FFC40B11A4B1A680B
:105950001A4B1A60C8225A60164819F01BFC164BE5
:105960001968164B1A688A1A5B689A4212D3124B4E
:105970001A68124B1A60039A937C0133937409E0FE
:1059800000F03F0300F00F005FE603F03F0203F07A
:105990000F008CE60399CB890A891A440A814A8947
:1059A0001A444A818A8913448B8132200BB0BDE8A6
:1059B000F08F00BFBC9FFF1FBC5E0020889FFF1FB1
:1059C0002DE9F04F93B00A909348AA21FFF7EAFD22
:1059D000DFF858A20027D14657F80920049209EBB6
:1059E000070302935A6806929D688C4B3B445C689F
:1059F00009EB07035E69D046DAF818300B93DAF842
:105A00001C200592DAF820300C93DAF824200D924D
:105A10009AF828300793DAF82C200E929AF8303052
:105A20000F93029A10690A9B99681FF08BF88346BE
:105A300030460A9AD1681FF085F8039028465946E7
:105A40001FF080F80546204603991FF07BF80446B6
:105A5000284629461FF07EF90646204621461FF0BB
:105A600079F9014630461FF06DF806460598014663
:105A70001FF070F9014630461FF028FB002851D076
:105A800030461EF0D3FCCDE908011CF0E3FB1FF00B
:105A900003F800211FF0F2FA38BBDDE908011CF021
:105AA000D9FB1EF0F9FF1EF0C1FC02460B46002098
:105AB0005B491EF039FECDE9080128461EF0B6FC10
:105AC00002460B46DDE908011EF004FD1EF0E4FF6E
:105AD000054620461EF0AAFC02460B46DDE90801F9
