:020000040000FA
:08000000F07F002061540000B4
:200400000000000000000000FFFFFFFFBE03FFFF064B0A0E5A700A0C9A700A0ADA7000224E
:20042000187019715A711846704700BFE882FF1F03688B4270B504460D461CD0038BDB072D
:200440000ED50E4E94F84830616956F823302268204698470130F5D0238B23F001032383BE
:2004600094F84820064B256053F82230626920462946984770BD002070BD00BF2C82FF1F91
:200480000C82FF1F10B500231A46C45CD101C9B204EB5202013351FA82F20B2BD2B2F4D146
:2004A000104610BD2DE9F04F874B542404FB0134ADF5057DA56894F82B30266A401BB0FB98
:2004C000F3F563681D44238B03F4C0438B4617463BB106EB15264FF6FF731F3DEDB20293D3
:2004E00007E06FF0704C06EBD516CDF808C005F07F05764B204653F82B30314604AA984747
:20050000824618B90390DFF8C89148E06FF0030AD4E004A951F82530DDF808C003EA0C0155
:20052000614549D061688B4246D9022FD4F820807CD0002A00F0A48015F0010F4FEA550578
:20054000EDB204A900F0948031F8250041F82500DDF80CC00CF1010CCDF80CC0002A00F049
:20056000938008EB1328DDB2B04518D04FF0000C94F82A30634500F28C8059F82B302046E5
:2005800004A9324698470130F7D0504B204653F82B30414604AA98470028B7D14646208BBD
:2005A00010F4C042B5D004A96B0851F82330E9074CBF1B0C9BB2AFE7022F7FD09AB115F01F
:2005C000010F4FEA5505EDB205D004A931F8253041F825300AE004AA52F825301B0C1B04CE
:2005E00042F8253002E004AB43F82520410707D5236B039F01333B4440F0020023632083F9
:200600000025334F284694F82A30AB420CD9E26957F82B3002FB0562204604A99847421C64
:20062000F5D00135EDB2EEE7824647E0CAB115F0010F4FEA5505EDB209D004A830F82520A8
:200640006FEA02426FEA124240F8252034E004A951F825206FEA12426FEA024241F82520BC
:200660002AE004AF6FF0704147F8251017460BE051F82500010C04A8090440F8251067E702
:2006800004A941F8252063E708EBD31803F07F056AE7E26959F82B30CDF804C002FB0C6254
:2006A000204604A998470130DDF804C0F1D00CF1010C5FFA8CFC5BE7002752E750460DF598
:2006C000057DBDE8F08F00BF3082FF1F0C82FF1F2C82FF1F37B5BDF818401D19B5F5007F15
:2006E0000568C4BFC3F50074A4B28D4207D1416910461944224602F08EFC002006E090F812
:2007000048500094024C54F82540A04703B030BD1882FF1F7FB54B6801334B600D4681686D
:2007200090F82B20591AB1FBF2F602FB16120446002A42D1018B01F4005292B242BB4E04CD
:2007400018D5C16802318B4231D036D32A68016AD3B2022601EB122100960DF10A025B00B5
:20076000FFF7B8FF10B16FF0030027E0BDF80A3003930DE02A68016A02F07F03042601EBA9
:20078000D211009603AA9B00FFF7A4FF0028EAD1039B626893420DD9626A93420AD82B60EB
:2007A00094F82B10E26803FB01236B6005E06FF0080003E06FF0060000E0002004B070BDC6
:2007C000314AF0B5314E324F324C4FF40035944615603760DCF800102B4B8903FAD52168DF
:2007E000C9B2FF29F4D14FF400321A602A49274A11601A689403FCD5264A2349234E13689B
:200800004FF4003500230F4614460D60C25C42F47C123260D7F800C01B4A1CF4003FF9D0A1
:200820000133B3F5007FD4F800C0EED14FF4003313601749154B196011460B68124A13F4C3
:20084000003FFAD0134B124819684FF4003111600E490860194610680B4B8003FBD50A68C0
:200860000B494FF400321A60084A11601A689703FCD5084B1B6803F01F03052B14BF6FF038
:2008800004000020F0BD00BF2CC0024034C00240FF003F0038C00240FE003F0010B50B0AD5
:2008A0008176C3760B0C090E044603754175C272002104221C3002F0A6FBEB224423002074
:2008C0006021A075E1752276A2746376E374A073E1732274637410BD2DE9F04F12F00C0F3B
:2008E000ADF2244D04460E469246076A90F8488007D1038B5E0703D5466B036B9E4200D936
:200900006668238B9D040FD4580406D5F3B2049307EB16274FF0FF0C06E006F07F0307EB9B
:20092000D61704934FF07F0CDDF81090059735464FF0000BB248059950F82830CDF808C0CE
:20094000204608AA9847DDF808C0002840F05181238B03F4005292B206926FF0404203F42E
:20096000804302FB059108A89BB200EB8101069A7AB963B14FEA690008AA19F0010F52F819
:20098000200014BF4FEA104B1FFA80FB01E051F825B0BBF1000F40F01D811AF0030F06D1C1
:2009A000208B00F400539BB2002B7AD15DE094F82B3006930698E36800FB053307939C462D
:2009C000069B07980344CCEB030313F0FF03E7D094F82B209A4239D11AF0010F36D00DF538
:2009E000087B00214FF400725846CDF808C002F00AFB20210B22584602F005FB2E238BF8AA
:200A000000305846314610220393FFF747FF20210B2290A802F0F7FA039B90A88BF820305B
:200A20008BF8213002211022FFF738FFDDF808C07449624651F82830CDF808C0204659462B
:200A400098470130DDF808C0F2D00BE06E4A614652F82830CDF808C0204698470130DDF863
:200A600008C0F3D00CF1010CAAE7410414D54FEA690208A919F0010F51F8221014BF6FEA0D
:200A8000014C6FEA114C08A914BF6FEA1C4C6FEA0C4C41F822C004E008A96FF0704241F863
:200AA00029201AF0040F1ED0DBB9420420D519F0010F049A09D0511008A850F82120120CCB
:200AC00012042A4340F8212016E0911E022291FBF2F208A830F8221041EA054140F82210FC
:200AE0000AE04FF0000A4FF0000BDFF818C119E008A9049A41F822509A46F4E7E269DDF8FB
:200B000014E05CF82830CDF808C0204608A902FB0BE298470130DDF808C0EFD00BF1010B33
:200B20005FFA8BFB94F82A305B45E7D81AF0080F10D1238B58074BD5626B43F002032383B7
:200B4000236B954228BF6A1C03F1FF3328BF626323633DE02A4B204653F82830394608AA9F
:200B60009847002845D1238B03F4C043CBB1F6B219F0010F4FEA560608D008A850F82630B8
:200B80001B0C1B042B4340F8263006E008A931F8263043EA054341F826300026DFF8649008
:200BA00011E006F07F0608AA42F82650F5E7E26959F82830204608A902FB067298470130FB
:200BC000F5D00136F6B294F82A30B342EFD8B0E7284610E0E14505F1010502DA09F10109D8
:200BE000C5E6059B01330AF0FB0A05934FF00009A0E66FF003000DF2244DBDE8F08F00BF5C
:200C00000C82FF1F2C82FF1F8482FF1F7FB5038B0A6803F4C0430D460446016A9BB1D3B231
:200C2000022601EB122100960DF10A025B00FFF751FD10B16FF003002FE0BDF80A30039377
:200C40004FF6FF730DE002F07F03042601EBD211009603AA9B00FFF73DFD0028EAD16FF033
:200C60007043039A61688A4201D99A4205D3204629680E22FFF730FE03902A68636A9A42E8
:200C800009D8039BE2682B6094F82B1003FB01236B60002001E06FF0060004B070BDF0B560
:200CA0004E6801364E600D468168761A90F82B10B6FBF1F701FB176185B00446002958D12C
:200CC000018B8F0436D411F4804F2E68036A1AD003EB16268AB92B78022200922046314687
:200CE0000DF10A025B00FFF7F5FC00283BD1BDF80A3003934FF6FF731CE03146FFF798FB3C
:200D0000002830D1E7E703EBD61672B92B68042203F07F0300922046314603AA9B00FFF7FC
:200D2000D9FC00BB6FF0704304E03146FFF780FBC8B9EBE7039A61688A4201D99A4205D332
:200D4000204629680C22FFF7C7FD03902A68636A9A420BD8039BE2682B6094F82B1003FBCB
:200D600001236B6005E06FF0030003E06FF0060000E0002005B0F0BD2DE9F0411D4BC76AB3
:200D800090F84880ADF5007D53F8283039466A4604469847064610B16FF0030624E0256BE0
:200DA000636B8DF8E8512A0A8DF8E9212A0C8DF8EA212D0E1A0A8DF8EB518DF8EC318DF8D7
:200DC000ED210D4D1A0C1B0E8DF8EE218DF8EF3155F82830204669463A4698470130F7D012
:200DE000238B23F00203238330460DF5007DBDE8F08100BF0C82FF1F2C82FF1F0A7A01328E
:200E0000D2B20A7210B5048DB2EB541F05D300220A72BDE81040FFF77DBC002010BD0000E5
:200E200030B5436A90F8422085B001460BB3144B542404FB023401A820310C2202F0EBF8F3
:200E4000E525238B029943F0010323832046FFF7EFFA80B99DF80C3062695B01D15CD55496
:200E600021F04003012B04DD204601A9FFF7C6FFE7E7002001E06FF0030005B030BD00BFB4
:200E80003082FF1F2DE9F04F8FB002F4004390E8C0000992079391F83A20924B8B46542142
:200EA00001FB02310291044639460BA80C2202F0B2F896F900305C2B01D02F2B00D10136B1
:200EC0000023059304F11E0A2021E66250460B22CDF818A002F097F81823002184F82930BF
:200EE000B1468C460B4601254FF0050816F8012B50B20D2813D003DCB0B10A280FD016E0CB
:200F00002F2811D05C280FD02E2810D1002B00F08280082B66DC01210823B146E6E7002B31
:200F200000F081804E4682E0002BF6D0FAE7D0B2202804D8002BF0D0202AEED150E07E2888
:200F40003AD8DFF8A4A14AFA82F919F8219C19F0210F09D0BCF1000F02D019F0200F41D1EC
:200F600019F0400F3CD1D8E7BCF1000F3AD119F0040F0CD094F8290021B920F0080084F86B
:200F800029002FE020F0100084F8290041E019F0080F27D0A0F12002D2B294F8290029B94E
:200FA00040F0080084F8290003251BE040F0100084F8290003252CE000F17F095FFA89F9C4
:200FC000B9F11E0F03D92030C0B21C28A5D84BB950B21B301FD1012384F81E809C469CE7F7
:200FE0005F220425072B16DD09B10A2B13DD324612F9013B0D2B19D003DCBBB10A2B04D10E
:2010000014E02F2B03D05C2B01D01646EFE702250DE0072BE9DCDDF818A04FF0000C0AF840
:201020000320013379E74FF0FF3500E00425A561013500F051816663266396F900305C2BE7
:2010400001D02F2B00D101360023039302987968FFF7EEF98046002840F03781029B97F84A
:2010600008A0D3F81490039B4FEA4A1A09EB0A055BBB059BBBB904F13803184639460C22B6
:20108000089301F0C8FF079819F80A3010B9E52B2CD19EE153B32B7B43BBAB7E33BBEB7E94
:2010A00023BB012329E0059B013B059340F0C781236D002B40F0C18101202065294604F5FE
:2010C000B4700B2201F0A7FFB9E12846FFF7DAF994F87531834240F0AD810121A16103914A
:2010E00064E000BF3082FF1FBC6D0000EA7A02F03F030F2B40F0F6800023049319F80A3077
:2011000003F0400303F0FF0013B1636B012023630D2212F1FF3280F00881002800F04F812A
:201120000C2204F14400089901F075FF4FF0000284F877216B7B84F8753194F87731226B24
:20114000E16A013384F8773119F80A3003F03F03012B40F03A818A4240F04881626B049827
:20116000226330B119F80A30E52B14BF4FF0FF33012394F8762172B1501E0C2202FB004027
:2011800004F160016C30009301F045FF002184F87611009B6166991C00F09A80012B08BF5D
:2011A000039300F04C81033340F04981A26922F00202012A40F0438119F80A301BB1E52B45
:2011C00000F03D811CE0626912070BD5BBF83820ABF8363002F00102ABF83820DBF80020AA
:2011E00002B11370A369002B76D0A38B1E0704D538460BA90C2201F00EFF6FF0050842E123
:20120000039BEBB103922B7D6A7D1B0403EB0263EA7E03EB0223AA7E1344E360CBF80450AA
:20122000EA7AD50618D40298CBF82C3090F82B10C26801FB0323CBF830304FF0020822E14C
:20124000EB7A180700F1FB80284606990B2202F012F80028D7D0F2E0A2691AB1A28BD106ED
:2012600000F11181029A3B6092F82B10D26801FB03237B6002233B7296F90030A3B96369FF
:20128000022B2CD01A0740F1FE800BF1140421460BF108000C2201F0BEFE0BF12000214678
:2012A0000C2201F0B8FEEEE00BA839460C2201F0B2FE039B26600BB10423A36104F16C001E
:2012C0000021FC2201F09FFEFCE56FF00308DAE096F90030002B90D06FF00208D3E04FF097
:2012E0000308D0E019F80A1031B9082B14BF6FF001036FF0040301E06FF00203082A6DD09B
:20130000D4F850C0BCF1000F6BD101202065294604F5B4700B228DE8081001F07CFEDDF8CD
:2013200004C0009BCDF810C062E0531E0B2B1FD8DFE803F01C1A18161412100E0C0A080653
:20134000AB7F16E02B7F14E02B7E12E0AB7D10E02B7D0EE0AB7C0CE02B7C0AE0AB7B08E0D4
:201360006B7A06E0EB7904E06B7902E0EB7800E06B78591EC9B2FD293FF6CBAE216B01F12A
:20138000FF3CC4F830C011F8011C8B423FF4C1AEA3F1410C5FFA8CFCBCF1190F02D820330D
:2013A000DBB208E0A3F1610C5FFA8CFCBCF1190F1CD82031C9B28B423FF4ABAE16E094F866
:2013C00075116B7B99420FD1B7E68A420ED30023CFE607986FF00303049009E0002104918D
:2013E00006E00022049203E0134601E04FF0FF33626B049922630020A06439B95A1C05D170
:2014000019F80A2002F03F020592B2E6181D7FF4B0AE94F876312BB904F1600039460C2210
:2014200001F0F9FD94F87631142B06D8013384F8763104E0CDF80C80B8E6002305930298F6
:201440003946FFF7DBFC00283FF400AEA369002B3FF442AFA38B1B077FF5CFAE07307FF4F1
:20146000C7AEDDF824A01AF4806F3FF4C1AE7B680298013B7B603946FFF7C8FB002814BFF8
:2014800080466FF0050840460FB0BDE8F08F00BF2DE9F04F866893B096F8483007925FEA84
:2014A000D27980460C46089304D1D8F81830022B2DDD37E00846FFF7B3FC0028F5D029E208
:2014C00038462946FFF79AFCC31D06D16B68013B6B6038462946FFF799FB002840F01A8297
:2014E00038466968FEF7A4FF002840F00F822A7A7B69039903EB4213059A914280F014813E
:20150000049921B118460AA9202201F084FDD8F8045030466968FEF78BFF8246002800F0CD
:201520009381F3E1C246D8F808705AF81E3BD8F804500593184601F0B7FE059B8346034458
:2015400050460393FEF79EFF0BF1010B0990CDF808B04FF0010A029B0D2B07DD029B0AF114
:20156000010A0D3B5FFA8AFA0293F4E7B9F1000F08D10FFA8AF39A0008EB03139A1A0C212F
:2015800000232FE0636A002BF3D094F844305345EFD304F1200B284659460C2201F03BFD80
:2015A00094F84430534556D0CAEB030384F8443094F844303BB138462946FFF71FFC94F84C
:2015C0004430013BF2E784F844A0584629460C22009301F020FD009B3EE0013301FB03203A
:2015E000406E20B903EB0A0BBBF1140FF5DDB9F1000F02D1CDF810901DE038466968FEF78E
:2016000017FF002840F082812B7AD7F814C05B010CEB030120220AA88DE8081001F0FBFC51
:201620009DE80810E5220CF803203B8B43F001033B8301230493BBF1140F04DD284608F152
:2016400054010C2204E00C2202FB0B8128466C3101F0E1FC01E00023049338466968FEF7B4
:20166000E7FE002840F052812A7A7B694AF0400A4FF0FF0B03EB4213CDF818A04FF0FF32D5
:20168000DA4602990D2904D1039991F800A04FF0000B511C202900F2C8800FF2080E5EF818
:2016A00021F000BF29170000C114000053170000631700006B170000731700007B170000C3
:2016C000831700008B170000931700009B170000A31700002B1800002B1800002B180000EF
:2016E000AB170000B3170000BB170000C3170000CB170000D3170000DB170000E3170000FA
:20170000EB170000F3170000FB170000031800002B1800002B1800000B18000013180000BC
:201720001B18000023180000184600212022009301F069FC009B069A09991A7002F0BF0277
:20174000013AD2B206920F22DA72597318461F2297E780F801A03A8B42F001023A830022DA
:2017600064E080F802B001228BE780F803A002225CE080F804B0032283E780F805A00422ED
:2017800054E080F806B005227BE780F807A006224CE080F808B0072273E780F809A00822ED
:2017A00044E080F80AB009226BE780F80EA00A223CE080F80FB00E2263E780F810A00F22DE
:2017C00034E080F811B010225BE780F812A011222CE080F813B0122253E780F814A01322D5
:2017E00024E080F815B014224BE780F816A015221CE080F817B0162243E780F818A01722D5
:2018000014E080F819B018223BE780F81CA019220CE080F81DB01C2233E780F81EA01D22CA
:2018200004E080F81FB01E222BE7013A02990D2903D103990139039126E7DDF808E00EF118
:20184000010ECDF808E01CE773692F7A03EB4717384608F11E010B2201F0DDFB98F8293083
:201860003B73B9F1000F15D1304644B929680122FFF732F8804641463846102207E0494661
:201880004A46FFF729F88046414638462022FFF705F800E0D046214F08996A6857F8213028
:2018A0007169304698470130F6D0338B23F001033383B9F1000F21D10CB3216804F114007B
:2018C00020310C2201F0A7FBC4F82C8096F82B20F36802FB0833236304F1340004F12C0151
:2018E000082201F098FB079BC4F808906360089BC4F80C9084F84230022400E00024338BB0
:20190000990706D53046FFF737FA02E06FF0030000E0204613B0BDE8F08F00BF2C82FF1FB3
:201920000B4A012310B513600A4A044613604D200821022202F01CFE074B1CB14FF400724B
:201940001A8310BD4FF480721A83044B1C6010BD84F00F408C82FF1F3082FF1F9482FF1FC0
:20196000044B1A8B42F008021A83034B32221A60704700BF3082FF1F8C82FF1F10B50C4CEF
:201980000C4B94F84820216853F8223062692046984758B9636993F8FE21552A02D06FF08F
:2019A000020010BD93F8FF31AA2BF8D110BD00BF3082FF1F0C82FF1F2DE9F74F5A4D019162
:2019C0002B685A4C174644F620629342064600F38E80226812B1062A3ED08BE0544ADFF828
:2019E0005491DFF854A1DFF854C115214FF400389346013900F08C80C2F80080C9F800A0EF
:201A0000DBF800008003FBD5DCF80000C0B2FF28EFD147492268DFF81CC1DFF820914FF4DA
:201A200000308846052A0FDC086016F802A04AF47C1ACCF800A0D8F800A01AF4003FFAD0B7
:201A4000D9F800A00132EDE722602BB14D20002102F05CFD00232B6023683549DFF8D490E5
:201A6000DFF8D4A0DFF8D4C001334FF400388B465A1E1A2A009305DD2B6801332B60062384
:201A8000236047E0C1F80080C9F800A0DBF800209003FBD5DCF8002001980270120603F1A1
:201AA0000103E5D4009B236027B33178204A214EDFF884C0DFF884900023492914BF04215C
:201AC000122123604FF4003090468B420DDA1060C6F800C0D8F800A01AF4003FFAD0D9F80D
:201AE00000A007F803A00133EFE7236002E06FF0010600E000262B6833B14D20002102F0D2
:201B000005FD094B00221A6000232360304607E001332B604D20012102F0F8FC4FF0FF302E
:201B200003B0BDE8F08F00BFE082FF1F8882FF1F2CC0024034C00240FF003F0038C002408B
:201B400037B51C4C23680D4613F0040101D069B92CE0018B4906184943F004034FF0010096
:201B600008602360154B58BF52021A60134B58201968FEF74DFC0DF107010022FFF71CFF67
:201B80000F4B186098B99DF807303BB10D4B01221A60236823F00403236007E02846FEF703
:201BA0000FFE0028F2D06FF0040000E0002003B030BD00BF9482FF1F88F00F401082FF1FC1
:201BC000DC82FF1F84F00F402DE9F347424C434D2368164613F0020201D06AB978E0028B91
:201BE00050063F4A43F002034FF00100106023603C4B58BF490219603A4F39685120FEF7A9
:201C000007FC00220DF10701FFF7D6FE421C2860F3D0002807DA344B01221A60236823F063
:201C20000203236055E09DF80730002B49D12F4A2F4FDFF8C4C02F494FF400309046106053
:201C4000C7F800C0D8F800309B03FBD50B68DBB2FF2BF4D0FE2B31D12448DFF89480DFF850
:201C60009890244F00234FF4003C8246C0F800C0C8F80090DAF800201C499203FAD53A683A
:201C8000F2540133B3F5007FF0D14FF400330B60194A174B1A600B6813F4003F134BFAD0E1
:201CA000144A154811684FF4003119601049086019688803FCD51368002301E06FF0030381
:201CC0002B60094B01221A60236823F002032360286802B0BDE8F0879482FF1F2882FF1F08
:201CE00088F00F40D882FF1F84F00F402CC0024034C0024038C00240FF003F002DE9F743B6
:201D0000594C25681F4615F00203164601D06BB9A6E0038B5806554B4FF001021A60544B64
:201D200058BF490245F0020525601960DFF84081504DD8F800105120FEF76AFB0DF1070121
:201D40000022FFF739FE411C2860F2D0002807DA494B01221A60236823F00203236080E0CD
:201D60009DF80730002B74D14449454DDFF818C1444B4FF4003088460860C5F800C0D8F8D3
:201D800000209203FBD51A68D2B2FF2AF4D0FE2A5FD13A4A3A4D3C4BDFF8E88000214FF43E
:201DA00000309446B9420BD00131106089B22B60DCF8009019F4003FFAD0D8F80090F1E729
:201DC0000B46BDF828102D4A2D4D2F4FDFF8B480194489B24FF4003094468B420DD2013386
:201DE00010609BB22F60DCF8009019F4003FFAD0D8F8009006F8019BEFE72049204E224F05
:201E0000DFF880C040F2FF104FF4003583421B4A09D801330D609BB237600A689203FCD58A
:201E2000DCF80020F2E74FF4003313601649144B19601168114B8E03FBD5124A1248116850
:201E40004FF4003119600E49086019688D03FCD51368094B01221A60236823F00203236062
:201E6000002003B0BDE8F0839482FF1F88F00F409082FF1F1482FF1F84F00F402CC00240A7
:201E800034C0024038C00240FF003F0000B5154BADF5037D19685820FEF7BAFA0DF10701B5
:201EA0000022FFF789FD104B1860B8B99DF8071059B902A84FF4007201F0A5F802A8FEF7F6
:201EC0007FFC10B16FF0040008E0084B01221A60074B1A6822F004021A6000200DF5037D83
:201EE0005DF804FB1C82FF1FE482FF1F84F00F409482FF1F0D4A136810B513F0040401D0E4
:201F00006CB910E0008B4406094843F004034FF0010404601360074B58BF49021960BDE85F
:201F20001040FFF7B3BF002010BD00BF9482FF1F88F00F401C82FF1FF8B505460C461646E0
:201F400022B92846FEF76CFF98B1F8BD03685B686022DA75EB2200211A769A74022E4FF0A0
:201F60004402197759779977D97799755A76DA74E7D1134F95F84230616957F82330226820
:201F8000204698470130F5D0238B286B23F001032383A368984205D2208B00F0020080B27D
:201FA00040B9F8BD94F848103246FEF77BFA0028F2DAF8BD2046BDE8F840FEF7DDBE00BF72
:201FC0002C82FF1F2DE9F04FA24F06463868ADF5057D002110F002008DF8071007D09E4863
:201FE0009E4B42691B689847441C00F08E833A68D10700F1D7829A4D2B68122B00F2278373
:20200000DFE813F01D001D00130082009700AF00BD00CC0025032503E100250325032503AF
:2020200025031801220190014F028E4A8E488F4CDFF898E20B234FF4003117465AE08C4A71
:202040008C4B1A608C4A854B1A608C4A8C4B1A608C4A8D4B1A608D4B1A6842F480521A60E4
:2020600053F8042C42F4006243F8042C884A4FF40071116053F8042C42F4006243F8042C6D
:20208000844A4FF41071116053F8042C42F4006243F8042C804A40F20321116053F8042CB3
:2020A00042F4006243F8042C022001214FF4A07203F076F9794B1A6842F001021A605A696A
:2020C00042F001025A61764B764A1A60764A43F80C2C764B012119604D2002230A462B6019
:2020E00002F046FAB3E2D7F800C01CF4003FFAD0DEF800C0013B02D011600460F3E76C4B67
:2021000001221A6003232B606A480DF107010022FFF752FC28B1013000F0F78200238DF838
:2021200007309DF80730012B01D0002016E004232B6061480DF1070104AAFFF73DFC002823
:2021400049D19DF80730012B07D19DF81330AA2BEBD19DF81230012B1BD00120FFF7E0FB4C
:2021600075E256480DF107010022FFF725FC90BB9DF80730012B00F2568206232B605048D2
:202180000DF107010022FFF717FC20BB9DF8073013B105232B6046E207232B6049480DF184
:2021A000070104AAFFF708FCA8B99DF810202A4B02F0400202F0FF0112B140221A8300E00C
:2021C00019830A232B6004AC3F480DF107012246FFF7F2FB10B10130A7D196E22278FE2A7F
:2021E00014BF02220122034604EB020E1EF8037008214000C0B287EA000C1CF0800F18BF2A
:2022000080F009007F000139FFB2F2D101330F2BECD10F3200F07F00A35CB0EB530F40F011
:202220001E82102A40F020820DF11200611C00F0DDFE19E2084B00221A60FFF79FFB421CC2
:2022400000F0638210232B60C31C41D1FFF788FBFDE100BF9482FF1F3082FF1F0C82FF1F34
:202260008C82FF1F2CC0024034C00240FF003F00FD1C00001882FF1FC91B0000411B00007F
:202280002C82FF1FF51E00008482FF1F3C80044014B0044018B004401CB0044080F00F4058
:2022A0000CC002400706003E003C3F8084F00F4088F00F40206E0000A66D00001A6E000017
:2022C000B66D0000A06D0000B06D000038C0024011232B6000287FF428AFAD4A536993F808
:2022E000C2011146D8B193F95200462817D093F93600462813D093F8C80193F8C911000438
:2023000000EB016093F8C71100EB012093F8C61143181360FFF732FB451C03D1F5E1002381
:202320000B6001E0033091D099494B69DC7D9A7D93F80CC012EB04244FEA0C2C10D193F85E
:20234000264093F82720240404EB026493F8252004EB022493F824204FF0010A144401E091
:202360004FF0000A93F814E0DA7C12EB0E2E0ED193F822E093F8232093F821504FEA0E4E3B
:202380000EEB026E93F820200EEB052E9644CC6193F810B0D1F8009081F82AB05A7B7C4846
:2023A00081F82B2093F80F809D7B05EB0825ADB205EB0908BCF5007FC1F82080FFF446AF39
:2023C000002A3FF443AF0CFB02F1B1F5004F3FF73DAF0BFB04F4B0F818B0A0F828C02BF094
:2023E000080B1FFA8BFB05EB040C4BF02001CCEB0E0C0183BCFBF2FC4FF6F4718C4512D870
:20240000BAF1000F0FD10121416003F1240193F93A30322B3FF41AAF4BF4804B4BF0200B87
:20242000A0F818B01DE093F82EC093F82FA093F8301093F831004FEA0C4C0CEB0A6C93F85C
:202440002DA00CEB0A2C93F82CA001EB0020504919FA80F0D444C1F804C0C862086003F1E8
:2024600040014B4BC5EB0E0558682D1B4444B5FBF2F500FB1242188B5D6200F4C0409C60FA
:20248000DA6008B11F32DA6007310B22414800F0C2FD414B12221A60FFF770FA441C00F037
:2024A00034813B4A00284BD1118B480448D4536993F8FF01AA2843D193F8FE0155283FD156
:2024C000D87841283CD19878612839D15878522836D11878522833D193F8E70161282FD138
:2024E00093F8E60141282BD193F8E501722827D193F8E401722823D193F8EA0193F8EB41D7
:2025000093F8EE51000400EB046093F8E94100EB042093F8E841204493F8EF4110632D0463
:2025200005EB046593F8ED4105EB042593F8EC4102382B198342536302D841F0040111831B
:20254000138B164C43F080031383238FDB0716D594F83A80B8F1000F11D125682046414656
:202560003C2200F050FD0123238784F83A8035B1256028460A4900F08DFE0323E3863B68E3
:2025800043F001033B60044B13221A605FE000BF3082FF1F7982FF1F8C82FF1F9C82FF1F1C
:2025A000AC6D0000D50652D55A4B5B48DD691C6A01682544A94280463AD26D1ADFF87491FA
:2025C000564C0A2D28BF0A259A4665B3D8F8001050484B1C04AFC8F800303A46D9F8003011
:2025E0009847F0B9BAF81810236801F4804189B289B13A580AB9023304E091B209B1120C3A
:2026000000D101330430B0F5007FF2D108E00431B1F5007F04D07A58002AF8D10133F6E7AE
:202620002360013DD1E74D20042101F06FFF0EE03B493C4C22F010020A60384A94F9000099
:202640001268BF211A6300F001FE00232370B07B02A9052200F0F8FB0028F8D155E04D208B
:20266000042101F053FF50E02A4F0DF11201102207F1380000F0CFFCA378A27AE17A13F086
:20268000400F637A07D0120202EB0343194401318902396118E0207A9B0000F0030003EB2E
:2026A0008023207B03EB921201F00301C009E37900EB41010132023103F00F038A400A2B99
:2026C0003A6104BF52003A617B692BB94FF4007001F0D0FD0F4B58610F2304214D202B6014
:2026E00001F014FF002387F848300F4B01221A600E4B1A6842F001021A600D4A4FF03E4126
:2027000011601A6822F001023FE70DF5057DBDE8F08F00BF3082FF1F2482FF1F2082FF1FD0
:202720009482FF1F9882FF1F84F00F4000C002400CC002400C82FF1F38B50A4C238F0D4666
:2027400073B90123238784F83A0029B1C81880B201F090FD206000E02160A586014838BD15
:20276000002038BD9C82FF1F30B5DFB005460C464FF4BC720021684600F045FC6846294669
:20278000224600F009F8049B23B1684621460022FEF778FB5FB030BD2DE9F843144692F89D
:2027A0003A308E4A0E46542101FB03230546188B020640F1078100226A61002E7BD0E78E62
:2027C00096F900102E2922D196F901102E291ED1216829B9268F46F0400626870E4616E097
:2027E000032F40F2F3800AB1013FBFB211F907C0BCF15C0F05D196F90210013229B90236E9
:2028000007E0BCF12F0FEFD1F5E70336D8E7002A51D0228F032F42F040012187A9833BD9C9
:202820002368002213F80790DA55238F206823F01003238703302146FFF796FF804618B15C
:20284000236803F80790C1E096F90030BBB1AB8B23F0C00343F08003238730462146FFF750
:2028600083FF18B1A5F81C80804608E0AB8BDB0505D52068711E384400F00CFD03E0AB8B91
:20288000D80503D5E7860520BDE8F883236803F807904046BDE8F883D1050CD523680022AA
:2028A000DA700323E38604F1200004F108010C2200F0B1FBE7E7218F2E6021F4FC72A983A7
:2028C000228736B1327822B152B20A2A01D00D2A01D1012210E05C2A01D02F2A0DD141F007
:2028E0002001A983727822B152B25C2A01D02F2A01D1042200E002226A61AA8B12F0020F0B
:2029000004F120062DD15A68D968EA60012A626193F82B3006D810F4C04F03D01F390B4412
:20292000A36102E002FB0312A261002304F11407237739460C2204F1080000F06CFB304658
:2029400039460C2200F067FB072323876B69206843F008036B6120B1214900F09BFC032356
:20296000E386AB8B13F0E40F1DD05A0603D5304604F1080112E01F0613D46B6913F0060F3F
:20298000304609D004F108010C2200F044FB6869042806D1BDE8F88304F114010C2200F071
:2029A0003AFB6E6006E004F11401696030460C2200F031FB6B6913F005000BD101222A6135
:2029C000BDE8F8836FF00100BDE8F8836FF00200BDE8F8830020BDE8F88300BF3082FF1F07
:2029E000AC6D00002DE9F3470023838743680446884690F84210D80715464BD5A268E368F5
:202A0000D31A01D1002047E09D4288BF9DB2244BDFF89090542707FB013704F1340A002DC0
:202A2000F0D0E368C3F308039BB2C3F50076B6B2B54238BF2E4613B9B6F5007F1AD000960F
:202A40003846A16B4246FDF745FE80B9A28FE3683244A2873A8D3344B3FBF2F1AD1BE360FF
:202A600002FB1133ADB2B044002BD8D10BE06FF0030011E094F84230A16B59F82330384684
:202A800042469847E1E738465146FDF743FE0028C5D001E06FF0080002B0BDE8F08700BF2B
:202AA0003082FF1F0C82FF1F2DE9F047264B0C4690F842105427012A07FB01370546C3685A
:202AC00005D0022A10D0002A18BF002412E0002C03DA62429A420CD804E08268D21A944201
:202AE00028BF14461C4405E08268944201D2141B00E000249C4223D005F1340808D2404627
:202B000005F12C01082200F086FA0023EB6003E0AB689C4228BF1C46B7F82890EE68C9F1F6
:202B200000031E4004EA030A564508D23846414601224E44FEF7B3F80028F5D001E0EC6050
:202B40000020BDE8F08700BF3082FF1FF0B50C46DFB00646154600214FF4BC72684600F04D
:202B600052FA23681A8F15F0200F14BF42F01C0242F00C021A87684631462268FFF70CFEEE
:202B8000049B002B00F09D80684621682A46FEF779F9022806465ED12746264657F82C1B3C
:202BA0000C22203104F1140000F035FA56F8341B08222C31384600F02EFA216830462C3158
:202BC000082200F028FA22685368D97ACE0748BF25F006056560987FD97F000400EB0160A1
:202BE000597F00EB0120197F00264318A360E66092F83A3084F842305368597C1A7C42EA5B
:202C00000122E287DA7B9B7B43EA0223A4F8403011A904F120000C2200F0FDF99DF877313F
:202C200015F4007184F844300BD094F84220264B542101FB023120460222FFF77DF9A66050
:202C40003CE02D053AD520460222FFF72DFF002808BF022035E0680515D5B11D30D1216896
:202C6000194A91F83A30542000FB0323203168440C22029300F0CFF96846214625F0004285
:202C8000FEF706FC1DE0DEB921680C22203104F1140000F0C0F945F080052368656093F85A
:202CA0003A3004F1200084F8423011A90C2200F0B2F99DF8773184F8443001E0022000E014
:202CC00030465FB0F0BD00BF3082FF1F30B50A6082B192F83A200A4C542505FB0242128B1D
:202CE000D20602D513F0260F07D11A46BDE83040FFF72CBF6FF00B0030BD6FF0120030BD0A
:202D00003082FF1F2DE9F0412C4B91F83A20542692B006FB02360B8F12AC43F020030D464C
:202D200044F8481D0B87042269468046FFF70EFF48BB04F1140704F12C003946082200F0F5
:202D40006AF930460699FDF773FB58BB9DF81C20736952019B5C43B1E52B26D1394630469F
:202D6000FEF74CF8C11DECD124E02B8F43F0300304222B8740466946FFF7E8FE0246C8B9A9
:202D8000009B5B6807E0022814D1009B5B68DA7A12F001020CD1E521197068463146FFF7A1
:202DA000CBF807E06FF0030004E04FF0FF3001E06FF0090012B0BDE8F08100BF3082FF1F05
:202DC000024B542202FB0030704700BF3082FF1F13B50138C4B223B2180100EB830305489A
:202DE00000680344187C00945C680323A04702B010BD00BFF082FF1F08B5044B1870142392
:202E0000584301F037FA024B186008BDEE82FF1FF082FF1FFF2837B50D4610D00138C4B258
:202E200023B2190101EB8303064909680B441146187C00945C682A460223A04700E0002063
:202E400003B030BDF082FF1F13B50138C4B223B2180100EB8303054800680344187C009448
:202E60005C680423A04702B010BD00BFF082FF1F13B50138C2B213B2190101EB830306499D
:202E800009680B440021187C00925C680A460523A04702B010BD00BFF082FF1F13B5013839
:202EA000C4B223B20A46190101EB8303054909680B440021187C00945C680623A04702B00E
:202EC00010BD00BFF082FF1F30B50C4B1D780C4B1B6800221433AA420ED053F8104C84428B
:202EE00002F1010205D113F8044C8C4201D1D0B230BDD2B21433EEE7002030BDEE82FF1F61
:202F0000F082FF1F2DE9F74F82461046894690469B46FFF7D9FF014608B100203FE0FFF71E
:202F2000D3FF07460028F8D06FF01303142616FB00361C4B1B681E44BAF80030A3B158466C
:202F400001F098F90446B06070B1BAF800301846019301F08FF9019B0028DED0C518206058
:202F60006060A060E560E382BAF8023093B1584601F080F90446F06060B1BAF8025028469A
:202F800001F078F90028C8D0431920606060A060E360E582C6F8048086F81090384603B038
:202FA000BDE8F08FF082FF1F032807B506D0052812D0A8B9104600F09DFA12E01389ADF820
:202FC00004300023ADF806301368074A197801A81823FFF797FF04E0104600F095FD00E056
:202FE000002003B05DF804FB99300000534210B5114484181944234412F1FF3202D38C5CE1
:203000009C54F9E710BD02440346934202D003F8011BFAE7704710B50023934203D0CC5C76
:20302000C4540133F9E710BD2DE9F843058A4768AA4238BF154604460E463DB3C3687A197E
:203040009A42426015D3C7EB03081FFA88F80368C8EB05094B44436001F07AFB8EB1394632
:2030600042463046FFF7D7FF06EB080021684A4605E001F06DFB26B1304639462A46FFF704
:20308000CAFF01F05DFB238A5B1B238201F060FB2846BDE8F88300002DE9F8431D469DF833
:2030A0002030DFF864801F0107EB8307D8F800303B44894616469C6801F042FB052D0AD081
:2030C000062D0AD0042D16D1204649463246BDE8F843FFF7A9BF258A10E0012E03D1D8F8AE
:2030E00000301F44FC6844B12368258AA36063600023238202E0002500E0254601F028FBB6
:203100002846BDE8F88300BFF082FF1F2DE9F041044615460F4601F013FB218A628AE38A8E
:2031200088182844984202DD5D1AAD1AADB22A44D4F808806282E26808EB05069642A66061
:2031400006D3F31A2668A3609E1BAE1BB6B200E02E4601F0FDFA404639463246FFF75BFF05
:20316000B54204D02068B919AA1BFFF754FF01F0E7FA638AA28AAB4206D1238A2B441A44F3
:2031800000232282A38202E02A44A2825B1B638201F0DEFA2846BDE8F081000070B5027888
:2031A00043789A4204460E4621D1857811482946FFF78AFEE0B16FF01303142212FB00302C
:2031C0000D4B1B681844E3788068032B04D1C28A038AD01A80B270BD21463246FFF796FFE6
:2031E0000421044668B201F091F9204670BD002070BD00BF99300000F082FF1F30B528B90D
:203200000846BDE830401146FFF7C8BFFF2803D0BDE83040FFF7DCBD002030BD10B50346BE
:203220000446E21A14F8010B92B20028F9D12AB10846BDE810401946FFF7E0BF104610BDC5
:20324000014B1978FFF7EABFF081FF1F07B5002370B18DF800308DF801308DF8020001234D
:203260008DF80410684605218DF80330FFF796FF03B05DF804FB30B50023934208D0C45CC2
:203280000133CD1815F8015CA542F6D0012030BD002030BD0A78034603F8012B11F9012BBB
:2032A0000AB11846F6E770470023C2560AB10133FBE71846704738B50546202000F0DAFFFF
:2032C000044608B9002038BD284600F0D3FF20600028F7D04319A0606060E360E582204603
:2032E00038BD10B50B7F9A070C460ED0D9074CBF1121132101F0D0FEC0B230BB237F23F097
:20330000030343F04003237710BD9A0619D40A8A1AB923F040030B7713E04B68197801F0D6
:20332000BBFE237FE26843F040032377636801339342636024BF23686360238A013B238282
:2033400010BDBDE8104001F0B9BE10BD2DE9F843984605460E4614469DF8207001F0F0F94F
:20336000A8F10203042B00F2BA80DFE803F00341642D90005E4B3FB23A011B6802EB870762
:203380001F4416F4805F14BFFF68BF68D4B1E00703D5284601F0ECFE04E0A10702D5284622
:2033A00001F02CFF620703D5284601F091FE04E0230702D5284601F0D1FE600644BF06F050
:2033C0007F067E777C8B8DE03FB23B0103EB8707474B1B681F44BA68538B23F4FE4323F073
:2033E0007F031B041B0C0BB1148B7BE0148A79E03FB23B0103EB87073D4B1B681F44FF68DA
:2034000036B9F88A3B8AC01AA0426ADB84B269E001F09EF9224631463846FFF777FE04465C
:2034200001F08EF93B7F13F0600F5BD128463946FFF757FF56E0DFF8B8903FB24FEA0718E5
:20344000D9F8003008EB8708434422469F6831463846FFF7E9FD7B8B13F0600F044643D04D
:203460003A7FD10640D5398A13293DD822F010029E063A7738D5D9F8007047442846F96872
:203480000B7F43F001030B77FFF72BFF2CE03FB23B01174E03EB87071CB133681F44FB6881
:2034A00016E032683A449368197FCC0610D521F010011977D1684B8B980606D50B7F43F0BD
:2034C00001030B772846FFF70CFF33681F44BB681A6800249A605A601C821C8302E0002439
:2034E00000E0344601F034F92046BDE8F88300BFF082FF1F2DE9F84304460F462748A17906
:20350000FFF7E2FC0146054610B17E0705D43FE0FFF7DAFC054600283CD06FF0130314260D
:2035200016FB05361E4BDFF880801B681E441B4B17F0020F736007D0A08894F80690FFF7B2
:20354000BAFE48F82900F06017F0010F154F06D06088FFF7B0FEA379B06047F82300A37973
:2035600058F823300BB122885A83A37957F823303BB1227A5A77A2790A4B53F82230228897
:203580005A83A3793374A079214601F041FE01E0BDE8F8832846BDE8F88300BF4D3300000D
:2035A000F082FF1FF482FF1F0083FF1F2B4A38B552F821402A4A0346084652F82110628BC6
:2035C000950612D5132B04D10B7F43F020030B7738BD112B09D10B7F9C063ED523F0200374
:2035E0000B77BDE83840FFF77CBE228AE58A95420BD901322282A2681370A368E268013339
:203600009342A36024BF2368A360638B13F0600F13D0227FD20610D4E58A228A133D95427F
:203620000BDC9B0605D50B7F43F002030B77FFF758FE237F43F010032377638B23F4FE43D0
:2036400023F07F031B041B0C3BB9607F28B140B20421BDE8384000F059BF38BDF482FF1F1E
:203660000083FF1F024B53F82010FFF73ABE00BF0083FF1F40B1836993F82420501C83F800
:20368000240003EB42039983704711F0010F30B500F1020408D00578134623F8025B407835
:2036A00045EA002515801A4611F0020F04F1020008D02578134623F8025B647845EA04253E
:2036C00015801A464B0705D503781380417843EA0123138030BD00002DE9F8439946374B7F
:2036E000089E1B68282404FB09340746E38A002B61D1A58AF36822838A4234BF9046884670
:20370000A84538BF4546A4F8168065821860B1682B484A6873684FEA054E42F080020EEA58
:203720000000104318604B68E06883F040034B608B6883F040038B602946FFF79BFF676008
:20374000E28A638A9A4206D0E3683BB19B6993F82430012B02D9E08ABDE8F88348463146AE
:2037600001F0DAFA0028F6D1F36815482F44C5EB0808A58A1F60B16873684A681FFA88F8BD
:20378000A84538BF45464FEA054E42F080020EEA0000104318604B68E06883F040034B605B
:2037A0008B6883F040038B602946FFF763FF638A2B446382C4E70020BDE8F8831083FF1FD1
:2037C0000000FF032DE9F04188B01D4680460E4617469DF8384000F0B3FFAB1E042B00F2F5
:2037E000AE80DFE803F00328781E9B00584B24B21B68220102EB84041C4416F4805F14BFD5
:20380000E368A3687C0608D59A6992F82110C80744BF06F07F0682F820609B6993F82140FE
:2038200090E024B2230103EB8404494B1B681C44A3681C8A86E024B2230103EB8404444B1B
:203840001B681C44E5685DB903AC4046214601F063FA18B900943046394636E02C4671E005
:20386000AB6993F8214014F001046BD036B9EC8A2B8AE41ABC4264DBA4B263E000F068FFBF
:2038800031463A462846FFF741FC044600F058FFAB6993F82130590654D403AE40463146DA
:2038A00001F03AFA00284DD16B68EA68D21AAB6993F8211041F0400183F8211092B20096C4
:2038C000944228BF14466868A1B20A464346FFF703FF044636E024B2230103EB84041C4BA6
:2038E0001B681C443A46A56831462846FFF79CFBAB6993F821305A07044625D500F020FF42
:20390000AB6993F8212022F0040283F82120AB69987E01F0C5FA0028F9D013E00C4B24B208
:2039200022011B6802EB84041C440FB1E36800E0A3681A6800249A605A601C8202E0002418
:2039400000E0344600F004FF204608B0BDE8F081F082FF1F2DE9F04F87B007460DF1160069
:20396000884691461E4603F0A9F900244FF0010B0178BDF81620521A92B2ADF81620437890
:203980000192042B10D0052B20D0022B45D14379BB4205D0D7F1010438BF0024002C3CD074
:2039A00001244FF0000B38E0002C36D0B8F1FF0F02D08378434530D1B9F1FF0F02D0C3787C
:2039C0004B4529D1002E31D0022426E02CB326B3A51ED5F1000C5CEB050C35462B68B3B1EB
:2039E0009A7890F802A082EA0A0252060DD1BCF1000F12D193F805C01B7943EA0C23B5F851
:203A000004C09C4509D2AB8007E00835E6E7BCF1000F02D0286000E00324019B0844002BDA
:203A2000A6D1BBF1000F0CBF3046002007B0BDE8F08F37B5836993F820300546BBB1028A22
:203A40008A4214D800248DF8023001238DF803302046DD23694605228DF804308DF800403D
:203A60008DF80140FFF7CAFBAB6983F8204003B030BD0000F8B504468078E77866790B46B8
:203A800000F07F010AB2550105EBC2020A4D2D681544227920F07F00384342EA062201F0C1
:203AA00071F9E3780BB9112303E095F8223043F0010385F82130F8BD1083FF1F00F07F01AC
:203AC00038B5104A0BB25C0104EBC30314681C4400221346E568FF2001F054F9002384F830
:203AE0002130E38284F824301DB12B822B68AB606B60A36823B100221A821A689A605A6089
:203B000038BD00BF1083FF1F2DE9F04105462B4FA97B2B4A3C6804301C23FFF7F3F9AE7B79
:203B200080466EB136B2730103EBC6063444AB89A3826B89DE0614D5202384F8223010E0F7
:203B40006B7C28200133584300F094FB08238382AB7C3860044680F820302946304601F011
:203B6000DFF96FF01303142212FB0832154B1B681A44D368E36013B19C612B892382AB7B7C
:203B8000A376AB7B6BB1EB7B5BB119B24C0104EBC1013C680C44A376AB7B84F82330AB8959
:203BA000A3829368A3601BB19C61AB7C84F820302B6840462360BDE8F08100BF1083FF1F04
:203BC000C5370000F082FF1FF8B51546194A0E461168282250430C180F5817B9A06838B9F0
:203BE000F8BD304629461A46B847072820D1F5E794F8200018B140B2042100F087FC94F845
:203C00002120A36802F0040101F0FF0779B9D88A198A411AA94206DB184631462A46FFF7D1
:203C200075FA3846F8BD42F0040284F821200120F8BD00BF1083FF1FF0B5A1B00E468022BB
:203C4000002105466846FFF7DEF93046FF2100226B46FFF77FFE40B3154F00245DF80400CD
:203C600020B355B91EB98078FFF728FF1BE000AB23449988FFF7FEFE15E0837803F07F03F2
:203C80005A0102EBC3033A681344012D93F821200BBF22F0010222F0020242F0020242F0C6
:203CA000010283F821200834D8E7012021B0F0BD1083FF1F2DE9F0439446A5B00D461E46CB
:203CC00006282AD8DFE810F009016A0265020700720280028602A44B1B68282707FB0C3785
:203CE000FC8AFD681CBBC5B12C8AC4B16A68EB689A4202D3E98A521A6A606868191A89B2A4
:203D0000A14228BF214600960A466346FFF7E4FCAB692846198AFFF78CFE002463E2AB69EB
:203D200093F8212022F0400283F821205BE27B8AA342C0F09780002D75D02A8A002A72D027
:203D4000AB6993F82400998B012800F1FF30C8BFB3F81EE083F82400C1EB020189B2AA6967
:203D6000C8BFA3F81CE0298292F824306FF0010E581C02EB430800230EFB00F09E46023B45
:203D8000834207D008EB0309B9F81C90CE441FFA8EFEF4E7714530D10029B9D197F821304F
:203DA00013F0300F15D0BB8AB4FBF3F003FB10439BB273B9B3687068596841F0880101606C
:203DC000596881F040015960996881F04001996001216B681C44EB686C609C4202D3EB8A6F
:203DE000E41A6C600023FB82002991D192F8213023F0400382F821308AE76B681C44EB68DB
:203E00006C609C4202D3EA8AA41A6C6068681B1ACEEB010E99B28E454FF00003B8BF1FFA68
:203E20008EF1FB826FE7BB8AB4FBF3F203FB12439BB2A3B93B8BA34203D197F821309B065B
:203E40000DD5B36871685A6842F088020A605A6882F040025A609A6882F040029A600024A0
:203E6000FC82C0E1E41ABA8AA4B2944228BF1446A5B1AB6993F82420998B012AC8BFD88B02
:203E800002F1FF3283F82420C8BF98832B8A5B1A2B82AB692846198AFFF7CBFD798A7A68FE
:203EA000F3680A441A60B36871685A6842F080002E4A2604324002430A605A6882F040023E
:203EC0005A609A6882F040029A6021462846FFF7D1FB7B8A1C447C821FE70C78224B24F073
:203EE0008004D3F800800027012CA8F81670994600F08680022C00F0FA80002C40F04181EE
:203F00004B78092B73D8DFE803F06D727272723A0572693D8B78C878CF7943EA00208B793D
:203F200043EA072700F47F43B3F5007F09D0B3F5407F11D0B3F5807F1AD104A802F0B8FE42
:203F400002E004A802F0BAFEBDF8101000963A460023FFF7C1FB46E1C0B204A902F0B4FE7F
:203F60000028F1D13EE100BF1083FF1F0000FF03D8F80030002B00F03581481C3DE08B7871
:203F8000B37488E089789A4E00203170FFF754FE044610B10023337024E1D9F8003093F83E
:203FA0002060002E77D0A91C0DF116000122FFF732F875238DF8133002238DF8143020463C
:203FC000FE2304A907228DF810408DF811408DF812608DF81530FFF711F95CE000968448E0
:203FE000012102E08348009602210A46B0E7D8F80030002B00F0F6800846318A0022C6E0F0
:2040000091F80190B9F10A0F01F1020045D0B9F10B0F04D0B9F1000F40F0B38059E0744D0C
:204020002B78002B00F0DE80032103AAFFF72DFB9DF80E403946802204A8FEF7E4FF28784D
:204040002146FF2204ABFFF785FC083704AB3B4453F8084C1CB1A078FFF730FDF5E79DF82D
:204060000E709DF80C602146802204A8FEF7CBFF28783946324604ABFFF76CFC002800F091
:20408000B180083404AB234453F8080C18B10021FFF7F0FCF5E70324A5E0554D2B78002B7A
:2040A00000F0A080022104AAFFF7EFFA28789DF8101022463B46FFF74DFC002800F0928099
:2040C00021462246009603303B46FFF705FB3C4689E0474B1B78002B00F0848002210096E9
:2040E00045480A464B46FFF7F7FA4C467BE04F78012F3ED8881C04AA2146FFF7C6FA3C4B7B
:20410000BDF810001B780BB900286BD1282300F01F0203FB0282012F92F8213018D11F0727
:204120007FF5FBAD23F0080382F82130D8F80030002B3FF4F2AD24ACC0B204F8840D00F0BE
:20414000BDFDD9F8003020461B68002104221EE003F0080202F0FF03009622B1022127488A
:204160000A46002302E0022123480A46FFF7B4FAD3E5D8F80030002B34D0084603220821E5
:2041800005E0D8F800306BB3318A28463A4698470AE01A8A12B96046022303E0328A60462B
:2041A00029460123FFF710FD04461CE09B7C33B1134B1B68CC2193F92000FFF747F8002059
:2041C0000146FFF739FDA8E50D4B1B68CB2193F9200004E00A4B1B6893F92000CA21FFF723
:2041E00035F89AE50424204625B0BDE8F08300BF0E83FF1F0C83FF1F286E0000266E000053
:204200001083FF1F054B1B68282202FB003090F82130194380F82110704700BF1083FF1F9E
:20422000034B1B68282202FB003090F8230070471083FF1F00F024BD0A4B10B500221A807C
:20424000094B0A4A19600A4B147819601A460378A34202D023B10430F9E7438819441160D0
:2042600010BD00BF1883FF1F1483FF1FF181FF1F1C83FF1FF8B5104A104B11681C880C4428
:2042800014F0030F17460E4A1CBF24F00304043412681E4623189A4205460AD92A4620462C
:2042A0000021FEF7B0FE3B68E31A1D4435802046F8BD0020F8BD00BF1483FF1F1883FF1F67
:2042C0001C83FF1FF8B5104A104B05461C8810680444481E044217461E4602D04B421C40E8
:2042E0000C440B4A126863199A420AD92A4620460021FEF788FE3B68E31A1D4435802046D6
:20430000F8BD0020F8BD00BF1483FF1F1883FF1F1C83FF1F2DE9F047574F584E00233B60D2
:204320003360574B90461A7882460C78002C4DD064B2944241D10B4693F901405D1AEDB219
:2043400003F101090CB14B46F6E7142068430430FFF790FF03463060E8434844A14642786B
:204360004AB3514652B2D1F800E0BEF1000F20D09EF900C094451AD14A68C3F800E05A602C
:204380000A891A810AB10134E4B2B1F80AE08A89A3F80AE09A81897BD973BEF1000F00D144
:2043A0001AB109F101095FFA89F9143301E01031D9E70130D3E71A600AE04B1C19460133E1
:2043C00091F900000028F9D11946AEE7A14625463368002B48D0B9F1000F2FD00C2000FB5E
:2043E00009F0043080B2FFF745FF244B38601B684FF0000E4FF0010C4FF6FF7A1A68AAB166
:204400005A8932B1524508BFA3F80AE05A89426002E0998909B14160012142680AB180F810
:2044200009C009B140F80C3B1433E7E70FFA89F94FEA091300EB8900C01A386004EB0800A8
:20444000C0B2FEF7D9FC7CB13468FF2623685BB123893BB1032001212246FEF7A5FDA073AC
:2044600000B9A6731434F1E7064B00221A6000F0EDFB2846BDE8F0872883FF1F2083FF1F71
:20448000F181FF1F2483FF1F1F4B73B51C680025143454F8143CA4F114069BB314F8053C5E
:2044A00013F00D0F2CD000F04BF934F8083C1BB914F8053CDB071DD414F8043C9BB18DF82C
:2044C00000508DF8015054F8142C12788DF803508DF802200020694605228DF80430FEF77D
:2044E0008DFE04F8045C14F8053C13F00A0308BF04F8053C00F02CF954F8103C3046984772
:204500001434C6E702B070BD2083FF1F38B5154B1C68236823B393F9003083421ED1B1B9FA
:20452000114B1D689DB12B688BB19C420DD100F007F9A3891BB10D4A126813446B600023C3
:20454000E373BDE8384000F003B90C35EBE7480702D5E37B1A0703D4E17338BD1434D8E75D
:2045600038BD00BF2083FF1F2883FF1F2483FF1FF8B5184B1C680D4617464CB3164B1E680E
:2045800033682BB393F9003083421FD12368E3B19E4218D100F0D4F8F37B23F00203F373A1
:2045A00027721FB9B58125B9657208E0002D08BF01250A4B1B681D44012365606372BDE801
:2045C000F84000F0C5B80C34E0E7F8BD1436D7E7F8BD00BF2883FF1F2083FF1F2483FF1FAF
:2045E000154A164B11681B68013130B5104611600BB30C33042453F80C2CE2B113F8031CBC
:20460000B9B1056853F8081C8D4212D1D17B8D0705D40D0758BFD47313F8041C11749289AC
:204620002AB153F8081C0A4443F8082C01E003F8032C0C33DFE730BD2483FF1F2883FF1FE8
:204640007047000038B5104D104A2B781278DBB21A4091060CD50E4C0E4B20789B780221F2
:204660001840FEF7A3FF2B78DBB21A0748BF2278064A127822F03F02134204D00220BDE83C
:204680003840FEF7EFBF38BD04C0064003C0064007C006409C83FF1F38B5104D104A2B7866
:2046A0001278DBB21A4094060CD50E4C0E4B20785B7801211840FEF779FF2B78DBB21807BA
:2046C00048BF2278064A127822F03F02134204D00120BDE83840FEF7C5BF38BD04B006403D
:2046E00003B0064007B006409C83FF1F38B5104D104A2B781278DBB21A4092060CD50E4CFC
:204700000E4B20781B7800211840FEF74FFF2B78DBB21D0748BF2278064A127822F03F0237
:20472000134204D00020BDE83840FEF79BBF38BD04A0064003A0064007A006409C83FF1FD2
:2047400072B6024B1A6801321A6070478083FF1F034A1368013B136003B962B6704700BF1C
:204760008083FF1F08B5064B4FF000721A60FFF7E7FFFFF735FFBDE80840FFF7E9BF00BF8F
:2047800004ED00E0F8B51D4D2B6853B91C4F1D4C27F00107DE5B1E5302333C2BFAD11A4B29
:2047A0002B601A4E3478194B2706FBD51C7814F0300F1CBF30241C70154B0628187001D080
:2047C00009280FD1134B0C0C1C700C0A03F8014C03F8021C062803F1FF3303F1FF3304BF12
:2047E00012685A60094CFFF7ABFF20462B689847FFF7AEFF207800F03100F8BD3883FF1FCE
:20480000F281FF1F4083FF1F4183FF1F0000024007000240060002402DE9F84F06469046F2
:204820001D460F46FFF78CFF364B374C1A684FF00C0909FB06F94A44A260926812F0400F87
:204840009B4605D105F11003636005F1140304E005F11803636005F11C03DFF8ACA0E36095
:204860003846D8F8041032465346FFF723FA0328074606D004281BD001282CD1FFF768FFCA
:204880003CE0DAF80810DAF804204B6843F0800313604B6883F040034B608B6883F0400383
:2048A0008B60D8F8003043F08003C8F8003022E026B984232B61AB61304609E03046FFF77C
:2048C000AFFC124B1B6803EB401384221A619A610821FFF797FCDBF8002002EB0903996851
:2048E0000B4B0B4021680B4343F080012360C8F8001042F80930FFF72BFF00273846BDE85C
:20490000F88F00BF7C83FF1F8483FF1F2C83FF1F0800FF032DE9F047AA4E3746AA4DDFF8A8
:20492000CC822C7898F800301C4000F0488134F0080900F08780FFF703FFE2074AD5A34A97
:20494000A34833232B70137843F00203137098F8003023F0300388F800309E4B19688B6822
:2049600023F040038B6000230B601178137101F0FD011170984901220A70984A1370137184
:20498000137103700371037203730374037503760377137182F8303082F8343082F83830C1
:2049A0000B7803F0040303F0FF08002BF8D18C4B8C4A1B68DFF83CA29A6040321A6004209D
:2049C000424653464146FFF775F9834B8AF812800D221A70A30711D53378580703D5824BF1
:2049E0005A6801325A603B78990703D57E4B1A6801321A600623337002232B70E2060CD590
:204A000030232B70794B1A78002142F020021A7005200A460B46FFF74DF9A3060CD5302374
:204A20002B70724B1A78002122F020021A7006200A460B46FFF73EF95FFA89F9FFF788FE62
:204A400085F8009024077FF56AAF694A644B1578147818682D0929B214F0080F00EB41132B
:204A6000644C20D08A000901891A5A4A12681144A1608A68500604D403F1100262601433BC
:204A800003E003F1180262601C33E360FFF758FE2A46584B00210320FFF70CF9FFF758FEE7
:204AA000A27C554B7EE0127802F0040202F0FF0E22B103F108024FF0400E00E01A46C4F8FF
:204AC00000E0D2F800E0CEF3094CA4F810C00EF03C04042C02D0342C2BD065E0DFF8F4809F
:204AE00008018C00041BD8F8000000EB040E8900DEF808E01EF0080F1CBF005900F080091C
:204B00003548415C08BF4FF08009C90628464CBF01210221FFF780FED8F800301A59B9F1CE
:204B2000000F02D022F0800201E042F080021A5141E000241C619C612E4CDFF898E02468EC
:204B40004FEA810C4FEA011814F0400FDEF80040CCEB080C6444D4F808C0284C0CEA04045B
:204B600004D1046044F0C004846003E0846044F0C0040460880009010C1ADEF800102144FA
:204B80004820486028460021FFF746FE012805D0104B1B681A5942F080021A510B4B1A78E6
:204BA00002F0DF021A7006E084221A619A6128460821FFF727FB044B08221A70AEE6BDE8AB
:204BC000F08700BF882007408020074094200740D02007407C83FF1FC0200740C420074028
:204BE0002C83FF1F880008003083FF1F84200740902007408483FF1F982007400800FF0377
:204C0000104B1B684033090143F8202000F1604303F56443C9B2197020220B4B90FBF2F280
:204C20009200034002F16042002B02F5614203DA013B63F01F030133012101FA03F31360FD
:204C4000704700BF08ED00E01F000080074A084BDA63084A084B1A60084B1A6842F0706291
:204C60001A60A3F5516307221A607047654700000080FF1F7FEE360014E000E020ED00E066
:204C800008B50B4B1B88D9070AD5FFF759FD094B4AF202621A804BF280421A80FFF758FDE1
:204CA000054B4FF400521A6020221A6008BD00BF002005400C2005400CF00F40134B20F0C6
:204CC000800210B51C685101000604EB010313D50F48104900680C2404FB0200446824F0CD
:204CE0004004446000201861986111F8223023F0020301F8223010BD625822F0040262502B
:204D00009A6822F004029A6010BD00BF2C83FF1F7C83FF1FC020074038B5174B1D68174BAC
:204D200013F820305A070C4624D5154B1B680C2202FB00338B6005EB4015FFF701FDA368FC
:204D40009B685B0604D405F110036360143503E005F1180363601C356368E560186810F06A
:204D6000800403D0FFF7F4FC022038BDFFF7F0FC204638BD012038BD2C83FF1FC020074098
:204D80007C83FF1F2DE9F04F9C46404BDFF80C81D3F800900C468B002701FF1A3C4B164674
:204DA000D3F800A04A0118F8211009EB020521F00C010AEB070B08F82410FF284FF0000141
:204DC000A9612961A96085B049F80210CBF808109B464AF807102F4B06D11A7822F0300272
:204DE0001A7008F824104EE093F800A04AF0100A83F800A0DBF8003020F0800ABAF1010FD5
:204E00003B4402D15960242303E00821596005234821000631D4686880B9664538BF664688
:204E20003046039101920293FFF724FA68603046FFF720FA029B019A0399E860164836042A
:204E40003040014341F0800021F04001A86041F0800049F80200DBF80020174443F0080C0A
:204E6000B960BAF1000F01D1634603E003F0FB0343F0180308F8243005E0BAF1000FF9D006
:204E800043F01003F6E705B0BDE8F08F2C83FF1F7C83FF1F842007400000FF03C020074018
:204EA0001C4B2DE9F0411D6803B205EB43159A001C01194BA41A1A68125912F0400F0CBFE0
:204EC000083500262A6808BF402612F08007984619D16968C2F309420123FEF775FE0128D9
:204EE00014D0D8F800301A19384691680B4A0A4032431E5906F0800642F08001324329606C
:204F00001A51BDE8F0810120BDE8F0810220BDE8F08100BF2C83FF1F7C83FF1F0800FF03EE
:204F20002DE9F0414D4B4E7C1A6842F040021A6003F5203301361A6822F0804242F000420C
:204F40001A600B7C012B0C46F6B209D1444B1A6842F4A0221A605A6C42F005025A6408E028
:204F6000404B1A6842F400521A603F4B4FF4E0621A603E4B1A68102E28BF102642F480225B
:204F80000C201A607043FFF775F9394A394B1060197841F08001197017461A781506FCD437
:204FA000354D02232B704FF400717001FFF78AF9324B334A1860000A107059881175D9785D
:204FC0001176304900220A7028312A700A701D460B7803F0040303F0FF06002BF8D10820D4
:204FE000D5F80080FFF746F9C8F804000820D5F80080FFF73FF92B68234AC8F80C009A6002
:2050000040321A603B684FF008129A601F4B0D221A70ED2203F8B02CFF2203F8402CBF223C
:2050200003F8382C49201A4A0421FFF7E9FD194B8B2203F87C2C062203F8742C01221E701B
:2050400003F86C2C6389DC0705D50A4B40221A70102203F8042CBDE8F08100BF00F0014070
:20506000048004403880044068D00440348004407C83FF1F0C210740942007402C83FF1F9F
:205080009C2007409820074088000800C02007401549000000210740074B53F820301A7911
:2050A000120606D5DA78D97162F07F02DA70002070470120704700BFAC6E0000034B53F823
:2050C0002030DA7802F07F02DA707047AC6E00001A4B012810B553F820401CD00ED30228AB
:2050E00027D1174B1A6842F480521A60154B4FF440721A6031200621134A18E0104B1A68D9
:2051000042F480621A60114B4FF440721A602D2006210F4A0BE00A4B1A6842F400521A60A1
:205120000C4B4FF440721A600B4A2F200621FFF767FDE37843F00803E37010BDAC6E0000B1
:20514000388004400CC004404546000044A00440ED46000000D0044099460000034B53F8D1
:205160002030DA7802F03702DA707047AC6E00001A4B012810B553F820401CD00ED3022852
:2051800027D1174B1A6842F480521A60154B4FF440721A6031200621134A18E0104B1A6838
:2051A00042F480621A60114B4FF440721A602D2006210F4A0BE00A4B1A6842F400521A6001
:2051C0000C4B4FF440721A600B4A2F200621FFF717FDE37843F02403E37010BDAC6E000045
:2051E0003880044008C004404546000040A00440ED46000004D0044099460000034B53F835
:205200002030DA7822F02402DA707047AC6E0000284B012830B553F8203008D002D30228A6
:2052200012D030BD244A146844F4806403E0224A146844F400641460CC790B2C36D81F4ACB
:205240001F4D32F814200EE01B4A146844F480541460CC790B2C02D90624752204E0194AD6
:20526000194D32F814202C5D9C72C2F30424D2B21C705A700A88154C12F0010F02F006011E
:2052800008D07F2589B2255471B150074CBF0322022207E0FF2589B2255429B151074CBF15
:2052A000132212229A7030BD997030BD0C24EA22DAE700BFAC6E000034800440C06E00009C
:2052C000D86E0000E46E0000FC6E00009C83FF1F38B520F4FF64451824F00704092021461F
:2052E0000022FFF74FFA30B92B1BB3F5006F03D904F50064F2E7012038BD00002DE9F74F83
:2053000016460F46244C51B923689D0701D100203EE023F0030323604FF0040804E020F048
:205320000303236000F00308DFF87090DFF868A009F1040BC8F10405B54228BF354609EB1B
:205340000803184639462A460193FDF764FE019B2B445B452F44C5EB060612D3062021689D
:205360000E4AFFF70FFA054688B9DAF800300B480433FF210422CAF80030A846FDF743FE63
:2053800002E023681D442560002ED3D1BFE7012003B0BDE8F08F00BF3C83FF1F9883FF1F75
:2053A00000F5802000F14903002A30B54FEA033307DA22F0004222F4EE6222F004020324C3
:2053C00001E040F277740120E44351B1084205D01D68254015431D6021EA00010433400024
:2053E000F3E730BD014A024B1A60FEE70400FA050CED00E010B5124A12491348891A002376
:205400008B4203D01C5CD4540133F9E70F4B104A9342184605D10F4A0F490023891A1846A6
:2054200008E00E490023891A8B42F4D0C45CD4540133F9E78B4202D0D0540133FAE710BDD5
:20544000F081FF1F0B82FF1FD072000010040000100400000C82FF1FD88EFF1FA06D00006B
:20546000484C494908B5236843F480632360474B1A6822F4802222F001021A60012040F273
:205480000312FFF78DFF424B4CF220521A804DF628121A804FF4C87223F8082C0020413228
:2054A00023F80E2C23F80A0C3A4B08221A70236843F4007323604FF4A2722021FFF770FF78
:2054C000354B1A6842F020021A605A6942F020025A61324B24221A70A02203F8012C304A79
:2054E000137813F0020F2E4BFAD01A78D006FCD41A7802F00C02082AFAD12A4B28492722D4
:205500001A704C225A700B78254A13F0200FFAD013785906FCD5244A244B1A60244B282210
:205520001A701F4A137803F00C030C2BFAD1214B214A1360214ADA601A615A619A611A634C
:205540009A609A63DA62FFF755FF1D4B00221A601C4A6FF07F43136053601B4B1A6805220E
:205560001A601A68D203FCD500F072FA17481849FEF762FE174818490922FEF7CBFEFEF77A
:2055800083FFFCE7388004400100040054F00F400E20054002D0074000F00F4001400640C0
:2055A00006400640044006400000130144800440004006400080FF1F08ED00E04146000039
:2055C0000080004014E000E010E000E02A6E0000D88EFF1F346E0000B86E0000D0F800D0EB
:2055E000D0F804F07047000008B50A48FDF728FE4FF40043184613F8012BFF2A04D1B3F54E
:20560000802FF7D1002008BDB0F5802F28BF002008BD00BF086F00002DE9F041CC0602D5E8
:205620002023137001320B0606D51346302403F8024B782454701A4601F0400601F0200880
:2056400001F0080C01F00701042928BF04214900F6B25FFA88F85FFA8CFC17460B46013B7E
:20566000DBB2FF2B14D09D0020FA05F505F00F0505F13004392C08D9B8F1000F02D005F1E5
:20568000370402E005F15704E4B207F8014BE6E75018BCF1000F04D00D2353540A2343703F
:2056A000023006B90670BDE8F0811FB56A46FFF7B3FF6846FDF7C4FD05B05DF804FB0000D5
:2056C00008B51448FDF7BCFD1348FDF7B9FD1348FDF7B6FD842148F28000FFF7E6FF10486B
:2056E000FDF7AEFD84210F48FFF7DFFF0E48FDF7A7FD0E48FDF7A4FD0D48FDF7A1FD0D4826
:20570000FDF79EFD0C48FDF79BFD0C48BDE80840FDF796BD1C6F0000386F0000526F00009F
:20572000546F0000FFFF0300566F00005A6F00006D6F0000806F0000996F0000B36F000022
:205740002DE9F04FA94F867B3C6885B024B1A84CDFF8F8A2A04654E00A238DF80B3020239E
:20576000ADF804304FF40073ADF80630ADF8083001AA6123204603218DF80A408DF80C3099
:20578000FDF712FC9B4A1070154618B105212246FDF740FB984B2A781A70FFF791FFFF210C
:2057A00004229648FDF72FFC954B1A6842F400721A60944B1A6822F400521A60002040F2AD
:2057C00003124FF40051FFF7EBFD8F4B1A688F4B13408E4A934204D08D48FDF731FD7520AC
:2057E00007E08C48FDF72CFD53200421FEF78EFE4D200421FEF78AFE01233B60A7E7E578FF
:205800004DB130467A49DFF8E8910522FDF71CFB0028F4D139E098F80430012B02D1FFF710
:20582000E1FDEEE7FEF78CFF7B4BCAF800501A6822F4872222F480621A6053F80C2C22F411
:20584000406243F80C2C53F8082C22F0010243F8082C53F8042C22F4003243F8042C6F4B48
:205860001A6822F000421A606D4A4FF0FF331360C2F800315360C2F804319360C2F80831CA
:2058800048F28000FFF7AAFEBBE73B681A0600F1A980644E3546B3463168564B544C1878A1
:2058A00049440122FDF7D0FA002800F09B80D6F800A014F80A100A29EED03A68DFF82C819C
:2058C000012A02D0022A6CD085E00D294FD10022BAF1020F2A6048D1227802F0DF02442A4C
:2058E0000AD1627802F0DF02432A3ED14E48FDF7A7FCC8F800A06EE0472A10D1627802F0AB
:20590000DF024F2A31D14948FDF79AFC612004215246FEF72DFE0823C8F800305BE0422AF0
:2059200010D1637803F0DF03432B1ED1FFF75CFE08B93F4803E09421FFF7B7FE3D48FDF725
:205940007FFC48E0532A10D1637803F0DF03442B0BD13048FDF774FC4D200421FEF7D6FD15
:2059600053200421FEF7D2FD35E03348E7E73F2904D100232B60FFF7A3FE2CE01D490878F9
:2059800004EB0A01FDF73AFC2B68E15C5A1C08292A6020D1012AD4BF002303F1FF332B605F
:2059A00019E0237803F0DF03592B0FD12348FDF747FC4FF400404FF46031FFF789FC431C47
:2059C00002D030B91E4802E01E4800E01E48FDF737FC01233B60DBF80030042BC4BF00235A
:2059E0002B6059E705B0BDE8F08F00BFA483FF1FAD83FF1FA883FF1FF081FF1FA983FF1F8F
:205A00003880044014F00F4050F00F4001000400CA6F0000E56F000034800440007004406A
:205A200080E100E0A083FF1FFB6F0000147000002E7000003A7000004A7000005270000032
:205A400066700000757000008270000010E000E0024B00221A80FFF7C7BD00BFFE7F0020EA
:205A60000A4491420ED011F8013B40BA80B25840C0F30313584080EA003080B2C3B280EA12
:205A80004310EEE77047000038B50C4D48F280040023184621464FF48062FFF7E1FF04F547
:205AA0008064AC420346F4D121464FF46072FFF7D7FFD0F1010038BF002038BD80FC030071
:205AC000F0B5831EC1B00446052B00F2B680DFE803F0030E35596A99594A00231360594A35
:205AE0001360594A1380594B48F280021A60584C554D544E69464FF480722046FCF772FF8D
:205B0000A78F288869463A46FFF7AAFF336828806BB94E4D694628683A46FDF7ACFB10B1B4
:205B20000123336003E02B68A28F13442B60A48FB4F5807F14BF042403245EE0424B1B88BA
:205B4000D3B94448FDF77CFB3E4B1B685BB14FF460314FF40040FFF7BBFB53200121FDF71E
:205B600075FB052469E03C48FDF76AFB3B4B3C481968FDF7C7F853E03A48FDF761FB5320B0
:205B800014214FE0314C3248002148F280030A462360FCF789FF2E4833490422FCF722FF52
:205BA0002368043323602A4D284C69464FF480722846FCF717FF2068AA8F6946FFF79EFB5B
:205BC000AB8F2068B3F5807F1844206014D000210A46FFF793FB2368194A2349136048F2A0
:205BE000800004222060FFF789FB002120680A46FFF784FB072400E0062401215320FDF7D9
:205C000025FB1AE0FFF740FF70B10D4801F068F8124B13481968FDF775F81448FDF710FB79
:205C200053201E21012205E01148FDF709FB532050210222FEF79CFC0124204641B0F0BD9B
:205C40000484FF1FB483FF1F1484FF1F1084FF1FB883FF1F927000009F7000000084FF1FD5
:205C6000AD700000BA7000001684FF1FC9700000DC7000004FF4004313F8012BFF2A04D1E5
:205C8000B3F5802FF8D10120704700207047000038B5002837D0FFF7F7FE002840D0FEF701
:205CA0004FFD5D4B00221A605C4B1A6822F4872222F480621A6053F80C2C22F4406243F884
:205CC0000C2C53F8082C22F0010243F8082C53F8042C22F4003243F8042C514B1A6822F02B
:205CE00000421A604F4A4FF0FF331360C2F800315360C2F804319360C2F8083148F280003E
:205D0000FFF76CFC0CE0484A13680133022B1360C1DC532014210222BDE83840FEF728BCF9
:205D2000424C4348434DFDF78BFA236843F4805323600320FF214FF4A272FFF731FB3E4BE4
:205D40001A6822F0FF021A605A6942F0FF025A61236843F40063236002201E214FF4A27223
:205D6000FFF71EFB354B364C1A6822F01E021A605A6942F01E025A61324A00230120022131
:205D8000102B0CBF2860206000BF00BF116000BF00BF116000BF00BF0133202BF0D1294BE5
:205DA00008221A6000BF00BF204B1A6842F400721A6000204FF4A2724FF40051FFF7F0FAC7
:205DC000214B1A6842F400521A605A6942F400525A610822C3F8CC20FFF74CFF40B91B485F
:205DE000FDF72EFA4FF400404FF46031FFF770FA4FF460314FF40040FFF76AFA7520042165
:205E0000FEF784FB4D200021FEF780FB53200021BDE83840FEF77ABB10E000E0348004406D
:205E20000070044080E100E02084FF1F38800440EC700000C4F00F40C0F00F4080F00F4092
:205E4000C8F00F40CCF00F4000F00F401A7100002DE9F8433A4B90F80E801D681C4625B1BD
:205E6000384E394FDFF8E89023E001221A60FF2104223648FDF7C7F8532014210222FEF7ED
:205E800077FB28462946FCF757FC314B1860BDE8F883F07800284BD13379022B44D1FCF7CC
:205EA0008FFF038B6BB92B48FDF7CAF90020FFF7EFFE404623490522FCF7C6FF0028E8D1C3
:205EC0003CE003F48075ADB2002DECD11B0704D52148FDF7B5F92846E9E71B4D1F485323E8
:205EE00087F84330FDF7ACF91D48D9F8002029460123FCF7EBFE02280DD1BA6819498A42FA
:205F000001D0194808E0194AE98F20609180B5F84010D1800DE01648FDF792F9532014213B
:205F20000122FEF725FBC4E7012BC2D11846BEE72068FFF7C5FD2060BDE8F883BDE8F883BC
:205F40002484FF1F1A84FF1FB883FF1F1684FF1F0084FF1F377100004D71000065710000D0
:205F6000AD700000807F0300777100000484FF1F8971000000F18002C37A202B03D09042DA
:205F80000CD02030F8E7827FC37F120402EB0362437F02EB0322037FD0187047012070477E
:205FA000022A70B50C4643D0042A01D06ABB09E00378822B38D11F4B1F4918780D22FDF768
:205FC0001DF931E0017821F08003212B2ED18279C3791A4D42EA032609062E8026D54178DE
:205FE000FE2902D0FF290CD020E08178F1B9C178E1B9012A1AD1CBB9114B12491878FDF759
:20600000FDF8082C14D9083CA4B20C4B1A881D4612B90020288070BD0B49002094420870F2
:20602000F7D2141B1C8070BD032070BD042070BD002070BDA888FF1FFE81FF1F8484FF1FA0
:20604000D08EFF1F8F7200008886FF1F10B51A4A13785C1C1470032B2CD8DFE803F0020EEB
:206060001C25164B1A8801F47064224342EA0132C1F303111980028014E0104B0A091C8866
:2060800002F0F00242EA01222243C1F30321198020F8022B10BD094B1A8842EA011100228F
:2060A0001A800180023010BD00231370034BC9B21980018010BD00BF8684FF1FB08AFF1F31
:2060C0002DE9F84F9F4D0446002168694FF40072FCF799FF2E46002C5DD0022C00F282800C
:2060E0006C699949EB2323709023A370E01CFDF7D1F84FF400733F222B852276FF22A27631
:20610000F82262753C2201260023022762704FF004080822E3722674E37422752773A773E5
:20612000A7748A4985F82B20C5F80880A675E37504F13600FCF76FFF854BEE611E60AB68B5
:20614000844903F12002013B2B6295F82B30EA606373802384F82430292384F8263084F87E
:206160002760032304F12B0684F829300B2284F8287084F82A803046FCF74DFF05F149001C
:2061800031460B22FCF747FF552384F8FE31AA2384F8FF31D3E06B69022283F8BF210C2252
:2061A00083F8C0210B2283F8C221382283F8C321F82283F8C421B82283F8C521012283F8EC
:2061C000C621FF2283F8CA21072283F8CB21552283F8FE21AA2283F8CC4183F8CD4183F858
:2061E000FF21ACE0AB68A3420ED16C6905F149010B222046FCF70FFF0823E37204F12000DE
:2062000055494FF4F07298E00133A34202D16869524990E02B6A9C427ED3EA691A449442B0
:206220007AD29C4204D168694D490422FCF7F3FE4C4B1F68022F40F08280336A75699C4214
:20624000494C0DD14FF40040FFF794FE474B20601F70474B04221A80464B012204351A6066
:20626000DFF804B1DFF8DC80DFF80491276896F82B30B7EB432F17D3D8F8143003F50073FE
:206280009D425CD2B9F800A028465146FFF7DEFE98F82B300AF1010AA7EB43270546A9F8F0
:2062A00000A0CBF80070E1E7324B1A681F46002A45D0244B5B6903F500739D423FD22B4A9D
:2062C0002B4C13781646032B1FD8DFE803F0020B151B218841F00F01284689B2FFF7B6FE07
:2062E000FF2307E0218841F0FF01284689B2FFF7ADFE0F23038008E0284640F6FF71FFF7CA
:20630000A5FE02E040F6FF732B801B4A00233B6013802380337012E0F26894420FD3174B43
:206320009B1A1919490201F500418031B1F5802F05D2044B58694FF40072FCF76CFE0020D5
:20634000BDE8F88F2884FF1FF971000002720000AC8AFF1F0B720000BC8AFF1FBC8CFF1FCE
:20636000BB710000A488FF1FD48EFF1F8684FF1FB28AFF1FC88EFF1FB08AFF1FF8FF7F0063
:206380002DE9F8431C4D1D4F287800210A46FCF735FFB846044640F2FF193B6813B34C4513
:2063A00018D9174E3068FFF78BFE68B9154B28781B684FF400725969FCF720FF3368A4F50F
:2063C00000740133A4B23360D8F80030013BC8F80030E2E72878402141F27502BDE8F843AC
:2063E000FCF718BD0C2CF5D9287807490D22BDE8F843FCF703BF00BFA888FF1F7C84FF1FF0
:20640000C48EFF1FBC8EFF1FFE81FF1F38B52E4B1B680446D3B92D4821460422FCF72BFF29
:2064200000284ED12A4B1A68637B002B49D1A37B013BDBB20F2B44D894F90C30002BE37B6C
:2064400014DA232B1CD007D8122B01D1072038BD1A2B07D0032B24E0282B11D0A82B0FD0D6
:20646000252B1EE0237C5B0917D01BE01E2BEDD002D8002BEAD015E02A2B01D0AA2B11D152
:20648000138B03F08803002BE0D1124BF0221A7002229A703A221A7304E0637C03F03F03FC
:2064A0003F2BD3D00C4D211D0422281DFCF7B3FD05F1080004F108010422FCF7ACFD012348
:2064C0002B73042038BD00BF8084FF1FBF710000BC8EFF1F9086FF1FFE81FF1F2DE9F04F66
:2064E000DFF83882867B98F80040ABB0002C4DD1784B8DF83640012521460A9302277523EC
:206500000AAA0520ADF82E40ADF82C408DF83A30ADF832508DF838508DF83970FCF744FDF9
:206520004023ADF834306C4B88F8000021464FF400780A930AAA4FF480630520ADF82E30F7
:206540008DF837508DF83670ADF82C80ADF83080FCF72AFD614B624C18704FF40063236138
:20656000A02323835F4BA4F8288063612846FFF7A7FD5D4B4FF400411C600B68013305D0D4
:206580005A488022FCF747FD594B1F60594F30460AA90522FCF758FC002800F0C1809DF830
:2065A0002B50012D03D030D3752D7ED0EFE79DF82C30CB2B21D007D8CA2BE8D102200021EE
:2065C000FDF73AFB4C481DE0CC2B04D0DD2BDED1FFF7D6FEDBE700242146042247483C6017
:2065E000FCF711FD464B47481C60474B21462A461C60FCF708FD454804E028460021FDF72D
:206600001BFB4348FCF71CFEC1E79DF82C30032BBDD1002001460246FEF770FE00243D4BB9
:20662000214613F8202CE52AA3F120001BD013F8152C0F2A02D012F00A0F14D109B1203489
:2066400001E001462024202A0ED10323802C83760CD9A4F121035B095A1C203C01EB4211C7
:20666000A4EB431402E000212033DAE74FF400402246FEF743FE7F2C0CD80021202202A860
:20668000FCF7C1FC04F5004002A92022FEF736FE2034F0E7002001460246FEF72FFE144BA0
:2066A00002221A60FEF79EFE71E730460DF12D019DF82C20FCF7C8FB9DF82D30FE2B7FF48C
:2066C00066AF1548FCF7BCFD01210A460D48FCF79AFC5CE7A15F00000D640000A888FF1F4A
:2066E0002884FF1FAC88FF1FBC8EFF1FBC8AFF1FA488FF1F8084FF1F33720000C08EFF1F35
:206700007C84FF1FB48AFF1F8C86FF1F1772000023720000DC8AFF1F40720000D08EFF1FFF
:20672000DFF8DC9299F80000B54FFCF7A1FB002800F0A782B34C99F800002668002E00F073
:206740008581DFF80083B04ED8F80010C1F5007292B23144FCF778FB23681B1A2360D8F8A1
:2067600000301844B0F5007FC8F80000C0F24281A64BDFF8D4A21D686A1C1A60DAF80C3063
:206780009D420193C0F0E280DFF8B0B2DBF80030012B00F318819E489E4A0378002B00F01C
:2067A0000381012B40F0A8801368002B00F0188100231360DFF864C2974A12F8153C002BA8
:2067C0005ED00F2B5AD0202B58D09B0756D512F8203CE52B52D012F80C3C12F80B1C1B04AD
:2067E00043EA016312F8061C0B4312F8051C43EA012303F100510198023900EBC1018D427D
:2068000003D308318D42C0F0EB80032101FB03FE2EFA01FE814803F00703013B50F82E10AF
:20682000062B05D8DFE803F0070A14171A222500C1F30B031EE0C1F30B331BE00EF1010E38
:206840005CF82E3003F00F031B0243EA116311E0C1F30B130EE0C1F30B430BE00EF1010E17
:206860001CF82E301B0143EA117303E0C1F30B2300E00B0D40F6FF718B42BAD120329CE749
:206880003278614B7B2A0BD193F84A107D2907D1597829B9D97819B95B79002B00F0A080D9
:2068A000317A594B4D2903D1597A612900F0D081B17896F801E0544B090441EA0E210A43B6
:2068C000F178574E42EA01621644B6F5803F80F087809A795E791979DB79120442EA0622A6
:2068E0000A4342EA0363A3F500434E4A813B934276D84748022303704B4B019A4B492B440C
:206900009B1A5B020E684A4A03F50040803016B9136001230B601368424AC01AA0F50043E9
:20692000803B934209D8C0F580223749B2F5007F28BF4FF40072FEF7E1FC75201E21032282
:20694000FDF716FE0123CBF800303CE0DAF808309D4204D001339D4235D1364800E036484A
:206960003146364E4FF40072FCF755FB3368022B29D1294B04E0203313F8352C202A15D01C
:206980002F48834212D013F8202CE52AF3D113F8152C202AEFD14FF400404FF46031FEF70D
:2069A00097FC00231B4A3360136019E02248FFF7E1FA834638B94FF400404FF46031FEF77C
:2069C00087FCC6F800B0DAF820309D4205D113480D494FF40072FCF71EFB0E4B00221A6088
:2069E0000023C8F80030236823B175200421FDF78DFD46E12368002B7FF494AE22E100BF99
:206A0000A888FF1F8084FF1FA286FF1FC48EFF1FB48AFF1FC08EFF1FDC8AFF1F8884FF1FDA
:206A2000FF7F00E07F7F0300FFFF7F00B88AFF1FCC8EFF1FBC8CFF1FBC8AFF1FA488FF1F8E
:206A4000DC8CFF1F8C86FF1F2884FF1F8E4D0AA98022FCF7F9F90BA90422281DFCF7DBFABA
:206A600099F800002E7201216E72AE72EE722E73FCF714FA854B1E689DF83730032B04D06D
:206A8000834884491222FCF7C6FA9DF93430002B9DF8373080F29880232B6DD00AD8122B22
:206AA0002BD01A2B2FD0032B40F0CC80387878491222C5E0282B35D0A82B33D0252B40F0F5
:206AC000C180002233698DF80C208DF80D20328D38788DF80F20013B110A1A0E8DF8082005
:206AE0001A0C8DF809201A0A8DF80E108DF80A208DF80B3002A90822A2E09DF838305B09D4
:206B000000F09B806AE06449042202A8FCF783FA338B3878DC0644BF80238DF80A3002A9D3
:206B200004228DE09DF83A109DF83920090441EA02619DF83C2011439DF83B2041EA0221D7
:206B4000564AA82B1160564B0CD19DF83E209DF83D10120442EA01629DF840100A439DF892
:206B60003F1003E09DF83E109DF83F2042EA01221A60FFF705FCD5E59DF83F309DF83E407B
:206B8000484902A80C2243EA0424FCF744FA338B13F0880F11D098064CBF022301238DF856
:206BA000103033691A0A8DF80F308DF80E201A0C1B0E8DF80D208DF80C30387802A90C2C09
:206BC00034BF22460C223BE02A2B0AD0AA2B08D0002B37D1338B03F088039BBB01232B73AE
:206BE00030E09DF83A109DF83920090441EA02619DF83C2011439DF83B2041EA0221274A29
:206C0000AA2B11600CD19DF83E309DF83D201B0443EA02639DF8402013439DF83F2003E089
:206C20009DF83E209DF83F3043EA0223236023681D4A5B022360136074E538781B49242290
:206C4000FCF7DCFA387810490D22FCF7D7FA69E5997A63297FF42CAE93F8541041297FF469
:206C600027AE93F8551054297FF422AE93F8561054297FF41DAE93F85730522B7FF418AE1B
:206C8000AEE62BB0BDE8F08FFE81FF1FBC8EFF1F9086FF1FCB710000C7710000C48EFF1F44
:206CA0007C84FF1FED710000C08EFF1F5972000012230380004870479072000020230380A2
:206CC000004870479B710000052805D8034B53F8200003780B80704700207047AC72000034
:206CE000F0B50746A1B00468C6888588002168468022FCF788F9B968A4F50044803C68463D
:206D000001B926490B22FCF786F918238DF80C3020238DF80B3003238DF81A30230A8DF805
