:1000000000800020BD01000059B7000059B7000072
:1000100059B7000059B7000059B7000025B70000D4
:1000200025B7000025B7000025B7000059B700002C
:1000300059B7000025B7000059B7000015B70000F8
:1000400059B70000FD7A000059B70000D57F0000C5
:1000500059B7000059B7000059B7000059B7000060
:1000600059B7000059B7000059B7000059B7000050
:1000700059B7000059B7000059B7000059B7000040
:1000800059B7000059B7000059B7000059B7000030
:1000900059B7000059B7000059B7000059B7000020
:1000A0000DB0000059B7000059B7000059B7000063
:1000B00059B7000059B7000059B7000059B7000000
:1000C00059B7000059B7000059B7000059B70000F0
:1000D00059B7000059B7000059B7000059B70000E0
:1000E00059B7000059B7000059B7000059B70000D0
:1000F00059B7000045C0000059B70000C9C300004F
:1001000059B7000001C7000059B7000059B70000F7
:1001100059B7000059B7000059B7000059B700009F
:1001200059B7000059B7000059B7000059B700008F
:1001300059B7000059B7000059B7000059B700007F
:1001400059B70000C58B000059B7000059B700002F
:100150003DD6000055D600006DD6000085D60000C3
:1001600059B70000BDC9000059B7000059B70000D9
:1001700059B7000059B7000059B7000059B700003F
:1001800059B7000059B7000059B7000059B700002F
:1001900059B7000059B7000059B70000B5B80000C2
:1001A00005B900008DB9000049BA0000CDBA0000C1
:1001B00059B7000059B700003DD300004F4B4CF237
:1001C000205210B51A804DF628121A8000BF00BFC9
:1001D0000BF0C6FA4A4B4FF010621A60494A9A6017
:1001E000494ADA60494B1A6812F4807204D14849CE
:1001F0000A604FF4A8521A60464B1A7802F00802BF
:10020000D2B21AB11A7842F008021A70424B43482F
:10021000434C2A221A700023424A02E0195999508D
:10022000043399188142F9D33F4B404A002101E041
:1002300043F8041B9342FBD33D4B00221A603D4B15
:100240003D4A802103F8011B9342FBD13B4B0A221C
:100250001A703B4B24221A70A02203F8012C394A51
:10026000137803F00203DBB2002BF9D0354A137880
:1002700003F01003DBB2002BF9D1324A137803F0FC
:100280000C03082BFAD1304B03221A7040225A700B
:100290002C4A137803F02003DBB2002BF9D0294A53
:1002A000137803F04003DBB2002BF9D0274B284A28
:1002B0001A6002225A60274B20221A70214A1378B2
:1002C00003F00C030C2BFAD1234A244B1A60244B65
:1002D000244A1A60072243F8042C62B60BF09AFCF9
:1002E0000B4B1B68DC0702D51F480BF007FC0FF017
:1002F0007FFD0BF03BFA0DF037FAFEE70E200540CC
:1003000030800440823F04000100002B10D00340E5
:1003100014D0034002D0074000E007403498FF1F8C
:1003200060A501008091FF1F3498FF1FCC1F0020A3
:1003300008ED00E000E400E05FE400E0005006406B
:100340000140064006400640044006404480044008
:100350000000030100400640C01005000480044076
:1003600014E000E0FF76010000DD6850FFFFFFFFB2
:10037000FFFFFFFFFFFFFFFFFFFFFFFFFFFFFFFF8D
:10038000FFFFFFFFFFFFFFFFFFFFFFFFFFFFFFFF7D
:10039000FFFFFFFFFFFFFFFFFFFFFFFFFFFFFFFF6D
:1003A000FFFFFFFFFFFFFFFFFFFFFFFFFFFFFFFF5D
:1003B000FFFFFFFFFFFFFFFFFFFFFFFFFFFFFFFF4D
:1003C000FFFFFFFFFFFFFFFFFFFFFFFFFFFFFFFF3D
:1003D000FFFFFFFFFFFFFFFFFFFFFFFFFFFFFFFF2D
:1003E000FFFFFFFFFFFFFFFFFFFFFFFFFFFFFFFF1D
:1003F000FFFFFFFFFFFFFFFFFFFFFFFFFFFFFFFF0D
:10040000FFFFFFFFFFFFFFFFFFFFFFFFFEFFFFFFFD
:1004100008B549F63400074BC1F6FF701B1A062BCE
:1004200000D808BD40F20003C0F20003002BF8D052
:100430009847F6E73798FF1F08B549F6340049F6A4
:100440003403C1F6FF70C1F6FF731B1A9B1003EB58
:10045000D373591000D108BD40F20002C0F200026F
:10046000002AF8D09047F6E710B549F63404C1F6F3
:10047000FF74237873B9FFF7CBFF40F20003C0F29B
:1004800000032BB14AF26050C0F20100AFF30080CC
:100490000123237010BD00BF08B540F20003C0F275
:1004A00000034BB14AF2605049F63801C0F2010036
:1004B000C1F6FF71AFF3008049F63400C1F6FF705A
:1004C00003682BB140F20003C0F2000303B1984768
:1004D000BDE80840FFF7B0BF00F4804292B210B50B
:1004E000C0F3CA031AB1C3F5FF6307339BB21A0AFC
:1004F000074C0849895C34F81220C3F3460303FB18
:1005000001239BB2020454BF1846584200B210BDEA
:10051000986001009060010000F0400310B503F006
:10052000FF010BB1C34300E0034603F03F0203F0B9
:100530000F0301B101330A49121152008C188A5C71
:10054000647814FB03F302EB23130106DBB201D43E
:10055000D8B201E05842C0B280F0800010BD00BFA8
:10056000B05F010038B590F84130053380F8413074
:1005700090F84230023380F8423090F84330033331
:1005800080F8433090F84430043380F8443090F8D9
:1005900045300133DBB2DC0780F8453004D490F8F5
:1005A0004630013380F846300446002594F8410077
:1005B000FFF7B2FF00B24301181A0012013584F8A8
:1005C00047000134042DF1D138BD1F2AD4BF22EADF
:1005D000E2721F221F29D4BF21EAE1711F2101EB22
:1005E000421070472DE9F74F04460025032765E0C8
:1005F00094E8080132465B6801992046984794E8E0
:10060000080807FB00FA32465B68294620469847EF
:1006100078430BEB00031BF8002008EB0A0908F8ED
:100620000A205A789B7889F8012089F8023094E8EA
:1006300008015B68C6F11F094A46294620469847CB
:1006400094E80C0007FB00FBD2F804C0009332468C
:1006500029462046E047009B019978431A181B5C05
:1006600008EB0B0A08F80B3053788AF801309378BE
:100670008AF8023094E808014A465B6820469847A9
:1006800094E8080807FB00FA32465B6820462946D2
:10069000984778430BEB00031BF8002008EB0A098E
:1006A00008F80A2001365A789B7889F80120102E24
:1006B00089F802309CD10135102D04D0C5F11F03FB
:1006C0000026019394E7BDE8FE8F2DE9F74F04461D
:1006D0000025032765E094E8080132465B6801992C
:1006E0002046984794E8080807FB00FA31465B6803
:1006F0002A462046984778430BEB00031BF800205E
:10070000019908F80A2008EB0A095A789B7889F8B9
:10071000012089F8023094E808015B68C6F11F09DE
:100720004A462046984794E80C0007FB00FBD2F8A5
:1007300004C00093324629462046E047009B784398
:100740001A181B5C08EB0B0A08F80B3053788AF870
:10075000013093788AF8023094E808014A465B68D1
:1007600029462046984794E8080807FB00FA5B688A
:1007700031462A462046984778430BEB00031BF886
:10078000002008EB0A0908F80A2001365A789B78FD
:1007900089F80120102E89F802309CD10135102DE6
:1007A00004D0C5F11F030026019394E7BDE8FE8F36
:1007B0002DE9F04704460125032794E84800C5F1D8
:1007C000070107225B682046984794E8080407FB66
:1007D00000F900225B6829462046984778430AEBD7
:1007E00000031AF8002006EB090806F80920013575
:1007F0005A789B7888F80120102D88F80230DCD1D7
:100800000225032794E84800C5F1070106225B682A
:100810002046984794E8080407FB00F901225B682A
:1008200029462046984778430AEB00031AF800202F
:1008300006EB090806F8092001355A789B7888F8F4
:100840000120102D88F80230DCD103252F4694E8D2
:100850004800C5F1070105225B682046984794E8E7
:10086000080407FB00F902225B68294620469847E6
:1008700078430AEB00031AF8002006EB090806F893
:10088000092001355A789B7888F80120102D88F8C6
:100890000230DCD10425032794E84800C5F10701A4
:1008A00004225B682046984794E8080407FB00F997
:1008B00003225B6829462046984778430AEB0003E9
:1008C0001AF8002006EB090806F8092001355A78C5
:1008D0009B7888F80120102D88F80230DCD105259E
:1008E000032794E84800C5F1070103225B6820460E
:1008F000984794E8080407FB00F904225B6829463E
:100900002046984778430AEB00031AF8002006EBCC
:10091000090806F8092001355A789B7888F80120E3
:10092000102D88F80230DCD10625032794E8480012
:10093000C5F1070102225B682046984794E8080445
:1009400007FB00F905225B68294620469847784353
:100950000AEB00031AF8002006EB090806F8092044
:1009600001355A789B7888F80120102D88F80230DC
:10097000DCD10725032794E84800C5F107010122CF
:100980005B682046984794E8080407FB00F90622B4
:100990005B6829462046984778430AEB00031AF81B
:1009A000002006EB090806F8092001355A789B78E3
:1009B00088F80120102D88F80230DCD1BDE8F087DE
:1009C0002DE9F74F04461F264FF0030825E094E871
:1009D000080229465B6832462046984794E80C0096
:1009E00008FB00FBD2F804C0019329463A46204692
:1009F000E047019B08FB00F01A181B5C09EB0B0A8F
:100A000009F80B30537801358AF801309378202D9E
:100A10008AF80230DBD13E4617B10025771ED6E7B3
:100A2000BDE8FE8F2DE9F74F0446019116460327D6
:100A300026E0002506F1FF3894E8080229465B68A5
:100A400032462046984794E80C0007FB00FBD2F89A
:100A500004C00093294642462046E047009B784365
:100A60001A181B5C09EB0B0A09F80B305378013597
:100A70008AF801309378202D8AF80230DCD146467E
:100A8000019B9E42D5DCBDE8FE8F2DE9F04F87B07B
:100A9000044601939DF8403002939DF844305B1A60
:100AA00004939DF848309B1A8846154605932DE01F
:100AB000059B5B194646039324E094E88800049A5A
:100AC0005B6891192046039A984794E80408032329
:100AD00003FB00FAD2F804C0009331462A462046B0
:100AE000E047009B58430BEB00021BF8003007EB7C
:100AF0000A0907F80A30537889F8013093780136EB
:100B000089F80230019BB342D7DA0135029BAB4230
:100B1000CEDA07B0BDE8F08F2DE9F74F0546012486
:100B2000032726E095E80801C6F107025B68214625
:100B30002846984795E80C0007FB00FAD2F804C055
:100B40000193324628465946E047019B78431A18DC
:100B50001B5C08EB0A0908F80A305378013689F85B
:100B600001309378A64289F80230DBDB0134102C87
:100B700003D00026C4F1070BD4E7BDE8FE8F2DE9B2
:100B8000F74F05460124032726E095E80801C6F142
:100B900007015B6822462846984795E80C0007FB4A
:100BA00000FAD2F804C00193324628465946E0477D
:100BB000019B78431A181B5C08EB0A0908F80A30F5
:100BC0005378013689F801309378A64289F80230CB
:100BD000DBDB0134102C03D00026C4F1070BD4E773
:100BE000BDE8FE8F2DE9F843074600240FE03B687F
:100BF0002A46D3F854C03846334641460135E047CB
:100C00004E44A542F6B2F2DD0134102C08D04FEA72
:100C1000840900265FFA89F93546C4F10708E6E73A
:100C2000BDE8F88300207047704770470120704787
:100C3000C368C918002900DD02E001D1C16001E0EC
:100C40000023C360C368043350F823304361704706
:100C500000F54F5310B5DA6889181129044601DDF3
:100C6000002204E0002901DBD96001E01122DA60F2
:100C7000186910B10368DB68984704F54F53DA68C8
:100C800002F6F44204EB82046068186110B1036854
:100C90009B68984710BD00F54F5008B50069036880
:100CA0005B68984708BD10B50121044600200CF090
:100CB0002AFE002800DD02E001D1E06001E000230F
:100CC000E360606910B10368DB689847E368043348
:100CD00054F82300606110B103689B68984710BD09
:100CE00090F802311BB100F5807009F0B9B8704777
:100CF000837E13B1183009F0B3B8704737B50024BC
:100D000005468DF804408DF805408DF8064005F540
:100D1000A0550348019906F057FA2C613EBD00BF6B
:100D2000A0F9FF1F37B5002405468DF804408DF863
:100D300005408DF806400348019906F045FAC5F8CC
:100D400018493EBDA0F9FF1F13B500248DF80440DB
:100D50008DF805408DF806400248019906F034FAF6
:100D600020461CBDA0F9FF1F2DE9F7438046002453
:100D70001B4F4FEAC4090F260025102D4FF0FF032B
:100D8000C8BF8DF8013000A8C8BFC6F10D0301A986
:100D9000D8BF8DF801608DF802308DF8009007F013
:100DA0008CFB9DF804203B7E9A420ED19DF80520D5
:100DB0007B7E9A4209D19DF80620BB7E9A4204D1DF
:100DC000C8F80840C8F80C5007E001350F36202D50
:100DD000F6B2D2D101341F2CCAD1BDE8FE8300BFC8
:100DE000309AFF1F10B50446024806F09BFA606077
:100DF00010BD00BFA0F9FF1F38B5084C0121054602
:100E0000204606F071FA204606F08CFA6860044825
:100E10001921BDE8384007F08FBA00BFA0F9FF1FC5
:100E2000E015002010B503785F2B88B0014626D06E
:100E30007E2B24D02E2B22D004A80CF0AFFD04A8CA
:100E40000CF008FE014668460CF0C3FD04A80CF047
:100E500064FD04A80C490CF0A1FD04A968460CF03F
:100E6000E3FD044604A80CF058FDB4F1010EDEF1D8
:100E70000004684654EB0E040CF04FFD00E0002423
:100E8000204608B010BD00BFE860010010B1012885
:100E900019D10AE00C4B9A788918C9B218299970AF
:100EA00088BF987008480AF033BA074B5A788918F7
:100EB000C9B23B2901D95870F4E759700029F1D122
:100EC0003B225A70EEE770470099FF1F0E4B10B59A
:100ED00003600E4B0446C36600F5B6700CF01DFDB2
:100EE0000B4B04F1540063640CF017FD094B04F143
:100EF0003400E3620CF011FD074B04F11C00A36009
:100F00000CF00BFD204610BD305B0100985E010027
:100F1000C05F0100F05E0100505B0100074BDA8901
:100F2000801802B2002A01DA002204E0172A01DC4C
:100F3000D88170471722DA81704700BFA098FF1F41
:100F400038B5044608460D460AF038FC23680246C8
:100F50005B6820462946984738BD10B502780C7862
:100F600082FA54F202704C78427882FA54F242705B
:100F70008978827882FA51F2827010BD2DE9F04FA3
:100F800085B0C1EB03089A469942ACBF4FF0FF33DE
:100F9000012300930E9BC2EB0309B9F1000FB8BF08
:100FA000C9F10009C9F1000302930E9BB8F1000FCB
:100FB000B8BFC8F100089A42ACBF4FF0FF3301231D
:100FC00007460D4614460193C9EB08064FF0030B84
:100FD00097E80C0003932946536838462246984701
:100FE000039B0F990BFB0030FFF7B7FF554502D16C
:100FF0000E9B9C420DD0029A7300934203DD009A2F
:10100000C9EB0606AD184345E2DA019B4644E418F5
:10101000DEE705B0BDE8F08F2DE9F74F0546012466
:101020004FF003081DE095E8080439465B685A460E
:10103000284698476B6801932B68314608FB00AA45
:101040005B684A4628469847019B013608FB0031F9
:101050005046FFF782FF013F0F2EE4DD0134102CD4
:1010600007D004F1FF39C4F1100BC4F10F07264675
:10107000D9E7BDE8FE8F2DE9F84F04460025032788
:1010800046E094E8080232465B68414620469847AD
:1010900007FB009A94E8080231465B682A4620461E
:1010A000984707FB00915046FFF757FF94E8080464
:1010B0005B68C6F11F094A4641462046984707FB30
:1010C00000AB94E8080432465B68294620469847FE
:1010D00007FB00A15846FFF740FF94E808044A4682
:1010E0005B6829462046984794E80802314607FB8A
:1010F00000AA5B682A4620469847013607FB009104
:101100005046FFF72AFF202EBBD10135202D03D0FA
:101110000026C5F11F08B4E7BDE8F88F2DE9F84FA8
:1011200004460025032746E094E8080232465B683F
:1011300041462046984707FB009A94E8080231464A
:101140005B682A462046984707FB00915046FFF708
:1011500004FF94E808045B68C6F11F094A4641464B
:101160002046984707FB00AB94E8080432465B68CA
:1011700029462046984707FB00A15846FFF7EDFE99
:1011800094E808044A465B6829462046984794E854
:101190000802314607FB00AA5B682A4620469847AA
:1011A000013607FB00915046FFF7D7FE102EBBD14A
:1011B0000135102D03D00026C5F11F08B4E7BDE8A6
:1011C000F88F027812FB01F212120270427812FBC1
:1011D00001F212124270827812FB01F10912817041
:1011E00070472DE9F047044688460026032726E08D
:1011F00094E808022A465B6831462046984707FB78
:10120000009A94E808026A1E5B68314620469847B7
:1012100007FB00915046FFF7A0FE94E808022A461B
:101220005B68314620469847013507FB00904146F0
:10123000FFF7C7FF202DDBD10136202E01D001257D
:10124000D6E70025032694E88800294600225B683B
:1012500020469847013506FB00704146FFF7B1FF75
:10126000202DF0D1BDE8F0872DE9F74F04468846E0
:1012700092461D46032727E094E8080832465B683B
:1012800029462046984794E80C00019307FB00BBD1
:1012900053684946324620469847019B07FB003178
:1012A0005846FFF75AFE94E8080832465B6829461C
:1012B00020469847414607FB00B0FFF782FF013602
:1012C0000D9A9642D8DB0135554503DA0C9E05F19F
:1012D0000109F5E70C9D03260CE094E888002A46F6
:1012E0005B68002120469847414606FB0070FFF7E7
:1012F00068FF01350D9B9D42EFDBBDE8FE8F2DE9B8
:10130000F74F044688469B46551C032727E094E880
:10131000080432465B6829462046984794E80C004A
:10132000019307FB00AA5368494632462046984776
:10133000019B07FB00315046FFF70FFE94E80804BD
:1013400032465B68294620469847414607FB00A085
:10135000FFF737FF01360D9B9E42D8DB01355D4517
:1013600003DA0C9E05F1FF39F5E70C9D03260CE02E
:1013700094E888002A465B68002120469847414649
:1013800006FB0070FFF71DFF01350D9B9D42EFDB53
:10139000BDE8FE8F2DE9F04F95B0044607919DF80A
:1013A0007810089203910B93002B00F0DA81C3F1BF
:1013B000030311930B9B0C93C3F1010313930325B8
:1013C000CBE1139B09930C9B023B0493119B0A9363
:1013D0000B9B029300230193B4E1029B079966687B
:1013E0005A180899019B0D925B18069323681146C1
:1013F0005B68069A20469847049B0799D4F80490A6
:101400005A182368129205FB00F811465B68069A89
:1014100020469847684309EB000319F80020079914
:1014200006F8082006EB08075A789B787A70BB709C
:10143000019B66685B1805930899029B5A182368FC
:1014400005995B680E9220469847049B0899D4F84A
:10145000049003EB010B236805995B6805FB00F81A
:101460005A4620469847684309EB000319F80020C4
:10147000029906F8082006EB08075A789B787A70DC
:10148000BB70079B66685A1A23680F9211465B6807
:10149000069A20469847079A0499D4F80490531A5C
:1014A0002268194605FB00F8D2F804C00093069A9A
:1014B0002046E047684309EB000219F8001006EBEC
:1014C000080706F80810517892787970BA70019977
:1014D000079A6668571A22683946D2F804C00E9AED
:1014E0002046E04794E8040405FB00F9D2F804C064
:1014F00039465A462046E04768430AEB00021AF88C
:10150000001006EB090806F809105178927888F85F
:10151000011088F802200199089AD4F80480561A1C
:1015200022680F99D2F804C020463246E04794E87A
:101530000408009BD2F804C005FB00FA19463246A5
:101540002046E04768430BEB00031BF8002002999C
:1015500008F80A2008EB0A095A789B7889F80120D4
:1015600089F80230089BD4F804805A1A2368109234
:1015700039465B6820469847089A04996368C1EB2E
:10158000020B226805FB00FAD2F804C0009339462A
:101590005A462046E047009B0D9968431A181B5C89
:1015A00008EB0A0908F80A30537889F80130937873
:1015B00089F8023094E8080132465B682046984773
:1015C00094E80C0005FB00FAD2F804C012990093CD
:1015D00032462046E047009B059968431A181B5C79
:1015E00008EB0A0908F80A30537889F80130937833
:1015F000109A89F8023094E8080120465B68984701
:1016000094E80C0005FB00FAD2F804C00599009399
:101610005A462046E047009B0D9968431A181B5C08
:1016200008EB0A0908F80A30537889F801309378F2
:10163000069A89F8023094E8080120465B689847CA
:10164000039905FB0080FFF7BCFD94E808010E9AA2
:101650005B68059920469847039905FB0080FFF7D2
:10166000B0FD94E80801069A5B680F9920469847F8
:10167000039905FB0080FFF7A4FD94E808013946B3
:101680005B680E9A20469847039905FB0080FFF798
:1016900098FD94E8080132465B680F992046984708
:1016A000039905FB0080FFF78CFD94E8080139469B
:1016B0005B68109A20469847039905FB0080FFF766
:1016C00080FD94E8880032465B680D992046984773
:1016D000039905FB0070FFF774FD94E84800059935
:1016E0005B68109A20469847039905FB0060FFF756
:1016F00068FD019B01330193099B002B05DA0199D9
:1017000003EB41030133099309E0029B0199099A14
:10171000013B0293CB1A013302EB430209920A9B6D
:10172000002B05DA019903EB410301330A9309E029
:10173000049B01990A9A013B0493CB1A013302EBF3
:1017400043020A92029B01998B42BFF646AE0C9B64
:10175000013B0C93119B013311930C9B002B3FF722
:1017600030AE15B0BDE8F08F2DE9F04F89B00446DA
:1017700006929DF84820059103921E460325B5E088
:10178000059B059A9B1B01931F46069B9B1B06EB23
:101790000208029324E094E8080839465B68029A3C
:1017A000204698472368029A5B68D4F804A007F1A2
:1017B000010905FB00BB49462046984705FB00A1EF
:1017C0005846FFF7CAFB94E8080439465B68029A5A
:1017D00020469847039905FB00A0FFF7F2FC4F460F
:1017E0004745C146D7DD069ADDF808A0B71827E0BF
:1017F00094E8080852465B6841462046984794E8BA
:101800000C0007930AF10103049305FB00BB536826
:10181000049A414620469847079B05FB00315846ED
:10182000FFF79BFB94E8080852465B684146204658
:101830009847039905FB00B0FFF7C3FCDDF810A043
:10184000BA45BB46D4DD25E094E8080149465B680B
:101850003A462046984794E80C00049305FB008A1A
:1018600009F1FF38536841463A4620469847049BA1
:1018700005FB00315046FFF770FB94E80804494629
:101880005B683A4620469847039905FB00A0FFF79E
:1018900098FCC146019B9945D6DA23E094E888007C
:1018A0005A465B6801992046984794E8080105FB71
:1018B00000790BF1FF375B6801993A46204698475B
:1018C00005FB00814846FFF748FB94E808015A46AB
:1018D0005B68019920469847039905FB0080FFF754
:1018E00070FCBB46029B9B45D8DA013E002EBFF63A
:1018F00047AF09B0BDE8F08FF8B505460E460024A5
:10190000032706E06868314607FB0400FFF759FC2F
:101910000134AB689C42F5DBF8BD0278002362F32A
:101920000703427862F30F23827862F3174382B091
:10193000184602B07047FFFF1FB5002402A88DF8BB
:1019400008408DF809408DF80A40FFF7E6FF8DF852
:101950000000C0F30723C0F307408DF802008DF8A4
:101960000130009B0548ADF80C301B0C8DF80E3093
:10197000039905F029FC204604B010BDA0F9FF1F13
:101980001FB5002402A88DF808408DF809408DF895
:101990000A40FFF7C2FF8DF80000C0F30723C0F331
:1019A00007408DF802008DF80130009B0548ADF826
:1019B0000C301B0C8DF80E30039905F005FC204609
:1019C00004B010BDA0F9FF1F1FB5002402A88DF8B8
:1019D00008408DF809408DF80A40FFF79EFF8DF80A
:1019E0000000C0F30723C0F307408DF802008DF814
:1019F0000130009B0548ADF80C301B0C8DF80E3003
:101A0000039905F0E1FB204604B010BDA0F9FF1FCB
:101A10001FB5002402A88DF808408DF809408DF804
:101A20000A40FFF77AFF8DF80000C0F30723C0F3E8
:101A300007408DF802008DF80130009B0548ADF895
:101A40000C301B0C8DF80E30039905F0BDFB2046C1
:101A500004B010BDA0F9FF1F1FB5002402A88DF827
:101A600008408DF809408DF80A40FFF756FF8DF8C1
:101A70000000C0F30723C0F307408DF802008DF883
:101A80000130009B0548ADF80C301B0C8DF80E3072
:101A9000039905F099FB204604B010BDA0F9FF1F83
:101AA0001FB5002402A88DF808408DF809408DF874
:101AB0000A40FFF732FF8DF80000C0F30723C0F3A0
:101AC00007408DF802008DF80130009B0548ADF805
:101AD0000C301B0C8DF80E30039905F075FB204679
:101AE00004B010BDA0F9FF1FF0B50023032751F883
:101AF000232007FB03F54419160C01334655150A3C
:101B0000102B6570A270F2D1F0BDFFFF00220272AF
:101B100082720271014A0260704700BFC89E0100D4
:101B20007FB5002307480293694607F07FFC28B180
:101B300014200AF059F8034807F0C4F8029807B0D7
:101B400000BD00BF0C99FF1F10B5FFF7E9FF044669
:101B500018B1FFF7E5FFA042FBD0204610BDFFFF04
:101B600030B587B00546FFF7EFFF1F4A1F49034610
:101B700070B912680192019C0A68A11A1C4A126885
:101B800091422DD31B4A1368002B29D0106027E007
:101B900010680290029C0C60591C174916D11368FA
:101BA000059305980B68C01AA84205D3134B012270
:101BB0001A70104B1B6813E033B912680F48049277
:101BC000049A03700A600BE0002309E01268039294
:101BD000039A0A60094900220A7006490B601346FD
:101BE000184607B030BD00BFA81C00207CC5FF1FF1
:101BF0008491FF1FFC98FF1F0899FF1F0E99FF1F7C
:101C0000034A00231360034A1370034A13607047AA
:101C1000FC98FF1F0E99FF1F0899FF1F30B593B066
:101C2000FF238DF80E308DF811308DF812308DF8BD
:101C300014308DF815308DF8163004AB0022009367
:101C400005AB05468DF808208DF809208DF80A208F
:101C50008DF80C208DF80D208DF81020019302AA2C
:101C600006A8102103AB06F072FA06AC05F11102CA
:101C700012AD234603CB083242F8080C42F8041C8C
:101C8000AB421C46F5D113B030BDFFFF30B509297A
:101C90008FB0044601DD002304E0002901DBC160B0
:101CA00001E00923E360E368092B4DD8DFE803F086
:101CB00005090D1115191D3F434904F11100234970
:101CC0003CE004F11100224938E004F111002149FF
:101CD00034E004F11100204930E004F111001F4903
:101CE0002CE004F111001E4928E000238DF8043097
:101CF0008DF805308DF80630FF238DF800308DF813
:101D000001308DF8023001AA02A810216B4606F0BE
:101D100002FA113402AA0EAD134603CB083444F87C
:101D2000080C44F8041CAB421A46F5D10CE004F14F
:101D300011000C4902E00C4904F11100FFF7D4FE38
:101D400002E02046FFF76AFF0FB030BD506001008F
:101D5000A8600100D05F010010600100B0620100C6
:101D6000505E0100705F0100A85E010038B51221CD
:101D7000044600200BF0C7FD112804F54F5301DD88
:101D8000002204E0002801DBD86001E01122DA60C3
:101D900004F54F53186910B10368DB68984704F5E0
:101DA0004F550A21EB6803F6F44304EB830400204B
:101DB00063682B610BF0A7FD01460448FFF766FF3F
:101DC000286910B103689B68984738BD5098FF1F79
:101DD00037B50D7C04460095113106F01AFA2046FD
:101DE0003EBDFFFF2DE9FF4104461D4DA168E2689D
:101DF0006E682846FEF7E9FB4FF00308FF22012337
:101E000008FB00F8009303A813462946FFF7E0FFFC
:101E10009DF80C3006EB080706F808309DF80D30E9
:101E20007B709DF80E300821BB707F2300932846FD
:101E30000B460A46FFF798FC2846FEF7D3FBA3683B
:101E400001330F2BA36007DD0023A360E368013398
:101E50000F2BC8BF0023E360322004B0BDE8F0813F
:101E60005098FF1FFFFFFFFF2DE9F04F8DB00024BA
:101E7000064604A88DF810408DF811408DF81240E8
:101E8000FFF74BFD8DF80800C0F30723C0F30740B0
:101E90008DF80A008DF80930029B7148ADF82030AA
:101EA0001B0C8DF82230089905F08EF97369013307
:101EB0000AD120200BF01CFDF06020200BF018FD53
:101EC000AA233061B360746177693FBB0123327A22
:101ED0006449009305A8FF23B589348AFFF778FF8A
:101EE00005A8FFF71AFDC0F307238DF80800C0F31B
:101EF00007408DF80A008DF80930029B5848ADF86C
:101F000024301B0C8DF82630099BADF800301B0CDB
:101F10008DF8023029B222B23B468FE0B3699F426E
:101F200080F29180F069B6F80CB0B6F810A096F87F
:101F300008900DF0BFF80446B81E0D460DF0A8F845
:101F400002460B46204629460BF098FD42A3D3E9F2
:101F500000230DF003F90DF0C3FB4FF00108C3B2ED
:101F60004049CDF800804A4606A8FFF731FF06A891
:101F7000FFF7D3FC8DF80800C0F30723C0F3074038
:101F80008DF80A008DF80930029B3548ADF82830ED
:101F90001B0C8DF82A300A9BADF800301B0C8DF815
:101FA00002300FFA8BF1BBB20FFA8AF205F02BF870
:101FB0007769032F44DDF069B6F80C90B6F810B0DD
:101FC00096F808A00DF076F80446B81E0D460DF000
:101FD0005FF802460B46204629460BF04FFD1EA334
:101FE000D3E900230DF0BAF80DF07AFB1D49CDF8C6
:101FF0000080C3B2524607A8FFF7EAFE07A8FFF722
:102000008CFCC0F307238DF80800C0F307408DF85F
:102010000A008DF80930029B1148ADF82C301B0CDA
:102020008DF82E300B9AFB1EADF80020120C8DF8A7
:1020300002200FFA89F10FFA8BF29BB204F0E3FF52
:102040007369013301E04FF0FF33736132200DB04B
:10205000BDE8F08FAFF300800000000000E06F40AB
:10206000A0F9FF1F5098FF1F2DE9F04F054685B0DE
:1020700000244D4F8DE0324621464B48FEF7A5FA2D
:10208000D5F808340AFB03F305EB000893FBF9F1DC
:102090000020023198F808B00BF035FCC0B2C0EB5C
:1020A0000B0B01362BEAEB7B202E88F808B0E2D12F
:1020B00000264FF00308324621463B48FEF785FADA
:1020C00001368246214632463748FEF77EFA721CB8
:1020D000814621463448FEF778FA05EB09022818B4
:1020E000127A017A05EB0A0302EB410292FBF8F245
:1020F000202E1A72DFD1FF200BF0FAFBD5F80C343A
:1021000098420FD221461F222748FEF75EFA2E186A
:10211000FF2196F80880A0200BF0F5FB434683FAD8
:1021200050F3337200264FF00308214632461E4812
:10213000FEF74BFA2B181B7A19011A02521AC2F336
:1021400007223AB9796808FB00F00B180A545A7054
:102150009A7018E00123D7F804B01349009308FBE4
:1021600000FAFF2303A8FFF733FE9DF80C300BEBBA
:102170000A090BF80A309DF80D3089F801309DF8F6
:102180000E3089F802300136202ECED10134202CB9
:1021900005D000264FF00A0A4FF020096BE70F2008
:1021A00005B0BDE8F08F00BF5098FF1F2DE9F04F3C
:1021B0008DB0002506A88DF818508DF819508DF8AF
:1021C0001A50FFF7AAFB8DF81000C0F30723C0F3E5
:1021D00007408DF812008DF81130049B4A48ADF885
:1021E00024301B0C8DF82630099904F0EDFFFF21F7
:1021F00028460BF088FB0124C2B2009407A843498B
:10220000FF23FFF7E5FD6EE0002002218DF820009E
:102210008DF821008DF822000BF075FB01280BD101
:102220009DF81C308DF820309DF81D308DF8213040
:102230009DF81E308DF8223008A8FFF76EFB8DF850
:102240001000C0F30723C0F307408DF812008DF88B
:102250001130049B2C48ADF828301B0C8DF82A3027
:102260000A9B08F10407ADF804300FFA88F61B0C3E
:102270003FB28DF8063000970FFA8BF132460FFA15
:102280008AF304F07CFF022D21D008A8FFF745FB5C
:10229000C0F307238DF81000C0F307408DF812003B
:1022A0008DF81130049B0097ADF82C301B0C8DF885
:1022B0002E300B9B1448ADF804303246039E1B0CA5
:1022C0008DF806300FFA89F133B204F058FF08F1A7
:1022D000060C1FFA8CF8B8F11F0F95D101350634A2
:1022E000032DA4B20BD0C4F11E08CDF80C80A34678
:1022F00004F1040AC4F11A094FF0010884E74FF40D
:10230000FA600DB0BDE8F08FA0F9FF1F5098FF1FD5
:102310002DE9FF410668456898467368044698476A
:10232000032701234743009303A8FF232146424686
:10233000FFF74EFD9DF80C30EE19EB559DF80D3072
:1023400073709DF80E30B370BDE8FF8137B5134C44
:102350002046FEF707F9204694F8471094F84820E5
:1023600094F84330FFF7D4FF94F8491094F84A20CA
:1023700094F844302046FFF7CBFF2046FEF74CFE92
:102380002046FEF7A2F90025202320460095019360
:102390006E212A46FEF7B3FF28463EBD5098FF1F28
:1023A00037B5124C002220238DE80C007D212046F9
:1023B000FEF7A5FF2046FEF7D5F894F8492094F8DB
:1023C000471094F8480094F84A50511809184019D9
:1023D0000323821891FBF3F1204692FBF3F294F869
:1023E0004430FFF795FF14203EBD00BF5098FF1FFB
:1023F000F7B51F4C2023002205468DE80C007D21F7
:102400002046FEF77CFF2046FEF7ACF894F8471014
:1024100094F8482066682046FEF7D7F803272A7A02
:102420007843331832546A7A5A70AA7A9A7094F8B8
:10243000491094F84A202046FEF7C7F8EA7A784314
:10244000331832542A7B5A706A7B9A7094F847305A
:1024500094F8491094F84820C91894F84A30D218D2
:102460002046490852083223FFF752FF1420FEBDD0
:102470005098FF1F37B5194C002220238DE80C001F
:102480007D212046FEF73BFF2046FEF76BF894F8CF
:10249000492094F8471094F8480094F84A5051188D
:1024A000091840190323821891FBF3F1204692FB8F
:1024B000F3F294F84430FFF72BFF8C250B212046D4
:1024C0000A4605230095FFF74FF915212046009590
:1024D0000A460523FFF748F90F203EBD5098FF1F1D
:1024E0002DE9F74F0446002539E0D4F808A05FFA3B
:1024F0008AF84046FEF710F81FFA8AFA81460BFB6D
:1025000000A080B2FDF7E8FFC9F1800972000AF56A
:10251000804A034609FB02A080B20193FDF7DCFF6D
:102520008146C8F14000C0B2FDF7F6FF7843C0F322
:102530004F00FDF7D1FF019B4B4400FA83F040F3BD
:1025400007237F33324611482946DBB20136FFF7B5
:10255000DFFE202E2F44C8D10135202D06D04FEAB2
:10256000450B00271FFA8BFB3E46BEE7A3680133ED
:10257000A360E3680133B3F5006FE36002DB00237F
:10258000A360E3601E20BDE8FE8F00BF5098FF1FD0
:1025900038B5114CFA212046FFF7AEF92046FDF779
:1025A000E1FF94F84400FDF7B7FF00B20501281AD7
:1025B000C0F3072594F84600FDF7AEFF94F84810E5
:1025C00005F108020346C1F11F012046D2B2FFF710
:1025D0009FFE0F2038BD00BF5098FF1F2DE9F0432C
:1025E000044685B000681F4603AD0123066D0093C5
:1025F00089469046284621469DF83420FF23FFF760
:10260000E7FB0C9849468DE82100424620463B46B0
:10261000B04705B0BDE8F083F0B5264BC76E1B6828
:1026200085B004460393039E0346002215E041183B
:10263000D9605D69196993F818E0691871451961E5
:1026400003D093F819E0714501D16D425D61D968FD
:10265000751A8542EBD201321433BA4201DA986816
:10266000F5E7636A1448009394F838300193E16CFD
:10267000226E2369FFF7B2FF80240F210A46102340
:1026800000940D48FFF770F80622102113460094BD
:102690000948FFF769F80A210B46182200940648FA
:1026A000FFF762F80448FA21FFF726F9002005B089
:1026B000F0BD00BFA81C00205098FF1F2DE9F04F6F
:1026C000D0F80C588DB004460DB1002668E009A87A
:1026D0008DF824508DF825508DF82650FFF71DF900
:1026E0008DF81800C0F30723C0F307408DF81A00D7
:1026F0008DF81930069B6F48ADF82C301B0C8DF807
:102700002E300B9904F060FD274604F5006912E0B5
:1027100064200BF0EDF8D4F80828904207EB06038C
:102720002CBF2A4642460236402E1A725D72EFD105
:1027300040374F45C9D000264FF00108E8E75E4812
:1027400031462A464768FDF740FF0AEB450309FB7F
:1027500000FB1B7A012B07EB0B0808D1009394F8C0
:102760000C2855490AA8FF23FFF732FB06E0002397
:102770008DF828308DF829308DF82A309DF82830D2
:1027800007F80B309DF82930013588F801309DF8A5
:102790002A30202D88F80230D1D10136202E5BD08E
:1027A000039404EB861A00254FF00309C7E7391894
:1027B00006EB02090D7A09F104094D720595551CC5
:1027C00005F01F0814F819A004950BEB0809029DE9
:1027D00009F1040902F11F0CAA18043214F8199027
:1027E0000CF01F0CD14414F812A00BEB0C020432B5
:1027F000D14414F81220914406EB08020432A84494
:1028000008F1040814F8122014F818804A444244CD
:1028100005EB0C0808F10408B44414F818800CF116
:10282000040C424414F81C804244032A03D1059D41
:102830000DB901254D72023A012A04D90A7A012AFA
:1028400001D100224A72049A0230202AAFD101330A
:102850004037202B02D11DE02746002303F11F053E
:102860005E1C05F01F05002006F01F066D010246E4
:1028700076014FEA431B029599E7039DE91802335D
:10288000487A402B0872F8D101324035202A03954E
:1028900001D102E000220023EFE7D4F80C38013325
:1028A000FF2BC8BF0023C4F80C383C200DB0BDE896
:1028B000F08F00BFA0F9FF1F5098FF1F2DE9F04FC8
:1028C000044687B000254FF00A0B0BFB05FC04EB18
:1028D000451A002620896189A289CDF808C0604484
:1028E0000BFB061189B280B206F0EEF80AEB060285
:1028F00003469073194A2946576803931046324697
:10290000FDF763FE621902EB461201214FF0030945
:1029100009FB00F9927B039B009105A80F49FFF783
:1029200057FA9DF8143007EB090807F809309DF8AD
:10293000153088F801309DF81630013688F80230DD
:10294000202EDDF808C0C5D10135202DBBD1A389CB
:102950000433A381002007B0BDE8F08F5098FF1F1B
:102960002DE9F04F90F80834053380F8083490F8DA
:102970000934023380F8093490F80A34033380F8BC
:102980000A3490F80B34043385B0044680F80B34D5
:102990000546002695F80804FDF7BEFD00B2430188
:1029A000181A0012013685F80C040135042EF1D1F5
:1029B00094F80D3494F80C144C48C91894F80E345B
:1029C000C918032391FBF3F11F22FDF7FEFD251823
:1029D000FF212E7AA0200AF096FF334683FA50F3A7
:1029E000424F2B72002576E0324629463F48FDF7DC
:1029F000ECFDD4F810340AFB03F304EB000893FB5E
:102A0000F9F10020023198F808B00AF07CFFC0B25A
:102A1000C0EB0B0B01362BEAEB7B202E88F808B0BD
:102A2000E2D100264FF00308324629462F48FDF731
:102A3000CCFD01368246294632462C48FDF7C5FDBD
:102A4000721C814629462948FDF7BFFD04EB0902A7
:102A50002018127A017A04EB0A0302EB410292FB7E
:102A6000F8F2202E1A72DFD100264FF00308294613
:102A700032461E48FDF7A9FD23181B7A19011A02D8
:102A8000521AC2F307223AB9796808FB00F00B1812
:102A90000A545A709A7018E00123D7F804B0134909
:102AA000009308FB00FAFF2303A8FFF791F99DF8B4
:102AB0000C300BEB0A090BF80A309DF80D3089F841
:102AC00001309DF80E3089F802300136202ECED12B
:102AD0000135202D05D000264FF00A0A4FF02009BD
:102AE00082E70F2005B0BDE8F08F00BF5098FF1FB0
:102AF00008B500F6680007F0D1F808BD38B50546FE
:102B0000FFF7F6FF04462846FFF7F2FF44EA0020ED
:102B100038BD00F6680007F003B838B500F25C7500
:102B20004FF482720446002128460DF0BBFD20467A
:102B3000FFF7DEFFC2B229462046FFF7EAFF204634
:102B4000FFF7D6FFC2B2002AF5D138BD2DE9F04F0C
:102B500000F5875387B004925A680391002AC0F2A7
:102B6000D98000F58652049902F10C04154603F150
:102B70000C0601910294103505960DE0791ECCF8F3
:102B8000041017F8011C039F07F8011B0199039714
:102B90000139019100F0BA8000F5885C0CF1080160
:102BA000DCF804708F420CF1040BE7D800F5865472
:102BB000D2F814806646083419E0316829B92168D2
:102BC00011F801ABC6F800A02160216811F801AB33
:102BD000216029680AFA09FA4AEA01012960029982
:102BE00009F10809C1F80090316801393160029992
:102BF000D1F80090C145E0DB2E68029C46FA08F14E
:102C00002960C8EB0901216091690E4059688E4224
:102C100077D019688E4200F5875101F1140113D164
:102C2000D469013404F5846600EB86065461766845
:102C300096619E680E60012101FA04F44FF0FF31A5
:102C4000DC60D9619961A7E70C68A64208D19C694C
:102C5000002C56DB07F8014BCCF80470DC6911E05E
:102C60004FDA34460EE0071907F5A85704F242641C
:102C700097F80880DBF8007007F8018B50F82440C3
:102C8000CBF800709F68BC42EDDADCF8047007F8FE
:102C9000014BCCF80470059FD1F800C0D7F8008034
:102CA00000F58757C445A24607F11C0712DAD7F88A
:102CB0000090B9F1000F0DDB00EB0C0B0CF2426A37
:102CC0000BF5A85B0CF1010C40F82A908BF808403A
:102CD000C1F800C009689C6141453E60FFF65CAFE9
:102CE000516909293FF758AF0131516101F58461FC
:102CF00000EB8101059E49684FEA48043460916108
:102D00004AE700F587504FF0FF334360049F019975
:102D1000781A00E0002007B0BDE8F08F2DE9FF41F0
:102D200090F8283004465BB93DE004EB451101F50D
:102D3000086120460431E269FFF708FF083500E02A
:102D40000025236A9D42F0DB042509E004EB4511D0
:102D500001F5086120460431E269FFF7F7FE083506
:102D6000236A9D42F2DB022509E004EB451101F5DF
:102D7000086120460431E269FFF7E8FE0435236A62
:102D80009D42F2DB012509E004EB451101F50861E4
:102D900020460431E269FFF7D9FE0235236A9D42DD
:102DA000F2DBA5694CE085696E010BE06369E269BD
:102DB000F11801F50861611820460431FFF7C6FEDD
:102DC00001352036226AA369D3189D42EEDBE8E77D
:102DD000666904EB45174FF003082BE0BB19226B23
:102DE00093F88438934224D008FB034358331A796C
:102DF0008DF808205A799B798DF8092002A88DF862
:102E00000A30FEF78AFDC0F307238DF80000C0F3F7
:102E100007408DF802008DF80130009B0C48ADF89A
:102E20000C301B0C8DF80E3031B22AB2039B03F02C
:102E300097FF0136E2696369D3189E42CEDB013504
:102E4000226AA369D3189D42C2DBBDE8FF8100BF9F
:102E5000A0F9FF1F2DE9F7430446FFF74FFE60611D
:102E60002046FFF74BFEA0612046FFF747FEE061DA
:102E70002046FFF743FE20622046FFF739FEC0F3ED
:102E800080130606606284F828300DD500F0070034
:102E90000130012303FA00F30322A365204604F165
:102EA0005C015A43FFF735FE94F8443093B1216B2F
:102EB0004D1C0CBF217CC9B204F684004FF4806223
:102EC0000DF0F0FB002384F84430A364E364202376
:102ED00023656365A36B012B0AD900238DF80430A9
:102EE0008DF805308DF806306448019904F06CF9CE
:102EF000A36B022B1AD1A16C226D606DE36C94F868
:102F00003450C01856180BE004EB43170A4604E08F
:102F100007EB020E01328EF88458B242F8DB01331F
:102F20008342F1DBE36BA36313BB4EE0032BF9D1C8
:102F300004F1480065C804F68447530104F6840E82
:102F4000DF199E440021B6182D180EE001EB070C86
:102F500001EB0E08034604E01CF8039008F8039008
:102F60000133AB42F8DB01322031B242EEDBD9E76C
:102F700004F1140065C8A064022BE264256566654F
:102F800005D1236B581C08BF236963631DE0032B25
:102F90001BD1530104F6840704F6844EDF199E44C6
:102FA0000021B6182D180EE001EB070C01EB0E08FE
:102FB000034604E01CF8039008F803900133AB4289
:102FC000F8DB01322031B242EEDB2046FFF790FD04
:102FD00020642046FFF78CFD0026054604F66807AE
:102FE00012E0D4F874183846013906F07DFE013538
:102FF000A1192A4601F557712046FFF78AFD2046A0
:10300000FFF776FD76190546002DEAD1216C481CA4
:1030100000F5846604EB860604F5865304F5885EA5
:1030200004F5577276689A607246DD60D96158611E
:103030009E611D61012604F5875306FA01F142F8ED
:10304000085B06FA00F04FF0FF37D8601960881966
:1030500002315860996059619F61DF612046CEF866
:103060000420FFF75BFEE36A2763002BD8BFE6620C
:10307000E36AE5630A205843BDE8FE83A0F9FF1F19
:103080001FB5062201A9FFF744FD01A80849062241
:103090000DF0B2FF48B1062201A806490DF0ACFFC1
:1030A000D0F1010038BF002000E0012005B000BDD4
:1030B000ED600100F460010010B50446FFF71EFD4D
:1030C00020602046FFF71AFD60602046FFF710FDE4
:1030D000A0602046FFF70CFD20612046FFF708FDA9
:1030E000E06010BD08B583681A0601460BD503F0F1
:1030F00007030122013302FA03F3032283655C31E3
:103100005A43FFF706FD08BDF8B50446002700F254
:103110005C752046FFF7ECFCC0B22C2803D120469A
:10312000FFF798FEF8BD212852D12046FFF7E0FCBA
:10313000C0B2F92817D002DC012853D104E0FE28E0
:103140003BD0FF284ED13FE02046FFF7D1FCC2B272
:1031500029462046FFF7DDFC2046FFF7C9FCC2B236
:10316000002AF5D1D5E72046FFF7C2FC2046FFF73D
:10317000BFFC06462046FFF7C1FCE0622046FFF791
:10318000B7FCF1074CBF20634FF0FF33C6F382005A
:1031900058BF23630328C8BF3846E0632046FFF7C3
:1031A000A7FCB6E700214FF4827228460DF07AFAA8
:1031B000204629463246FFF7ACFC2046FFF798FC34
:1031C000C6B2002EEED1A4E72046FFF7A6FCA0E78A
:1031D000D4F8741804F66800013906F085FD6FF024
:1031E0000400F8BD6FF00300F8BDFFFF284B1B780B
:1031F000F7B504460F46002B31D02648237D85784D
:103200001BB90C2D01D90C3DEDB20278437822494F
:10321000009204F108062A4630460DF0D3FC202126
:103220001E4803F0F3FB05211C4803F0D9FA04F112
:1032300010011A4803F0E4FB184803F0A7FA012331
:10324000092D94BF05211946009314483AB233461C
:1032500003F00CFB1148002103F0A0FA15E0C37C39
:103260009BB90125C57405210C4803F0A7FB0B4849
:10327000052103F0BDFB094804F1100103F0C0FB78
:10328000064807492A4603F03FFB0020FEBD00BF69
:10329000BCC3FF1F0099FF1FFB600100A0F9FF1FC7
:1032A0000361010008B5B0F90E10FFF79FFF08BDDC
:1032B0002DE9F04F7E4B9D78037D91B00646884600
:1032C0001BB90C2D01D90C3DEDB2B8F1000F03D0A4
:1032D000B8F1010F0AD104E0092D8CBF02240024AB
:1032E00008E0092D94BF1224142407E0B8F1000F60
:1032F00003D14446092D36D900E0002470238DF80F
:10330000203080238DF8213008A890238DF82230BA
:10331000FEF703FBC0F307238DF81800C0F3074046
:103320008DF819308DF81A000699F789ADF830102C
:103330001FFA84F9090C4B468DF83210991C019143
:103340000C995C48ADF80C1007F1FF3A023F090CEC
:103350000FFA8AF23FB28DF80E10009702922146C2
:10336000013303F0D9FEF38970218DF824108021F8
:103370005A1E8DF8251009A890218DF82610049268
:103380000593FEF7CAFAC0F307218DF81800C0F3C1
:1033900007408DF81A008DF819100699059BADF8B5
:1033A0003410A7B2090C023B8DF836101BB207F19E
:1033B000080B049A3F488DE808080D9B07F1060AA0
:1033C00007F1070912B2ADF80C301B0C8DF80E3066
:1033D000029251464B4603F09FFEB8F1000F01D117
:1033E000092D31D970238DF8283080238DF82930AC
:1033F0000AA890238DF82A30FEF78FFAC0F307232E
:103400008DF81800C0F307408DF81A008DF81930B8
:10341000069BF589ADF838301B0C8DF83A30BB1C93
:1034200001930E9B2348ADF80C3005F10B080C35C9
:103430001B0C0FFA88F22DB28DF80E300095029217
:1034400021467B1C03F068FE70238DF82C3080230E
:103450008DF82D300BA890238DF82E30FEF75DFAF5
:103460008DF81800C0F30723C0F307408DF81A0049
:103470008DF81930069BF489ADF83C301B0C8DF8A3
:103480003E300F9B0B48ADF80C3004F10B050C34AB
:103490001B0C2AB224B28DF80E308DE8100802926F
:1034A00051464B4603F038FE11B0BDE8F08F00BF27
:1034B0000099FF1FA0F9FF1F2DE9F04F05468DB0C1
:1034C0000224B5F80E80A3B2991C08F1FF324FF028
:1034D000700B4FF0800A4FF0900908A85E1C059110
:1034E00004928DF820B08DF821A08DF82290FEF77F
:1034F00014FA8DF81800C0F30723C0F307408DF8C5
:103500001A008DF81930069B0599ADF82830A8F1FE
:1035100002081B0C8DF82A300FFA88F3049A0093E6
:103520000A9B2548ADF80C3027B212B20FFA81F889
:103530001B0C36B2394602928DF80E30CDF804805D
:10354000334603F0E9FDEB898DF824B003F10B025B
:1035500009A8049205938DF825A08DF82690FEF712
:10356000DCF98DF81800C0F30721C0F307408DF88F
:103570001A008DF819100699059BADF82C100C3324
:10358000090C8DF82E101BB2049A0B488DE8080127
:103590000B9B12B2ADF80C3006341B0C8DF80E30BC
:1035A000029239463346A4B203F0B6FD202C88D1EE
:1035B0000DB0BDE8F08F00BFA0F9FF1F37B50B4D70
:1035C0002B680093009A8368D31AFA2B04460CD90F
:1035D000074807F0F1FE074B30B101221A702B6843
:1035E0000193019BA36000E018703EBDA81C002061
:1035F0000099FF1FBCC3FF1F10B50446FFF7DEFF95
:10360000606910B103685B689847002010BDFFFF38
:10361000F8B5234D234E244F0446236820465B68AB
:1036200098472248FFF7E8FF2148217AFFF740FE3C
:103630000121204803F058FE2868FEF791FAB042B5
:1036400020D00BD81C4B984219D003F57F639842C9
:1036500025D0A3F5FF53984217D10AE0B8421ED0F7
:10366000164B98421BD0164B98420ED1207A01215E
:1036700002E0207A4FF0FF31FDF708FC05E0E36837
:10368000013B01E0E3680133E360E368022B01D909
:103690000023E360E3680B4AD35C2372BDE7F8BD07
:1036A000A491FF1F7F80EF1027D8EF10309AFF1FE3
:1036B000A098FF1FA0F9FF1FEF10EF1007F8EF1001
:1036C0005FA0EF10A191FF1F08B5FF2100200AF0B5
:1036D0001AF90CF02FF904490CF034FA4FF07C5130
:1036E0000CF072F808BD00BF00007F430A6802605A
:1036F0004A6842608A688260CA68C2600A69026178
:103700004A6942618A698261CA69C2610A6A02625F
:103710004A6A42628A6A82627047FFFF2DE9F84F67
:10372000DFF8709080460C46FF2500264FF0030A14
:1037300008EB060318F8061016485A78D9F80470F2
:10374000FCF743FF21780AFB00FC15F0FF0F07EBA5
:103750000C000CBF4FF0000B4FF0010B11B169438F
:103760000BEB21216278217012B16A430BEB22220C
:10377000A378627013B16B430BEB23230236A37063
:103780000F3D0334202E07F80C1042708370CFD108
:10379000BDE8F88F5098FF1F2DE9F04389B0074628
:1037A000002606A88DF818608DF819608DF81A604B
:1037B000FEF7B3F88DF81000C0F30723C0F30740FD
:1037C0008DF812008DF81130049B3B48ADF81C3089
:1037D0001B0C8DF81E30079903F0F6FC97F8382083
:1037E000531C87F83830354B0093FF23019307F1C2
:1037F00008080123029340461021052304F064FDCC
:103800004FF0210909FB067538356C1C23460F2241
:10381000998B013AD983023B12F0FF02F8D10A20BA
:103820000AF066F807281CD994F82030032B18D822
:10383000DFE803F002020B0B002002210AF063F81C
:10384000012814BF0220032009E0002002210AF011
:103850005AF8B0F1010EDEF1000050EB0E0084F8D2
:10386000200094F82030032B1AD8DFE803F0020C74
:1038700007136378013303F01F0309E06B7801330A
:1038800003F01F030BE063780BB1013B00E01F2343
:10389000637005E06B780BB1013B00E01F236B7098
:1038A000204641460136FFF739FF062EAAD11E20D9
:1038B00009B0BDE8F08300BFA0F9FF1F6198FF1FAA
:1038C000013A072A17D8DFE802F00407160D16168A
:1038D00016114B685A1E01E04B685A1C0B68426077
:1038E0000360704791E80C00013A02E091E80C0097
:1038F000013280E80C0070472DE9F04704468EB095
:10390000D4F81C39D0F81809012B01D0451E02E06B
:1039100009F0EEFF0546002DC0F2098105F12302F2
:1039200004EBC20292E8030004F5887383E8030005
:10393000D4F814314FEA40094FEA43080026FF2328
:1039400002A88DF80A30CDF82090CDF824808DF8AB
:1039500008608DF80960FDF7E0FFC0F307238DF8DC
:103960000000C0F307408DF802008DF80130009B85
:103970007048ADF814301B0C8DF816300FFA89F131
:103980000FFA88F2059B03F0EBF90421304609F0A9
:10399000BAFFA319201893F8242990F824190136A6
:1039A000042E83F8241980F82429EED1264604F148
:1039B000040904F5887A96F824890AA851464246F3
:1039C000FFF77EFF0A9B002B68DB0B9A002A65DB62
:1039D0000F2B63DC0F2A61DC04EB0210C01800F12E
:1039E000100E017C002959D1D4F81411D4F810011B
:1039F00004EB01110918087C48EA0000087408F17A
:103A0000FF319EF8000007290CD8DFE801F0040A16
:103A10000B060B0B0B08022704E0082702E0042723
:103A200000E0012704EB0212D318074308A942461D
:103A30001F740CA8FFF744FFFF2303A88DF80C3078
:103A40008DF80D308DF80E30FDF767FF8DF8000012
:103A5000C0F30723C0F307408DF802008DF8013052
:103A6000009BBDF83060ADF81830BDF834503148D7
:103A70001B0C8DF81A3031B22AB2069B03F070F994
:103A8000D4F818395A1C2333C4F8182904EBC3049A
:103A90000AAB93E8030084E8030048E001364E4592
:103AA00089D111E0F11801F5887201F58C7103C913
:103AB00082E803000135D4F81829013A0833954209
:103AC000F0DBC4F8182932E005F1230304EBC3034B
:103AD00093E803000EAB03E903000C9F0D9EFF2348
:103AE00076007F0004A809968DF810308DF811300B
:103AF0008DF812300897FDF710FF8DF80000C0F325
:103B00000723C0F307408DF802008DF80130009BB9
:103B10000848ADF81C301B0C8DF81E3032B2079BE4
:103B200039B203F01DF904EBC5060023C3E70EB05C
:103B3000BDE8F087A0F9FF1F70B5D0F81839002B49
:103B400086B004463FDC002502A88DF808508DF8A9
:103B500009508DF80A50FDF7E0FE8DF80000C0F323
:103B60000723C0F307408DF802008DF80130009B59
:103B70002248ADF80C301B0C8DF80E30039903F081
:103B800023FB2B46294608E050190135102D0174FE
:103B9000FAD11033B3F5807F02D00025E218F3E7A5
:103BA000284609F0A5FE0646284609F0A1FE04961F
:103BB000059006AA12E9030004F58C7383E803005C
:103BC0000123C4F818392046FFF796FED4F81839B7
:103BD000002B0CDCD4F81C39D4F820290133934293
:103BE000C4F81C3905DB0023C4F81C3901E00020AF
:103BF00001E04FF47A7006B070BD00BFA0F9FF1F5E
:103C00002DE9F04F8DB00024099283468A46046066
:103C10004460DFF80C9173E004EB0A0202EB4512FA
:103C200002F58052127C002A64D0A31C0293DFF8B4
:103C3000F080AB1C661E0593721C4FD0202E4DD019
:103C40000AEB0603039333B26F1E04930DB9002CE5
:103C500040D07B1C3ED0202F3CD0039B03EB47126F
:103C600092F8102CB2B339B2049A2C4803F032F80F
:103C7000C0F307228DF81800C0F307408DF81A0032
:103C80008DF81920069A9DF82410ADF82C205FFAC3
:103C900082FCC1EB0C019DF825C0100CC2F3072279
:103CA000CCEB02029DF826C08DF82E005243C0B224
:103CB000CCEB000C01FB01210CFB0C1CC44521DBEF
:103CC00008D10220CDF804C009F012FE0128DDF869
:103CD00004C017D0059B01379F42B7D1029B013624
:103CE0009E42A9D1C8450FDB04D1022009F000FE95
:103CF000012809D00135202D8ED10134202C09D086
:103D0000002589E7E046E5E7CBF80050CBF8044012
:103D1000C146EFE758460DB0BDE8F08FA0F9FF1F90
:103D20003F420F002DE9F04F464B8DB00024099221
:103D30000646039104604460029375E009EB0403B6
:103D400003F580531B7C002B66D04FF0000B651EE3
:103D50004FF0FF3ACDF804B0691C4BD0202D49D06C
:103D600005EB09012AB207F1FF38002304910592FF
:103D7000B8F1FF3F39D0B8F1200F36D00499CA18F6
:103D800092F8F02B8AB3019A2F48009301320192E6
:103D90000FFA88F1059A02F09DFFC0F307228DF813
:103DA0001800C0F307408DF81A008DF81920069A04
:103DB0009DF82410ADF82C205FFA82FCC1EB0C01B9
:103DC0009DF825C0009B100CC2F30722CCEB020229
:103DD0009DF826C08DF82E005243C0B2CCEB0000F7
:103DE00001FB012100FB001083442033602B08F10C
:103DF0000108BDD10AF1010A0135BAF1020FABD1B8
:103E0000019B9BFBF3FB029B9B4511DB04D15046BE
:103E100009F06EFD01280BD00137202F09F1200990
:103E20008CD10134202C08D0DDF80C90002785E7D8
:103E300037607460CDF808B0EEE730460DB0BDE8ED
:103E4000F08F00BF3F420F00A0F9FF1F2DE9F041A6
:103E5000044606460025032728464FF4806109F0F2
:103E600052FD07FB05F21032A318784314F802C084
:103E700059789A782318103033F8108FA6F81080EC
:103E80009B780135B37423180336B5F5806F04F8B9
:103E900000C059709A70DFD1BDE8F0812DE9F04F74
:103EA000FF2187B08146002009F02DFD00265FFA32
:103EB00080FA354651E004A802A98DF8122000923C
:103EC0008DF811408DF8108004F0E4FA032303FB11
:103ED000079302A803F1100B0193FDF71EFD019B50
:103EE00010341874A4B2C0F30723C0F307408BF852
:103EF00001308BF802000137B4F5807F009ADAD1E7
:103F000005F11007FF2205A803A98DF815200092DE
:103F10008DF816408DF8148004F0BCFA032303FBDF
:103F2000079303A803F1100B0193FDF7F6FC019B27
:103F3000103C1874C0F30723C0F307408BF801301E
:103F40008BF80200A4B20137009A002CDBD1203597
:103F50000836B5F5806FF6B205D006EB0A082F4695
:103F60000024FF22A7E707B0BDE8F08F2DE9F04756
:103F70000446042009F0BCFC032800F28D80DFE831
:103F800000F0224D788808FB01FE0EF1100E04EBC4
:103F90000E07013190FBF5FAB1F5806F04F80EA021
:103FA00087F8019087F802C06ED0FF30B042EAD1A6
:103FB000FF32B24203D092FBF5F90020E3E7FF3372
:103FC000B34207D160E0002319460A254FF00308E9
:103FD00040F6F52693FBF5FC0022ECE708FB01FE1A
:103FE0000EF1100E04EB0E07013104F80EC0B1F50E
:103FF000806F90FBF5FE87F801E087F8029043D0D0
:10400000FF30B042EAD1FF32B24203D092FBF5F961
:104010000020E3E7FF33B34207D135E00023194620
:104020000A254FF0030840F6F52693FBF5FC002225
:10403000ECE708FB01FE0EF1100E04EB0E07013158
:1040400004F80EC0B1F5806F90FBF5FE87F8019083
:1040500087F802E018D0FF30B042EAD1FF32B24216
:1040600003D092FBF5F90020E3E7FF33B34207D119
:104070000AE0002319460A254FF0030840F6F5260A
:1040800093FBF5FC0022ECE72046FFF7DFFEBDE8DE
:10409000F0872046FFF702FFBDE8F0872DE9F041E9
:1040A00000F5A05686B0356904463DBB052007F0F3
:1040B000B9FA09F0F5FB8DF808508DF809508DF824
:1040C0000A500299484803F07FF82046FFF74EFF58
:1040D000022009F00DFC2A4670610CE0C118203363
:1040E00081F8102C01F58051B3F5806F0A74F5D179
:1040F0000135202D02D000236019EFE704F5A0520E
:104100000323116903FB014333F8100F9B78ADF8CB
:1041100004008DF8063041B9202009F0E9FB05467E
:10412000202009F0E5FB064617E05369019AADF837
:104130000C20120C8DF80E2013B1012B0BD105E0D1
:1041400004A82146039AFFF75BFD04E004A821467A
:10415000039AFFF7E7FD059E049D04EB4517BB1985
:1041600003F5805200214FF00108117483F8108C80
:1041700029B232B21C48019B02F0F2FD721E4FF0D0
:10418000FF31531C04D1013101320229F9D11BE066
:10419000202AF8D0D6194FF0FF3303B981B158194E
:1041A000B0F1FF3F0CD020280AD006EB431090F866
:1041B00010CCBCF1000F03D100F5805080F81080C6
:1041C0000133022BE9D1DEE704F5A0540020236976
:1041D0000133B3F5806FAABF2061236140F6B83088
:1041E00006B0BDE8F08100BFA0F9FF1F30B5184848
:1041F0008FB0012206F032FA30B30021154805F0E5
:1042000073FD05A8FDF782FC002407AD0FE09DF8C3
:104210001E30012B08D1284601A905F026FC01A873
:10422000FCF700FE00B10134284605F019FE2846CF
:104230000849012205F0BCFE0028E8D106490448DF
:10424000012206F00BFA00E0044620460FB030BD14
:10425000B898FF1FE098FF1F6F61010070B5141E32
:104260008EB01E463FDB129A94423CDA1F48012270
:1042700006F0F4F918B91D481D4906F07DFA05A8A5
:10428000FDF744FC1B48002105F02EFD07AD0BE0B7
:10429000284601A905F0E9FB01A8FCF7C3FD00B120
:1042A000013C284605F0DCFD28461249012205F0B4
:1042B0007FFE80B1002C09DA0DE00C480E4906F0B3
:1042C0005BFA304601A90CF039FE0CE09DF81E3077
:1042D000012BE6D1DCE705480849012206F0BEF9CA
:1042E0000028EED1E9E70EB070BD00BFB898FF1FFF
:1042F0000C610100E098FF1F2A6101006F6101005D
:104300002DE9F041264B1B78D0B00546002B43D059
:10431000837E13B1183005F0A3FDAB6B00936A6B7D
:10432000E96803AB2846FFF799FFE96810A80CF08D
:1043300005FE05F1180803A910A80CF06BFC404617
:1043400010A9012205F04CFF30B3AB7E012B00D049
:1043500018E046460FCE09AC0FC496E8070009AE38
:1043600084E807000FCE95F814E00E4D0E4F0FC5F0
:1043700094E8070087F864E885E807003846FEF708
:104380007FFE18B9404605F06BFD05E03846FEF7A4
:1043900093FE3846FEF7A6FE50B0BDE8F08100BFA0
:1043A0000D99FF1FF8A2FF1F909AFF1F08B5FFF796
:1043B000A7FF08BD30B5184B1C7885B00546ECB991
:1043C0008DF808408DF809408DF80A40029913488D
:1043D00002F0FAFE0121114802F01CFF104B0F48B9
:1043E0001A889B78ADF80C208DF80E300D4B042107
:1043F00000931822039B02F015FF0AE0847E44B16B
:104400000948FEF781FE431D044602D12846FFF706
:1044100077FF204605B030BD0D99FF1FA0F9FF1FA3
:10442000005E01004D610100909AFF1F10B5044627
:10443000002007F0F7F80B4BA16B1A888018188042
:10444000002009F060FAA36B6063984201DB00234F
:1044500002E0002801DA013B63632046FFF750FFCA
:1044600010BD00BFF891FF1F08B5436BC918836BDF
:104470004163994201DB002302E0002901DA013B9C
:104480004363FFF73DFF08BD13B54FF0FF320262F3
:10449000012280F824200A220D2302634FF47A724D
:1044A0000360C26300238264182204460373037608
:1044B000C36180F825308362C36280F8343080F8AD
:1044C0003530836380F8403080F84130436480F8B1
:1044D0004C3080F84D20802201A88DF804308DF8F2
:1044E00006308DF80520FDF718FAC0F3072384F88D
:1044F0004E00C0F3074084F8500084F84F30204647
:104500001CBDFFFF2DE9F04190F8023190B0064646
:104510001BB100F5807005F0A3FC214B01AA03F14B
:10452000100518685968144603C40833AB42224684
:10453000F7D118681B79206006F580782371404612
:1045400001A9012205F04CFE38B396F80231012B87
:1045500000D018E045460FCD09AC0FC495E8070020
:1045600096F8FCE00F4D104F09AE84E807000FCE1F
:104570000FC594E8070087F864E885E80700384627
:10458000FEF77EFD18B9404605F06AFC05E03846A6
:10459000FEF792FD3846FEF7A5FD10B0BDE8F081AC
:1045A00053610100F8A2FF1F909AFF1F1FB500235F
:1045B000044602A88DF808308DF809308DF80A30CD
:1045C000FDF7ABF98DF80000C0F30723C0F30740F7
:1045D0008DF802008DF80130009B0648ADF80C30D4
:1045E0001B0C8DF80E30039902F0EEFD2046FFF70C
:1045F00089FF1FBDA0F9FF1F38B590F8024105469D
:1046000044B10548FEF780FD421D044602D128460C
:10461000FFF778FF204638BD909AFF1F1FB51E4850
:1046200002F0B4F801221D491B4802F06DF9002484
:1046300002A88DF808408DF809408DF80A40FDF772
:104640006CF98DF80000C0F30723C0F307408DF824
:1046500002008DF80130009B0F48ADF80C301B0CA8
:104660008DF80E30039902F0AFFD01210A4802F0E7
:104670003BFE094802F08AF821460748084C02F040
:104680008DF8FDF761FAA04204D04FF4FA7007F0FC
:10469000ABFAF6E71FBD00BFA0F9FF1FED9C0100BC
:1046A00027D8EF10054B064A1B780020815C994201
:1046B00003D201300528F9D100207047A891FF1FCF
:1046C0009B91FF1F054B064A1B780020815C994295
:1046D00003D201300528F9D100207047A091FF1FB7
:1046E0008891FF1F064B074A19781078814201D242
:1046F000187070471279914288BF1A70704700BFD6
:10470000A891FF1F9B91FF1F064B074A197810784D
:10471000814201D2187070471279914288BF1A7095
:10472000704700BFA091FF1F8891FF1F2DE9F04344
:104730001F46214B1B788FB0044689469046002BBC
:1047400035D01E48214605F0BBFF20B91B48214645
:10475000012205F0B8FF05AE304606F10805FDF769
:10476000D5F928464946012205F03AFDF8B101ACD9
:104770000021204609F012F9284605F08FFA01279A
:10478000C1B207E0204609F042F9284605F086FA52
:104790000137C1B24745F5DD06F1080005F060FBC1
:1047A000204609F066F90746204609F0B6F8384673
:1047B0000FB0BDE8F08300BF0D99FF1FB898FF1F31
:1047C00038B502220B232449244D04462448FFF720
:1047D000ADFF0B23E881022221482249FFF7A6FF03
:1047E000B5F90E30003018BF0120002B287501DA12
:1047F000002302E0172B01DD1723EB8101220023A8
:1048000017481949FFF792FF002801DCE06001E03A
:104810000023E360236820461B6900219847134961
:104820000F480322FF23FFF781FF1149207603225F
:10483000FF230B48FFF77AFF0E4960760322FF2320
:104840000748FFF773FF054B627E217EA07619743F
:104850005A74987438BD00BF71610100A098FF1FA1
:10486000686101008461010099610100AE6101008D
:10487000C1610100D461010070B5114D1149124EA2
:10488000124C0322FF232846FFF750FF3070FFF73A
:1048900029FF2046317801F003FF03223F230C4912
:1048A0002846FFF743FF0B4D2870FFF72DFF2046EA
:1048B000297801F001FF0848FFF782FF70BD00BFB3
:1048C00068610100E7610100A891FF1FA0F9FF1FC7
:1048D000FC610100A091FF1F309AFF1F30B53348E3
:1048E00085B004F037F9324802F024FD314B3048EE
:1048F000197801F0D5FE01212D4801F091FE002428
:1049000002A88DF808408DF809408DF80A40FDF79F
:1049100004F88DF80000C0F30723C0F307408DF8BA
:1049200002008DF80130009B2148ADF80C301B0CC3
:104930008DF80E30039902F047FC1D48012102F06A
:10494000D3FC1B48052102F065FC1948082102F040
:1049500067F819480F21042205F064FE174B187000
:1049600038B1174D17492846E960FFF73FFC6C63E3
:10497000A8631548C1680131FDF788F9134B03227C
:10498000122000211A6007F0F5F81320002107F02B
:10499000F1F80F4A40F2032313605360074B1B7872
:1049A0000BB1FFF769FF05B030BD00BF0C99FF1FC9
:1049B000A0F9FF1FA891FF1FB898FF1F0D99FF1FB7
:1049C0004C9AFF1F116201005098FF1F78C5FF1F0E
:1049D00000A0044070B5154B1B788AB004460D4604
:1049E00016460BB31248214605F06AFE20B910485E
:1049F0002146012205F067FE01A8FDF787F8294648
:104A00000C48FCF79DFA03AC0A4808F0C7FE2046A4
:104A10002946522205F0E4FB30B101A8314608F0E6
:104A200003FF204605F01CFA0AB070BD0D99FF1F68
:104A3000B898FF1F701F0020024B034803491A78E3
:104A4000FFF7C8BFA091FF1F68610100FC61010072
:104A500010B5104B10491A7800235C5C944203D2C5
:104A60000133052BF9D10023181803D40428C8BF3B
:104A7000002000E00420084B064C1B5C2370FFF76D
:104A800043FE0648217801F017FEBDE81040FFF70D
:104A9000D3BF00BFA091FF1F8891FF1FA0F9FF1F88
:104AA000F0B500248BB035E0E7000F260025102D6F
:104AB0004FF0FF03C8BF8DF8113005A9C8BFC6F17C
:104AC0000D0304A8D8BF8DF811608DF812308DF851
:104AD000107003F0F2FC05A8FCF71FFF8DF808002A
:104AE000C0F30723C0F307408DF80A008DF80930A2
:104AF000029B4D48ADF81C301B0C8DF81E302AB2BD
:104B000021B2079B01350F3602F02AF9202DF6B2AB
:104B1000CDD101341E2CC7DDFF250024002305A9BB
:104B200004A88DF810308DF811308DF8125003F074
:104B3000C4FC05A8FCF7F1FE8DF80800C0F30723BC
:104B4000C0F307408DF80A008DF80930029B364803
:104B5000ADF820301B0C8DF822301F2122B2089BAB
:104B60000134063D02F0FCF8202CEDB2D6D1012133
:104B70002D4802F0B9FBFFF7A5FD0AF0DBFE4FF070
:104B80007A510AF02BFF29490AF028FF0BF0ECF8C4
:104B9000021E04DC264B1B78002B18BF012225497E
:104BA00009A80CF00FF820211F4801F02FFF052164
:104BB0001D4801F015FE204B1B481A889B78ADF864
:104BC000182006A98DF81A30012401F019FF1648A3
:104BD00001F0DCFD0B22042109AB1348009401F025
:104BE00045FE0021104801F0D9FD144B1868FCF770
:104BF000B7FF134A90420CD003D8124A90420AD011
:104C000002E0114A90420CD002F5FF52904206D1C8
:104C100007E0204601E04FF0FF30FFF719FF0024C6
:104C200042E70BB0F0BD00BFA0F9FF1F0000C84273
:104C3000A891FF1F18620100035E0100A491FF1FED
:104C40005FA0EF10FF00EF1027D8EF10024B0348D2
:104C500003491A78FFF7BEBEA891FF1F68610100E3
:104C6000E761010010B50446FFF71CFD001903D4ED
:104C70000428C8BF002000E00420074B074C1B5C41
:104C80002370FFF72FFD0648217801F009FDBDE8EC
:104C90001040FFF7DBBF00BF9B91FF1FA891FF1FD4
:104CA000A0F9FF1F08B50120FFF7DCFF034B1878C0
:104CB000034B1B78834208BF002008BDA891FF1F4B
:104CC0009B91FF1F2DE9F04F974D95B00446894603
:104CD0009046AA4694F8353033B12B680693069A6D
:104CE000A36B9A4280F06F8294F8413033B12B6805
:104CF0000793079A636C9A4280F06C82E269236A98
:104D00009A420AD194F84C303BB994F8343023B924
:104D100094F84030002B00F027810026834884F867
:104D20004C6001F033FD8148314601F037FDE26906
:104D3000236A9A4226D0A06810B10368DB689847BE
:104D4000E3690C22236202FB03931A6862605A68CB
:104D5000A2601B7AA068237310B103689B68984710
:104D6000A0680368206160611B689847A36A207689
:104D700043B12B680893089A236B4FF47A7101FBB7
:104D80000323E36294F840301BB994F84130002BC0
:104D900039D00023052184F84030644801F020FD1B
:104DA000634B62481A889B78ADF8142005A98DF8EA
:104DB000163001F025FE20215C4801F027FE5D4BF6
:104DC0005A48197801F078FCFFF76CFC0AF0B2FD44
:104DD0004FF07A510AF002FE57490AF0FFFD0AF03F
:104DE000C3FF021E04DC554B1B78002B18BF0122A9
:104DF000534905A80BF0E6FE012300934B4804211C
:104E00000B2205AB54E094F834301BB994F83530DC
:104E1000002B50D00026454884F83460314601F01C
:104E2000DFFC424804F14E0101F0EAFD20213F4839
:104E300001F0ECFD3F4B3D48197801F03DFCA76ABD
:104E4000012F15D003D3022F40F08E8020E03D4A81
:104E5000364801920723012700930C210A2202976A
:104E600001F022FD00973148374B314612221FE0F6
:104E7000364A2E480192072300930C210A220297FA
:104E800001F012FD00972948314B314612220FE004
:104E90002E4A264801920723012700930C210A225B
:104EA000029701F001FD21482A4B0097314612225A
:104EB00001F0DCFC58E094F824304BB366683046CF
:104EC00006F07CFC052148431F28D8BF0321174862
:104ED00001F074FD94F84D10144801F075FD0121A6
:104EE000124801F085FD04F14E01104801F088FDE3
:104EF00021680E4801F08AFD0E4B0C48197801F02C
:104F0000DBFB0A4831464FF0FF3201F0FDFC2BE09D
:104F100094F82530054810490122FBB101F0F4FC5A
:104F2000044B024819781DE0A81C0020A0F9FF1FBF
:104F3000035E0100A091FF1F0000C842A891FF1F5F
:104F4000186201009491FF1F1E6201008D91FF1FE6
:104F5000266201002F620100ED9C010001F0D4FCEB
:104F6000A048FF2101F0A8FB9F48FBF73BFF2B68FF
:104F7000A06813930368139E5B68984794F82430E5
:104F800007465BB994F8353043B994F841302BB9F2
:104F900094F8253013B19548FEF72EFB9248FBF7A5
:104FA0002BFF2B681293129A2B680993099B961B6F
:104FB0009E1BF6198E4F3868FCF7D2FD8D4B984238
:104FC0000DD194F82430002B00F0F680E369013B0A
:104FD000002BE361BFF67EAE08F1FF330EE0864B97
:104FE00098420DD194F82430002B00F0E580E3695D
:104FF00001334345E361FFF66DAE0023E36169E6EB
:105000007E4B984216D1206900283FF463AEA36A14
:10501000022B036802D15B69984703E01B694FF0DC
:10502000FF319847A36A002B3FF454AE2B680A93D4
:105030000A9ABAE0724B984215D1206900283FF4D1
:1050400049AEA36A022B036802D15B69984702E06C
:105050001B6901219847A36A002B3FF43BAE2B68E4
:105060000B930B9AA1E0674B984224D1237B63B149
:105070000023A068E3614FF0FF332362002800F0B3
:10508000DF800368DB689847DAE0237E4BB1554840
:105090005D49012201F038FC606903681B6998478B
:1050A00005E094F8243083F0010384F824300123D0
:1050B00084F84C300EE6554B98421ED1544B93F871
:1050C00000B0BBF1000F40F0AF80FFF7EBFD002810
:1050D00000F0AA80012384F8403084F841302B6826
:1050E0000C930C9AA36CD318636465E00368DB68C7
:1050F0009847BBF1000F5FD1ECE7464B98421CD1BB
:10510000A36A0133022B88BF0023A362A36A43B1C1
:105110002B680D930D9A236B4FF47A7101FB0323D7
:10512000E362012384F8343084F835302B680E9321
:105130000E9AE36BD318A3633EE0374B984205D138
:105140002948C1680131FCF7A1FD35E0334B984295
:1051500015D194F82430002B2ED1314A94F8253003
:105160000021D1742F4A83F00103127884F825308E
:10517000012384F84C30FAB984F825301CE0A16A88
:10518000D1B12B680F930F9AE36A9A4214D3206926
:1051900038B10129036802D11B69984701E05B69B6
:1051A0009847DAF800301093109A236B4FF47A7115
:1051B00001FB0323E3628DE52B681193119BB3423E
:1051C000FFF4F9AE86E5002384F83530012384F836
:1051D0004C3089E5002384F84130012384F84C30B9
:1051E0008CE500BFA0F9FF1F5098FF1F309AFF1FEA
:1051F000A491FF1F5FA0EF10FF00EF10EF10EF1062
:105200007F80EF10DF20EF10ED9C010027D8EF101A
:105210000E99FF1F07F8EF108778EF10A758EF10CF
:10522000A098FF1FBCC3FF1FFCF7EAFCFFF7F6F9CD
:10523000A0684FF0FF33236200287FF457AF58E790
:1052400015B0BDE8F08F00BF08B5034B0348044913
:105250001A68FFF737FD08BD78C5FF1FA4F9FF1FC7
:1052600098C3FF1F014608B50830A4310722FFF795
:1052700029FD08BDF0B500248BB035E0E7000F260E
:105280000025102D4FF0FF03C8BF8DF8113005A980
:10529000C8BFC6F10D0304A8D8BF8DF811608DF802
:1052A00012308DF8107003F008F905A8FCF735FBF3
:1052B0008DF80800C0F30723C0F307408DF80A00FB
:1052C0008DF80930029B4548ADF818301B0C8DF85D
:1052D0001A302AB221B2069B01350F3601F040FD8B
:1052E000202DF6B2CDD101341E2CC7DDFF250024C0
:1052F000002305A904A88DF810308DF811308DF821
:10530000125003F0DAF805A8FCF707FB8DF8080047
:10531000C0F30723C0F307408DF80A008DF8093069
:10532000029B2E48ADF81C301B0C8DF81E301F213F
:1053300022B2079B0134063D01F012FD202CEDB294
:10534000D6D1FFF7AFF90AF0F5FA4FF07A510AF02B
:1053500045FB23490AF042FB0AF006FD021E04DC6D
:10536000204B1B78002B18BF012209AC1E49204698
:105370000BF028FC0521194801F04CFF1B4B174886
:105380001A889B78ADF820208DF822300B2204215A
:10539000089B009401F046FF0121104801F0A4FF92
:1053A000134B1868FCF7DCFB124B98420CD003D867
:1053B000114B98420AD002E0104B98420CD003F5F2
:1053C000FF53984206D107E0012001E04FF0FF3083
:1053D000FFF748FC002451E70BB0F0BDA0F9FF1F18
:1053E0000000C842A891FF1F18620100005E010082
:1053F000A491FF1F5FA0EF10FF00EF1027D8EF1060
:10540000F8B5194D194E1A4F0446236820465B68BB
:1054100098471848FEF7F0F800211748FDF748FFB5
:105420000121164801F060FF2868FCF799FBB042A3
:105430000ED007D8124A90420AD002F5FF5290428D
:10544000E3D1F8BDB8420DD00E4A9042DDD1F8BD8F
:10545000094B0D481A7D0D4982F001021A75FFF7BC
:10546000B9FAD2E7F8BD00BFA491FF1F5FA0EF100B
:1054700027D8EF10309AFF1FA098FF1FA0F9FF1F39
:10548000FF00EF1007F8EF10686101008461010070
:105490002DE9F041044690B0236820465B689847A8
:1054A00000254FEAC5080F270026102E4FF0FF03F6
:1054B000C8BF8DF8113005A9C8BFC7F10D0304A8F6
:1054C000D8BF8DF811708DF812308DF8108002F071
:1054D000F4FF05A8FCF721FA8DF80800C0F30723B4
:1054E000C0F307408DF80A008DF80930029BAA48E6
:1054F000ADF820301B0C8DF82230089B29B232B257
:1055000001F02EFCA3689D420ED1E3689E420BD1B0
:105510009DF814308DF818309DF815308DF819303D
:105520009DF816308DF81A3001360F37202EFFB255
:10553000BBD101351F2DB4D1FF260025002305A9BD
:1055400004A88DF810308DF811308DF8126002F03B
:10555000B4FF05A8FCF7E1F98DF80800C0F30723B4
:10556000C0F307408DF80A008DF80930029B8A4885
:10557000ADF824301B0C8DF826301F212AB2099B70
:1055800001F0EEFBA1681F290ED1E3689D420BD10B
:105590009DF814308DF818309DF815308DF81930BD
:1055A0009DF816308DF81A300135063E202DF6B2E2
:1055B000C4D1E26805A8D3008DB216468DF8143028
:1055C0008DF815308DF81630FCF7A7F98DF8080026
:1055D000C0F30723C0F307408DF80A008DF80930A7
:1055E000029BADF828301B0C8DF82A300A9832B295
:1055F000291FAB1EADF80400000C009209B21BB2CB
:105600008DF80600644801F0A8FC05A8FCF785F9B0
:105610002589A6898DF80800C0F30723C0F3074049
:105620008DF80A008DF80930029BADF82C301B0C68
:105630008DF82E300B9832B2291DAB1CADF804004A
:10564000000C009209B21BB28DF80600524801F01E
:1056500084FC05A8FCF761F9A58926898DF8080066
:10566000C0F30723C0F307408DF80A008DF8093016
:10567000029B4948ADF830301B0C8DF832300C9B42
:105680002A1F023D31B22DB2ADF804301B0C12B20C
:1056900000958DF806300B4601F05FFC05A8FCF77D
:1056A0003CF9A58926898DF80800C0F30723C0F3CB
:1056B00007408DF80A008DF80930029B3648ADF896
:1056C00034301B0C8DF836300D9B2A1D023531B25B
:1056D0002DB2ADF804301B0C12B200958DF80630D7
:1056E0000B4601F03AFC06A8FCF717F98DF8080004
:1056F000C0F30723C0F307408DF80A008DF8093086
:10570000029B2648264D03761A0CC3F307214176E7
:1057100082762B746974AA74ADF838308DF83A200B
:10572000FDF74CFFE368112B284601DD002100E066
:105730001721FDF75BFD0121174801F0D5FD194B3D
:105740001868FCF70DFA184B98421AD00BD8174B73
:10575000984213D003F57F6398422DD0A3F5FF53F1
:1057600098425FD114E0124B984225D003F5FF53C5
:10577000984221D00F4B984254D106E0A368013BD8
:1057800001E0A3680133A3604CE0E368013B01E062
:10579000E3680133E36045E0A0F9FF1F309AFF1F83
:1057A000A098FF1FA491FF1F7F80EF10EF10EF1054
:1057B00027D8EF105FA0EF109DF81830254C8DF81A
:1057C0001C309DF819308DF81D309DF81A3007A84F
:1057D0008DF81E30FCF7A1F88DF80800C0F3072300
:1057E000C0F307408DF80A008DF80930029BDAB249
:1057F000C3F30720C3F30741174B22761A7458747A
:1058000099746076A17615481549FFF7E3F8627E32
:1058100012481449FFF7DEF810481349A27EFFF73B
:10582000D9F813E0A368002B01DA1F2302E01F2B35
:1058300001DD0023A360E368002B01DA1F2303E0EE
:105840001F2B7FF729AE0023E36025E610B0BDE8EB
:10585000F08100BF309AFF1FA098FF1F6861010010
:10586000AE610100C1610100D4610100F8B51B4CBB
:105870001B4E1C4F05462B6828465B6898471A4804
:10588000FDF7BAFE1548FDF717FE0121174801F094
:105890002BFD3068FCF764F9B84210D007D8144AE1
:1058A00090420FD002F5FF529042E4D1F8BD114A68
:1058B000904211D002F5FF529042DCD1F8BD4FF07A
:1058C000FF3000E00120FBF729FB0B480B49B4F93E
:1058D0000E20FFF77FF8CEE7F8BD00BFA098FF1FAE
:1058E000A491FF1F5FA0EF10309AFF1FA0F9FF1FC8
:1058F000FF00EF1027D8EF1068610100716101000F
:1059000038B504460D460068096809F05FFF69680C
:105910002060606809F05AFF6060204638BD38B5E5
:10592000034600685D6801460AF058F829460446B7
:1059300028460AF053F80146204609F047FF09F0CF
:10594000B9FB08F035FA09F0EBFE38BD73B5044633
:105950000D464868616809F037FF216806462868E7
:1059600009F032FF009068460196FFF7D8FF7CBD32
:1059700070B50646FFF7D3FF00210AF0C3F900BB5C
:105980003046FFF7CCFF09F095FB02460B4600209E
:105990000D4909F00DFD04460D46306809F08AFBFB
:1059A00022462B4609F0DAFB09F0BAFE3060706837
:1059B00009F080FB22462B4609F0D0FB09F0B0FE2F
:1059C0007060304670BD00BF0000F03FF8B506467D
:1059D000006877680C4601460AF000F8394605462B
:1059E000384609F0FBFF0146284609F0EFFE214644
:1059F0000546204609F0F2FF014628460AF0AAF9BA
:105A0000D8B13046FFF7B4FF204609F053FB0446F7
:105A10000D46306809F04EFB22462B4609F09EFBEE
:105A200009F07EFE3060706809F044FB22462B4688
:105A300009F094FB09F074FE7060F8BD2DE9F04F99
:105A400091B00023002407460E469146019302932D
:105A5000254698460DF11C0A09EB040105A8FDF73F
:105A600045FE059B0393069B03A930460493FFF76D
:105A70006DFF002183460AF06DF948B15846B16ABE
:105A80000AF04AF920B101A85146FFF739FF013564
:105A90002C34B4F5DC7FDFD1002D4AD0284609F044
:105AA00049FF09F007FB04460D46019809F002FB87
:105AB00022462B4609F07CFC09F032FE0190029848
:105AC00009F0F8FA22462B4609F072FC09F028FE8C
:105AD000029001A8FFF74CFF306A09F0EBFA044688
