:10808000008000203D820000E95E0200AD5E02003B
:10809000AD5E0200AD5E0200AD5E0200AD5E0200AC
:1080A000AD5E0200AD5E0200AD5E0200E95E020060
:1080B000E95E0200AD5E0200E95E02009D5E020024
:1080C000E95E0200E95E0200E95E0200E95E02008C
:1080D000E95E0200E95E0200E95E0200E95E02007C
:1080E000E95E0200E95E0200E95E0200E95E02006C
:1080F000E95E0200E95E0200E95E0200E95E02005C
:10810000E95E0200E95E0200E95E0200E95E02004B
:10811000E95E0200E95E0200E95E0200E95E02003B
:10812000A1470200E95E0200E95E0200E95E02008A
:10813000E95E0200E95E0200E95E0200E95E02001B
:10814000E95E0200E95E0200E95E0200E95E02000B
:10815000E95E0200E95E0200E95E0200E95E0200FB
:10816000E95E0200E95E0200E95E0200E95E0200EB
:10817000E95E02002D7D0200E95E02002582020018
:10818000E95E020041860200E95E0200E95E02004B
:10819000E95E0200E95E0200E95E0200E95E0200BB
:1081A000E95E0200E95E0200E95E0200E95E0200AB
:1081B000E95E0200E95E0200E95E0200E95E02009B
:1081C000E95E02005D1C0200E95E0200E95E020059
:1081D000E95E0200E95E0200E95E0200E95E02007B
:1081E000E95E020011670200E95E0200E95E02003A
:1081F000E95E0200E95E0200E95E0200E95E02005B
:10820000E95E0200E95E0200E95E0200E95E02004A
:10821000E95E0200E95E0200E95E0200E95E02003A
:10822000E95E0200E95E0200E95E0200E95E02002A
:10823000E95E0200E95E0200E95E020010B56B4BE8
:108240004CF220521A804DF628121A8000BF00BF4F
:108250001DF04EFE4FF01062654B1A60654A083300
:108260001A60654A04331A60A3F530432C3B1B683F
:1082700013F4807F06D10022604B1A604FF4A8529D
:10828000043B1A605E4B1B7813F0080F04D05C4B64
:108290001A7842F008021A702A225A4B1A705A4B66
:1082A0005A4A9A420DD2131D594CE41A24F0030481
:1082B00004340023104657495A581A500433A34235
:1082C000FAD1554B554A9A4280F08B80131F54497E
:1082D000C91A21F003011A1D1144002243F8042F8A
:1082E0008B42FBD17DE05A581A500433B3F5DE7F40
:1082F000F9D14C4B80214C4A03F8011B9342FBD12E
:108300004A4B4B4A1A600A224A4B1A702422A3F69F
:10831000FF731A70A022013B1A7006331A7812F00C
:10832000020FFBD0444B1A7812F0100FFBD1424BD6
:108330001A7802F00C02082AFAD103223F4B1A7075
:10834000402201331A7001331A7812F0200FFBD04B
:10835000394B1A7812F0400FFBD0394A394B1A606A
:10836000022204331A602022374B1A7006331A781F
:1083700002F00C020C2AFAD1344A354B1A60354A05
:10838000354B1A60002204331A600722083B1A603A
:10839000324A03F551631A6062B61EF07BF8174B40
:1083A0001B6813F0010F05D02D481DF0D9FF2D4A91
:1083B0002D4B1A602D4B1B7813F0400F0AD02A4B1F
:1083C0001A68284B9A4205D125481DF0C9FF0022A2
:1083D000254B1A6023F0A0FD15F062FB1EF0CCFFC8
:1083E000FEE70023124822497DE700BF0E2005402A
:1083F00030800440823F04000100002B14D0034071
:1084000002D0074000E00740889FFF1F6095FF1FD4
:108410008B9FFF1F785F0300D45A0020889FFF1FA7
:10842000CF5A002000E400E05FE400E008ED00E047
:108430000090FF1F005006400640064004400640E2
:10844000000003014480044000400640C0100500C5
:1084500004800440FF76010014E000E000002020CA
:10846000DD268355A5C3945A1CE0034000F0074065
:1084700080800000FFFFFFFFFFFFFFFFFFFFFFFF08
:10848000FFFFFFFFFFFFFFFFFFFFFFFFFEFFFFFFFD
:1084900010B5054C237833B9044B13B10448AFF33E
:1084A00000800123237010BD889FFF1F0000000083
:1084B000705F030008B5064B1BB106480649AFF3D1
:1084C00000800648036813B1054B03B1984708BD07
:1084D00000000000705F03008C9FFF1F889FFF1F3C
:1084E000000000000020704700207047704700BF68
:1084F000704700BF01207047012070470C4B5B7D27
:1085000083F001030B4A517880F8311092780C2ADD
:1085100084BFA3EB830102EB810280F8322090F844
:10852000322022B903EB43039B0080F832307047BE
:10853000282C002040FAFF1F40697047704700BF99
:10854000704700BF30B4C8222C4B1A702C490B88DE
:1085500003EB432203EB820243F219631A4492B203
:10856000284C226002EB422402EB84021A4492B2AD
:10857000254C226002EB422402EB84021A4492B2A0
:10858000224C226041F27074214D2C60214D2C60F0
:1085900002EB422402EB84021A4492B202EB222440
:1085A000E4B2048102EB422402EB84021A4492B248
:1085B00002EB2224E4B2448102EB422402EB840267
:1085C0001A4492B202EB2224E4B2848102EB4224E8
:1085D00002EB84021A4492B202EB2224E4B2C48178
:1085E00002EB422402EB840213449BB20B8003EBA8
:1085F0002323DBB2038230BC704700BF14A0FF1FEF
:108600004896FF1FB0A6FF1F28A4FF1FB8A6FF1F94
:1086100020A4FF1F24A4FF1F0369C36143690362F1
:1086200000238360704700BF0E48038803EB43229A
:1086300003EB820243F219610A4492B20A4B1A60B8
:1086400002EB422302EB83030B449BB2074A136005
:1086500003EB432203EB8203194489B20180044BEC
:10866000196070474896FF1FB0A6FF1F28A4FF1F80
:10867000B8A6FF1F10B4C16E002907DD0246002313
:10868000012442F8144F01338B42FADB164B1A686F
:10869000C2602A2383601F21017600234376036191
:1086A00002623724C46180F82C1080F82D304362B8
:1086B000426303240463FF2480F8404080F8413083
:1086C000836382644724446480F8541080F85530F2
:1086D000C364C2655922826580F8681080F86930E9
:1086E00003665DF8044B7047D056002042F67C3399
:1086F000C058704708B500F52E50006810B10368E7
:108700001B69984708BD00BF08B500F52E500068EA
:1087100010B10368DB68984708BD00BFD0F8A80215
:10872000704700BF0069704710B40B4B5C791A7931
:1087300042EA44149A790A3A44EA4222028058787A
:108740009A78D20242EA40121B7842EA63030B8015
:108750005DF8044B704700BF40FAFF1F10B582B0B0
:1087600000248DF804408DF805408DF8064003483C
:1087700001A917F0A1F9204602B010BDB0AAFF1F51
:1087800030B583B0054600248DF804408DF80540CF
:108790008DF80640044801A917F08EF9C5F818496C
:1087A00085F8244903B030BDB0AAFF1F30B583B0AF
:1087B000054600248DF804408DF805408DF80640EC
:1087C000044801A917F078F941F20A43EC5203B0CA
:1087D00030BD00BFB0AAFF1F00B583B000238DF8E5
:1087E00004308DF805308DF80630034801A917F0E4
:1087F00063F903B05DF804FBB0AAFF1F00B583B0B6
:1088000000238DF804308DF805308DF806300348CC
:1088100001A917F051F903B05DF804FBB0AAFF1FDE
:1088200000B583B000238DF804308DF805308DF845
:108830000630034801A917F03FF903B05DF804FBC7
:10884000B0AAFF1F10B500F11C0420461AF0A6F8CC
:1088500010B120461AF096F810BD00BF10B500F513
:10886000157420461AF09AF810B120461AF08AF8CA
:1088700010BD00BF10B5044680301EF087FE2046B4
:1088800010BD00BF10B50446034B036000F5157022
:108890001AF030F8204610BDB80E030010B504469B
:1088A000034A40F81C2B1AF025F8204610BD00BFE3
:1088B000F00C030010B5044600F516601AF01AF823
:1088C000204610BD10B50446002004211EF054FEC1
:1088D000A073012003211EF04FFEE06110BD00BF18
:1088E0002DE9F04383B00546624B5E7C0B2E28BF1A
:1088F0000B26614C2046202116F00EFB204605F188
:10890000680116F001FB2046002116F0C5F920464B
:1089100016F088F9594B1B78002B00F09F80584BBC
:108920009F785C780C2F84BF0C3FFFB29CB9DFF8B6
:108930004881023755F827300124009440462146EB
:10894000324616F0F3F9009440462146F21D4D4B95
:1089500016F0ECF989E0092C1DD8DFF81C810234EF
:1089600055F824300124009440462146324616F042
:10897000DDF9009440462146F21D434B16F0D6F92E
:10898000023755F8273000944046214606F10E0282
:1089900016F0CCF969E0112C1BD1DFF8DC8002372E
:1089A00055F827300124009440462146324616F0FF
:1089B000BDF96B6A009440462146F21D16F0B6F9E7
:1089C00000944046214606F10E02304B16F0AEF9F7
:1089D0004BE0132C15D8DFF8A080023755F827306C
:1089E0000127009740463946324616F09FF9023477
:1089F00055F82430009740463946F21D16F096F996
:108A000033E0DFF87490023755F8273001270097DC
:108A100048463946324616F089F91D4BA3FB042817
:108A20004FEAD80808F1140355F823300097484658
:108A30003946F21D16F07AF908EB8808A4EB4804D1
:108A400014F0FF0411D0023455F824303946009751
:108A5000484606F10E0216F069F906E00121009180
:108A6000054832460B4B16F061F9002003B0BDE813
:108A7000F08300BF282C0020B0AAFF1F502C00203C
:108A800040FAFF1FEC100300F4100300CC190300A0
:108A9000CDCCCCCCFC10030030B585B000248DF8D3
:108AA00008408DF809408DF80A400D4D284602A96E
:108AB00017F002F82846214617F022F8094B1A88C9
:108AC0009B78ADF80C208DF80E30074B00932846AC
:108AD00021461B2203AB17F01BF8204605B030BD22
:108AE000B0AAFF1FD00E0300F095FF1F30B585B070
:108AF00000248DF808408DF809408DF80A400D4D8E
:108B0000284602A916F0D8FF2846214616F0F8FF9D
:108B1000094B1A889B78ADF80C208DF80E30074B66
:108B20000093284621461B2203AB16F0F1FF204696
:108B300005B030BDB0AAFF1FD00E0300F095FF1F97
:108B400030B585B000248DF808408DF809408DF8C7
:108B50000A400D4D284602A916F0AEFF28462146D0
:108B600016F0CEFF094B1A889B78ADF80C208DF8D3
:108B70000E30074B0093284621461B2203AB16F00C
:108B8000C7FF204605B030BDB0AAFF1FD00E0300BE
:108B9000F095FF1F30B585B000248DF808408DF8A2
:108BA00009408DF80A400D4D284602A916F084FFB1
:108BB0002846214616F0A4FF094B1A889B78ADF889
:108BC0000C208DF80E30074B0093284621461B22BF
:108BD00003AB16F09DFF204605B030BDB0AAFF1FC5
:108BE000D00E0300F095FF1F30B585B000248DF83E
:108BF00008408DF809408DF80A400D4D284602A91D
:108C000016F05AFF2846214616F07AFF094B1A88BB
:108C10009B78ADF80C208DF80E30074B009328465A
:108C200021461B2203AB16F073FF204605B030BD72
:108C3000B0AAFF1FD00E0300F095FF1F30B585B01E
:108C400000248DF808408DF809408DF80A400D4D3C
:108C5000284602A916F030FF2846214616F050FF9C
:108C6000094B1A889B78ADF80C208DF80E30074B15
:108C70000093284621461B2203AB16F049FF2046ED
:108C800005B030BDB0AAFF1FD00E0300F095FF1F46
:108C900030B585B000248DF808408DF809408DF876
:108CA0000A400D4D284602A916F006FF2846214627
:108CB00016F026FF094B1A889B78ADF80C208DF82A
:108CC0000E30074B0093284621461B2203AB16F0BB
:108CD0001FFF204605B030BDB0AAFF1FD00E030015
:108CE000F095FF1F30B585B000248DF808408DF851
:108CF00009408DF80A400D4D284602A916F0DCFE09
:108D00002846214616F0FCFE094B1A889B78ADF8E0
:108D10000C208DF80E30074B0093284621461B226D
:108D200003AB16F0F5FE204605B030BDB0AAFF1F1C
:108D3000D00E0300F095FF1F30B585B000248DF8EC
:108D400008408DF809408DF80A400D4D284602A9CB
:108D500016F0B2FE2846214616F0D2FE094B1A88BC
:108D60009B78ADF80C208DF80E30074B0093284609
:108D700021461B2203AB16F0CBFE204605B030BDCA
:108D8000B0AAFF1FD00E0300F095FF1F30B585B0CD
:108D900000248DF808408DF809408DF80A400D4DEB
:108DA000284602A916F088FE2846214616F0A8FE9D
:108DB000094B1A889B78ADF80C208DF80E30074BC4
:108DC0000093284621461B2203AB16F0A1FE204645
:108DD00005B030BDB0AAFF1FD00E0300F095FF1FF5
:108DE00030B585B000248DF808408DF809408DF825
:108DF0000A400D4D284602A916F05EFE284621467F
:108E000016F07EFE094B1A889B78ADF80C208DF881
:108E10000E30074B0093284621461B2203AB16F069
:108E200077FE204605B030BDB0AAFF1FD00E03006C
:108E3000F095FF1F30B585B000248DF808408DF8FF
:108E400009408DF80A400D4D284602A916F034FE5F
:108E50002846214616F054FE094B1A889B78ADF837
:108E60000C208DF80E30074B0093284621461B221C
:108E700003AB16F04DFE204605B030BDB0AAFF1F73
:108E8000D00E0300F095FF1F2DE9F04F89B0054685
:108E90000020FF211EF070FB3349C2B291F8083C5C
:108EA000009305A801F60941FF2318F017F80026E2
:108EB000029603963FE0029802211EF05DFB012816
:108EC00006D19DF814909DF815809DF8167003E06A
:108ED000029FDDF80C80C1461FFA86FB297A5944AF
:108EE0001FFA84FA6A7A52448DF818908DF8198026
:108EF0008DF81A701D4809B212B206AB16F0E6F9E9
:108F0000012E12DC2B7A0433CBEB03016B7A0AEBD4
:108F100003028DF81C908DF81D808DF81E7013488B
:108F200009B212B207AB16F0D1F90134052CC2D147
:108F30000136032E01D00024BDE72B7A0633DBB2C5
:108F4000192B01D82B7204E001232B726B7A0633A4
:108F50006B726B7A192B02D901232B726B727D20F5
:108F600009B0BDE8F08F00BFFCECFF1FB0AAFF1FE7
:108F70002DE9F04F89B005460020FF211EF0FCFAD4
:108F80004049C2B291F8083C009305A801F6094196
:108F9000FF2317F0A3FF4FF00009CB46CA46CDF8D8
:108FA000089051E0504602211EF0E6FA012806D151
:108FB0009DF814809DF815709DF8166002E05646E5
:108FC000029FB846297A494489B26A7A224492B209
:108FD0008DF818808DF819708DF81A604B1C501C94
:108FE00000B2009006A80190274809B212B21BB245
:108FF00016F03CFDBBF1010F19DC2B7A6A7A224492
:1090000092B28DF81C808DF81D708DF81E6003994A
:1090100019440933C9EB0303501C00B2009007A8A0
:109020000190194809B212B21BB216F01FFD0234AA
:10903000A4B20A2CB6D10BF1010B09F102091FFAF7
:1090400089F9BBF1030F05D0C9F108039BB2039363
:109050000024A7E72B7A0B33DBB2162B01D82B7237
:1090600004E000232B726B7A0B336B726B7A162B36
:1090700002D900232B726B724FF4FA7009B0BDE86D
:10908000F08F00BFFCECFF1FB0AAFF1F2DE9F04FCF
:109090008DB000248DF824408DF825408DF82640B1
:1090A0003D4809A916F008FD2046FF211EF064FA8C
:1090B0003A49C2B291F8083C009308A801F6094168
:1090C000FF2317F00BFF01250395A246A346029448
:1090D0004BE0584602211EF04FFA012806D19DF8B8
:1090E00020909DF821809DF8227003E05F46DDF816
:1090F0000880C146A5B2261DB6B28DF828908DF81D
:1091000029808DF82A7033B200930AAB019322486C
:10911000DDF810E00FFA8EF12AB2DDF814E00FFA54
:109120008EF316F0A3FCBAF1010F11DC8DF82C9030
:109130008DF82D808DF82E7036B200960BAB019312
:109140001548079A11B22AB2069D2BB216F08EFC72
:109150000634A4B21F2CBCD10AF1010A039DAB1D39
:109160009BB20393BAF1030F10D0039DADB20495E7
:10917000039D2B1D9BB20593C5F11A039BB2079368
:10918000C5F11E039BB206930124A2E74FF4FA60D7
:109190000DB0BDE8F08F00BFB0AAFF1FFCECFF1FB1
:1091A0002DE9F04F83B083464FF000094FF00F0ACE
:1091B000204E4FEAC9085FFA88F855460024FF2779
:1091C000102C06DC8DF800808DF801508DF80270AF
:1091D00007E08DF800808DF80170C5F10D038DF862
:1091E0000230684601A917F045FF9DF8042096F863
:1091F0002C309A4210D19DF8052096F82D309A42D5
:109200000AD19DF8062096F82E309A4204D1CBF868
:109210000890CBF80C4009E001340F35EDB2202C5A
:10922000CED109F10109B9F11F0FC2D103B0BDE8D8
:10923000F08F00BF78F9FF1F2DE9F04F83B0834610
:109240004FF000094FF00F0A1E4E4FEAC9085FFAAF
:1092500088F855460024FF27102C06DC8DF8008086
:109260008DF801508DF8027007E08DF800808DF8C0
:109270000170C5F10D038DF80230684601A917F0A1
:10928000F9FE9DF8042033789A420ED19DF805200E
:1092900073789A4209D19DF80620B3789A4204D196
:1092A000CBF80890CBF80C4009E001340F35EDB253
:1092B000202CD1D109F10109B9F11F0FC5D103B09B
:1092C000BDE8F08FE4FAFF1F08B51DF043F808BDB4
:1092D0002DE9F04786B00546D0F81839002B31DC6F
:1092E00000238DF80C308DF80D308DF80E30AD4820
:1092F00003A916F0E1FB05F10F0305F20F100021A1
:1093000006E003F8011F9342FBD1824203D01346CB
:1093100003F11002F5E710201EF022F90446102098
:109320001EF01EF9C5F81841C5F81C010123C5F847
:109330001839002085F824094FF480711EF01CF9BB
:1093400085F82509D5F81809D5F81C39012B01D065
:10935000441E02E01EF004F90446002CC0F2CA804C
:1093600004F1230205F5887305EBC20292E80300BD
:1093700083E803008046D5F814912F4600264FF06D
:10938000040A304651461EF0F7F897F8263928446B
:1093900090F8262987F8262980F8263901360137E2
:1093A000042EEED195F82529D5F81C39012B0CD0C7
:1093B0007D49224491F8083C009302A801F6094136
:1093C000D2B2FF2317F08AFDACE095F82429531C94
:1093D00085F82439744991F8083C009302A801F6F5
:1093E0000941FF2317F07AFD9CE093F82609022833
:1093F00009D004280DD0012811D1D5F81061D5F875
:109400001471013F10E0D5F81061D5F814710137DF
:109410000AE0D5F81061013ED5F8147104E0D5F8E2
:1094200010610136D5F814710F2E52D80F2F50D875
:1094300005EB07113144097C00294AD14FEA480164
:109440004FEA4902D5F81441D5F8103105EB041460
:1094500023441C7C04431C7405EB071333441B7C1E
:10946000022869D0042860D0012800F0918005EB23
:109470000714344443F004032374022807D004285B
:1094800007D0012818BF013105D1013A03E00132AC
:1094900001E00139FFE79DF809009DF80A309DF8C9
:1094A00008408DF814408DF815008DF816303D48B1
:1094B00009B212B205AB15F009FFD5F818395A1CDC
:1094C000C5F81829233305EBC30245F8336057600C
:1094D00010E00133934288D135E0013493E8030072
:1094E00003E90300D5F81829013A08339442F4DB64
:1094F000C5F81829D5F81839002B0EDCD5F81C3919
:109500000133C5F81C39D5F82029934207DB002325
:10951000C5F81C394FF47A7041E000203FE04FF469
:109520007A703CE02A1D2B465FE705EB07103044BC
:1095300043F008030374ACE705EB0710304443F035
:1095400001030374A3E704F1230305EBC30255F8F9
:1095500033104900526852009DF809009DF80A3006
:109560009DF808608DF810608DF811008DF81230AC
:109570000C4809B212B204AB15F0A8FED5F81829B0
:10958000013A9442B4DA04F1240305EBC303A4E7DF
:1095900005EB0710304443F00203037475E706B08F
:1095A000BDE8F087B0AAFF1FFCECFF1F10B5044612
:1095B00043691944032902DD0023436104E00029C3
:1095C000AEBF416103234361A06A10B103681B6908
:1095D00098476369063354F82300A06210B103680A
:1095E000DB68984710BD00BF2DE9F04F8FB0244CC9
:1095F00000250027A046DFF88C904FF0814B00201B
:10960000FF211DF0B9FF0020FF211DF0B5FF284606
:1096100022F008FA20606760C8EB040608F108032E
:10962000F75006EB030A284621F0AAFD12A3D3E95E
:10963000002321F00BFE22F0EBF8CAF8040008F139
:109640001003F7501E447760C4F81890C4F81C90BB
:10965000C4F820B04FF082436362EB0084F82830F6
:109660000C9BE362012384F830301D443434202DF8
:10967000C5D10FB0BDE8F08F7B14AE47E17A84BF4F
:109680007C2C00200000204110B50446002004215D
:109690001DF072FF032802DD0023636104E000284F
:1096A000AEBF606103236361A06A10B103681B69E8
:1096B00098476369063354F82300A06210B1036829
:1096C000DB68984710BD00BF2DE9F04F91B03649D7
:1096D0000B8803EB432203EB820343F2196213442A
:1096E0009BB2038103EB432403EB840313449BB23B
:1096F000438103EB432403EB84031A4492B20A80B0
:1097000082812A4C0026DFF8AC904FF07C5A202052
:109710001DF026FF05460020FF211DF02DFF83468A
:109720000020FF211DF028FF0190284622F076F945
:10973000206066601D4BE51A984603F108075846FD
:1097400022F070F9494622F075FA514622F0B4F839
:10975000E8512F44019822F065F9494622F06AFA4F
:10976000514622F0A9F8786008F11003EE501D442C
:109770006E600F4BA3614FF07F53E3614FF0814365
:1097800023624FF082436362002384F828300E9BEB
:10979000E362012384F83030343408F502639C42DC
:1097A000B5D111B0BDE8F08F4896FF1F7C2C00208A
:1097B000CDCC4C3D00007F432DE9F04F83B0834674
:1097C000002002211DF0D8FE0028034608BF4FF0FC
:1097D000FF330193DBF80830002B4FDD294C0025C7
:1097E00000270020FF211DF0C7FE0020FF211DF0F3
:1097F000C3FE282032211DF0BFFE8246224B23608B
:10980000C5F11F0022F00EF960601E4BE61A984663
:1098100003F10809504622F005F91C4922F00AFA22
:109820008246019822F0FEF80146504622F04EF999
:1098300046F80900B144C9F8047008F1100846F868
:109840000870B044C8F80470114BA3614FF07F5307
:10985000E3614FF0814323624FF0824363626B0107
:1098600084F828304FF07E53E362012384F83030CF
:109870001D443434DBF80830AB42B2DC03B0BDE841
:10988000F08F00BF7C2C0020000070410000C84217
:10989000CDCC4C3D10B50446C3682BB1154A1268B7
:1098A000D31A026993421ED90022134B1A7013482F
:1098B0001BF066FB18B101220F4B1A700DE094F8F3
:1098C0002F302BB90E481BF0D3FA012384F82F3028
:1098D0001BF086FA09491BF027F90122094B1A707F
:1098E000044B1B68E360A06A10B103689B6898474B
:1098F000002010BDD0560020B4A6FF1F40FAFF1F65
:10990000C9920000502C00202DE9F04F93B00B902D
:1099100041F20A43C35A002B40F0BD838DF83C301E
:109920008DF83D308DF83E30AF480FA916F0C4F8E1
:1099300004201DF015FE032800F2AD81DFE810F0D1
:1099400016000D000400480100221346A74D1746DB
:1099500040F6F5264FF0FF0812E100221346A34D12
:10996000174640F6F5264FF0FF08A6E00022134602
:109970009E4D174640F6F5264FF0FF083AE085FB6E
:1099800004AB4FEAE47ACAEBAB0A80F80DA080F88A
:109990000EC080F80FE00133B3F5806F00F06083F4
:1099A000FF3403304B45EAD1FF31B1421ED085FB75
:1099B000010CC817C0EBAC0C5FFA8CFC03EB430442
:1099C0000834DDF82C904C44A77084F803C084F868
:1099D00004E05C1CB4F5806F00F0428303EB4300AD
:1099E000484403F10B0923464446C8E7FF32B2421C
:1099F00000F0368385FB02AED117C1EBAE0E5FFAE5
:109A00008EFE3946D3E7284631461DF0B5FD94F861
:109A100000C094F801E0A17800EB40003B1833F857
:109A20000A2F9B782280A37000F108023A4482F842
:109A300002C082F803E0117101350334B5F5806F7F
:109A4000E1D128E180F80DE085FB04AB4FEAE47A30
:109A5000CAEBAB0A80F80EA080F80FC00133B3F553
:109A6000806F00F00683FF3403304B45EAD1FF31AD
:109A7000B1421ED085FB010CC817C0EBAC0C5FFADD
:109A80008CFC03EB43040834DDF82C904C4484F840
:109A900002E0E77084F804C05C1CB4F5806F00F04D
:109AA000E88203EB4300484403F10B092346444694
:109AB000C8E7FF32B24200F0DC8285FB02AED1176C
:109AC000C1EBAE0E5FFA8EFE3946D3E7284631462B
:109AD0001DF052FD94F800C094F801E0A17800EB6D
:109AE00040003B1833F80A2F9B782280A37000F1C6
:109AF00008023A4482F802C082F803E0117101358D
:109B00000334B5F5806FE1D1C5E080F80DE080F851
:109B10000EC085FB04AB4FEAE47ACAEBAB0A80F8CF
:109B20000FA00133B3F5806F00F0AC82FF34033037
:109B30004B45EAD1FF31B1421ED085FB010CC8175D
:109B4000C0EBAC0C5FFA8CFC03EB43040834DDF88B
:109B50002C904C4484F802E084F803C027715C1C0C
:109B6000B4F5806F00F08E8203EB4300484403F1AC
:109B70000B0923464446C8E7FF32B24200F0828216
:109B800085FB02AED117C1EBAE0E5FFA8EFE3946F1
:109B9000D3E7284631461DF0EFFC94F800C094F856
:109BA00001E0A17800EB40003B1833F80A2F9B78C6
:109BB0002280A37000F108023A4482F802C082F8C1
:109BC00003E0117101350334B5F5806FE1D162E036
:109BD0000020FF211DF0D0FCC6B2DDF82C804FF034
:109BE000000BD946FF2751E0B0AAFF1F67666666E3
:109BF000B5F5806F15DA8DF838608DF839408DF83D
:109C00003A700EA811A917F021FA9DF844109DF89A
:109C100045209DF846308AF800108AF801208AF81D
:109C2000023001351034A4B20AF1030AB4F5807F82
:109C3000DED1DA460BF11005C346B5F5806F15DAB3
:109C40008DF838608DF839708DF83A400EA810A95B
:109C500017F0FCF99DF840109DF841209DF8423026
:109C60008BF83A108BF83B208BF83C300135103CD8
:109C7000A4B20BF1030B002CDFD10AF1200B083644
:109C8000F6B208F16008BBF5806F04D008F10A0A4B
:109C90005D464C46ACE702201DF062FC41F20C43ED
:109CA000DDF82C9009F8030009F60A4009F62A4469
:109CB000002208E01A7083F8002420338B42F9D187
:109CC0000130A04203D000F580610346F2E741F283
:109CD0000A43DDF82CA03AF8033003EB4302524468
:109CE00032F80A1F9278ADF834108DF8362053B947
:109CF00020201DF035FCC0B20A9020201DF030FC61
:109D0000C0B2099043E19DF83490CDF81C909DF8C5
:109D100035A0CDF818A09DF83690CDF8149041F2FA
:109D20000C43DDF82CA01AF8033033B90020029060
:109D300009900A90C349089198E04FF00009CDF8C6
:109D40000C90CDF82490CDF82890BE49049119E1EB
:109D5000029A5A4441F20A03D35C002B7AD0029A49
:109D600002320392029B5E1EDFF8D8A207F1FF3990
:109D7000CDF81090CDF804B0B6F1FF3F4AD0202EB8
:109D800048D0DDF8049009F60A4507F10208354489
:109D9000049C0FFA86FB0FB90298B8B3B4F1FF3FE9
:109DA00034D0202C32D015F8203C7BB3A64821B209
:109DB0005A4615F03DFA8DF83800C0F307228DF8A9
:109DC0003920C0F307438DF83A30C0B2DDF81C905B
:109DD000C9EB0000D2B2DDF81890C9EB0202DBB289
:109DE000DDF81490C9EB030302FB02F200FB002034
:109DF00003FB0309D14507DB08D102201DF0B0FBAE
:109E0000012818BFCA4601D1CA46FFE701342035F0
:109E10004445C0D10136DDF80C904E45ACD1DDF89B
:109E200004B054460898824507DB13D102201DF088
:109E300097FB012818BF08940CD15FFA87F9CDF879
:109E40002890DDF808905FFA89F9CDF82490CDF8D4
:109E500020A0FFE701370BF1200B202F7FF478AF14
:109E6000029801300290202800F09180DDF82CA0AB
:109E70004FF0000B5F46D3466AE7039A524441F223
:109E80000A03D35C002B6DD0DDF80C9009F1FF368E
:109E90004FF00009CDF804904FF0FF380BEB0800AD
:109EA0000290CDF820B0B6F1FF3F39D0202E37D048
:109EB0000AF60A450AF66A4737443544029C0FFA07
:109EC00086FBB4F1FF3F27D0202C25D015F8203C8D
:109ED00013B309F101095C4821B25A4615F0A8F9FB
:109EE0008DF83800C0F307228DF83920C0F30743FE
:109EF0008DF83A30C0B20799401AD2B20699521A78
:109F0000DBB205995B1A02FB02F200FB002003FBA7
:109F10000303019A1A44019201342035BD42D0D185
:109F200008F101080136B8F1020FBCD1DDF820B00C
:109F3000019B93FBF9F40498844207DB12D10220C1
:109F40001DF00EFB012818BF04940BD15FFA8BF9AA
:109F5000CDF82890DDF80C905FFA89F9CDF82490BF
:109F60000494FFE70BF1010B0AF1200ABBF1200F6B
:109F700083D1DDF80CA00AF1010ACDF80CA05046FF
:109F8000202804D0DDF82CA04FF0000B75E7DDF899
:109F90002C90DDF828A009EB4A12DDF824904A4401
:109FA00002F5805300219972012382F80A3C264869
:109FB00051464A460DAB15F089F909F1FF300AF117
:109FC000FF3209F58053093303EB42130B9D1D4407
:109FD0004FF0FF31944600270126B0F1FF3F1BD020
:109FE000202819D062462C463B4602E0013320343B
:109FF0000132012B01D10029F8D0B2F1FF3F09D085
:10A00000202A07D0A4F5806898F80080B8F1000FE6
:10A0100000D12670012BE9DD013101300135022923
:10A02000DBD141F20A43DDF82CA03AF803300133CA
:10A030009BB2B3F5806F09D241F20A422AF802308E
:10A04000002035E03F420F00B0AAFF1F002241F27E
:10A050000A43DDF82C9029F8032040F6B83027E0B9
:10A06000DDF82CA00AF10A0400254FF4806657465B
:10A07000C9E4DDF82C9009F10A0400254FF480664C
:10A080004F4623E5DDF82CA00AF10A0400254FF421
:10A09000806657467DE503EB4303DDF82C904B4487
:10A0A00033F80A2F9B78ADF834208DF836302AE645
:10A0B00013B0BDE8F08F00BFF0B583B00446467C16
:10A0C000274B1B78D3B1274B9D78437D2BB90C2DA3
:10A0D00002D90C3DEDB200E0E5B12348052114F0B2
:10A0E000DBFD04F1080021492A461E4B5B7822F073
:10A0F000C9FC0A2D34BF0427012718E01A480021A3
:10A1000014F0CAFD1A4B03CBA060E1601B782374E6
:10A1100001270CE01448052114F0BEFD04F10800ED
:10A1200012490C220F4B5B7822F0ACFC01270E4D3C
:10A130002846202114F0F0FE284604F1120114F004
:10A14000E3FE284614F06EFD0123009328463946AD
:10A15000324604F1080314F0E9FD002003B0F0BD1D
:10A16000502C002040FAFF1FB0AAFF1F0811030067
:10A17000FC1003002DE9F04383B00546524B1B78D9
:10A1800073B311301AF094FD044650481AF090FD54
:10A1900084421CDD241A4E48A0FB0430C00AC2B21F
:10A1A0004FF4616303FB12434A49A1FB03635B095C
:10A1B000A4EB0010C3EB0311A0EB8100C0B2009030
:10A1C00005F108004449DBB222F05CFC0EE00023FC
:10A1D000009305F1080040491A4622F053FC05E0BF
:10A1E0003E4B03CBA860E9601B782B743C4814F00D
:10A1F00019FD354B1B78E3B1344B9C78394B5B7DB3
:10A200002BB90C2C02D90C3CE4B200E0ECB1344880
:10A21000052114F041FD3448344922462B4B5B782C
:10A2200022F030FC0A2C34BF4FF004094FF0010932
:10A2300018E02B48002114F02FFD284A2A4B07CAAA
:10A2400003C31A704FF001090CE02548052114F0F2
:10A2500023FD254825490C221C4B5B7822F012FC7B
:10A260004FF001091E4C2046202114F055FEDFF866
:10A27000748008F112072046394614F045FE204646
:10A2800014F0D0FC0126009620464946002208F131
:10A29000080314F04BFD2046002114F0FDFC20467D
:10A2A000202114F039FE2046394614F02DFE009688
:10A2B000204631461A2205F1080314F037FD00202C
:10A2C00003B0BDE8F08300BF502C002040FAFF1F10
:10A2D000C5B3A2918988888810110300FC1003007F
:10A2E000B0AAFF1F282C0020302C002008110300EA
:10A2F0002DE9F04F9FB003904D4CDFF85091DFF8FF
:10A3000040814FF07C5B4FF0000A0020FF211DF0E0
:10A3100033F901900020FF211DF02EF90290C4F8BE
:10A320000090C4F804904249651A0F4601F10806EE
:10A33000019821F077FB414621F07CFC594621F041
:10A34000BBFAA8512E44029821F06CFB414621F043
:10A3500071FC594621F0B0FA706007F1100345F81E
:10A3600003A01D44C5F804A04FF0814323624FF0C1
:10A3700082436362002384F828300F9BE362012349
:10A3800084F830302B4BE3612B4BA361343407F559
:10A3900002729442B9D1002002211DF0EDF800288C
:10A3A000D4BF00200120039B83F8450000283BD048
:10A3B0000020FF211DF0E0F805460020FF211DF0E0
:10A3C000DBF804461D4B03998B60CB60284621F0D7
:10A3D00029FB1B4921F02EFC4FF07C5121F06CFA37
:10A3E000039A1061204621F01DFB154921F022FC43
:10A3F0004FF07C5121F060FA039B586100230399D0
:10A400008B61CB61002281F830201C9A4A630122C3
:10A4100081F8382081F845200A4A4A620A4A0A62CD
:10A420004FF08342CA628B621FB0BDE8F08F00BF5D
:10A430007C2C00205C8FC23E8FC2753C0000F8412E
:10A4400000007F43B81EC53E0AD7A33C0000704100
:10A450002DE9F04387B000258DF810508DF811508C
:10A460008DF81250214804A915F026FBDFF88490DE
:10A47000DFF884801E4E06F60947D8F8003095FBB9
:10A48000F3F359F823402246002CB8BFE21C96F89B
:10A49000083C009303A83946C2F38702FF2316F055
:10A4A0001DFDABB29DF80D109DF80E209DF80C001F
:10A4B0008DF814008DF815108DF8162019B222466B
:10A4C000002CB8BF04F11F025211C2F120021F205C
:10A4D000009005A80190054812B21BB215F042F891
:10A4E0000135202DC9D107B0BDE8F083B0AAFF1F08
:10A4F000FCECFF1FE8FAFF1FA895FF1F2DE9F04FA6
:10A5000087B000278DF810708DF811708DF81270DB
:10A51000294804A915F0D0FA284B1D1F03F1380B68
:10A52000DFF89C8008F6094ADFF88C9055F8044F54
:10A530006E682246002CB8BFE21C98F8083C0093D5
:10A5400003A85146C2F38702FF2316F0C7FC234637
:10A55000002CB8BF04F11F035A11C2F12002D2B27D
:10A560003346002EB8BF06F11F035B11C3F1200371
:10A57000DBB2BC1CA4B29DF80D009DF80E109DF836
:10A580000C608DF814608DF815008DF816101F2BD7
:10A5900028BF1F23009305AB0193484639B21F2AF9
:10A5A00028BF1F2223B214F0DDFF5D4501D02746EE
:10A5B000BCE707B0BDE8F08FB0AAFF1FE8FAFF1FA5
:10A5C000FCECFF1FFFFFFFFF2DE9F04F91B00D9056
:10A5D0000023734DEB202968CA18CC5C00FB04F4FF
:10A5E0002412CC54517800FB01F10912517091787A
:10A5F00000FB01F1091291700333B3F5406FEAD10A
:10A6000000220C92DFF8B8B1D946664B0C9AD558A7
:10A610000D9A937A13B1644B0C9AD5582B46002DA2
:10A62000B8BFEB1CC3F387044FF002082E46274641
:10A630005B4991F8083C00930EA801F609413A469F
:10A64000FF2316F04BFC304620F09AFD0022574BBA
:10A6500020F0FCFD0022564B20F044FC21F0D8F8FD
:10A660000446002121F0EEFB002800F08380204604
:10A6700020F098FD82468B46484620F093FD46A385
:10A68000D3E9002320F0E2FD21F0C2F820F08AFD9A
:10A6900004460D461EF0D4FACDE9040120462946B1
:10A6A0001EF004FACDE906014846424921F004F9BA
:10A6B00020F078FD38A3D3E9002320F0C7FD21F076
:10A6C000A7F820F06FFD04460D461EF0B9FACDE95B
:10A6D0000801204629461EF0E9F9CDE90A019DF856
:10A6E00039209DF83A309DF838108DF83C108DF8DF
:10A6F0003D208DF83E3050465946DDE9042320F0D8
:10A70000A5FD00222C4B20F0EFFB21F039F804B21C
:10A7100050465946DDE9062320F098FD0022264BDD
:10A7200020F0E2FB21F02CF800B200905046594690
:10A73000DDE9082320F08AFD00221F4B20F0D4FB26
:10A7400021F01EF800B2019050465946DDE90A2377
:10A7500020F07CFD0022184B20F0C6FB21F010F801
:10A7600000B202900FAB039314480F210A46234610
:10A7700015F0B2F848460F4921F09EF88146B8F12D
:10A7800001087FF455AF0C9B04330C931C2B7FF412
:10A790003CAF11B0BDE8F08F399D52A246DF913F2A
:10A7A000FCECFF1FE0ECFF1F20FAFF1F0000903FB2
:10A7B0000000F03F0000C84100002E40B0AAFF1F7B
:10A7C0000000B443AFF300802DE9F04F93B005468D
:10A7D000837B032B00F20B82DFE813F0040076008A
:10A7E000E8005E010024AA4F07F60949DFF8A482B9
:10A7F000E6B2AB7A03EB4603DBB213F0800F1CBF6B
:10A80000DB43DBB25B00DBB213F0800F00F0E481CE
:10A8100083F0FF0303F1010B5FFA8BFB0BFB03F3E8
:10A820004FEAD31B0BF0FE0B8BF0FF0B2B699BFB4E
:10A83000F3FB1FFA84FA6A7B324497F8083C0093D2
:10A8400003A84946D2B2FF2316F048FB9DF80D201D
:10A850009DF80E309DF80C108DF808108DF8092029
:10A860008DF80A3040460FFA8AF15A4602AB14F0CE
:10A870002DFDEB69022B23D1AB69CBEB030B1FFA48
:10A880008BFB6A7B324497F8083C009305A8494645
:10A89000D2B2FF2316F022FB9DF815209DF816304A
:10A8A0009DF814108DF810108DF811208DF81230CD
:10A8B00040460FFA8AF10FFA8BF204AB14F006FD52
:10A8C0000134202C94D192E10024714F07F60949FC
:10A8D000DFF8C081E6B2AB7A03EB4603DBB213F0DC
:10A8E000800F1CBFDB43DBB25B00DBB213F0800FD9
:10A8F00000F0808183F0FF0303F1010B5FFA8BFB13
:10A900000BFB03F34FEAD31B0BF0FE0B8BF0FF0B9B
:10A910002B699BFBF3FB1FFA84FA6A7B324497F89E
:10A92000083C009307A84946D2B2FF2316F0D6FA96
:10A930009DF81D209DF81E309DF81C108DF81810F4
:10A940008DF819208DF81A30404659460FFA8AF2D0
:10A9500006AB14F0BBFCEB69022B23D16B69CBEB8C
:10A96000030B1FFA8BFB6A7B324497F8083C009379
:10A9700009A84946D2B2FF2316F0B0FA9DF8252067
:10A980009DF826309DF824108DF820108DF8212098
:10A990008DF8223040460FFA8BF10FFA8AF208AB9D
:10A9A00014F094FC0134202C94D120E10024384F81
:10A9B00007F60949DFF8DC80E6B2AB7AC3EB460361
:10A9C000DBB213F0800F1CBFDB43DBB25B00DBB2FA
:10A9D00013F0800F00F0198183F0FF0303F1010BE6
:10A9E0005FFA8BFB0BFB03F34FEAD31B0BF0FE0B61
:10A9F0008BF0FF0B2B699BFBF3FB1FFA84FA6A7B3E
:10AA0000324497F8083C00930BA84946D2B2FF2382
:10AA100016F064FA9DF82D209DF82E309DF82C102C
:10AA20008DF828108DF829208DF82A3040460FFA2D
:10AA30008AF15A460AAB14F049FCEB69022B23D188
:10AA4000AB69CBEB030B1FFA8BFB6A7B324497F8A5
:10AA5000083C00930DA84946D2B2FF2316F03EFAF7
:10AA60009DF835209DF836309DF834108DF8301063
:10AA70008DF831208DF8323040460FFA8AF10FFA06
:10AA80008BF20CAB14F022FC0134202C94D1AEE0FC
:10AA9000FCECFF1FB0AAFF1F0024694F07F609490D
:10AAA000DFF8A081E6B2AB7AC3EB4603DBB213F06A
:10AAB000800F1CBFDB43DBB25B00DBB213F0800F07
:10AAC00000F0AE8083F0FF0303F1010B5FFA8BFB14
:10AAD0000BFB03F34FEAD31B0BF0FE0B8BF0FF0BCA
:10AAE0002B699BFBF3FB1FFA84FA6A7B324497F8CD
:10AAF000083C00930FA84946D2B2FF2316F0EEF9A6
:10AB00009DF83D209DF83E309DF83C108DF83810A2
:10AB10008DF839208DF83A30404659460FFA8AF2BE
:10AB20000EAB14F0D3FBEB69022B23D16B69CBEB9B
:10AB3000030B1FFA8BFB6A7B324497F8083C0093A7
:10AB400011A84946D2B2FF2316F0C8F99DF8452056
:10AB50009DF846309DF844108DF840108DF8412046
:10AB60008DF8423040460FFA8BF10FFA8AF210ABA3
:10AB700014F0ACFB0134202C94D138E00168CA18E1
:10AB8000CC5CC4EBC414E411CC545178C1EBC111BA
:10AB9000C91151709178C1EBC111C9119170033382
:10ABA000B3F5406FEAD12B7A6A7A9A4205D800232E
:10ABB0002B72AB7A0133AB7201E001332B72EB7A6B
:10ABC0002A7B9A4205D80023EB726B7B01336B73AF
:10ABD00031E00133EB722EE003F1010B5FFA8BFBE6
:10ABE0000BFB03FB4FEADB1B0BF0FE0B1EE6002307
:10ABF0001348C3E703F1010B5FFA8BFB0BFB03FB6D
:10AC00004FEADB1B0BF0FE0B82E603F1010B5FFA50
:10AC10008BFB0BFB03FB4FEADB1B0BF0FE0BE9E6A8
:10AC200003F1010B5FFA8BFB0BFB03FB4FEADB1B12
:10AC30000BF0FE0B54E7002013B0BDE8F08F00BF0F
:10AC4000FCECFF1FB0AAFF1F2DE9F04F97B0029058
:10AC5000554B1B684FF40C3202FB03F2120ED3B2B9
:10AC600013F0400F00F01082DB43DBB203F03F0132
:10AC700003F00F0301334D4809114900441864786B
:10AC800003FB04F3415C01EB2313DBB212F0800FF2
:10AC900018BF5B42DBB283F0800303EB8303181120
:10ACA0005638C0B20023424D2968CA18CC5C00FB5C
:10ACB00004F42412CC54517801FB00F109125170B4
:10ACC000917801FB00F1091291700333B3F5406FE5
:10ACD000EAD1029A9368002B40F3DB81DFF8D4803D
:10ACE0004FF0000ACDF828A0324B5AF80320049206
:10ACF00003EB0A02039252680692039A92680D923D
:10AD000003EB0A02D2680E92039A12690892534426
:10AD10005B690F93C346D8F818301093D8F81C20FD
:10AD20000992D8F820301193D8F82420129298F87C
:10AD300028300B93D8F82C200C9298F830301393CD
:10AD4000029A5069049920F0B7FD0746029B986962
:10AD5000069920F0B1FD06463846394620F0B6FE89
:10AD600004463046314620F0B1FE0146204620F030
:10AD7000A5FD20F017FA04460D461EF027F920F035
:10AD800047FD81460C4921F03FF848B948464FF04D
:10AD9000844121F057F898B9484620F003FA11E0B1
:10ADA000002006490EE000BFD0560020DC10030052
:10ADB000FCECFF1F7C2C00200000A0400000144091
:10ADC0000020AC4920F024FD8146204629461EF093
:10ADD000FDF820F01DFD002121F00CF838BB2046C5
:10ADE00029461EF0F3F820F013FD20F0DBF90246AF
:10ADF0000B460020A04920F053FB04460D46384680
:10AE000020F0D0F902460B462046294620F01EFAD3
:10AE100020F0FEFC0746304620F0C4F902460B46FF
:10AE20002046294620F012FA20F0F2FC0646029A4B
:10AE30001069D16820F04AFE01460C9820F046FEC9
:10AE400004464846494620F041FE0146204620F08F
:10AE5000F1FE20F0A7F904460D46384620F0A2F98D
:10AE600002460B462046294620F0F0F920F0D0FC9F
:10AE70000146089820F022FD0746304620F092F95E
:10AE800002460B462046294620F0E0F920F0C0FC9F
:10AE900001460F9820F012FD08900D98394620F0D9
:10AEA0000DFD81460E98089920F008FD064648469B
:10AEB000494620F00BFE04463046314620F006FE9F
:10AEC0000146204620F0FAFC04460998014620F08D
:10AED000FDFD0146204620F0B5FF002851D0204658
:10AEE00020F060F904460D461EF070F820F090FC4A
:10AEF000002120F07FFF38BB204629461EF066F86F
:10AF000020F086FC20F04EF902460B4600205A49FC
:10AF100020F0C6FA04460D46484620F043F90246A2
:10AF20000B462046294620F091F920F071FC81461D
:10AF3000304620F037F902460B462046294620F0DD
:10AF400085F920F065FC0646099820F02BF90446A7
:10AF50000D46484620F026F902460B462046294673
:10AF600020F074F920F054FC8146304620F01AF9A4
:10AF700002460B462046294620F068F920F048FC9E
:10AF800006460498494620F099FC05460698314645
:10AF900020F094FC0446384620F004F900220023F7
:10AFA00020F054F9CDE90401089820F0FBF80022C4
:10AFB000002320F04BF9CDE90601304991F8083C17
:10AFC000009315A801F609410B9AFF2315F086FF9F
:10AFD0009DF855209DF856309DF854108DF850106E
:10AFE0008DF851208DF85230284620F035FF07B2F9
:10AFF000204620F031FF02B22148394614AB14F04C
:10B0000065F9204F4AF80750039B5C6007EB0A0480
:10B01000C4F80890E660DDE9040120F0F9FB206146
:10B0200010375744DDE9060120F0F2FB7860109AF2
:10B03000CBF81820099BCBF81C30119ACBF82020B4
:10B04000129BCBF824300B9A8BF828200C9BCBF862
:10B050002C30139A8BF830200A9B01330A930AF1A3
:10B06000340A08F13408029A93680A9A93423FF727
:10B070003BAE0EE0000040400000F03FFCECFF1F44
:10B08000B0AAFF1F7C2C002003F03F0103F00F0348
:10B09000F1E50F2017B0BDE8F08F00BF2DE9F047B4
:10B0A00084B000233C4DAA202968CA18CC5C00FB60
:10B0B00004F42412CC54517800FB01F109125170B0
:10B0C000917800FB01F1091291700333B3F5406FE1
:10B0D000EAD1002620253446DFF8C8902E4F07F627
:10B0E0000948FF2D9ABF290289B22946D9F80030B4
:10B0F0004FF48C7202FB03F201FB02F2120ED3B288
:10B1000013F0400F3ED0DB43DBB203F03F0103F00E
:10B110000F03013321480911490000EB010E9EF88D
:10B1200001A003FB0AF3415C01EB2313DBB212F035
:10B13000800F18BF5B425FFA83FA97F8083C0093D0
:10B1400003A841463246FF2315F0C8FE9DF80D20A6
:10B150009DF80E309DF80C108DF808108DF8092020
:10B160008DF80A308AF080020D4821B2D20802AB75
:10B1700014F0ACF801340135ADB20736F6B2202C2C
:10B18000AFD104E003F03F0103F00F03C2E70F204B
:10B1900004B0BDE8F08700BFFCECFF1FDC1003002B
:10B1A000B0AAFF1FD05600202DE9F04F85B005460C
:10B1B0000023454EAA243168CA18C85C04FB00F07D
:10B1C0000012C854517804FB01F1091251709178B2
:10B1D00004FB01F1091291700333B3F5406FEAD11A
:10B1E00020260024DFF8F0A0DFF8F0B0DFF8D880E8
:10B1F00008F609492246002CB8BFE21CC2F38702B8
:10B20000062A28BF06225AF82230A97A09B15BF82B
:10B210002230FF2E9ABF300280B230462B4A12688D
:10B220004FF48C7101FB02F100FB01F1090ECAB26F
:10B2300012F0400F40D0D243D2B202F03F0002F0F1
:10B240000F020132224F0011400007EB000E9EF862
:10B2500001E002FB0EF2385C00EB2212D2B211F0D8
:10B26000800F18BF5242D7B21A46002BB8BFDA1C63
:10B2700098F8083C009303A84946C2F38702FF23CD
:10B2800015F02CFE9DF80D209DF80E309DF80C1049
:10B290008DF808108DF809208DF80A3087F08002AB
:10B2A0000C4821B2D20802AB14F010F80134013678
:10B2B000B6B2202C05D09DE702F03F0002F00F024D
:10B2C000C0E705B0BDE8F08FFCECFF1FD0560020B2
:10B2D000DC100300B0AAFF1FE0ECFF1F20FAFF1FE5
:10B2E0002DE9F041B8B00446B14B1B78002B00F0BB
:10B2F0005B814369002B40F3578100F11C06304607
:10B3000017F04CFB10B1304617F03CFBA2692569E1
:10B310006369002D7ADB9D4278DA08A8A5490123EC
:10B3200017F0C0FC08A817F039FB00286BD010A854
:10B3300008A9012217F06AFD9F4F5AE010A817F0E4
:10B3400021FB56E010A817F0DBFA014603785F2BCB
:10B350002AD07E2B28D02E2B26D034A81CF062F9C0
:10B3600034A81CF0ADFA014604A81CF097F934A8E3
:10B370001CF00CF930A839461CF054F904A830A987
:10B380001CF042FA804630A81CF000F904A81CF01A
:10B39000FDF8B8F1010F07D1013D10A817F0B0FA80
:10B3A0000146684621F064FD10A817F0EBFA28A8C2
:10B3B00008A9012217F02AFD9DF8A4308DF8443029
:10B3C0002A9B12939DF8AC308DF84C3038AB53F873
:10B3D000330D59689A68CDF84D00CDF85110CDF86D
:10B3E00055201B7B8DF859302F9B179328A817F0F9
:10B3F00081FA10A817F0D2FA002800F09680002DEC
:10B4000080F2A08091E008A817F074FA04F14105D9
:10B410002846A16921F02CFD2846694621F07AFBD7
:10B4200020A864492A46012317F03CFC9DF884308B
:10B4300084F82030229B63629DF88C3084F8283099
:10B4400038AB53F8535D58689968C4F82950C4F86C
:10B450002D00C4F831101B7B84F83530279BA36383
:10B4600020A817F047FA304617F098FA002800F0A5
:10B470009B8094F820E08DF864E0676A1A9794F84E
:10B4800028008DF86C004D4B1893234653F8295F24
:10B4900059689A68CDF86D50CDF87110CDF87520C7
:10B4A000197B8DF87910A26B1F92454D85F864E9E0
:10B4B000C5F8687985F86C09DDF86DE0DDF8717024
:10B4C000DDF87500C5F86DE9C5F87179C5F875093D
:10B4D00085F87919C5F87C2918A817F00BFA00230C
:10B4E000237205F5166010A9062217F015FA10A8A8
:10B4F0003449062221F04AFD78B310A832490622C9
:10B5000021F044FD48B324E003F007030133012296
:10B5100002FA03F32A498B6503EB430201F5166037
:10B520005C3192B217F0F8F93EE010A817F02AFA51
:10B5300008A817F027FA10A817F0DCF908A817F0E8
:10B54000D9F963E710A817F0DDF900287FF4F6AE0B
:10B55000F8E6304617F016FA26E0194C04F51665A1
:10B56000284617F051F90646284617F04DF946EAE5
:10B5700000202060284617F047F90646284617F0B5
:10B5800043F946EA00206060284617F03DF9A060C4
:10B59000284617F039F92061284617F035F9E060A0
:10B5A000A36813F0800FAFD138B0BDE8F08100BFC1
:10B5B00000A0FF1F34530020201103001057030088
:10B5C000B4AAFF1F2811030030110300FFFFFFFF83
:10B5D0002DE9F04F89B0814600238B4DBE202968AC
:10B5E000CA18CC5C00FB04F42412CC54517800FB44
:10B5F00001F109125170917800FB01F1091291706B
:10B600000333B3F5406FEAD1D9F81C004FF0824103
:10B6100020F05CFA20F046FCC2B27B4B93F8083C69
:10B62000009305A87949FF2315F058FCD9F8088044
:10B63000D9F80C001FF0B6FD04460D464046D9F877
:10B640001C1020F03BF91FF0ADFD6DA3D3E90023E2
:10B650001FF0FCFD20F0DCF81FF0A4FD06460F46AD
:10B660001DF024FA02460B46204629461FF0EEFD47
:10B670000022674B1FF038FC20F082F80290304621
:10B6800039461DF0DDFA02460B46204629461FF0DA
:10B69000DDFD02460B4600205D491FF023FC20F033
:10B6A0006FF80390DFF870B1D9F80C001FF07AFD45
:10B6B00004460D4640461FF075FD51A3D3E9002313
:10B6C0001FF0C4FD20F0A4F81FF06CFD06460F46E5
:10B6D0001DF0ECF902460B46204629461FF0B6FD48
:10B6E00000224B4B1FF000FC20F04AF88246304607
:10B6F00039461DF0A5FA02460B46204629461FF0A2
:10B70000A5FD02460B46002041491FF0EBFB20F04F
:10B7100037F806469DF815209DF816309DF8141050
:10B720008DF818108DF819208DF81A300FFA8AF458
:10B7300005B2584621462A4606AB13F0C7FD9DF8D0
:10B7400015209DF816309DF814108DF81C108DF8FA
:10B750001D208DF81E3058462946224607AB13F0AF
:10B76000B5FD40464FF07E5120F0A8F880462949AB
:10B7700020F05EFB08B14FF00008029B9A4593D180
:10B78000039B9E4290D1D9F81C402046D9F808105E
:10B7900020F094F805461F4920F04AFB10B9C9F87B
:10B7A000085029E00023C9F80830D9F82050204675
:10B7B000294620F083F80446C9F81C00D9F8106027
:10B7C000314620F02BFB30B1C9F81C6005F1004573
:10B7D000C9F8205010E0D9F818602046314620F012
:10B7E00031FB48B13046294620F066F8C9F81C0004
:10B7F00005F10045C9F82050002009B0BDE8F08FE0
:10B80000399D52A246DF913FFCECFF1F05F9FF1F57
:10B81000000030400000B443B0AAFF1FAFF3008027
:10B8200038B504460D46084621F080FB02462368E1
:10B830005B68204629469847054620461BF0DEFDFA
:10B84000284438BD30B589B0054600238DF8043052
:10B850005A4B009302914FF0FF33039358486946C7
:10B8600019F09CFF0446002800F0A58054482146AA
:10B87000544A19F0FBFF0346027C042A04D105F167
:10B880000F00996921F0F4FA4D4821464E4A19F00B
:10B89000EDFF037C022B04D1836985F8733001230B
:10B8A0002B7147482146494A19F0E0FF037C022BDF
:10B8B00004D1836985F8743001232B7140482146F7
:10B8C000434A19F0D3FF037C022B04D1836985F826
:10B8D000753001232B713A4821463E4A19F0C6FFC4
:10B8E000037C022B04BF8369AB67354821463A4A83
:10B8F00019F0BCFF037C022B04BF8369EB6730485F
:10B900002146364A19F0B2FF0346027C042A04D1CC
:10B9100005F1800099691BF0D5FE29482146304A7F
:10B9200019F0A4FF037C022B04BF836985F89030D3
:10B93000234821462B4A19F099FF0346027C042A2A
:10B9400033D104A899691BF06DFE04A826491BF0A9
:10B9500019FFE0B904A825491BF014FFC8B904A8D1
:10B9600023491BF00FFFB0B904A822491BF00AFFBE
:10B9700098B904A820491BF005FF80B904A81F4905
:10B980001BF000FF00280CBF0523042308E005235B
:10B9900006E0002304E0012302E0022300E0032389
:10B9A00085F8913004A81BF0F1FD0548214619F0F7
:10B9B000CDFB012000E0002009B030BD8857030016
:10B9C0003C560020381103004011030044110300CD
:10B9D0004C110300541103005811030060110300BF
:10B9E0006811030070110300781103008C1103002B
:10B9F00098110300A8110300B8110300C01103003F
:10BA000030B585B005460C465248534A19F02EFF12
:10BA10000346027C042A04D105F10F00996921F044
:10BA200027FA4C4821464D4A19F020FF037C022B8F
:10BA300004D1836985F8733001232B714548214671
:10BA4000474A19F013FF037C022B04D1836985F860
:10BA5000743001232B713F482146424A19F006FFFA
:10BA6000037C022B04D1836985F8753001232B7187
:10BA7000384821463C4A19F0F9FE037C022B04BFEA
:10BA80008369AB6733482146384A19F0EFFE037CDF
:10BA9000022B04BF8369EB672E482146344A19F014
:10BAA000E5FE0346027C042A04D105F18000996971
:10BAB0001BF008FE274821462E4A19F0D7FE037CCA
:10BAC000022B04BF836985F89030224821462A4A18
:10BAD00019F0CCFE0346027C042A33D168469969EA
:10BAE0001BF0A0FD684625491BF04CFEE0B96846F6
:10BAF00023491BF047FEC8B9684622491BF042FEA5
:10BB0000B0B9684620491BF03DFE98B968461F4908
:10BB10001BF038FE80B968461D491BF033FE002833
:10BB20000CBF0523042308E0052306E0002304E0FE
:10BB3000012302E0022300E0032385F891306846E8
:10BB40001BF024FD0348214619F000FB012005B03D
:10BB500030BD00BF3C5600203811030040110300E7
:10BB6000441103004C110300541103005811030049
:10BB700060110300681103007011030078110300C5
:10BB80008C11030098110300A8110300B8110300E1
:10BB9000C011030010B500F18004204613491BF0CA
:10BBA000F1FDC8B9204612491BF0ECFDB0B92046A2
:10BBB00010491BF0E7FD98B920460F491BF0E2FD44
:10BBC00080B920460D491BF0DDFD68B920460C49BF
:10BBD0001BF0D8FD052010BD002010BD012010BDB8
:10BBE000022010BD032010BD042010BDC4110300AD
:10BBF000CC110300D4110300E0110300EC11030089
:10BC0000F811030010B50C46084615491BF0BAFDA3
:10BC1000E0B9204613491BF0B5FDC8B920461249CA
:10BC20001BF0B0FDB0B9204610491BF0ABFD98B930
:10BC300020460F491BF0A6FD80B920460D491BF098
:10BC4000A1FD00280CBF0520042010BD052010BD5B
:10BC5000002010BD012010BD022010BD032010BD2A
:10BC6000781103008C11030098110300A811030040
:10BC7000B8110300C01103002DE9F041D8B0074608
:10BC80000D469E4E04AC9AE12B798DF81430AB68CA
:10BC900006932B7B8DF81C3004962B4653F80D0F22
:10BCA00059689A68CDF81D00CDF82110CDF82520EF
:10BCB0001B7B8DF82930EB690B93684600211BF044
:10BCC000B1FC08E0204616F09FFD0FE00A290DD0D8
:10BCD00068461BF02BFD204616F040FE30B1204692
:10BCE00016F092FDC1B20D29F0D1EBE7204616F017
:10BCF00001FE0CA882491BF095FC68460CA91BF0BC
:10BD000077FD80460CA81BF041FCB8F1000F13D062
:10BD100010A8694605221BF0CBFD684610A91BF050
:10BD2000C9FC10A81BF032FC684607F10F01642221
:10BD300000231BF081FD3FE114A872491BF072FC47
:10BD4000684614A91BF054FD804614A81BF01EFC85
:10BD5000B8F1000F17D018A8694604221BF0A8FDFF
:10BD6000684618A91BF0A6FC18A81BF00FFC029B44
:10BD7000002B00F0218168461BF0B2FD87F87300AC
:10BD800001233B7118E11CA85F491BF04BFC68467E
:10BD90001CA91BF02DFD80461CA81BF0F7FBB8F179
:10BDA000000F17D020A8694606221BF081FD6846C7
:10BDB00020A91BF07FFC20A81BF0E8FB029B002BB6
:10BDC00000F0FA8068461BF08BFD87F874000123B1
:10BDD0003B71F1E024A84D491BF024FC684624A9DE
:10BDE0001BF006FD804624A81BF0D0FBB8F1000F25
:10BDF00017D028A8694605221BF05AFD684628A9D5
:10BE00001BF058FC28A81BF0C1FB029B002B00F084
:10BE1000D38068461BF064FD87F8750001233B71F1
:10BE2000CAE02CA83A491BF0FDFB68462CA91BF080
:10BE3000DFFC80462CA81BF0A9FBB8F1000F14D042
:10BE400030A8694604221BF033FD684630A91BF078
:10BE500031FC30A81BF09AFB029B002B00F0AC8059
:10BE600068461BF03DFDB867A6E034A829491BF0E1
:10BE7000D9FB684634A91BF0BBFC804634A81BF0F4
:10BE800085FBB8F1000F14D038A8694605221BF0D5
:10BE90000FFD684638A91BF00DFC38A81BF076FB97
:10BEA000029B002B00F0888068461BF019FDF867A4
:10BEB00082E03CA818491BF0B5FB68463CA91BF082
:10BEC00097FC80463CA81BF061FBB8F1000F25D021
:10BED00040A8694605221BF0EBFC684640A91BF010
:10BEE000E9FB40A81BF052FB029B002B64D007F13A
:10BEF000800069461BF0C8FB5EE000BF10570300DE
:10BF0000041203000C120300141203001C1203009D
:10BF1000241203002C1203003412030044A82D49FC
:10BF20001BF080FB684644A91BF062FC804644A8D5
:10BF30001BF02CFBB8F1000F14D048A8694606226C
:10BF40001BF0B6FC684648A91BF0B4FB48A81BF0E0
:10BF50001DFB029B002B2FD068461BF0C1FC87F80D
:10BF6000900029E04CA81C491BF05CFB68464CA9DA
:10BF70001BF03EFC80464CA81BF008FBB8F1000FFC
:10BF80001AD050A8694605221BF092FC684650A9B9
:10BF90001BF090FB50A81BF0F9FA029B63B154A868
:10BFA00069461BF07BFB384654A9FFF72BFE87F848
:10BFB000910054A81BF0EAFA68461BF0E7FA2B68D8
:10BFC0009B682846984700283FF75EAE58B0BDE80A
:10BFD000F08100BF3C120300441203002DE9F04140
:10BFE000FCB00446A94B1B78002B00F083818368CA
:10BFF000013383604279934204DB4FF0FF33836067
:10C00000002594E1417B8B420CDAA14B6D460FCBAE
:10C0100007C52B702F23ADF8503014A8694620F0C7
:10C0200079FD97E00268007B5D1A00F18B80854204
:10C0300080F288800CA89749012316F033FE0CA8E3
:10C0400016F0ACFC00287AD014A80CA9012216F036
:10C05000DDFE914E914F68E014A816F093FC64E069
:10C0600014A816F04DFC014603785F2B38D07E2BC8
:10C0700036D02E2B34D070A81BF0D4FA70A81BF049
:10C080001FFC014608A81BF009FB70A81BF07EFAF4
:10C090006CA831461BF0C6FA08A86CA91BF0B4FBCB
:10C0A000012800F03D8168A839461BF0BBFA08A8BA
:10C0B00068A91BF0A9FB804668A81BF067FA6CA86A
:10C0C0001BF064FA08A81BF061FAB8F1010F07D160
:10C0D000013D14A816F014FC0146684620F0C8FE85
:10C0E00014A816F04FFC60A80CA9012216F08EFED1
:10C0F0009DF884318DF85430629B16939DF88C31F5
:10C100008DF85C307CAA52F8630D51689368CDF8C5
:10C110005D00CDF86110CDF86530137B8DF8693086
:10C12000679B1B9360A816F0E5FB14A816F036FC7D
:10C13000002800F0E180002D80F2EB80DCE00CA80C
:10C1400016F0D8FB14A8216820F092FE14A86946C6
:10C1500020F0E0FC0CA84F4914AA012316F0A2FD20
:10C160000CA816F01BFC054620B92046FFF736FF49
:10C170000546BBE004F10F070026E67384F8736000
:10C1800084F8746084F875600B23A367E66704F194
:10C19000800005211BF0A8FA322384F8903084F83F
:10C1A0009160267154A869461BF03CFA54A81BF014
:10C1B00087FB014604A81BF071FA54A81BF0E6F9AE
:10C1C00004A837491BF0DEFA00284CD0A368B3421C
:10C1D0007CDBDFF8D0809DF834308DF8D4310E9BB5
:10C1E00076939DF83C308DF8DC31CDF8D081DDF8C8
:10C1F0003D10DDF84120DDF84530CDF8DD11CDF8FA
:10C20000E121CDF8E5319DF849308DF8E931139BF6
:10C210007B9308A800211BF005FA08E074A816F02B
:10C22000F3FA0FE00A290DD008A81BF07FFA74A8D2
:10C2300016F094FB30B174A816F0E6FAC1B20D29DD
:10C24000F0D1EBE774A816F055FB08A83946642234
:10C2500000231BF0F1FA013608A81BF097F9A36838
:10C260009E42B8DD32E058A80B491BF0DBF904A868
:10C2700058A91BF0C9FA064658A81BF087F9012EE9
:10C2800012D120460CA9FFF7F7FC1FE000A0FF1F0A
:10C290006012030034530020581203004C120300B4
:10C2A00050120300105703005CA823491BF0BAF991
:10C2B00004A85CA91BF0A8FA06465CA81BF066F966
:10C2C000012E03D120460CA9FFF7BCFA23793BB914
:10C2D0001A4B33F8042F9B78A4F8732084F8753038
:10C2E0000CA816F04FFB04A81BF050F90CA816F090
:10C2F00001FB1CE000251AE014A816F043FB0CA873
:10C3000016F040FB14A816F0F5FA0CA816F0F2FA95
:10C3100018E714A816F0F6FA00287FF49DAE9FE601
:10C320006CA81BF033F908A81BF030F9D0E62846BA
:10C330007CB0BDE8F08100BF4C120300D00E0300BA
:10C3400070B506460D4B18781FF06CFB0146304661
:10C350001FF064FD68B9094D012415F8010F1FF0A5
:10C3600061FB31461FF064FD30B901340C2CF4D16F
:10C3700001E0002400E00024204670BDB495FF1FBA
:10C3800010B5044600211FF03FFD28B9204605499D
:10C390001FF058FD10B902E0024C00E000242046D6
:10C3A00010BD00BF00007F4310B5054C20781FF082
:10C3B00035FBFFF7E5FF1FF075FD207010BD00BFD6
:10C3C000582C002010B50C46FFF7BAFF001903D413
:10C3D0000C28A8BF002000E00B20034B185C1FF0C6
:10C3E0001DFBFFF7CDFF10BDB495FF1F08B5002062
:10C3F000012119F0F7FF0120014619F0F3FF002099
:10C40000014619F0BDFF0120014619F0B9FF08BD32
:10C410002DE9F84F00257E4B1D702846012119F0AB
:10C42000AFFF2846294619F0ABFF2C460126DFF85E
:10C430001882784F3046002119F0A2FF4FF4207384
:10C44000013B7FF4FDAF282019F018FC54F80830A8
:10C45000184420EAE073E3519D42B8BF1D463046C0
:10C46000314619F08DFF04341C2CE3D16A4B187847
:10C4700018B11FF0D3FA814656E0684B187805FBD7
:10C4800000F5674B1B889D4220DB664B9B788342FF
:10C490001CD8654B1A68654B1B6813B9634B1A604F
:10C4A0003DE0634909880B44934238D21FF0B6FA45
:10C4B0004FF0FF31FFF786FF1FF0F4FC574B187069
:10C4C00000235A4A13605B4A136028E05A4B1B88CA
:10C4D0009D421FDC534BDB7A83421BD9524B1A68B7
:10C4E000544B1B6813B9534B1A6018E05349098821
:10C4F0000B44934213D21FF091FA0121FFF762FF20
:10C500001FF0D0FC454B187000234A4A1360474A7D
:10C51000136004E00023474A1360444A13603F4B12
:10C5200018781FF07BFA8146454BD3F800A0384BB2
:10C530001D780024374E40F2FF38424FA346A059E1
:10C540001FF070FA49461FF0C1FA1FF085FC20EA7F
:10C55000E0704045A8BF4046A051E359984201DB36
:10C56000E05107E0002B05DDB3EB0A0354BFE351B4
:10C5700044F807B0C128A8BF012504341C2CDED123
:10C58000234B1D7000252C46DFF8C0A0DFF8C0B09B
:10C59000DFF8B08020461FF045FA51461FF096FAAA
:10C5A00007461FF059FC06461FF03CFA0146384684
:10C5B0001FF082F907460E2C1FDC4FF07E503946E3
:10C5C0001FF07AF9814658F826001FF02BFA014631
:10C5D00048461FF07BFA8146013658F826001FF0C6
:10C5E00021FA39461FF072FA014648461FF066F9F3
:10C5F0001FF032FC4BF8050003E058F8263045F8F0
:10C600000B3001340435102CC4D1BDE8F88F00BFC5
:10C6100049FAFF1FE0ECFF1F582C00203CFAFF1FD7
:10C620009095FF1FB495FF1FD0560020ACAAFF1FA6
:10C630007495FF1FFC9FFF1FE495FF1FEC95FF1FE4
:10C64000A495FF1F20FAFF1FC8FAFF1FCDCCCC3ED8
:10C65000E8FAFF1F10B50446FFF7DAFE04F52E5482
:10C66000206803689B68984710BD00BF10B504465A
:10C67000FFF7CEFE0822084B1A60606910F0010F28
:10C6800001D1236903E04310E2582369D35804EB36
:10C6900060009847002010BDA495FF1F2DE9F041D0
:10C6A0001546814202DA034608461946002918DB7E
:10C6B0001F2816DCABB21F2B13D820EAE0741F2909
:10C6C000B4BF0E461F26B4420BDCDFF81C800127E6
:10C6D000404621B22A463B4612F0C4FA0134B44225
:10C6E000F6DDBDE8F08100BFB0AAFF1FF8B5054632
:10C6F0001646994202DD0A4619461346B54202DD46
:10C700002A46354616460C461F46994207DC2846FF
:10C71000314622B2FFF7C2FF0134BC42F7DDF8BD5B
:10C720002DE9F04F85B00446A04D2846202112F097
:10C73000F3FB28469E4912F0E7FB2846002112F041
:10C74000ABFA284612F06EFA0025DFF86082102757
:10C750000126404639462AB2334612F083FA0235A2
:10C76000ADB2102DF5D1934B1B7813F0010F0CD106
:10C770008E4D284610210222012312F073FA28461A
:10C7800010210422012312F06DFA884E3046002158
:10C7900012F082FA884F03A8394694F8322020F02C
:10C7A00071F901250095304608212A4603AB12F0A5
:10C7B000BDFA03A8394694F8312020F063F90095BA
:10C7C000304612212A4603AB12F0B0FAA0684FF0AF
:10C7D0007C511FF073F81FF03FFBC7B2E0684FF0C9
:10C7E0007C511FF06BF81FF037FBC2B23046394660
:10C7F0002B4612F037FAE1694B1D284609B2022296
:10C800001BB2FFF773FF216A4B1D1D2009B21E22C8
:10C810001BB2FFF76BFF694B1B68626B9B1A272BE0
:10C8200040F29482654B1B689B1A272B08D96348FA
:10C8300002F12803636301681A46CB1A272BF7D845
:10C8400094F830302BB34FF08343A36004200C21C5
:10C850001AF092FE1FF0E6F8E060002002211AF0C4
:10C860008BFE0028CCBF4FF07E53554B63610020F8
:10C8700002211AF081FE0028CCBF4FF07C534FF00C
:10C880003F43A361002384F82E3084F82F3084F8CE
:10C890003030484B1B783B2B0BD1464B5B783A2B07
:10C8A00000F24782012384F82E3042E2012384F80B
:10C8B0002F30A568122020211AF05EFE1FF0B2F87A
:10C8C000014628461FF096FA18B1E0681FF0C4FA36
:10C8D0006062A568042010211AF04EFE1FF0A2F835
:10C8E000014628461FF086FA18B1E0681FF0B4FA36
:10C8F000A062A568284633491FF07CFA002869D059
:10C90000D4F81480404600211FF07EFA002800F081
:10C91000C180E668A7694FF0000A4FF08049DFF850
:10C92000A8B0284641461EF0C9FF054630463946A4
:10C930001EF0C4FF064651461FF070FA20B930467B
:10C9400020491FF075FA08B107F10047284649460B
:10C950001FF078FA28B1284659461FF055FA0028EA
:10C96000DFD130461FF09EFAC5B294F82E30012B6D
:10C9700011D1002384F82E30082D05D91846032143
:10C980001AF0FAFD606225E0002003211AF0F4FDA0
:10C99000083060621EE0002006211AF0EDFD281A22
:10C9A0006062002812DA0023636213E0B0AAFF1F5E
:10C9B000C4FAFF1F40FAFF1F70120300D056002078
:10C9C000000080BF000070410000E0410A28C4BFA1
:10C9D0000A236362A5682846A1491FF00BFA0028C4
:10C9E00058D0D4F81480404600211FF02BFA0028BC
:10C9F00050D0E668A7694FF0000A4FF08049DFF891
:10CA00006CB2284641461EF059FF0546304639466D
:10CA10001EF054FF064651461FF000FA20B930467A
:10CA200090491FF005FA08B107F10047284649462A
:10CA30001FF008FA28B1284659461FF0E5F90028EA
:10CA4000DFD130461FF02EFAC5B294F82F30012BFB
:10CA500011D1002384F82F30082D05D91846032161
:10CA60001AF08AFDA06215E0002003211AF084FD6F
:10CA70000830A0620EE0002006211AF07DFD281A81
:10CA8000A062002802DA0023A36203E00A28C4BFE0
:10CA90000A23A362E269636A9A4206DD002A04DD82
:10CAA000013AE261012284F82C20E269934206DD1A
:10CAB000092A04DC0132E261012384F82C30226A65
:10CAC000A36A9A4206DD002A04DD013A22620122AD
:10CAD00084F82D20226A934206DD092A04DC013203
:10CAE0002262012384F82D30A06861691EF0E6FE01
:10CAF0000546A060A7693846E1681EF0DFFE0646DD
:10CB0000E06000211FF08AF928B107F10047A76112
:10CB10000023E3600AE0304652491FF089F928B14A
:10CB2000A36903F10043A3614E4BE36028461FF065
:10CB300093F9032864DCE569E0681FF08DF985420C
:10CB40005EDC0535A8425BDC474BA3600020032177
:10CB50001AF012FD20B9636903F1004363614FE0ED
:10CB6000012384F82C30002002211AF005FDE3692E
:10CB7000012B40F3E480C2B2072B21DC12B1012A61
:10CB80003ED11DE0656A012003211AF0F5FC28441E
:10CB90006062636903F100436361A56928464FF051
:10CBA00080411FF031F958B328461EF0FBFA2AA342
:10CBB000D3E900231EF098F91EF02AFEA0611FE0C1
:10CBC000656A012003211AF0D7FC281A60626369A4
:10CBD00003F100436361A0691EF0E4FA06460F46C4
:10CBE0001DA3D3E900231EF0C1FD48B130463946EC
:10CBF00019A3D3E900231EF075F91EF009FEA06108
:10CC0000A0681FF029F91B2870DD256AE0681FF075
:10CC100023F985426ADC0535A84267DC134BA36023
:10CC2000002003211AF0A8FC20B9636903F1004336
:10CC300063615BE0012384F82C30002002211AF0AC
:10CC40009BFC236A012B7EDDC2B2072B2EDC7AB15E
:10CC5000012A4BD12AE000BF9A9999999999C93F25
:10CC60000000884100007041000040400000E041A9
:10CC7000A56A012003211AF07FFC2844A0626369A1
:10CC800003F100436361A56928464FF080411FF01E
:10CC9000BBF858B328461EF085FA2FA3D3E900232A
:10CCA0001EF022F91EF0B4FDA0611FE0A56A01206C
:10CCB00003211AF061FC281AA062636903F10043A2
:10CCC0006361A0691EF06EFA06460F4622A3D3E9FF
:10CCD00000231EF04BFD48B1304639461EA3D3E970
:10CCE00000231EF0FFF81EF093FDA061A0681FF066
:10CCF000B3F830F0200329D1012384F83030184BE9
:10CD00005B7D83F00103174A517884F831109278E3
:10CD10000C2A84BFA3EB830102EB810284F832204A
:10CD200094F8322092B903EB43039B0084F832302D
:10CD30000CE00C4B5B783B2B7FF4BBADB6E5072BCF
:10CD40003FF73EAF1EE7072BB0DC91E7002005B0B0
:10CD5000BDE8F08FAFF300809A9999999999C93FEE
:10CD6000282C002040FAFF1F70B4FF289CBF00024F
:10CD700080B21D4C25689DF80C404034EB1A4FF4EE
:10CD80008C7505FB03F300FB03F304EB1363DBB2C9
:10CD900013F0400F21D0DD43EDB205F03F0005F068
:10CDA0000F050135114C001140002618767805FB5F
:10CDB00006F5205C00EB2515EDB213F0800F0EBFD9
:10CDC000EBB26B42DBB283F08003501AC0B200FBBF
:10CDD00003F001EB2021C8B204E003F03F0003F0B0
:10CDE0000F05DFE770BC7047D0560020DC10030051
:10CDF0002DE9F04F85B05F4B1B684FF40C3202FBFE
:10CE000003F2120ED3B213F0400F00F0A580DB4303
:10CE1000DBB203F03F0103F00F0301335648091161
:10CE200049004418647803FB04F3415C01EB2313CD
:10CE3000DBB212F0800F18BF5B42DBB283F08003DD
:10CE400003EB830398111A38C0B200234B4D2968B5
:10CE5000CA18CC5C00FB04F42412CC54517801FBBA
:10CE600000F109125170917801FB00F109129170E3
:10CE70000333B3F5406FEAD14FF004081E240027B6
:10CE80000E25DFF8F89009F6094BDFF8E8A099F8CD
:10CE9000083C009302A859463A46FF2314F01EF8B6
:10CEA000EEB2C6F120020023009320463146D2B2F2
:10CEB000FFF75AFF0146FF2C9ABF200280B220469E
:10CEC000DAF800304FF48C7202FB03F200FB02F23E
:10CED000120ED3B213F0400F43D0DB43DBB203F0AA
:10CEE0003F0E03F00F03581C234B4FEA2E1E4FEA50
:10CEF0004E0E03EB0E0C9CF801C000FB0CF013F877
:10CF00000EE00EEB2013DBB212F0800F18BF5B4275
:10CF1000DBB29DF809009DF80A209DF808E08DF825
:10CF20000CE08DF80D008DF80E2083F0800308FBD7
:10CF300003F306EB2322124809B2D2B203AB12F07C
:10CF4000C5F9013D0E37FFB2023CA4B208F1020858
:10CF5000B5F1FF3F9BD109E003F03F0103F00F0360
:10CF60005CE703F03F0E03F00F00BDE7002005B0C3
:10CF7000BDE8F08FD0560020DC100300FCECFF1F52
:10CF8000B0AAFF1F2DE9F04F89B0904B1B684FF4FA
:10CF90000C3202FB03F2120ED3B213F0400F00F07A
:10CFA0000181DB43DBB203F03F0103F00F030133E8
:10CFB0008748091149004418647803FB04F3415C75
:10CFC00001EB2313DBB212F0800F18BF5B42DBB220
:10CFD00083F0800303EB830318115638C0B200239B
:10CFE0007C4D2968CA18CC5C00FB04F42412CC5494
:10CFF000517801FB00F109125170917801FB00F1A9
:10D00000091291700333B3F5406FEAD1022740242F
:10D010004FF00008C1462025DFF8B8B10BF60941F2
:10D0200003915FFA89F60F2E4ED8002300933846FD
:10D0300031462A46FFF798FE8246FF2F9ABF3902F3
:10D0400089B23946614A13684FF48C7202FB03F2CD
:10D0500001FB02F2120ED3B213F0400F00F0A780D2
:10D06000DB43DBB203F03F0103F00F030133584809
:10D070000911490000EB010E9EF801E003FB0EF3DD
:10D08000415C01EB2313DBB212F0800F0EBFDAB26A
:10D090005A42D2B282F08002A4F12003DBB203FB39
:10D0A00002F306EB2326F6B29BF8083C009305A892
:10D0B00003994246FF2313F011FF9DF814109DF8C9
:10D0C00015209DF8163050E00136F2B2FF2C9ABFC1
:10D0D000200280B220463D490B684FF48C7101FB61
:10D0E00003F100FB01F1090ECBB213F0400F63D046
:10D0F000DB43DBB203F03F0003F00F030133344E98
:10D100000011400006EB000E9EF801E003FB0EF359
:10D11000305C00EB2313DBB211F0800F18BF5B42D1
:10D12000DBB283F08003C4F1210A5FFA8AFA0AFBBA
:10D1300003FA05EB2A2A5FFA8AFA002300932046B5
:10D140002946FFF711FE0646C8F1B2029BF8083CDB
:10D15000009306A80399D2B2FF2313F0BFFE9DF8F7
:10D1600018109DF819209DF81A308DF81C108DF8B4
:10D170001D208DF81E3018480FFA8AF132B207AB25
:10D1800012F0A4F8013D09F1010908F10E085FFA57
:10D1900088F8023CA4B20237BFB215F0FF057FF455
:10D1A00040AF0EE003F03F0103F00F0300E703F090
:10D1B0003F0103F00F035AE703F03F0003F00F03B2
:10D1C0009DE7002009B0BDE8F08F00BFD0560020D9
:10D1D000DC100300FCECFF1FB0AAFF1F2DE9F04F8D
:10D1E00087B003908E4B1B684FF40C3202FB03F2A6
:10D1F000120ED3B213F0400F00F00081DB43DBB21C
:10D2000003F03F0103F00F03013386480911490081
:10D210004418647803FB04F3415C01EB2313DBB295
:10D2200012F0800F18BF5B42DBB283F0800303EB88
:10D23000830318115638C0B200237B4D2968CA18E1
:10D24000CC5C00FB04F42412CC54517801FB00F1B7
:10D2500009125170917801FB00F1091291700333AA
:10D26000B3F5406FEAD14FF002081F264024002595
:10D27000DFF8B091EFB20F2F42D800230093404661
:10D280003946F2B2FFF770FD8246B8F1FF0F9ABF40
:10D290004FEA082189B24146614A13684FF48C7203
:10D2A00002FB03F201FB02F2120ED3B213F0400FA5
:10D2B00000F0A980DB43DBB203F03F0103F00F0372
:10D2C00001330911490009EB0100407803FB00F329
:10D2D00019F8011001EB2313DBB212F0800F18BF15
:10D2E0005B42DBB283F08003A4F1210B5FFA8BFB7E
:10D2F0000BFB03FB07EB2B2B5FFA8BFB7F0842E05A
:10D30000F1B2FF2C9ABF200280B22046444A136833
:10D310004FF48C7202FB03F200FB02F2120ED3B246
:10D3200013F0400F74D0DB43DBB203F03F0003F097
:10D330000F0301330011400009EB000E9EF801E0DD
:10D3400003FB0EF319F8000000EB2313DBB212F01D
:10D35000800F18BF5B42DBB283F08003C4F1210A67
:10D360005FFA8AFA0AFB03FA01EB2A2A5FFA8AFAC1
:10D370000023009320463A46FFF7F6FC834606EB6F
:10D38000D677C7F34707062F28BF0627274B53F842
:10D39000273003998A7A12B1254B53F827301A4661
:10D3A000002BB8BFDA1C204991F8083C009304A870
:10D3B00001F60941C2F38702FF2313F08FFD9DF8A8
:10D3C00011209DF812309DF810108DF814108DF872
:10D3D00015208DF8163017480FFA8AF10FFA8BF2E4
:10D3E00005AB11F073FF0135023CA4B2013E08F118
:10D3F00002081FFA88F8202D0FD03BE703F03F0109
:10D4000003F00F0301E703F03F0103F00F0358E7B8
:10D4100003F03F0003F00F038CE707B0BDE8F08F87
:10D42000D0560020DC100300FCECFF1FE0ECFF1FD7
:10D4300020FAFF1FB0AAFF1F2DE9F04F85B08246EA
:10D44000654B1B684FF40C3202FB03F2120ED3B291
:10D4500013F0400F00F0B380DB43DBB203F03F0179
:10D4600003F00F0301335D48091149004418647843
:10D4700003FB04F3415C01EB2313DBB212F0800FDA
:10D4800018BF5B42DBB283F0800303EB8303981188
:10D490001A38C0B20023524D2968CA18CC5C00FB70
:10D4A00004F42412CC54517801FB00F1091251709C
:10D4B000917801FB00F1091291700333B3F5406FCD
:10D4C000EAD120250024DFF8189109F6094B04EB76
:10D4D000D473C3F34703062B28BF0623414A52F8EF
:10D4E00023609AF80A2012B13F4A52F82360E3B24F
:10D4F000C3F11007FFB203F1100200230093284686
:10D500003946D2B2FFF730FC8046FF2D9ABF290280
:10D5100089B22946304B1B684FF48C7202FB03F230
:10D5200001FB02F2120ED3B213F0400F4CD0DB43DA
:10D53000DBB203F03F0103F00F0301332748091169
:10D54000490000EB010E9EF801E003FB0EF3415C85
:10D5500001EB2313DBB212F0800F18BF5B42DBB28A
:10D5600083F08003620002FB03F307EB2327FFB283
:10D570003246002EB8BFF21C99F8083C009302A86E
:10D580005946C2F38702FF2313F0A8FC9DF8092037
:10D590009DF80A309DF808108DF80C108DF80D20BC
:10D5A0008DF80E3011480FFA88F13A4603AB11F0AE
:10D5B0008DFE0134023DADB2102C0AD087E703F096
:10D5C0003F0103F00F034EE703F03F0103F00F03A9
:10D5D000B4E705B0BDE8F08FD0560020DC100300A2
:10D5E000FCECFF1FE0ECFF1F20FAFF1FB0AAFF1F9B
:10D5F0002DE9F04F95B08346A34B1B684FF40C32D6
:10D6000002FB03F2120ED3B213F0400F00F0E282DD
:10D61000DB43DBB203F03F0103F00F0301339B4810
:10D62000091149004418647803FB04F3415C01EBE1
:10D630002313DBB212F0800F18BF5B42DBB283F022
:10D640008003F52202FB03F31B120A33904A106891
:10D6500020210A46DBB213F033FC8B4B1B684FF4DE
:10D660000C3202FB03F2120ED3B213F0400F00F0A3
:10D67000B682DB43DBB203F03F0103F00F0301335B
:10D680008248091149004418647803FB04F3415CA3
:10D6900001EB2313DBB212F0800F18BF5B42DBB249
:10D6A00083F0800303EB83035B116433DBB2CBF8BD
:10D6B0002830754B1B684FF4523202FB03F2120EF6
:10D6C000D3B213F0400F00F08F82DB43DBB203F0E4
:10D6D0003F0103F00F0301336C480911490044185E
:10D6E000647803FB04F3415C01EB2313DBB212F01B
:10D6F000800F18BF5B42DBB283F0800303EBC303F0
:10D7000018120130C0B21EF08DF962491EF092FA73
:10D71000CBF8140000230093052001210A22FFF713
:10D7200023FB1EF07FF95B491EF084FA0546CBF817
:10D730001C00DBF81000DBF814101EF0BFF80446E4
:10D74000CBF810002846DBF818101EF0B7F8064694
:10D75000CBF8180020461DF025FD04460D4648A3D1
:10D76000D3E900231DF0F8FF50B12046294644A319
:10D77000D3E900231DF0B6FB1EF04AF8CBF81000E9
:10D7800030461DF00FFD04460D463DA3D3E90023AE
:10D790001DF0E2FF50B12046294639A3D3E900230A
:10D7A0001DF0A0FB1EF034F8CBF81800DBF81000D9
:10D7B0001DF0F8FC04460D461BF078F91EF028F821
:10D7C0000490204629461BF03BFA1EF021F806463D
:10D7D000DBF818001DF0E6FC04460D461BF066F968
:10D7E0001EF016F80590204629461BF029FA1EF077
:10D7F0000FF804460599CBF898120023CBF89C3219
:10D8000000F1004306930699CBF8A012304621465A
:10D810001EF05CF90790CBF8A402049BCBF8A83269
:10D82000304605991EF052F90890CBF8AC020498E6
:10D8300021461EF04BF90990CBF8B00206F10046E4
:10D840000A960A99CBF8B412049805991EF03EF98D
:10D850000B90CBF8B802DBF828001EF0E3F80C9030
:10D86000DBF820300D93DBF808100391DBF824304F
:10D870000E935D465C464FF00009CDF83CB00BE0DE
:10D88000182D4454FB211940D0560020DC10030011
:10D89000FCECFF1F0000C842D4F82C80276B666B9D
:10D8A000059841461EF012F98246384600211EF0C6
:10D8B0000DF9014650461EF001F8824606983146A1
:10D8C0001EF004F9014650461DF0F8FF8246C4F8E8
:10D8D0008C00079841461EF0F9F8834604983946B3
:10D8E0001EF0F4F8014658461DF0E8FF83460898FC
:10D8F00031461EF0EBF8014658461DF0DFFFC4F834
:10D900009000099841461EF0E1F880460A98394691
:10D910001EF0DCF8014640461DF0D0FF07460B988C
:10D9200031461EF0D3F8014638461DF0C7FF0C996A
:10D930001DF0C4FF0646C4F89400039851461EF03B
:10D94000C5F831461EF076F901460D981DF0B6FF78
:10D950001DF028FC1BF0E4F81DF05AFFC5F8EC00A0
:10D960000398D4F890101EF0B1F831461EF062F919
:10D9700001460E981DF0A0FF1DF014FC1BF0D0F81E
:10D980001DF046FFC5F8F00009F101090C34083517
:10D99000B9F1080F80D1DDF83CB0002319460BEB3C
:10D9A000030282F80C120C33902BF8D10BF1D80142
:10D9B00004915C460125D4F830211D320BEBC202E4
:10D9C000D4F834311D330BEBC303191D0391D4F884
:10D9D00038711D370BEBC7075668D2F808805868B6
:10D9E00031461DF069FF8146B86841461DF064FF6D
:10D9F000014648461EF06AF88146039B5868414636
:10DA00001DF05AFF8046786831461DF055FF0146EB
:10DA100040461EF05BF8014648461DF04DFF0021D0
:10DA20001EF0F2F9F8B9D4F8403103EB43030BEBE5
:10DA3000830383F80C52D4F8443103EB43030BEB1C
:10DA4000830383F80C52D4F8483103EB43030BEB08
:10DA5000830383F80C52D4F84C3103EB43030BEBF4
:10DA6000830383F80C52243404998C42A3D1634974
:10DA70009BF8BC2291F8083C009310A801F60941DC
:10DA8000802313F02BFA0BF190055C46DFF870A1B0
:10DA900094F80C32A3BBD4F804620BEBC606D6F89C
:10DAA000EC001EF0D9F91FFA80F8D6F8F0001EF04D
:10DAB000D3F91FFA80F9D4F808620BEBC606D6F842
:10DAC000EC001EF0C9F987B2D6F8F0001EF0C4F9D8
:10DAD0009DF841209DF842309DF840108DF844108B
:10DAE0008DF845208DF8463000B2009011AB0193BF
:10DAF00050460FFA88F10FFA89F23BB211F032FD6D
:10DB00000C34AC42C4D13D499BF8BC2291F8083C8E
:10DB1000009312A801F60941FF2313F0DFF99DF8E5
:10DB200048308DF840309DF849308DF841309DF8EF
:10DB30004A308DF842305C46DFF8C4A094F80C32CD
:10DB4000A3B3D4F804620BEBC606D6F8EC001EF0C3
:10DB500083F91FFA80F8D6F8F0001EF07DF91FFA5D
