:1000000000800020BD0100006DD800006DD8000008
:100010006DD800006DD800006DD8000039D8000000
:1000200039D8000039D8000039D800006DD8000058
:100030006DD8000039D800006DD8000029D8000024
:100040006DD800006DD800006DD800006DD800009C
:100050006DD800006DD800006DD800006DD800008C
:100060006DD800006DD800006DD800006DD800007C
:100070006DD800006DD800006DD800006DD800006C
:100080006DD800006DD800006DD800006DD800005C
:100090006DD800006DD800006DD800006DD800004C
:1000A000E5C900006DD800006DD800006DD80000D3
:1000B0006DD800006DD800006DD800006DD800002C
:1000C0006DD800006DD800006DD800006DD800001C
:1000D0006DD800006DD800006DD800006DD800000C
:1000E0006DD800006DD800006DD800006DD80000FC
:1000F0006DD8000085F200006DD8000001F7000007
:100100006DD80000B1FA00006DD800006DD8000075
:100110006DD800006DD800006DD800006DD80000CB
:100120006DD800006DD800006DD800006DD80000BB
:100130006DD800006DD800006DD800006DD80000AB
:100140006DD8000049A400006DD800006DD80000F3
:100150006DD800006DD800006DD800006DD800008B
:100160006DD8000045DF00006DD800006DD800009C
:100170006DD800006DD800006DD800006DD800006B
:100180006DD800006DD800006DD800006DD800005B
:100190006DD800006DD800006DD80000C9D90000EE
:1001A00019DA0000A1DA00005DDB0000E1DB0000ED
:1001B0006DD800006DD800006DD80000544B4CF293
:1001C000205210B51A804DF628121A8000BF00BFC9
:1001D0000DF050FB4F4B4FF010621A604E4A9A6080
:1001E0004E4ADA604E4B1A6812F4807204D14D49BF
:1001F0000A604FF4A8521A604B4B1A7802F00802BA
:10020000D2B21AB11A7842F008021A70474B484825
:10021000484C2A221A700023474A02E01959995083
:10022000043399188142F9D3444B454A002101E037
:1002300043F8041B9342FBD34249434800231A5816
:100240005A500433B3F5DE7FF9D1404B404A802148
:1002500003F8011B9342FBD13A4A3E4B1A603E4BD6
:100260000A221A703D4B24221A70A02203F8012C96
:100270003B4A137803F00203DBB2002BF9D0384A73
:10028000137803F01003DBB2002BF9D1344A137852
:1002900003F00C03082BFAD1324B03221A704022D0
:1002A0005A702F4A137803F02003DBB2002BF9D0E9
:1002B0002B4A137803F04003DBB2002BF9D02A4B12
:1002C0002A4A1A6002225A60294B20221A70244AB4
:1002D000137803F00C030C2BFAD1264A264B1A6034
:1002E000264B274A1A60072243F8042C62B60DF009
:1002F0001BFD0C4B1B68DC0702D522480DF088FC67
:1003000013F0A2F80DF0BCFA0EF08AFBFEE700BF76
:100310000E20054030800440823F04000100002B85
:1003200010D0034014D0034002D0074000E0074043
:10033000049CFF1F14E101006095FF1F049CFF1F38
:10034000244C00200090FF1F0000000000E400E0AB
:100350005FE400E008ED00E0005006400140064088
:10036000064006400440064044800440000003016B
:1003700000400640C01005000480044014E000E086
:10038000FF76010000DD6850FFFFFFFFFFFFFFFF6A
:10039000FFFFFFFFFFFFFFFFFFFFFFFFFFFFFFFF6D
:1003A000FFFFFFFFFFFFFFFFFFFFFFFFFFFFFFFF5D
:1003B000FFFFFFFFFFFFFFFFFFFFFFFFFFFFFFFF4D
:1003C000FFFFFFFFFFFFFFFFFFFFFFFFFFFFFFFF3D
:1003D000FFFFFFFFFFFFFFFFFFFFFFFFFFFFFFFF2D
:1003E000FFFFFFFFFFFFFFFFFFFFFFFFFFFFFFFF1D
:1003F000FFFFFFFFFFFFFFFFFFFFFFFFFFFFFFFF0D
:10040000FFFFFFFFFFFFFFFFFFFFFFFFFEFFFFFFFD
:1004100008B549F60440074BC1F6FF701B1A062BBE
:1004200000D808BD40F20003C0F20003002BF8D052
:100430009847F6E7079CFF1F08B549F6044049F6C0
:100440000443C1F6FF70C1F6FF731B1A9B1003EB48
:10045000D373591000D108BD40F20002C0F200026F
:10046000002AF8D09047F6E710B549F60444C1F6E3
:10047000FF74237873B9FFF7CBFF40F20003C0F29B
:1004800000032BB14EF21410C0F20100AFF3008054
:100490000123237010BD00BF08B540F20003C0F275
:1004A00000034BB14EF2141049F60841C0F20100AE
:1004B000C1F6FF71AFF3008049F60440C1F6FF704A
:1004C00003682BB140F20003C0F2000303B1984768
:1004D000BDE80840B0E700BF054B1A8840F60500AC
:1004E000504300F55850193080B21880704700BF53
:1004F000CC95FF1F00F4804292B210B5C0F3CA033E
:100500001AB1C3F5FF6307339BB21A0A074C0849B7
:10051000895C34F81220C3F3460303FB01239BB22A
:10052000020454BF1846584200B210BD729A01002E
:10053000A89A010000F0400310B503F0FF010BB1D1
:10054000C34300E0034603F03F0203F00F0301B191
:1005500001330A49121152008C188A5C647814FB2A
:1005600003F302EB23130106DBB201D4D8B201E09E
:100570005842C0B280F0800010BD00BF7C960100E0
:10058000010601D5C043C0B24000C0B2C3B21A06D2
:1005900048BF80F0FF00421CD2B210FB02F0C0093D
:1005A00000F0FE001B0648BF80F0FF0070470020EF
:1005B0007047002070477047704701207047012046
:1005C00070470369C918002900DD02E001D101610B
:1005D00001E000230361036900EB83035B6983612E
:1005E00070470369C36143690362002383607047F6
:1005F000704700230372704700F58A4008B5406DCC
:1006000010B103681B69984708BD00F58A4008B51A
:10061000406D10B10368DB68984708BD00F58A4358
:1006200010B51A6D89181729044601DD002204E06F
:10063000002901DB196501E017221A65586D10B118
:1006400003681B69984704F58A431A6D02F58A52BC
:10065000163254F82200586510B10368DB689847D9
:1006600010BD00F58A4008B5406D03689B68984747
:1006700008BDFFFF044B10B50446036000F5887009
:100680000AF036FC204610BDD0910100044A10B596
:10069000044640F8102B0AF02BFC204610BD00BF8A
:1006A000F091010010B5044600F516600AF020FC38
:1006B000204610BD10B5044648300EF090FA204692
:1006C00010BD10B500F5887420460AF056FC20B124
:1006D0002046BDE810400AF044BC10BD10B500F142
:1006E000100420460AF049FC20B12046BDE8104025
:1006F0000AF037BC10BDFFFF37B5054605F5A0551C
:10070000002406488DF8044001A98DF805408DF8B5
:10071000064008F01BF92C613EBD00BF8826002072
:1007200037B50546002406488DF8044001A98DF828
:1007300005408DF8064008F009F9C5F818493EBD96
:100740008826002013B5002405488DF8044001A92F
:100750008DF805408DF8064008F0F8F820461CBDDD
:10076000882600202DE9F743804600241B4F4FEADE
:10077000C4090F260025102D4FF0FF03C8BF8DF8C8
:10078000013000A8C8BFC6F10D0301A9D8BF8DF87C
:1007900001608DF802308DF8009009F0D0FA9DF8D4
:1007A00004203B7F9A420ED19DF805207B7F9A4220
:1007B00009D19DF80620BB7F9A4204D1C8F80840B1
:1007C000C8F80C5007E001350F36202DF6B2D2D113
:1007D00001341F2CCAD1BDE8FE8300BF8C26002047
:1007E00010B50421044600200EF0EFF90321A07398
:1007F00001200EF0EAF9E06110BD10B501210446B8
:1008000000200EF0E2F9002800DD02E001D12061B5
:1008100001E000232361A06910B103681B699847B8
:10082000236904EB83035869A06110B10368DB6896
:10083000984710BD1F29D4BF21EAE1711F211F284D
:10084000D4BF20EAE0701F2000EB4110704737B59D
:100850000D7B044600950D3109F06DF920463EBD33
:100860002DE9F74F05460024484F85E031462046E4
:10087000FFF7E0FFD5F808340AFB03F305EB0008A7
:1008800093FBF9F10020023198F808B00EF09DF9C1
:10089000C0B2C0EB0B0B01362BEAEB7B202E88F8A5
:1008A00008B0E3D100264FF0030831462046FFF799
:1008B000C1FF0136824631462046FFF7BBFF711C5F
:1008C00081462046FFF7B6FF05EB09022818127A89
:1008D000017A05EB0A0302EB410292FBF8F2202EAB
:1008E0001A72E2D1FF200EF065F9D5F80C34984267
:1008F0000ED21F212046FFF79DFF2E18FF2196F8EC
:100900000880A0200EF061F9434683FA50F3337259
:1009100000264FF0030831462046FFF78BFF2B18C7
:100920001B7A19011A02521AC2F307223AB939681E
:1009300008FB00F00B180A545A709A7016E008FB76
:1009400000FAFF2301A81149D7F800B0FFF77FFF95
:100950009DF804300BEB0A090BF80A309DF80530BE
:1009600089F801309DF8063089F802300136202ED2
:10097000D1D10134202C05D000264FF00A0A4FF0C7
:10098000200973E70F20BDE8FE8F00BFAC240020D4
:100990002DE9F04F044685B000254FF01A0B0BFBF4
:1009A00005FC04EB451A002620896189A289CDF84F
:1009B00000C060440BFB061189B280B209F0C6FC8E
:1009C0000AEB060203469073194A31462846176817
:1009D0000193FFF72FFF621902EB46124FF0030954
:1009E00009FB00F9019B1249927B03A8FFF72FFF37
:1009F0009DF80C3007EB090807F809309DF80D3019
:100A000088F801309DF80E30013688F80230202E2B
:100A1000DDF800C0C8D10135202DBED123890133B6
:100A20002381A3890133A381002005B0BDE8F08FA5
:100A3000AC2400202DE9F74F90F80834053380F8F6
:100A4000083490F80934023380F8093490F80A34F5
:100A5000033380F80A3490F80B340433044680F8EA
:100A60000B340546002695F80804FFF763FD00B235
:100A70004301181A0012013685F80C040135042EC2
:100A8000F1D194F80D3494F80C04C01894F80E3495
:100A9000C018032390FBF3F01F21FFF7CBFE2518AE
:100AA000FF212E7AA0200EF090F8334683FA50F3FF
:100AB0003E4F2B7200256FE031462846FFF7BAFE05
:100AC000D4F810340AFB03F304EB000893FBF9F1AC
:100AD0000020023198F808B00EF077F8C0B2C0EBF1
:100AE0000B0B01362BEAEB7B202E88F808B0E3D104
:100AF00000264FF0030831462846FFF79BFE0136DB
:100B0000824631462846FFF795FE711C81462846ED
:100B1000FFF790FE04EB09022018127A017A04EB29
:100B20000A0302EB410292FBF8F2202E1A72E2D184
:100B300000264FF0030831462846FFF77BFE2318B6
:100B40001B7A19011A02521AC2F307223AB93968FC
:100B500008FB00F00B180A545A709A7016E008FB54
:100B600000FAFF2301A81149D7F800B0FFF76FFE84
:100B70009DF804300BEB0A090BF80A309DF805309C
:100B800089F801309DF8063089F802300136202EB0
:100B9000D1D10135202D05D000264FF00A0A4FF0A3
:100BA000200989E70F20BDE8FE8F00BFAC2400209C
:100BB00010B503785F2B88B0014623D07E2B21D05F
:100BC0002E2B1FD004A80EF04BF804A80EF056F9F7
:100BD000014668460EF07CF804A80EF000F804A860
:100BE0000A490EF03DF804A968460EF0F3F80446F1
:100BF00004A80DF0F4FF601E4442444168460DF025
:100C0000EEFF00E00024204608B010BDA8960100C9
:100C100010B1012819D10AE00C4B9A788918C9B291
:100C20001829997088BF987008480CF05DB8074B78
:100C30005A788918C9B23B2901D95870F4E759701C
:100C40000029F1D13B225A70EEE770479C24002026
:100C500013B504460AF0F7F88DF8060020460AF0AE
:100C6000F2F88DF80700BDF806001CBD0A4B0B4AD0
:100C700010B5036000F5B05304461A6000F5B85093
:100C80000DF0ADFF04F5AE50054B283040F8103C98
:100C90000DF0A5FF204610BD1892010090960100AE
:100CA000909A0100074B5A8A801802B2511C02DA4E
:100CB0004FF6FF7204E0172A01DC588270471722B2
:100CC0005A827047C426002038B5044608460D46AF
:100CD0000CF0FEFD236802465B68204629469847D3
:100CE00038BD08B5FFF7F0FF08BD08B5FFF7ECFF0A
:100CF00008BD38B504460DF0ACFE054620460DF0A3
:100D0000C9FE401938BD38B50446FFF7DDFF05467A
:100D100020460DF0BFFE281838BD38B50A22002342
:100D200004460DF0C5FE054620460DF0B3FE28181A
:100D300038BD38B504460DF0F3FE054620460DF0EB
:100D4000A9FE281838BD38B50A22002304460DF044
:100D5000AFFE054620460DF09DFE281838BD10B5A3
:100D600002780C7882FA54F202704C78427882FA57
:100D700054F242708978827882FA51F2827010BD02
:100D8000027812FB01F212120270427812FB01F299
:100D900012124270827812FB01F1091281707047C1
:100DA0000278002362F30703427862F30F2382780C
:100DB00062F3174382B0184602B070471FB5002493
:100DC00002A88DF808408DF809408DF80A40FFF719
:100DD000E7FF8DF80000C0F30723C0F307408DF84C
:100DE00002008DF80130009B054804A921F8043D5C
:100DF0001B0C8DF80E3007F0A9FD204604B010BD85
:100E0000882600201FB5002402A88DF808408DF820
:100E100009408DF80A40FFF7C3FF8DF80000C0F3CA
:100E20000723C0F307408DF802008DF80130009BC6
:100E3000054804A921F8043D1B0C8DF80E3007F07D
:100E400085FD204604B010BD882600201FB5002473
:100E500002A88DF808408DF809408DF80A40FFF788
:100E60009FFF8DF80000C0F30723C0F307408DF803
:100E700002008DF80130009B054804A921F8043DCB
:100E80001B0C8DF80E3007F061FD204604B010BD3C
:100E9000882600201FB5002402A88DF808408DF890
:100EA00009408DF80A40FFF77BFF8DF80000C0F382
:100EB0000723C0F307408DF802008DF80130009B36
:100EC000054804A921F8043D1B0C8DF80E3007F0ED
:100ED0003DFD204604B010BD882600201FB500242B
:100EE00002A88DF808408DF809408DF80A40FFF7F8
:100EF00057FF8DF80000C0F30723C0F307408DF8BB
:100F000002008DF80130009B054804A921F8043D3A
:100F10001B0C8DF80E3007F019FD204604B010BDF3
:100F2000882600201FB5002402A88DF808408DF8FF
:100F300009408DF80A40FFF733FF8DF80000C0F339
:100F40000723C0F307408DF802008DF80130009BA5
:100F5000054804A921F8043D1B0C8DF80E3007F05C
:100F6000F5FC204604B010BD88260020FFFFFFFFDF
:100F70002DE9F04F8DB00024064607A88DF81C40DF
:100F80008DF81D408DF81E40FFF70AFF8DF8100008
:100F9000C0F30723C0F307408DF812008DF811301D
:100FA000049B6D480CA921F8043D1B0C8DF82E30D4
:100FB00007F0CCFC736901330AD120200DF0FAFD53
:100FC000F06020200DF0F6FDAA233061B36074615B
:100FD000D6F814A0BAF1000F21D16049327AB58950
:100FE000348AFF2308A8FFF732FC08A8FFF7D8FED1
:100FF0008DF81000C0F30723C0F307408DF81130BF
:101000008DF812000CAB049823F8040D000C8DF839
:101010002E000093504829B222B2534689E0B369AA
:101020009A4580F28B80B6F80CC0F069CDF80CC000
:1010300011F04CFB0446AAF102000D4611F034FBFE
:1010400002460B4620462946377AB6F810B00EF015
:10105000A9FF3FA3D3E9002311F08CFB11F04CFE54
:101060003A46C3B23D4909A8FFF7F1FB09A8FFF7CB
:1010700097FE8DF81000C0F30723C0F307408DF8EA
:1010800012008DF81130049B33480CAF0FFA8BF22D
:1010900027F8043DDDF80CC000971B0C8DF82E30AE
:1010A0000FFA8CF11FFA8AF307F07DFBD6F8148053
:1010B000B8F1030F3FDDF069B6F80C90B6F810B048
:1010C00096F808A011F002FB0446A8F102000D46B4
:1010D00011F0EAFA02460B46204629460EF062FF5E
:1010E0001BA3D3E9002311F045FB11F005FE1B49BA
:1010F000C3B252460AA8FFF7AAFB0AA8FFF750FEA0
:10110000C0F307238DF81000C0F307408DF81200DC
:101110008DF81130049B1048ADF82C301B0C8DF865
:101120002E30A8F1030300970FFA89F10FFA8BF222
:101130009BB207F038FB7369013301E04FF0FF33D6
:10114000736132200DB0BDE8F08F00BFAFF30080B7
:101150000000000000E06F4088260020AC24002042
:101160002DE9F04F8DB0002608A88DF820608DF88D
:1011700021608DF82260FFF713FE8DF81800C0F390
:101180000723C0F307408DF81A008DF81930069B2D
:1011900048480CAC012524F8043D1B0C21468DF871
:1011A0002E3007F0D3FBFF2130460DF00EFD4249F3
:1011B000C2B2FF2309A8FFF74AFB67E00020022123
:1011C0008DF828708DF829708DF82A700DF0FDFCCF
:1011D00001280BD19DF824308DF828309DF825305A
:1011E0008DF829309DF826308DF82A300AA8FFF7AF
:1011F000D7FD8DF81800C0F30723C0F307408DF822
:101200001A008DF81930069BDDF80CE023800AF1F6
:1012100004091B0C0FFA8AF80FFA89F9A370254804
:10122000CDF8009001940FFA8BF142460FFA8EF33D
:1012300007F06CFB022E1DD00AA8FFF7B1FD8DF858
:101240001800C0F30723C0F307408DF81A008DF88B
:101250001930069BDDF810E023801B0CA370059B62
:10126000CDF8009019B20194124842460FFA8EF35D
:1012700007F04CFB0AF1060C1FFA8CFABAF11F0FAB
:101280009CD101360635032EADB20ED0C5F11A033E
:1012900005F1040A0593C5F11E03CDF80CA0AB4679
:1012A00004934FF0010A002788E74FF4FA600DB06D
:1012B000BDE8F08F88260020AC2400202DE9F04FF7
:1012C000D0F80C588BB004460DB1002667E007A893
:1012D0008DF81C508DF81D508DF81E50FFF760FDE5
:1012E0008DF81000C0F30723C0F307408DF81200FB
:1012F0008DF81130049B6E480AA9274621F8083D55
:101300001B0C8DF8223004F5006907F01FFB12E07A
:1013100064200DF04FFCD4F80828904207EB060338
:101320002CBF2A4642460236402E1A725D72EFD119
:1013300040374F45C9D000264FF00108E8E75D4827
:10134000294607683046FFF775FA0AEB450309FBA3
:1013500000FB1B7A012B07EB0B0807D109A85549A5
:1013600094F80C28FF23FFF772FA06E000238DF8AB
:1013700024308DF825308DF826309DF8243007F87C
:101380000B309DF82530013588F801309DF8263066
:10139000202D88F80230D2D10136202E5BD0019466
:1013A00004EB861A00254FF00309C8E7391806EB4D
:1013B00002090D7A09F104094D720395551C05F0D7
:1013C0001F0814F819A002950BEB0809009D09F1FC
:1013D000040902F11F0CAA18043214F819900CF039
:1013E0001F0CD14414F812A00BEB0C020432D144B0
:1013F00014F81220914406EB08020432A84408F1C4
:10140000040814F8122014F818804A44424405EBEA
:101410000C0808F10408B44414F818800CF1040C0A
:10142000424414F81C804244032A03D1039D0DB9A1
:1014300001254D72023A012A04D90A7A012A01D102
:1014400000224A72029A0230202AAFD1013340377B
:10145000202B02D11DE02746002303F11F055E1C4F
:1014600005F01F05002006F01F066D0102467601FB
:101470004FEA431B009599E7019DE9180233487A2A
:10148000402B0872F8D101324035202A019501D154
:1014900002E000220023EFE7D4F80C380133FF2BE1
:1014A000C8BF0023C4F80C383C200BB0BDE8F08F57
:1014B00088260020AC240020F0B50023032751F833
:1014C000232007FB03F54419160C01334655150A72
:1014D000102B6570A270F2D1F0BDFFFF7FB5002325
:1014E00007480293694609F0E5FB28B114200CF087
:1014F00005FC034809F028F8029807B000BD00BFBA
:10150000C026002010B5FFF7E9FF044618B1FFF729
:10151000E5FFA042FBD0204610BDFFFF30B587B0ED
:101520000546FFF7EFFF214A2149034678B91268C3
:10153000019201980A68811A1E4A1268914201D2EA
:10154000002030E01C4A10680028F9D02AE010681A
:101550000290029C581C0C60184903D06FF00040A8
:10156000834217D1114A1368039303980B68C11A79
:10157000A94205D3124B01221A700F4B186812E0D2
:10158000002BDDD112680E4904920B700B4A0499AE
:101590001160D5E712680592059A0A60084A002092
:1015A0001070054A136007B030BD00BF204800200E
:1015B000A42400206895FF1FAC260020209CFF1F5C
:1015C000B0260020034A00231360034A1370034A25
:1015D00013607047AC260020B0260020209CFF1F1F
:1015E0003B4B98425CD029D83A4B984260D012D8F5
:1015F000394B984250D006D8A3F57F6398425FD00C
:1016000003F5FF6343E0354B98425BD003F5FF538E
:10161000984259D152E0324B98424DD006D8A3F5AA
:10162000FF5398423AD003F57F6330E02D4B984248
:1016300040D003F5FF63984246D137E02A4B9842E9
:1016400036D013D8294B984240D007D8284B98421F
:1016500020D003F57F63984236D137E0254B98427E
:101660001AD003F57F6398422ED119E0224B98429D
:1016700010D007D8214B984218D003F5FF63984249
:1016800022D10BE01E4B98420CD003F5FF53984239
:101690001AD109E0012070470320704704207047E9
:1016A00005207047062070470720704708207047C4
:1016B000092070470A2070470B2070470C207047A4
:1016C0000D2070470E2070470020704702207047A1
:1016D0006F90FD00B748FD00EF10FD00DF20FD001A
:1016E0008F70FD007F80FD00A758EF10FF00EF1006
:1016F0005FA0FD00EF10EF105FA0EF108778EF10F4
:1017000027D8EF1008B5FFF7FDFEBDE80840FFF74A
:1017100067BF08B5FFF702FFBDE80840FFF760BFED
:1017200030B593B0FF238DF80E308DF811308DF861
:1017300012308DF814308DF815308DF8163004AB5A
:101740000022009305AB05468DF808208DF809208E
:101750008DF80A208DF80C208DF80D208DF81020C2
:10176000019302AA06A8102103AB08F082F906AC87
:1017700005F10D0212AD234603CB083242F8080CE6
:1017800042F8041CAB421C46F5D113B030BDFFFF3C
:1017900030B509298FB0044601DD002304E000299B
:1017A00001DB816001E00923A360A368092B4DD808
:1017B000DFE803F005090D1115191D3F434904F138
:1017C0000D0023493CE004F10D00224938E004F10A
:1017D0000D00214934E004F10D00204930E004F10E
:1017E0000D001F492CE004F10D001E4928E00023E4
:1017F0008DF804308DF805308DF80630FF238DF814
:1018000000308DF801308DF8023001AA02A81021B5
:101810006B4608F012F90D3402AA0EAD134603CB45
:10182000083444F8080C44F8041CAB421A46F5D1BD
:101830000CE004F10D000C4902E00C4904F10D002C
:10184000FFF73AFE02E02046FFF76AFF0FB030BD17
:10185000D4D4010054D5010094D40100D4D50100A2
:1018600054D6010094D5010014D6010014D501000E
:1018700038B51821044600200DF0A7F9172804F503
:101880008A4301DD002204E0002801DB186501E045
:1018900017221A6504F58A43586D10B103681B6955
:1018A000984704F58A450A212B6D03F58A531633B0
:1018B000002054F823306B650DF087F90146044889
:1018C000FFF766FF686D10B10368DB68984738BDA5
:1018D000AC24002038B590F83D30053380F83D3019
:1018E00090F83E30023380F83E3090F83F300333BA
:1018F00080F83F3090F84030043380F8403090F862
:1019000041300133DBB2DC0780F8413004D490F879
:101910004230013380F842300446002594F83D00FF
:10192000FEF708FE00B24301181A0012013584F8D0
:1019300043000134042DF1D138BDF8B505460E46FB
:101940000024032706E02868314607FB0400FFF760
:1019500017FA01346B689C42F5DBF8BD2DE9F041C4
:10196000837B8CB00446032B00F26D81DFE813F01B
:1019700004005E00B80012010025A07AEEB200EB70
:101980004600C0B2FEF7FCFD627B2369BB49B2187A
:1019900090FBF3F8D2B2FF2303A8FEF758FF03A889
:1019A000FFF7FEF98DF80000C0F30723C0F30740EE
:1019B0008DF802008DF80130009BB148ADF82C3055
:1019C0002FB21B0C8DF82E3039460BAB0FFA88F274
:1019D00006F0A2FDE369022B24D1A369A749C8EB55
:1019E0000308637BF218D2B2FF2304A8FEF72FFF8F
:1019F00004A8FFF7D5F9C0F307238DF80000C0F362
:101A000007408DF802008DF80130009B9C48ADF82E
:101A10002C301B0C8DF82E3039460FFA88F20BABA8
:101A200006F07AFD0135202DA7D10CE10025A07A22
:101A3000EEB200EB4600C0B2FEF7A2FD627B236966
:101A40008E49B21890FBF3F8D2B2FF2305A8FEF737
:101A5000FEFE05A8FFF7A4F98DF80000C0F30723E8
:101A6000C0F307408DF802008DF80130009B8448D8
:101A7000ADF82C302FB21B0C8DF82E300FFA88F1F8
:101A80000BAB3A4606F048FDE369022B24D16369AB
:101A90007A49C8EB0308637BF218D2B2FF2306A889
:101AA000FEF7D5FE06A8FFF77BF9C0F307238DF8F4
:101AB0000000C0F307408DF802008DF80130009B54
:101AC0006F48ADF82C301B0C8DF82E300FFA88F1D2
:101AD0003A460BAB06F020FD0135202DA7D1B2E030
:101AE0000025A37AEEB27000C01AC0B2FEF748FD1E
:101AF000627B23696149B21890FBF3F8D2B2FF23ED
:101B000007A8FEF7A4FE07A8FFF74AF98DF8000022
:101B1000C0F30723C0F307408DF802008DF80130B1
:101B2000009B5748ADF82C302FB21B0C8DF82E308F
:101B300039460BAB0FFA88F206F0EEFCE369022B94
:101B400024D1A3694D49C8EB0308637BF218D2B2D4
:101B5000FF2308A8FEF77BFE08A8FFF721F9C0F3D2
:101B600007238DF80000C0F307408DF802008DF8C0
:101B70000130009B4248ADF82C301B0C8DF82E3004
:101B800039460FFA88F20BAB06F0C6FC0135202D62
:101B9000A7D158E00025A37AEEB27000C01AC0B2F7
:101BA000FEF7EEFC627B23693449B21890FBF3F830
:101BB000D2B2FF2309A8FEF74AFE09A8FFF7F0F802
:101BC0008DF80000C0F30723C0F307408DF8020032
:101BD0008DF80130009B2A48ADF82C302FB21B0C39
:101BE0008DF82E300FFA88F10BAB3A4606F094FCD4
:101BF000E369022B24D163692049C8EB0308637BA6
:101C0000F218D2B2FF230AA8FEF721FE0AA8FFF7B6
:101C1000C7F8C0F307238DF80000C0F307408DF824
:101C200002008DF80130009B1548ADF82C301B0CDC
:101C30008DF82E300FFA88F13A460BAB06F06CFCAB
:101C40000135202DA7D1FE210C48FFF776FE237A1F
:101C5000627A9A4205D800232372A37A0133A372D1
:101C600001E001332372E37A227B9A420AD80023EF
:101C7000E372637B0133637306E000BFAC24002092
:101C8000882600200133E37200200CB0BDE8F0810B
:101C90002DE9F04F804687B08948BE21FFF74DFE01
:101CA0004FF08241D8F81C0011F0A4F911F08EFB1E
:101CB000FF23C2B2824904A8FEF7C9FDD8F80C0080
:101CC000D8F8089010F002FD04460D464846D8F8B2
:101CD0001C1011F087F810F0F9FC77A3D3E900236A
:101CE00010F048FD11F028F810F0F0FC06460F4601
:101CF0000EF0C2F802460B462046294610F03AFD87
:101D00000022704B10F084FB10F0CEFF3946824663
:101D100030460EF0FBF802460B462046294610F0EE
:101D200029FD02460B460020664910F06FFB10F0BB
:101D3000BBFF0190D8F80C0010F0C8FC04464846E0
:101D40000D4610F0C3FC5CA3D3E9002310F012FD94
:101D500010F0F2FF10F0BAFC06460F460EF08CF8B9
:101D600002460B462046294610F004FD0022554B42
:101D700010F04EFB10F098FF3946834630460EF0C7
:101D8000C5F802460B462046294610F0F3FC0246F1
:101D90000B4600204B4910F039FB10F085FF06463A
:101DA00004A80096FEF7FCFF8DF80800C0F3072397
:101DB000C0F307408DF80A008DF80930029B4248B5
:101DC00006AC05AD24F8043D1B0C05F8023FDDF818
:101DD00000C00FFA8BF70FFA8CFC62463946234697
:101DE000CDF800C006F098FB04A8FEF7D9FF8DF8E7
:101DF0000800C0F30723C0F307408DF80A008DF8F0
:101E00000930029B3048ADF814301B0C2B70DDF804
:101E100000C03A466146234606F07EFB48464FF036
:101E20007E5110F0DFFF2949814611F095FA08B183
:101E30004FF00009D3457FF47DAF019B9E427FF4B4
:101E400079AF26E0D8F82040002328462146C8F87C
:101E5000083010F0C7FFD8F81050C8F81C00294609
:101E6000064611F06FFA10B1C8F81C500CE0D8F813
:101E700018503046294611F079FAC0B1284621465B
:101E800010F0AEFFC8F81C0004F10044C8F8204070
:101E90000DE0D8F81C50D8F80810284610F0A2FF22
:101EA0000A49C8F8080011F057FA0028CAD10020E2
:101EB00007B0BDE8F08F00BF399D52A246DF913FC9
:101EC000AC24002000003040882600200000B443ED
:101ED0002DE9F74F8146002403274BE02946504661
:101EE000FEF7A8FCD9F8008007FB00F3294620463E
:101EF00008EB030B0193FEF79DFC07FB00F6019B2B
:101F000018F8061008EB060208F8031053788BF84F
:101F1000013093788BF80230C5F11F0B59462046EB
:101F2000FEF788FCD9F80080784318F8061008EB13
:101F3000060208EB000308F80010517892785970F7
:101F40009A7059465046FEF775FCD9F800807843E0
:101F500008EB060218F8061008EB000308F800105A
:101F60000135517892785970102D9A70B6D101349C
:101F7000102C03D00025C4F11F0AAFE7BDE8FE8F87
:101F80002DE9F74F8146002403264EE029465046AE
:101F9000FEF750FCD9F8007006FB00F321462846F6
:101FA00007EB030B0093FEF745FC06FB00F8009BD4
:101FB00017F8081007EB0802F95453788BF8013032
:101FC00093788BF80230C5F11F0B59465046FEF747
:101FD00031FCD9F8007006FB00F2BB1829462046F8
:101FE00001920093FEF726FC7043019A3918385C81
:101FF000B854009B4A785A708A7820469A7059469D
:10200000FEF718FCD9F80070704307EB080217F8C8
:1020100008103B1839540135517892785970102DB9
:102020009A70B3D10134102C03D00025C4F11F0ADB
:10203000ACE7BDE8FE8F2DE9F74F034601240327E7
:1020400019E030465946D3F800800193FEF7F2FBC1
:10205000494607FB008A2846FEF7ECFB013507FBE3
:1020600000815046FEF77BFE013E0F2D019BE8DD0F
:102070000134102C07D004F1FF39C4F1100BC4F166
:102080000F062546DDE7BDE8FE8F2DE9F04F89B04C
:10209000044607929DF84820069104921E460325A7
:1020A0008FE0069B079AC6EB0308921BC14606EB1E
:1020B000030A05921AE0059927684846FEF7BAFB1D
:1020C00009F1010905FB00FB07EB0B0305990193DF
:1020D0004846FEF7AFFB019B05FB00711846FEF773
:1020E0003EFE206804995844FEF74AFED145534607
:1020F000E1DD079A059F06EB020920E039465046CC
:102100000193FEF797FBD4F800B005FB00F201370E
:102110000BEB020C394650460292CDF80CC0FEF78C
:1021200089FBDDF80CC005FB00B16046FEF717FE29
:102130002068029A04998018FEF722FE019B4F4501
:10214000CB46DBDD1DE0184649460193FEF772FBE6
:10215000019B2768013B05FB00FA07EB0A021846C2
:10216000494601930292FEF765FB029A05FB007156
:102170001046FEF7F4FD206804995044FEF700FE77
:10218000019B4345DFDA18E059464046FEF752FB13
:102190000BF1FF3B05FB00F9594640462768FEF767
:1021A00049FB07EB090A05FB00715046FEF7D7FD16
:1021B000206804994844FEF7E3FD059B9B45E3DA5C
:1021C000013E002EBFF66DAF09B0BDE8F08FFFFFF6
:1021D0002DE9FF4104468068E1681B4DFEF72AFBAC
:1021E0004FF00308FF2208FB00F8134603A8294616
:1021F0002E68FEF72CFB9DF80C3006EB080706F85E
:1022000008309DF80D307B709DF80E300821BB70B2
:102210007F23009328460B460A46FFF736FF2846E1
:10222000FFF756FEA36801330F2BA36007DD0023E1
:10223000A360E36801330F2BC8BF0023E3603220A3
:1022400004B0BDE8F08100BFAC2400202DE9F04FC0
:10225000484BC76E1B688BB002460993099E034624
:10226000002115E02018D8605D69186993F818E01E
:1022700028187045186103D093F819E0704501D112
:102280006D425D61D868351AA542EBD20131143335
:10229000B94201DA9C68F5E7146ED2F82480D56C57
:1022A0001769354992F838200DF1200BFF23584665
:1022B000FEF7CDFAC4EB0803002BB8BF5B425A42CD
:1022C000C5EB0709B9F1000FB8BFC9F100090692C3
:1022D0004445ACBF4FF0FF320122BD42ACBF4FF0CE
:1022E000FF3C4FF0010C0792C3EB09064FF0030AC5
:1022F00021490A68049321462846CDF80CC005926E
:10230000FEF798FA059A59460AFB0020FEF727FDCA
:10231000BD42049BDDF80CC001D144450CD00699A8
:1023200072008A42C4BFC3EB060665444A45DFDA41
:10233000079A4E44A418DBE780240F210A46102395
:1023400000940D48FFF7A1FE0622102113460094C9
:102350000948FFF79AFE0A210B4618220094064806
:10236000FFF793FE0448FA21FFF7E7FA00200BB0CD
:10237000BDE8F08F20480020AC2400202DE9F74F65
:1023800006460F469846541C4FF0030921E02946A3
:102390002046FEF74FFAD6F800A009FB00F20AEB40
:1023A000020C294658468DE80410FEF743FADDF882
:1023B00004C009FB00A16046FEF7D1FC3068009A1A
:1023C00039468018FEF7DCFC01350D9B9D42DEDBB3
:1023D0000134444503DA0C9D04F1FF3BF5E7DDF8D9
:1023E000308003240BE041460020FEF723FA3368D7
:1023F000394604FB0030FEF7C3FC08F101080D9BD1
:102400009845F0DBBDE8FE8F2DE9F341074608460D
:1024100011469846FEF70EFA03254543FF2301A80F
:10242000394642463E68FEF712FA9DF804307419A8
:1024300073559DF8053063709DF80630A370BDE8B4
:10244000FC81FFFF37B5134C2046FFF743FA2046C7
:1024500094F8431094F8442094F83F30FFF7D4FFE9
:1024600094F8451094F8462094F840302046FFF741
:10247000CBFF2046FFF7DFFD2046FFF781FD00255B
:1024800020232046009501936E212A46FFF776FF10
:1024900028463EBDAC24002037B5124C0022202334
:1024A0008DE80C007D212046FFF768FF2046FFF7EE
:1024B00011FA94F8452094F8431094F8440094F8E5
:1024C00046505118091840190323821891FBF3F163
:1024D000204692FBF3F294F84030FFF795FF14206A
:1024E0003EBD00BFAC240020F7B51E4C00222023C7
:1024F00005468DE80C007D212046FFF73FFF204672
:10250000FFF7E8F994F8441094F843002668FEF7C2
:1025100091F903272A7A7843331832546A7A5A7029
:10252000AA7A9A7094F8461094F84500FEF782F95A
:10253000EA7A7843331832542A7B5A706A7B9A704D
:1025400094F8433094F8451094F84420C91894F84E
:102550004630D2182046490852083223FFF754FF6C
:102560001420FEBDAC24002037B5194C00222023D6
:102570008DE80C007D212046FFF700FF2046FFF785
:10258000A9F994F8452094F8431094F8440094F87D
:1025900046505118091840190323821891FBF3F192
:1025A000204692FBF3F294F84030FFF72DFF8C2584
:1025B0000B2120460A4605230095FFF766FD1521ED
:1025C000204600950A460523FFF75FFD0F203EBD1C
:1025D000AC2400202DE9F74F0446002539E0D4F85B
:1025E00008A05FFA8AF84046FDF7A4FF1FFA8AFAAE
:1025F00081460BFB00A080B2FDF77CFFC9F180098A
:1026000072000AF5804A034609FB02A080B20193DA
:10261000FDF770FF8146C8F14000C0B2FDF78AFFA8
:102620007843C0F34F00FDF765FF019B4B4400FA70
:1026300083F040F307237F33324611482946DBB24B
:102640000136FFF7E1FE202E2F44C8D10135202DA1
:1026500006D04FEA450B00271FFA8BFB3E46BEE72C
:10266000A3680133A360E3680133B3F5006FE3604F
:1026700002DB0023A360E3601E20BDE8FE8F00BFE5
:10268000AC24002038B5114CFA212046FFF755F94B
:102690002046FFF71FF994F84000FDF74BFF00B20A
:1026A0000501281AC0F3072594F84200FDF742FF00
:1026B00094F8441005F108020346C1F11F012046B9
:1026C000D2B2FFF7A1FE0F2038BD00BFAC2400201E
:1026D00038B500F5166420460D4608F024FC411B71
:1026E0002046BDE8384008F019BC00F5166008F037
:1026F000AABB38B50546FFF7F8FF04462846FFF7A2
:10270000F4FF44EA002038BD00F5166092B208F0EC
:10271000FFBB38B500F65C054FF482720446002119
:10272000284611F0EBFA2046FFF7DFFFC2B2294638
:102730002046FFF7E9FF2046FFF7D7FFC2B2002A85
:10274000F5D138BD2DE9F04F00F58F5389B00692D1
:102750001A680591002AC0F2DD8000F58E5202F160
:102760000801154603F10804DDF818B003910C3593
:1027700007940BE0791E2160059E17F8011C06F8EE
:10278000011BBBF1010B059600F0C08000F59054D1
:10279000214651F8047B8F42ECD800F58E54D2F8D4
:1027A00010C003F11C06043419E0316829B921680E
:1027B00011F8019BC6F800902160216811F8019B77
:1027C0002160296809FA08F949EA01012960039999
:1027D00008F10808C1F800803168013931600399B7
:1027E000D1F80080E045E0DB2E68039C46FA0CF14E
:1027F0002960CCEB0801216051690E4019688E42B6
:102800007FD0D1698E4200F58F5101F1100112D1B4
:102810009469013404F58C66146150F826605661A1
:102820005E680E60012101FA04F44FF0FF319C60F4
:1028300099615961AAE70C68A64209D15C69002C2C
:102840005FDB07F8014B00F5905427609C6913E0AB
:1028500057DA344610E0071907F5D05704F5086435
:1028600097F80480DCF8007000EB840407F8018B13
:10287000CCF80070646801E000F5905C5F68BC42D1
:10288000E9DADCF80070029407F8014BCCF800702C
:10289000079FD1F800C0D7F8008000F58F57183790
:1028A000C445019716DAD7F80090B9F1000F11DB93
:1028B00000EB0C0ACDF810A00AF5D05A8AF80440B3
:1028C0000CF5086A00EB8A0A0CF1010CCAF80490B6
:1028D000C1F800C009685C61019C41452660FFF6B3
:1028E00055AF11690A293FF751AF0131116101F567
:1028F0008C61079E50F821104FEA48043460516102
:1029000044E700F58F504FF0FF330360069FCBEB99
:10291000070000E0002009B0BDE8F08F2DE9FF417D
:1029200090F82830044653B939E004EB45112046AD
:1029300001F51861E269FFF705FF083500E00025A1
:10294000236A9D42F1DB042508E004EB4511204693
:1029500001F51861E269FFF7F5FE0835236A9D422B
:10296000F3DB022508E004EB4511204601F5186170
:10297000E269FFF7E7FE0435236A9D42F3DB012598
:1029800008E004EB4511204601F51861E269FFF704
:10299000D9FE0235236A9D42F3DBA5694BE08569C8
:1029A0006E010AE06369E269F31803F518612046D5
:1029B0006118FFF7C7FE01352036226AA369D318D4
:1029C0009D42EFDBE9E7666904EB45174FF003082A
:1029D0002BE0BB19226B93F88039934224D008FB7B
:1029E000034358331A798DF808205A799B798DF86A
:1029F000092002A88DF80A30FEF7D2F9C0F30723A8
:102A00008DF80000C0F307408DF802008DF801300A
:102A1000009B0C48ADF80C301B0C8DF80E3031B219
:102A20002AB203AB05F078FD0136E2696369D31879
:102A30009E42CEDB0135226AA369D3189D42C2DBD8
:102A4000BDE8FF81882600202DE9F7430446FFF703
:102A500050FE60612046FFF74CFEA0612046FFF764
:102A600048FEE0612046FFF744FE20622046FFF763
:102A70003CFEC0F380130706606284F828300DD551
:102A800000F007000130012303FA00F30322A365DD
:102A9000204604F15C015A43FFF736FE94F84430B7
:102AA00093B1216B4E1C0CBF217CC9B204F5186098
:102AB0004FF4806211F022F9002384F84430A364BB
:102AC000E364202323656365A36B012B0AD90023EC
:102AD0006B488DF8043001A98DF805308DF806306B
:102AE00005F034FFA36B022B1AD1A16C226D606D2F
:102AF000E36C94F83450C01856180BE004EB4317FD
:102B00000A4604E007EB020E01328EF88059B24209
:102B1000F8DB01338342F1DBE36BA36313BB4EE0CD
:102B2000032BF9D104F1480065C804F55867530137
:102B300004F5186EDF199E440021B6182D180EE01A
:102B400001EB070C01EB0E08034604E01CF80390B0
:102B500008F803900133AB42F8DB01322031B24276
:102B6000EEDBD9E704F1140065C8A064022BE2642F
:102B70002565666505D1236B5D1C08BF236963630A
:102B80001DE0032B1BD1530104F5186704F5586EA3
:102B9000DF199E440021B6182D180EE001EB070C3A
:102BA00001EB0E08034604E01CF8039008F80390BC
:102BB0000133AB42F8DB01322031B242EEDB20467A
:102BC000FFF793FD20642046FFF78FFD00260546A2
:102BD00004F516681DE00135012120467719FFF73D
:102BE00077FDB7F5A06F0CD8A119204601F55771F4
:102BF0002A46FFF789FD07E0404608F024F9013630
:102C000000E00026AE42F7DB2046FFF76EFD3E46B1
:102C10000546002DDFD1216C481C00F58C6604F5BB
:102C20008E5254F82660916104F55773566101265F
:102C300006FA01F1536004F58F534FF0FF37D5606A
:102C400095601061D16106FA00F08A1902311A60AC
:102C5000DD619860596019615F619F6104F590536F
:102C60001A1D1A602046FFF759FEE36A2763002BFE
:102C7000D8BFE662E36AE5630A205843BDE8FE83F5
:102C8000882600200B7903718B6883600B7B30B53D
:102C9000037300F10D0201F10D0301F1190453F862
:102CA000045BA34242F8045BF9D11B781370CB6933
:102CB000C36130BD1FB5062201A9FFF725FD01A89C
:102CC0000849062211F0E8FC48B1062201A806498D
:102CD00011F0E2FCD0F1010038BF002000E001203B
:102CE00005B000BDAD960100B496010010B50446D4
:102CF000FFF7FFFC20602046FFF7FBFC60602046EA
:102D0000FFF7F3FCA0602046FFF7EFFC20612046B0
:102D1000FFF7EBFCE06010BD08B583681A060146BA
:102D20000BD503F007030122013302FA03F3032258
:102D300083655C315A43FFF7E7FC08BDF8B50446EC
:102D4000002700F65C052046FFF7CFFCC0B22C2818
:102D500003D12046FFF778FEF8BD2128204651D147
:102D6000FFF7C3FCC0B2F92817D002DC01284FD10D
:102D700004E0FE283BD0FF284AD13FE02046FFF781
:102D8000B4FCC2B229462046FFF7BEFC2046FFF73E
:102D9000ACFCC2B2002AF5D1D5E72046FFF7A5FC6E
:102DA0002046FFF7A2FC06462046FFF7A2FCE062A1
:102DB0002046FFF79AFCF1074CBF20634FF0FF332A
:102DC000C6F3820058BF23630328C8BF3846E063B8
:102DD0002046FFF78AFCB6E700214FF482722846AE
:102DE00010F08CFF204629463246FFF78DFC204626
:102DF000FFF77BFCC6B2002EEED1A4E72046FFF71A
:102E000088FCA0E70121FFF763FC6FF00400F8BD28
:102E10006FF00300F8BD0B6813B5DB680C4608467D
:102E2000984723688DF80400DB682046984723689C
:102E30008DF80500DB682046984723688DF806006A
:102E4000DB68204698478DF8070001981CBDFFFFFE
:102E50002DE9F04FC5B005469DF8380101920E46A8
:102E60009DF83C1106900CA81F46029108F032F81C
:102E7000AC4BAD481B680993099A059204F0DAFF40
:102E8000019B834280F00481A74804F0D9FF874268
:102E900080F0FE80FEE00CA8FDF7DAFE44F6425317
:102EA000984200D01FE1A1492046FDF71AFF0CA966
:102EB0002846FFF7B0FF01462046FDF744FF0CA966
:102EC0002846FFF7A8FF0CA92846FFF7A4FF98495A
:102ED00080462046FDF705FF0A2200234146204692
:102EE0000BF0E6FD20460BF0D5FD92492046FDF79C
:102EF000F8FE0CA92846FFF78EFF01462046FDF795
:102F000022FF0CA92846FFF786FF0CA90646284693
:102F1000FFF781FF83460CA8FDF79AFE0128814642
:102F200040F0E1800CA8FDF793FE83495FFA80FA38
:102F30002046FDF7D6FE20465146FDF7EEFEBAF1DB
:102F4000180F40F0D08028460CA9FFF764FF054613
:102F5000002800F0CA80C6E0CBF1000B0395019871
:102F60008519714804F066FF854206DD6E4804F05D
:102F700061FF0199C1EB000A00E0B2466A4804F023
:102F80005FFF07EB0B05854205DD674804F052FF44
:102F9000C01B049001E0CDF810B00BF1FF3B04FB27
:102FA0000B8B0026C0254CE0039A0CA8002A14BF06
:102FB000D946C14607F0B7FF484504D00CA849469A
:102FC00007F0ACFFC025BB191BB24FF000090793F7
:102FD00031E0BF2D05D90CA814A9C02207F098FF35
:102FE000002544A86A1CA91C431950FA82F250FA21
:102FF00081F113F8C03C12F8C02C11F8C01C0698DF
:103000008DF8223003358DF821208DF82010EDB297
:1030100030B10298884203D1904201D1984208D041
:10302000019A414802EB090109B2079A08AB05F081
:1030300073FA09F10109D145CBDB0136C4EB0B0B67
:10304000A044049B9E42AFDB3C493D48FDF749FE4E
:10305000344B059A1B683A480A930A990023891A47
:103060000A220BF025FD36483649FDF74CFE0124B7
:103070000CA807F076FF24B933493148FDF743FE29
:103080006AE0284B1B680B930B9C059BE41A63E0DA
:10309000002461E02A4C20460BF0FCFC2B49204622
:1030A000FDF71FFE31462046FDF71BFE2368272152
:1030B0001B682046984720460BF0ECFC3246012363
:1030C00014A8234908F098F814A90CA8FFF7DAFD12
:1030D00014A807F00DFF0CA807F04FFF00287FF49D
:1030E000DAAE044638E00024C2E720461949FDF76D
:1030F000F8FD204631460BF013FD236878211B684C
:103100002046984720465946FDF713FE741C0323BA
:103110005C43BBF1000F24F00304FFF61DAFCDF8B4
:103120000C901CE72048002088260020BB96010058
:10313000C7960100D6960100E4960100EF960100C3
:1031400020490020FA960100FE960100199701001F
:10315000AC440020299701000CA807F0C9FE2046C6
:1031600045B0BDE8F08F00BF1FB5027A9AB90123C0
:1031700003728DF80C208DF80D208DF80E20039B26
:103180000092ADF804301B0C8DF80630034804495A
:103190001346FFF75DFE1E2005B000BDC1260020CE
:1031A000369701000B790C4A03718B6883600B7BA7
:1031B0000373034630B543F80D2B01F1190401F1F7
:1031C0000D0252F8045BA24243F8045BF9D1127875
:1031D0001A70CB69C36130BD28D8010010B50B78D7
:1031E0005F2B8CB034D07E2B32D02E2B30D008A861
:1031F0000BF036FD08A80BF041FE014668460BF0C7
:1032000067FD08A80BF0EBFC134904A80BF028FDA0
:10321000684604A90BF0DEFD01280FD008A80F496D
:103220000BF01EFD684608A90BF0D4FD10F1FF3429
:1032300008A818BF01240BF0D2FC00E0002404A869
:103240000BF0CDFC684684F001040BF0C8FC00E0F4
:10325000002420460CB010BD4B9701005097010090
:103260002DE9F041161E98B007460C46984652DBF1
:103270001E9B9E424FDA684628492246012307F0EA
:10328000BBFF68466D4607F078FE002839D008ACD1
:1032900020466946012208F015F86D4622E02046D6
:1032A00007F05FFE1EE0204607F028FE0146384684
:1032B000FFF794FF38B1204607F020FE0146404654
:1032C000013E11F08BF9204607F04BFE10A869462D
:1032D000012207F0F7FF204610A9FFF7D3FC10A842
:1032E00007F006FE204607F048FE08B1002E0CDA73
:1032F000204607F036FE684607F033FE204607F00A
:10330000F7FD684607F0F4FD05E0204607F0F8FDFC
:103310000028C4D1C7E718B0BDE8F081AC44002054
:10332000F0B5074699B027480C4607F0B7FF0028CC
:1033300044D0684623492246012307F05DFF6846D2
:103340006E4607F01AFE002833D008AC20466946C6
:10335000012207F0B7FF00256E461BE0204607F06C
:10336000CFFD40B9204607F0C9FD01463846FFF7BA
:1033700035FF00B10135204607F0F3FD10A869467E
:10338000012207F09FFF204610A9FFF77BFC10A841
:1033900007F0AEFD204607F0F0FD0028DED1204604
:1033A00007F0DFFD684607F0DCFD204607F0A0FDD2
:1033B00000E00546684607F09BFD00E0054628460C
:1033C00019B0F0BDAC44002038B508460C4616498B
:1033D0000BF0CCFC0546E0B9204614490BF0C6FCC6
:1033E000C8B9204612490BF0C1FCB0B920461149BA
:1033F0000BF0BCFC98B920460F490BF0B7FC80B924
:1034000020460E490BF0B2FC00280CBF052004201A
:1034100038BD052038BD284638BD012038BD022002
:1034200038BD032038BD00BF5497010068970100E4
:10343000749701008297010090970100989701000E
:1034400070B5044690B00D46C2E1294608A8FFF7C2
:10345000A9FE684600210BF003FC08E008A807F06D
:10346000F2FC0FE00A290DD068460BF072FC08A8A8
:1034700007F064FD30B108A807F0E5FCC1B20D29E2
:10348000F0D1EBE708A807F033FDA74904A80BF03B
:10349000E7FB04A968460BF094FC064604A80BF071
:1034A0009EFB04A8D6B1052269460BF0E0FC04A9F6
:1034B00068460BF018FC04A80BF091FB9B499C4854
:1034C000FDF713FC69469A48FDF713FC684604F1C2
:1034D0000901322200230BF093FC76E195490BF0B1
:1034E000BFFB04A968460BF06CFC064604A80BF071
:1034F00076FB04A8EEB1042269460BF0B8FC04A9DF
:1035000068460BF0F0FB04A80BF069FB029B002B54
:1035100000F05B8168460BF0C0FC012384F83B009F
:10352000854923728248FDF7E0FB814894F83B10FF
:1035300029E082490BF094FB04A968460BF041FC9A
:10354000064604A80BF04BFB04A8FEB10622694610
:103550000BF08DFC04A968460BF0C5FB04A80BF02A
:103560003EFB029B002B00F0308168460BF095FC7F
:10357000012384F83C00724923726D48FDF7B5FBC6
:103580006B4894F83C10FDF7C8FB1EE16D490BF049
:1035900067FB04A968460BF014FC064604A80BF070
:1035A0001EFB04A8EEB1052269460BF060FC04A9DD
:1035B00068460BF098FB04A80BF011FB029B002B54
:1035C00000F0038168460BF068FC012384F83D009D
:1035D0005D4923725648FDF788FB554894F83D1025
:1035E000D1E75A490BF03CFB04A968460BF0E9FB14
:1035F000064604A80BF0F3FA04A8CEB104226946EB
:103600000BF035FC04A968460BF06DFB04A80BF029
:10361000E6FA029B002B00F0D88068460BF03DFCD8
:103620004B4920644248FDF760FB4148216C25E08E
:1036300048490BF015FB04A968460BF0C2FB06468F
:1036400004A80BF0CCFA04A8DEB1052269460BF001
:103650000EFC04A968460BF046FB04A80BF0BFFA69
:10366000029B002B00F0B18068460BF016FC3A4933
:1036700060642F48FDF739FB2D48616CFDF759FB5D
:10368000A3E036490BF0ECFA04A968460BF099FB6D
:10369000064604A80BF0A3FA04A8DEB10522694689
:1036A0000BF0E5FB04A968460BF01DFB04A80BF02A
:1036B00096FA029B002B00F0888004F148066946C8
:1036C00030460BF0FDFA26491948FDF70EFB184865
:1036D000314678E023490BF0C3FA04A968460BF0A1
:1036E00070FB064604A80BF07AFA04A8002E3DD021
:1036F000062269460BF0BBFB04A968460BF0F3FAFF
:1037000004A80BF06CFA029B002B5ED068460BF00D
:10371000C4FB154984F858000548FDF7E6FA04484B
:1037200094F858102FE700BF9C970100A297010062
:1037300020490020AC970100B1970100B797010024
:10374000BE970100C6970100CC970100D3970100F6
:10375000D8970100E8970100EE970100FF9701005C
:10376000059801000C980100139801001D490BF009
:1037700077FA684604A90BF024FB064604A80BF070
:103780002EFA16B3052204A869460BF070FB04A9B3
:1037900068460BF0A8FA04A80BF021FA029BA3B12B
:1037A000694604A80BF094FA04A92046FFF70CFE22
:1037B00084F8590004A80BF012FA0B490B48FDF7E6
:1037C00094FA0A486946FDF794FA68460BF007FA3E
:1037D0002B6828469B68984700283FF736AE10B004
:1037E00070BD00BF219801002798010020490020EA
:1037F00070B588B000238DF80430724B02910093AD
:1038000071494FF0FF33044670480393FDF76DFA9A
:1038100069466F4809F05EFE6E4905466B48FDF744
:1038200053FA6A480BF036F96B4A6948294609F0A1
:1038300054FE027C052A03460DD104F1090699695C
:10384000304610F0CBFE65496048FDF74EFA5F4800
:103850003146FDF758FA5E48614A294609F03DFEB7
:10386000037C032B0DD183695E4984F83B3001232F
:1038700023725648FDF739FA544894F83B10FDF787
:103880004CFA5348584A294609F027FE037C032B7B
:103890000DD18369554984F83C30012323724B488C
:1038A000FDF723FA494894F83C10FDF736FA4848EA
:1038B0004F4A294609F011FE037C032B0DD1836981
:1038C0004C4984F83D30012323724048FDF70DFA3E
:1038D0003E4894F83D10FDF720FA3D48464A2946F7
:1038E00009F0FBFD037C032B09D183694349236461
:1038F0003648FDF7FAF93548216CFDF71AFA3448D5
:103900003F4A294609F0E9FD037C032B09D183696D
:103910003C4963642D48FDF7E8F92C48616CFDF7DC
:1039200008FA394A2A48294609F0D7FD027C052AB7
:1039300003460DD104F14806996930460BF0DBF9D6
:1039400032492248FDF7D1F920483146FDF7D1F937
:103950001F482F4A294609F0C0FD037C032B0BD1D9
:1039600083692C4984F858301848FDF7BEF9174888
:1039700094F85810FDF7D1F9274A1548294609F05F
:10398000ACFD027C052A034615D1996904A80BF009
:1039900067F904A92046FFF717FD84F8590004A829
:1039A0000BF01DF91D490948FDF79FF9074894F8E8
:1039B0005910FDF7BEF90648294609F0C1FA08B0CA
:1039C00070BD00BF88D80100349801002049002054
:1039D00090470020449801004A980100A2970100F6
:1039E0004F980100B197010053980100BE97010064
:1039F00059980100CC9701005E980100D89701000A
:103A000062980100EE970100679801000598010097
:103A10006C9801001398010072980100279801002A
:103A200030B54E4B1B78D7B00446002B00F0928087
:103A3000027843780132D2B29A42027003D3FF2354
:103A40000370002487E00093416802ABFFF708FC95
:103A5000616816A810F0C2FD02A916A810F02AFC91
:103A60003F494048FDF741F916A93E48FDF74BF99B
:103A70000EA83D4916AA012307F0BEFB0EA807F0C9
:103A80007CFA38B92046FFF7CBFF04460EA807F0B2
:103A90002FFA60E0354904F1090010F09FFD002580
:103AA0000123052184F83B5084F83C5084F83D50B4
:103AB0002364636404F148000BF02DF9182384F8A3
:103AC000583002A984F8595025720AA80BF0C8F89A
:103AD0000AA80BF0D3F9014606A80BF0F9F80AA8DA
:103AE0000BF07DF822490AA80BF0BAF80AA906A83B
:103AF0000BF070F905460AA80BF071F8012D04D1FE
:103B000020460EA9FFF79CFC11E01A490AA80BF009
:103B1000A7F80AA906A80BF05DF905460AA80BF05C
:103B20005EF8012D03D120460EA9FFF761FE237A2E
:103B300033B9114B1A889B78A4F83B2084F83D30A8
:103B40000EA807F00EFA06A80BF049F80EA807F029
:103B5000CFF901E01C46204657B030BDA824002014
:103B60007798010020490020AC44002020980100F3
:103B70004B97010050970100209601002DE9F04F6E
:103B8000DFF8D082B24C434687B033F8037F05ADEF
:103B90009E7801954FF002094FF01E0BCDF8009072
:103BA0002046172100221923ADF814708DF81660F5
:103BB00004F0ACFECDF800B0204607211C220923FA
:103BC0000195ADF814708DF8166004F09FFE434621
:103BD000CDF8009033F8067F01959E78ADF814700B
:103BE00020460F21002211238DF8166004F08EFE6E
:103BF000CDF8009020464FF006091321002215232E
:103C00000195ADF814708DF8166004F07FFECDF8C4
:103C1000009020460B2104220D230195ADF814706D
:103C20008DF8166004F072FE4FF00A0CCDF800C05B
:103C30004FF01A0A20460721082209230195CDF8E2
:103C40000CC0ADF814708DF8166004F05FFE2046CD
:103C5000072118220923CDF800A00195ADF81470B2
:103C60008DF8166004F052FECDF800B020460B210E
:103C70000D2301951C22ADF814708DF8166004F028
:103C800045FECDF800B020460F2101951C221123DE
:103C90004FF0160BADF814708DF8166004F036FE78
:103CA0002046132118221523CDF800A00195ADF868
:103CB00014708DF8166004F029FE20461721142296
:103CC0001923CDF800B00195ADF814708DF8166089
:103CD00004F01CFE4346CDF8009033F8097F0195AF
:103CE0009E78ADF8147020460F21042211238DF820
:103CF000166004F00BFECDF800902046132104223C
:103D000015230195ADF814708DF8166004F0FEFDD2
:103D1000CDF8009020461721042219230195ADF813
:103D200014708DF8166004F0F1FDDDF80CC00195FB
:103D3000CDF800C04FF00E092046172108221923A4
:103D4000ADF814708DF8166004F0E0FD20460721F0
:103D50000C22CDF8009001950923ADF814708DF870
:103D6000166004F0D3FD204617210C22CDF80090F8
:103D700019230195ADF814708DF8166004F0C6FD96
:103D80004FF0120CCDF800C0204607211022092365
:103D90000195CDF80CC0ADF814708DF8166004F0E4
:103DA000B5FDDDF80CC00195CDF800C02046172107
:103DB00010221923ADF814708DF8166004F0A6FDDA
:103DC0002046072114220923CDF800B00195ADF853
:103DD00014708DF8166004F099FD20460F2114220E
:103DE0001123CDF800B00195ADF814708DF8166070
:103DF00004F08CFD2046132114221523CDF800B0C9
:103E00000195ADF814708DF8166004F07FFD204622
:103E10000F2118221123CDF800A00195ADF81470E0
:103E20008DF8166004F072FD4346CDF8009033F82B
:103E30000C2F01959B78ADF814208DF81630204694
:103E40000F210C22112304F061FD07B0BDE8F08FB3
:103E500088260020209601001F4BF7B50F461978E1
:103E60000446C9B11D4EC37DB5781BB90C2D01D9CF
:103E70000C3DEDB21A48052104F088F832787378C9
:103E8000009204F108002A46164910F0C7F9092DDE
:103E900094BF0425012508E0114804F077F804F1E7
:103EA0000800114910F09AFB012520210C4804F06C
:103EB00089F904F114010A4804F07EF9084804F075
:103EC0003BF801230093064829463AB204F108035F
:103ED00004F0A2F80020FEBD299CFF1F9C240020B6
:103EE000882600208B9801009398010008B5B0F94E
:103EF0001210FFF7B1FF08BD2DE9F04F7C4B9D7804
:103F0000C37D8FB0064688461BB90C2D01D90C3DE8
:103F1000EDB2B8F1000F03D0B8F1010F0BD105E0FD
:103F20004FF6FF74092D88BF022408E0092D94BFC5
:103F30001124142407E0B8F1000F03D14446092DE1
:103F400034D900E0002470238DF8243080238DF8CC
:103F5000253009A890238DF82630FCF721FF8DF835
:103F60001800C0F30723C0F307408DF81A008DF83E
:103F700019300EA9069B778A21F8043D1FFA84F9AF
:103F80001B0C484607F1FF3A8DF83630023F431CC0
:103F9000023000B20FFA8AF23FB20190039100970B
:103FA0000292544821B21BB204F08BFC718A702338
:103FB0008DF8283080234A1E8DF829300AA89023D6
:103FC0008DF82A3005910492FCF7EAFE8DF818006E
:103FD000C0F30723C0F307408DF819308DF81A009D
:103FE0000EAB069823F8040D0599049A0393A7B223
:103FF000023909B207F1080B000C07F1060A07F1B4
:10400000070912B200910FFA8BF18DF83600019179
:10401000029238480FFA8AF10FFA89F304F051FC42
:10402000B8F1000F01D1092D2FD970238DF82C3054
:1040300080238DF82D300BA890238DF82E30FCF7BF
:10404000AFFE8DF81800C0F30723C0F307408DF8CA
:104050001A008DF819300EA9069B758A21F8043DC7
:104060001B0C05F10B088DF836300C357B1C023724
:104070000FFA88F22DB23FB203918DE8A0000292B0
:104080001C4821B21BB204F01CFC70238DF83030A8
:1040900080238DF831300CA890238DF83230FCF756
:1040A0007FFE8DF81800C0F30723C0F307408DF89A
:1040B00019308DF81A000EAB748A06990D4823F852
:1040C000041D04F10B05090C0C348DF836102AB2CE
:1040D0000FFA8BF124B201910393009402920FFA2C
:1040E0008AF10FFA89F304F0ECFB0FB0BDE8F08F12
:1040F0009C240020882600202DE9F04F8FB0064632
:1041000002250DACB6F81290A9B24FF0700C09F16F
:10411000FF324F1C4FF0800B02314FF0900A0BA87A
:104120008DF82CC0CDF814C0079106928DF82DB0F3
:104130008DF82EA0FCF734FE8DF82000C0F3072385
:10414000C0F307408DF822008DF82130089B2648E7
:1041500023801B0CA3700799069A0394A9F1020906
:104160000FFA85F812B20FFA89F33FB20FFA81F90C
:104170000093414602923B46CDF8049004F0A1FB27
:10418000738ADDF814C0079303F10B020CA88DF8B5
:1041900030C006928DF831B08DF832A0FCF700FEE9
:1041A0008DF82000C0F30721C0F307408DF82200EE
:1041B0008DF8211008990C482180090CA170079BEB
:1041C000069A03940C3312B21BB206358DE808022E
:1041D000029241463B46ADB204F073FB202D91D1D3
:1041E0000FB0BDE8F08F00BF8826002037B50C4D1A
:1041F0002B680093009A8368D21AC3689A420446D7
:104200000CD9084808F0C4FD074B30B101221A70E0
:104210002B680193019BA36000E018703EBD00BFB6
:10422000204800209C240020299CFF1F10B5044634
:10423000FFF7DCFFA06910B103689B689847002076
:1042400010BDFFFF70B51E4E1E4D0446236820466C
:104250009B6898471C48FFF7E9FF1C48217AFFF745
:104260004BFE1B48012104F0FDFB1948002103F01F
:104270006BFE3068FDF74DFA01380A2816D8DFE8E2
:1042800000F006090F121E15151515151E00207ACF
:10429000012102E0207A4FF0FF31FCF7B9FC05E084
:1042A000E368013B01E0E3680133E360E368022B6C
:1042B00001D90023E360E368EB5C2372C6E770BDBD
:1042C0009495FF1F6495FF1F8C260020C4260020B4
:1042D000882600200022026042608260C260026183
:1042E00042614FF0814202624FF0824242620022FC
:1042F00080F828207047FFFF08B5FF2100200AF052
:1043000064FC0EF023FE04490EF028FF4FF07C51B0
:104310000EF066FD08BD00BF00007F43F8B5002326
:10432000036043608360C360036143614FF0814376
:1043300003624FF082434362002380F82830044632
:104340000D461646FFF7D8FF0746FFF7D5FF4FF09B
:104350007F53E361034BE060A76025606660A36163
:104360002046F8BDCDCC4C3D0A6802604A684260E8
:104370008A688260CA68C2600A6902614A694261E9
:104380008A698261CA69C2610A6A02624A6A4262D1
:1043900091F8282080F82820CA6AC2627047FFFF7F
:1043A00010B50021044600680EF0C2FF08B10D4BA5
:1043B0002360606800210EF0BBFF08B1094B636009
:1043C00020684FF084410EF0C7FF08B1002323603E
:1043D00060684FF084410EF0BFFF08B100236360B6
:1043E00010BD00BF0000F8410A6802604A684260E0
:1043F0008A688260CA68C2600A6902614A69426169
:104400008A698261CA69C2610A6A02624A6A426250
:1044100091F8282080F82820CA6AC2627047FFFFFE
:10442000F0B504468DB000253027214907FB05462D
:104430000A4608366846FFF771FF0135304669467F
:10444000FFF7D2FF0A2DF0D1002002210AF0BDFBB8
:104450000028D4BF0020012084F8210200B31549B0
:1044600068460A46FFF75AFF694604F5F470FFF7FD
:10447000BBFF012384F82132D4F800020EF026F9A4
:1044800009A3D3E900230EF075F90EF055FC4FF0A7
:104490008343C4F80C320023C4F80002C4F8083285
:1044A0000DB0F0BDAFF30080445EC598AAAAFA3FF4
:1044B000000070410000F841F0B5174D8DB0064680
:1044C0000024002720460EF041FD002201466846E8
:1044D000FFF724FF204602970EF0E6F80CA3D3E97D
:1044E00000230EF047F90EF027FC0390302000FB6C
:1044F0000460E3000830694601348DF828300695E1
:104500000795FFF771FF202CDCD10DB0F0BD00BF87
:104510007B14AE47E17A84BF00002041AFF30080F6
:104520002DE9F04302218DB0054600200AF04DFB35
:104530000024002814BF07464FF0FF374FF07E5885
:104540000026C4F11F000EF001FD1849024668461E
:10455000FFF7E4FE32212820CDF82C800AF035FB4D
:104560000EF0F4FC12490EF0F9FD814638460EF0CB
:10457000EDFC014648460EF03DFD0290302000FB68
:1045800004506301083069468DF828300396FFF720
:104590002BFFAA20FA210AF018FB0134082C85F819
:1045A0009801CED10DB0BDE8F08300BF000070418E
:1045B0000000C8422DE9F0438DB00446FBF78CFFA4
:1045C0002081FBF789FF6081FBF786FF0025A08132
:1045D000302720200AF0EEFA804620200AF0EAFA7E
:1045E000814640460EF0AEFC804648460EF0AAFCDE
:1045F00007FB05460246143641466846FFF78EFE25
:10460000013530466946FFF7EFFE282DE1D10DB0A8
:10461000BDE8F0832DE9F84FDFF8709080460C4636
:10462000FF2500264FF0030A08EB060318F80600E2
:104630005978D9F80070FCF7FDF821780AFB00FCE6
:1046400015F0FF0F07EB0C000CBF4FF0000B4FF005
:10465000010B11B169430BEB21216278217012B17A
:104660006A430BEB2222A378627013B16B430BEB0E
:1046700023230236A3700F3D0334202E07F80C10BD
:1046800042708370D0D1BDE8F88F00BFAC24002009
:104690002DE9F04389B00746002606A88DF818607A
:1046A0008DF819608DF81A60FCF77AFB8DF8100010
:1046B000C0F30723C0F307408DF812008DF81130C6
:1046C000049B3B4808A907F1080821F8043D1B0C8E
:1046D0008DF81E3004F03AF997F83820531C87F80B
:1046E0003830344B0093FF2301930123029340465B
:1046F0001021052305F07AFA4FF0210909FB067510
:1047000038356C1C23460F22998B013AD983023B22
:1047100012F0FF02F8D10A200AF04CFA07281CD93F
:1047200094F82030032B18D8DFE803F002020B0BBB
:10473000002002210AF049FA012814BF02200320B8
:1047400009E0002002210AF040FAB0F1010EDEF18A
:10475000000050EB0E0084F8200094F82030032B6A
:104760001AD8DFE803F0020C07136378013303F073
:104770001F0309E06B78013303F01F030BE063783C
:104780000BB1013B00E01F23637005E06B780BB1B8
:10479000013B00E01F236B70204641460136FFF7C6
:1047A00039FF062EAAD11E2009B0BDE8F08300BF54
:1047B00088260020B9240020013A072A17D8DFE80C
:1047C00002F00407160D161616114B685A1E01E06A
:1047D0004B685A1C0B6842600360704791E80C00FC
:1047E000013A02E091E80C00013280E80C007047C9
:1047F0002DE9F04704468CB0D4F81C39D0F81809DC
:10480000012B01D0451E02E00AF0D4F90546002D27
:10481000C0F2098105F1230204EBC20292E8030011
:1048200004F5887383E80300D4F814314FEA400993
:104830004FEA43080026FF2302A88DF80A30CDF87E
:104840001890CDF81C808DF808608DF80960FCF791
:10485000A7FA8DF80000C0F30723C0F307408DF8D6
:1048600001308DF80200009A70480CAB0FFA89F104
:1048700023F81C2D120C8DF816200FFA88F203F085
:104880004BFE042130460AF0A0F9A319201893F832
:10489000242990F824190136042E83F8241980F86D
:1048A0002429EED1264604F1040904F5887A96F805
:1048B000248908A851464246FFF77EFF089B002B3B
:1048C00068DB099A002A65DB0F2B63DC0F2A61DCA9
:1048D00004EB0210C01800F1100E017C002959D120
:1048E000D4F81411D4F8100104EB01110918087C54
:1048F00048EA0000087408F1FF319EF8000007291B
:104900000CD8DFE801F0040A0B060B0B0B0802279A
:1049100004E0082702E0042700E0012704EB02126C
:10492000D318074306A942461F740AA8FFF744FF9D
:10493000FF2303A88DF80C308DF80D308DF80E3064
:10494000FCF72EFA8DF80000C0F30723C0F30740F0
:104950008DF801308DF802000098BDF82860BDF890
:104960002C500CAB31B223F81C0D000C8DF8160046
:104970002AB22E4803F0D0FDD4F818395A1C23333C
:10498000C4F8182904EBC30408AB93E8030084E8D7
:10499000030048E001364E4589D111E0F11801F5D8
:1049A000887201F58C7103C982E803000135D4F8DF
:1049B0001829013A08339542F0DBC4F8182932E08F
:1049C00005F1230304EBC30393E803000CAB03E9F5
:1049D00003000A9F0B9EFF2376007F0004A8079622
:1049E0008DF810308DF811308DF812300697FCF7E5
:1049F000D7F98DF80000C0F30723C0F307408DF806
:104A000001308DF80200009A08480CAB39B223F847
:104A10001C2D120C8DF8162032B203F07DFD04EB34
:104A2000C5060023C3E70CB0BDE8F0878826002048
:104A300070B5D0F81839002B86B004463FDC00254D
:104A400002A88DF808508DF809508DF80A50FCF72F
:104A5000A7F98DF80000C0F30723C0F307408DF8D5
:104A600002008DF80130009B224806A921F80C3D78
:104A70001B0C8DF80E3003F069FF2B46294608E029
:104A800050190135102D0174FAD11033B3F5807F20
:104A900002D00025E218F3E728460AF08BF8064614
:104AA00028460AF087F80496059006AA12E9030042
:104AB00004F58C7383E803000123C4F818392046F9
:104AC000FFF796FED4F81839002B0CDCD4F81C390B
:104AD000D4F8202901339342C4F81C3905DB0023A4
:104AE000C4F81C3901E0002001E04FF47A7006B0F0
:104AF00070BD00BF882600202DE9F04F8DB0002446
:104B0000099283468A4604604460DFF80C9173E0A2
:104B100004EB0A0202EB451202F58052127C002AD5
:104B200064D0A31C0293DFF8F080AB1C661E0593D3
:104B3000721C4FD0202E4DD00AEB0603039333B2E4
:104B40006F1E04930DB9002C40D07B1C3ED0202F4B
:104B50003CD0039B03EB471292F8102CB2B339B24E
:104B6000049A2C4803F092FCC0F307228DF8180039
:104B7000C0F307408DF81A008DF81920069A9DF8A9
:104B80002410ADF82C205FFA82FCC1EB0C019DF8DB
:104B900025C0100CC2F30722CCEB02029DF826C000
:104BA0008DF82E005243C0B2CCEB000C01FB01216A
:104BB0000CFB0C1CC44521DB08D10220CDF804C03D
:104BC00009F0F8FF0128DDF804C017D0059B013774
:104BD0009F42B7D1029B01369E42A9D1C8450FDB47
:104BE00004D1022009F0E6FF012809D00135202D6B
:104BF0008ED10134202C09D0002589E7E046E5E775
:104C0000CBF80050CBF80440C146EFE758460DB052
:104C1000BDE8F08F882600203F420F002DE9F04FBD
:104C2000464B8DB00024099206460391046044600F
:104C3000029375E009EB040303F580531B7C002B02
:104C400066D04FF0000B651E4FF0FF3ACDF804B070
:104C5000691C4BD0202D49D005EB09012AB207F180
:104C6000FF38002304910592B8F1FF3F39D0B8F125
:104C7000200F36D00499CA1892F8F02B8AB3019A03
:104C80002F480093013201920FFA88F1059A03F040
:104C9000FDFBC0F307228DF81800C0F307408DF824
:104CA0001A008DF81920069A9DF82410ADF82C20D2
:104CB0005FFA82FCC1EB0C019DF825C0009B100C33
:104CC000C2F30722CCEB02029DF826C08DF82E001D
:104CD0005243C0B2CCEB000001FB012100FB0010ED
:104CE00083442033602B08F10108BDD10AF1010A89
:104CF0000135BAF1020FABD1019B9BFBF3FB029B89
:104D00009B4511DB04D1504609F054FF01280BD01C
:104D10000137202F09F120098CD10134202C08D033
:104D2000DDF80C90002785E737607460CDF808B097
:104D3000EEE730460DB0BDE8F08F00BF3F420F00F8
:104D4000882600202DE9F041044606460025032769
:104D500028464FF4806109F038FF07FB05F2103256
:104D6000A318784314F802C059789A7823181030A1
:104D700033F8108FA6F810809B780135B374231890
:104D80000336B5F5806F04F800C059709A70DFD112
:104D9000BDE8F0812DE9F04FFF2187B0814600206A
:104DA00009F013FF00265FFA80FA354651E004A8A7
:104DB00002A98DF8122000928DF811408DF8108014
:104DC00004F0AAFF032303FB079302A803F1100BCF
:104DD0000193FBF7E5FF019B10341874A4B2C0F3F4
:104DE0000723C0F307408BF801308BF8020001372E
:104DF000B4F5807F009ADAD105F11007FF2205A8EB
:104E000003A98DF8152000928DF816408DF81480B6
:104E100004F082FF032303FB079303A803F1100BA5
:104E20000193FBF7BDFF019B103C1874C0F30723EF
:104E3000C0F307408BF801308BF80200A4B20137B1
:104E4000009A002CDBD120350836B5F5806FF6B21C
:104E500005D006EB0A082F460024FF22A7E707B07B
:104E6000BDE8F08F2DE9F0470446042009F0A2FECA
:104E7000032800F28D80DFE800F0224D788808FBDF
:104E800001FE0EF1100E04EB0E07013190FBF5FA56
:104E9000B1F5806F04F80EA087F8019087F802C082
:104EA0006ED0FF30B042EAD1FF32B24203D092FB63
:104EB000F5F90020E3E7FF33B34207D160E00023B8
:104EC00019460A254FF0030840F6F52693FBF5FC3A
:104ED0000022ECE708FB01FE0EF1100E04EB0E07BA
:104EE000013104F80EC0B1F5806F90FBF5FE87F834
:104EF00001E087F8029043D0FF30B042EAD1FF32A0
:104F0000B24203D092FBF5F90020E3E7FF33B3424E
:104F100007D135E0002319460A254FF0030840F673
:104F2000F52693FBF5FC0022ECE708FB01FE0EF1F1
:104F3000100E04EB0E07013104F80EC0B1F5806FBE
:104F400090FBF5FE87F8019087F802E018D0FF305B
:104F5000B042EAD1FF32B24203D092FBF5F9002011
:104F6000E3E7FF33B34207D10AE0002319460A25DD
:104F70004FF0030840F6F52693FBF5FC0022ECE722
:104F80002046FFF7DFFEBDE8F0872046FFF702FF6F
:104F9000BDE8F0872DE9FF4100F5A05604463569CC
:104FA00015BB01A94B488DF804508DF805508DF8BC
:104FB000065003F0CBFC2046FFF754FF022009F017
:104FC000F9FD2A4670610CE0C118203381F8102CDD
:104FD00001F58051B3F5806F0A74F5D10135202DAC
:104FE00002D000236019EFE704F5A05203231169F2
:104FF00003FB014333F8100F9B78ADF800008DF8E8
:10500000023041B9202009F0D5FD0546202009F0E5
:10501000D1FD064617E05369009AADF80420120C42
:105020008DF8062013B1012B0BD105E002A8214613
:10503000019AFFF761FD04E002A82146019AFFF7FB
:10504000EDFD039E029D04EB4517BB1903F580524D
:1050500000214FF00108117483F8108C29B232B28C
:105060001C486B4603F058FA721E4FF0FF31531C78
:1050700004D1013101320229F9D11BE0202AF8D0F4
:10508000D6194FF0FF3303B981B15819B0F1FF3F82
:105090000CD020280AD006EB431090F810CCBCF1BD
:1050A000000F03D100F5805080F810800133022BEF
:1050B000E9D1DEE704F5A054002023690133B3F5FC
:1050C000806FAABF2061236140F6B83004B0BDE80C
:1050D000F08100BF8826002070B5284898B00C46A3
:1050E00006F0DCF8002843D0684624492246012314
:1050F00006F082F868466E4605F03FFF002831D082
:1051000008AC20466946012206F0DCF800256E4610
:1051100019E0204605F0F4FE30B9204605F0EEFE19
:10512000FBF746FD00B10135204605F01AFF10A837
:105130006946012206F0C6F8204610A9FDF7A2FD37
:1051400010A805F0D5FE204605F017FF0028E0D195
:10515000204605F006FF684605F003FF204605F0EF
:10516000C7FE01E04FF0FF35684605F0C1FE01E0E3
:105170004FF0FF35284618B070BD00BFAC4400208A
:10518000F0B5161E99B00C461F4650DB1E9B9E4282
:105190004DDA684627492246012306F02DF8684675
:1051A0006D4605F0EAFE002837D008AC2046694677
:1051B000012206F087F86D4620E0204605F0D1FE7A
:1051C0001CE0204605F09AFEFBF7F2FC38B12046C1
:1051D00005F094FE01463846013E0FF0FFF92046E7
:1051E00005F0BFFE10A86946012206F06BF82046C4
:1051F00010A9FDF747FD10A805F07AFE204605F03E
:10520000BCFE08B1002E0CDA204605F0AAFE684666
:1052100005F0A7FE204605F06BFE684605F068FE27
:1052200005E0204605F06CFE0028C6D1C9E719B09C
:10523000F0BD00BFAC44002030B5274B1B78CFB089
:105240000446002B45D0436B002B42DD00F11005D6
:10525000284605F092FE10B1284605F082FE636BE9
:10526000226B0093204602ABE168FFF789FFE168FB
:105270000EA80FF0B3F902A90EA80FF01BF80EAAA2
:10528000012306A8154905F0B7FF06A92846FDF732
:10529000F9FC06A805F02CFE284605F06EFEC0B10C
:1052A000294606A8FDF77EFF06A90D48FDF7EAFC92
:1052B00006A805F01DFE0B48FDF7FCFC18B92846B2
:1052C00005F04FFE05E00748FDF710FD0548FDF726
:1052D00023FD4FB030BD00BFA8240020AC44002007
:1052E00054EBFF1FF4E1FF1F08B5FFF7A5FF08BD52
:1052F00030B5334B1B7885B00546CBB931488DF8B6
:105300000C3003A98DF80D308DF80E3003F01EFB24
:105310002C48012103F03CFB2B4B2A481A889B7830
:10532000ADF80C208DF80E30284B042100931CE0C2
:10533000446B002C1FDA002422488DF80C4003A98E
:105340008DF80D408DF80E4003F000FB1D482146FE
:1053500003F01EFB1C4B1A889B78ADF80C208DF8CF
:105360000E301B4B174800930321182203AB03F0A8
:1053700017FB1E2420E016D112488DF80C4003A91B
:105380008DF80D408DF80E4003F0E0FA0D482146EF
:1053900003F0FEFA0C4B1A889B78ADF80C208DF8C0
:1053A0000E300C4BDEE70C48FDF7C8FC431D0446ED
:1053B00002D12846FFF740FF204605B030BD00BFB0
:1053C000A8240020882600202F9601009C98010028
:1053D000A2980100A9980100F4E1FF1F10B504464E
:1053E000002008F0A9F90B4B616B1A88801818800F
:1053F000002009F0EAFB636B2063984201DB002385
:1054000002E0002801DA013B23632046FFF714FF86
:1054100010BD00BFCC95FF1F08B5036BC918436BC7
:105420000163994201DB002302E0002901DA013B1C
:105430000363FFF701FF08BD13B54FF0FF32C261F0
:10544000012280F8202005220D23C2624FF47A72D7
:1054500003608263002342641822044603730375C9
:10546000836180F8213080F822304362836280F8C3
:10547000303080F83130436380F83C3080F83D3084
:10548000036480F8483080F84920802201A88DF814
:1054900004308DF806308DF80520FBF781FCC0F351
:1054A000072384F84A00C0F3074084F84C0084F8CE
:1054B0004B3020461CBDFFFF70B52A4B1B788EB0C9
:1054C000002B4CD000F58874204605F056FD10B135
:1054D000204605F046FD244B6A4603F11006186885
:1054E0005968154603C50833B3422A46F7D11868F0
:1054F0001B7928602B711D48694605F0CFFE70B3FB
:105500006A46012306A8194905F076FE06A9204639
:10551000FDF7B8FB06A805F0EBFC204605F02DFDD5
:10552000E8B1204605F0ECFC00B10EE0214606A8EB
:10553000FDF738FE06A90E48FDF7A4FB06A805F006
:10554000D7FC0C48FDF7B6FB18B9204605F009FD5D
:1055500005E00848FDF7CAFB0648FDF7DDFB0EB085
:1055600070BD00BFA8240020B1980100AC44002009
:1055700054EBFF1FF4E1FF1F1FB50023044602A8F0
:105580008DF808308DF809308DF80A30FBF708FCEB
:105590008DF80000C0F30723C0F307408DF8020028
:1055A0008DF80130009B064804A921F8043D1B0C2E
:1055B0008DF80E3003F0CAF92046FFF77DFF1FBDBE
:1055C0008826002038B500F588740546204605F089
:1055D000D4FC50B9204605F0B1FC20B105E02846C6
:1055E000FFF76AFF07E0044605E00448FDF7A6FB65
:1055F000421D0446F3D0204638BD00BFF4E1FF1F32
:105600001FB51E4802F098FC01221D491B4802F0FC
:1056100057FD002402A88DF808408DF809408DF848
:105620000A40FBF7BDFB8DF80000C0F30723C0F371
:1056300007408DF802008DF80130009B0F4804A947
:1056400021F8043D1B0C8DF80E3003F07FF9012189
:105650000A4803F007FA094802F06EFC07482146A1
:1056600002F072FCFCF74EF80A2806D0062804D097
:105670004FF4FA7008F042FBF4E71FBD88260020C3
:1056800020980100054B064A1B780020815C994256
:1056900003D201300528F9D1002070476695FF1F1D
:1056A0008895FF1F70B590F8313088B004463BB143
:1056B000A34B1B680693069A436B9A4280F0828143
:1056C00094F83D303BB19E4B1B680793079A236CBF
:1056D0009A4280F07E81A369E26993420AD194F8EC
:1056E00048203AB994F8302022B994F83C20002A96
:1056F00000F076810025E36184F84850914802F07B
:105700001BFC94F83C301BB994F83D30002B38D08A
:1057100005218C4884F83C5002F038FC8A4B8948BB
:105720001A889B78ADF8142005A98DF8163002F080
:1057300043FD2021834802F045FD844B81481978C0
:1057400002F090FBFFF79EFF0DF000FC4FF07A5146
:105750000DF050FC7E490DF04DFC0DF011FE021EC7
:1057600004DC7C4B1B78002B18BF01227A4905A86A
:105770000EF054FD01230093724804210B2205AB67
:1057800054E094F830301BB994F83160002E50D0BA
:1057900000256C4884F83050294602F0F7FB694830
:1057A00004F14A0102F008FD2021664802F00AFDDA
:1057B000664B6448197802F055FB666A012E15D0D5
:1057C00003D3022E40F0EA8020E0644A5D48019253
:1057D0000723012600930C210A22029602F03AFCCC
:1057E000009658485E4B294612221FE05D4A5548F4
:1057F0000192072300930C210A22029602F02AFC50
:1058000000965048584B294612220FE0554A4D4801
:1058100001920723012600930C210A22029602F02E
:1058200019FC4848514B00962946122202F0F4FB1D
:10583000B4E094F82230002B4ED04D4D414895F8FD
:10584000591002F097FC3F4895F8581002F098FC68
:1058500005F14800474909F089FAF0B905F1480017
:10586000454909F083FAD0B905F14800434909F0E8
:105870007DFAB0B905F14800414909F077FA90B9CD
:1058800005F148003F4909F071FA70B93E4905F148
:10589000480009F06BFA052108E0314606E00121D5
:1058A00004E0022102E0032100E00421304D2548FC
:1058B00002F07AFC234805F13B0102F07DFC21480F
:1058C000296C02F07FFC214B1E48197802F0CAFABD
:1058D0001C4805F1090121E094F820301BB36368EE
:1058E00018481D68052102F045FC164894F8491037
:1058F00002F046FC1348012102F056FC114804F165
:105900004A0102F059FC0F48216802F05BFC0F4B82
:105910000C48197802F0A6FA0A4829464FF0FF32DF
:1059200002F0CEFB3AE094F82130064817490122F4
:1059300073B302F0C5FB054B024819782CE000BF99
:1059400020480020882600202F9601008095FF1F08
:105950000000C8426695FF1FC69801008195FF1F91
:10596000CC9801006C95FF1FD4980100DD980100D0
:1059700000240020E5980100ED980100F598010051
:10598000FE9801000799010012990100209801007A
:1059900002F096FB1348FF2102F064FA94F82030DD
:1059A0005BB994F8313043B994F83D302BB994F891
:1059B000213013B10C48FEF739FC0A48002102F0EF
:1059C000C3FA0DE0002380F83130012380F848301D
:1059D00076E6002384F83D30012384F848307AE6E7
:1059E00008B070BD882600208C260020054B064A92
:1059F0001B780020815C994203D201300528F9D13F
:105A0000002070478095FF1F8D95FF1F064B074AAA
:105A100019781078814201D218707047127991423A
:105A200088BF1A70704700BF6695FF1F8895FF1FDB
:105A3000064B074A19781078814201D218707047D6
:105A40001279914288BF1A70704700BF8095FF1F7E
:105A50008D95FF1FF0B51E46204B1B788DB0044678
:105A60000D461746002B35D01D48214605F016FC83
:105A700018B91B48214605F01BFC04AC2046184908
:105A80002A46012305F0B8FB204605F076FAF0B16E
:105A90000021684609F0E4F8204605F0D4F9012613
:105AA000C1B26D4607E0684609F053F9204605F09B
:105AB000CAF90136C1B2BE42F5DD204605F051FA01
:105AC000684609F0EAF90646684609F088F804A82D
:105AD00005F00EFA30460DB0F0BD00BFA82400203E
