:020000040000FA
:2000000000800020BD0100001DF20100E1F10100E1F10100E1F10100E1F10100E1F1010053
:20002000E1F10100E1F10100E1F101001DF201001DF20100E1F101001DF20100D1F1010081
:200040001DF201001DF201001DF201001DF201001DF201001DF201001DF201001DF2010020
:200060001DF201001DF201001DF201001DF201001DF201001DF201001DF201001DF2010000
:200080001DF201001DF201001DF201001DF201001DF201001DF201001DF201001DF20100E0
:2000A000D5DA01001DF201001DF201001DF201001DF201001DF201001DF201001DF2010020
:2000C0001DF201001DF201001DF201001DF201001DF201001DF201001DF201001DF20100A0
:2000E0001DF201001DF201001DF201001DF201001DF201006D1002001DF2010065150200A5
:200100001DF20100811902001DF201001DF201001DF201001DF201001DF201001DF20100D3
:200120001DF201001DF201001DF201001DF201001DF201001DF201001DF201001DF201003F
:200140001DF2010025B001001DF201001DF201001DF201001DF201001DF201001DF2010059
:200160001DF2010045FA01001DF201001DF201001DF201001DF201001DF201001DF20100CF
:200180001DF201001DF201001DF201001DF201001DF201001DF201001DF201001DF20100DF
:2001A0001DF201001DF201001DF201001DF201001DF201001DF201001DF2010010B56B4B54
:2001C0004CF220521A804DF628121A8000BF00BF1FF028F84FF01062654B1A60654A08334C
:2001E0001A60654A04331A60A3F530432C3B1B6813F4807F06D10022604B1A604FF4A852CF
:20020000043B1A605E4B1B7813F0080F04D05C4B1A7842F008021A702A225A4B1A705A4BDC
:200220005A4A9A420DD2131D594CE41A24F0030404340023104657495A581A500433A342E8
:20024000FAD1554B554A9A4280F08B80131F5449C91A21F003011A1D1144002243F8042F5A
:200260008B42FBD17DE05A581A500433B3F5DE7FF9D14C4B80214C4A03F8011B9342FBD1E0
:200280004A4B4B4A1A600A224A4B1A702422A3F6FF731A70A022013B1A7006331A7812F03F
:2002A000020FFBD0444B1A7812F0100FFBD1424B1A7802F00C02082AFAD103223F4B1A70FF
:2002C000402201331A7001331A7812F0200FFBD0394B1A7812F0400FFBD0394A394B1A6089
:2002E000022204331A602022374B1A7006331A7802F00C020C2AFAD1344A354B1A60354A18
:20030000354B1A60002204331A600722083B1A60324A03F551631A6062B61FF055FA174BB0
:200320001B6813F0010F05D02D481FF0B3F92D4A2D4B1A602D4B1B7813F0400F0AD02A4B0D
:200340001A68284B9A4205D125481FF0A3F90022254B1A6024F080FF15F0AEFF20F0A6F9DE
:20036000FEE70023124822497DE700BF0E20054030800440823F04000100002B14D003400E
:2003800002D0074000E00740889FFF1F6095FF1F8B9FFF1FB0F30200E4590020889FFF1F36
:2003A000DF59002000E400E05FE400E008ED00E00090FF1F005006400640064004400640CF
:2003C000000003014480044000400640C010050004800440FF76010014E000E00000202064
:2003E000FB985F55A5C3945A1CE0034000F0074000000000FFFFFFFFFFFFFFFFFFFFFFFFF6
:20040000FFFFFFFFFFFFFFFFFFFFFFFFFEFFFFFF10B5054C237833B9044B13B10448AFF34F
:2004200000800123237010BD889FFF1F00000000A8F3020008B5064B1BB106480649AFF3BD
:2004400000800648036813B1054B03B1984708BD00000000A8F302008C9FFF1F889FFF1FCC
:20046000000000000020704700207047704700BF704700BF012070470120704740697047D2
:20048000704700BF704700BF30B4C8222C4B1A702C490B8803EB432203EB820243F2196323
:2004A0001A4492B2284C226002EB422402EB84021A4492B2254C226002EB422402EB840283
:2004C0001A4492B2224C226041F27074214D2C60214D2C6002EB422402EB84021A4492B217
:2004E00002EB2224E4B2048102EB422402EB84021A4492B202EB2224E4B2448102EB422465
:2005000002EB84021A4492B202EB2224E4B2848102EB422402EB84021A4492B202EB22245D
:20052000E4B2C48102EB422402EB840213449BB20B8003EB2323DBB2038230BC704700BF43
:2005400014A0FF1F4C96FF1FB8A6FF1F38A4FF1FC0A6FF1F30A4FF1F34A4FF1F0369C36157
:200560004369036200238360704700BF0E48038803EB432203EB820243F219610A4492B207
:200580000A4B1A6002EB422302EB83030B449BB2074A136003EB432203EB8203194489B209
:2005A0000180044B196070474C96FF1FB8A6FF1F38A4FF1FC0A6FF1F10B4C16E002907DD41
:2005C00002460023012442F8144F01338B42FADB164B1A68C2602A2383601F210176002309
:2005E0004376036102623724C46180F82C1080F82D304362426303240463FF2480F840407E
:2006000080F84130836382644724446480F8541080F85530C364C2655922826580F8681099
:2006200080F8693003665DF8044B7047E055002042F27C73C058704708B500F51E50006816
:2006400010B103681B69984708BD00BF08B500F51E50006810B10368DB68984708BD00BF2D
:20066000D0F8A802704700BF00697047704700BF704700BF10B582B000248DF804408DF81D
:2006800005408DF80640034801A918F0F9FB204602B010BDB8AAFF1F30B583B0054600246D
:2006A0008DF804408DF805408DF80640044801A918F0E6FBC5F8184985F8244903B030BD55
:2006C000B8AAFF1F30B583B0054600248DF804408DF805408DF80640044801A918F0D0FBEC
:2006E00041F20A03EC5403B030BD00BFB8AAFF1F00B583B000238DF804308DF805308DF898
:200700000630034801A918F0BBFB03B05DF804FBB8AAFF1F00B583B000238DF804308DF820
:2007200005308DF80630034801A918F0A9FB03B05DF804FBB8AAFF1F00B583B000238DF811
:2007400004308DF805308DF80630034801A918F097FB03B05DF804FBB8AAFF1F10B50446CB
:20076000803020F0B3F8204610BD00BF10B504460020042120F0A0F8A0730120032120F0B8
:200780009BF8E06110BD00BF2DE9F04383B00546624B5E7C0B2E28BF0B26614C2046202106
:2007A00017F09EFD204605F1680117F091FD2046002117F055FC204617F018FC594B1B78A6
:2007C000002B00F09F80584B9F785C780C2F84BF0C3FFFB29CB9DFF84881023755F8273005
:2007E0000124009440462146324617F083FC009440462146F21D4D4B17F07CFC89E0092C10
:200800001DD8DFF81C81023455F824300124009440462146324617F06DFC00944046214689
:20082000F21D434B17F066FC023755F8273000944046214606F10E0217F05CFC69E0112C68
:200840001BD1DFF8DC80023755F827300124009440462146324617F04DFC6B6A009440463F
:200860002146F21D17F046FC00944046214606F10E02304B17F03EFC4BE0132C15D8DFF847
:20088000A080023755F827300127009740463946324617F02FFC023455F8243000974046F9
:2008A0003946F21D17F026FC33E0DFF87490023755F827300127009748463946324617F06B
:2008C00019FC1D4BA3FB04284FEAD80808F1140355F82330009748463946F21D17F00AFC48
:2008E00008EB8808A4EB480414F0FF0411D0023455F8243039460097484606F10E0217F029
:20090000F9FB06E001210091054832460B4B17F0F1FB002003B0BDE8F08300BF84280020C6
:20092000B8AAFF1FAC28002040FAFF1F84A402008CA4020008AE0200CDCCCCCC94A402006C
:2009400030B585B000248DF808408DF809408DF80A400D4D284602A918F092FA2846214613
:2009600018F0B2FA094B1A889B78ADF80C208DF80E30074B0093284621461B2203AB18F079
:20098000ABFA204605B030BDB8AAFF1F50A20200F495FF1F30B585B000248DF808408DF8FF
:2009A00009408DF80A400D4D284602A918F068FA2846214618F088FA094B1A889B78ADF835
:2009C0000C208DF80E30074B0093284621461B2203AB18F081FA204605B030BDB8AAFF1F78
:2009E00050A20200F495FF1F30B585B000248DF808408DF809408DF80A400D4D284602A941
:200A000018F03EFA2846214618F05EFA094B1A889B78ADF80C208DF80E30074B0093284671
:200A200021461B2203AB18F057FA204605B030BDB8AAFF1F50A20200F495FF1F30B585B0CE
:200A400000248DF808408DF809408DF80A400D4D284602A918F014FA2846214618F034FA74
:200A6000094B1A889B78ADF80C208DF80E30074B0093284621461B2203AB18F02DFA20469F
:200A800005B030BDB8AAFF1F50A20200F495FF1F30B585B000248DF808408DF809408DF83B
:200AA0000A400D4D284602A918F0EAF92846214618F00AFA094B1A889B78ADF80C208DF84E
:200AC0000E30074B0093284621461B2203AB18F003FA204605B030BDB8AAFF1F50A20200B2
:200AE000F495FF1F30B585B000248DF808408DF809408DF80A400D4D284602A918F0C0F973
:200B00002846214618F0E0F9094B1A889B78ADF80C208DF80E30074B0093284621461B228B
:200B200003AB18F0D9F9204605B030BDB8AAFF1F50A20200F495FF1F30B585B000248DF847
:200B400008408DF809408DF80A400D4D284602A918F096F92846214618F0B6F9094B1A8824
:200B60009B78ADF80C208DF80E30074B0093284621461B2203AB18F0AFF9204605B030BD71
:200B8000B8AAFF1F50A20200F495FF1F30B585B000248DF808408DF809408DF80A400D4D38
:200BA000284602A918F06CF92846214618F08CF9094B1A889B78ADF80C208DF80E30074B5E
:200BC0000093284621461B2203AB18F085F9204605B030BDB8AAFF1F50A20200F495FF1F19
:200BE00030B585B000248DF808408DF809408DF80A400D4D284602A918F042F928462146C2
:200C000018F062F9094B1A889B78ADF80C208DF80E30074B0093284621461B2203AB18F027
:200C20005BF9204605B030BDB8AAFF1F50A20200F495FF1F30B585B000248DF808408DF8AD
:200C400009408DF80A400D4D284602A918F018F92846214618F038F9094B1A889B78ADF834
:200C60000C208DF80E30074B0093284621461B2203AB18F031F9204605B030BDB8AAFF1F26
:200C800050A20200F495FF1F30B585B000248DF808408DF809408DF80A400D4D284602A99E
:200CA00018F0EEF82846214618F00EF9094B1A889B78ADF80C208DF80E30074B0093284672
:200CC00021461B2203AB18F007F9204605B030BDB8AAFF1F50A20200F495FF1F30B585B07D
:200CE00000248DF808408DF809408DF80A400D4D284602A918F0C4F82846214618F0E4F876
:200D0000094B1A889B78ADF80C208DF80E30074B0093284621461B2203AB18F0DDF820464E
:200D200005B030BDB8AAFF1F50A20200F495FF1F2DE9F04F89B005460020FF211FF0BCFD15
:200D40003349C2B291F8083C009305A801F60941FF2319F0A7FA0026029603963FE0029879
:200D600002211FF0A9FD012806D19DF814909DF815809DF8167003E0029FDDF80C80C14631
:200D80001FFA86FB297A59441FFA84FA6A7A52448DF818908DF819808DF81A701D4809B2EE
:200DA00012B206AB17F076FC012E12DC2B7A0433CBEB03016B7A0AEB03028DF81C908DF8FD
:200DC0001D808DF81E70134809B212B207AB17F061FC0134052CC2D10136032E01D000241D
:200DE000BDE72B7A0633DBB2192B01D82B7204E001232B726B7A06336B726B7A192B02D986
:200E000001232B726B727D2009B0BDE8F08F00BF00EDFF1FB8AAFF1F2DE9F04F89B0054697
:200E20000020FF211FF048FD4049C2B291F8083C009305A801F60941FF2319F033FA4FF03C
:200E40000009CB46CA46CDF8089051E0504602211FF032FD012806D19DF814809DF81570A0
:200E60009DF8166002E05646029FB846297A494489B26A7A224492B28DF818808DF8197026
:200E80008DF81A604B1C501C00B2009006A80190274809B212B21BB217F0CCFFBBF1010FB6
:200EA00019DC2B7A6A7A224492B28DF81C808DF81D708DF81E60039919440933C9EB0303E5
:200EC000501C00B2009007A80190194809B212B21BB217F0AFFF0234A4B20A2CB6D10BF17D
:200EE000010B09F102091FFA89F9BBF1030F05D0C9F108039BB203930024A7E72B7A0B3376
:200F0000DBB2162B01D82B7204E000232B726B7A0B336B726B7A162B02D900232B726B724B
:200F20004FF4FA7009B0BDE8F08F00BF00EDFF1FB8AAFF1F2DE9F04F8DB000248DF824403E
:200F40008DF825408DF826403D4809A917F098FF2046FF211FF0B0FC3A49C2B291F8083CE2
:200F6000009308A801F60941FF2319F09BF901250395A246A34602944BE0584602211FF00E
:200F80009BFC012806D19DF820909DF821809DF8227003E05F46DDF80880C146A5B2261D92
:200FA000B6B28DF828908DF829808DF82A7033B200930AAB01932248DDF810E00FFA8EF1C7
:200FC0002AB2DDF814E00FFA8EF317F033FFBAF1010F11DC8DF82C908DF82D808DF82E706B
:200FE00036B200960BAB01931548079A11B22AB2069D2BB217F01EFF0634A4B21F2CBCD180
:201000000AF1010A039DAB1D9BB20393BAF1030F10D0039DADB20495039D2B1D9BB205937D
:20102000C5F11A039BB20793C5F11E039BB206930124A2E74FF4FA600DB0BDE8F08F00BF4E
:20104000B8AAFF1F00EDFF1F10B500F11C0420461AF088FE10B120461AF078FE10BD00BF06
:2010600010B500F5157420461AF07CFE10B120461AF06CFE10BD00BF10B50446034B03605C
:2010800000F515701AF01AFE204610BD38A2020010B50446034A40F81C2B1AF00FFE20464D
:2010A00010BD00BF10A0020010B5044600F516601AF004FE204610BD2DE9F04F83B08346E8
:2010C0004FF000094FF00F0A204E4FEAC9085FFA88F855460024FF27102C06DC8DF8008017
:2010E0008DF801508DF8027007E08DF800808DF80170C5F10D038DF80230684601A919F063
:201100009DF99DF8042096F828309A4210D19DF8052096F829309A420AD19DF8062096F83C
:201120002A309A4204D1CBF80890CBF80C4009E001340F35EDB2202CCED109F10109B9F1A0
:201140001F0FC2D103B0BDE8F08F00BF7CF9FF1F2DE9F04F83B083464FF000094FF00F0AB4
:201160001E4E4FEAC9085FFA88F855460024FF27102C06DC8DF800808DF801508DF802704B
:2011800007E08DF800808DF80170C5F10D038DF80230684601A919F051F99DF804203378E1
:2011A0009A420ED19DF8052073789A4209D19DF80620B3789A4204D1CBF80890CBF80C4018
:2011C00009E001340F35EDB2202CD1D109F10109B9F11F0FC5D103B0BDE8F08F78FBFF1F46
:2011E00008B51EF051FA08BD2DE9F04786B00546D0F81839002B31DC00238DF80C308DF88C
:201200000D308DF80E30AD4803A917F039FE05F10F0305F20F10002106E003F8011F9342DA
:20122000FBD1824203D0134603F11002F5E710201FF036FB044610201FF032FBC5F81841D4
:20124000C5F81C010123C5F81839002085F824094FF480711FF030FB85F82509D5F81809B1
:20126000D5F81C39012B01D0441E02E01FF018FB0446002CC0F2CA8004F1230205F5887368
:2012800005EBC20292E8030083E803008046D5F814912F4600264FF0040A304651461FF073
:2012A0000BFB97F82639284490F8262987F8262980F8263901360137042EEED195F8252917
:2012C000D5F81C39012B0CD07D49224491F8083C009302A801F60941D2B2FF2318F0E2FFDE
:2012E000ACE095F82429531C85F82439744991F8083C009302A801F60941FF2318F0D2FF3C
:201300009CE093F82609022809D004280DD0012811D1D5F81061D5F81471013F10E0D5F8F3
:201320001061D5F8147101370AE0D5F81061013ED5F8147104E0D5F810610136D5F814714E
:201340000F2E52D80F2F50D805EB07113144097C00294AD14FEA48014FEA4902D5F8144152
:20136000D5F8103105EB041423441C7C04431C7405EB071333441B7C022869D0042860D0AA
:20138000012800F0918005EB0714344443F004032374022807D0042807D0012818BF013199
:2013A00005D1013A03E0013201E00139FFE79DF809009DF80A309DF808408DF814408DF85D
:2013C00015008DF816303D4809B212B205AB17F061F9D5F818395A1CC5F81829233305EB40
:2013E000C30245F83360576010E00133934288D135E0013493E8030003E90300D5F818298A
:20140000013A08339442F4DBC5F81829D5F81839002B0EDCD5F81C390133C5F81C39D5F84B
:201420002029934207DB0023C5F81C394FF47A7041E000203FE04FF47A703CE02A1D2B46E9
:201440005FE705EB0710304443F008030374ACE705EB0710304443F001030374A3E704F1DB
:20146000230305EBC30255F833104900526852009DF809009DF80A309DF808608DF810604D
:201480008DF811008DF812300C4809B212B204AB17F000F9D5F81829013A9442B4DA04F1CB
:2014A000240305EBC303A4E705EB0710304443F00203037475E706B0BDE8F087B8AAFF1FEC
:2014C00000EDFF1F10B5044643691944022902DD0023436104E00029AEBF41610223436133
:2014E000606A10B103681B6998476369063354F82300606210B10368DB68984710BD00BF83
:201500002DE9F04F8FB0244C00250027A046DFF88C904FF0814B0020FF211FF0CDF9002062
:20152000FF211FF0C9F9284623F01CFC20606760C8EB040608F10803F75006EB030A284666
:2015400022F0BEFF12A3D3E9002323F01FF823F0FFFACAF8040008F11003F7501E447760A0
:20156000C4F81890C4F81C90C4F820B04FF082436362EB0084F828300C9BE362012384F8FF
:2015800030301D443434202DC5D10FB0BDE8F08F7B14AE47E17A84BF182C00200000204175
:2015A00070B504461A4B1A68C368D21A03699A4227D90022174B1A7017481CF07BFE18B1BB
:2015C0000122144B1A7012E094F82B302BB913481CF0E8FD012384F82B300F4D2E781CF0ED
:2015E00099FD29461CF03AFC2B78B34206D001220B4B1A70064B1B68E36002E00022084BC5
:201600001A70606A10B103689B689847002070BDE0550020BCA6FF1F40FAFF1FE1110000FC
:20162000AC28002010B50446002003211FF044F9022802DD0023636104E00028AEBF6061ED
:2016400002236361606A10B103681B6998476369063354F82300606210B10368DB689847C4
:2016600010BD00BF2DE9F04F91B036490B8803EB432203EB820343F2196213449BB2038198
:2016800003EB432403EB840313449BB2438103EB432403EB84031A4492B20A8082812A4CA9
:2016A0000026DFF8AC904FF07C5A20201FF0F8F805460020FF211FF0FFF883460020FF2103
:2016C0001FF0FAF80190284623F048FB206066601D4BE51A984603F10807584623F042FB38
:2016E000494623F047FC514623F086FAE8512F44019823F037FB494623F03CFC514623F0CD
:201700007BFA786008F11003EE501D446E600F4BA3614FF07F53E3614FF0814323624FF089
:2017200082436362002384F828300E9BE362012384F83030343408F502639C42B5D111B04B
:20174000BDE8F08F4C96FF1F182C0020CDCC4C3D00007F432DE9F04F83B083460020022189
:201760001FF0AAF80028034608BF4FF0FF330193DBF80830002B4FDD294C00250027002038
:20178000FF211FF099F80020FF211FF095F8282032211FF091F88246224B2360C5F11F00ED
:2017A00023F0E0FA60601E4BE61A984603F10809504623F0D7FA1C4923F0DCFB8246019806
:2017C00023F0D0FA0146504623F020FB46F80900B144C9F8047008F1100846F80870B044F5
:2017E000C8F80470114BA3614FF07F53E3614FF0814323624FF0824363626B0184F828306F
:201800004FF07E53E362012384F830301D443434DBF80830AB42B2DC03B0BDE8F08F00BF8E
:20182000182C0020000070410000C842CDCC4C3DF0B583B00446467C274B1B78D3B1274B88
:201840009D78437D2BB90C2D02D90C3DEDB200E0E5B12348052116F003FC04F10800214960
:201860002A461E4B5B7824F0ADFA0A2D34BF0427012718E01A48002116F0F2FB1A4B03CBE3
:20188000A060E1601B78237401270CE01448052116F0E6FB04F1080012490C220F4B5B78AD
:2018A00024F090FA01270E4D2846202116F018FD284604F1120116F00BFD284616F096FBB4
:2018C0000123009328463946324604F1080316F011FC002003B0F0BDAC28002040FAFF1F0D
:2018E000B8AAFF1FA0A4020094A402002DE9F04383B00546524B1B7873B311301CF072FB11
:20190000044650481CF06EFB84421CDD241A4E48A0FB0430C00AC2B24FF4616303FB124376
:201920004A49A1FB03635B09A4EB0010C3EB0311A0EB8100C0B2009005F108004449DBB227
:2019400024F040FA0EE00023009305F1080040491A4624F037FA05E03E4B03CBA860E960DC
:201960001B782B743C4816F041FB354B1B78E3B1344B9C78394B5B7D2BB90C2C02D90C3C9A
:20198000E4B200E0ECB13448052116F069FB3448344922462B4B5B7824F014FA0A2C34BF33
:2019A0004FF004094FF0010918E02B48002116F057FB284A2A4B07CA03C31A704FF001095D
:2019C0000CE02548052116F04BFB254825490C221C4B5B7824F0F6F94FF001091E4C2046DD
:2019E000202116F07DFCDFF8748008F112072046394616F06DFC204616F0F8FA01260096DB
:201A000020464946002208F1080316F073FB2046002116F025FB2046202116F061FC20461A
:201A2000394616F055FC0096204631461A2205F1080316F05FFB002003B0BDE8F08300BF16
:201A4000AC28002040FAFF1FC5B3A29189888888A8A4020094A40200B8AAFF1F842800209A
:201A60008C280020A0A402002DE9F04F9FB003904D4CDFF85091DFF840814FF07C5B4FF0D7
:201A8000000A0020FF211EF017FF01900020FF211EF012FF0290C4F80090C4F8049042492F
:201AA000651A0F4601F10806019823F05BF9414623F060FA594623F09FF8A8512E44029810
:201AC00023F050F9414623F055FA594623F094F8706007F1100345F803A01D44C5F804A006
:201AE0004FF0814323624FF082436362002384F828300F9BE362012384F830302B4BE361F5
:201B00002B4BA361343407F502729442B9D1002002211EF0D1FE0028D4BF00200120039B59
:201B200083F8450000283BD00020FF211EF0C4FE05460020FF211EF0BFFE04461D4B0399FE
:201B40008B60CB60284623F00DF91B4923F012FA4FF07C5123F050F8039A1061204623F077
:201B600001F9154923F006FA4FF07C5123F044F8039B5861002303998B61CB61002281F8D6
:201B800030201C9A4A63012281F8382081F845200A4A4A620A4A0A624FF08342CA628B62E3
:201BA0001FB0BDE8F08F00BF182C00205C8FC23E8FC2753C0000F84100007F43B81EC53E4E
:201BC0000AD7A33C000070412DE9F04387B000258DF810508DF811508DF81250214804A927
:201BE00017F04EF9DFF88490DFF884801E4E06F60947D8F8003095FBF3F359F82340224687
:201C0000002CB8BFE21C96F8083C009303A83946C2F38702FF2318F045FBABB29DF80D10DD
:201C20009DF80E209DF80C008DF814008DF815108DF8162019B22246002CB8BF04F11F0256
:201C40005211C2F120021F20009005A80190054812B21BB216F06AFE0135202DC9D107B01F
:201C6000BDE8F083B8AAFF1F00EDFF1F7CFBFF1FA895FF1F2DE9F04F87B000278DF8107019
:201C80008DF811708DF81270294804A917F0F8F8284B1D1F03F1380BDFF89C8008F6094AF8
:201CA000DFF88C9055F8044F6E682246002CB8BFE21C98F8083C009303A85146C2F38702CB
:201CC000FF2318F0EFFA2346002CB8BF04F11F035A11C2F12002D2B23346002EB8BF06F1F5
:201CE0001F035B11C3F12003DBB2BC1CA4B29DF80D009DF80E109DF80C608DF814608DF8F0
:201D000015008DF816101F2B28BF1F23009305AB0193484639B21F2A28BF1F2223B216F0F4
:201D200005FE5D4501D02746BCE707B0BDE8F08FB8AAFF1F7CFBFF1F00EDFF1FFFFFFFFF26
:201D40002DE9F04F91B00D900023734DEB202968CA18CC5C00FB04F42412CC54517800FBBA
:201D600001F109125170917800FB01F1091291700333B3F5406FEAD100220C92DFF8B8B13B
:201D8000D946664B0C9AD5580D9A937A13B1644B0C9AD5582B46002DB8BFEB1CC3F3870449
:201DA0004FF002082E4627465B4991F8083C00930EA801F609413A46FF2318F073FA304671
:201DC00022F07EFB0022574B22F0E0FB0022564B22F028FA22F0BCFE0446002123F0D2F9BB
:201DE000002800F08380204622F07CFB82468B46484622F077FB46A3D3E9002322F0C6FB93
:201E000022F0A6FE22F06EFB04460D4620F0B8F8CDE90401204629461FF0E8FFCDE90601F1
:201E20004846424922F0E8FE22F05CFB38A3D3E9002322F0ABFB22F08BFE22F053FB044671
:201E40000D4620F09DF8CDE90801204629461FF0CDFFCDE90A019DF839209DF83A309DF8D8
:201E600038108DF83C108DF83D208DF83E3050465946DDE9042322F089FB00222C4B22F011
:201E8000D3F922F01DFE04B250465946DDE9062322F07CFB0022264B22F0C6F922F010FE62
:201EA00000B2009050465946DDE9082322F06EFB00221F4B22F0B8F922F002FE00B201909B
:201EC00050465946DDE90A2322F060FB0022184B22F0AAF922F0F4FD00B202900FAB03939C
:201EE00014480F210A46234616F0DAFE48460F4922F082FE8146B8F101087FF455AF0C9BB0
:201F000004330C931C2B7FF43CAF11B0BDE8F08F399D52A246DF913F00EDFF1FE4ECFF1FA9
:201F200020FAFF1F0000903F0000F03F0000C84100002E40B8AAFF1F0000B443AFF300805B
:201F40002DE9F04F93B00546837B032B00F20B82DFE813F004007600E8005E010024AA4F4B
:201F600007F60949DFF8A482E6B2AB7A03EB4603DBB213F0800F1CBFDB43DBB25B00DBB294
:201F800013F0800F00F0E48183F0FF0303F1010B5FFA8BFB0BFB03F34FEAD31B0BF0FE0BDF
:201FA0008BF0FF0B2B699BFBF3FB1FFA84FA6A7B324497F8083C009303A84946D2B2FF234C
:201FC00018F070F99DF80D209DF80E309DF80C108DF808108DF809208DF80A3040460FFAB1
:201FE0008AF15A4602AB16F055FBEB69022B23D1AB69CBEB030B1FFA8BFB6A7B324497F8ED
:20200000083C009305A84946D2B2FF2318F04AF99DF815209DF816309DF814108DF81010B9
:202020008DF811208DF8123040460FFA8AF10FFA8BF204AB16F02EFB0134202C94D192E15C
:202040000024714F07F60949DFF8C081E6B2AB7A03EB4603DBB213F0800F1CBFDB43DBB29C
:202060005B00DBB213F0800F00F0808183F0FF0303F1010B5FFA8BFB0BFB03F34FEAD31B7E
:202080000BF0FE0B8BF0FF0B2B699BFBF3FB1FFA84FA6A7B324497F8083C009307A8494609
:2020A000D2B2FF2318F0FEF89DF81D209DF81E309DF81C108DF818108DF819208DF81A30CC
:2020C000404659460FFA8AF206AB16F0E3FAEB69022B23D16B69CBEB030B1FFA8BFB6A7B31
:2020E000324497F8083C009309A84946D2B2FF2318F0D8F89DF825209DF826309DF82410B8
:202100008DF820108DF821208DF8223040460FFA8BF10FFA8AF208AB16F0BCFA0134202CED
:2021200094D120E10024384F07F60949DFF8DC80E6B2AB7AC3EB4603DBB213F0800F1CBF5E
:20214000DB43DBB25B00DBB213F0800F00F0198183F0FF0303F1010B5FFA8BFB0BFB03F380
:202160004FEAD31B0BF0FE0B8BF0FF0B2B699BFBF3FB1FFA84FA6A7B324497F8083C00933F
:202180000BA84946D2B2FF2318F08CF89DF82D209DF82E309DF82C108DF828108DF829209A
:2021A0008DF82A3040460FFA8AF15A460AAB16F071FAEB69022B23D1AB69CBEB030B1FFA0A
:2021C0008BFB6A7B324497F8083C00930DA84946D2B2FF2318F066F89DF835209DF8363083
:2021E0009DF834108DF830108DF831208DF8323040460FFA8AF10FFA8BF20CAB16F04AFAF3
:202200000134202C94D1AEE000EDFF1FB8AAFF1F0024694F07F60949DFF8A081E6B2AB7ADF
:20222000C3EB4603DBB213F0800F1CBFDB43DBB25B00DBB213F0800F00F0AE8083F0FF03F5
:2022400003F1010B5FFA8BFB0BFB03F34FEAD31B0BF0FE0B8BF0FF0B2B699BFBF3FB1FFAC2
:2022600084FA6A7B324497F8083C00930FA84946D2B2FF2318F016F89DF83D209DF83E3028
:202280009DF83C108DF838108DF839208DF83A30404659460FFA8AF20EAB16F0FBF9EB6912
:2022A000022B23D16B69CBEB030B1FFA8BFB6A7B324497F8083C009311A84946D2B2FF2317
:2022C00017F0F0FF9DF845209DF846309DF844108DF840108DF841208DF8423040460FFAD9
:2022E0008BF10FFA8AF210AB16F0D4F90134202C94D138E00168CA18CC5CC4EBC414E41162
:20230000CC545178C1EBC111C91151709178C1EBC111C91191700333B3F5406FEAD12B7A6C
:202320006A7A9A4205D800232B72AB7A0133AB7201E001332B72EB7A2A7B9A4205D8002332
:20234000EB726B7B01336B7331E00133EB722EE003F1010B5FFA8BFB0BFB03FB4FEADB1B66
:202360000BF0FE0B1EE600231348C3E703F1010B5FFA8BFB0BFB03FB4FEADB1B0BF0FE0B17
:2023800082E603F1010B5FFA8BFB0BFB03FB4FEADB1B0BF0FE0BE9E603F1010B5FFA8BFB11
:2023A0000BFB03FB4FEADB1B0BF0FE0B54E7002013B0BDE8F08F00BF00EDFF1FB8AAFF1F5A
:2023C0002DE9F04F97B00290554B1B684FF40C3202FB03F2120ED3B213F0400F00F01082C0
:2023E000DB43DBB203F03F0103F00F0301334D48091149004418647803FB04F3415C01EB18
:202400002313DBB212F0800F18BF5B42DBB283F0800303EB830318115638C0B20023424D22
:202420002968CA18CC5C00FB04F42412CC54517801FB00F109125170917801FB00F1091215
:2024400091700333B3F5406FEAD1029A9368002B40F3DB81DFF8D4804FF0000ACDF828A0E1
:20246000324B5AF80320049203EB0A02039252680692039A92680D9203EB0A02D2680E92E9
:20248000039A1269089253445B690F93C346D8F818301093D8F81C200992D8F8203011935E
:2024A000D8F82420129298F828300B93D8F82C200C9298F830301393029A5069049922F08A
:2024C0009BFB0746029B9869069922F095FB06463846394622F09AFC04463046314622F000
:2024E00095FC0146204622F089FB21F0FBFF04460D461FF00BFF22F02BFB81460C4922F0E1
:2025000023FE48B948464FF0844122F03BFE98B9484621F0E7FF11E0002006490EE000BFD9
:20252000E055002074A4020000EDFF1F182C00200000A040000014400020AC4922F008FB5F
:202540008146204629461FF0E1FE22F001FB002122F0F0FD38BB204629461FF0D7FE22F005
:20256000F7FA21F0BFFF02460B460020A04922F037F904460D46384621F0B4FF02460B463F
:202580002046294622F002F822F0E2FA0746304621F0A8FF02460B462046294621F0F6FF7D
:2025A00022F0D6FA0646029A1069D16822F02EFC01460C9822F02AFC04464846494622F0C7
:2025C00025FC0146204622F0D5FC21F08BFF04460D46384621F086FF02460B462046294690
:2025E00021F0D4FF22F0B4FA0146089822F006FB0746304621F076FF02460B462046294686
:2026000021F0C4FF22F0A4FA01460F9822F0F6FA08900D98394622F0F1FA81460E9808997F
:2026200022F0ECFA06464846494622F0EFFB04463046314622F0EAFB0146204622F0DEFA78
:2026400004460998014622F0E1FB0146204622F099FD002851D0204621F044FF04460D4665
:202660001FF054FE22F074FA002122F063FD38BB204629461FF04AFE22F06AFA21F032FF0F
:2026800002460B4600205A4922F0AAF804460D46484621F027FF02460B462046294621F049
:2026A00075FF22F055FA8146304621F01BFF02460B462046294621F069FF22F049FA064655
:2026C000099821F00FFF04460D46484621F00AFF02460B462046294621F058FF22F038FADB
:2026E0008146304621F0FEFE02460B462046294621F04CFF22F02CFA06460498494622F005
:202700007DFA05460698314622F078FA0446384621F0E8FE0022002321F038FFCDE9040157
:20272000089821F0DFFE0022002321F02FFFCDE90601304991F8083C009315A801F60941F3
:202740000B9AFF2317F0AEFD9DF855209DF856309DF854108DF850108DF851208DF8523000
:20276000284622F019FD07B2204622F015FD02B22148394614AB15F08DFF204F4AF807508C
:20278000039B5C6007EB0A04C4F80890E660DDE9040122F0DDF9206110375744DDE9060162
:2027A00022F0D6F97860109ACBF81820099BCBF81C30119ACBF82020129BCBF824300B9AF1
:2027C0008BF828200C9BCBF82C30139A8BF830200A9B01330A930AF1340A08F13408029A68
:2027E00093680A9A93423FF73BAE0EE0000040400000F03F00EDFF1FB8AAFF1F182C0020BA
:2028000003F03F0103F00F03F1E50F2017B0BDE8F08F00BF2DE9F04784B000233C4DAA20DA
:202820002968CA18CC5C00FB04F42412CC54517800FB01F109125170917800FB01F1091211
:2028400091700333B3F5406FEAD1002620253446DFF8C8902E4F07F60948FF2D9ABF2902A0
:2028600089B22946D9F800304FF48C7202FB03F201FB02F2120ED3B213F0400F3ED0DB4367
:20288000DBB203F03F0103F00F03013321480911490000EB010E9EF801A003FB0AF3415CAA
:2028A00001EB2313DBB212F0800F18BF5B425FFA83FA97F8083C009303A841463246FF235C
:2028C00017F0F0FC9DF80D209DF80E309DF80C108DF808108DF809208DF80A308AF08002B9
:2028E0000D4821B2D20802AB15F0D4FE01340135ADB20736F6B2202CAFD104E003F03F01C0
:2029000003F00F03C2E70F2004B0BDE8F08700BF00EDFF1F74A40200B8AAFF1FE055002051
:202920002DE9F04F85B005460023454EAA243168CA18C85C04FB00F00012C854517804FBBA
:2029400001F109125170917804FB01F1091291700333B3F5406FEAD120260024DFF8F0A07A
:20296000DFF8F0B0DFF8D88008F609492246002CB8BFE21CC2F38702062A28BF06225AF889
:202980002230A97A09B15BF82230FF2E9ABF300280B230462B4A12684FF48C7101FB02F1E5
:2029A00000FB01F1090ECAB212F0400F40D0D243D2B202F03F0002F00F020132224F0011B4
:2029C000400007EB000E9EF801E002FB0EF2385C00EB2212D2B211F0800F18BF5242D7B288
:2029E0001A46002BB8BFDA1C98F8083C009303A84946C2F38702FF2317F054FC9DF80D20C5
:202A00009DF80E309DF80C108DF808108DF809208DF80A3087F080020C4821B2D20802AB81
:202A200015F038FE01340136B6B2202C05D09DE702F03F0002F00F02C0E705B0BDE8F08F2E
:202A400000EDFF1FE055002074A40200B8AAFF1FE4ECFF1F20FAFF1F2DE9F041B8B004465D
:202A6000B14B1B78002B00F05B814369002B40F3578100F11C06304619F074F910B13046B8
:202A800019F064F9A26925696369002D7ADB9D4278DA08A8A549012319F0DEFA08A819F05C
:202AA00061F900286BD010A808A9012219F07CFB9F4F5AE010A819F049F956E010A819F02B
:202AC00003F9014603785F2B2AD07E2B28D02E2B26D034A81DF046FF34A81EF091F80146DC
:202AE00004A81DF07BFF34A81DF0F0FE30A839461DF038FF04A830A91EF026F8804630A8E2
:202B00001DF0E4FE04A81DF0E1FEB8F1010F07D1013D10A819F0D8F80146684623F048FB83
:202B200010A819F013F928A808A9012219F03CFB9DF8A4308DF844302A9B12939DF8AC30A7
:202B40008DF84C3038AB53F8330D59689A68CDF84D00CDF85110CDF855201B7B8DF859302D
:202B60002F9B179328A819F0A9F810A819F0FAF8002800F09680002D80F2A08091E008A8A6
:202B800019F09CF804F141052846A16923F010FB2846694623F05EF920A864492A46012337
:202BA00019F05AFA9DF8843084F82030229B63629DF88C3084F8283038AB53F8535D58685E
:202BC0009968C4F82950C4F82D00C4F831101B7B84F83530279BA36320A819F06FF83046EC
:202BE00019F0C0F8002800F09B8094F820E08DF864E0676A1A9794F828008DF86C004D4BCD
:202C00001893234653F8295F59689A68CDF86D50CDF87110CDF87520197B8DF87910A26B39
:202C20001F92454D85F864E9C5F8687985F86C09DDF86DE0DDF87170DDF87500C5F86DE9C2
:202C4000C5F87179C5F8750985F87919C5F87C2918A819F033F80023237205F5166010A94C
:202C6000062219F03DF810A83449062223F02EFB78B310A83249062223F028FB48B324E09A
:202C800003F007030133012202FA03F32A498B6503EB430201F516605C3192B219F020F8FA
:202CA0003EE010A819F052F808A819F04FF810A819F004F808A819F001F863E710A819F071
:202CC00005F800287FF4F6AEF8E6304619F03EF826E0194C04F51665284618F079FF06460C
:202CE000284618F075FF46EA00202060284618F06FFF0646284618F06BFF46EA00206060FA
:202D0000284618F065FFA060284618F061FF2061284618F05DFFE060A36813F0800FAFD153
:202D200038B0BDE8F08100BF00A0FF1F44520020B8A4020048EB0200BCAAFF1FC0A40200E5
:202D4000C8A40200FFFFFFFF2DE9F04F89B0814600238B4DBE202968CA18CC5C00FB04F44D
:202D60002412CC54517800FB01F109125170917800FB01F1091291700333B3F5406FEAD111
:202D8000D9F81C004FF0824122F040F822F02AFAC2B27B4B93F8083C009305A87949FF2397
:202DA00017F080FAD9F80880D9F80C0021F09AFB04460D464046D9F81C1021F01FFF21F056
:202DC00091FB6DA3D3E9002321F0E0FB21F0C0FE21F088FB06460F461FF008F802460B46E0
:202DE0002046294621F0D2FB0022674B21F01CFA21F066FE0290304639461FF0C1F8024619
:202E00000B462046294621F0C1FB02460B4600205D4921F007FA21F053FE0390DFF870B161
:202E2000D9F80C0021F05EFB04460D46404621F059FB51A3D3E9002321F0A8FB21F088FEA5
:202E400021F050FB06460F461EF0D0FF02460B462046294621F09AFB00224B4B21F0E4F9DE
:202E600021F02EFE8246304639461FF089F802460B462046294621F089FB02460B4600200C
:202E8000414921F0CFF921F01BFE06469DF815209DF816309DF814108DF818108DF8192090
:202EA0008DF81A300FFA8AF405B2584621462A4606AB15F0EFFB9DF815209DF816309DF8B6
:202EC00014108DF81C108DF81D208DF81E3058462946224607AB15F0DDFB40464FF07E51F0
:202EE00021F08CFE8046294922F042F908B14FF00008029B9A4593D1039B9E4290D1D9F822
:202F00001C402046D9F8081021F078FE05461F4922F02EF910B9C9F8085029E00023C9F8C4
:202F20000830D9F820502046294621F067FE0446C9F81C00D9F81060314622F00FF930B1F3
:202F4000C9F81C6005F10045C9F8205010E0D9F818602046314622F015F948B130462946B4
:202F600021F04AFEC9F81C0005F10045C9F82050002009B0BDE8F08F399D52A246DF913FF3
:202F800000EDFF1F09F9FF1F000030400000B443B8AAFF1FAFF3008038B504460D46084625
:202FA00023F064F9024623685B68204629469847054620461DF0BCFB284438BD30B589B063
:202FC000054600238DF804305A4B009302914FF0FF330393584869461BF07AFD04460028B5
:202FE00000F0A58054482146544A1BF0D9FD0346027C042A04D105F10F00996923F0D8F886
:203000004D4821464E4A1BF0CBFD037C022B04D1836985F8733001232B7147482146494A73
:203020001BF0BEFD037C022B04D1836985F8743001232B7140482146434A1BF0B1FD037CC8
:20304000022B04D1836985F8753001232B713A4821463E4A1BF0A4FD037C022B04BF836928
:20306000AB67354821463A4A1BF09AFD037C022B04BF8369EB6730482146364A1BF090FD90
:203080000346027C042A04D105F1800099691DF0B9FC29482146304A1BF082FD037C022BA4
:2030A00004BF836985F89030234821462B4A1BF077FD0346027C042A33D104A899691DF0AA
:2030C00051FC04A826491DF0FDFCE0B904A825491DF0F8FCC8B904A823491DF0F3FCB0B9D0
:2030E00004A822491DF0EEFC98B904A820491DF0E9FC80B904A81F491DF0E4FC00280CBF3D
:203100000523042308E0052306E0002304E0012302E0022300E0032385F8913004A81DF03B
:20312000D5FB054821461BF0ABF9012000E0002009B030BDC0EB02004C550020D0A40200B1
:20314000D8A40200DCA40200E4A40200ECA40200F0A40200F8A4020000A5020008A50200C9
:2031600010A5020024A5020030A5020040A5020050A5020058A5020010B500F18004204679
:2031800013491DF09FFCC8B9204612491DF09AFCB0B9204610491DF095FC98B920460F4971
:2031A0001DF090FC80B920460D491DF08BFC68B920460C491DF086FC052010BD002010BDA3
:2031C000012010BD022010BD032010BD042010BD5CA5020064A502006CA5020078A50200F1
:2031E00084A5020090A5020010B50C46084615491DF068FCE0B9204613491DF063FCC8B9F1
:20320000204612491DF05EFCB0B9204610491DF059FC98B920460F491DF054FC80B92046F1
:203220000D491DF04FFC00280CBF0520042010BD052010BD002010BD012010BD022010BD1B
:20324000032010BD10A5020024A5020030A5020040A5020050A5020058A502002DE9F04101
:20326000D8B007460D469E4E04AC9AE12B798DF81430AB6806932B7B8DF81C3004962B4674
:2032800053F80D0F59689A68CDF81D00CDF82110CDF825201B7B8DF82930EB690B9368460E
:2032A00000211DF05FFB08E0204618F091FC0FE00A290DD068461DF0D9FB204618F032FD78
:2032C00030B1204618F084FCC1B20D29F0D1EBE7204618F0F3FC0CA882491DF043FB68460E
:2032E0000CA91DF025FC80460CA81DF0EFFAB8F1000F13D010A8694605221DF079FC684622
:2033000010A91DF077FB10A81DF0E0FA684607F10F01642200231DF02FFC3FE114A87249A8
:203320001DF020FB684614A91DF002FC804614A81DF0CCFAB8F1000F17D018A86946042266
:203340001DF056FC684618A91DF054FB18A81DF0BDFA029B002B00F0218168461DF060FC4E
:2033600087F8730001233B7118E11CA85F491DF0F9FA68461CA91DF0DBFB80461CA81DF039
:20338000A5FAB8F1000F17D020A8694606221DF02FFC684620A91DF02DFB20A81DF096FA07
:2033A000029B002B00F0FA8068461DF039FC87F8740001233B71F1E024A84D491DF0D2FA1C
:2033C000684624A91DF0B4FB804624A81DF07EFAB8F1000F17D028A8694605221DF008FC49
:2033E000684628A91DF006FB28A81DF06FFA029B002B00F0D38068461DF012FC87F8750032
:2034000001233B71CAE02CA83A491DF0ABFA68462CA91DF08DFB80462CA81DF057FAB8F170
:20342000000F14D030A8694604221DF0E1FB684630A91DF0DFFA30A81DF048FA029B002BA7
:2034400000F0AC8068461DF0EBFBB867A6E034A829491DF087FA684634A91DF069FB80466C
:2034600034A81DF033FAB8F1000F14D038A8694605221DF0BDFB684638A91DF0BBFA38A8EE
:203480001DF024FA029B002B00F0888068461DF0C7FBF86782E03CA818491DF063FA6846A6
:2034A0003CA91DF045FB80463CA81DF00FFAB8F1000F25D040A8694605221DF099FB684660
:2034C00040A91DF097FA40A81DF000FA029B002B64D007F1800069461DF076FA5EE000BFD9
:2034E00048EB02009CA50200A4A50200ACA50200B4A50200BCA50200C4A50200CCA502001A
:2035000044A82D491DF02EFA684644A91DF010FB804644A81DF0DAF9B8F1000F14D048A843
:20352000694606221DF064FB684648A91DF062FA48A81DF0CBF9029B002B2FD068461DF0FD
:203540006FFB87F8900029E04CA81C491DF00AFA68464CA91DF0ECFA80464CA81DF0B6F973
:20356000B8F1000F1AD050A8694605221DF040FB684650A91DF03EFA50A81DF0A7F9029B65
:2035800063B154A869461DF029FA384654A9FFF72BFE87F8910054A81DF098F968461DF03D
:2035A00095F92B689B682846984700283FF75EAE58B0BDE8F08100BFD4A50200DCA5020055
:2035C0002DE9F041FCB00446A64B1B78002B00F07D818368013383604279934204DB4FF061
:2035E000FF33836000258EE1417B8B4205DA9E4B6D460FCB07C52B708FE00268007B5D1A12
:2036000000F18B80854280F288800CA89749012318F022FD0CA818F0A5FB00287AD014A804
:203620000CA9012218F0C0FD914E924F68E014A818F08CFB64E014A818F046FB014603788F
:203640005F2B38D07E2B36D02E2B34D070A81DF089F970A81DF0D4FA014608A81DF0BEF977
:2036600070A81DF033F96CA831461DF07BF908A86CA91DF069FA012800F03E8168A8394651
:203680001DF070F908A868A91DF05EFA804668A81DF01CF96CA81DF019F908A81DF016F997
:2036A000B8F1010F07D1013D14A818F00DFB0146684622F07DFD14A818F048FB60A80CA92A
:2036C000012218F071FD9DF884318DF85430629B16939DF88C318DF85C307CAA52F8630D15
:2036E00051689368CDF85D00CDF86110CDF86530137B8DF86930679B1B9360A818F0DEFA20
:2037000014A818F02FFB002800F0E280002D80F2EC80DDE00CA818F0D1FA14A8216822F09B
:2037200047FD14A8694622F095FB0CA84F4914AA012318F091FC0CA818F014FB054620B986
:203740002046FFF73DFF0546BCE004F10F070026E67384F8736084F8746084F8756001234C
:20376000A367E36704F1800005211DF05DF9182384F8903084F89160267154A869461DF0C4
:20378000F1F854A81DF03CFA014604A81DF026F954A81DF09BF804A837491DF093F9002859
:2037A0004CD0A368B3427DDBDFF8D0809DF834308DF8D4310E9B76939DF83C308DF8DC31A6
:2037C000CDF8D081DDF83D10DDF84120DDF84530CDF8DD11CDF8E121CDF8E5319DF84930CE
:2037E0008DF8E931139B7B9308A800211DF0BAF808E074A818F0ECF90FE00A290DD008A83E
:203800001DF034F974A818F08DFA30B174A818F0DFF9C1B20D29F0D1EBE774A818F04EFA3E
:2038200008A839460A9A00231DF0A6F9013608A81DF04CF8A3689E42B8DD33E058A80C49C6
:203840001DF090F804A858A91DF07EF9064658A81DF03CF8012E13D120460CA9FFF7FEFCF7
:2038600020E000BF00A0FF1FF8A5020044520020F0A50200E4A50200E8A5020048EB020090
:203880005CA823491DF06EF804A85CA91DF05CF906465CA81DF01AF8012E03D120460CA9A5
:2038A000FFF78CFB23793BB91A4B33F8042F9B78A4F8732084F875300CA818F047FA04A82C
:2038C0001DF004F80CA818F0F9F91CE000251AE014A818F03BFA0CA818F038FA14A818F06B
:2038E000EDF90CA818F0EAF917E714A818F0EEF900287FF49CAE9EE66CA81CF0E7FF08A87B
:203900001CF0E4FFCFE628467CB0BDE8F08100BFE4A5020050A2020070B506460D4B1878BC
:2039200021F020FA0146304621F018FC68B9094D012415F8010F21F015FA314621F018FC05
:2039400030B901340C2CF4D101E0002400E00024204670BDB495FF1F10B50446002121F008
:20396000F3FB28B92046054921F00CFC10B902E0024C00E00024204610BD00BF00007F43FA
:2039800010B5054C207821F0E9F9FFF7E5FF21F029FC207010BD00BFF42B002010B50C4604
:2039A000FFF7BAFF001903D40C28A8BF002000E00B20034B185C21F0D1F9FFF7CDFF10BD76
:2039C000B495FF1F08B5002001211BF0A5FE012001461BF0A1FE002001461BF06BFE0120C5
:2039E00001461BF067FE08BD2DE9F84F00257E4B1D70284601211BF05DFE284629461BF095
:203A000059FE2C460126DFF81882784F304600211BF050FE4FF42073013B7FF4FDAF282015
:203A20001BF0C6FA54F80830184420EAE073E3519D42B8BF1D46304631461BF03BFE043428
:203A40001C2CE3D16A4B187818B121F087F9814656E0684B187805FB00F5674B1B889D4262
:203A600020DB664B9B7883421CD8654B1A68654B1B6813B9634B1A603DE0634909880B44CC
:203A8000934238D221F06AF94FF0FF31FFF786FF21F0A8FB574B187000235A4A13605B4A2C
:203AA000136028E05A4B1B889D421FDC534BDB7A83421BD9524B1A68544B1B6813B9534B12
:203AC0001A6018E0534909880B44934213D221F045F90121FFF762FF21F084FB454B1870CE
:203AE00000234A4A1360474A136004E00023474A1360444A13603F4B187821F02FF9814672
:203B0000454BD3F800A0384B1D780024374E40F2FF38424FA346A05921F024F9494621F03F
:203B200075F921F039FB20EAE0704045A8BF4046A051E359984201DBE05107E0002B05DDFE
:203B4000B3EB0A0354BFE35144F807B0C128A8BF012504341C2CDED1234B1D7000252C4649
:203B6000DFF8C0A0DFF8C0B0DFF8B080204621F0F9F8514621F04AF9074621F00DFB0646BB
:203B800021F0F0F80146384621F036F807460E2C1FDC4FF07E50394621F02EF8814658F8CC
:203BA000260021F0DFF80146484621F02FF98146013658F8260021F0D5F8394621F026F9E8
:203BC0000146484621F01AF821F0E6FA4BF8050003E058F8263045F80B3001340435102C09
:203BE000C4D1BDE8F88F00BF48FAFF1FE4ECFF1FF42B00203CFAFF1F9095FF1FB495FF1FBA
:203C0000E0550020B4AAFF1F7495FF1FFC9FFF1FE895FF1FF095FF1FA495FF1F20FAFF1F26
:203C20005CFBFF1FCDCCCC3E7CFBFF1F10B50446FFF7DAFE04F51E54206803689B689847BA
:203C400010BD00BF10B50446FFF7CEFE0822084B1A60606910F0010F01D1236903E04310A3
:203C6000E2582369D35804EB60009847002010BDA495FF1F70B4FF289CBF000280B21D4C9E
:203C800025689DF80C404034EB1A4FF48C7505FB03F300FB03F304EB1363DBB213F0400FCE
:203CA00021D0DD43EDB205F03F0005F00F050135114C001140002618767805FB06F5205C90
:203CC00000EB2515EDB213F0800F0EBFEBB26B42DBB283F08003501AC0B200FB03F001EB3E
:203CE0002021C8B204E003F03F0003F00F05DFE770BC7047E055002074A402002DE9F04F7F
:203D000085B05F4B1B684FF40C3202FB03F2120ED3B213F0400F00F0A580DB43DBB203F024
:203D20003F0103F00F0301335648091149004418647803FB04F3415C01EB2313DBB212F08E
:203D4000800F18BF5B42DBB283F0800303EB830398111A38C0B200234B4D2968CA18CC5CA6
:203D600000FB04F42412CC54517801FB00F109125170917801FB00F1091291700333B3F578
:203D8000406FEAD14FF004081E2400270E25DFF8F89009F6094BDFF8E8A099F8083C009359
:203DA00002A859463A46FF2316F07CFAEEB2C6F120020023009320463146D2B2FFF75AFFBD
:203DC0000146FF2C9ABF200280B22046DAF800304FF48C7202FB03F200FB02F2120ED3B295
:203DE00013F0400F43D0DB43DBB203F03F0E03F00F03581C234B4FEA2E1E4FEA4E0E03EB84
:203E00000E0C9CF801C000FB0CF013F80EE00EEB2013DBB212F0800F18BF5B42DBB29DF863
:203E200009009DF80A209DF808E08DF80CE08DF80D008DF80E2083F0800308FB03F306EBA7
:203E40002322124809B2D2B203AB14F023FC013D0E37FFB2023CA4B208F10208B5F1FF3F04
:203E60009BD109E003F03F0103F00F035CE703F03F0E03F00F00BDE7002005B0BDE8F08F93
:203E8000E055002074A4020000EDFF1FB8AAFF1F2DE9F04F89B0904B1B684FF40C3202FBBE
:203EA00003F2120ED3B213F0400F00F00181DB43DBB203F03F0103F00F03013387480911A4
:203EC00049004418647803FB04F3415C01EB2313DBB212F0800F18BF5B42DBB283F0800398
:203EE00003EB830318115638C0B200237C4D2968CA18CC5C00FB04F42412CC54517801FB90
:203F000000F109125170917801FB00F1091291700333B3F5406FEAD1022740244FF00008A6
:203F2000C1462025DFF8B8B10BF6094103915FFA89F60F2E4ED800230093384631462A46C0
:203F4000FFF798FE8246FF2F9ABF390289B23946614A13684FF48C7202FB03F201FB02F248
:203F6000120ED3B213F0400F00F0A780DB43DBB203F03F0103F00F03013358480911490019
:203F800000EB010E9EF801E003FB0EF3415C01EB2313DBB212F0800F0EBFDAB25A42D2B25B
:203FA00082F08002A4F12003DBB203FB02F306EB2326F6B29BF8083C009305A803994246B8
:203FC000FF2316F06FF99DF814109DF815209DF8163050E00136F2B2FF2C9ABF200280B210
:203FE00020463D490B684FF48C7101FB03F100FB01F1090ECBB213F0400F63D0DB43DBB281
:2040000003F03F0003F00F030133344E0011400006EB000E9EF801E003FB0EF3305C00EB76
:204020002313DBB211F0800F18BF5B42DBB283F08003C4F1210A5FFA8AFA0AFB03FA05EB87
:204040002A2A5FFA8AFA0023009320462946FFF711FE0646C8F1B2029BF8083C009306A8CE
:204060000399D2B2FF2316F01DF99DF818109DF819209DF81A308DF81C108DF81D208DF880
:204080001E3018480FFA8AF132B207AB14F002FB013D09F1010908F10E085FFA88F8023CEF
:2040A000A4B20237BFB215F0FF057FF440AF0EE003F03F0103F00F0300E703F03F0103F062
:2040C0000F035AE703F03F0003F00F039DE7002009B0BDE8F08F00BFE055002074A40200A7
:2040E00000EDFF1FB8AAFF1F2DE9F04F87B003908E4B1B684FF40C3202FB03F2120ED3B2A2
:2041000013F0400F00F00081DB43DBB203F03F0103F00F030133864809114900441864785C
:2041200003FB04F3415C01EB2313DBB212F0800F18BF5B42DBB283F0800303EB8303181119
:204140005638C0B200237B4D2968CA18CC5C00FB04F42412CC54517801FB00F109125170FE
:20416000917801FB00F1091291700333B3F5406FEAD14FF002081F2640240025DFF8B091B6
:20418000EFB20F2F42D80023009340463946F2B2FFF770FD8246B8F1FF0F9ABF4FEA08212A
:2041A00089B24146614A13684FF48C7202FB03F201FB02F2120ED3B213F0400F00F0A980E4
:2041C000DB43DBB203F03F0103F00F0301330911490009EB0100407803FB00F319F80110A5
:2041E00001EB2313DBB212F0800F18BF5B42DBB283F08003A4F1210B5FFA8BFB0BFB03FBE4
:2042000007EB2B2B5FFA8BFB7F0842E0F1B2FF2C9ABF200280B22046444A13684FF48C72A3
:2042200002FB03F200FB02F2120ED3B213F0400F74D0DB43DBB203F03F0003F00F0301334C
:204240000011400009EB000E9EF801E003FB0EF319F8000000EB2313DBB212F0800F18BF6E
:204260005B42DBB283F08003C4F1210A5FFA8AFA0AFB03FA01EB2A2A5FFA8AFA002300938C
:2042800020463A46FFF7F6FC834606EBD677C7F34707062F28BF0627274B53F82730039948
:2042A0008A7A12B1254B53F827301A46002BB8BFDA1C204991F8083C009304A801F6094177
:2042C000C2F38702FF2315F0EDFF9DF811209DF812309DF810108DF814108DF815208DF853
:2042E000163017480FFA8AF10FFA8BF205AB14F0D1F90135023CA4B2013E08F102081FFA6C
:2043000088F8202D0FD03BE703F03F0103F00F0301E703F03F0103F00F0358E703F03F0006
:2043200003F00F038CE707B0BDE8F08FE055002074A4020000EDFF1FE4ECFF1F20FAFF1F8A
:20434000B8AAFF1F2DE9F04F85B08246654B1B684FF40C3202FB03F2120ED3B213F0400FEE
:2043600000F0B380DB43DBB203F03F0103F00F0301335D48091149004418647803FB04F3CE
:20438000415C01EB2313DBB212F0800F18BF5B42DBB283F0800303EB830398111A38C0B268
:2043A0000023524D2968CA18CC5C00FB04F42412CC54517801FB00F109125170917801FBC0
:2043C00000F1091291700333B3F5406FEAD120250024DFF8189109F6094B04EBD473C3F360
:2043E0004703062B28BF0623414A52F823609AF80A2012B13F4A52F82360E3B2C3F11007A5
:20440000FFB203F110020023009328463946D2B2FFF730FC8046FF2D9ABF290289B229467C
:20442000304B1B684FF48C7202FB03F201FB02F2120ED3B213F0400F4CD0DB43DBB203F0AA
:204440003F0103F00F03013327480911490000EB010E9EF801E003FB0EF3415C01EB2313E2
:20446000DBB212F0800F18BF5B42DBB283F08003620002FB03F307EB2327FFB23246002E3F
:20448000B8BFF21C99F8083C009302A85946C2F38702FF2315F006FF9DF809209DF80A30EF
:2044A0009DF808108DF80C108DF80D208DF80E3011480FFA88F13A4603AB14F0EBF8013414
:2044C000023DADB2102C0AD087E703F03F0103F00F034EE703F03F0103F00F03B4E705B0C5
:2044E000BDE8F08FE055002074A4020000EDFF1FE4ECFF1F20FAFF1FB8AAFF1FFFFFFFFF7C
:204500002DE9F04F95B08346A34B1B684FF40C3202FB03F2120ED3B213F0400F00F0E28209
:20452000DB43DBB203F03F0103F00F0301339B48091149004418647803FB04F3415C01EB68
:204540002313DBB212F0800F18BF5B42DBB283F08003F52202FB03F31B120A33904A10684A
:2045600020210A46DBB215F08FFE8B4B1B684FF40C3202FB03F2120ED3B213F0400F00F0D8
:20458000B682DB43DBB203F03F0103F00F0301338248091149004418647803FB04F3415CD5
:2045A00001EB2313DBB212F0800F18BF5B42DBB283F0800303EB83035B116433DBB2CBF8FD
:2045C0002830754B1B684FF4523202FB03F2120ED3B213F0400F00F08F82DB43DBB203F0F1
:2045E0003F0103F00F0301336C48091149004418647803FB04F3415C01EB2313DBB212F0B0
:20460000800F18BF5B42DBB283F0800303EBC30318120130C0B220F0A5FB624920F0AAFC82
:20462000CBF8140000230093052001210A22FFF721FB20F097FB5B4920F09CFC0546CBF86C
:204640001C00DBF81000DBF8141020F0D7FA0446CBF810002846DBF8181020F0CFFA0646D8
:20466000CBF8180020461FF03DFF04460D4648A3D3E9002320F010FA50B12046294644A370
:20468000D3E900231FF0CEFD20F062FACBF8100030461FF027FF04460D463DA3D3E900231B
:2046A00020F0FAF950B12046294639A3D3E900231FF0B8FD20F04CFACBF81800DBF810008E
:2046C0001FF010FF04460D461DF090FB20F040FA0490204629461DF053FC20F039FA0646E9
:2046E000DBF818001FF0FEFE04460D461DF07EFB20F02EFA0590204629461DF041FC20F0A5
:2047000027FA04460599CBF898120023CBF89C3200F1004306930699CBF8A01230462146B1
:2047200020F074FB0790CBF8A402049BCBF8A8323046059920F06AFB0890CBF8AC02049890
:20474000214620F063FB0990CBF8B00206F100460A960A99CBF8B4120498059920F056FBD2
:204760000B90CBF8B802DBF8280020F0FBFA0C90DBF820300D93DBF808100391DBF824301C
:204780000E935D465C464FF00009CDF83CB00BE0182D4454FB211940E055002074A402008E
:2047A00000EDFF1F0000C842D4F82C80276B666B0598414620F02AFB82463846002120F039
:2047C00025FB0146504620F019FA82460698314620F01CFB0146504620F010FA8246C4F83A
:2047E0008C000798414620F011FB83460498394620F00CFB0146584620F000FA8346089898
:20480000314620F003FB0146584620F0F7F9C4F890000998414620F0F9FA80460A983946D0
:2048200020F0F4FA0146404620F0E8F907460B98314620F0EBFA0146384620F0DFF90C990E
:2048400020F0DCF90646C4F894000398514620F0DDFA314620F08EFB01460D9820F0CEF9EB
:204860001FF040FE1DF0FCFA20F072F9C5F8EC000398D4F8901020F0C9FA314620F07AFBEE
:2048800001460E9820F0B8F91FF02CFE1DF0E8FA20F05EF9C5F8F00009F101090C340835AD
:2048A000B9F1080F80D1DDF83CB0002319460BEB030282F80C120C33902BF8D10BF1D80178
:2048C00004915C460125D4F830211D320BEBC202D4F834311D330BEBC303191D0391D4F882
:2048E00038711D370BEBC7075668D2F808805868314620F081F98146B868414620F07CF933
:204900000146484620F082FA8146039B5868414620F072F980467868314620F06DF9014635
:20492000404620F073FA0146484620F065F9002120F00AFCF8B9D4F8403103EB43030BEBE2
:20494000830383F80C52D4F8443103EB43030BEB830383F80C52D4F8483103EB43030BEBBF
:20496000830383F80C52D4F84C3103EB43030BEB830383F80C52243404998C42A3D1634923
:204980009BF8BC2291F8083C009310A801F60941802315F087FC0BF190055C46DFF870A107
:2049A00094F80C32A3BBD4F804620BEBC606D6F8EC0020F0F1FB1FFA80F8D6F8F00020F0C6
:2049C000EBFB1FFA80F9D4F808620BEBC606D6F8EC0020F0E1FB87B2D6F8F00020F0DCFBE3
:2049E0009DF841209DF842309DF840108DF844108DF845208DF8463000B2009011AB019385
:204A000050460FFA88F10FFA89F23BB213F08EFF0C34AC42C4D13D499BF8BC2291F8083CF6
:204A2000009312A801F60941FF2315F03BFC9DF848308DF840309DF849308DF841309DF8EF
:204A40004A308DF842305C46DFF8C4A094F80C32A3B3D4F804620BEBC606D6F8EC0020F02A
:204A60009BFB1FFA80F8D6F8F00020F095FB1FFA80F9D4F808620BEBC606D6F8EC0020F05D
:204A80008BFB87B2D6F8F00020F086FB9DF841209DF842309DF840108DF84C108DF84D2053
:204AA0008DF84E3000B2009013A9019150460FFA88F10FFA89F23BB213F038FF0C34A54279
:204AC000C4D1DBF8C0320133082B02D0CBF8C03217E00023CBF8C0329BF8BC3201338BF887
:204AE000BC320EE003F03F0103F00F031FE503F03F0103F00F034BE503F03F0103F00F03FE
:204B000072E5142015B0BDE8F08F00BF00EDFF1FB8AAFF1FAFF3008070B410F0400F21D051
:204B2000C543EDB205F03F0305F00F050135114C1B115B00E618767805FB06F5E35C03EB60
:204B40002515EDB210F0800F0EBFEBB26B42DBB283F08003501AC0B200FB03F001EB20215C
:204B6000C8B204E000F03F0300F00F05DFE770BC704700BF74A4020070B44030C3B213F013
:204B8000400F21D0DD43EDB205F03F0005F00F050135114C001140002618767805FB06F5CE
:204BA000205C00EB2515EDB213F0800F0EBFEBB26B42DBB283F08003501AC0B200FB03F0BF
:204BC00001EB2021C8B204E003F03F0003F00F05DFE770BC704700BF74A40200F0B5A1B099
:204BE0000446C0F8041C092903DD0023C0F8043C14E0002903DA0923C0F8043CFFE0092937
:204C000000F20B81DFE811F00A001F00340049005E0073009A00AF00C400FB00804923469D
:204C200001F1400551F8042F100C83F8390C100A83F83A0C83F83B2C0333A942F2D1794B80
:204C4000C4F86C3CE9E07849034601F1400551F8042F100C83F8390C100A83F83A0C83F838
:204C60003B2C0333A942F2D1704BC4F86C3CD4E06F49034601F1400551F8042F100C83F8CB
:204C8000390C100A83F83A0C83F83B2C0333A942F2D1684BC4F86C3CBFE06749034601F18D
:204CA000400551F8042F100C83F8390C100A83F83A0C83F83B2C0333A942F2D15F4BC4F850
:204CC0006C3CAAE05E49034601F1400551F8042F100C83F8390C100A83F83A0C83F83B2C66
:204CE0000333A942F2D1574BC4F86C3C95E000238DF80C308DF80D308DF80E30FF238DF845
:204D000008308DF809308DF80A3004A8102103AA02AB15F03FF904AF04F639450DF1400CF5
:204D20003E460FCE28606960AA60EB60374610356645F5D1444BC4F86C3C6EE04349034623
:204D400001F1400551F8042F100C83F8390C100A83F83A0C83F83B2C0333A942F2D13C4B9C
:204D6000C4F86C3C59E03B49034601F1400551F8042F100C83F8390C100A83F83A0C83F8E4
:204D80003B2C0333A942F2D1334BC4F86C3C44E000228DF84C208DF84D208DF84E208DF845
:204DA00048208DF84920FF238DF84A308DF844208DF845308DF846308DF840308DF84130B3
:204DC0008DF8423011AB009310AB019314A8102113AA12AB15F0FCF814AF04F639450DF1A5
:204DE000800C3E460FCE28606960AA60EB60374610356645F5D1194BC4F86C3C0DE0002018
:204E000009211BF059FD01462046FFF7E7FE0923C4F8043C124BC4F86C3C21B0F0BD00BF59
:204E2000B8E8020008A6020078E8020010A6020078E9020018A60200F8E9020020A6020038
:204E400038E9020028A6020030A60200B8E9020038A60200F8E8020040A6020048A602004A
:204E60004CA6020038B504460D4642F27C73C3580B44232B04DD002242F27C73C25009E0B8
:204E8000002B03DB42F27C72835003E0232242F27C73C250174BD3F8043C092B03D11548E5
:204EA0000921FFF79BFE04F51E53186810B103681B69984742F27C73E35803F51E6304EBFA
:204EC0008303586804F51E53186010B10368DB689847094B1B785BB904F51E5204F164039C
:204EE00012689A4204D123689B6920462946984738BD00BF00EDFF1FAC28002010B5044682
:204F0000D0F8A8321944262903DD0023C0F8A83206E00029AEBFC0F8A8122623C0F8A832E5
:204F20000A4BD3F8043C092B03D108480921FFF755FED4F8A832DA1C04F1100304EBC204ED
:204F400094E8030083E8030010BD00BF00EDFF1F10B50446D0F8A8321944262903DD00236D
:204F6000C0F8A83206E00029AEBFC0F8A8122623C0F8A8320A4BD3F8043C092B03D108481E
:204F80000921FFF72BFED4F8A83203F12A0204F1100304EBC20494E8030083E8030010BD8B
:204FA00000EDFF1F70B504460E4642F27C73C3580B44232B04DD002242F27C73C25009E027
:204FC000002B03DB42F27C72835003E0232242F27C73C250184BD3F8043C092B03D11648A2
:204FE0000921FFF7FBFD42F27C73E55804F51E53186810B103681B69984742F27C73E55068
:2050000005F6042504EB8505686804F51E53186010B10368DB689847084B1B785BB904F500
:205020001E5204F1640312689A4204D123685B6920463146984770BD00EDFF1FAC28002042
:2050400038B505460C46084631491BF03BFD20B128460021FFF7C2FD38BD20462D491BF0CA
:2050600031FD20B128460121FFF7B8FD38BD204629491BF027FD20B128460221FFF7AEFDF7
:2050800038BD204625491BF01DFD20B128460321FFF7A4FD38BD204621491BF013FD20B177
:2050A00028460421FFF79AFD38BD20461D491BF009FD20B128460521FFF790FD38BD2046BB
:2050C00019491BF0FFFC20B128460621FFF786FD38BD204615491BF0F5FC20B1284607216D
:2050E000FFF77CFD38BD204611491BF0EBFC20B128460821FFF772FD38BD20460D491BF011
:20510000E1FC18B128460921FFF768FD38BD00BF08A6020010A6020018A6020020A6020052
:2051200028A6020054A6020038A6020040A6020048A602004CA602002DE9F043A9B04D4CBC
:2051400023685B6820464C490122984720461BF0EFFA23685B68204648490B2298472046F3
:205160000A211BF031FB23685B68204644490122984720461BF0DCFA23685B682046414905
:205180000E22984720461BF0D3FA68463E491BF0E9FB04A83D491BF0E5FB08A83C491BF041
:2051A000E1FB0CA83B491BF0DDFB10A83A491BF0D9FB14A839491BF0D5FB18A838491BF079
:2051C000D1FB1CA837491BF0CDFB20A836491BF0C9FB24A835491BF0C5FB23685B6820460D
:2051E000334905229847204669461BF07BFA04ADE8460DF1A0092F4F2D4E1AE01D4C204650
:205200002D49FDF7C9FE23685B6820462B490322984720461BF08CFA23685B682046284915
:205220000122984720461BF083FA24ACA8F1100816E023685B68204639460222984720466B
:205240001BF076FA23685B682046314605229847204629461BF046FA10354D45E9D1CDE73D
:2052600020461BF033FB103C4445F9D129B0BDE8F08300BFE056002060A6020064A60200D6
:2052800070A6020074A6020008A6020010A6020018A6020020A6020028A6020054A602001E
:2052A00038A6020040A6020048A602004CA6020084A6020094A6020088A602008CA6020076
:2052C00090A6020030B400230468E218E55C01FB05F52D12E554547804FB01F424125470C0
:2052E000947804FB01F4241294700333B3F5406FEAD130BC704700BF2DE9F04F8BB00390A7
:20530000BC48F021FFF7DEFFBB4906914FF0000B8A46039A108A1FF025FD05460AEB0B0934
:205320005BF80A101FF072FD1FF036FF039B1C89204484B22846D9F804101FF067FD1FF08C
:205340002BFF039A51890144204689B2928915F0E7FD064610F0400F00F0A281C043C0B29F
:2053600000F03F0300F00F000130A44A1B115B00D118497800FB01F0D35C03EB2010C0B201
:2053800016F0800F18BF4042C0B280F080001FF0E5FC1FF0A7F800224FF07E531FF0F6F8F0
:2053A0000022974B1EF03EFF1FF0D2FB8046069CA06006F14003DBB213F0400F00F075815B
:2053C000D843C0B200F03F0200F00F0001308B49121152008D186D7800FB05F08A5C02EB49
:2053E0002010C0B213F0800F18BF4042C0B280F080001FF0B3FC1FF075F800224FF07E5352
:205400001FF0C4F800227E4B1EF00CFF1FF0A0FB054600F10043E3600AEB0B074046396922
:205420001FF0ECFB8046B860786929461FF0E4FB05460AF108075F447860E4694046414630
:205440001FF0E4FC8046284629461FF0DFFC014640461FF0D3FB0546204621461FF0D6FC2D
:20546000014628461FF08EFE00286ED028461FF039F81CF04BFF1FF06BFB00211FF05AFE75
:20548000002841D10AEB0B030793D3F80880DD68404641461FF0BAFC0490404641461FF01B
:2054A000B5FC8046284629461FF0B0FC014640461FF0A4FB1FF016F81CF028FF1FF048FBC0
:2054C0001FF010F802460B4600204D491FF088F9CDE90401079988681FF004F802460B46E7
:2054E000DDE904011FF052F81FF032FB079A906078681EF0F7FF02460B46DDE904011FF064
:2055000045F81FF025FB786020461EF0EBFF04460D460AEB0B08D8F808001EF0E3FF024634
:205520000B46204629461FF031F81FF011FBC8F8080078681EF0D6FF02460B4620462946F9
:205540001FF024F81FF004FB78600AEB0B045BF80A00A1681FF052FB07464BF80A00D9F809
:205560000400E1681FF04AFB0546C9F8040020691EF0B8FF002200231FF008F81FF0E8FAE7
:2055800020610AF110045C4460681EF0ABFF002200231EF0FBFF1FF0DBFA60601549039A6F
:2055A000937CF21891F8083C009309A801F60941D2B2FF2314F076FE9DF825209DF826309D
:2055C0009DF824108DF820108DF821208DF8223038461FF0E1FD04B228461FF0DDFD02B284
:2055E0000848214608AB13F055F85BF80A402046002109E000EDFF1F182C002074A402005B
:205600000000F03FB8AAFF1F1FF09EFD90B920464FF084411FF0ACFD60B9D9F80440204632
:2056200000211FF091FD28B920464FF084411FF09FFD48B120201BF033F91FF08FFB4AF86B
:205640000B000023C9F804300BF1340B069934310691BBF5026F7FF45CAE1E4B1B6813F0C4
:20566000010F0CD11B4819F0EBFD40B11A4B1A681A4B1A60C8225A60164819F0E7FD164BE2
:205680001968164B1A688A1A5B689A4212D3124B1A68124B1A60039A937C0133937409E0F8
:2056A00000F03F0300F00F005FE603F03F0203F00F008CE60399CB890A891A440A814A898D
:2056C0001A444A818A8913448B8132200BB0BDE8F08F00BFEC9FFF1FE0550020B89FFF1FC8
:2056E0002DE9F04F93B00A909348AA21FFF7EAFDDFF858A20027D14657F80920049209EBE4
:20570000070302935A6806929D688C4B3B445C6809EB07035E69D046DAF818300B93DAF80C
:205720001C200592DAF820300C93DAF824200D929AF828300793DAF82C200E929AF83030EC
:205740000F93029A10690A9B99681FF057FA834630460A9AD1681FF051FA03902846594676
:205760001FF04CFA0546204603991FF047FA0446284629461FF04AFB0646204621461FF094
:2057800045FB014630461FF039FA0646059801461FF03CFB014630461FF0F4FC002851D04F
:2057A00030461EF09FFECDE908011CF0AFFD1FF0CFF900211FF0BEFC38BBDDE908011CF0C2
:2057C000A5FD1FF0C5F91EF08DFE02460B4600205B491FF005F8CDE9080128461EF082FE9D
:2057E00002460B46DDE908011EF0D0FE1FF0B0F9054620461EF076FE02460B46DDE9080112
:205800001EF0C4FE1FF0A4F9044605981EF06AFECDE9080128461EF065FE02460B46DDE9B2
:2058200008011EF0B3FE1FF093F9054620461EF059FE02460B46DDE908011EF0A7FE1FF0C5
:2058400087F90446049829461FF0D8F90490069821461FF0D3F9064658461EF043FE0022C4
:2058600000231EF093FE1FF073F9069003981EF039FE002200231EF089FE1FF069F9039097
:205880002D4991F8083C009311A801F60941079AFF2314F007FD9DF845209DF846309DF8D3
:2058A00044108DF840108DF841208DF8423004981FF072FC0FFA80FB30461FF06DFC02B2A3
:2058C0002048594610AB12F0E5FE30461E491FF04FFC10B104F100441B4E049B47F8093070
:2058E000029A566009EB07039D60144A3A445460069A1A61039A5A610B9BC8F81830059A0B
:20590000C8F81C200C9BC8F820300D9AC8F82420079B88F828300E9AC8F82C200F9B88F8D1
:20592000303034370AF1340AB7F5D06F7FF4E4AE0F2013B0BDE8F08F00EDFF1F202C0020E6
:205940000000F03FB8AAFF1F0000F841182C00202DE9F04FA1B0069090F8A432002B3FD126
:20596000012380F8A432002002211AF0A5FFA54C0026DFF8A4B227460025DFF8B0824FF0A6
:20598000814A4FF082490020FF211AF095FF0020FF211AF091FF30461FF0E4F92060C4F8DC
:2059A00004B0E31B07F108029D501A44556007F110029D5013445D60C4F81880C4F81C807C
:2059C000C4F820A0C4F82490002384F828301C9BE362012384F830301E443434202ED2D12D
:2059E0008948AA21FFF76EFCDFF818B24FF0000AD146844B03EB090105914A680792CE68CC
:205A00000F694D695C46DBF818300A93DBF81C100491DBF820200B92DBF824300C939BF861
:205A200028100D91DBF82C200E929BF830300F9350461FF097F980463846069AD2F89412B3
:205A40001FF0DCF802902846069BD3F898121FF0D5F803906D4B83FB0A134FEAEA72C2EB49
:205A60006303DBB26A4A52F8235006998A7A12B1684A52F82350079867491FF05BFB08B37E
:205A800028461EF01DFD0022644B1EF07FFD1FF017F829461AF010FF1FF064F900F10040D2
:205AA0005F491FF067FA0546069AC2F8A0020298D2F89C121FF0A2F80290039829461FF021
:205AC0009DF80390029800211FF098F80546304603991FF093F80646284629461FF096F986
:205AE0000746304631461FF091F9014638461FF085F80746049801461FF088F901463846FD
:205B00001FF040FB002851D038461EF0EBFCCDE908011CF0FBFB1FF01BF800211FF00AFB67
:205B200038BBDDE908011CF0F1FB1FF011F81EF0D9FC02460B4600203A491EF051FECDE961
:205B4000080128461EF0CEFC02460B46DDE908011EF01CFD1EF0FCFF054630461EF0C2FCD1
:205B600002460B46DDE908011EF010FD1EF0F0FF064604981EF0B6FCCDE9080128461EF0C2
:205B8000B1FC02460B46DDE908011EF0FFFC1EF0DFFF054630461EF0A5FC02460B46DDE92C
:205BA00008011EF0F3FC1EF0D3FF0646404629461FF024F88046079831461FF01FF8074644
:205BC00002981EF08FFC002200231EF0DFFC1EF0BFFF029003981EF085FC002200231EF089
:205BE000D5FC1EF0B5FF039040464FF084411FF0BFFAE8B128460C491FF008F90546DFF89F
:205C0000188021E0182C002000EDFF1F67666666E4ECFF1F20FAFF1F0000F8410000E83F5D
:205C2000000070440000F03FCDCC4CBE00002041404600211FF088FA30B128463A491FF064
:205C4000E5F805464FF0000838464FF084411FF08FFA30B1304634491FF0D8F80646334F3A
:205C60000AE0384600211FF06FFA28B130462E491FF0CCF8064600272D4B49F8038005993D
:205C80004F6003EB09029560D660029911611346039A5A610A9BA3610499E1610B9A2262C2
:205CA0000C9B63620D9984F828100E9AE2620F9B84F830301D4839461EF09EFF1D491FF0A8
:205CC000A5F81FF08FFAC2B21B4B93F8083C00931FA81A49FF2314F0E5FA9DF87D209DF85D
:205CE0007E309DF87C108DF878108DF879208DF87A3040461FF050FA04B238461FF04CFA13
:205D000002B20F4821461EAB12F0C4FC0AF1010A09F134090BF1340BBAF1200F7FF469AEAA
:205D200021B0BDE8F08F00BFCDCC4CBE0000F841182C00200000E04000EDFF1F09F9FF1F24
:205D4000B8AAFF1F2DE9F84F1B4D6FF00E0ADFF878B0DFF87890DFF87880184FDBF8006040
:205D600006FB0AF60024A4F10F01D9F8000030443B68D8F8002002FB0131114B1A6814F070
:205D800053FE104B1B78C0F307205A42D2B202FB00F02A5D03FB02F31B1203EB20232B5585
:205DA0000134202CDFD10AF1010A2035BAF1110FD4D1BDE8F88F00BF2CA0FF1F38A4FF1F18
:205DC000C0A6FF1F14A0FF1F30A4FF1FB8A6FF1F34A4FF1F00B587B0002302930748694667
:205DE00015F034FE28B1142019F0DAFC034815F0BDF9029807B05DF804FB00BF7C28002052
:205E000010B5FFF7E7FF044620B1FFF7E3FF8442FBD001E0002010BD204610BD10B504464D
:205E2000FFF7EEFF034678B91E4B1A681E4B1B68D21A1E4B1B689A4230D31D4B1868002867
:205E40002FD000221A6010BD164A1168164A116020F000416FF00042914215D1114B1A68A7
:205E6000144B1B68D21AA24205D30122124B1A700F4B186810BD9BB900200F4B1870094B3D
:205E80001A680C4B1A6010BD064A1168094A11600020094A1070064A136010BD002010BDE5
:205EA000002010BDE0550020A82800201096FF1FCCFFFF1F18A0FF1FC0ECFF1F0023034AF3
:205EC0001360034A1370034A13607047CCFFFF1FC0ECFF1F18A0FF1F9C4B1B78002B75D095
:205EE0009B4B98426ED027D8A3F55F53083B984260D010D8974B98424ED004D8A3F5FF6376
:205F0000984255D062E0944B98423FD003F5FF63984255D05AE0914B984247D004D8A3F5A4
:205F20007F63984250D051E08D4B984238D003F5FF6398422CD049E08A4B98422ED011D8AB
:205F4000A3F5FF53984239D004D8A3F5FF63984222D03BE0844B984226D003F57F63984264
:205F600020D033E0814B98420ED004D8A3F57F6398420FD02AE07E4B98421DD003F5FF6397
:205F8000984200F0D98021E0022070470420704705207047062070470820704709207047B1
:205FA0000A2070470D2070470E2070470F20704710207047112070471520704713207047AC
:205FC000172070471420704716207047694B1B78002B37D0684B984230D012D8674B98427F
:205FE00022D005D8A3F57F63984200F0A78029E0634B98421CD003F55F53083398421FD03C
:2060000020E0604B98420DD004D8A3F5FF5398420CD017E05C4B98420CD003F5FF5398422A
:206020000AD00FE0022070470420704705207047062070470720704708207047092070478D
:206040000A207047514B1B78002B4CD0504B98423FD018D8A3F5CF43183B98423DD009D8B0
:20606000A3F5BF53083B98422FD003F57F63984225D038E0474B984225D003F51F53183383
:2060800098421AD02FE0444B984220D009D8A3F51F53183B984214D003F5FF5398424FD095
:2060A00021E03E4B98421AD003F5FF63984218D0A3F57F63984216D10DE002207047042051
:2060C0007047052070470620704708207047092070470A2070470D2070470E2070470F20B8
:2060E0007047102070472E4B1B785BB32D4B98421CD009D8A3F57F53984215D003F53F5316
:206100001033984216D00DE0274B984208D003F57F63984218D0A3F5FF53984202D107E051
:20612000022070470020704704207047052070470620704707207047032070470320704789
:20614000032070470020704703207047C895FF1FA758FD00F708FD00EF10FD00BF40FD0049
:20616000B748FD007788FD008F70FD005FA0FD0057A8FD006C95FF1F8778EF10EF10EF1018
:20618000DF20EF105FA0EF1027D8EF100C96FF1F7F808916C73889163FC0891627D88916CD
:2061A000F395FF1FAF50FF005FA0FF0010B5044642491AF087FC002860D1204640491AF0C4
:2061C00081FC00285CD120463E491AF07BFC002858D120463C491AF075FC002854D1204615
:2061E0003A491AF06FFC002850D1204638491AF069FC00284CD1204636491AF063FC00284D
:2062000048D1204634491AF05DFC002844D1204632491AF057FC002840D1204630491AF082
:2062200051FC00283CD120462E491AF04BFC002838D120462C491AF045FC002834D12046C4
:206240002A491AF03FFC002830D1204628491AF039FC00282CD1204626491AF033FC48BB11
:20626000204625491AF02EFC30BB204623491AF029FC00280CBF00200C2010BD022010BD2F
:20628000032010BD042010BD052010BD062010BD072010BD082010BD092010BD0A2010BD62
:2062A0000D2010BD0E2010BD0F2010BD102010BD112010BD122010BD0B2010BD98A60200BB
:2062C0009CA60200A4A60200ACA60200B4A60200BCA60200CCA60200D8A60200E0A602009E
:2062E000FCA6020004A702000CA702001CA702002CA7020034A7020048A7020054A7020033
:206300002DE9F00F82B08846019200F58F531B68002BC0F20E81914600F58F5C0CF1040C4B
:2063200000F58F531C3300F58E5204320EE008F1010500F590517C1E0C6017F8011C88F8B7
:206340000010B9F1010900F0F080A84600F590510F6804318F42EAD841F2C81150F801A021
:2063600041F2D0114658B24525DA00F58E540C3400F58E5108311D6835B9156805F1010B5F
:20638000C2F800B02D781D60156805F1010BC2F800B095F800B00BFA0AFB25684BEA050575
:2063A00025600AF108050D601D68013D1D60D1F800A0B245DFDB41F2CC14015941FA06F5E6
:2063C0000551C6EB0A0641F2C814065141F2D41406590E4000F58F510968B14200F0A0802F
:2063E00041F2DC114158B14221D141F2D8114458611C41F2D015415104F2614450F82450C9
:2064000041F2D4140551DCF8004041F2F0154451012404FA01F141F2E81401514FF0FF3125
:2064200041F2F814015141F2F41401518EE741F2F0114158B14214D141F2F411415800292A
:206440006EDB00F590547D1C2560397041F2F8114158DCF80040A142A8BF00F5905504DA68
:2064600014E0B1425CDD3146F3E72C68671C2F60471807F5D0573F79277001F5086100EBEA
:2064800081014968DCF800408C42EEDD00F590552C68671C2F60CFB2277041F2F0140559EF
:2064A00041F2E8140459A54218DA41F2F81A50F80AA0BAF1000F11DB00EB050B0BF5D05B74
:2064C0008BF8047005F1010B41F2F01740F807B005F5086500EB8505C5F804A041F2F41521
:2064E000415141F2F811465041F2F01141588C423FF72CAF41F2D01141580A293FF726AFA1
:20650000640041F2E81544514D1C41F2D014055101F2614150F8214041F2D411445015E796
:2065200000F58F504FF0FF330360019BC9EB030000E0002002B0BDE8F00F704700B585B069
:2065400000F5166001A9062215F0CAFB01A8094906221FF0BBFE48B101A8074906221FF020
:20656000B5FED0F1010038BF002000E0012005B05DF804FBC0A40200C8A4020070B5054641
:2065800000F51664204615F023FB0646204615F01FFB46EA00202860204615F019FB06468F
:2065A000204615F015FB46EA00206860204615F00FFBA860204615F00BFB2861204615F066
:2065C00007FBE86070BD00BF08B50146836813F0800F0ED003F007030133012202FA03F3E0
:2065E000836503EB430200F516605C3192B215F077FB08BDF0B599B0064600238DF81C30DA
:206600008DF81D308DF81E304E4807A912F038FC4D4B1B78002B00F0938006F515773846FB
:2066200015F0A0FB10B1384615F090FB01AC474D0FCD0FC495E8030044F8040B2170444813
:2066400001A915F099FD00287AD010A8404901AA012315F001FD9DF8443086F85832129BB2
:20666000C6F85C329DF84C3086F8603218AB53F8134D58689968C6F86142C6F86502C6F83A
:2066800069121B7B86F86D32179BC6F8703210A815F014FB384615F065FB002850D0384645
:2066A00015F014FB18B1384615F050FB48E096F858E28DF824E0D6F85C520A9596F86002AB
:2066C0008DF82C00234B0893D6F86142D6F86512D6F86922CDF82D40CDF83110CDF835209F
:2066E00096F86D128DF83910D6F870220F921A4C84F864E9C4F8685984F86C09DDF82D60BF
:20670000DDF83150DDF83500C4F86D69C4F87159C4F8750984F87919C4F87C2908A815F0A3
:20672000CDFA2046FFF70AFF18B9384615F00EFB06E0094C2046FFF721FF2046FFF744FF7A
:2067400019B0F0BDB8AAFF1F00A0FF1F60A702004452002048EB0200BCAAFF1F2DE9F04FB8
:2067600087B0044600F5166500F65C0600F0D8BC384615F02DFA0546384615F029FA45EA82
:2067800000206061384615F023FA0546384615F01FFA45EA0020A061384615F019FA054660
:2067A000384615F015FA45EA0020E061384615F00FFA0546384615F00BFA45EA0020206287
:2067C000384615F005FA6062C0F3801384F8283010F0800F0ED000F007030133012202FAA1
:2067E00003F3A36503EB4302384604F15C0192B215F076FA94F844309BB1216BB1F1FF3F27
:2068000004F518600CBF217CC9B24FF480621FF08BF8002384F84430A364E3642023236541
:206820006365A36B012B0AD900238DF810308DF811308DF812308C4804A912F021FBA36B51
:20684000022B1FD194F83410A66CE06CD4F850E0636D00EB030C604538DA06EB401505F62F
:206860007F15254406EB0E08464506DA05EB0E022B4603F8011F9342FBD101302035604551
:20688000F2D123E0032B21D104F5586004F51861D4F848E0E36C256D626D03EB020C6345A7
:2068A00014DA5A0110441144C3EB0C0C00267544F046AE4505DA4346C25CCA540133AB4253
:2068C000FAD10136203020316645F2D1E26BA26382B36669A664A369E364E5692565216A91
:2068E0006165022A06D1236BB3F1FF3F08BF236963631FE0032A1DD104F5186004F5586EFC
:206900005A18934216DA590108447144C3EB02084FF0000E3544B446AE4205DA6346C25CD7
